:100000000092000400070000F74C00000000000010
:1000100000000000000000000000000000000000E0
:10002000801878FFE4B8200118F6D8F99000007F16
:10003000007E07E4F0A3DFFCDEFA758120022FA327
:1000400012133B5024746F2B1214C8E0701B746F92
:100050002BF582E4340312116E25E025E02472F5BD
:1000600082E43403F583122A1C2200022A91EFD382
:100070009403500D121291F583E5822D1210FCE4C9
:10008000F022000231A075F002122A59E0FCA3E030
:10009000FD75F09AEFA42445F582E5F03400F58370
:1000A000EE75F002022A5925E025E02472F582E47B
:1000B0003403F583E0F8A3E0F9A3E0FAA3E0FB90B2
:1000C000037EE0FCA3E0FDA3E0FEA3E0C39BFBEE08
:1000D0009AFAED99F9EC98F82290049EE0FF75F0F9
:1000E00002A42401F582E5F03402F583E0FCA3E0EC
:1000F000FDEF75F002A42427F582E5F03400F583C6
:10010000229004ACE0FF9004ABE0FE75F09AA424CA
:10011000A8F582E5F03400F583E5822FF582E43519
:1001200083F583229004ADE0FEA3E0FF9004ABE0F2
:10013000FD75F09AA4247BF582E5F03400F5832266
:10014000EF2424FFEE34FAFE7C007D0A1229787D2C
:100150001E12298AEF24DCFFEE3405FEEB75F00257
:10016000A42421F582E5F03400F58322E0FCA3E02D
:10017000FDEF75F09AA42457F582E5F0340022F5DE
:1001800083E493FC740193FD75F002EFA422F583E0
:100190007401F090037EE0FCA3E0FDA3E0FEA3E089
:1001A000FFEB2275F002EBA4241BF582E5F034008E
:1001B000F583E0FCA3E0FD75F002EBA42415F582C5
:1001C000E5F03400F58322C39DFFEE9CFEE075F060
:1001D0009AA42469F582E5F03400F58322E025E055
:1001E000241FF582E43420F583E493FE740193FF29
:1001F000E4FCFDC3022A0B2407F582E5F03402F586
:1002000083ECF0A3EDF0EF25E0229004ABE0FF7566
:10021000F09AA42433F582E5F03400F5832275F0DA
:100220009AA4248DF582E5F03400F583EC75F00294
:10023000022A599004ABE0FF75F09AA42445F58298
:10024000E5F03400F58322E04401F0E4900014F07E
:1002500090036E2275F002EBA4241BF582E5F034C6
:1002600000F5832290049EE0FF2413F582E434021B
:10027000F58322F074192EF582E43402F58322F01E
:10028000A3F0A3F0A3F0A3F0A3F0A32290049DE0B9
:10029000FF25E0249FF582E43404F583229004AB2B
:1002A000E0FD75F09AA4248DF582E5F03400F58325
:1002B00022EF75F009A42484F582E4340322EF755B
:1002C000F009A424E7F582E43402229004ACE0FFB4
:1002D0009004ABE075F09AA4249FF582E5F0340019
:1002E00022E4F075F09AEEA424B1F582E5F0340032
:1002F000229004ABE0FFA3E0FD22242DF582E5F07F
:100300003400F583ECF0A3EDF00F2290049EE0FFA3
:1003100075F002A4240DF582E5F0340222EF246684
:10032000FFEE34FEFE7C007D0A1229787D32122910
:100330008AEF249AFFEE3401FE75F002EB2290045E
:100340009EE02416F582E43402F583229004AFE0A7
:10035000FDEF9D7480F86E9822EDF0CBEFCBEBD3E0
:1003600094032275F09AEEA424CCF582E5F03400D3
:1003700022E04406F09000147401F02275F002EFC0
:10038000122A59E0FCA3E0FD75F09A22E0FEA3E0FA
:10039000FFD322900414E054F0F022E0FEA3E0C367
:1003A0009D22EB25E024DFF582E43421F58322E071
:1003B000249FF582E43400F583E0640122E4F0A395
:1003C000F075F09A22F583E4F07F0122E0FCA3E0CF
:1003D000FDEC541F22E4900494F09002287402F083
:1003E00022EE8FF01229DF75F09AED22C3EF94F61A
:1003F000EE6480947F22E490021DF09002E0F022EF
:10040000900013E0FEEFC39E222401F582E5F03454
:10041000022275F024A4249FF582E43403F583229C
:1004200075F024A42402F582E43403F583229004B9
:10043000ABE0FFA3E0FD22A424A8F582E5F03400A0
:10044000F583E58222E0FEA3E02DFFEE3CFE900462
:100450009DE02290049EE090049DF022F0741A2EFC
:10046000F582E43402F583E4F02275F004022A599F
:10047000E0FF9004A0E0FEEFC8EEC808229004144C
:10048000E0440A22F582E43402F5832225E025E0E7
:1004900024A3F582E4340222F582E43402F58322B7
:1004A00025E025E0244CF582E4340222F582E43490
:1004B00002F5832225E025E0242DF582E434022292
:1004C000F582E43400F5832225E025E02406F58258
:1004D000E4340022F582E43402F5832225E025E0AD
:1004E0002497F582E4340222F582E43403F5832272
:1004F000902EC5E4F0902ECDF0A3F022F582E434E6
:1005000002F58322940AEE648094802275F002EF53
:10051000022A59902EC6F0902EC57401F022F09058
:10052000021C747EF0E4A3F022ECF0A3EDF0900442
:10053000ABE022902EC97420F02290049EE004F0DB
:1005400022F090021EF09002E1F022EEF0A3EFF014
:10055000900494E022900226E0FE7052900228E07F
:10056000640260030215CB9002E204F0900214E0F2
:10057000B40103121355900215E0B4010690036E06
:100580007401F0900497E0B4010890040B7401F03A
:100590008005E490040BF0900412E0B40108900090
:1005A000007401F08005E4900000F07F0222EE6408
:1005B000017038900228E0640270309002E204F08A
:1005C000900497E0B4010890040B7401F08005E4F6
:1005D00090040BF0900412E0B40108900000740144
:1005E000F08005E4900000F07F0222E4FE9000130A
:1005F000E0FFEEC39F4003021791900226E0FC70DB
:1006000050121254E06401704874132E12124BE021
:10061000FF7016121373EEB40104E04409F0EE64A7
:1006200002702112145DF0801BEF6401701612132A
:1006300073EEB40104E04401F0EEB4020790041438
:10064000E04402F0121254E4F0900494E07002C20C
:100650008AEC6401600302178D121254E064016099
:100660000302178D74132E12124BE0FC6003021666
:10067000DC121373EE6401703A9002E1E0FD640154
:10068000701B9002E0E0900414B40109E0440912E8
:10069000122A0480151212271215218016ED9004DB
:1006A00014B4020BE0440512122A12143C80041206
:1006B0001227F0EE640260030217809002E1E0FF6F
:1006C0006401701C9002E0E0900414B4010612135F
:1006D00051E48021E0440412122A121521021780ED
:1006E000EF900414B40205E044058003E04404F0F4
:1006F000E4900014F090036EF0021780EC64016047
:1007000003021780121373EE640170499002E0E057
:10071000FFB4020812145D1213548013EF640170C9
:100720002690021EE0900414B4010C121351E490C0
:10073000036E12143C801EE04402121354E4900332
:100740006EF01213D7800E900414E044021213547A
:10075000E490036EF0EE640270469002E0E0B402B2
:100760001012145DF090036E7401F0900014F0808C
:100770002F90021DE06401701C9002E1E0900414CF
:10078000B40105E044098013E0440812122A04F081
:100790001213D6800B900414E0440812122A04F0BD
:1007A000121254E4F0900494E07002C28A0E021512
:1007B000CD7F04229004ABEFF0A3EDF09004AF7472
:1007C00003F0ED70037402F09004ABE0FF121152DD
:1007D000F583C083C0829004ACE0FED082D0831247
:1007E000106612137BFFEE9CFE9004ADF0A3EFF0B9
:1007F000123820C312132C400302188D121104C0AA
:1008000083C0829004ACE0FCD082D08312108112AD
:1008100013C1121114EC12108112136C1214E44063
:100820002412110CC083C0829004ACE0FCD082D0B2
:1008300083121081E4F0A3F0ED12115212120AE4B7
:1008400075F001802B1213CC50299004ABE0FF12FD
:100850001111C083C0829004ACE0FED082D083121C
:100860001081E4F0A3F012115112107E74FFF5F024
:100870001229DF1212D112104E1212D11235391272
:1008800012D11232A9EF700302199B9004ACE0FF61
:100890009004ABE0FE1212B41210F7E4F0EF600324
:1008A00002199B121343F583E4F002199B9004ACE8
:1008B000E07029A3E0FEA3E0FF123820D312132C2E
:1008C00040091212AB1210F77401F01219D4402330
:1008D0009004ABE075F09A12134780121219D440BD
:1008E000121212ABF583E5822FF582E43583F5838E
:1008F0007401F0121104C083C0829004ACE0FCD0FB
:1009000082D0831210811213C112111412120C1210
:10091000136C9464EE64809480402312110CC083A5
:10092000C0829004ACE0FCD082D0831210811213FC
:100930009DED12115512120AE475F0018031C3EFDA
:10094000949CEE6480947F50299004ABE0FF1211D8
:1009500011C083C0829004ACE0FED082D08312101C
:1009600081E4F0A3F012115112107E74FFF5F01221
:1009700029DFC39004ADE06480948050321212D11C
:100980001235021212D1123256EF60299004AB12C6
:100990001216C083C0829004ACE0FED082D08312D5
:1009A000108112114C12107EECF0A3EDF0800612B3
:1009B00012D112104E1212D112378C9004ABE0FFFC
:1009C000121152F583C083C0829004ACE0FED08245
:1009D000D083121066E0FEA3E09004AB1211A7C012
:1009E00083C0829004ACE0D082D083121081EEF0FC
:1009F000A3EFF0229004ADE0FEA3E0FF12382090B8
:100A000004AFE0FDD3EF9D7480F86E982290049DB2
:100A1000747EF0900226E06003021B0490049EF0B6
:100A2000900013E0FF90049EE0FEC39F4003021A73
:100A3000E374132E12124BE06003021ABB74162EDD
:100A4000121324E0FF702890049EE075F002A424A5
:100A500007F582E5F03402F583E0FCA3E0FD75F0D4
:100A600002EE1210D5E0FAA3E0C39DEA9C500FEF0E
:100A70006401705B1210B912137BEE9C405190041C
:100A80009EE0FF90049DF01213227401F074132F66
:100A900012124B7401F090021CE0FFB47E1490041B
:100AA0009EE0FE90021CF0A374011212537401F038
:100AB000800D90049EE06F600690021D7402F0901D
:100AC000049EE0FF1237E490049EE0FF1210201213
:100AD0001BFF602612131EE4F0801F1212EB12108F
:100AE000CA12137BEE9C400C12143312338EEF604B
:100AF00009021BAE12124412362F90049EE004F03D
:100B0000021A00900214E0701BA3E0701790021DFF
:100B1000E0D39400400E90021CE024191212577486
:100B2000011214FE900226E064016003021BF090A3
:100B3000049EF0900013E0FE90049EE0FFC39E40F0
:100B400003021BF01235A0EF60031213D690049E2F
:100B5000E0121249E070611210B912137BEE9C4052
:100B60003B1214331212497401F090021DE004F09C
:100B70009002E0F090049EE0FF24191212577401D5
:100B8000F01237E490049EE0FF1237F390049EE0E9
:100B9000FF1236F790049EE0FF121020121BFF6038
:100BA0000512131EE4F090049EE0FF1235D0EF60B2
:100BB00056E490021E021BE21212EB1210CA12132C
:100BC0007BEE9C401612143312338EEF60391213F1
:100BD000BA90049EE0121249E4F022121244123636
:100BE0002F90049EE0FF12380290049EE0FF12371F
:100BF0001990049EE024191212577401F090021EFD
:100C0000E004F09002E1F090049EE004F0021B1377
:100C100090049DE0FF900222E06F6002EFF02290CE
:100C2000049EE0FF123570EF227F05123492EF60D0
:100C30000AE490040CF07F051237C6900228E024E5
:100C4000FE601B147003021CE2147003021DA82432
:100C5000036003021E1D1213BAE49002DFF090023B
:100C6000287403F09002E2E064016003021CDFF0EC
:100C7000900226E0FD7020C28A121373900014E0E7
:100C80006009E4F0900414E04409F090036EE06021
:100C900006E4F012145DF0ED64016003021E1D1203
:100CA0001373900014E0FF700990036EE07003026C
:100CB0001E1DEF601290036EE0600C12122BF0907C
:100CC0000414E044058034900014E0601290036E38
:100CD000E0700C12122CF0900414E04401801C907F
:100CE0000014E06003021E1D90036EE07003021EFC
:100CF0001D12122BF0900414E04404F0C28A220268
:100D00002D4F12275590021FE07003021D819002A3
:100D1000DFE004F0E490049CF0900013E0FF900406
:100D20009CE0C39F507BE4FF90049CE0FE1211EF17
:100D300012135CEE121155F5831214ECECF0A3EDD6
:100D4000F090049CE0FE1211EF12135CEE12121BE5
:100D50001214EC1212E4EFB409CE90049CE0FF12DE
:100D600010D2E4F0A3F0EF12113D7404F0A3E4F00C
:100D7000EFB40110E490041EF0A3F0900422740478
:100D8000F0E4A3F0EFB40210E4900420F0A3F0909C
:100D900004247404F0E4A3F090049CE004F0021C2A
:100DA000F99002DFE0C394035003021E1D9000126D
:100DB000747EF0E4900220F09002DFF07F0E123794
:100DC000D59002287404F022900494E0B4020B74CD
:100DD00003F07F041237C61236AB900494E0B403DC
:100DE000107F04123492EF60087F041237C612138A
:100DF000B512334712275512334790021FE0603D6A
:100E00001221FFE490049CF0900013E0FE90049CFB
:100E1000E0FFC39E501912345612320190049CE038
:100E2000FF121E1E12334790049CE004F080D9127A
:100E300036001219ED121535900228EFF022CBEF93
:100E4000CB121234E0FEA3E0FF121197E0FCA3E006
:100E5000FDC39FEC9E5003021F31E42DFFEC3404D0
:100E6000FE121234E0FCA3E0FDC3EF9DFFEE9C12E6
:100E7000113BEEF0A3EFF0121234E0FEA3E0FF12FC
:100E80001197E0FCA3E0C39FFFEC9EFE75F002EB20
:100E90001210D5EEF0A3EFF0121382E493FE74016A
:100EA00093FF75F002EB1210D5E0FCA3E0FDD39F99
:100EB000EC9E4064121382E493FE740193FFC3ED31
:100EC0009FFFEC9EC313FEEF13FF12138274019376
:100ED0002FFFE4933EFE75F002EB1210D512152B96
:100EE00064036003021F6DEBB4010F1210D2E0FF28
:100EF000A3E0900224CFF0A3EFF0EB6402600302C2
:100F00001F6D75F002EB1210D5E0FFA3E090038295
:100F1000CFF0A3EFF0021F6D75F002EB1210D5E0D9
:100F2000FEA3E0FF7C007D631229780D12298A75EB
:100F3000F002EB1210D512152BB4030BEBB4010722
:100F4000E4900224F0A3F0EB6402704190038280ED
:100F500039121197E0FEA3E0FF121234E0FCA3E087
:100F6000C39FEC9EC3940475F002EB50121210D58F
:100F7000E4F0A3F012113C7404F0A3E4F0800E122C
:100F800010D5E4F0A3F012113CE4F0A3F0EB6401FF
:100F9000704F75F002EB1210D512136C949AEE9408
:100FA00001400B1212FD1210D5EEF0A3EFF075F018
:100FB00002EB1210D51213AC90041EF0EDA3F01248
:100FC000113C12136C94DCEE94054008121120EED3
:100FD000F0A3EFF012113C1213AC900422F0EDA339
:100FE000F0EB6402704F75F002EB1210D512136C27
:100FF000949AEE9401400B1212FD1210D5EEF0A35C
:10100000EFF075F002EB1210D51213AC900420F043
:10101000EDA3F012113C12136C94DCEE9405400821
:10102000121120EEF0A3EFF012113C1213AC900459
:1010300024F0EDA3F0223F3F3F3F3F3F3F3F3F00C3
:101040003200321770012C0258006402580004006C
:101050001E000A000A000F0064000A000C000C00C9
:101060000000000000000000000000000101010D70
:101070000E0F030405060708090A0B0C0001020005
:1010800032003200320032003200320032003200D0
:1010900032003200320032003200320032003200C0
:1010A0003700370037003700370037003700370088
:1010B0003700370037003700370037003700370078
:1010C00028002800280028002800280028002800E0
:1010D00028002800280028002800280028002800D0
:1010E0002D002D002D002D002D002D002D002D0098
:1010F0002D002D002D002D002D002D002D002D0088
:10110000500050005000500050005000500050005F
:10111000500050005000500050005000500050004F
:101120005500550055005500550055005500550017
:101130005500550055005500550055005500550007
:10114000460046004600460046004600460046006F
:10115000460046004600460046004600460046005F
:101160002D002D002D002D002D002D002D002D0017
:101170002D002D002D002D002D002D002D002D0007
:10118000C800C800C800C800C800C800C800C8001F
:10119000C800C800C800C800C800C800C800C8000F
:1011A000CD00CD00CD00CD00CD00CD00CD00CD00D7
:1011B000CD00CD00CD00CD00CD00CD00CD00CD00C7
:1011C000BE00BE00BE00BE00BE00BE00BE00BE002F
:1011D000BE00BE00BE00BE00BE00BE00BE00BE001F
:1011E0002D002D002D002D002D002D002D002D0097
:1011F0002D002D002D002D002D002D002D002D0087
:10120000FA00FA00FA00FA00FA00FA00FA00FA000E
:10121000FA00FA00FA00FA00FA00FA00FA00FAE41A
:1012200090049EF090049EE0FDC394095023E0FFDB
:1012300075F0021211F2E0FAA3E0FB75F002EF1272
:10124000121BEAF0A3EBF0E4FF12179412151A80B8
:10125000D3E490049DF0900013E0FF90049DE0C360
:101260009F40030223CC12126FE4F0A3F0EF25E0BD
:1012700024A5F582E43404F583E4F0A3F0EF7003D1
:101280000223C3E490049EF090049EE0FDC3940901
:10129000501890049DE0FF1223D290049DE0FFA31C
:1012A000E0FD1225A112151A80DEE490049EF09054
:1012B000049EE0FFC39409400302236E749F2F1223
:1012C0001392601890049DE075F09A121347F5830D
:1012D000E0640160079002E3E0B4011990049D12FC
:1012E00011ADC083C08290049EE0D082D0831210E2
:1012F00081E4F0A3F090049EE0FF70030223689065
:10130000049DE0FE1211AE1214ECE0FCA3E0C394C5
:1013100003EC64809480501A75F09AEE1211B1C0FB
:1013200083C08290049EE0D082D083121081E4F0CA
:10133000A3F09004B4E0602A90049DE0FF1211AE87
:10134000C083C08290049EE0FED082D083121081C0
:1013500012114C12107E121425121271EE8FF0121F
:1013600029DF90049DE0FF1211AEC083C08290047B
:101370009EE0D082D083121081E0FCA3E0FDEF124A
:101380001271EC8DF01229DF12151A02228F9004CF
:10139000B4E0601212126CE0FCA3E01211671211AB
:1013A0009CECF0A3EDF090049DE0FF75F09AA4246E
:1013B00059F582E5F03400F583E0FCA3E0121167F3
:1013C000121239ECF0A3EDF012126CE0FCA3E01263
:1013D000116712123912142575F00212119BEEF0EA
:1013E000A3EFF090049DE004F0022236E490021F87
:1013F000F0229004ABEFF0A3EDF09004AF7407F08F
:10140000ED603F90009FE06401700280089004ACA2
:1014100012138F702D1211EAC083C0829004ACE0C9
:10142000FED082D083121066121509121282C08378
:10143000C0829004ACE0D082D083121081E4F0A38B
:10144000F0229004AB121216C083C0829004ACE06C
:10145000FED082D083121081121363EFA42433F5DF
:1014600082E5F0340012107E12137BFFEE9CFE909A
:1014700004ADF0A3EFF01238209004AFE0FDC312EA
:101480001331400302252A1210E1E0640170377520
:10149000F09AEE1211B1EF12120DE0FEA3E0C39428
:1014A0001EEE6480948040030225701211EAC0830E
:1014B000C0829004ACE0FED082D083121066ECF0C3
:1014C000A3EDF00225709004ADE0FEA3E0FF121240
:1014D0007DC083C0829004ACE0FCD082D083121027
:1014E00081EE8FF01229DFED1211FE12136C12142F
:1014F000E4402912127DC083C0829004ACE0FCD08D
:1015000082D08312108112139DEDA42445F582E54B
:10151000F0340012120AE475F00180281213CC5046
:101520006F9004ABE0FF121282C083C0829004ACC3
:10153000E0FED082D083121081E4F0A3F01210718B
:1015400074FFF5F01229DF0225701211EAC083C082
:10155000829004ACE0FED082D0831210661215098E
:10156000FF1211AEC083C0829004ACE0FED082D0E6
:1015700083121081E0FCA3E0C3941EEC648094808D
:10158000400E75F09AEF1214172E1210FC7401F031
:101590001210E1E0640170281212C31210F7E00487
:1015A0001212C21210F7E0D3940540149004ACE07C
:1015B000FF75F09AEE1210EE1212C11210F7E4F05D
:1015C000229004ABEFF0A3EDF09004AF7407F0EDC0
:1015D00070037404F09002E3E064017002801290E2
:1015E000009FE06401700280089004AC12138F70B9
:1015F00038121213C083C0829004ACE0FED082D0B7
:101600008312108112114C12107EECF0A3EDF090B9
:1016100004AB1211ADC083C0829004ACE0D082D084
:1016200083121081E4F0A3F0229004ABE0FF1211CA
:1016300052F583C083C0829004ACE0FED082D08398
:1016400012106612137BFFEE9C9004ADF0A3EFF036
:101650009004AB121321E06007E49004ADF0A3F016
:101660009004ADE0FEA3E0FF1238209004AFE0FD4F
:10167000C312133140030226E49004ADE0FEA3E060
:10168000FF9004AB12110FC083C0829004ACE0FC49
:10169000D082D0831210811213C112111412120CB5
:1016A00012136C1214E440269004AB12110FC08385
:1016B000C0829004ACE0FCD082D08312108112135F
:1016C0009DED12115512120AE475F001802B1213D0
:1016D000CC50299004ABE0FF121111C083C082905E
:1016E00004ACE0FED082D083121081E4F0A3F012AB
:1016F000115112107E74FFF5F01229DF12140E1230
:10170000104E8038C39004ADE064809480502D1258
:10171000140E12350212140E123256EF601E1212FF
:1017200013C083C0829004ACE0FED082D08312103C
:101730008112114C12107EECF0A3EDF09004ABE09E
:10174000FF121152F583C083C0829004ACE0FED03A
:1017500082D083121066E0FEA3E09004AB1211A7C2
:10176000C083C0829004ACE0D082D083121081EE9E
:10177000F0A3EFF022E490049EF090049EE0FFC3FB
:10178000940940030228F7EF902EC87014E0545FCC
:10179000F0A3746AF0902EC3744AF0A37401F08031
:1017A0000EE044F0F0902EC37480F0A37407F09024
:1017B000049EE090201693902ECAF0E490049DF0D1
:1017C000900013E0FF90049DE0FEC39F40030228B9
:1017D000EE74E42E1214DCE0FF9004A0F0E4F5E2D5
:1017E000EFC39408503B74151214F3C083C08212E7
:1017F00014508002C333D8FCD082D083F0902ECD19
:101800007401F0C083C082E0FFC8EEC8088002C344
:1018100033D8FCD082D083F0902EC074C1F002285F
:10182000679004A0E024F8F074161214F3C083C08B
:10183000821214508002C333D8FCD082D083F0903F
:101840002ECE7401F0C083C082E0FFC8EEC80880CD
:1018500002C333D8FCD082D083F0EEB40503121556
:1018600013EEB4060D121513902EC37410F0A3746A
:101870000BF0EEB4070B121513902EC3F0A3740AED
:10188000F0902EC074C2F0E490049FF090000174B8
:101890002EF0A3E4F090049DE024E41214DCE09028
:1018A00004A0F0123347E5E220E20C90049FE0042C
:1018B000F0E0C394C840D553E2FB1214D09004A0CA
:1018C000E0FD75F002A4FFAEF0900002E02FF09072
:1018D0000001E03EF0ED90204F93FF900001E47591
:1018E000F0021229F585F082F583121363EF1211CD
:1018F000F2C083C08290049EE0D082D08312108117
:10190000ECF0A3EDF090049DE004F00227A0900419
:101910009EE004F002275A90021F7401F022BB01DE
:101920000689828A83E0225002E722BBFE02E3227C
:1019300089828A83E49322BB010CE58229F582E542
:10194000833AF583E0225006E92582F8E622BBFEC1
:1019500006E92582F8E222E58229F582E5833AF557
:1019600083E49322BB010689828A83F0225002F726
:1019700022BBFE01F322F8BB010DE58229F582E5C9
:10198000833AF583E8F0225006E92582C8F622BBA7
:10199000FE05E92582C8F222EF8DF0A4A8F0CF8CD5
:1019A000F0A428CE8DF0A42EFE22BC000BBE002990
:1019B000EF8DF084FFADF022E4CCF875F008EF2F46
:1019C000FFEE33FEEC33FCEE9DEC984005FCEE9D03
:1019D000FE0FD5F0E9E4CEFD22EDF8F5F0EE84201F
:1019E000D21CFEADF075F008EF2FFFED33FD400780
:1019F000985006D5F0F222C398FD0FD5F0EA22C523
:101A0000F0F8A3E028F0C5F0F8E582158270021521
:101A100083E038F022A3F8E0C5F025F0F0E5821568
:101A20008270021583E0C838F0E822EB9FF5F0EAF7
:101A30009E42F0E99D42F0E89C45F022ECF0A3EDD7
:101A4000F0A3EEF0A3EFF022A8828583F0D083D03C
:101A500082122A3F122A3F122A3F122A3FE473E4DD
:101A600093A3C583C5F0C583C8C582C8F0A3C58349
:101A7000C5F0C583C8C582C822A42582F582E5F0D9
:101A80003583F58322EF4E6012EF60010EEDBB014E
:101A90000B89828A83F0A3DFFCDEFA2289F05007EB
:101AA000F709DFFCA9F022BBFEFCF309DFFCA9F07B
:101AB00022C0E0C083C082C0D0E8C0E0E9C0E0EA54
:101AC000C0E0EBC0E0EFC0E0D2AFE5DB30E415E50D
:101AD000DB30E1028022900413E5DFF0900495E40E
:101AE000F0022BE4E5DB30E50590040F803EE5DBFA
:101AF00030E12CE5DB30E01190049912365E1236AD
:101B000067122917F5DF022BE4900496E064016068
:101B100003022BE4308A03022BE4D28A022BE490E6
:101B20000495E0700DA3E5DFF09004957401F002D8
:101B30002BE4900496E0902FE893FFB4FF0F9004FD
:101B400013E5DFF0900496E004F0022BDEEF640F63
:101B5000702F90049912365E900496E0FF12367B47
:101B6000540F12294490049912365E900496E0FFB7
:101B700004F012367BFFE5DF54F04F122944022BAC
:101B8000DE90049912365E123667E5DF1229569010
:101B90000496E0FF64147044E5DFB4202590040C43
:101BA000E06004E4F0800B9004987401F0900494D9
:101BB000E4F09004977401F0900412E4F09002397C
:101BC00004F0E5DFB41015900498E4F0900494F06C
:101BD000900412F0900497F0900239F0EFB4161EC2
:101BE000E5DFB4200B9004127401F0900497E4F048
:101BF000E5DFB41009900412E4F0900497F090042B
:101C000011E004F075DBFFD0E0FFD0E0FBD0E0FA9C
:101C1000D0E0F9D0E0F8D0D0D082D083D0E03290BC
:101C20000498E06006900494E004F0900494E0B41A
:101C3000010BE4900498F0900494E004F090049474
:101C4000E0B40320D3900225E09464900224E09451
:101C500000500E900383E09464900382E09400406F
:101C6000031213B5900497E064017049FF1213E06A
:101C70004003022D2DEF25E0247FF582E43420126D
:101C8000115F1211D7245FF582E4342012115F1224
:101C900013E91211DF249FF582E4342012115F1240
:101CA00012F41211DF24BFF582E4342012115F1206
:101CB00012DA022C4D900412E064017049FF1213F5
:101CC000E05040EF25E0247FF582E4342112115FDB
:101CD0001211D7245FF582E4342112115F1213E947
:101CE0001211DF249FF582E4342112115F1212F4E5
:101CF0001211DF24BFF582E4342112115F1212DACF
:101D0000022C9E022D2DE4FF1213E05040EF25E03F
:101D100024FFF582E4342012115F1211D724DFF57D
:101D200082E4342012115F1213E91211DF241FF52F
:101D300082E4342112115F1212F41211DF243FF5F4
:101D400082E4342112115F1212DA022CE8900203AD
:101D5000A3E0900418F090042AE0FEB4100790026B
:101D6000267401F022EEB42005E4900226F0227ED3
:101D7000027F0F7D007B017A007915122A651233EC
:101D8000D490040BE090042770057410F080037465
:101D900020F0900000E090042970057410F080039A
:101DA0007420F0122BFFE4FE900013E0FFEEC39FBF
:101DB000507BE4FC75F09AEE12111412120C1213FF
:101DC0009DEE1212B7F583E5822C1210FCE4F0EEC2
:101DD0001211FE12139DEE1214172C1210FC121287
:101DE000C1F583E5822C1210FCE4F0CFEECFCDECF0
:101DF000CD12104E12378C0CEC640970B7121343DD
:101E0000F583E4F0CFEECF1237E41238021237F345
:101E100012381174132E12124BE4121253E41214DE
:101E2000FEA3F09002E0F0A3F00E022D88900222B3
:101E3000747EF0900012F0E4900221F022E490040D
:101E40009EF0FF90049DF0EF14601E146035146046
:101E50004C14605B2404707490049F7401F0A374AC
:101E60002FF0A37458F0022EA612365B90000112D8
:101E70002917FED3941F40031236741228FE6E7089
:101E80004B804312365B900002122917FED3940652
:101E900040031236741228FE6E7031802912365BB0
:101EA000900003122917FE1228FE6E701F80171271
:101EB000365B900004122917FE648B60031236749F
:101EC0001228FE6E700690049DE004F00FEF64058A
:101ED0006003022E2790049DE0B40504A37401F072
:101EE00090049EE0FD6007900428E0547FF0CFED61
:101EF000CF22758A50538AEF9004B57411F0900484
:101F0000B37422F09004B67433F075997F759A809B
:101F1000E4FFFEC29620970AD296309705E490041B
:101F2000B5F00FBF00010EEF640A4E70E67590FF2A
:101F300075993F759AC0E4FEFF2097069004B3742C
:101F400027F020960C9004B37426F0209703742891
:101F5000F00FBF00010EEF640A4E70DDE4F5AD75C1
:101F6000AEF075AF09F5AC7589FF75913F75991F96
:101F7000F59675931FF59BF595F592F59A75800C7E
:101F8000D28A9004B404F02202341AE493A3F8E451
:101F900093A34003F68001F208DFF48029E493A3C1
:101FA000F85407240CC8C333C4540F4420C88340DA
:101FB00004F456800146F6DFE4800B0102040810A9
:101FC0002040809030D6E47E019360BCA3FF543F54
:101FD00030E509541FFEE493A360010ECF54C025E1
:101FE000E060A840B8E493A3FAE493A3F8E493A3D1
:101FF000C8C582C8CAC583CAF0A3C8C582C8CAC535
:1020000083CADFE9DEE780BE0F00FF0000000000AA
:102010000000FFFFFFFFFFFFFFFFFF0000000000C9
:1020200000000000000000000000000000000000B0
:1020300000000000000000000000000000000000A0
:102040000000000000000000000000000000000090
:102050000000000000000000000000000000000080
:102060000000000000000000000000000000000070
:102070000000000000000000000000000000000060
:10208000000000000000000090049C7410F0A3E425
:10209000F0A3743FF0A374FFF0E4FDFCF990041585
:1020A000E064AA705074AAF0758A10538AEF000099
:1020B0000090049CE0FEA3E02DF582EE3CF583E465
:1020C00093FF69F90DBD00010CBC2FE5BDFFE29047
:1020D000049EE0FEA3E0F5828E83E493697008908D
:1020E00004157407F08005E4900415F0758A5053C8
:1020F0008AEF000000224102DF0041022700410276
:10210000E2004100140041036E0041040B00410055
:102110000000410226014202240000420382000026
:1021200041023900410229004102E30041049500C7
:102130004104960042040D000041040F00410411C7
:10214000004104100041041310410498004104941C
:102150000041040C01410497004104120000902E3C
:10216000C0E4F0902ECB74F4F0902F58E0540F247C
:10217000F0902EC8F0902ECC7448F0902EC97428A0
:10218000F0A3743FF0902E40748112125FF0A3F020
:10219000A30412125F7484F0A37402F0902EC6742C
:1021A00014F0902EC17490F0A37401F0A37480F029
:1021B000A37407F043E310123758900013EFF02296
:1021C000C0E0C0F0C083C082C0D0E8C0E0ECC0E096
:1021D000EDC0E0EEC0E0EFC0E0D2AF900227E00437
:1021E000F0C3940A4021E4F090037EE0FCA3E0FDFC
:1021F000A3E0FEA3E02401FFE43EFEE43DFDE43C59
:10220000FC90037E122A1CD0E0FFD0E0FED0E0FD5F
:10221000D0E0FCD0E0F8D0D0D082D083D0F0D0E0B5
:10222000329004B4E0604E900017E0FEA3E0FFC3DC
:102230009470EE941750069004B67426F0C3900084
:102240001AE09488900019E0941350129004B67428
:1022500027F0C3EF9470EE941750037428F0E490C5
:1022600004B4F0900017F0A3F0A3F0A3F09004B62C
:10227000E090041CF0229004B1EDF09004B0EFF077
:10228000A3E0FE121291F583E5822E1210FCE060AD
:10229000359004B0E01213F2C083C0829004B1E024
:1022A000D082D08312144A1210949020311211C996
:1022B00040149004B1E0FF9004B0E01212921210AA
:1022C000F7E4F07F01227F00229004B1EDF090044A
:1022D000B0EFF0A3E0FE12129EF583E5822E1210FD
:1022E000FCE060359004B0E0121400C083C082901E
:1022F00004B1E0D082D08312144A1210949020339B
:102300001211C940149004B1E0FF9004B0E0121221
:102310009F1210F7E4F07F01227F0022900209A3B0
:10232000E090046CF090020BA3E090046DF090023A
:1023300003A3E090046EF0900205A3E090046FF018
:1023400090020FA3E0900470F0900211A3E09004BB
:1023500071F09021E1740193900472F09021E37484
:102360000193900473F022900229E024FE6011147E
:102370006025240370373088349002297402F022DB
:1023800020882A9002297403F09002E37401F07F00
:102390000E1237D50236D17F0E1234CAEF600E7F8F
:1023A0000E1237D5E4900229F09002E3F022900457
:1023B0009FEFF0E0FF246F1214C8E0603490023900
:1023C000E06401700EEF1210879020251211C940B1
:1023D00020800F90049FE012108790202B1211C9CB
:1023E000400F90049FE0246FF582E434031213A59C
:1023F000227F00227E007F807D007B017A04791499
:10240000122A659004147405F0A37407F0E4A3F095
:1024100090042674ABF09004287492F09004B5E018
:1024200090041AF09004B3E090041BF09004B6E01E
:1024300090041CF0122E1D0232FC75200153A87F5F
:10244000122ED212368443A8801237A01237B475E8
:102450008DE012373BEF24E0600A2410700AC2833B
:10246000C2828004D283D282122BFF123068438D45
:1024700020121C0980DCCBEFCBEB6401701712112A
:1024800083E0900464F0121197A3E0900465F0ECEF
:10249000A3F0EDA3F0EB64027017121183E0900437
:1024A00068F0121197A3E0900469F0ECA3F0EDA39B
:1024B000F02290049DEFF0C3940F502BE0FF24888E
:1024C000121464E06021EF12146C12109290049DBB
:1024D0001211BD400F90049DE02488F582E434027F
:1024E0001213A5227F00227F00229004A1EFF0C3E7
:1024F000940F502BE0FF243A121478E06021EF1281
:1025000014801210929004A11211BD400F9004A1EA
:10251000E0243AF582E434021213A5227F00227FE0
:1025200000229004B0121339502E9004B0E0FFEB5B
:102530001212921210F7E0701FEB1212921210F7A3
:102540001211701213F2C083C0829004B0E0D082E6
:10255000D08312144A122A1C229004B0121339504C
:102560002E9004B0E0FFEB12129F1210F7E0701FE4
:10257000EB12129F1210F7121170121400C083C0D8
:10258000829004B0E0D082D08312144A122A1C2216
:1025900090049FEFF0E0FF242A12148CE0601EEFFD
:1025A0001214941210929020211211C9400F90041D
:1025B0009FE0242AF582E434021213A5227F002230
:1025C00090049FEFF0E0FF24031214A0E0601EEFE0
:1025D0001214A812109290202D1211C9400F9004CD
:1025E0009FE02403F582E434001213A5227F002229
:1025F00090049FEFF0E0FF24491214B4E0601EEF56
:102600001214BC12109290202D1211C9400F900488
:102610009FE02449F582E434021213A5227F0022B0
:10262000E4FFFE900013E0FDEEC39D501C1210D19C
:10263000E0FCA3E0FDEE1210D2E0FAA3E0D39DEAA5
:102640009C4003CFEECF0E80DA900223EFF022E41D
:10265000F012381190049EE0FF12133B501C742AB4
:102660002B12148CE07013742A2BF582E4340212BE
:10267000116E121494F583122A1C2290049FE0FB21
:10268000A3E0FAA3E0F922900496E0FF04F08F8221
:102690007583002290049E7401F022E92FF9E43A38
:1026A000FA0228FE9004997401F0A37404F0A37454
:1026B00014F0E4F5DA75DA4043DA2075D74075DABC
:1026C0005843A90875B80875F80822CBEFCBEBD3AF
:1026D000940F501C74882B121464E0701374882BB0
:1026E000F582E4340212116E12146CF583122A1C66
:1026F00022CBEFCBEBD3940F501C743A2B121478EF
:10270000E07013743A2BF582E4340212116E121445
:1027100080F583122A1C2212133B501C74032B12C7
:1027200014A0E0701374032BF582E4340012116ED0
:102730001214A8F583122A1C2212133B501C744950
:102740002B1214B4E0701374492BF582E434021296
:10275000116E1214BCF583122A1C22E4FD90040FA2
:10276000E06011900414E0FE54F0FDEE540FF0E42C
:1027700090040FF0CFEDCF221214D0FFFEEE902088
:102780003F93600974E42F1214DCEEF00F0EEEB4E8
:1027900010EB2290037E122A28000000007E007FAA
:1027A0000F7D007B017A02793A022A65EFD3940308
:1027B000500D12129EF583E5822D1210FCE4F022DA
:1027C0007F051237C61236AB12313E9002287401D3
:1027D000F0022D4F75B28E75B6F9E4F5B743B2012C
:1027E00043AA01023773EFD3940F500874882F1255
:1027F0001464E4F022EFD3940F5008743A2F1214AB
:1028000078E4F022EFD394035008742A2F12148C2A
:10281000E4F022EFD39403500874032F1214A0E4C1
:10282000F022EFD39403500874492F1214B4E4F04B
:1028300022EFD394035008746F2F1214C8E4F022CF
:10284000EE30E707C3E49FFFE49EFE220000000095
:102850000000000000000000000000000000000078
:102860000000000000000000000000000000000068
:102870000000000000000000000000000000000058
:102880000000000000000000000000000000000048
:103010000000000000000000000000000000009B15
:00000001FF
