:100000000091000300040000509000000000000078
:1000100000000000000000000000000000000000E0
:10002000801878FFE4B8200118F6D8F99000007F16
:10003000007E07E4F0A3DFFCDEFA758120023304C2
:10004000900383E0FBA3E0FAA3E0F92290037CE0B5
:10005000FF04F08F82758300229003827401F022E6
:10006000E92FF9E43AFA02270D0000022D6875B273
:100070008E75B6F9E4F5B743B20143AA01023AEE30
:100080000000000234F590038FEFF0E47808F608E2
:100090007604087606087608BF01040812195990FC
:1000A000038FE0B40205780C121959E4900390F024
:1000B000121AFB70521216FAC083C082900390E0AD
:1000C000FED082D08312161F12165412196C75F0CE
:1000D000A112162EC083C082900390E0FED082D081
:1000E0008312163A12196C1216EBC083C082900369
:1000F00090E0FED082D08312165512179A12165233
:10010000E4F0A3F002153490038FE0FF75F0A11224
:10011000162EC083C082900390E0FED082D083125E
:100120001655E0FCA3E0FBCAECCA75F0A1121ADA7E
:10013000121652E0FEA3E0FDCCEECCC39BFEEC9A7F
:10014000900393F0A3CEF012171812178EC083C03D
:1001500082900390E0D082D083121655E0FEA3E097
:10016000FFC3ED9FFFEC9EFE900391F0A3EFF01212
:100170003B9A780D121882500E1217131218BD12E6
:1001800016127401F0803B1215C712188050399076
:100190000391E0FEA3E0121AC24016900390E0FD26
:1001A0001217181218BDF583E5822D121617740266
:1001B000F0121A18500C1217131218BD12161274DE
:1001C00004F0E47808F6803C1215C7121880403419
:1001D000900391E0FEA3E0D3121AC2401690039060
:1001E000E0FD1217181218BDF583E5822D121617BF
:1001F0007403F0121A18500C1217131218BD1216AD
:10020000127405F01217C21218BD121612E024FE65
:10021000700302131D1470030213DC147003021424
:100220009F1470030214C4240460030214D3121830
:1002300008121612E0640160221216FAC083C0820E
:10024000900390E0FED082D08312161F1216541233
:10025000170E12180C1216127401F01217C212188F
:10026000A2121612E06401600B121778121612E047
:1002700064027041900390E0FF12189E1215F7126D
:10028000188D121612E4F0121778121612121AD2E2
:10029000121702C083C082900390E0FFD082D08307
:1002A000121655E0FCA3E0FD12171812162E75F079
:1002B00002EF02130712171312177C121612E064D2
:1002C00001702390038FE0FE1216FF1217D0EE127A
:1002D000162E121816C3900391E064809480400398
:1002E0000214D30214921215D3121882500D121A4E
:1002F0005A74EC1217AE7B140214BF121A1F502D41
:10030000900392E09400900391E064809480401DFB
:100310001216FAC083C082900390E0FED082D08390
:1003200012161F75F002EE12181A0214D3121A5A7E
:1003300090039874F61217B17B0A0214BF1217C209
:1003400012180C121612740212189D121612E06482
:1003500001600B121773121612E06402703E12173E
:10036000C21218A21215F712188D121612E4F0120A
:100370001778121612121AD2121702C083C0829076
:100380000390E0FFD082D083121655E0FCA3E0FD7D
:1003900012171812162E1218160213C51217C212AF
:1003A0001609E06402701975F0A1EE121702121717
:1003B000D0EE12162E1218161215E17401F08025D7
:1003C000D3900394E09400121A20400912171312DC
:1003D00016097402F0121A5A90039874F81217B1A1
:1003E0007B08123006121A1F40030214D31217138F
:1003F00012177C1216127402F00214D31217131281
:10040000180C121612E06403601F90038FE0FE12B6
:1004100016FF1217D0EE12162EEF12198212170EB7
:1004200012180C1216127403F0E47808F61217C2B0
:100430001218A21216127401121604E0B4010890E8
:10044000038FE0FF021478121713121609E06004FC
:100450006402702A1215E1121AD2121702C083C068
:1004600082900390E0FFD082D083121655E0FCA367
:10047000E0FD12171812162E75F002EF80311215DA
:10048000D312188290038FE0FF500DA3E0FD1217E6
:10049000AC7B05123006801A1216FFC083C0829012
:1004A0000390E0FED082D08312161F75F002EE1288
:1004B000181A12171312177C121612E4F0803490D7
:1004C0000390E0FD90038FE0FF75F0A112180CF58A
:1004D00083E5822D1216177404F01217AC7B0512F7
:1004E0003006800F12171312180C1216127405F032
:1004F0007808061217C2121609E064017026121855
:10050000C8121612E0041218C7121612E0D394058E
:100510004012900390E0FF12160574031218C712E0
:100520001612E4F0121773121612E064017025120D
:1005300017C7121893121612E00412188E12161210
:10054000E0D39403400E12177312161212188D1274
:100550001612E4F0900390E004F0E0C39408500316
:100560000210907808E6D39400407390038FE0FF68
:10057000123A2690038FE0FF1237BBEF6068E490D9
:100580000390F01216FAC083C082900390E0FED070
:1005900082D08312161F12165412196C75F0A11214
:1005A000162EC083C082900390E0FED082D08312CA
:1005B000163A12196C1216EBC083C082900390E0B9
:1005C000FED082D08312165512179A121652E4F0FA
:1005D000A3F0900390E004F0E0640870A62290037A
:1005E0008FE0FF123B4322900391E0FEA3E0FF1255
:1005F0003B9A22900393E0FEA3E0FF123B9A780C13
:1006000022900390E0FF90038FE0FE75F0A1A424F8
:10061000A2F582E5F03400F583E5822FF582E4351A
:1006200083F583E4F075F0A1EEA4249AF582E5F059
:100630003400F583E5822FF582E43583F583227556
:10064000F00212289E75F0A1E0FCA3E0FDEFA424C7
:1006500042F582E5F03400F5832275F00212289EFF
:10066000E0FCA3E0FD75F0A1EFA42452F582E5F0D3
:100670003400F583EE75F00202289EF583E0F8A3BE
:10068000E0F9A3E0FAA3E0FB9002D2E0FCA3E0FDD6
:10069000A3E0FEA3E022900382E0FF75F002A42411
:1006A00015F582E5F03402F583E0FCA3E0FDEF757B
:1006B000F002A42426F582E5F03400F58322EF242D
:1006C00024FFEE34FAFE7C007D0A1227877D1E127D
:1006D0002799EF24DCFFEE3405FEEB75F002A4242D
:1006E00020F582E5F03400F58322902C14C39BFBA7
:1006F000EE9AFAED99F9EC98F8E493FE740193FF01
:10070000E4FCFDC3022850900381E075F0A1A4240D
:1007100062F582E5F03400F5832290038FE0FF75E7
:10072000F0A1A42432F582E5F03400F58322ECF048
:10073000A3EDF0900390E0FF90038FE075F0A1220D
:10074000E0FEA3E0FF90038FE0FD75F002A42472A9
:10075000F582E5F03400F583EE8FF012282475F071
:1007600002EDA42472F582E5F03400F58322FBEA61
:10077000F0EBA3F0ED75F002A4241AF582E5F03455
:1007800000F58322F583E493FC740193FD75F00278
:10079000EFA422900390E0FF75F0A1EEA424AAF547
:1007A00082E5F034002290038F75F002E0FFA4246C
:1007B00052F582E5F03400F58322E4F0A3F0EF7502
:1007C000F0A1A42482F582E5F034002274FB9003AA
:1007D00098F0900393E0FBA3E0900399CBF0A3EB98
:1007E000F022900390E0FF90038FE0FE75F0A122CD
:1007F00075F002EF12289EE0FCA3E0FD75F0A12247
:10080000E04401F0E4900013F09002C222900382D1
:10081000E0FF2427F582E43402F58322F0742D2EC4
:10082000F582E43402F5832275F0A1EEA424C2F52A
:1008300082E5F034002275F002EF12289EECF0A35E
:10084000EDF022C39BFBEE9AFAED99F9EC98F822B1
:10085000F0A3F0A3F0A3F0A3F0A3F0A322740890F8
:100860000394F0A3E4F0A3741EF0A374FFF0A37448
:10087000E2F0E4900391F022E0FEA3E0FF75F002C5
:10088000EBA42414F582E5F03400F58322241BF553
:1008900082E5F03402F583ECF0A3EDF0EF25E022E1
:1008A000780EE6FDC3EF9D7480F86E9822E4F07533
:1008B000F0A1EEA424B2F582E5F0340022F075F048
:1008C000A1EEA424CAF582E5F0340022900381E071
:1008D000FF25E02483F582E43403F58322A424BABF
:1008E000F582E5F0340022F075F0A1EEA424A2F523
:1008F00082E5F0340022FFE0FD3395E0D3FCEF9D6C
:10090000EC6480F8EE64809822EF2470FFEE34FEF1
:10091000FE7C007D0A1227877D32122799EF2490F2
:10092000FFEE3401FE75F002EB22CBEFCBEBD3945C
:100930000322900382E0242AF582E43402F5832224
:10094000FFEB25E025E022F583E4F07F0122900310
:1009500082E0FF75F002A42421F582E5F034022242
:10096000E04406F09000137401F022E0FEA3E0C31F
:100970009D22E0FEA3E0FFD32276040876080876E5
:100980000F7809760608760808760F22ECF0A3EDBA
:10099000F090038FE0FF229002FBE054F0F022F58C
:1009A00083ED75F00202289EEB25E02448F582E4F1
:1009B000342DF58322744C2BF582E43402F5832226
:1009C000749C2BF582E43402F5832274E52BF582C6
:1009D000E43402F5832274B32BF582E43402F58308
:1009E0002274D62BF582E43402F58322743D2BF574
:1009F00082E43402F5832274022BF582E43400F59C
:100A0000832274592BF582E43402F5832274C32BBC
:100A1000F582E43402F58322E0FCA3E0FD75F002E8
:100A20002290038FE0FF75F0A122E0FCA3E0FDEC33
:100A3000541F22E0FEA3E0FFC3EE6480948022C333
:100A4000900393E06480948022242CF582E5F034B6
:100A500000F583ECF0A3EDF00F22ECF0A3EDF090A5
:100A60000390E004F0E022E4900231F09002ACF058
:100A70002290038FE0FF75F0022290038FE0FFA326
:100A8000E0FD22E0FEA3E02DFFEE3CFE900381E0BE
:100A900022900382E0900381F022F0742E2EF582E2
:100AA000E43402F583E4F02275F002EF12289EE4AC
:100AB000F0A322E0FF900384E0FEEFC8EEC8082216
:100AC0009002FBE0440A22E0FAA3E0FBEA22902E27
:100AD000C5E4F0902ECDF0A3F022F582E43402F5C7
:100AE00083229400EE6480948022E4F0A3F075F0F9
:100AF00002227401F075F0A1EE22EFA42432F582F7
:100B0000E5F0340022902EC6F0902EC57401F0223C
:100B1000F0900230747EF0E4A3F022900238E0649A
:100B20000122A3F090038FE004F0E022902EC9741C
:100B300020F0902EC322E0FCA3E0FDC322F090023F
:100B400032F09002ADF0227404F0A3E4F02290029F
:100B500039E0FE703B90023BE06402705B9002AEB5
:100B600004F0900228E0B40103121944900229E035
:100B7000B401069002C27401F090030EE0B42008A4
:100B80009002F47401F08005E49002F4F07F0222F8
:100B9000EEB4012490023BE0B4021D9002AE740159
:100BA000F090030EE0B420089002F47401F0800588
:100BB000E49002F4F07F0222E4FE900012E0FFEEE7
:100BC000C39F4003021D52900239E0FC704A121785
:100BD000FDE06401704274272E1217F4E0FF7016D6
:100BE000121977EEB40104E04409F0EE64027021BA
:100BF000121AA0F0801BEF64017016121977EEB480
:100C00000104E04401F0EEB402079002FBE044026C
:100C1000F01217FDE4F0C28AEC64016003021D4E7D
:100C20001217FDE064016003021D4E74272E121797
:100C3000F4E0FC6003021CA3121977EE6401703A21
:100C40009002ADE0FD6401701B9002ACE09002FBED
:100C5000B40109E044091217E30480151217E012E9
:100C60001B1D8016ED9002FBB4020BE04405121729
:100C7000E3121A7A80041217E0F0EE6402600302B5
:100C80001D479002ADE0FF6401701C9002ACE09043
:100C900002FBB40106121940E48021E0440412175B
:100CA000E3121B1D021D47EF9002FBB40205E04456
:100CB000058003E04404F0E4900013F09002C2F0D9
:100CC000021D47EC64016003021D47121977EE64B0
:100CD0000170499002ACE0FFB40208121AA0121988
:100CE000438013EF64017026900232E09002FBB45F
:100CF000010C121940E49002C2121A7A801EE044DC
:100D000002121943E49002C2F0121A48800E9002B7
:100D1000FBE04402121943E49002C2F0EE64027058
:100D2000469002ACE0B40210121AA0F09002C27415
:100D300001F0900013F0802F900231E06401701CEC
:100D40009002ADE09002FBB40105E044098013E09D
:100D500044081217E304F0121A47800B9002FBE0DC
:100D600044081217E304F01217FDE4F0C28A0E02E1
:100D70001B9A7F0422900381747EF0900239E06018
:100D800003021E67900382F0900012E0FF9003823E
:100D9000E0FEC39F4003021E4674272E1217F4E0A4
:100DA0006003021E1E742A2E121918E0FF70239091
:100DB0000382E075F002A4241BF582E5F03402F50D
:100DC000831219F8EE121692E0FAA3E0C39DEA9C92
:100DD000500FEF6401705B12167612194BEE9C40B7
:100DE00051900382E0FF900381F01219167401F014
:100DF00074272F1217F47401F0900230E0FFB47ED4
:100E000014900382E0FE900230F0A374011217FCEC
:100E10007401F0800D900382E06F600690023174DF
:100E200002F0900382E0FF123B52900382E0FF1237
:100E30003A92121F656026121912E4F0801F1219EF
:100E40002E12168712194BEE9C400C121A71123892
:100E500031EF6009021F111217ED12393D90038224
:100E6000E004F0021D68900228E0701BA3E07017F8
:100E7000900231E0D39400400E900230E0242D1215
:100E800018007401121AF0900239E0640160030244
:100E90001F56900382F0900012E0FE900382E0FF64
:100EA000C39E4003021F561238A4EF6003121A4774
:100EB000900382E01217F2E0706112167612194B5D
:100EC000EE9C403B121A711217F27401F09002313D
:100ED000E004F09002ACF0900382E0FF242D1218A1
:100EE000007401F0123B52900382E0FF123B6190CC
:100EF0000382E0FF123A4A900382E0FF123A921214
:100F00001F656005121912E4F0900382E0FF1238A9
:100F1000D9EF6059E4900232021F4812192E1216BE
:100F20008712194BEE9C4019121A71123831EF607A
:100F30003C90023B7402F0900382E01217F2E4F05E
:100F4000221217ED12393D900382E0FF123B7090A0
:100F50000382E0FF123A6E900382E0242D12180003
:100F60007401F0900232E004F09002ADF090038240
:100F7000E004F0021E76900381E0FF900236E06FFD
:100F80006002EFF022900382E0FF1237F6EF2212A8
:100F900028D6E4900381F0900012E0FF900381E0F6
:100FA000C39F40030221811218AFE4F0A3F0EF25A4
:100FB000E02489F582E43403F583E4F0A3F0EF70D4
:100FC00003022178121066900381E0FF122187E46A
:100FD000900382F0900382E0FFC394084003022153
:100FE00027900238E0B401091216E775F002EF808D
:100FF0002D900381E0FF1216EBC083C08290038224
:10100000E0FED082D083121655121B16EC64809439
:1010100080501275F0A1EF1216EE75F002EE121A62
:101020008CF002211ED3ED9400EC64809480402566
:10103000D3ED9405EC64809480501A1216E7C083B7
:10104000C082900382E0D082D083121655E4F0A3D0
:1010500004F00220CE1216E7C083C082900382E023
:10106000D082D0831216551219529405EE648094E2
:10107000804038D3EF9408EE64809480502D12168F
:10108000E7C083C082900382E0D082D083121655DD
:10109000C083C082E0FEA3E0FF7C007D021227EE49
:1010A000D082D083EEF0A3EFF080431216E7C08326
:1010B000C082900382E0D082D0831216551219525A
:1010C0009408EE648094804025D3EF940CEE648005
:1010D0009480501A1216E7C083C082900382E0D039
:1010E00082D08312165574FF75F0FE1228249003E7
:1010F000A2E06024900381E0FF1216EBC083C0825F
:10110000900382E0FED082D08312163A121A631244
:1011100018B1EE8FF0122824900381E0FF1216EB35
:10112000C083C082900382E0D082D083121655E043
:10113000FCA3E0FDEF1218B1EC8DF012282490030F
:1011400082E004F0021FB49003A2E060121218AC17
:10115000E0FCA3E012176C121862ECF0A3EDF09023
:101160000381E0FF75F0A1A42454F582E5F034007A
:10117000F583E0FCA3E0FDEF121755ECF0A3EDF0D2
:101180001218AC1219F8EF121758121A6375F00200
:10119000121861EEF0A3EFF0900381E004F0021F5B
:1011A00077E4900233F02290038FEFF0740412186A
:1011B0003F900399F0BF010312183D90038FE0B4F4
:1011C000020312183DE4900390F0121AFB705E9037
:1011D000038F1216FDC083C082900390E0FED08280
:1011E000D08312161F121654ECF0A3EDF0121A0160
:1011F00012162EC083C082900390E0FED082D0836E
:1012000012163AECF0A3EDF090038FE0FF1216EB0C
:10121000C083C082900390E0FED082D08312165526
:1012200012179A121652E4F0A3F00222CD90038F07
:1012300075F0A112178CC083C082900390E0FED09D
:1012400082D0831216551217D7121ADA12165212BA
:10125000194BFFEE9CFE900392F0A3EFF0123B9A25
:10126000900394E0121883502B900390E0FD9003BC
:1012700095A3E0FBA3A3E090039DF0900392E0FF11
:10128000A3E090039ECFF0A3EFF090038FE0FF1256
:1012900030C2801F900399E004F0900392121A1359
:1012A0005011C3EF94FBEE6480947F50069003913D
:1012B000E004F0121A0112178EC083C082900390CE
:1012C000E0FED082D08312161F12165412194BFF63
:1012D000EE9CFE90038F1216EAC083C082900390AA
:1012E000E0D082D083121655EEF0A3EFF0121A3F31
:1012F000C3940850030221AA900391E0C3940540CF
:101300003690038FE0FF1239DE90038FE0FF123733
:1013100045EF602BE4900390F0121A0112162EC0D4
:1013200083C082900390E0FED082D08312163A12DE
:101330001A3AB408E4800890038FE0FF123B25902E
:101340000399E0C39405403B90038FE0FF12191608
:10135000E070301239BA90038FE0FF12386CEF6002
:101360002AE4900390F0121A0112162EC083C08254
:10137000900390E0FED082D08312163A121A3AB44B
:1013800008E42290038FE0FF123B1622CBEFCB75CF
:10139000F002EB121758121858121B169FEC9E50B1
:1013A00003022427E42DFFEC3404FE75F002EB1257
:1013B0001758121B16EF9DFFEE9C1216B9EEF0A304
:1013C000EFF075F002EB121758121858E0FCA3E08A
:1013D000C39FFFEC9EFE75F002EB121692EEF0A397
:1013E000EFF0121988E493FE740193FF75F002EB9D
:1013F000121692E0FCA3E0FDD39FEC9E402412194C
:1014000088E493FE740193FFC3ED9FFFEC9EC3132A
:10141000FEEF13FF1219887401932FFFE4933EFE31
:10142000801775F002EB121692E0FEA3E0FF7C003D
:101430007D631227870D12279975F002EB12169221
:10144000EEF0A3EFF0803D12185DE0FEA3E0FF7523
:10145000F002EB121758E0FCA3E0C39FEC9EC3948C
:101460000475F002EB500F121692E4F0A3F012167E
:10147000BA121B27800E121692E4F0A3F01216BACD
:10148000E4F0A3F075F002EB121692E0FEA3E0C3C5
:10149000941EEE9400500B75F002EB121692E4F0DD
:1014A000A3F01216BAE0FEA3E0C39424EE94045015
:1014B000061216BA121B27EB6401704F75F002EB8F
:1014C0001216921219529490EE9401400B1218E9E0
:1014D000121692EEF0A3EFF075F002EB12169212D4
:1014E0001A0A900305F0EDA3F01216BA12195294DD
:1014F000DCEE9405400812169EEEF0A3EFF01216F3
:10150000BA121A0A900309F0EDA3F0EB6402704FCF
:1015100075F002EB1216921219529490EE9401405B
:101520000B1218E9121692EEF0A3EFF075F002EB31
:10153000121692121A0A900307F0EDA3F01216BACF
:1015400012195294DCEE9405400812169EEEF0A398
:10155000EFF01216BA121A0A90030BF0EDA3F02264
:1015600090023BE024FE601E14700302260A1470F1
:10157000030226C02403600302270C90023B74027E
:10158000F0E49002ABF090023B7403F09002AEE006
:1015900064016003022607F0900239E0FD7020C26A
:1015A0008A121977900013E06009E4F09002FBE0E2
:1015B0004409F09002C2E06006E4F0121AA0F0EDD7
:1015C0006401600302270C121977900013E0FF708A
:1015D000099002C2E0700302270CEF60129002C271
:1015E000E0600C1217E4F09002FBE04405803490B8
:1015F0000013E060129002C2E0700C1217E5F09048
:1016000002FBE04401801C900013E0600302270C01
:101610009002C2E0700302270C1217E4F09002FB64
:10162000E04404F0C28A22022F38122A8690023344
:10163000E0700302269C9002ABE004F0E49003808B
:10164000F0900012E0FF900380E0C39F506EE4FF33
:10165000900380E0FE1216FF1217D0EE12178E12C2
:101660001816900380E0FE1216FF1217D0EE121625
:101670002E1218160FEFB408D7900380E0FF121651
:101680008F121ACAEF1216BE121B27EFB40110E414
:10169000900305F0A3F09003097404F0E4A3F0EFC5
:1016A000B40210E4900307F0A3F090030B7404F06D
:1016B000E4A3F0900380E004F00226219002ABE066
:1016C000C394034067900011747EF0E4900234F0FC
:1016D0009002ABF07F0C123B0790023B7404F022A7
:1016E00012363B122A8612363B900233E0603D12DE
:1016F0001F6FE4900380F0900012E0FE900380E002
:10170000FFC39E501912349712354C900380E0FFAE
:1017100012236C12363B900380E004F080D912391A
:101720000E121D55121B2E90023BEFF022BB01063C
:1017300089828A83E0225002E722BBFE02E32289EB
:10174000828A83E49322BB010CE58229F582E5833A
:101750003AF583E0225006E92582F8E622BBFE0630
:10176000E92582F8E222E58229F582E5833AF583CC
:10177000E49322BB010689828A83F0225002F72279
:10178000BBFE01F322F8BB010DE58229F582E5835A
:101790003AF583E8F0225006E92582C8F622BBFE1E
:1017A00005E92582C8F222EF8DF0A4A8F0CF8CF0D5
:1017B000A428CE8DF0A42EFE22BC000BBE0029EF83
:1017C0008DF084FFADF022E4CCF875F008EF2FFF28
:1017D000EE33FEEC33FCEE9DEC984005FCEE9DFEF6
:1017E0000FD5F0E9E4CEFD22EDF8F5F0EE8420D23D
:1017F0001CFEADF075F008EF2FFFED33FD400798AC
:101800005006D5F0F222C398FD0FD5F0EA22C2D5DA
:10181000EC30E709B2D5E4C39DFDE49CFCEE30E773
:1018200015B2D5E4C39FFFE49EFE122799C3E49D41
:10183000FDE49CFC800312279930D507C3E49FFF89
:10184000E49EFE22C5F0F8A3E028F0C5F0F8E5829A
:10185000158270021583E038F022A3F8E0C5F02568
:10186000F0F0E582158270021583E0C838F0E822B6
:10187000EB9FF5F0EA9E42F0E99D42F0E89C45F0CE
:1018800022ECF0A3EDF0A3EEF0A3EFF022A8828506
:1018900083F0D083D08212288412288412288412E4
:1018A0002884E473E493A3C583C5F0C583C8C582C7
:1018B000C8F0A3C583C5F0C583C8C582C822A425C6
:1018C00082F582E5F03583F58322EF4E6012EF60FA
:1018D000010EEDBB010B89828A83F0A3DFFCDEFAE7
:1018E0002289F05007F709DFFCA9F022BBFEFCF3C8
:1018F00009DFFCA9F022E4900390F0A3F0A3F0909C
:1019000003957403F0E490038FF0121A511217023A
:1019100075F002121628ECF0A3EDF01217861219DA
:10192000F812162D12194BFFEE9CFE900393F0A3B4
:10193000EFF0123B9A900395E01218835027900322
:1019400092E004F0A31217201219529414EE64804E
:1019500094804003022982C3EF94ECEE6480947F6C
:1019600050770229A5900393121A13400BD3EF94DA
:1019700032EE648094804006900390E004F0D3EF50
:10198000121AC24006900391E004F0121AFB70494B
:1019900090039312172012195294FAEE64809480E7
:1019A000401890038FE0FD75F002121742121ACA18
:1019B000ED12178EE475F001801CC3EF9406EE64FF
:1019C00080947F5014121A51121742121ACAEF1241
:1019D000178E74FFF5F01228241217861219F812C8
:1019E000162D12194BFFEE9CFE90038FE075F0024E
:1019F0001216EEEEF0EF121B02C3940850030228F9
:101A0000EA900391E0C3940440028031C390010442
:101A1000E09404900103E06480948040269001A546
:101A2000E094049001A4E0648094804016900063E8
:101A3000E09403900062E064809480400690023855
:101A40007401F0900392E0C39405401A900238E0CC
:101A50006014E4FF123A02E4FF123780EF600CE4F6
:101A6000900238F08005E4FF123B34900390E0C30D
:101A70009405402CE4FF1239DEE4FF123745EF6095
:101A800024E490038FF0121A5112162EE0FCA3E00A
:101A900012176C12178FECF0ED121B02B408E7223C
:101AA000E4FF123B2522E4900382F0900382E0FFE2
:101AB000C394084003022BFCEF902C0393902ECA92
:101AC000F0E4900381F0900012E0FF900381E0FECB
:101AD000C39F4003022BF374B02E121ABAE0FF909A
:101AE0000384F0E4F5E2EFC39408503B7415121A36
:101AF000E5C083C082121A938002C333D8FCD0821F
:101B0000D083F0902ECD7401F0C083C082E0FFC876
:101B1000EEC8088002C333D8FCD082D083F0902E68
:101B2000C074C1F0022B6C900384E024F8F07416AA
:101B3000121AE5C083C082121A938002C333D8FC04
:101B4000D082D083F0902ECE7401F0C083C082E0AA
:101B5000FFC8EEC8088002C333D8FCD082D083F01F
:101B6000EEB40506902EC97428F0EEB4060A121BD6
:101B70000C7480F0A3740FF0EEB4070A121B0C74FF
:101B800070F0A3740FF0902EC074C2F0E490038341
:101B9000F0900000742EF0A3E4F0900381E024B0F4
:101BA000121ABAE0900384F012363BE5E220E20C10
:101BB000900383E004F0E0C394C840D553E2FB12E5
:101BC0001AAE900384E0FD75F002A4FFAEF0900021
:101BD00001E02FF0900000E03EF0ED902C3893FFF4
:101BE000900000E475F00212283A85F082F5831225
:101BF00017D7EF121702C083C082900382E0D08211
:101C0000D083121655ECF0A3EDF0900381E004F0C0
:101C1000022AA6900382E004F0022A8B9002337419
:101C200001F0223F3F3F3F3F3F3F3F3F0032003206
:101C3000177002580004001E000A000A0032000F4C
:101C40000064000A000C000C00000000000000000E
:101C500000000000000101010D0E0F03040506073E
:101C600008090A0B0C000102003200320032003277
:101C700000320032003200320032003200320032D4
:101C800000320032003200320037003700370037B0
:101C9000003700370037003700370037003700378C
:101CA00000370037003700370028002800280028B8
:101CB00000280028002800280028002800280028E4
:101CC0000028002800280028002D002D002D002DC0
:101CD000002D002D002D002D002D002D002D002D9C
:101CE000002D002D002D002D004600460046004628
:101CF00000460046004600460046004600460046B4
:101D00000046004600460046004B004B004B004B8F
:101D1000004B004B004B004B004B004B004B004B6B
:101D2000004B004B004B004B003C003C003C003C97
:101D3000003C003C003C003C003C003C003C003CC3
:101D4000003C003C003C003C002D002D002D002DEF
:101D5000002D002D002D002D002D002D002D002D1B
:101D6000002D002D002D002D00FA00FA00FA00FAD7
:101D700000FA00FA00FA00FA00FA00FA00FA00FA93
:101D800000FA00FA00FA00FAC0E0C083C082C0D0B6
:101D9000E8C0E0E9C0E0EAC0E0EBC0E0EFC0E0D2BC
:101DA000AFE5DB30E415E5DB30E10280229002FA9A
:101DB000E5DFF090037BE4F0022E41E5DB30E50542
:101DC0009002F78038E5DB30E126E5DB30E011906A
:101DD000037D12102312102C122726F5DF022E414C
:101DE00090037CE064017079208A76D28A022E41C9
:101DF00090037BE0700DA3E5DFF090037B7401F0AE
:101E0000022E4190037CE090334993FFB4FF0E9083
:101E100002FAE5DFF090037CE004F0803EEF640F0F
:101E200090037D702B12102390037CE0FF12104072
:101E3000540F12275390037D12102390037CE0FF70
:101E400004F0121040FFE5DF54F04F122753800BCF
:101E500012102312102CE5DF1227659002F9E0041E
:101E6000F075DBFFD0E0FFD0E0FBD0E0FAD0E0F986
:101E7000D0E0F8D0D0D082D083D0E03290030EE012
:101E8000FE64107053FF900012E0FDEFC39D40030D
:101E9000022F0DEF25E024E8F582E4342C121764BC
:101EA00012186D24C8F582E4342C1217642415F539
:101EB00082E5F034021218752408F582E4342D12FC
:101EC00017641219371218752428F582E4342D127C
:101ED0001764121A29022E66EE64207062FF9000C9
:101EE00012E0FEEFC39E5045EF25E02468F582E442
:101EF000342C12176412186D2448F582E4342C1225
:101F000017642415F582E5F034021218752488F55B
:101F100082E4342C12176412193712187524A8F5AC
:101F200082E4342C121764121A29022EBE90021772
:101F3000A3E09002FFF0900219A3E0900300F0905C
:101F40000311E0FEB410079002397401F022EEB4E0
:101F50002005E4900239F0227E027F257D007B017E
:101F60007A0079141228AA1236829002F4E09003C3
:101F70000E70057410F080037420F0122E5CE4FEE5
:101F8000900012E0FFEEC39F4003022FF6E4FF75BE
:101F9000F0A1EE121742121A88F0EE12179FF58385
:101FA000121A88121604E41218C7121612E4F075F9
:101FB000F0A1EE1218BD121612E4F0121808121653
:101FC00012E412189D121612E4F00FEF640870BFAD
:101FD000CFEECF123B25123B34123B16123B43751A
:101FE000F0A1EEA424D2F582E5F03400F583E4F00C
:101FF000123B52123B70123B61123B7F74272E1230
:1020000017F4E41217FCE4121AF0A3F09002ACF0FB
:10201000A3F00E022F60900236747EF0900011F053
:10202000E4900235F022900397EBF0900395EFF0E7
:10203000A3EDF0900399E0FAA3E0FB12179E1219AA
:102040007FEA8BF012282412179E12197FE0FEA35C
:10205000E09003971218D6402E900395E0FF1217D8
:102060009FF583C083C082900396E0FED082D08328
:10207000121655E4F0A3F075F0A112162D121654A5
:10208000E475F0010230BE900395E012179FF583CE
:10209000C083C082900396E0D082D083121655E0B0
:1020A000FEA3E0FF900398E0FD3395E0FCC3121817
:1020B000DE502E900395E0FF12179FF583C083C07A
:1020C00082900396E0FED082D083121655E4F0A3EE
:1020D000F075F0A112162D12165474FFF5F01228A7
:1020E000242290039CEBF090039AEFF0A3EDF09084
:1020F000039EE0FAA3E0FB75F0A1EF121742ED1288
:102100001655EA8BF012282475F0A1EF121742122F
:102110001981E0FEA3E090039C1218D64029900399
:102120009AE0FF75F0A1121742C083C08290039B12
:10213000E0FED082D083121655E4F0A3F0121645CB
:10214000E475F00102317990039AE075F0A112175D
:1021500042C083C08290039BE0D082D08312165588
:10216000E0FEA3E0FF90039DE0FD3395E0C312186D
:10217000DD502990039AE0FF75F0A1121742C08349
:10218000C08290039BE0FED082D083121655E4F00B
:10219000A3F012164574FFF5F012282422E49003F0
:1021A00082F0FF900381F0EF14601E14603514601C
:1021B0004C14605B240470749003837401F0A37466
:1021C0002FF0A37458F00232061210209000011272
:1021D0002726FED3941F400312103912270D6E706C
:1021E0004B8043121020900002122726FED3940643
:1021F000400312103912270D6E7031802912102001
:10220000900003122726FE12270D6E701F801712F2
:102210001020900004122726FE648B6003121039F0
:1022200012270D6E7006900381E004F00FEF640535
:102230006003023187900381E0B40504A37401F0C8
:10224000900382E0FD600790030FE0547FF0CFED34
:10225000CF22758A50538AEF9003A37411F0900334
:10226000A17422F09003A47433F075997F759A805D
:10227000E4FFFEC29620970AD296309705E49003B9
:10228000A3F00FBF00010EEF640A4E70E67590FFD9
:1022900075993F759AC0E4FEFF2097069003A174DC
:1022A00027F020960C9003A17426F0209703742841
:1022B000F00FBF00010EEF640A4E70DDE4F5AD755E
:1022C000AEF075AF09F5AC7589FF75913E75991F34
:1022D000F59675931EF59BF595759201F59A7580A7
:1022E0000CD28A9003A204F022023709E493A3F8E7
:1022F000E493A34003F68001F208DFF48029E4931D
:10230000A3F85407240CC8C333C4540F4420C88313
:102310004004F456800146F6DFE4800B0102040815
:10232000102040809036C7E47E019360BCA3FF5428
:102330003F30E509541FFEE493A360010ECF54C063
:1023400025E060A840B8E493A3FAE493A3F8E493EB
:10235000A3C8C582C8CAC583CAF0A3C8C582C8CAF3
:10236000C583CADFE9DEE780BE0F00FF0000000082
:10237000000000FFFFFFFFFFFFFFFFFF0000000066
:10238000000000000000000000000000000000004D
:10239000000000000000000000000000000000003D
:1023A000000000000000000000000000000000002D
:1023B000000000000000000000000000000000001D
:1023C000000000000000000000000000000000000D
:1023D00000000000000000000000000000000000FD
:1023E0000000000000000000009003807410F0A3C3
:1023F000E4F0A3743FF0A374FFF0E4FDFCF9900255
:10240000FCE064AA705074AAF0758A10538AEF0039
:102410000000900380E0FEA3E02DF582EE3CF58302
:10242000E493FF69F90DBD00010CBC2FE5BDFFE28F
:10243000900382E0FEA3E0F5828E83E49369700846
:102440009002FC7404F08005E49002FCF0758A5060
:10245000538AEF00000022902EC0E4F0902ECB743F
:10246000F4F0902F58E0540F24F0902EC8F0902EE6
:10247000CC7448F0902EC97428F0A3743FF0902ECD
:10248000407481121830F0A3F0A3041218307402C3
:10249000F0A3F0902EC67414F0902EC17490F0A3A7
:1024A0007401F0A37480F0A37407F043E310123AB0
:1024B000D3900012EFF022CDEFCDED64017018ED56
:1024C0001216BBE0FAA3E090034B12174E121AA7A4
:1024D00090034DF0EBA3F0ED6402701B75F002ED7C
:1024E0001216BEE0FAA3E090034F12174E121AA77D
:1024F000900351F0EBA3F0ED701A75F002ED121697
:10250000BE121AA790033B121750121AA790033D50
:10251000F0EBA3F022C0E0C0F0C083C082C0D0E8DE
:10252000C0E0ECC0E0EDC0E0EEC0E0EFC0E0D2AF54
:1025300090023AE004F0C3940A4017E4F0121668DF
:102540002401FFE43EFEE43DFDE43CFC9002D21297
:102550002861D0E0FFD0E0FED0E0FDD0E0FCD0E08C
:10256000F8D0D0D082D083D0F0D0E0329003A2E077
:10257000604E900016E0FEA3E0FFC39470EE941747
:1025800050069003A47426F0C3900019E09488903C
:102590000018E0941350129003A47427F0C3EF9432
:1025A00070EE941750037428F0E49003A2F09000AA
:1025B00016F0A3F0A3F0A3F09003A4E0900303F0BF
:1025C00022900385EFF0C3940D5042E0FF244C129B
:1025D0001998E06038EF25E025E0245CF582E434CA
:1025E0000212165B121823900385E025E0240CF5F7
:1025F00082E4342CF5831216D9400F900385E02431
:102600004CF582E43402121927227F00227F002237
:1026100090021DA3E0900353F090021FA3E09003EB
:1026200054F0900217A3E0900355F0900219A3E034
:10263000900356F0900223A3E0900357F0900225F8
:10264000A3E0900358F0902D4A740193900359F041
:10265000902D4C74019390035AF02290023CE02498
:10266000FE60111460252403703730883490023CDA
:102670007402F02220882A90023C7403F09002AF8A
:102680007401F07F0C123B0702396B7F0C1235A1ED
:10269000EF600E7F0C123B07E490023CF09002AF1B
:1026A000F0227E007F807D007B017A0279FB122878
:1026B000AA9002FB7405F0A314F0E4A3F090030DBC
:1026C00074ABF090030F7491F09003A3E0900301BA
:1026D000F09003A1E0900302F09003A4E0900303C4
:1026E000F012317D0235F04102AB0041023A004167
:1026F00002AE00410013004102C2004102F4004159
:1027000002390141023C004102AF0041037B00411C
:10271000037C004202F500004102F7004102F9008B
:102720004102F8004102FA100075200153A87F12FF
:10273000323212399343A880123B8E12104E758D9F
:10274000E0123AB6EF24E0600A2410700AC283C295
:10275000828004D283D282122E5C1233C9438D2030
:1027600012254080DC90039AEFF0E0FF24E5121977
:10277000AEE06029EF25E025E024E8F582E43402AC
:1027800012165B121823902C181216D9400F9003C2
:102790009AE024E5F582E43402121927227F002210
:1027A000900396EFF0E0FF24B31219B9E06029EF2F
:1027B00025E025E024B6F582E4340212165B1218F7
:1027C00023902C1A1216D9400F900396E024B3F5EB
:1027D00082E43402121927227F0022900395EFF041
:1027E000E0FF24D61219C4E06029EF25E025E0249B
:1027F000D9F582E4340212165B121823902C1C12B5
:1028000016D9400F900395E024D6F582E4340212E5
:102810001927227F0022900383EFF0E0FF243D126E
:1028200019CFE06029EF25E025E02440F582E4346B
:102830000212165B121823902C0E1216D9400F901C
:102840000383E0243DF582E43402121927227F003D
:1028500022900383EFF0E0FF24C31219F0E0602917
:10286000EF25E025E024C6F582E4340212165B125F
:102870001823902C121216D9400F900383E024C322
:10288000F582E43402121927227F002290039AEF86
:10289000F0E0FF249C1219A3E06026EF25E025E07C
:1028A000249FF582E4340212165B902C101216CD90
:1028B000400F90039AE0249CF582E4340212192719
:1028C000227F0022900383EFF0E0FF24021219DA46
:1028D000E06023EF25E025E02405F582E4340012D2
:1028E000165B1216CA400F900383E02402F582E4BF
:1028F0003400121927227F0022900383EFF0E0FFBB
:1029000024591219E5E06023EF25E025E02490F535
:1029100082E4340212165B1216CA400F900383E061
:102920002459F582E43402121927227F0022E4FFA1
:10293000FE900012E0FDEEC39D501C12168EE0FCCE
:10294000A3E0FDEE12168FE0FAA3E0D39DEA9C40CF
:1029500003CFEECF0E80DA900237EFF022E4F012D0
:102960003B7F900382E0FF12190A501E1219CCE03F
:1029700070181219CC7401F0121668121920244034
:10298000F582E43402F58312286122CBEFCBEBD33E
:10299000940D501E121995E070181219957401F0DB
:1029A000121668121920245CF582E43402F58312B1
:1029B00028612290037D7401F0A37402F0A374FBDC
:1029C000F0E4F5DA75DA4043DA2075D74075DA5865
:1029D00043A90875B80875F8082212190A501E1282
:1029E00019A0E070181219A07401F01216681219DB
:1029F00020249FF582E43402F58312286122121903
:102A00000A501E1219ABE070181219AB7401F012C3
:102A1000166812192024E8F582E43402F58312289E
:102A2000612212190A501E1219B6E070181219B656
:102A30007401F012166812192024B6F582E43402EB
:102A4000F5831228612212190A501E1219C1E07072
:102A5000181219C17401F012166812192024D9F540
:102A600082E43402F5831228612212190A501E12E0
:102A700019D7E070181219D77401F01216681219DC
:102A8000202405F582E43400F5831228612212190E
:102A90000A501E1219E2E070181219E27401F012C5
:102AA00016681219202490F582E43402F583122866
:102AB000612212190A501E1219EDE070181219ED58
:102AC0007401F012166812192024C6F582E434024B
:102AD000F58312286122E4FD9002F7E06011900274
:102AE000FBE0FE54F0FDEE540FF0E49002F7F0CF5F
:102AF000EDCF22121AAEFFFEEE902C2893600974DF
:102B0000B02F121ABAEEF00F0EEEB410EB229002B4
:102B1000D212286D000000007E007F0D7D007B0139
:102B20007A02794C0228AAEFD3940D5008744C2FE6
:102B3000121998E4F022EFD394035008749C2F12DA
:102B400019A3E4F022EFD39403500874E52F12196F
:102B5000AEE4F022EFD39403500874B32F1219B9E6
:102B6000E4F022EFD39403500874D62F1219C4E472
:102B7000F022EFD394035008743D2F1219CFE4F0E4
:102B800022EFD39403500874022F1219DAE4F022D2
:102B9000EFD39403500874592F1219E5E4F022EF93
:102BA000D39403500874C32F1219F0E4F0221234A6
:102BB0003790023B7401F0022F38EE30E707C3E490
:102BC0009FFFE49EFE2200000000000000000000C5
:102BD00000000000000000000000000000000000F5
:102BE00000000000000000000000000000000000E5
:102BF00000000000000000000000000000000000D5
:102C000000000000000000000000000000000000C4
:103010000000000000000000000000000000000FA1
:00000001FF
