:10100000801878FFE4B8200118F6D8F99000007F26
:10101000007E07E4F0A3DFFCDEFA7581200234FFD6
:101020009003D7E0FBA3E0FAA3E0F9229003D1E01C
:10103000FF04F08F82758300229003D67401F022A2
:10104000E92FF9E43AFA022AA80000022F1675B235
:101050008E75B6F9E4F5B743B20143AA01023C73B9
:101060000000000238A4EFD39404500874EA2F1251
:101070001930E4F0220000000000000237E790027F
:1010800073E0FD7037900277E06402702F900303E5
:1010900004F090025FE0B401069000197401F09032
:1010A0000260E0B4010690031C7401F0900261E05C
:1010B000B401069000027401F07F0222EDB4011029
:1010C000900277E0B402099003037401F07F0222DA
:1010D0009003F9E0607AE4FE121A5F400302162CD6
:1010E0001217D1E06401706412181AE07032900295
:1010F000FFE06402702AF0900302F09003F9F09090
:101100000273E0FF70069003607404F0EFB4010610
:101110009003607440F0C28A9002FE1217CEE4F091
:1011200012181AE0B40125EEB4030E9002FFE00499
:10113000F09003F97403F0800EE49002FFF0900346
:1011400002F09003F904F01217D1E4F00E0210D867
:10115000E4FE121A5F400302162C900273E0FF7047
:10116000591217D1E06401705112181AE0FD702174
:10117000EEB401069003607409F0EEB40206900329
:1011800060740AF0EE6403702A900360740BF080C0
:1011900022EDB4011EEEB401069003607401F0EE7E
:1011A000B402069003607402F0EEB403069003608C
:1011B0007403F01217D1E4F0C28AEF6401600302F5
:1011C00016281217D1E06401600302162812181ABB
:1011D000E0FF60030213F6121AC0EE64016003021E
:1011E000128E900019F09002E9121A68703790037D
:1011F00000E0FC7006900360048042EC6401701D06
:10120000900274E0B4010A7409121923F0E4021286
:101210008A121A9270789003607421805774291290
:101220001923F08065ED64027054900300E0FD70B6
:101230001D900275E0B4010A90036074051219B4A0
:101240008048121A99704774111219B1803CED64EC
:1012500001703B900274E0B4010E900360741912A7
:101260001926F0E4900002F090028CE0B4011F9087
:10127000036074251219B490000204F080109003EA
:1012800001E0B4030974151219B1900002F0EE6484
:1012900002600302134190031CF0900275121A6859
:1012A000703B900300E0FC7007900360740480457D
:1012B000EC6401701D9002E8E0B4010A7406121893
:1012C00081F0E402133D121A927076900360742448
:1012D00080559003607426121884F08060ED6402DB
:1012E000704F900300E0FD701D9002E9E0B4010A28
:1012F00090036074051219BE8043121A99704274EB
:10130000141219BB8037ED640170369002E8E0B426
:10131000010912187FF0E4900002F090028CE0B412
:10132000011F90036074251219BE90000204F08022
:1013300010900301E0B4030974151219BB90000268
:10134000F0EE64036003021621900002F090028D1B
:10135000121A68703B900300E0FC70089003607400
:10136000100215B2EC6401701F9002E8E0B40108AD
:101370009003607412021606121B166003021621F7
:1013800090036074180215F0900360741A02161925
:10139000ED6402704E900300E0FD70229002E9E0DF
:1013A000B4010890036074110215B2900275E064F4
:1013B00001600302162190036074140215B2ED64FB
:1013C0000160030216219002E8E0B4010612187FC2
:1013D0001219B4121B1660030216219003607419CF
:1013E0000215F0900301E0640360030216219003EC
:1013F0006074150215B2EF64016003021621121A1F
:10140000C0EE640160030214B590001904F090026C
:10141000E8121A217037A3E0FD7007900360740290
:101420008024ED6401701A900275E0B40107900306
:101430006074068011121A99707B90036074128098
:10144000059003607416F0E490031C8063EF64025F
:10145000704F900301E0FF701A900274E0B401072E
:10146000900360740A8033121A927049900360747A
:10147000228011EF6401703D900275E0B4010F907D
:10148000036074261219B490000204F080279002C1
:101490008DE0B40120900360741A121926F0E480E4
:1014A00010900300E0B4030D900360742A12192613
:1014B000F0900002F0EE6402600302156990031CD4
:1014C00004F0900274121A217037A3E0FD700790A7
:1014D000036074088024ED6401701A9002E9E0B49E
:1014E000010790036074098011121A99707B9003B0
:1014F00060741880059003607419F0E490001980FE
:1015000063EF6402704F900301E0FF701A9002E8ED
:10151000E0B40107900360740A801D121A927049AA
:1015200090036074288024EF6401703D9002E9E02C
:10153000B4010C900360741A121884F0E4802690B1
:10154000028DE0B4012390036074291219BE90004B
:101550000204F08014900300E0B4030D9003607463
:101560002A121884F0900002F0EE64036003021661
:101570002190000204F0E490028C121A22703AA327
:10158000E0FD700790036074208027ED6401701DFA
:101590009002E9E0B4010790036074218014900286
:1015A00075E06401707B9003607424800590036093
:1015B0007425F0E49000198063EF6402704F90038B
:1015C00001E0FF701A9002E8E0B401079003607434
:1015D000228033121B16704990036074288011EF2B
:1015E0006401703D9002E9E0B4010F90036074293A
:1015F0001219BE90031C04F08027900275E0B4011C
:10160000209003607426121884F0E4801090030088
:10161000E0B4030D900360742A121884F090031C48
:10162000F01217D1E4F0C28A0E0211527F04229008
:1016300003E9E0FF9003E8E075F081A424B2F582AD
:10164000E5F03400F583E5822FF582E43583F583F8
:1016500022EF2470FFEE34FEFE7C007D0A122B2266
:101660007D32122B34EF2490FFEE3401FEEB75F047
:1016700002A42432F582E5F03400F5832275F002ED
:10168000122C03E0FCA3E0FD75F081EFA42462F5C9
:1016900082E5F03400F583EE75F002022C03EF24AE
:1016A00056FFEE34FAFE7C007D0A122B227D1E12BC
:1016B0002B34EF24AAFFEE3405FEEB75F002A424D0
:1016C0002AF582E5F03400F58322E0FE75F081A46E
:1016D0002442F582E5F03400F58375F002EF122C18
:1016E00003E0FCA3E0FDEE75F081A42452F582E551
:1016F000F0340022F583E0F8A3E0F9A3E0FAA3E0D8
:10170000FB900331E0FCA3E0FDA3E0FEA3E0229008
:1017100003D6E075F081A42472F582E5F03400F57B
:101720008322902DC2C39BFBEE9AFAED99F9EC98B7
:10173000F8E493FE740193FFE4FCFDC3022BB5E0D3
:10174000FEA3E0FF9003E8E0FD75F002A42482F51B
:1017500082E5F03400F583EE8FF0122B8975F002EC
:10176000EDA42482F582E5F03400F58322FBEAF053
:10177000EBA3F0ED75F002A42422F582E5F034002D
:10178000F583229003E9E0FF9003E8E0FE75F08125
:10179000A424A2F582E5F03400229003E8E0FF756E
:1017A000F002A42462F582E5F03400F58375F002BE
:1017B000E0FCA3E0FDEF22E0FE75F081A42442F5F9
:1017C00082E5F03400F583EF75F002022C0374011A
:1017D000F074662EF582E43402F5832274089003D7
:1017E000EDF0A3E4F0A3741EF0A374FFF0A374E281
:1017F000F0E49003EAF022E4F0A3F0EF75F081A4A6
:101800002492F582E5F03400227401F0EE75F08147
:10181000A42442F582E5F0340022745E2EF582E4C1
:101820003402F583229003E8E0FF75F081A424627E
:10183000F582E5F03400F58322E0FEA3E0FF75F0C9
:1018400002EBA4241AF582E5F03400F5832290031C
:10185000F1F09003ECE0FBA3E09003F2CBF0A3EBFC
:10186000F022E4F075F081EEA424AAF582E5F034CC
:101870000022780AE6FDC3EF9D7480F86E9822740A
:1018800016900360F0900019740122F583E493FC34
:10189000740193FD75F002EFA422FFE0FD3395E0A3
:1018A000D3FCEF9DEC6480F8EE648098229003D620
:1018B000E0FF25E024D8F582E4340322E0FEA3E033
:1018C000FFD322F0A3F0A3F0A3F0A322C39BFBEE6F
:1018D0009AFAED99F9EC98F822F075F081EEA424CB
:1018E000BAF582E5F03400229003D7E02462F58255
:1018F000E43402F58322E0FCA3E0FD75F08122E0F0
:10190000FCA3E0FDEC541F22CBEFCBEBD3940422DD
:101910009003E9E0FF9003E8E022F583E0FEA3E016
:10192000C39D22900360F090031C74012274EA2B83
:10193000F582E43402F5832274352BF582E4340316
:10194000F5832274082BF582E43403F5832274783E
:101950002BF582E43402F5832274032BF582E43400
:1019600000F58322749C2BF582E43402F583227403
:101970001D2BF582E43403F58322E0FEA3E0FFC3D0
:10198000EE64809480229003D7E0FF75F002A424D7
:1019900046F582E5F03402229003D7E0FF75F002AD
:1019A000A42456F582E5F0340222FFEB25E025E081
:1019B00022900360F0E490031CF022900360F0E4B6
:1019C000900019F022EB25E024F6F582E4342EF5A0
:1019D0008322F583ECF0A3EDF022E0FAA3E0FBEA2A
:1019E000227808760608760808760F22902EC5E43D
:1019F000F0902ECDF0A3F022ECF0A3EDF09003E9EF
:101A0000E004F0E0229404E064809480229003E9F2
:101A1000E0FF75F081EE22902EC97420F0902EC365
:101A200022E4F0900300E0FF640122ECF0EDA3F06B
:101A30009003E8E0FF229003ECE064809480229021
:101A400003E8E0FF75F00222E0FEA3E02DFFEE3C8C
:101A5000FE9003D6E0229003D7E09003D6F02290C8
:101A60000018E0FFEEC39F22F0900301E0FD640147
:101A700022ECF0EDA3F09003E8E022E0FCA3E0FD0F
:101A80009003E8E022E0FF9003D8E0FEEFC8EEC844
:101A9000082290028CE064012290028DE064012211
:101AA000F582E43403F583229400EE64809480226E
:101AB000E4F0A3F075F00222E4F0A3F075F08122C7
:101AC000900350E054F0F022902EC6F0902EC57492
:101AD00001F022F090026A747EF0E4A3F022C3EFDA
:101AE00094ECEE6480947F22900272E0640122A361
:101AF000F09003E8E004F0E022F58375F002ED02D7
:101B00002C03C39003EAE06480948022E0FCA3E00D
:101B1000FD75F002EE22900274E0640122E0FCA365
:101B2000E0FDC322E4F0900350E022E4F090036073
:101B3000E0227404F0E4A3F0229003E8EFF07808C8
:101B40007604087606087608BF01031219E19003AF
:101B5000E8E0FFB402031219E1EFB403031219E144
:101B6000E49003E9F0121AE870619003E8E0FF12D4
:101B7000180DF583C083C0829003E9E0FED082D0C7
:101B8000831216981218F6EF1216EA121695121A08
:101B900071FF1216E7F583C083C0829003E9E0FE6F
:101BA000D082D08312167D121A71FF121713C083D0
:101BB000C0829003E9E0FED082D0831216981217FB
:101BC000F7121695E4F0A3F0021EC69003E8E0FFBA
:101BD0001216E7F583C083C0829003E9E0FED0824D
:101BE000D083121698E0FCA3E0FBCAECCAEF1218EF
:101BF0000D121695E0FEA3E0FDCCEECCC39BFEECEF
:101C00009A9003ECF0CE121A7412182AC083C08284
:101C10009003E9E0D082D083121698E0FEA3E0FFA3
:101C2000C3ED9FFFEC9EFE9003EAF0A3EFF0123DA0
:101C30000278091218744003021D0D12162FE06479
:101C400001701E9003E81216CA1217C5ECF0A3ED3E
:101C5000F0121B024003021CF512162FE4F0021CC6
:101C6000F5121910FE121638E0640270351218DAF7
:101C7000121644E4F075F081EE12163B121809F5C5
:101C800083C083C0829003E9E0FFD082D083121624
:101C900098121A7B1216E71217C5ECF0A3EDF002AA
:101CA0001CF5121ED61218725026121B029003E861
:101CB000E0FFA3E0FD9003F1500974CE1218517BB0
:101CC00014800774EC1218517B32123194021CF507
:101CD000121910FE121638E0701BC3121A36501576
:101CE00075F081EE1216CF1217C5ECF0A3EDF012CD
:101CF000162F7402F0121783121644E06402600378
:101D0000021E6075F081EE121790021E5B9003EACE
:101D1000E0FEA3E0FF123D0212187250319003EC76
:101D2000E0FEA3E0121AA840149003E9121A7E12F2
:101D3000178DF583E5822D1216497402F012197F72
:101D40004003021E6012162F7402F0021E60121968
:101D50001012178D121644E0B4010D9003E812170B
:101D6000B71218F6EE021DA0121783121644E06493
:101D7000027039121864121644E4F075F081EE1204
:101D80001790121644121809F583C083C08290037D
:101D9000E9E0FFD082D083121698121A7B75F08189
:101DA0001216EAF58375F002EF021E2C121ED67889
:101DB0000812187450129003E8E0FFA3E0FD74CEFF
:101DC00012184E7B05021E40121783121644E07053
:101DD00027D39003EDE09400121A36401B75F08172
:101DE000EE1216CF1217C5ECF0A3EDF01219101277
:101DF000178D1216447402F09003EC12197A5043B6
:101E0000121ADE9003E8E0FF502C12180DF583C083
:101E100083C0829003E9E0FED082D083121698122C
:101E200018F6EF1216EAF58375F002EE122C03ECA9
:101E3000F0A3EDF0800DA3E0FD74F612184E7B0ABE
:101E4000123194121910FE121638E0B4021275F015
:101E500081EEA424B2F582E5F03400121644E4F0D9
:101E6000121783121644E0640170251218641216CA
:101E700044E004121863121644E0D3940540111292
:101E80001A0D121790121644121862121644E4F03A
:101E9000121A0D12163BE06401702B9003E8E0FE6D
:101EA00075F0811218DE121644E0041218D91216C9
:101EB00044E0D39403400F121A0D12163BE412189B
:101EC000D9121644E4F09003E9E004F0E0C394086A
:101ED0005003021B65229003ECE0FEA3E0FF123DDD
:101EE00002229003D6747EF0900273E06003022019
:101EF000029003D7F0900018E0FF9003D7E0FEC3F4
:101F00009F4003021FDD12181AE06003021FAB742A
:101F1000622E1218EEE0FF70229003D7E075F002F7
:101F2000A4244EF582E5F03402F583121B0C121640
:101F300071E0FAA3E0C39DEA9C5015EF6401705F65
:101F40001219861217AB12167112191CEE9C404F13
:101F50009003D7E0FF9003D6F01218EC7401F074F0
:101F60005E2F12181D7401F090026AE0FFB47E1219
:101F70009003D7E0FE90026AF0A31217CE7401F02E
:101F8000800D9003D7E06F600690026B7402F090B2
:101F900003D7E0FF123CAA9003D7E0FF123BFD12EB
:101FA000215560301218E8E4F080291219981217B0
:101FB000AB12167112191CEE9C400C121A561239F3
:101FC000EEEF60100220E49003D7E0FF245E1218C9
:101FD0001D123AC79003D7E004F0021EF590025F8D
:101FE000E0701FA3E0701BA3E0701790026BE0D3BA
:101FF0009400400E90026AE024661217D474011215
:102000001AD3900273E0640160030221469003D763
:10201000F0900018E0FE9003D7E0FFC39E4003025B
:102020002146123A5FEF6009E490026BF0900300E2
:10203000F09003D7E0245E12181DE060030220CB6D
:102040001219861217AB12167112191CEE9C405F02
:10205000121A56245E12181D7401F090026BE004EF
:10206000F0900300F09003D7E0FF24661217D474B9
:1020700001F0EFB401069002E87401F09003D7E09C
:10208000FFB402069002747401F0EFB403069002EC
:102090008C7401F0123CAA9003D7E0FF123CB99077
:1020A00003D7E0FF123BB59003D7E0FF123BFD12D0
:1020B000215560051218E8E4F09003D7E0FF123ACA
:1020C00093EF6079E490026C02213812199812178C
:1020D000AB12167112191CEE9C4010121A561239CE
:1020E000EEEF60599002777402F0229003D7E0FF80
:1020F000245E12181D123AC79003D7E0FF123CC8A5
:102100009003D7E0FF123BD99003D7E0FF2466127B
:1021100017D47401F0EFB401069002E97401F0EFF6
:10212000B402069002757401F0EFB4030690028DBC
:102130007401F090026CE004F0900301F09003D77A
:10214000E004F00220119003D6E0FF900270E06FEF
:102150006002EFF0229003D7E0FF1239B4EF2212B1
:102160002902E49003D6F0900018E0FF9003D6E037
:10217000C39F400302238F1218B0F583E4F0A3F04D
:10218000EF25E024E0F582E43403F583E4F0A3F0E6
:10219000EF7003022386121B399003D6E0FF12234F
:1021A00095E49003D7F09003D7E0FFC39408400371
:1021B00002233D900272E0FEB4010912170F75F080
:1021C00002EF80359003D7E0FF70030223349003C1
:1021D000D6E0FD1217131217C7E0FAC3EA64809421
:1021E00080502075F081ED121716C083C0829003D5
:1021F000D7E0D082D08375F002122C03E4F0A3F074
:10220000022334EE60030222E312170FC083C08260
:102210009003D7E0D082D0831216981218BC121AFD
:10222000A8403CD3EF9405EE64809480503112179F
:102230000FC083C0829003D7E0D082D0831216985B
:10224000C083C082E0FEA3E07802CEA2E713CE13E3
:10225000D8F8FFD082D083EEF0A3EFF00222E31291
:10226000170FC083C0829003D7E0D082D0831216AC
:10227000981218BC9405EE648094804024D3EF94A7
:1022800008EE64809480501912170FC083C08290AA
:1022900003D7E0D082D08312169874FF75F0FE80C9
:1022A0003F12170FC083C0829003D7E0D082D08343
:1022B0001216981218BC9408EE648094804024D3BF
:1022C000EF940CEE64809480501912170FC083C0F5
:1022D000829003D7E0D082D08312169874FFF5F075
:1022E000122B899003FCE060269003D6E0FF1217C2
:1022F00013C083C0829003D7E0FED082D083121631
:102300007D121A481218B2F583EE8FF0122B8990C5
:1023100003D6E0FF121713C083C0829003D7E0D02A
:1023200082D0831216981217B01218B2F583EC8D72
:10233000F0122B899003D7E004F00221A69003FC51
:10234000E0600E1218AD1217AB121842ECF0A3EDBC
:10235000F09003D6E0FF75F081A42464F582E5F0E7
:102360003400F5831217B0121774ECF0A3EDF012DD
:1023700018AD1217AB121777121A4875F00212181F
:1023800042EEF0A3EFF09003D6E004F0022167E400
:1023900090026DF0229003E8EFF074041217DE90C3
:1023A00003F2F0BF01031217DC9003E8E0FFB40270
:1023B000031217DCEFB403031217DCE49003E9F017
:1023C000121AE8705E9003E8E0FF12180DF583C062
:1023D00083C0829003E9E0FED082D0831216981267
:1023E00017B01216E7121695121A2B1216E7F5837C
:1023F000C083C0829003E9E0FED082D08312167DB4
:10240000121A2B121713C083C0829003E9E0FED08A
:1024100082D0831216981217F7121695E4F0A3F0E3
:102420000224E0121825C083C0829003E9E0FED0A8
:1024300082D08312169875F0811217B012181012FC
:10244000169512191CFFEE9CFE9003EBF0A3EFF023
:10245000123D029003EDE012187550279003E9E059
:10246000FD9003EEA3E0FBA3A3E09003F6F090033E
:10247000EBE0FFA3E09003F7CFF0EF121A2E12303B
:10248000D8801F9003F2E004F09003EB12197A5009
:1024900011C3EF94FBEE6480947F50069003EAE052
:1024A00004F0121825C083C0829003E9E0FED082B8
:1024B000D0831216981218F6EF1216EA1216951219
:1024C000191CFFEE9CFE9003E8121712C083C08215
:1024D0009003E9E0D082D083121698EEF0A3EFF0DB
:1024E0001219FDC3940850030223C09003EAE0C30D
:1024F0009405403A9003E8E0FF123B6D9003E8E05A
:10250000FF123940EF602FE49003E9F09003E8E018
:10251000FF1216E7F583C083C0829003E9E0FED086
:1025200082D08312167D1219F8B408E08008900357
:10253000E8E0FF123C8C9003F2E0C39405403F902A
:1025400003E8E0FF1218ECE07034123B499003E816
:10255000E0FF123A28EF602EE49003E9F09003E8E0
:10256000E0FF1216E7F583C083C0829003E9E0FE26
:10257000D082D08312167D1219F8B408E02290039D
:10258000E8E0FF12106622CBEFCB75F002EB1217DA
:1025900077121839121B1D9FEC9E5003022631E45E
:1025A0002DFFEC3404FE75F002EB121777121B1DA1
:1025B000EF9DFFEE9C1216B9EEF0A3EFF075F0025E
:1025C000EB121777121839E0FCA3E0C39FFFEC9ED3
:1025D00012166CEEF0A3EFF012166DE0FEA3E0C34E
:1025E0009446EE9400500712166DE4F0A3F0121911
:1025F000C5E493FE740193FF12166DE0FCA3E0FDA9
:10260000D39FEC9E406B1219C5E493FE740193FFB7
:10261000C3ED9FFFEC9EC313FEEF13FF1219C574A9
:1026200001932FFFE4933E12166CEEF0A3EFF080BF
:102630004012183EE0FEA3E0FF75F002EB121777A0
:10264000E0FCA3E0C39FEC9EC3940475F002EB5042
:1026500012121671E4F0A3F01216BA7404F0A3E497
:10266000F0800E121671E4F0A3F01216BAE4F0A393
:10267000F0EB6401704412166D1218BC9490EE9445
:10268000014008121651EEF0A3EFF012166D121869
:10269000FF90035AF0EDA3F01216BA1218BC94AAD8
:1026A000EE9405400812169EEEF0A3EFF01216BA53
:1026B0001218FF900365F0EDA3F0EB640270441272
:1026C000166D1218BC9490EE94014008121651EE4B
:1026D000F0A3EFF012166D1218FF90035CF0EDA35B
:1026E000F01216BA1218BC94AAEE940540081216FD
:1026F0009EEEF0A3EFF01216BA1218FF900367F0E7
:10270000EDA3F0EB6403704412166D1218BC9490A4
:10271000EE94014008121651EEF0A3EFF012166D80
:102720001218FF90035EF0EDA3F01216BA1218BC57
:1027300094AAEE9405400812169EEEF0A3EFF01254
:1027400016BA1218FF900369F0EDA3F022900277F9
:10275000E024FE601E1470030227F71470030228A1
:10276000BE240360030229019002777402F0E49012
:1027700002FEF01233A59002777403F0900273E02A
:10278000FD7032900303E06401702AF0C28A121ACD
:10279000C0900019E06006121B244409F090031C4D
:1027A000E06006121B24440AF0900002E06006126A
:1027B0001B24440BF0ED6401600302290190030324
:1027C000E064016003022901F0C28A900360F09086
:1027D0000002E06006121B2B4410F0900019E0602C
:1027E00006121B2B4401F090031CE0700302290128
:1027F000121B2B4404F022122C3B90026DE070035C
:1028000002289F9002FEE004F0E49003D5F09000CF
:1028100018E0FF9003D5E0C39F400302289FE4FF28
:102820009003D51217B71218F6EEA42462F582E5CC
:10283000F034001217C5ECF0A3EDF09003D512169A
:10284000CA1217C5ECF0A3EDF00FEFB408D2900355
:10285000D5E0FF12166E121AB0EF1216BE7404F015
:10286000A3E4F0EFB4010DE490035AF0A3F0900359
:1028700065121B32EFB4020DE490035CF0A3F090FC
:102880000367121B32EFB4030DE490035EF0A3F074
:10289000900369121B329003D5E004F002280E90D9
:1028A00002FEE0C394034059900017747EF0E49058
:1028B000026EF09002FEF09002777404F022122C67
:1028C0003B90026DE0603A12215FE49003D5F090F6
:1028D0000018E0FE9003D5E0FFC39E50161235C4E9
:1028E0001232FF9003D5E0FF1225879003D5E00454
:1028F000F080DC123AF5121EE212107E900277EFA1
:10290000F022E49003E9F0A3F0A3F09003EE740446
:10291000F0E49003E8F0121A3F1218101217AB12ED
:1029200016EA1219D212179A1216EA12191AFFEEA3
:102930009CFE9003ECF0A3EFF0123D029003EEE05A
:1029400012187550219003EBE004F0A312173F1208
:1029500018BC9414EE6480948040030229A3121AD8
:10296000DE50770229C69003EC12197A400BD3EFA0
:102970009432EE6480948040069003E9E004F0D342
:10298000EF121AA840069003EAE004F0121AE87069
:10299000499003EC12173F1218BC94FAEE6480942D
:1029A0008040189003E8E0FD75F002121761121ADA
:1029B000B0ED12182DE475F001801CC3EF9406EE03
:1029C0006480947F5014121A3F121761121AB0EFEC
:1029D00012182D74FFF5F0122B8912179A1216EAAD
:1029E00012191AFFEE9CFE9003E8E075F002121730
:1029F00016EEF0EF121AEFC3940850030229169056
:102A000003EAE0D3940040028039C39000F4E090E0
:102A100000F3121A054032900175E0900174121A09
:102A20000540269001F6E094049001F5E06480945E
:102A3000804016900073E09404900072E0648094EB
:102A40008040069002727401F09003EBE0C394059D
:102A5000401A900272E06014E4FF123B91E4FF120E
:102A6000397AEF600CE4900272F08005E4FF123CCA
:102A70009B9003E9E0C394054028E4FF123B6DE41A
:102A8000FF123940EF6020E49003E8F0121A3F1281
:102A900016EA1217AB12182DECF0ED121AEFB4086B
:102AA000EB22E4FF123C8C22BB010689828A83E080
:102AB000225002E722BBFE02E32289828A83E4934A
:102AC00022BB010CE58229F582E5833AF583E022F9
:102AD0005006E92582F8E622BBFE06E92582F8E2E7
:102AE00022E58229F582E5833AF583E49322BB014E
:102AF0000689828A83F0225002F722BBFE01F3226C
:102B0000F8BB010DE58229F582E5833AF583E8F00B
:102B1000225006E92582C8F622BBFE05E92582C8B7
:102B2000F222EF8DF0A4A8F0CF8CF0A428CE8DF087
:102B3000A42EFE22BC000BBE0029EF8DF084FFAD59
:102B4000F022E4CCF875F008EF2FFFEE33FEEC3303
:102B5000FCEE9DEC984005FCEE9DFE0FD5F0E9E4FF
:102B6000CEFD22EDF8F5F0EE8420D21CFEADF0751E
:102B7000F008EF2FFFED33FD4007985006D5F0F237
:102B800022C398FD0FD5F0EA22C5F0F8A3E028F0A3
:102B9000C5F0F8E582158270021583E038F022A3B3
:102BA000F8E0C5F025F0F0E582158270021583E0AB
:102BB000C838F0E822EB9FF5F0EA9E42F0E99D422A
:102BC000F0E89C45F022ECF0A3EDF0A3EEF0A3EFCB
:102BD000F022A8828583F0D083D082122BE9122BB9
:102BE000E9122BE9122BE9E473E493A3C583C5F042
:102BF000C583C8C582C8F0A3C583C5F0C583C8C551
:102C000082C822A42582F582E5F03583F58322EF80
:102C10004E6012EF60010EEDBB010B89828A83F0DA
:102C2000A3DFFCDEFA2289F05007F709DFFCA9F0E8
:102C300022BBFEFCF309DFFCA9F022E49003D7F0ED
:102C40009003D7E0FFC394084003022DAAEF902D14
:102C5000B193902ECAF0E49003D6F0900018E0FFF4
:102C60009003D6E0FEC39F4003022DA174042E12F0
:102C70001AA0E0FF9003D8F0E4F5E2EFC394085007
:102C80003B7415121AC8C083C082121A858002C311
:102C900033D8FCD082D083F0902ECD7401F0C08365
:102CA000C082E0FFC8EEC8088002C333D8FCD082DF
:102CB000D083F0902EC074C1F0022D259003D8E08F
:102CC00024F8F07416121AC8C083C082121A8580C4
:102CD00002C333D8FCD082D083F0902ECE7401F0A2
:102CE000C083C082E0FFC8EEC8088002C333D8FCAE
:102CF000D082D083F0EEB4050A121A1774F0F0A354
:102D0000740EF0EEB4060A121A1774E0F0A3740CF5
:102D1000F0EEB4070A121A1774F0F0A3740BF090D7
:102D20002EC074C2F0E4FF900000742EF0A3E4F013
:102D30009003D6E02404121AA0E09003D8F0E5E254
:102D400020E2050FEFB4C8DF53E2FB1219EC900349
:102D5000D8E0FD75F002A4FFAEF0900001E02FF086
:102D6000900000E03EF0ED902DE693FF900000E42F
:102D700075F002122B9F85F082F5831218F6EF1280
:102D80001810F583C083C0829003D7E0D082D0832F
:102D9000121698ECF0A3EDF09003D6E004F0022CAC
:102DA0005B9003D7E004F0022C4090026D7401F0B8
:102DB000223F3F3F3F3F3F3F3F3F003200321770CF
:102DC00002580004001E000A000A000A000A000F50
:102DD0000064000A000A000000000000000000007B
:102DE0000000010101010405060708090A0B0C0D8A
:102DF0000E0F0001020300320032003200320032B6
:102E00000032003200320032003200320032003232
:102E10000032003200320037003700370037003709
:102E200000370037003700370037003700370037EA
:102E3000003700370037002D002D002D002D002D0C
:102E4000002D002D002D002D002D002D002D002D1A
:102E5000002D002D002D002D002D002D002D002D0A
:102E6000002D002D002D002D002D002D002D002DFA
:102E7000002D002D002D00960096009600960096DD
:102E80000096009600960096009600960096009692
:102E9000009600960096009B009B009B009B009B69
:102EA000009B009B009B009B009B009B009B009B4A
:102EB000009B009B009B008700870087008700879E
:102EC00000870087008700870087008700870087CA
:102ED000008700870087002D002D002D002D002D7C
:102EE000002D002D002D002D002D002D002D002D7A
:102EF000002D002D002D00FA00FA00FA00FA00FA69
:102F000000FA00FA00FA00FA00FA00FA00FA00FAF1
:102F100000FA00FA00FAC0E0C083C082C0D0E8C066
:102F2000E0E9C0E0EAC0E0EBC0E0EFC0E0D2AFE52E
:102F3000DB30E415E5DB30E102802290034FE5DF72
:102F4000F09003D0E4F0022FEFE5DB30E5059003CD
:102F50004C8038E5DB30E126E5DB30E0119003D230
:102F600012102312102C122AC1F5DF022FEF90034A
:102F7000D1E064117079208A76D28A022FEF900313
:102F8000D0E0700DA3E5DFF09003D07401F0022FC4
:102F9000EF9003D1E090354493FFB4FF0E90034FC0
:102FA000E5DFF09003D1E004F0803EEF640F900382
:102FB000D2702B1210239003D1E0FF121040540F57
:102FC000122AEE9003D21210239003D1E0FF04F0F6
:102FD000121040FFE5DF54F04F122AEE800B121062
:102FE0002312102CE5DF122B0090034EE004F07545
:102FF000DBFFD0E0FFD0E0FBD0E0FAD0E0F9D0E09A
:10300000F8D0D0D082D083D0E032758A50538AEF86
:103010009003FD7411F09003FB7422F09003FE7492
:1030200033F075995F759AA0E4FFFEC29620970A67
:10303000D296309705E49003FDF00FBF00010EEF2C
:10304000640A4E70E6E4FEFFC29620950AD29630DE
:103050009505E49003FDF00FBF00010EEF640A4EEA
:1030600070E675991F759AE0E4FEFF2095069003BF
:10307000FB7425F02097069003FB7427F02096211F
:103080009003FB7426F02097037428F02095069097
:1030900003FB7429F02097092095069003FB7430F8
:1030A000F00FBF00010EEF640A4E70BFE4F5AD757E
:1030B000AEF075AF09F5AC7589FF75913E75990F46
:1030C000F59675931EF59BF595F592F59A75800E1C
:1030D000D28A9003FC04F0229003F5EBF09003F306
:1030E000EFF0A3EDF09003F7E0FAA3E0FB75F081B9
:1030F000EF121761ED121698EA8BF0122B8975F01A
:1031000081EF121761ED1217C8E0FEA3E09003F5FE
:1031100012189A40299003F3E0FF75F081121761AD
:10312000C083C0829003F4E0FED082D08312169850
:10313000E4F0A3F0121688E475F0010231909003D8
:10314000F3E075F081121761C083C0829003F4E050
:10315000D082D083121698E0FEA3E0FF9003F6E041
:10316000FD3395E0C31218A150299003F3E0FF75D9
:10317000F081121761C083C0829003F4E0FED08218
:10318000D083121698E4F0A3F012168874FFF5F0BD
:10319000122B89229003F0EBF09003EEEFF0A3EDF9
:1031A000F09003F2E0FAA3E0FB1217FB121AF9EA1F
:1031B0008BF0122B891217FB121AF9E0FEA3E09094
:1031C00003F012189A402B9003EEE0FF1217FCF563
:1031D00083C083C0829003EFE0FED082D0831216BA
:1031E00098121AB8EF1216EA121695E475F0010259
:1031F00032469003EEE01217FCF583C083C0829044
:1032000003EFE0D082D083121698E0FEA3E0FF9097
:1032100003F1E0FD3395E0FCC31218A2502B90039C
:10322000EEE0FF1217FCF583C083C0829003EFE04D
:10323000FED082D083121698121AB8EF1216EA1234
:10324000169574FFF5F0122B8922E49003D6F0FF57
:103250009003D5F0EF14601E14603514604C1460B8
:103260005B240470749003D77401F0A3742FF0A34F
:103270007458F00232D3121020900001122AC1FEBD
:10328000D3941F4003121039122AA86E704B80434A
:10329000121020900002122AC1FED394064003129D
:1032A0001039122AA86E7031802912102090000364
:1032B000122AC1FE122AA86E701F801712102090C9
:1032C0000004122AC1FE648B6003121039122AA86E
:1032D0006E70069003D5E004F00FEF640560030202
:1032E00032549003D5E0B40504A37401F09003D6E2
:1032F000E0FD6007900364E0547FF0CFEDCF2290B3
:1033000003FCE070030233A4900020E0FEA3E0FF82
:10331000C39458EE941B50069003FE7425F0900061
:103320001E121B1D9458EC941B50069003FE74272C
:10333000F0C390001DE0945890001CE0941B504591
:103340009003FE7426F0C3ED9458EC941B50037464
:1033500028F0C3EF9458EE941B50069003FE742996
:10336000F0C3900021E09458900020E0941B501589
:10337000C390001FE0945890001EE0941B500690EC
:1033800003FE7430F0E49003FCF090001EF0A3F014
:1033900090001CF0A3F0900020F0A3F09003FEE05A
:1033A000900358F0227E027F597D007B017A0079DC
:1033B0001A122C0F12343CE4FE121A5F506EE4FF16
:1033C00075F081EE1217611217C7E4F0A3F0EE1248
:1033D00017FC1217C5121AB8EE12179012164412E3
:1033E0001862121644E4F00FEFB408D4CFEECF12F7
:1033F0003C8C123C9B12106675F081EEA424C2F541
:1034000082E5F03400F583E4F0123CAA123CC812C5
:103410003CB9123CD712181AE41217D0E4121AD38E
:10342000A3F0900300F0A3F00E0233B99002707481
:103430007EF0900017F0E490026FF022E4FF90001D
:1034400018E0FEEFC39E505AEF25E02496F582E483
:10345000342E12188B244EF582E5F034021219D264
:10346000EF25E02476F582E4342E12188B12198FA2
:103470001219D2EF25E024B6F582E4342E12188B0F
:103480001219A11219D2EF25E024D6F582E4342EC8
:1034900012188B243AF582E5F034001219D20F028B
:1034A000343E900248A3E0900354F090036BE0FF99
:1034B000B410079002737401F022EFB42005E49079
:1034C0000273F02202371FE493A3F8E493A34003AE
:1034D000F68001F208DFF48029E493A3F85407246E
:1034E0000CC8C333C4540F4420C8834004F456802E
:1034F0000146F6DFE4800B010204081020408090B2
:10350000384AE47E019360BCA3FF543F30E5095480
:103510001FFEE493A360010ECF54C025E060A840D5
:10352000B8E493A3FAE493A3F8E493A3C8C582C8CC
:10353000CAC583CAF0A3C8C582C8CAC583CADFE9A1
:10354000DEE780BE0F00FF00000000000000FFFF6C
:10355000FFFFFFFFFFFF00FFFFFFFFFFFFFFFF0079
:10356000000000000000000000000000000000005B
:10357000000000000000000000000000000000004B
:10358000000000000000000000000000000000003B
:10359000000000000000000000000000000000002B
:1035A000000000000000000000000000000000001B
:1035B000000000000000000000000000000000000B
:1035C00000000000CDEFCDED64017018ED1216BBC8
:1035D000E0FAA3E09003A012176D1219DA9003A28B
:1035E000F0EBA3F0ED6402701B75F002ED1216BE55
:1035F000E0FAA3E09003A412176D1219DA9003A663
:10360000F0EBA3F0ED6403701A75F002ED1216BE34
:103610001219DA9003A812176F1219DA9003AAF0A0
:10362000EBA3F0ED701A75F002ED1216BE1219DA66
:1036300090039012176F1219DA900392F0EBA3F037
:1036400022900250A3E09003C0F0900252A3E090B9
:1036500003C1F0900254A3E09003C2F0900248A38B
:10366000E09003C3F090024AA3E09003C4F09002FC
:103670004CA3E09003C5F0900258A3E09003C6F07D
:1036800090025AA3E09003C7F090025CA3E090037D
:10369000C8F0902EF87401939003C9F0902EFA743C
:1036A00001939003CAF0902EFC7401939003CBF029
:1036B000229003D57410F0A3E4F0A3743FF0A37438
:1036C000FFF0E4FDFCF9900351E064AA705074AA85
:1036D000F0758A10538AEF0000009003D5E0FEA336
:1036E000E02DF582EE3CF583E493FF69F90DBD0012
:1036F000010CBC2FE5BDFFE29003D7E0FEA3E0F58F
:10370000828E83E4936970089003517413F08005EE
:10371000E4900351F0758A50538AEF00000022753F
:10372000200153A87F12300A123B2243A880123C8A
:10373000E612104E123C21EF24E0601024A0600E2F
:1037400024707016C283C282C281800E80069003EC
:10375000F97401F0D283D282D28112343C1236B194
:103760009003F9E0FF6017B4010C123C5975870310
:10377000000000123CF59003F9E0B40201001227AA
:103780004D80B1902EC0E4F0902ECB74F7F0902FC6
:1037900058E0540F24F0902EC8F0902ECC7448F0CE
:1037A000902EC97429F0A3743FF0902E40748112BA
:1037B00018C31218C3041218C314F0A37402F0A3A0
:1037C000F0A3F0902EC67414F0902EC17490F0A364
:1037D0007401F0A37450F0A3740CF043E310123C96
:1037E0003E900018EFF022C0E0C083C082C0D0EF4E
:1037F000C0E09003F9E024FE601514601A24027002
:103800003D9003F97402F0758DA0758E0A802F909B
:1038100003F97401F080279002FFE0602190030219
:10382000E0FFC3940F5005E004F08012EFB40F0ED8
:10383000900302E4F09002FFF09003F904F0D0E06E
:10384000FFD0D0D082D083D0E0324103F9004102D2
:10385000FE004102760041030300410019004103CC
:103860001C00410002004102E900410275004102D2
:103870008D004102E8004102740041028C004103C6
:103880004900410273014103D0004103D1004203CA
:103890004A000041034C0041034E0041034D0041EA
:1038A000034F1000C0E0C0F0C083C082C0D0E8C0A9
:1038B000E0ECC0E0EDC0E0EEC0E0EFC0E0D2AF90E1
:1038C0000276E004F0C3940A4017E4F012170124D2
:1038D00001FFE43EFEE43DFDE43CFC900331122B8D
:1038E000C6D0E0FFD0E0FED0E0FDD0E0FCD0E0F8B4
:1038F000D0D0D082D083D0F0D0E0327E007F807DE7
:10390000007B017A037950122C0F9003507408F059
:10391000A37413F0A37401F090036374ABF0A37469
:103920008EF09003FDE0900356F09003FBE09003CF
:1039300057F09003FEE0900358F012324A023641ED
:103940009003F3EFF0E0FF243512193BE06028EF1D
:1039500025E025E02439F582E434031216F4121828
:10396000CC902DC6121731400E9003F3E02435128F
:10397000193BE4F07F01227F00229003EFEFF0E09B
:10398000FF2408121946E06028EF25E025E0240C0A
:10399000F582E434031216F41218CC902DCC1217D1
:1039A00031400E9003EFE02408121946E4F07F0145
:1039B000227F00229003D8EFF0E0FF247812195103
:1039C000E06028EF25E025E0247CF582E434021253
:1039D00016F41218CC902DBC121731400E9003D85B
:1039E000E02478121951E4F07F01227F0022900335
:1039F000D8EFF0E0FF241D121972E06028EF25E0F7
:103A000025E02421F582E434031216F41218CC9038
:103A10002DC0121731400E9003D8E0241D121972E8
:103A2000E4F07F01227F00229003F3EFF0E0FF2417
:103A3000EA121930E06025EF25E025E024EEF5825A
:103A4000E434021216F4902DBE121725400E900396
:103A5000F3E024EA121930E4F07F01227F00229083
:103A600003D8EFF0E0FF240312195CE06022EF2599
:103A7000E025E02407F582E434001216F412172240
:103A8000400E9003D8E0240312195CE4F07F012279
:103A90007F00229003D8EFF0E0FF249C121967E02A
:103AA0006022EF25E025E024D8F582E434021216E6
:103AB000F4121722400E9003D8E0249C121967E4F8
:103AC000F07F01227F0022E4F0123CD79003D7E080
:103AD000FF121908501E12194EE0701812194E7478
:103AE00001F01217011219AA247CF582E43402F5C0
:103AF00083122BC622E4FFFE900018E0FDEEC39D6A
:103B0000501AEF12166E121B0C121671E0FAA3E097
:103B1000D39DEA9C4003CFEECF0E80DC900271EF84
:103B2000F0229003D27401F0A37403F0A37450F058
:103B3000E4F5DA75DA4043DA2075D74075DA584390
:103B4000A90875B80875F80822121908501E12192C
:103B50002DE0701812192D7401F01217011219AA14
:103B600024EEF582E43402F583122BC622121908E2
:103B7000501E121938E070181219387401F012171B
:103B8000011219AA2439F582E43403F583122BC6F5
:103B900022121908501E121943E0701812194374AA
:103BA00001F01217011219AA240CF582E43403F56E
:103BB00083122BC622121908501E121959E07018D0
:103BC0001219597401F01217011219AA2407F5826B
:103BD000E43400F583122BC622121908501E121964
:103BE00064E070181219647401F01217011219AA16
:103BF00024D8F582E43402F583122BC62212190868
:103C0000501E12196FE0701812196F7401F012171C
:103C1000011219AA2421F582E43403F583122BC67C
:103C200022E4FD90034CE06011900350E0FE54F05C
:103C3000FDEE540FF0E490034CF0CFEDCF221219BB
:103C4000ECFFFEEE902DD693600974042F121AA09B
:103C5000EEF00F0EEEB410EB22758B03758DA07590
:103C60008E15902ECB1219EF438A80F586F58F437F
:103C7000AA0822900331122BD2000000007E007FA0
:103C80000E7D007B017A02798E022C0FEFD3940413
:103C9000500874352F12193BE4F022EFD3940450EE
:103CA0000874082F121946E4F022EFD39404500848
:103CB00074782F121951E4F022EFD3940450087451
:103CC000032F12195CE4F022EFD394045008749C83
:103CD0002F121967E4F022EFD394045008741D2FBB
:103CE000121972E4F0221237839002777401F012F5
:103CF00033A50238FB902ECB74F7F0538A7F75867C
:103D00000122EE30E707C3E49FFFE49EFE2200009D
:103D100000000000000000000000000000000000A3
:103D20000000000000000000000000000000000093
:103D30000000000000000000000000000000000083
:103D40000000000000000000000000000000000073
:103FF000000000000000000000000000000000B40D
:00000001FF
