:100000000000000000030000C1A00000000000008C
:1000100000000000000000000000000000000000E0
:10002000801878FFE4B8200118F6D8F99000007F16
:10003000007E07E4F0A3DFFCDEFA758120022C4E7F
:10004000900437E0FBA3E0FAA3E0F922900430E04B
:10005000FF04F08F82758300229004367401F02231
:10006000E92FF9E43AFA021FA10000022836EFD383
:100070009403500D12124BF583E5822D1210EDE41E
:10008000F02200022DE175F0021220FCE0FCA3E05A
:10009000FD75F09AEFA42444F582E5F03400F58371
:1000A000EE75F0020220FCEF2466FFEE34FEFE7CCB
:1000B000007D0A12201B7D3212202DEF249AFFEEC4
:1000C0003401FEEB75F002A42426F582E5F034003D
:1000D000F5832275F0041220FCE0F8A3E0F9A3E018
:1000E000FAA3E0FB90031DE0FCA3E0FDA3E0FEA368
:1000F000E022900444E0FF900443E0FE75F09AA4EF
:1001000024A7F582E5F03400F583E5822FF582E43B
:100110003583F58322900445E0FEA3E0FF9004437D
:10012000E0FD75F09AA4247AF582E5F03400F583B9
:1001300022E0FCA3E0FDEF75F09AA42456F582E5D9
:10014000F0340022EF2424FFEE34FAFE7C007D0A16
:1001500012201B7D1E12202DEF24DCFFEE3405FE45
:10016000EB75F002A42420F582E5F03400F583223B
:100170009025B8C39BFBEE9AFAED99F9EC98F8E458
:1001800093FE740193FFE4FCFDC30220AEC39DFF08
:10019000EE9CFEE075F09AA42468F582E5F0340048
:1001A000F58322F583E493FC740193FD75F002EF6F
:1001B000A422900443E0FF75F09AA42444F582E55C
:1001C000F03400F58322900443E0FF75F09AA424F4
:1001D00032F582E5F03400F5832275F09AA4248C80
:1001E000F582E5F03400F583EC75F0020220FC7531
:1001F000F002EBA4241AF582E5F03400F583E0FE6A
:10020000A3E0FF75F002EBA42414F582E5F03400BE
:10021000F583E0FCA3E022E04401F0E4900013F059
:1002200090030D22F0A3F0A3F0A3F0A3F0A3F0A39A
:10023000222406F582E5F03402F583ECF0A3EDF01C
:1002400022900444E0FF900443E075F09AA4249EB9
:10025000F582E5F0340022900443E0FD75F09AA4A5
:10026000248CF582E5F03400F58322EF75F009A4C3
:100270002421F582E4340322EF75F009A42486F5E5
:1002800082E4340222E4F075F09AEEA424B0F58200
:10029000E5F0340022900435E0FF25E02437F582B4
:1002A000E4340422900443E0FFA3E0FD22900436EE
:1002B000E02412F582E43402F58322900447E0FD45
:1002C000EF9D7480F86E9822EDF0CBEFCBEBD394DA
:1002D000032275F09AEEA424CBF582E5F0340022D7
:1002E00074182EF582E43402F58322E0FEA3E0FFC9
:1002F000D32275F002EBA4241AF582E5F034002233
:1003000074252BF582E43402F5832274022BF582E6
:10031000E43400F5832274402BF582E43402F58343
:1003200022740E2BF582E43403F58322E04406F0B8
:100330009000137401F022C39BFBEE9AFAED99F939
:10034000EC98F822EB25E024E8F582E43426F583E6
:1003500022E0249EF582E43400F583E064012275F6
:10036000F002EF1220FCE0FCA3E0FD75F09A22E41D
:10037000F0A3F075F09A22E0FCA3E0FDEC22EE8FF2
:10038000F012208275F09AED22E0FEA3E0C39D22D8
:10039000CFF0A3EFF075F09AED22A42414F582E5D6
:1003A000F0340022E490021CF0900280F02224003D
:1003B000F582E5F0340222240CF582E5F0340222C5
:1003C00075F024A4243CF582E43403F5832275F00F
:1003D00024A424A1F582E43402F5832225E025E05B
:1003E0002428F582E43402F5832225E025E0240563
:1003F000F582E43400F5832225E025E02473F582BC
:10040000E43402F5832225E025E02411F582E4346A
:1004100003F58322900443E0FFA3E0FD22A424A778
:10042000F582E5F03400F583E58222E0FEA3E02DBD
:10043000FFEE3CFE900435E022F074192EF582E4C4
:100440003402F583E4F022E0FF900437E0FEEFC8C9
:10045000EEC80822541FF0EDA3F02275F002EF124F
:1004600020FCECF0A3EDF022902EC5E4F0902ECD10
:10047000F0A3F022F582E43402F583229003AFE08A
:1004800054F0F022E02415F582E43402F583229042
:100490002EC6F0902EC57401F02275F0041220FCD7
:1004A0000220BFC3EF94F6EE6480947F22C3EF94E2
:1004B0009CEE6480947F22ECF0A3EDF0900443E086
:1004C00022902EC97420F022900436E004F022A479
:1004D0002458F582E5F0340022900436E0FF75F0F0
:1004E00002A422F090021DF0900281F022F583E038
:1004F000FFA3E022900443EFF0A3EDF090044774D3
:1005000003F0ED70037402F0900443E0FF12111742
:10051000F583C083C082900444E0FED082D0831271
:100520001066121369FFEE9CFE900445F0A3EFF0F5
:100530001232EDC312129B40030215D11210F5C006
:1005400083C082900444E0FCD082D08312108112D8
:10055000135E121105EC1210811212CB940AEE6494
:1005600080948040241210FDC083C082900444E037
:10057000FCD082D083121081E4F0A3F0ED121117A9
:100580001211C6E475F001802B12148350299004D7
:1005900043E0FF121102C083C082900444E0FED009
:1005A00082D083121081E4F0A3F012111612107E93
:1005B00074FFF5F012208212128412104E1212846F
:1005C000123035121284122E8DEF70030216D9905C
:1005D0000444E0FF900443E0FE12122A1210E8E403
:1005E000F0EF60030216D91212B2F583E4F002169E
:1005F000D9900444E07029A3E0FEA3E0FF1232ED9D
:10060000D312129B40091212211210E87401F01249
:1006100017124023900443E075F09A1212B680122C
:100620001217124012121221F583E5822FF582E48F
:100630003583F5837401F01210F5C083C0829004F5
:1006400044E0FCD082D08312108112135E12110597
:100650001211C81212CB9464EE648094804023126D
:1006600010FDC083C082900444E0FCD082D083128D
:10067000108112134FED12111A1211C6E475F00118
:10068000802B12148D5029900443E0FF121102C0F8
:1006900083C082900444E0FED082D083121081E4B3
:1006A000F0A3F012111612107E74FFF5F0122082E2
:1006B000C3900445E0648094805032121284122F5B
:1006C000FC121284122EE0EF60299004431211955F
:1006D000C083C082900444E0FED082D08312108197
:1006E00012111112107EECF0A3EDF08006121284AC
:1006F00012104E12128412327F900443E0FF121146
:1007000017F583C083C082900444E0FED082D0837A
:10071000121066E0FEA3E090044312116DC083C086
:1007200082900444E0D082D083121081EEF0A3EFD7
:10073000F022900445E0FEA3E0FF1232ED90044762
:10074000E0FDD3EF9D7480F86E9822900443EFF0A3
:10075000A3EDF0900447740FF0ED603F90009EE031
:10076000640170028008900444121331702D12113C
:10077000A6C083C082900444E0FED082D0831210D1
:100780006612149712123CC083C082900444E0D0D9
:1007900082D083121081E4F0A3F02290044312115E
:1007A00095C083C082900444E0FED082D0831210B2
:1007B00081121346EFA42432F582E5F034001210C2
:1007C0007E121369FFEE9CFE900445F0A3EFF01239
:1007D00032ED900447E0FDC31212A04003021881DD
:1007E0001210D2E06401703775F09AEE121177EFB3
:1007F0001211C9E0FEA3E0C3941EEE648094804011
:10080000030218C71211A6C083C082900444E0FE00
:10081000D082D083121066ECF0A3EDF00218C790DE
:100820000445E0FEA3E0FF121237C083C0829004AB
:1008300044E0FCD082D083121081EE8FF01220822F
:10084000ED1211BA1212CB9464EE648094804023AE
:10085000121237C083C082900444E0FCD082D0835F
:1008600012108112134FED12119A1211C8E475F093
:1008700001802812148D506F900443E0FF12123C47
:10088000C083C082900444E0FED082D083121081E5
:10089000E4F0A3F012107174FFF5F0122082021838
:1008A000C71211A6C083C082900444E0FED082D05B
:1008B00083121066121497FF121174C083C08290C5
:1008C0000444E0FED082D083121081E0FCA3E0C398
:1008D0009428EC64809480400E75F09AEF1213FD1A
:1008E0002E1210ED7401F01210D2E0640170281283
:1008F00012671210E8E0041212661210E8E0D394B6
:10090000054014900444E0FF75F09AEE1210DF12D7
:1009100012651210E8E4F022E4900436F0900436F8
:10092000E0FDC394095023E0FF75F0021211AEE020
:10093000FAA3E0FB75F002EF12119AEAF0A3EBF0D4
:10094000E4FF1214D41214A880D3E4900435F0907C
:100950000012E0FF900435E0C39F4003021ABC126E
:100960001278F583E4F0A3F0EF25E0243DF582E46E
:100970003404F583E4F0A3F0EF7003021AB3E490BB
:100980000436F0900436E0FDC39409501890043505
:10099000E0FF12172B900435E0FFA3E0FD121AC20E
:1009A0001214A880DEE4900436F0900436E0FFC311
:1009B00094094003021A69749E2F12133460109038
:1009C0000435E075F09A1212B6F583E0B40119907F
:1009D0000435121173C083C082900436E0D082D0F7
:1009E00083121081E4F0A3F0900436E0FF7003025C
:1009F0001A63900435E0FE12117475F002EF1220B4
:100A0000FCE0FCA3E0C39403EC64809480501A756E
:100A1000F09AEE121177C083C082900436E0D08243
:100A2000D083121081E4F0A3F090044CE0602C908D
:100A30000435E0FF121174C083C082900436E0FEDA
:100A4000D082D08312108112111112107E12140B59
:100A500012127AF583EE8FF0122082900435E0FFB7
:100A6000121174C083C082900436E0D082D0831209
:100A70001081E0FCA3E0FDEF12127AF583EC8DF01B
:100A80001220821214A802198A90044CE0600F12FE
:100A900012751211F012118B12137B12121990049D
:100AA00035E0FF75F09A1214AF1211F012118B128B
:100AB00012D71212191212751211F012118B121292
:100AC000D7F58312140B75F00212137AF583EEF04A
:100AD000A3EFF0900435E004F002192FE490021E19
:100AE000F022900443EFF0A3EDF09004477409F076
:100AF000ED70037404F090009EE0640170028008C1
:100B00009004441213317038121192C083C0829045
:100B10000444E0FED082D083121081121111121011
:100B20007EECF0A3EDF0900443121173C083C082F9
:100B3000900444E0D082D083121081E4F0A3F0222C
:100B4000900443E0FF121117F583C083C082900424
:100B500044E0FED082D083121066121369FFEE9C2F
:100B6000900445F0A3EFF0900443121464E0600792
:100B7000E4900445F0A3F0900445E0FEA3E0FF12EA
:100B800032ED900447E0FDC31212A04003021BFFA8
:100B9000900445E0FEA3E0FF900443121100C083DF
:100BA000C082900444E0FCD082D0831210811213E2
:100BB0005E1211051211C81212CB940AEE648094D1
:100BC000804026900443121100C083C082900444E8
:100BD000E0FCD082D08312108112134FED12111A53
:100BE0001211C6E475F001802B1214835029900471
:100BF00043E0FF121102C083C082900444E0FED0A3
:100C000082D083121081E4F0A3F012111612107E2C
:100C100074FFF5F01220821213F412104E8038C3C4
:100C2000900445E064809480502D1213F4122FFC40
:100C30001213F4122EE0EF601E121192C083C082D4
:100C4000900444E0FED082D0831210811211111260
:100C5000107EECF0A3EDF0900443E0FF121117F5C5
:100C600083C083C082900444E0FED082D0831210FF
:100C700066E0FEA3E090044312116DC083C0829031
:100C80000444E0D082D083121081EEF0A3EFF02272
:100C9000E4900436F0900436E0FFC3940940030268
:100CA0001E07EF902EC87014E0545FF0A3746AF032
:100CB000902EC3744AF0A37401F0800EE044F0F06B
:100CC000902EC37480F0A37407F0900436E0902552
:100CD000A793902ECAF0E4900435F0900012E0FF44
:100CE000900435E0FEC39F4003021DFE74832E1264
:100CF0001454E0FF900437F0E4F5E2EFC394085099
:100D00003B741512146FC083C0821214278002C373
:100D100033D8FCD082D083F0902ECD7401F0C08304
:100D2000C082E0FFC8EEC8088002C333D8FCD0827E
:100D3000D083F0902EC074C1F0021D82900437E081
:100D400024F8F0741612146FC083C0821214278026
:100D500002C333D8FCD082D083F0902ECE7401F041
:100D6000C083C082E0FFC8EEC8088002C333D8FC4D
:100D7000D082D083F0EEB405031214A1EEB4060BBA
:100D80001214A1902EC3F0A3740BF0EEB4070D1251
:100D900014A1902EC37480F0A3740AF0902EC07436
:100DA000C2F0E4FF900000742EF0A3E4F09004354C
:100DB000E02483121454E0900437F0E5E220E205C9
:100DC0000FEFB4C8DF53E2FB121448900437E0FD84
:100DD00075F002A4FFAEF0900001E02FF09000004B
:100DE000E03EF0ED9025D893FF900000E475F0020E
:100DF00012209885F0821211F0FD75F09AEF121111
:100E0000AEC083C082900436E0D082D083121081BD
:100E1000ECF0A3EDF0900435E004F0021CBB90046C
:100E200036E004F0021C7590021E7401F02290025C
:100E300024E024FE601E147003021EA61470030238
:100E40001F5D24036003021FA09002247402F0E4DB
:100E500090027FF09002247403F0900282E064011B
:100E60007061F012145C900013E0FF700990030DA4
:100E7000E07003021FA0EF601290030DE0600C12FF
:100E800011FBF09003AFE044058034900013E06064
:100E90001290030DE0700C1211FCF09003AFE044CF
:100EA00001801C900013E06003021FA090030DE07E
:100EB0007003021FA01211FBF09003AFE04404F096
:100EC000C28A220229FF121C7090021EE0700302E7
:100ED0001F3E90027FE004F0E4900434F090001292
:100EE000E0FF900434E0C39F5074E4FF900434E0CA
:100EF000FE1211AB12133FEE12111AF58312143BBE
:100F0000900434E0FE1211AB12133FEE12119A124C
:100F1000143B0FEFB409D5900434E0FF1210A4E4A1
:100F2000F0A3F0EF1211417404F0A3E4F0EFB40168
:100F300010E49003B9F0A3F09003BD7404F0E4A3AF
:100F4000F0EFB40210E49003BBF0A3F09003BF7481
:100F500004F0E4A3F0900434E004F0021EBD90021B
:100F60007FE0C394034059900011747EF0E4900236
:100F70001FF090027FF09002247404F022121C7083
:100F800090021EE0603A1218F8E4900434F09000E9
:100F900012E0FE900434E0FFC39E50161222C212EB
:100FA0002E38900434E0FF12243C900434E004F026
:100FB00080DC1230A4122708122134900224EFF0B2
:100FC00022BB010689828A83E0225002E722BBFE0F
:100FD00002E32289828A83E49322BB010CE5822901
:100FE000F582E5833AF583E0225006E92582F8E6AA
:100FF00022BBFE06E92582F8E222E58229F582E598
:10100000833AF583E49322BB010689828A83F02226
:101010005002F722BBFE01F322F8BB010DE5822945
:10102000F582E5833AF583E8F0225006E92582C887
:10103000F622BBFE05E92582C8F222EF8DF0A4A8B6
:10104000F0CF8CF0A428CE8DF0A42EFE22BC000B95
:10105000BE0029EF8DF084FFADF022E4CCF875F0EE
:1010600008EF2FFFEE33FEEC33FCEE9DEC984005CD
:10107000FCEE9DFE0FD5F0E9E4CEFD22EDF8F5F093
:10108000EE8420D21CFEADF075F008EF2FFFED339B
:10109000FD4007985006D5F0F222C398FD0FD5F019
:1010A000EA22C5F0F8A3E028F0C5F0F8E582158241
:1010B00070021583E038F022A3F8E0C5F025F0F0C7
:1010C000E582158270021583E0C838F0E822EB9FB4
:1010D000F5F0EA9E42F0E99D42F0E89C45F022ECF2
:1010E000F0A3EDF0A3EEF0A3EFF022A8828583F049
:1010F000D083D0821220E21220E21220E21220E2FB
:10110000E473E493A3C583C5F0C583C8C582C8F062
:10111000A3C583C5F0C583C8C582C822A42582F5AE
:1011200082E5F03583F58322EF4E6012EF60010E09
:10113000EDBB010B89828A83F0A3DFFCDEFA2289F2
:10114000F05007F709DFFCA9F022BBFEFCF309DF32
:10115000FCA9F022900224E0B4021D9002827401E6
:10116000F09003C2E0B420089003A87401F0800559
:10117000E49003A8F07F0222E4FE900012E0FFEE6C
:10118000C39F40030222BF1212C0E0640160030249
:1011900022BB74122E121293E0FC600302220A1288
:1011A000145CEE6401703A900281E0FD6401701BF2
:1011B000900280E09003AFB40109E044091211FAF3
:1011C0000480151211F71214C38016ED9003AFB40A
:1011D000020BE044051211FA12141980041211F7DF
:1011E000F0EE640260030222B4900281E0FD64012B
:1011F000701C900280E09003AFB4010612130CE45F
:101200008021E044041211FA1214C30222B4ED90BA
:1012100003AFB40205E044058003E04404F0E49029
:101220000013F090030DF00222B4EC64016003029D
:1012300022B412145CEE6401704C900280E0FFB4A2
:10124000020B9003AFE0440A12130F8013EF640106
:10125000702690021DE09003AFB4010C12130CE451
:1012600090030D121419801EE0440212130FE49033
:10127000030DF0121385800E9003AFE044021213A9
:101280000FE490030DF0EE64027049900280E0B428
:1012900002139003AFE0440AF090030D7401F09044
:1012A0000013F0802F90021CE06401701C900281FA
:1012B000E09003AFB40105E044098013E044081254
:1012C00011FA04F0121384800B9003AFE04408126B
:1012D00011FA04F01212C0E4F0C28A0E02215A7F01
:1012E0000422CDEFCD75F09AED12119AE0FFA3E044
:1012F00090043512137012111A1214CD9004371283
:101300001370A42446F582E5F034001214CD900445
:10131000391213701214AFF583E0FEA3E0FBCAEE9E
:10132000CA75F09AEDA42434F582E5F03400121465
:10133000CD90043BCFF0A3EFF0ED64017028900452
:1013400039E09003FFF0900439A3E0900400F0EA44
:10135000A3F0EBA3F090043BE0900403F090043B77
:10136000A3E0900404F0ED6402704F90043AE0248E
:101370000CF0900439E034FEF0740C2BFB74FE3A50
:10138000FA90043CE0240CF090043BE034FEF09032
:101390000439E090040FF0900439A3E0900410F0B9
:1013A000EAA3F0CFEBCFEFA3F090043BE09004135F
:1013B000F090043BA3E0900414F0ED600302243BA2
:1013C00090043F7409F0A374C4F090043D740AF0D3
:1013D000A37428F090043AE024B0F0900439E0348B
:1013E00004F074B02BFB74043AFA75F09AEDA4245F
:1013F0009FF582E5F03400F583E0B40110900440DD
:10140000E02432F090043FE03400F0800390043F89
:10141000E09003DFF090043FA3E09003E0F075F06C
:101420009AED12122DF583E0B4011090043EE024F1
:1014300032F090043DE03400F0800390043D12133C
:10144000579003E1F0EDA3F0900439121357900385
:10145000E3F0EDA3F0EAA3F0EBA3F022CBEFCB1285
:1014600011CFFDC39FEC9E50030224D1E42DFFEC6D
:101470003404FE1212D21211F0FDC3EF9DFFEE9C58
:1014800012113FEEF0A3EFF01211CFC39FFFEC9EBD
:101490001210A2EEF0A3EFF0121324E493FE7401F5
:1014A00093FF1210A3E0FCA3E0FDD39FEC9E402429
:1014B000121324E493FE740193FFC3ED9FFFEC9E8F
:1014C000C313FEEF13FF1213247401932FFFE49351
:1014D0003EFE80131210A3E0FEA3E0FF7C007D63BC
:1014E00012201B0D12202D1210A3EEF0A3EFF0809E
:1014F0004175F002EB12137AF583E0FEA3E0FF12D0
:1015000012D21211F0C39FEC9EC3940475F002EB4B
:1015100050121210A7E4F0A3F01211407404F0A3CB
:10152000E4F0800E1210A7E4F0A3F0121140E4F0F2
:10153000A3F0EB640170421210A31212CB949AEE46
:1015400094014008121087EEF0A3EFF01210A312DE
:1015500013579003B91214341211401212CB94DCB9
:10156000EE94054008121124EEF0A3EFF0121140A2
:101570001213579003BD121434EB6402704812101A
:10158000A31212CB949AEE94014008121087EEF049
:10159000A3EFF01210A3121357541F9003BBF0EDEA
:1015A000A3F01211401212CB94DCEE940540081205
:1015B0001124EEF0A3EFF0121140121357541F90B4
:1015C00003BFF0EDA3F0223F3F3F3F3F3F3F3F3F90
:1015D00000320032177002580004001E000A000A90
:1015E000000F0064000A000A000000000000000074
:1015F00000000000000101010D0E0F0304050607A5
:1016000008090A0B0C0001020032003200320032DD
:10161000003200320032003200320032003200323A
:101620000032003200320032003700370037003716
:1016300000370037003700370037003700370037F2
:10164000003700370037003700280028002800281E
:10165000002800280028002800280028002800284A
:101660000028002800280028002D002D002D002D26
:10167000002D002D002D002D002D002D002D002D02
:10168000002D002D002D002D005000500050005066
:1016900000500050005000500050005000500050CA
:1016A00000500050005000500055005500550055A6
:1016B0000055005500550055005500550055005582
:1016C00000550055005500550046004600460046AE
:1016D00000460046004600460046004600460046DA
:1016E0000046004600460046002D002D002D002D2E
:1016F000002D002D002D002D002D002D002D002D82
:10170000002D002D002D002D00FA00FA00FA00FA3D
:1017100000FA00FA00FA00FA00FA00FA00FA00FAF9
:1017200000FA00FA00FA00FA900435747EF0E4A39F
:10173000F0900012E0FE900436E0FFC39E400302EA
:10174000282712313BEF600312138412128DE060E0
:10175000030227B11214B912138E1211F0FD75F0A5
:1017600002EF1210A7121369EE9C4040900436E07D
:10177000900435F01212917401F090021CE004F014
:10178000900280F0900436E0FF24181212C3740116
:10179000F01232A5900436E0FF1232B4900436E025
:1017A000FF1231D7900436E0FF123211900436E078
:1017B000FF1230D7EF6008900436121464E4F09002
:1017C0000436E0FF123167EF6074E490021D0228D6
:1017D000191214B91213971211F0FD75F002EF12DD
:1017E00010A7121369EE9C401A900436E09004355D
:1017F000F0123109EF60479002247402F012128D4A
:10180000E4F022900436E0FF121291E4F01232D29A
:10181000900436E0FF1231BA900436E0FF1232C372
:10182000900436E0FF1231F4900436E024181212CE
:10183000C37401F090021DE004F0900281F0900466
:1018400036E004F0022711900435E0FF900221E019
:101850006F6002EFF022C0E0C083C082C0D0E8C059
:10186000E0E9C0E0EAC0E0EBC0E0EFC0E0D2AFE505
:10187000DB30E415E5DB30E10280229003AEE5DFEA
:10188000F090042FE4F002290FE5DB30E50590032A
:10189000AB8038E5DB30E126E5DB30E01190043148
:1018A00012102312102C121FBAF5DF02290F900418
:1018B00030E064017079208A76D28A02290F900480
:1018C0002FE0700DA3E5DFF090042F7401F00229E2
:1018D0000F900430E0902C9393FFB4FF0E9003AE72
:1018E000E5DFF0900430E004F0803EEF640F9004F8
:1018F00031702B121023900430E0FF121040540F6F
:10190000121FE7900431121023900430E0FF04F01E
:10191000121040FFE5DF54F04F121FE7800B12104A
:101920002312102CE5DF121FF99003ADE004F075CF
:10193000DBFFD0E0FFD0E0FBD0E0FAD0E0F9D0E070
:10194000F8D0D0D082D083D0E0329003C2E0FE64E1
:10195000107060FF900012E0FDEFC39D400302296C
:10196000F5EF25E02488F582E43426121183121263
:1019700011EF25E02468F582E43426121183121356
:101980008E121219EF25E024A8F582E434261211F4
:1019900083121397121219EF25E024C8F582E4345C
:1019A00026121183242CF582E5F034001212190F4F
:1019B000022934EE64207066FF900012E0FEEFC34F
:1019C0009E5052EF25E02408F582E434261211835C
:1019D000121211EF25E024E8F582E4342512118378
:1019E00012138E121219EF25E02428F582E4342612
:1019F000121183121397121219EF25E02448F58271
:101A0000E43426121183242CF582E5F034001212FE
:101A1000190F022999900202A3E09003B3F0227EED
:101A2000027F0F7D007B017A007914122108122FAA
:101A30007B9003A8E09003C270057410F0800374DB
:101A400020F012292AE4FE900012E0FFEEC39F402E
:101A500003022AB7E4FC75F09AEE1211051211C8C0
:101A600012134FEE12122DF583E5822C1210EDE4C5
:101A7000F0EE1211BA12134FEE1213FD2C1210EDEC
:101A8000121265F583E5822C1210EDE4F0CFEECF53
:101A9000CDECCD12104E12327F0CEC640970B712EF
:101AA00012B2F583E4F0CFEECF1232A51232C31298
:101AB00032B41232D274122E121293E4F01212C007
:101AC000E4F090021B747EF0E4A3F0A3F090028097
:101AD000F0A3F00E022A27900221747EF0900011EC
:101AE000F0E4900220F022E4900436F0FF900435F8
:101AF000F0EF14601E14603514604C14605B240415
:101B000070749004377401F0A3742FF0A37458F02C
:101B1000022B50121020900001121FBAFED3941F06
:101B20004003121039121FA16E704B804312102017
:101B3000900002121FBAFED394064003121039120D
:101B40001FA16E70318029121020900003121FBA5D
:101B5000FE121FA16E701F80171210209000041239
:101B60001FBAFE648B6003121039121FA16E70063B
:101B7000900435E004F00FEF64056003022AD19071
:101B80000435E0B40504A37401F0900436E0FD6070
:101B9000079003C3E0547FF0CFEDCF22758A5053F6
:101BA0008AEF90044D7411F090044B7422F090046D
:101BB0004E7433F075997F759A80E4FFFEC29620CB
:101BC000970AD296309705E490044DF00FBF0001BC
:101BD0000EEF640A4E70E67590FF75993F759AC0D6
:101BE000E4FEFF20970690044B7427F020960C909B
:101BF000044B7426F02097037428F00FBF00010EE9
:101C0000EF640A4E70DDE4F5AD75AEF075AF09F521
:101C1000AC7589FF75913E75991FF59675931EF504
:101C20009BF595759201F59A75800CD28A90044CBB
:101C300004F022022FC0E493A3F8E493A34003F638
:101C40008001F208DFF48029E493A3F85407240C00
:101C5000C8C333C4540F4420C8834004F4568001E1
:101C600046F6DFE4800B010204081020408090302B
:101C70006EE47E019360BCA3FF543F30E509541F1E
:101C8000FEE493A360010ECF54C025E060A840B8E5
:101C9000E493A3FAE493A3F8E493A3C8C582C8CA63
:101CA000C583CAF0A3C8C582C8CAC583CADFE9DE36
:101CB000E780BE0F00FF00000000000000FFFFFFF4
:101CC000FFFFFFFFFFFF000000000000000000001A
:101CD0000000000000000000000000000000000004
:101CE00000000000000000000000000000000000F4
:101CF00000000000000000000000000000000000E4
:101D000000000000000000000000000000000000D3
:101D100000000000000000000000000000000000C3
:101D200000000000000000000000000000000000B3
:101D30000000009004347410F0A3E4F0A3743FF0AA
:101D4000A374FFF0E4FDFCF99003B0E064AA7050C6
:101D500074AAF0758A10538AEF000000900434E0F2
:101D6000FEA3E02DF582EE3CF583E493FF69F90DC7
:101D7000BD00010CBC2FE5BDFFE2900436E0FEA3E0
:101D8000E0F5828E83E4936970089003B07403F0E9
:101D90008005E49003B0F0758A50538AEF0000008C
:101DA00022902EC0E4F0902ECB74F4F0902F58E0E7
:101DB000540F24F0902EC8F0902ECC7448F0902E42
:101DC000C97428F0A3743FF0902E4074811212045D
:101DD000F0A3F0A3041212047401F0A3F0902EC635
:101DE0007414F0902EC17490F0A37401F0A3748069
:101DF000F0A37407F043E31012324B900012EFF09F
:101E000022C0E0C0F0C083C082C0D0E8C0E0ECC017
:101E1000E0EDC0E0EEC0E0EFC0E0D2AF900223E022
:101E200004F0C3940A4017E4F01210C42401FFE444
:101E30003EFEE43DFDE43CFC90031D1220BFD0E0DB
:101E4000FFD0E0FED0E0FDD0E0FCD0E0F8D0D0D074
:101E500082D083D0F0D0E03290044CE0604E90000D
:101E600016E0FEA3E0FFC39470EE941750069004B2
:101E70004E7426F0C3900019E09488900018E09406
:101E800013501290044E7427F0C3EF9470EE941721
:101E900050037428F0E490044CF0900016F0A3F086
:101EA000A3F0A3F090044EE09003B7F02290044911
:101EB000EDF0900448EFF0A3E0FE121258F583E530
:101EC000822E1210EDE06035900448E01213AEC08F
:101ED00083C082900449E0D082D0831210B31213E1
:101EE000179025BE12115F4014900449E0FF900442
:101EF00048E01212591210E8E4F07F01227F00221C
:101F0000900449EDF0900448EFF0A3E0FE12124B6C
:101F1000F583E5822E1210EDE06032900448E01265
:101F200013A0C083C082900449E0D082D0831210F5
:101F3000B39025BC1211534014900449E0FF900463
:101F400048E012124C1210E8E4F07F01227F0022D8
:101F5000900208A3E0900407F090020AA3E0900426
:101F600008F0900202A3E0900409F0900204A3E0BC
:101F700090040AF090020EA3E090040BF09002107F
:101F8000A3E090040CF09026EA74019390040DF005
:101F90009026EC74019390040EF0227E007F807DE9
:101FA000007B017A0379AF122108E49003AFF0A31C
:101FB0007403F0E4A3F09003C174ABF09003C37416
:101FC00093F090044DE09003B5F090044BE0900343
:101FD000B6F090044EE09003B7F0122AC7022F30FB
:101FE00075200153A87F122B7C12319343A88012D5
:101FF00032E1123293758DE012322EEF24E0600A46
:102000002410700AC283C2828004D283D282122931
:102010002A122D13438D20121E0E80DC90044812CC
:1020200012A85030900448E0FFEB12124C1210E856
:10203000E07021EB12124C1210E87401F01210C47F
:10204000FFEB1213A0C083C082900448E0D082D07E
:102050008312147A229004481212A8503090044837
:10206000E0FFEB1212591210E8E07021EB12125946
:102070001210E87401F01210C4FFEB1213AEC0830B
:10208000C082900448E0D082D08312147A224102A8
:102090007F004102230041028200410013004103FE
:1020A0000D004103A80041042F0041043000420309
:1020B000A900004103AB004103AD004103AC004166
:1020C00003AE1000E4FFFE900012E0FDEEC39D5051
:1020D00020EF1210A4E0FCA3E0FD75F002EE121058
:1020E000A7E0FAA3E0D39DEA9C4003CFEECF0E8099
:1020F000D6900222EFF022900437EFF0E0FF242583
:102100001212E3E06020EF1213BC1210B912131781
:102110009025B212115F400E900437E02425121270
:10212000E3E4F07F01227F0022900437EFF0E0FF2C
:10213000240E121304E06020EF1213E61210B912FD
:1021400013179025B612115F400E900437E0240E4D
:10215000121304E4F07F01227F0022900437EFF095
:10216000E0FF24021212EEE0601AEF1213CA1210FE
:10217000B9121150400E900437E024021212EEE41E
:10218000F07F01227F0022900437EFF0E0FF24402F
:102190001212F9E0601AEF1213D81210B91211508E
:1021A000400E900437E024401212F9E4F07F01223F
:1021B0007F00229004317401F0A37403F0A374AF84
:1021C000F0E4F5DA75DA4043DA2075D74075DA586D
:1021D00043A90875B80875F808221212AA501712F8
:1021E00012E0E070111212E07401F01210C4FFEB63
:1021F0001213BC1220BF221212AA50171212EBE0C7
:1022000070111212EB7401F01210C4FFEB1213CA1A
:102210001220BF221212AA50171212F6E0701112E9
:1022200012F67401F01210C4FFEB1213D81220BF83
:10223000221212AA5017121301E070111213017426
:1022400001F01210C4FFEB1213E61220BF22E4FDCE
:102250009003ABE060119003AFE0FE54F0FDEE544C
:102260000FF0E49003ABF0CFEDCF22121448FFFE45
:10227000EE9025C893600974832F121454EEF00F6A
:102280000EEEB410EB2290031D1220CB00000000D4
:102290007E007F0C7D007B017A027934022108EFF9
:1022A000D39403500D121258F583E5822D1210EDD0
:1022B000E4F02275B28E75B6F9E4F5B743B2014386
:1022C000AA01023266EFD39403500874252F12122C
:1022D000E3E4F022EFD39403500874022F1212EEBD
:1022E000E4F022EFD39403500874402F1212F9E463
:1022F000F022EFD394035008740E2F121304E4F06D
:1023000022122D819002247401F00229FFEE30E7A1
:1023100007C3E49FFFE49EFE2200000000000000CF
:1023200000000000000000000000000000000000AD
:10233000000000000000000000000000000000009D
:10234000000000000000000000000000000000008D
:10235000000000000000000000000000000000007D
:10301000000000000000000000000000000000AC04
:00000001FF
