:10000000FF004C6174746963650069434563756200
:10001000653220323031342E31322E3237303532A3
:1000200000506172743A206943453430554C314B6D
:100030002D434D33364100446174653A204A756C56
:1000400020323120323031352031303A34303A31BB
:10005000390000FF7EAA997E5100010592002062BE
:10006000016F8200007200701100010100000000A9
:1000700000000000000000100000800000000000F0
:1000800002000000000080080000000000000000E6
:100090000100000800000000000000000000000057
:1000A0000000000000200000000000000000000030
:1000B00000000200000D000000000000000002002F
:1000C0000000000000000000000000000000000030
:1000D00000000000000040000000000001000000DF
:1000E00000004000000000000000000000000004CC
:1000F0000000000000000000000000000000000000
:1001000000000000000000000000000000000000EF
:1001100000000000000000000000000000000000DF
:1001200000000000000000000000000000000000CF
:100130000000800780010000020000000400800031
:1001400000030000000000000000000800000000A4
:10015000000000000000000000000000000000009F
:10016000000080010000000000000C0000000003FF
:10017000000000000000000000000000003000004F
:10018000000000000000000000000000000000006F
:10019000000000000000040000000000000000005B
:1001A000000000000000000000000000000000004F
:1001B000000000000000000000000000000000003F
:1001C000000000002000000000000000000000000F
:1001D000000000000000000000000000000000001F
:1001E000000000000000000000000000020000000D
:1001F00000001E08000000000200000000000000D7
:1002000000000000000020000000000000000000CE
:1002100000000000000000000000000000000000DE
:1002200002000000000000000000000000000000CC
:1002300000000000000000000000000000000000BE
:10024000000000000000000080030000000000002B
:100250000200000500010000000000000000000096
:10026000000000100000000000000000000000007E
:100270000000000080078002000000000000010074
:1002800080080001000000000000000000080000DD
:10029000000400000000000000000000000000005A
:1002A000000000000000000000000000000000004E
:1002B000000000000000000000000000003000000E
:1002C000000000000000000000000000000000002E
:1002D000400000000000000000000000400000009E
:1002E0000000000000000000000400080000000002
:1002F00000000000000000000000000000000000FE
:1003000001000000000000000000000001000000EB
:100310000000000000000000007810000000000055
:10032000000000000000000000000000800000004D
:10033000000000000000000080000000000000003D
:1003400000000800000800F00000000000000000AD
:100350000C302000000000000000000060C85F00BA
:10036000000000000000000000000000000000008D
:1003700000000000000000000000000000000C3041
:100380000000000000000000000000105F000000FE
:10039000000000000000000000000000000000005D
:1003A0000000000000000000000000000C302000F1
:1003B0000000000000060000000000000000000037
:1003C00000000A0000000000000000000000000023
:1003D000000000000000000000000C3000000000E1
:1003E000000000000000000000000000000000000D
:1003F00000000000000000000000000000000000FD
:1004000000000000000000000C3020000000000090
:10041000000000000000FF000000000000000000DD
:1004200000000000000000000000000000000000CC
:100430000000000000000C30000000000000000080
:1004400000000000FF0000000000000000000000AD
:10045000000000000000000000000000000000009C
:10046000000000000C302000000000000000000030
:100470000000C34200000000000000000000000077
:10048000000000000000000000000000000000006C
:1004900000000C3000000000000000000000000020
:1004A000C300000000000000000000000000000089
:1004B000000000000000000000000000000000003C
:1004C0000C302000000000000000001C00000000B4
:1004D000000000000000000000000000000000001C
:1004E00000000000000000000000000000000C30D0
:1004F00000000000000000000002000000000000FA
:1005000000000000000000000000000000000000EB
:100510000000000000000000000000000C3020007F
:1005200000000000000000000000000000000000CB
:1005300000000000000000000000000000000000BB
:10054000000000000000000000000C30000000006F
:10055000000000000000000000000000000000009B
:10056000000000000000000000000000000000008B
:1005700000000000000000000C302000000000001F
:10058000000000000000000000000000000000006B
:10059000000000000000000000000000000000005B
:1005A0000000000000000C3000000000000000000F
:1005B000000000000000000000000000000000003B
:1005C000000000000000000000000000000000002B
:1005D000000000000C3020000000000000000000BF
:1005E000000000000000000000000000000000000B
:1005F00000000000000000000000000000000000FB
:1006000000000C30000000000000000000000000AE
:1006100000000000000000000000000000000000DA
:1006200000000000000000000000000000000000CA
:100630000C3020000000000000000000000000005E
:1006400000000000000000000000000000000000AA
:1006500000000000000000000000000000000C305E
:10066000000000000000000000000000000000008A
:10067000000000000000000000000000000000007A
:100680000000000000000000000000000C3020000E
:10069000000000000000000000000000000000005A
:1006A000000000000000000000000000000000004A
:1006B000000000000000000000000C3000000000FE
:1006C000000000000000000000000000000000002A
:1006D000000000000000000000000000000000001A
:1006E00000000000000000000C30200000000000AE
:1006F00000000000000000000000000000000000FA
:1007000000000000000000000000000000000000E9
:100710000000000000000C3000000000000000009D
:1007200000000000000000000000000000000000C9
:1007300000000000000000000000000000000000B9
:10074000000000000C30200000000000000000004D
:100750000000000000000000000000000000000099
:100760000000000000000000000000000000000089
:1007700000000C300000000000000000000000003D
:100780000000000000000000000000000000000069
:100790000000000000000000000000000000000059
:1007A0000C302000000000000000000000000000ED
:1007B0000000000000000000000000000000000039
:1007C00000000000000000000000000000000C30ED
:1007D0000000000000000000000000000000000019
:1007E0000000000000000000000000000000000009
:1007F0000000000000000000000000000C3020009D
:1008000000000000000000000000000000000000E8
:1008100000000000000000000000000000000000D8
:10082000000000000000000000000C30000000008C
:1008300000000000000000000000000000000000B8
:1008400000000000000000000000000000000000A8
:1008500000000000000000000C302000000000003C
:100860000000000000000000000000000000000088
:100870000000000000000000000000000000000078
:100880000000000000000C3000000000000000002C
:100890001000000000000000000000000000000048
:1008A0000000000000000000000000000000000048
:1008B000000000000C3020000000000000000000DC
:1008C0000000000000000000000000000000000028
:1008D0000000000000000000000000000000000018
:1008E00000000C30000000000000000000000000CC
:1008F00000000000000000000000000000000000F8
:1009000000000000000000000000000000020000E5
:100910000C30200000000000000002000000000079
:1009200000000000000000000000000000000000C7
:100930000000000000003DA08000000340000C30DB
:1009400000000000000000000000000000000000A7
:10095000000000000000000000000018000000007F
:100960000000C0001EF00080000000000C302000DD
:100970000000000000000000000000000000000077
:100980000000000000000000000000000000006007
:1009900000001CAA0000000000000C300000000055
:1009A0000000000000000000000000000000000047
:1009B00000000000000000000000000000800000B7
:1009C000030A0000000200000C30200000000000BC
:1009D0000000000000000000000000000000000017
:1009E000000000000000000000000000000200E322
:1009F0003420000340000C30000000000000000024
:100A000000000000000000000000000000000000E6
:100A1000000000000000000000000004010334009A
:100A2000000000000C30200000000000000000006A
:100A300000000000000000000000000000000000B6
:100A4000000000000000000002001CA5540000008F
:100A500000000C300000000000000000000000005A
:100A60000000000000000000000000000000000086
:100A700000000000000000400305540000000014C6
:100A80000C3020000000000000000000000000000A
:100A90000000000000000000000000000000000056
:100AA00000000000046076C25400000000000C301A
:100AB0000000000000000000000000000000000036
:100AC0000000000000000000000000000000000026
:100AD000000000021CDE5400000000040C30200066
:100AE0000000000000000000000000000000000006
:100AF00000000000000000000000000000000000F6
:100B0000000000000000000000000C3000000000A9
:100B100000000000000000000000000000000000D5
:100B200000000000000000000000000000000000C5
:100B300000000000000000000C3020000000000059
:100B400000000000000000000000000000000000A5
:100B5000000000000040000000000001000640000E
:100B60000000000000000C30000000000000000049
:100B70000000000000000000000000000000000075
:100B80000000000000000000000000020000000063
:100B9000000000000C3020000000000000000000F9
:100BA0000000000000000000000000000000000045
:100BB00000000000000000C0016000000000000014
:100BC00000000C30000000000000000000000000E9
:100BD00000000000000000000000000000000040D5
:100BE0000000000000810000000000000000000084
:100BF00000000000000000000000000000000000F5
:100C000000000000000000000000000020000000C4
:100C10007BC104800002818F0600000000000000FC
:100C200000000000000000000000000000000000C4
:100C3000000000000000000000000000000003C1F0
:100C400000000344010F0400000000000000000049
:100C50000000000000000000000000000000000094
:100C60000000000000000000180050002BC10060D0
:100C7000014280AF060000000000000000000000FC
:100C80000000000000000000000000000000000064
:100C9000000000000000200008B003C140800026D2
:100CA000C00F040000000000000000000000000071
:100CB0000000000000000000000000000000000034
:100CC00000000000300050A06BC10040014780EFE1
:100CD0000408000000000000000000000000000008
:100CE0000000000000000000000000000000000004
:100CF00000001000D90003C140C00020010F040013
:100D000000000000000000000000000000000000E3
:100D10000000000000000000000080000000000053
:100D2000040500002BC100000000000A560000006E
:100D300000000000000000000000000000000000B3
:100D40000000000000000000400000000000000261
:100D5000D00043C1400000002405A40000000000B2
:100D60000000000000000000000021000000000062
:100D70000000000000010000000000000000001062
:100D80002BC10400000001CF05000000000000009E
:100D90000000000000000000000000000000000053
:100DA00000000001000000000000000000F003C18E
:100DB00000000000010F040000000000000000001F
:100DC0000000000000000000000000000000000023
:100DD00000000000000000000000000063C14000AF
:100DE000A002840A5400000000000000000000007F
:100DF00000000000000000000000000000000000F3
:100E00000000000000000000000043C100000004DA
:100E1000000A54080000000000000000000000006C
:100E200000000000000000000000000000000000C2
:100E3000000000000000000063C100000800018FF6
:100E40000408000000000000000000000000000096
:100E50000000000000000020000000000000000072
:100E60000000000000A003C101001412C00F040024
:100E70000000000000000000000000000000000072
:100E80000000000000000000000000000000000062
:100E900030000000029500C00000018F04800000B7
:100EA0000000000000000000000000000000000042
:100EB0000000000000000000000000000000200012
:100EC000500F016980800000010F04000000000045
:100ED0000000000000000000000000000000000012
:100EE0000000000000000000000000000000018081
:100EF00023C10000000600EF040000000000000015
:100F000000000000000000000000000000000000E1
:100F1000000000000000000000000000000043C1CD
:100F200000000000010F04000000000000000000AD
:100F300000000000000000000000000000000000B1
:100F40000000000000000000180080007BC100606D
:100F5000020001AF040000000000000000000000DB
:100F60000000000000000000000000000000000081
:100F70000000000000002000100003C100800040BD
:100F8000010F04000000000000000000000000004D
:100F90000001000000000000000000000000000050
:100FA00000000000300080003BC100400002408F84
:100FB000040000000000000000000000000000002D
:100FC0000000000000000000000000000000000021
:100FD00000003000100043C100C00002810F040077
:100FE0000000000000000000000000000000000001
:100FF00000000000000000000000000000000000F1
:101000000000180063C100000006018F040000000A
:1010100000000000000000000000000000000000D0
:1010200000000000000000000000000000000000C0
:10103000000003C100000000000F040000000000D9
:1010400000000000000000000000000000000000A0
:101050000000000000000000000000000000180078
:1010600033C10000026000CF040000000000000057
:101070000000000000000000000000000000000070
:10108000000000000000000000000000000003C19C
:1010900000000040000F04000000000000000000FD
:1010A0000000000000000000000000000000000040
:1010B00000000000000000000000001073C10000EC
:1010C000000040CF0400000000000000000000000D
:1010D0000000000000000000000000000000000010
:1010E0000000000000000000008043C1000000027A
:1010F000000F0400000000000000000000000000DD
:1011000000000000000000000010000000000000CF
:1011100000000000000000F02BC10000000040AF04
:1011200004000000000000000000000000000000BB
:1011300000000000000000000000000000000000AF
:101140000000000001E003C100000002010F0400E4
:10115000000000000000000000000000000000008F
:10116000000000000000000000000000000000007F
:10117000300058006BC100C0000001CF0400000027
:10118000000000000000000000000000000000005F
:10119000000000000000000000010000000020002E
:1011A000000003C100800000010F040000000000E7
:1011B000000000000000000000000000000000002F
:1011C000000000000000000000000000000000001F
:1011D000000000000000000000000000000000000F
:1011E00000000000000000000000000000000000FF
:1011F00000000000000000000000000000000000EF
:1012000000000000000000000000000000000000DE
:1012100000000000000000000000000000000000CE
:1012200000000000000000000000000000000000BE
:1012300000000000000000000000000000000000AE
:10124000000000000000000000000000000000009E
:10125000000000000000000000000000000000008E
:10126000000000000000000000000000000000007E
:10127000000000000000000000000000000000006E
:10128000000000000000000000000000000000005E
:10129000000000000000000000000000000000004E
:1012A000000000000000000000000000000000003E
:1012B000000000000000000000000000000000002E
:1012C000000000000000000000000000000000001E
:1012D000000000000000000000000000000000000E
:1012E00000000000000000000000000000000000FE
:1012F00000000000000000000000000000000000EE
:1013000000000000000000000000000000000000DD
:1013100000000000000000000000000000000000CD
:1013200000000000000000000000000100000000BC
:1013300000000000000000000000000000000000AD
:10134000000000000000000000000000000000009D
:10135000000000000000000000000000000000008D
:10136000000000000000000000000000000000007D
:10137000000000000000000000000000000000006D
:10138000000000000000000000000000000000005D
:10139000000000000000000000000000000000004D
:1013A000000000000000000000000000000000003D
:1013B000000000000000000000000000000000002D
:1013C000000000000000000000000000000000001D
:1013D000000000000000000000000000000000000D
:1013E00000000000000000000000000000000000FD
:1013F00000000000000000000000000000000000ED
:1014000000000000000000000000000000000000DC
:1014100000000000000000000000000000000000CC
:1014200000000000000000000000000000000000BC
:1014300000000000000000000000000000000000AC
:10144000000000000000000000000000000000009C
:10145000000000000000000000000000000000008C
:10146000000000000000000000000000000000007C
:10147000000000000000000000000000000000006C
:1014800000000000000000000000000000007200EA
:1014900090110101010000000000000000000000A8
:1014A00010000000000000400000000000010000EB
:1014B00000000040000200000000000008000000E2
:1014C00000000000000000000000000000002000FC
:1014D000000000000080000000000002000000008A
:1014E00000000000000000000000000000000800F4
:1014F00000000000000000000000000000000040AC
:1015000000000000000000000000000000000000DB
:1015100000010000000000000400000000000000C6
:1015200000000000000000000000000000000000BB
:1015300000000000000000000000000000000000AB
:10154000000000000000000000000000000000009B
:10155000000000000000000000000000000000008B
:101560000000000000000000000000000002000079
:101570000000000008000000100000000000000053
:10158000000000000000000000000000000000005B
:101590000000000000000000000000000000000C3F
:1015A000000000000000300000000000000000000B
:1015B00000000000000000800001000000000000AA
:1015C000000100000000000000000000000000001A
:1015D000000000000000000000000000000000000B
:1015E00000000000000000000000000000000002F9
:1015F00000000000000000000000000000000000EB
:1016000000000000000000000000000000000000DA
:1016100000000000000300000000000004000000C3
:101620000000000000000000080000000000302062
:1016300000000000000000000000000000000000AA
:101640000000000000000000000000000000070093
:101650000000000000000000000000000800000082
:10166000000000000000000000000000000000007A
:101670000000000000000000000000000000030067
:101680000000000000040000000000000000000056
:10169000000000000000000000000000000000004A
:1016A00000000000000000000080000001000002B7
:1016B000000000000000000000000000000000002A
:1016C000000000000000000000000000000000001A
:1016D00000010000000000000000000000000016F3
:1016E00000000000000000000000000000000000FA
:1016F00000000000000000000040000000000000AA
:101700000000000000400000000000010002000096
:1017100000000000000000000000000000000000C9
:101720000000000000000040000100000000000078
:1017300004000000000100000000001C0400000084
:101740000000000000000000000000000000000099
:101750000000000000000000000000000000000089
:1017600000800000000000020000000000000000F7
:101770000000000000000000000C3000000000002D
:101780000000000000000000000000000000000059
:101790000000000000000000000000000000000049
:1017A000000000000000000C3020000000000000DD
:1017B0000000000000000000000000000000000029
:1017C0000000000000000000000000000000000019
:1017D00000000000000C30000000000000000000CD
:1017E00000000000000000000000000000000000F9
:1017F00000000000000000000000000000000000E9
:101800000000000C3020000000000000000000007C
:1018100000000000000000000000000000000000C8
:1018200000000000000000000000000000000000B8
:10183000000C30000000000000000000000000006C
:101840000000000000000000000000000000000098
:101850000000000000000000000000000000000C7C
:101860003020000000000000000000000000000028
:101870000000000000000000000000000000000068
:10188000000000000000000000000000000C30001C
:101890000000000000000000000000000000000048
:1018A0000000000000000000000000000000000038
:1018B00000000000000000000000000C30200000CC
:1018C0000000000000000000000000000000000018
:1018D0000000000000000000000000000000000008
:1018E0000000000000000000000C300000000000BC
:1018F00000000000000000000000000000000000E8
:1019000000000000000000000000000000000000D7
:10191000000000000000000C30200000000000006B
:1019200000000000000000000000000000000000B7
:101930000000000000000000000010000000000097
:1019400000000000000C300000000000000000005B
:101950000000000000000000000000000000000087
:101960000000000000000000000000000000000077
:101970000000000C3020000000000000000000000B
:101980000000000000000000000000000000000057
:101990000000000000000000000000000000000047
:1019A000000C3000000000000000000000000000FB
:1019B0000000000000000000000000000000000027
:1019C0000000000000000000000000000000000C0B
:1019D00030200000000000000000000000000000B7
:1019E00000000000000000000000000000000000F7
:1019F000000000000000000000000000000C3000AB
:101A000000000000000000000000000000000000D6
:101A100000000000000000000000000000000000C6
:101A200000000000000000000000000C302000005A
:101A300000000000000000000000000000000000A6
:101A40000000000000000000000000000000000096
:101A50000000000000000000000C3000000000004A
:101A60000000000000000000000000000000000076
:101A70000000000000000000000000000000000066
:101A8000000000000000000C3020000000000000FA
:101A90000000000000000000000000000000000046
:101AA0000000000000000000000000000000000036
:101AB00000000000000C30000000000000000000EA
:101AC0000000000000000000000000000000000016
:101AD0000000000000000000000000000000000006
:101AE0000000000C3020000000000000000000009A
:101AF00000000000000000000000000000000000E6
:101B000000000000000000000000000000000000D5
:101B1000000C300000000000000000000000000089
:101B200000000000000000000000000000000000B5
:101B30000000000000000000000000000000000C99
:101B40003020000000000000000000000000000045
:101B50000000000000000000000000000000000085
:101B6000000000000000000000000000000C300039
:101B70000000000000000000000000000000000065
:101B80000000000000000000000000000000000055
:101B900000000000000000000000000C30200000E9
:101BA0000000000000000000000000000000000035
:101BB0000000000000000000000000000000000025
:101BC0000000000000000000000C300000000000D9
:101BD0000000000000000000000000000000000005
:101BE00000000000000000000000000000000000F5
:101BF000000000000000000C302000000000000089
:101C000000000000000000000000000000000000D4
:101C100000000000000000000000000000000000C4
:101C200000000000000C3000000000000000000078
:101C300000000000000000000000000000000000A4
:101C40000000000000000000000000000000000094
:101C50000000000C30200000000000000000000028
:101C60000000000000000000000000000000000074
:101C70000000000000000000000000000001000063
:101C8000000C300000000000000000000000000018
:101C90000000000000000000000000000000000044
:101CA0000000000000000000000000000000000C28
:101CB00030200000000000000000000000000000D4
:101CC0000000000000000000000000000000000014
:101CD000000000000000000000000000000C3000C8
:101CE00000000000000000000000000000000000F4
:101CF00000000000000000000000000000000000E4
:101D000000000000000000000000000C3020000077
:101D100000000000000000000000000000000000C3
:101D200000000000000000000000000000000000B3
:101D30000000000000000000000C30000000000067
:101D40000000000000000000000000000000000093
:101D50000000000000000000000000000000000083
:101D6000000000000000000C302000000000000017
:101D70000000000000000000000000000001400022
:101D80000000000000000000000000000000000053
:101D900000000000000C3000000000000000000007
:101DA0000000000000000000000000000000000033
:101DB0000000000000000000000000000000000023
:101DC0000000000C302000000000000000000000B7
:101DD0000000000000000000000000000000000003
:101DE00000000000000000000000000000000000F3
:101DF000000C3000000000000000000000000000A7
:101E000000000000000000000000000000000000D2
:101E10000000000000000000000000000000000CB6
:101E20003020000000000000000000000000000062
:101E300000000000000000000000000000000000A2
:101E4000000000000000000000000000000C300056
:101E50000000000000000000000000000000000082
:101E60000000000000000000000000000000000072
:101E700000000000000000000000000C3020000006
:101E80000000000000000000000000000000000052
:101E90000000000000000000000000000000000042
:101EA0000000000000000000000C300000000000F6
:101EB0000000000000000000000000000000000022
:101EC0000000000000000000000000000000000012
:101ED000000000000000000C3020000000000000A6
:101EE00000000000000000000000000000000000F2
:101EF00000000000010000000000000000000000E1
:101F000000000000000C3000000000000000000095
:101F100000000000000000000000000000000000C1
:101F200000000000000000000000000000000000B1
:101F30000000000C30200000000000000000000045
:101F40000000000000000000000000000000000091
:101F50000000000000000000000000000000000081
:101F6000000C300000000000000000000000000035
:101F70000000000000000000000000000000000061
:101F80000000000000000000000000000000000C45
:101F900030200000000000000000000000000000F1
:101FA0000000000000000000000000000000000031
:101FB000000000000000000000000000000C3000E5
:101FC0000000000000000000000000000000000011
:101FD0000000000000000000000000000000000001
:101FE00000000000000000000000000C3020000095
:101FF00000000000000000000000000000000000E1
:1020000000000000000000000000000000000000D0
:1020100000000000000000000000000000000000C0
:1020200000000000000000000000000000000000B0
:1020300000000000000000000000000000000000A0
:102040000000000000000000000000000000000090
:102050000000000000000000000000000000000080
:102060000000000000000000000000000000000070
:102070000000000000000000000000000000000060
:102080000000000000004000000000000000000010
:102090000000000000000000000000000000000040
:1020A0000000000000000000000000000000000030
:1020B0000000000000000000000000000000000020
:1020C0000000000000000000000000000000000010
:1029B0000004000000000000000000000000000013
:1029C0000000000000000000000000000000000007
:1029D00000000000000000000000000000000000F7
:1029E00000000000000000000000000000000000E7
:1029F00000000000000000000000000000000000D7
:102A000000000000000000000000000000000000C6
:102A100000000000000000000000000000000000B6
:102A200000000000000000000000000000000000A6
:102A30000000000000000000000000000000000096
:102A40000000000000000000000000000000000086
:102A50000000000000000000000000000000000076
:102A600000000000000000000000000000800000E6
:102A70000000000001000000000000000000000055
:102A80000000000000000000000000000000000046
:102A90000000000000000000000000000000000036
:102AA0000000000000000000000000000000000026
:102AB0000000000000000000000000000000000016
:102E40000000000000000200000000000000000080
:102E50000000000000000000000000000000000072
:102E60000000000000000000000000000000000062
:102E7000000000000000007200701102010100005B
:102E80000000000000000200000000000008000038
:102E90000000020000000000000800000000000028
:102EA0002000000000000080000000000000000082
:102EB0000000000001000000000000000000000011
:102EC00001000000000000000000000000001000F1
:102ED00000000000000000000000000000000000F2
:102EE00000000000000002000000000000080000D8
:102EF00000000000000000000000000000000000D2
:102F000000000000000000000000000000000000C1
:102F100000000000000000000000000000000000B1
:102F200000000000000000000000000000000000A1
:102F30000000000000000000000000000000000091
:102F40000000000000000000000000000000000081
:102F50000000000000000000000000000000000071
:102F60000000000000000000000000000000000061
:102F70000000000000000000000000000000000051
:102F80000000000000000000000000000000000041
:102F900000000000000000000000000088000100A8
:102FA000000002000000000000000000000000001F
:102FB0000000000000000000000000000000000011
:102FC0000000000000000000000000000000000001
:102FD00000000000000000000000000000000000F1
:102FE00000000000000000000000000000000000E1
:102FF0000000000000000000C00000000000010010
:1030000000000000000000000000000000000000C0
:1030100000000000000000000004000000000000AC
:1030200000000000000000000000000000000000A0
:103030000000000000000000000000000000000090
:10304000000000000000003C000000000000000044
:10305000000000000000000000020002400000002C
:1030600000000000000200038000000000000000DB
:103070000000003000000000000000000000000020
:1030800000000000000000020000400400000000FA
:1030900000000002000040040000000000000000EA
:1030A00000200000004000000000000000000000C0
:1030B0000000000000000000000000000000000010
:1030C0000000000000000000000000000000000000
:1030D00000000000000000000000000000000000F0
:1030E00002000000000000080000000000000000D6
:1030F00000000008000000000000000000000000C8
:1031000000800000000000000000000080000000BF
:1031100000000200000000000000000000000200AB
:10312000000000000000000000000000200000007F
:10313000000000000000000000000000000000008F
:103140000000000400000000000000000000000477
:1031500000000000000000000000000000401030EF
:10316000C00000000000000000000000000000009F
:10317000000000000000000000000000000000004F
:103180000000000000000000000000000030C0004F
:1031900000000000000000000000000000500000DF
:1031A000000000000000000000000000000000001F
:1031B000000000000000000000001030C00000000F
:1031C00000000000000000000000000000000000FF
:1031D00000000000000000000000000000000000EF
:1031E00000000000000000000030C00000000000EF
:1031F00000000000000000000000000000000000CF
:1032000000000000000000000000000000000000BE
:103210000000000000001030C000000000000000AE
:10322000000000000000000000000000000000009E
:10323000000000000000000000000000000000008E
:10324000000000000030C00000000000000000008E
:10325000000000000000000000000000000000006E
:10326000000000000000000000000000000000005E
:1032700000001030C000000000000000000000004E
:10328000000000001000000000000000000000002E
:10329000000000000000000000000000000000002E
:1032A0000030C0000000000000000000000000002E
:1032B000000090000000000000000000000000007E
:1032C0000000000000280000000000000000103096
:1032D000C0000000000000000000000000156000B9
:1032E00000000000000000000000000000000000DE
:1032F0000000000000000000000000000030C000DE
:10330000000000000000000000000028090000008C
:1033100000000000000000000000000000000000AD
:10332000000000000000000000001030C00000009D
:10333000000000000000000000000000000000008D
:10334000000000000000000000000000000000007D
:1033500000000000000000000030C000000000007D
:10336000000000000000000000000000000000005D
:10337000000000000000000000000000000000004D
:103380000000000000001030C0000000000000003D
:10339000000000000000000000000000000000002D
:1033A000000000000000000000000000000000001D
:1033B000000000000030C00000000000000000001D
:1033C00000000000000000000000000000000000FD
:1033D00000000000000000000000000000000000ED
:1033E00000001030C00000000000000000000000DD
:1033F00000000000000000000000000000000000CD
:1034000000000000000000000000000000000000BC
:103410000030C000000000000000000001000000BB
:10342000000000000000000000000000000000009C
:10343000000000000000000000000000000010304C
:10344000C0000000000000000000000000000000BC
:10345000000000000000000000000000000000006C
:103460000000000000000000000000000030C0006C
:10347000000000000000000000000000000000004C
:10348000000000000000000000000000000000003C
:10349000000000000000000000001030C00000002C
:1034A000000000000000000000000000000000001C
:1034B000000000000000000000000000000000000C
:1034C00000000000000000000030C000000000000C
:1034D00000000000000000000000000000000000EC
:1034E00000000000000000000000000000000000DC
:1034F0000000000000001030C000000000000000CC
:1035000000000000000000000000000000000000BB
:1035100000000000000000000000000000000000AB
:10352000000000000030C0000000000000000000AB
:10353000000000000000000000000000000000008B
:10354000000000000000000000000000000000007B
:1035500000001030C000000000000000000000006B
:10356000000000000000000000000000000000005B
:10357000000000000000000000000000000000004B
:103580000030C0000000000000000000000000004B
:10359000000000000000000000000000000000002B
:1035A00000000000000000000000000000001030DB
:1035B000C00000000000000000000000000000004B
:1035C00000000000000000000000000000000000FB
:1035D0000000000000000000000000000030C000FB
:1035E00000000000000000000000000000000000DB
:1035F00000000000000000000000000000000000CB
:10360000000000000000000000001030C0000000BA
:1036100000000000000000000000000000000000AA
:10362000000000000000000000000000000000009A
:1036300000000000000000000030C000000000009A
:10364000000000000000000000000000000000007A
:10365000000000000000000000000000000000006A
:103660000000000000001030C0000000000000005A
:10367000000000000000000000000000000000004A
:10368000000000000000000000000000000000003A
:10369000000000000030C00000000000000000003A
:1036A000000000000000000000000000000000001A
:1036B000000000000000000000000000000000000A
:1036C00000001030C00000000000000000000000FA
:1036D00000000000000000000000000000000000EA
:1036E00000000000000000000000000000000000DA
:1036F0000030C000000000000000000000000000DA
:1037000000000000000000000000000000000000B9
:103710000000000000000000000000000000103069
:10372000C0000000000000000000000000000000D9
:103730000000000000000000000000000000000089
:103740000000000000000000080000000030C00081
:103750000000000000000000000000000000000069
:103760000000000000000000000000000000000059
:10377000000000000000050000001030C000000044
:103780000000000000000000000000000000000039
:103790000000000000000000000000000000000029
:1037A00000000000000000180030C0000000000011
:1037B0000000000000800000000000000000000089
:1037C00000000000000000000000000000000000F9
:1037D0000000000000041030C000000000000000E5
:1037E00000000000000000000000000000000000D9
:1037F00000000000000000000000000000000000C9
:10380000058000000030C000000000000000000043
:1038100000000000000000000000000000000000A8
:103820000000000000000000000000000000000098
:1038300000001030C0000000000000000000000088
:103840000000000000000000000000000000000078
:103850000000000000000000000000000000000068
:103860000030C00000000000000000000000000068
:103870000000000000000000000000000000000048
:1038800000000000000000000000000000001030F8
:10389000C000000000000000000000000000000068
:1038A0000000000000000000000000000000000018
:1038B0000000000000000000038000000030C00095
:1038C00000000000000000000000000000000000F8
:1038D00000000000000000000000000000000000E8
:1038E000000000000000000000001030C0000000D8
:1038F00000000000000000000000000000000000C8
:1039000000000000000000000000000000000000B7
:103910000000B1B4801800000030C00000000000BA
:103920000000000000000000000000000000000097
:103930000000000000000000000000000000000087
:10394000B0CFD00000001030C00000000000000028
:103950000000000000000000000000000000000067
:103960000000000000000000000000000000000057
:10397000000002000030C000000000000000000055
:103980000000000000000000000000000000000037
:103990000000000000000000000000000000000027
:1039A00000001030C0000000000000000000000017
:1039B0000000000000000000000000000000000007
:1039C0000000000000000000000000000000000CEB
:1039D0000030C000000000000000000000000000F7
:1039E00000000000000000000000000000000000D7
:1039F00000000000000000000000000002040000C1
:103A000000000000000000000000000000000000B6
:103A100000000000000000000000000000000000A6
:103A20000000000000000000000000000000000096
:103A30000000000000000000000000000000000086
:103A40000000000000000000000000C000000000B6
:103A50000000000000000000000000000000000066
:103A60000000000000000000000000000000000056
:103A70000000000000000000001000000000000036
:103A80000000000000000000000000000000000036
:103A90000000000000000000000000000000000026
:103AA0000000000000000000000000000000000016
:103AB0000000000000000000000000000000000006
:103AC00000000000000000000000000000000000F6
:103AD00000000000000000000000000000000000E6
:103AE00000000000000000000000000000000000D6
:103AF00000000000000000000000000000000000C6
:103B000000000000000000000000000000000000B5
:103B100000000000000000000000000000000000A5
:103B20000000000000000000000000000000000095
:103B30000000000000000000000000000000000085
:103B40000000000000000000000000000000000075
:103B50000000000000000000000000000000040061
:103B60000000000000000000000000000000000055
:103B70000000000000000000000000000000000045
:103B80000000000000000000000000000000000035
:103B90000000000000000000000000000000000025
:103BA0000000000000000000000000000000000015
:103BB0000000000000000000000000000000000005
:103BC00000000000000000000000000000000000F5
:103BD00000000000000000000000000000000000E5
:103BE00000000000000000000000000000000000D5
:103BF00000000000000000000000000000000000C5
:103C000000000000000000000000000000000000B4
:103C100000000000000000000000000000000000A4
:103C20000000000000000000000000000000000094
:103C30000000000000000000000000000000000084
:103C40000000000000000000000000000000000074
:103C50000000000000000000000000000000000064
:103C60000000000000000000000000000000000054
:103C70000000000000000000000000000000000044
:103C80000000000000000000000000000000000034
:103C90000000000000000000000000000000000024
:103CA0000000000000000000000000000000000014
:103CB0000000000000000000000000000000000004
:103CC00000000000000000000000000000000000F4
:103CD00000000000000000000000000000200000C4
:103CE00000000000000000000000000000000000D4
:103CF00000000000000000000000000000000000C4
:103D000000000000000000000000000000000000B3
:103D100000000000000000000000000000000000A3
:103D20000000000000000000000000000000000093
:103D30000000000000000000000000000000000083
:103D40000000000000000000000000000000000073
:103D50000000000000000000000000000000000063
:103D60000000000000000000000000000000000053
:103D70000000000000000000000000000000000043
:103D80000000000000000000000000000000000033
:103D90000000000000000000000000000000000023
:103DA0000000000000000000000000000000000013
:103DB0000000000000000000000000000000000003
:103DC00000000040000000000000000000000000B3
:103DD00000000000000000000000000000000000E3
:103DE00000000000000000000000000000000000D3
:103DF0000080000000000000000000000000000043
:103E000000000000000000000000000000000000B2
:103E100000000000000000000000000000000000A2
:103E20000000000000000000000000000000000092
:103E30000000000000000000000000000000000082
:1042A00072009011030101000000000000000002F4
:1042B00000000000000008000000000200000000F4
:1042C00000000000000004000020000000000000CA
:1042D000800000000000000000000000000100005D
:1042E00000000000040000000001000000000000C9
:1042F00000000000000000100000000000000000AE
:1043000000000000000000000000000000000000AD
:10431000000000000000000000000000000000009D
:104320000340080000000000000000000000000042
:10433000000000000000000000000000000000007D
:10434000000000000000000000000000000000402D
:10435000000000000000000000000000000000005D
:10436000000000000000000000000000000000004D
:104370000000000000000000000003000000040036
:10438000000000000000000000000000000000002D
:10439000000000000000000000000000000000001D
:1043A000000000000000000002000000000000000B
:1043B00000000000000000000000000000000000FD
:1043C00000000000000000000000000000000000ED
:1043D00000000000000000000000000000000000DD
:1043E00000000000000000000000000000000000CD
:1043F00000000000000000000000000000000000BD
:1044000000000000000000000000000000000000AC
:10441000000000000000000000000000000000009C
:10442000000000000000000000000000000000008C
:10443000000000010000000000000000000000007B
:10444000000000000000000000000000000000006C
:10445000000000000000000000000000000000005C
:1044600000000380000000000000000000000000C9
:10447000000000000000000000000000000000003C
:104480000000000000000000000000000000030029
:1044900000000000000000000000000030000000EC
:1044A000000000000000000000000000000000000C
:1044B00000000000000000000000000002000000FA
:1044C00004000000000000000000000000004000A8
:1044D00000000000000000000000000000000000DC
:1044E00000000000000000000000000000000000CC
:1044F00000000000000000000000040000000000B8
:1045000000000000000000000000000000000000AB
:104510000000000000000000000000000800000093
:1045200000000000000000002C00800000000000DF
:10453000000000000000000000000000000000007B
:104540000000000000000002000000000000000069
:10455000000000000020000000000000000000003B
:10456000000000000000000000000000000000004B
:104570000000000000000000040000000000000037
:10458000000000000000400030C0000000000000FB
:10459000000000000000000000000000000000001B
:1045A000000000000000000000000000000000000B
:1045B00000000000001030C00000000000000000FB
:1045C00000000000000000000000000000000000EB
:1045D00000000000000000000000000000000000DB
:1045E0000000000030C000000000000000000000DB
:1045F00000000000000000000000000000000000BB
:1046000000000000000000000000000000000000AA
:10461000001030C00000000000000000000000009A
:10462000000000000000000000000000000000008A
:10463000000000000000000000000000000000007A
:1046400030C000000000000000000000000000007A
:10465000000000000000000000000000000000005A
:10466000000000000000000000000000001030C04A
:10467000000000000000000000000000000000003A
:10468000000000000000000000000000000000002A
:1046900000000000000000000000000030C000002A
:1046A000000000000000000000000000000000000A
:1046B00000000000000000000000000000000000FA
:1046C0000000000000000000001030C000000000EA
:1046D00000000000000000000000000000000000DA
:1046E00000000000000000000000000000000000CA
:1046F000000000000000000030C0000000000000CA
:1047000000000000000000000000000000000000A9
:104710000000000000000000000000000000000099
:1047200000000000001030C0000000000000000089
:104730000000000000000000000000000000000079
:104740000000000000000000000000000000000069
:104750000000000030C00000000000000000000069
:104760000000000000000000000000000000000049
:104770000000000000000000000000000000000039
:10478000001030C000000000000000000000000029
:104790000000000000000000000000000000000019
:1047A0000000000000000000000000000000000009
:1047B00030C0000000000000000000000000000009
:1047C00000000000000000000000000000000000E9
:1047D000000000000000000000000000001030C0D9
:1047E00000000000000000000000000000000000C9
:1047F00000000000000000000000000000000000B9
:1048000000000000000000000000000030C00000B8
:104810000000000000000000000000000000000098
:104820000000000000000000000000000000000088
:104830000000000000000000001030C00000000078
:104840000000000000000000000000000000000068
:104850000000000000000000000000000000000058
:10486000000000000000000030C000000000000058
:104870000000000000000000000000000000000038
:104880000000000000000000000000000000000028
:1048900000000000001030C0000000000000000018
:1048A0000000000000000000000000000000000008
:1048B00000000000000000000000000000000000F8
:1048C0000000000030C000000000000000000000F8
:1048D00000000000000000000000000000000000D8
:1048E00000000000000000000000000000000000C8
:1048F000001030C0000000000000000000000000B8
:1049000000000000000000000000000000000000A7
:104910000000000000000000000000000000000097
:1049200030C0000000000000000000000000000097
:104930000000000000000000000000000000000077
:10494000000000000000000000000000001030C067
:104950000000000000000000000000000000000057
:104960000000000000000000000000000000000047
:1049700000000000000000000000000030C0000047
:104980000000000000000000000000000000000027
:104990000000000000000000000000000000000017
:1049A0000000000000000000001030C00000000007
:1049B00000000000000000000000000000000000F7
:1049C00000000000000000000000000000000000E7
:1049D000000000000000000030C0000000000000E7
:1049E00000000000000000000000000000000000C7
:1049F00000000000000000000000000000000000B7
:104A000000000000001030C00000000000000000A6
:104A10000000000000000000000000000000000096
:104A20000000000000000000000000000000000086
:104A30000000000030C00000000000000000000086
:104A40000000000000000000000000000000000066
:104A50000000000000000000000000000000000056
:104A6000001030C000000000000000000000000046
:104A70000000000000000000000000000000000036
:104A80000000000000000000000000000000000026
:104A900030C0000000000000000000000000000026
:104AA0000000000000000000000000000000000006
:104AB000000000000000000000000000001030C0F6
:104AC00000000000000000000000000000000000E6
:104AD00000000000000000000000000000000000D6
:104AE00000000000000000000000000030C00000D6
:104AF00000000000000000000000000000000000B6
:104B000000000000000000000000000000000000A5
:104B10000000000000000000001030C00000000095
:104B20000000000000000000000000000000000085
:104B30000000000000000000000000000000000075
:104B4000000000000000000030C000000000000075
:104B50000000000000000000000000000000000055
:104B60000000000000000000000000000000000045
:104B700000000000001030C0000000000000000035
:104B80000000000000000000000000000000000025
:104B90000000000A0000000000000000000000000B
:104BA0000000000030C00000000000000000000015
:104BB00000000000000000000000000000000000F5
:104BC00000000000000000000000000000000000E5
:104BD000001030C0000000000000000000000000D5
:104BE00000000000000000000000000000000000C5
:104BF00000000000000000000000000000000000B5
:104C000030C00000000000000000000000000000B4
:104C10000000000000000000000000000000000094
:104C2000000000000000000000000000001030C084
:104C30000000000000000000000000000000000074
:104C40000000000000000000000000000000000064
:104C500000000000000000000000000030C0000064
:104C60000000000000000000000000000000000044
:104C70000000000000000000000000000000000034
:104C80000000000000000000001030C00000000024
:104C90000000000000000000000000000000000014
:104CA0000000000000000000000000000000000004
:104CB000000000000000000030C000000000000004
:104CC00000000000000000000000000000000000E4
:104CD00000000000000000000000000000000000D4
:104CE00000000000001030C00000000000000000C4
:104CF00000000000000000000000000000000000B4
:104D000000000000000000000000000000000000A3
:104D10000000000030C000000000000000000000A3
:104D20000000000000000000000000000000000083
:104D30000000000000000000000000000000000073
:104D4000001030C000000000000000000000000063
:104D50000000000000000000000000000000000053
:104D60000000000000000000000000000000000043
:104D700030C0000000000000000000000000000043
:104D800000000000000000000000000000008000A3
:104D9000000000000000000000000000001030C013
:104DA0000000000000000000000000000000000003
:104DB00000000000000000000000000000000000F3
:104DC00000000000000000000000000030C00000F3
:104DD00000000000000000000000000000000000D3
:104DE00000000000000000000000000000000000C3
:104DF0000000000000000000001030C000000000B3
:104E000000000000000000000000000000000000A2
:104E10000000000000000000000000000000000092
:104E20000000000000000000000000000000000082
:104E30000000000000000000000000000000000072
:105850000000000000000800000000000000000040
:105860000000000000000000000000000000000038
:105870000000000000000000000000000000000028
:105880000000000010000000000000000000000008
:105890000000000000000000000000000000000008
:1058A00000000000000000000000000000000000F8
:1058B00000000000000000000000000000000000E8
:1058C00000000000000000000000000000000000D8
:1058D00000000000000000000000000000000000C8
:1058E00000000000000000000000000000000000B8
:1058F00000000000000000000000000000000000A8
:105900000000000000000000000000000001800016
:105910000000000000000000000000000000000087
:105920000000000000000000000000000000000077
:105930000000000000000000000000000000000067
:105940000000000000000000000000000000000057
:105C800000000000000000000072008011006200AF
:105C90002F8200000103000000000000000000004F
:105CA00000000000000000000000000000000000F4
:105CB00000000000000000000000000000000000E4
:105CC00000000000000000000000000000000000D4
:105CD00000000000000000000000000000000000C4
:105F900000000000000000008200800103000000FB
:105FA00000000000000000000000000000000000F1
:105FB00000000000000000000000000000000000E1
:105FC00000000000000000000000000000000000D1
:105FD00000000000000000000000000000000000C1
:1062900000000000000000000000000000000011ED
:1062A0000162003F820000010300000000000000C6
:1062B00000000000000000000000000000000000DE
:1062C00000000000000000000000000000000000CE
:1062D00000000000000000000000000000000000BE
:1062E00000000000000000000000000000000000AE
:1066A00000000000000000000000008200800103E4
:1066B00000000000000000000000000000000000DA
:1066C00000000000000000000000000000000000CA
:1066D00000000000000000000000000000000000BA
:1066E00000000000000000000000000000000000AA
:106AB0000000110262002F820000010300000000AC
:106AC00000000000000000000000000000000000C6
:106AD00000000000000000000000000000000000B6
:106AE00000000000000000000000000000000000A6
:106AF0000000000000000000000000000000000096
:106DB0000000000000000000000000000000820051
:106DC000800103000000000000000000000000003F
:106DD00000000000000000000000000000000000B3
:106DE00000000000000000000000000000000000A3
:106DF0000000000000000000000000000000000093
:106E00000000000000000000000000000000000082
:1070C0000000000000110362003F82000001030085
:1070D00000000000000000000000000000000000B0
:1070E00000000000000000000000000000000000A0
:1070F0000000000000000000000000000000000090
:10710000000000000000000000000000000000007F
:1074D00000820080010300000000000000000000A6
:1074E000000000000000000000000000000000009C
:1074F000000000000000000000000000000000008C
:10750000000000000000000000000000000000007B
:10751000000000000000000000000000000000006B
:0E78D0000000000000000000225F5E010600C4
:00000001FF
