:10000000FF004C6174746963650069434563756200
:10001000653220323031342E31322E3237303532A3
:1000200000506172743A20694345354C50344B2D71
:10003000535747333600446174653A204A756C2043
:10004000313620323031352031353A35353A00FFFE
:100050003038007EAA997E5100010592002062028C
:10006000B37200B082000011000101000000000026
:100070000000000000001000000000000040000030
:10008000000000010000000000000400000000006B
:100090000010000040050000001000C0000000003B
:1000A0004008000000000000000001000000000007
:1000B0000004000000000000100000400380000069
:1000C000000000000000000000000000020000002E
:1000D00000000008000000000000200000000000F8
:1000E0000080000000000002000000005800000036
:1000F000000200000000000090000000000000006E
:10010000002000000000000080000000000002004D
:100110000000005800000000000000000000000087
:1001200000000000000000000000000000000000CF
:1001300000000000000000000000000000000000BF
:1001400000400000000010024000000000400000DD
:100150000000000000000006000000000000000099
:10016000000000000000000040000000000000004F
:10017000000000000000000000000000000000007F
:10018000000000000000000000000000000000006F
:10019000000000000000000000000000000020003F
:1001A00000000000000000000000000000008000CF
:1001B000000000000000000000000000000000003F
:1001C000000000000000000000000000000000002F
:1001D000000000000000000000000000000000001F
:1001E000000000000000000000000000000080008F
:1001F00000010020000002C0000080018005000016
:1002000000000000000000000000000000000000EE
:10021000000000000080000000000000000000005E
:1002200000000000000000000000000000000000CE
:1002300000000000000000000000000000000000BE
:100240000000000000000000F000000000140000AA
:1002500000000800F00000000000000000000000A6
:10026000000000000000000000000000000000503E
:10027000000000000000000000000000000000007E
:10028000000000000000000000000000000000006E
:100290000000000000000000000000000700000057
:1002A000000000000000000000000000000000004E
:1002B000000000000000000000000000000000003E
:1002C000000000000000000000000000000000002E
:1002D000000000000000000000000000000000001E
:1002E000000000000000000000000000000000000E
:1002F00000000000000000000000000000000000FE
:1003000000000000000000000000000000000000ED
:1003100000000000000000000000000000000000DD
:1003200000000000000000000000000000000000CD
:1003300000000000000000000000000000000000BD
:1003400000000000000000000005020000000000A6
:100350008000000000070200000000000000000014
:10036000000000000000000000000000000000008D
:1003700005820000000000000000000000000000F6
:10038000000000000000000000000000000000006D
:10039000000000000000000000000000000000005D
:1003A000000000000000000000000000000000004D
:1003B000000000000000000000000000000000003D
:1003C000000000000000000000000000000000002D
:1003D000000000000000000000000000000000001D
:1003E000000000000000000000000000000000000D
:1003F00000000000000000000F8000014001C0006C
:10040000000000000D0000000000000000000000DF
:100410000000000000000000000000000000000FCD
:10042000400000000000000000000000000000008C
:1004300000000000000000000000000000000000BC
:10044000000000000000000000000004000000F4B4
:10045000010000000C000004000000C000000000CB
:10046000000000000000000000000000000000008C
:10047000000004000000FC0000000000000000007C
:10048000000000000000000000000000000000006C
:10049000000000000000000000000000000000005C
:1004A0000000000800000000000000000000000044
:1004B000000000000000000000000000000000003C
:1004C000000000000000000000000000000000002C
:1004D000000000000000000000000000000000001C
:1004E000000000000000000000000000000000000C
:1004F00000000000000000000400300000010000C7
:1005000000000000040000000000000000000000E7
:1005100000000000000000000000000000000004D7
:1005200000000000000000000000000000000000CB
:1005300000000000000000000000000000000000BB
:1005400000000000000000000000000000000000AB
:100550000001000000002040000000000301000036
:10056000000000000000000000000000000000008B
:100570000000000000000009010000000000000071
:10058000000000000000000000000000000000006B
:10059000000000000000000000000000000000005B
:1005A000000000000008000000000200060000003B
:1005B0000008000000000000000000000000000033
:1005C0000000000000000000000000000800B00073
:1005D000000000000000000C3020000000000000BF
:1005E000000000000000000000000000000000000B
:1005F00000000000000000000000000000000000FB
:1006000000000000000000000000000000000000EA
:1006100000000000000000000000000000000000DA
:1006200000000000000000FF400000000000C300C8
:1006300000000000000000000000000000000000BA
:1006400000000000000000000000000000000000AA
:100650000000000800000000000000000000000092
:10066000000000000000000000000000000000008A
:10067000000000000000000000000000000FF0007B
:10068000000000000C30200000000000000000000E
:10069000000000000000000000000000000000005A
:1006A00000000000000000000000000000028000C8
:1006B00000003FD00A000000000000000000000021
:1006C0000000000000000000000000000000000B1F
:1006D0000000000000000000000000C30000000057
:1006E000000000000000000000000000000000000A
:1006F00000000000000000000000000000000000FA
:10070000000000000800000003FC00A00000000042
:1007100000002800000000000000000000000000B1
:10072000000000000000A000000000000000000029
:10073000000C30200000000000000000000000005D
:1007400000000000000000000000000000000000A9
:100750000000000000000000000000000000000099
:100760000000000000000000000000000000000089
:100770000000000000000000000000000000140065
:100780000000000000000000C300000000000000A6
:100790000000000000000000000000000000000059
:1007A0000000000000000000000000000000000049
:1007B0000000000000000000000000000000000039
:1007C0000000000000000000000000000000000029
:1007D00000000000002000000000000000000C30BD
:1007E00020000000000000000000000000000000E9
:1007F00000000000000000000000000000000000F9
:10080000000000000000000000000C0000000000DC
:10081000000000FF40002004000000000000000075
:10082000000000000000000000000000020A5F005D
:100830000000000000C300000000000000000000F5
:1008400000000000000000000000000000000000A8
:100850000000000000000000000000000000000098
:100860000000000000000000000FF0000000000089
:100870000000000000000000000000000000000078
:100880000000001C0AF000000000000C30200000F6
:100890000000000000000000000000000000000058
:1008A0000000000000000000000000000000000048
:1008B000000000000000000183BE80000000000076
:1008C000FF400000000000000000000000000000E9
:1008D0000000000000000000000000000000000018
:1008E0000000C30000000000000000000000000045
:1008F00000000000000000000000000000000000F8
:1009000000000000000000000000000000F0CD43E7
:10091000D400000000000FF0000000000000000004
:1009200000000000000000000000000000000000C7
:1009300000000000000000000C302000000000005B
:1009400000000000000000000000000000000000A7
:100950000000000000000000000000000000000097
:1009600000000000000000000000000000FF600028
:100970000000000000000000000000000000000077
:10098000000000000000000000000000000000C3A4
:100990000000000000000000000000000000000057
:1009A0000000000000000000000000000000000047
:1009B0000000000000000000000000000000000037
:1009C0000000000FF0000000000000000000000028
:1009D0000000000000000000000000000000000017
:1009E00000000000000C30200000000000000000AB
:1009F00000000000000000000000000000000000F7
:100A000000000000000000000000000000000000E6
:100A10000000003FD000001E0000FF40000000006A
:100A200000000010000000000000000000000000B6
:100A300000001E000000000000000000C3000000D5
:100A400000000000000000000000000000000000A6
:100A50000000000000000000000000000000000096
:100A600000000000000000008003FC0000002000E7
:100A70000FF0000000000000000000000000000077
:100A80000000000000000000002000000000000046
:100A900000000C30200000000000000000000000FA
:100AA0000000000000000000000000000000000046
:100AB0000000000000000000000000000000000333
:100AC0002BC000000000000000000000000000003B
:100AD00000000000000000000000000000000020F6
:100AE000000000000000000000C300000000000043
:100AF00000000000000000000000000000000000F6
:100B000000000000000000000000000000000000E5
:100B100000000000000F417C000000000000000009
:100B200000000000000000000000000000000000C5
:100B30000000000000034000000000000000000C66
:100B40003020000000000000000000000000000055
:100B50000000000000000000000000000000000095
:100B60000000000000000000000000000000000085
:100B70000000000000000000000000000000000075
:100B8000000000000000000000000001000000FF65
:100B9000208000000000C3000000000000000000F2
:100BA0000000000000000000000000000000000045
:100BB0000000000000000000000000000000000035
:100BC000000000000000000003C000000000000062
:100BD0000000000000000000000000000000000015
:100BE00000000000000FF000000000000C302000AA
:100BF00000000000000000000000000000000000F5
:100C000000000000000000000000000000000000E4
:100C100000000000000000000000000000000000D4
:100C200000000000000000000000000000000000C4
:100C3000002A80000000000200800000C342000083
:100C4000000000C3000000000000000000000000E1
:100C50000000000000000000000000000000000094
:100C60000000000000000000000000000030000054
:100C70000000000000000000000000000000000074
:100C800000000000000000010000000000008010D3
:100C900000000C3080000000000C3020000000003C
:100CA0000000000000000000000000000000000044
:100CB0000000000000000000000000000000000034
:100CC0000000000000000000000000000000000024
:100CD0000000000000000000000000000000000014
:100CE0000000000000000000000000000000000004
:100CF000C300000000000000000000000000000031
:100D000000000000000000000000000000000000E3
:100D100000000000000800000000000000000000CB
:100D200000000000000000000000000000000000C3
:100D300000000000000000000000000002C00000F1
:100D40000000000000000C30200000000000000047
:100D50000000000000000000000000000000000093
:100D60000000000000000000000000000000000083
:100D70000000000000000000000000000000000073
:100D8000000000000008000000000000000000005B
:100D900000020000001CAF010000000000C30000C2
:100DA0000000000000000000000000000000000043
:100DB0000000000000000000000000000000000033
:100DC0000000000000000000000000000000000023
:100DD0000000000000000000000000010000000012
:100DE00000000000000000000000001505F00000F9
:100DF0000000000C30200000000000000000000097
:100E000000000000000000000000000000000000E2
:100E100000000000000000000000000000000000D2
:100E200000000000000000000000000000000000C2
:100E300000000000000000000000000000000000B2
:100E40000E014CAF200000000000C30000000000B5
:100E50000000000000000000000000000000000092
:100E60000000000000000000000000000000000082
:100E70000000000000000000000000A000000000D2
:100E80000000000000000000000000000000000062
:100E90000000000000000020000AF0000000000038
:100EA0000C302000000000000000000000000000E6
:100EB0000000000000000000000000000000000032
:100EC0000000000000000000000000000000000022
:100ED0000000000008AF000000000000000000005B
:100EE00000000000000000000000000000000400FE
:100EF00000000000000000C300000000000000002F
:100F000000000000000000000000000000000000E1
:100F100000000000000000000000000000000000D1
:100F2000000000000000000000001D05F08000002F
:100F300000000000000001000000000000000000B0
:100F4000000000000300000000000000000C302042
:100F50000000000000000000000000000000000091
:100F60000000000000000000000000000000000081
:100F70000000000000000000000000000000000071
:100F80000000000000000000000000000000000061
:100F90000000000000000000000000000000000051
:100FA00000000000C300000000000000000000007E
:100FB0000000000000000000000000000000000031
:100FC0000000000000000000000000000000000021
:100FD000000000000002C00000000000000000004F
:100FE0000000000000000000000000000000000001
:100FF000000000000000000000000C302000000095
:1010000000000000000000000000000000000000E0
:1010100000000000000000000000000000000000D0
:1010200000000000000000000000000000000000C0
:1010300000000000000000000000000000000000B0
:1010400000000000000000000000000000000000A0
:1010500000C30000000000000000000000000000CD
:101060000000000000000000000000000000000080
:101070000000000000000000000000000000000070
:101080000000000000000000000000000000000060
:101090000000000000000000000000000000000050
:1010A000000000000000000C3020000000000000E4
:1010B0000000000000000000000000000000000030
:1010C00000000000000000000000000000200600FA
:1010D000000000000000000200000000000000000E
:1010E00000000000000000C027B6E0000000000083
:1010F0000000010000000000000000000000C3002C
:1011000000000000000000000000000000000000DF
:1011100000000000000000000000000000000000CF
:101120000000010342F40000020000000000000083
:10113000000000000000000900000000000001FAAB
:101140001C00000000000000001000000000000073
:10115000000000000C302000000000000000000033
:10116000000000000000000000000000000000007F
:1011700000000000000000000200007800000000F5
:101180000000000000000000000000080000000057
:101190000000200003A1E5F4008000000000000230
:1011A0000020027CA5000000000000C30000000039
:1011B000000000000000000000000000000000002F
:1011C000000000000000000000000000000000809F
:1011D00000042C00000000000000000000000000DF
:1011E00000020000000000000800007D50AF002059
:1011F0000000000000009001C00D0550000000003C
:10120000000C302000000000000000000000000082
:1012100000000000000000000000000000000000CE
:101220000000000000000000380000400000000046
:10123000000004000000000010000000000000009A
:1012400008000000000100000E736AD004000030A6
:10125000FE8F528000000000C3000000000000006C
:10126000000000000000000000000000000000007E
:101270000000000000000000000000000000043436
:10128000000000000000000000000000000001005D
:1012900000000000000001400000000030000007D6
:1012A000BC2C40C000001F045C00000000000C309B
:1012B000200000000000000000000000000000000E
:1012C000000000000000000000000000000000001E
:1012D00000000000206A0000000000000000000084
:1012E0000000000000000080000000000400E02179
:1012F000EA010000004000000000000000000000C3
:101300000000000000C3000000000000000000001A
:1013100000000000000000000000000000000000CD
:101320000000000000000000000003442400000052
:1013300000000000000000000000000000070000A6
:10134000000000A02E2150500040000000000000CE
:1013500000000000000000000000000C3020000031
:10136000000000000000000000000000000000007D
:10137000000000000000000000000000000000006D
:1013800000006800000000000000000000000000F5
:101390000000000000006BC10004086000CFC430F2
:1013A0002807800000000006000000000000000088
:1013B0000000C3000000000000000000000000006A
:1013C000000000000000000000000000000000001D
:1013D00000000000000000000424000000000000E5
:1013E000000000000000000000000000003C34008D
:1013F00000400000FC0000000000000000000000B1
:1014000000000000000000000C3020000000000080
:1014100000000000000000000000000000000000CC
:1014200000000000000000000000000000000002BA
:1014300000000000000000000000000000000000AC
:10144000000000000000000000000000000000009C
:1014500000000000041C380000000000000000C371
:10146000000000000000000000000000000000007C
:10147000000000000000000000000000000000006C
:101480000000000002401400000000000000000006
:10149000000000000000000000000000000000004C
:1014A00000000000000000000000000023C0000059
:1014B00000000000000C30200000000000000000D0
:1014C000000000000000000000000000000000001C
:1014D000000000000000000000000000000000000C
:1014E00000000000000000000000000000000000FC
:1014F0000000000000C000000000000581000000A6
:10150000000004000000000000000000C300000014
:1015100000000000000000000000000000000000CB
:1015200000000000000000000000000000000000BB
:1015300000000004000000000000000000000000A7
:10154000000000000000000000000000000000009B
:10155000000000C0000000000000000000000000CB
:1015600000000C302000000000000000000000001F
:10157000000000000000000000000000000000006B
:101580000000000000000C014002000000500000BC
:101590000000000001000000001018000000000022
:1015A0000000C39D8A5000000008000000040000F5
:1015B000000000000000000000C300000000000068
:1015C000000000000000000000000000000000001B
:1015D0000000000000000000000000000040084083
:1015E0001C000002000000000000000000000000DD
:1015F0000000000000000000004050550000000105
:101600000000000000000280000000000000000C4C
:10161000302000000000000000000000000000007A
:1016200000000000000000000000000000000000BA
:1016300000000001000000000400000087ABC02093
:101640000000000000000000001DAE35000A00C0D0
:1016500000000000000000063C1800000000000030
:10166000000000000000C3000000000000000000B7
:10167000000000000000000000000000000000006A
:10168000000000000000000000001000000000004A
:10169000000001417C000000000000000000000F7D
:1016A000DBE38000000000000000000500F003C341
:1016B0000000000000000000000000000C302000CE
:1016C000000000000000000000000000000000001A
:1016D000000000000000000000000000000000000A
:1016E00000000000000400000000000000000000F6
:1016F0000000000800000000000020000001AF040E
:101700000880078000000002003E0000000000008A
:10171000000000C300000000000000000000000006
:1017200000000000000000000000000000000000B9
:101730000000000000000000000000000000900019
:101740000000004000000000000200000000000057
:101750000800000000F0C120000800000000800226
:101760006000000000000000000C302000000000BD
:101770000000000000000000000000000000000069
:10178000000000000000000000000000000C00004D
:101790000000040000000000000000000000000045
:1017A00010008000000000C0000040000001008028
:1017B00000000000040020795F8D50000000000050
:1017C000C300000000000000000000000000000056
:1017D0000000000000000000000000000000000009
:1017E00000000000C0000000000000000000000039
:1017F000000000000000010009000000000C0014BF
:101800003C00000010000000000000C002442CA8B2
:10181000EC00000000000C30200000000000000080
:1018200000000000000000000000000000000000B8
:101830000000000000000000000000004000000464
:10184000000800000000000000000000000000018F
:10185000900000000001E280000000800000000015
:101860000000001E000000000000000000C3000097
:101870000000000000000000000000000000000068
:101880000000000000000000000000000000000058
:101890000000080000000000D00000000000000070
:1018A0000000000000001B0000000001020000001A
:1018B0000000000000000000000020000000000008
:1018C0000000000C302000000000000000000000BC
:1018D0000000000000000000000000000000000008
:1018E00000000000000000001000000004000000E4
:1018F00086ABC80000000000000002C0000000002D
:101900000001000000AF061004000003BC1040B04E
:1019100020000000000000000000C30000000000E4
:1019200000000000000000000000000000000000B7
:1019300000000000000000000000000000000000A7
:1019400000000002000001017C0000000000000017
:10195000001400000000000010003010F0C000C1B2
:10196000000003C3020D0143C0000000000000009E
:101970000C3020000000000000000000000000000B
:101980000000000000000000000000000000000057
:101990000000000000000000000400000000000043
:1019A0000000000000000000000000000000000037
:1019B0000000000000280000000000000E1602D900
:1019C0008D480000000000C300000000000000007F
:1019D0000000000000000000000000000000000007
:1019E00000000000000000000000000000000000F7
:1019F00000000000000000000000000000000000E7
:101A000000000000000001000000000100000000D4
:101A100000000000000C88EC10000000000C3020DA
:101A200000000000000000000000000000000000B6
:101A300000000000000000000000000000000000A6
:101A40000000000078000408000000000000000012
:101A50000000000000000000000000000007A4A833
:101A6000D41000080000000000000000000000008A
:101A700000000000C30000000000000000000000A3
:101A80000000000000000000000000004000000016
:101A90000000000000000000000000000000000046
:101AA0000000000000000000000000000000000036
:101AB00000008000434D8EE0000030000000000078
:101AC000000000000000000000000C3020000000BA
:101AD0000000000000000000000000000000000006
:101AE00000000000000000000000000000000000F6
:101AF00000000004000000000000000000000000E2
:101B00000000000080000000400000000000010014
:101B100000000000000400000000000000000000C1
:101B200000C30000000000000000000000000000F2
:101B300000000000000000000000000000000000A5
:101B400000000000000000000000800000E0000035
:101B50000000000000000000000000000000000085
:101B60000000000000000000000000000001400034
:101B70000000000000000000000000000000000065
:101B80000000000000000000000000000000000055
:101B90000000000000000000000000000000000045
:101BA0000000000000000001000004000000000030
:101BB00000000000000000000000000000500000D5
:101BC0000000000000037EA50000000000000000EF
:101BD0000000000000000000000000000000000005
:101BE00000000000000000000000000000000000F5
:101BF00000000000000000000000000000000000E5
:101C00000280000000000000000000000040000012
:101C10000000000000000000000000001C05500053
:101C200000000000000000000000000000000000B4
:101C300000000000000000000000000000000000A4
:101C40000000000000000000000040000000000153
:101C50000000000002000000000000000000000082
:101C600000002000000000000080000000000000D4
:101C70004000000000000000000000000000000024
:101C80000000000000000000000000000000000054
:101C90000000000000000000000000000000000044
:101CA00008000000000000000000008000000000AC
:101CB00000000000000000000800000000000020FC
:101CC000000000000000080000000000000000000C
:101CD0000000000000000000000000000000000004
:101CE00000000000000000000000000000000000F4
:101CF00000000000000000000000000000001FC104
:101D0000482400210000000000000007BE9400509D
:101D10002803800000030200000000000000000013
:101D200000000000000000000000000000000000B3
:101D300000000000000000000000000000000000A3
:101D40000000000000000000000000000000000093
:101D50000000000003381084400240000000000032
:101D60000000FFBC001C01404000000030000000EB
:101D70000000000000000000000000000000000063
:101D80000000000000000000000000000000000053
:101D90000000000000000000000000000000000043
:101DA0000000000000000000000000000000000033
:101DB0000C000000000038000000000000000000DF
:101DC00000000000000000000000016000000000B2
:101DD0000000000000000000000000000000000003
:101DE00000000000000000000000000000000000F3
:101DF00000000000000000000000000000000000E3
:101E000000000000000000000000000000000000D2
:101E100000000000000000000000000000000000C2
:101E20000009C000000000000000000000000000E9
:101E300000000000000000000000000000000000A2
:101E40000000010000000000000000000000000091
:101E5000100000000304000000000000100000005B
:101E600000000040000000000001400000000000F1
:101E7000140000000000001000000000000000003E
:101E80000000000000000000000000000000000052
:101E90000000000000000000001000000000000032
:101EA0000000000000000000000000204050000082
:101EB000000001000000000000040000000000001D
:101EC000103C000000000040000000000001000085
:101ED0000000000000000000000000000000000002
:101EE00000000000000000000000000000000000F2
:101EF00000000000000000000000000000000000E2
:101F000000000400000000000010000000000000BD
:101F100000000000000000000000CF0408040000E2
:101F200003BC1020000000000000000000000000C2
:101F300000000000000000000000000000000000A1
:101F40000000000000000000000000000000000091
:101F50000000000000000000000000000000000081
:101F60000000000000000000000000000000000071
:101F700000F0400000000003C1000000000000006D
:101F80000000000000000000000000000000000051
:101F90000000000000000000000000000100000040
:101FA000000000000000000000000000000000042D
:101FB0000000000000000000000AF0400040008027
:101FC00000000008000000000000100108000000F0
:101FD0000000000000000000000000000000000001
:101FE00000000000000000000000000000000000F1
:101FF00000000000000000000000000000000000E1
:1020000000000000000000000000000000000000D0
:102010000F0C10000018000000004A000000000033
:1020200000000800000000000000000000000000A8
:1020300000000000000000000000000000000000A0
:102040000000000000000000000000000000000090
:10205000000000000000000000000000000140003F
:102060000000040000001AF04000007000000000B2
:102070004000000000000100000000000000001C03
:102080000000000000000000000000000000000050
:102090000000000000000000000000000000000040
:1020A0000000000000000000000000000000000030
:1020B00000000000F800000000000000000F0C14F9
:1020C00000000E0000000000000000000000000002
:1020D000000000000003E00000000000000000001D
:1020E00000000000000000000000000000000000F0
:1020F00000000000000000000000000000000000E0
:1021000000000000020000000000039C3859A400F9
:102110000000007C6000080001E0000000000000FA
:1021200040AF0400000001000000000000000000BB
:10213000000000000000000000000000000000009F
:10214000000000000000000000000000000000008F
:10215000000000000000000000000000000000007F
:10216000000980AD98000000402F8F900000001003
:102170000000000000003C00F051400000C00000E2
:10218000000003C00000000000000000000000008C
:10219000000000000000000000000000000000003F
:1021A000000000000000000000000000000000002F
:1021B00000000000000000071C7A65A000016020FC
:1021C000000000000000000000002A0760018F05E9
:1021D00000000708000000000000000000000000F0
:1021E00000000000000000000000000000000000EF
:1021F00000000000000000000000000000000000DF
:1022000000000000000000000000000000100100BD
:10221000225880000BC400000000000000000000F5
:102220000840B63C10F048000000000000000A0022
:10223000000000000000000000000000000000009E
:10224000000000000000000000000000000000008E
:10225000000000000000000000000000000000007E
:1022600000000000070E3225A8000000000000005A
:10227000000000A0000000600200418F0600000086
:10228000000000000000000000000000000000004E
:10229000000000000000000000000000000000003E
:1022A000000000000000000000000000000000002E
:1022B00000000000000000000000000000AE580018
:1022C0000000000000000000001000000004001CDE
:1022D0002C00F040000000000000000000000000A2
:1022E00000000000000000000000000000000000EE
:1022F00000000000000000000000000000000000DE
:1023000000000000000000000000000000000000CD
:1023100000038E5225A00000000000000000050010
:1023200000000000000007800A5600005000000076
:102330000001000400FCA5000000000000000000F7
:10234000000000000000000000000000000000008D
:10235000000000000000000000000000000000007D
:1023600000000000000000000800325804000000D7
:102370000000000000200000000000400043405A20
:1023800040000200000000001000202E0550000058
:10239000000000000000000000000000000000003D
:1023A000000000000000000000000000000000002D
:1023B0000000000000000000000000000000039C7E
:1023C0001A65A0204000067ED30000000000000037
:1023D00000000000200A54100080009E200830A059
:1023E0009C78DEE2220000000000000000000000F7
:1023F00000000000000000000000000000000000DD
:1024000000000000000000000000000000000000CC
:1024100000000000000900BE5800000002EF8340E9
:1024200000200000000000000E0000405A400000A4
:10243000000BA40000040420010E20000000000096
:10244000000000000000000000000000000000008C
:10245000000000000000000000000000000000007C
:102460000000000000000000000000071C5A65A8E2
:10247000000000347EA3028000800573C0000004C9
:102480000001AF0400000000000000000020225AFC
:10249000A500000000000000000000000000000097
:1024A000000000000000000000000000000000002C
:1024B000000000000000000000000000000000001C
:1024C00000000100325800000003410A300000877C
:1024D000009803C00000800010F060000800F000C9
:1024E00000000009C72C055080000000000000001B
:1024F00000000000000000000000000000000000DC
:1025000000000000000000000000000000000000CB
:102510000000000000000010000E1225A4000000C2
:1025200000000000000000000000000000000000AB
:102530000003000000000000000000000000000098
:10254000000000000000000000000000000000008B
:10255000000000000000000000000000000000007B
:10256000000000000000000000000000000000006B
:1025700000BE580000000000000000000000000045
:1025800000002040000000002000000000000000CB
:10259000000000000000000000000000000000003B
:1025A000000000000000000000000000000000002B
:1025B000000000000000000000000000000000001B
:1025C0000000000000038E123C000000002000000C
:1025D0000002000000000000504000000000000069
:1025E00000000000000000000400000000000000E7
:1025F00000000000000000000000000000000000DB
:1026000000000000000000000000000000000000CA
:10261000000000000000C000000000000801803C35
:102620008000000740000000100000000000010CC6
:10263000000000000000000000000000000003C0D7
:10264000000000000000000000000000000000008A
:10265000000000000000000000000000000000007A
:102660000000000000000000180020000000000032
:1026700000000800700020000400000000000000BE
:102680000003F154000000400E166A0000001FB362
:102690002204000000001CF05000000000000000B8
:1026A000000000000000000000000000000000002A
:1026B0000000000000004000000000000000B0002A
:1026C00000080100003C000001D0000000080004E8
:1026D0000200000000001000B81540000040000B90
:1026E00066004000008F648800000000010F0414A1
:1026F00000000000000000000000000000000000DA
:1027000000000000000000000000000000000000C9
:1027100000000005003800200200000000000380D7
:1027200000100020000000005EF000000001E03812
:102730003C000000004E896B008000000029500220
:102740000000001AF060000000000000000000001F
:102750000000000000000000000000000000000079
:1027600000000000000000000000080000000080E1
:1027700000003400000000000000000000001F0006
:1027800000000000100403C0008000280F96002005
:1027900000000D01680080E000010F0480000000CF
:1027A0000000000000000000000000000000000029
:1027B0000000000000000000000800000000000011
:1027C00000003000200000007400000020003000F5
:1027D000200000A0015C1402000059A763C00000A3
:1027E000036016896A1B00030E073C100400006C8E
:1027F0000AF070000000000000000000000000006F
:1028000000000000000000000000000000000000C8
:102810000000000000020100000000000001C79C51
:102820000000000000800000000740000140900808
:102830000010D6B002000014002E9600100000C058
:1028400003C000D00007810F04000000000000005A
:102850000000000000000000000000000000000078
:1028600000000000000000000000000000000070F8
:1028700000200100000000000000007000200000A7
:1028800000000000000000000BBE000000096754BB
:10289000896A00000000D3A940002000380CF040F5
:1028A00080000000000000000000000000000000A8
:1028B0000000000000000000000000000000000018
:1028C00000000000000000000010000014000000E4
:1028D000000080000000000000000000000000F781
:1028E0000002000100780C96004000000B415420CB
:1028F000000004000F048000000000000000000041
:1029000000000000000000000000000000000000C7
:102910000000000000000000001007003800200048
:1029200000007A000000080E3800200100010000BD
:102930000000000070000000001201E01C99690016
:1029400000118E000000000000001CF0600000007C
:102950000000000000000000000000000000000077
:102960000000000000000000000000000000000067
:102970000108C00000000000043C000000F000005E
:1029800000000000000000000000000F0000000137
:10299000400000099600000001F000000000024025
:1029A000000F040400000000000000000000000010
:1029B0000000000000000000000000000000000017
:1029C00000000000000000030010002000000000D4
:1029D000000000070030002000401C000000000044
:1029E00000518FFD98000A01C01E8969000001088E
:1029F00053A94000000E300000000000000000005D
:102A000000000000000000000000000000000000C6
:102A10000000000000000000000000000000B800FE
:102A20008000000002402C00028008F00000000A34
:102A3000002000000000000D80B7F0C0004026001C
:102A40002A960000300909C154200000040000004B
:102A50000000000000000000000000000000000076
:102A60000000000000000000000000000000000066
:102A700000000000030078002001001E7C00000020
:102A8000081E70002000440000000000000080A02C
:102A90003598000003C00499688000000A00000017
:102AA0000000000000000000000000000000000026
:102AB0000000000000000000000000000000000016
:102AC0000000000000000000000000000000000006
:102AD0000000033400000071E08000000003C0002B
:102AE000000000000F10F3264000003E200A960070
:102AF00004000100000000000000000000000000D1
:102B000000000000000000000000000000000000C5
:102B100000000000000000000000000000000000B5
:102B20000000003000200C000038000000000038D9
:102B3000002000000028000000000051C3BA8000FF
:102B40000020679E8F088000801E000000040000A7
:102B50000000000000000000000000000000000075
:102B60000000000000000000000000000000000065
:102B70000000000000000000700080000040000025
:102B80003C0000000000800000080400000000007D
:102B900000009B04280000000200000F000000005D
:102BA0000000000000C00000000000000000000065
:102BB0000000000000000000000000000000000015
:102BC0000000000000000000028000000000001B68
:102BD000023C0800000000008001A000023C080048
:102BE0000140074A50C00600000000000000B40089
:102BF000549969000003805ED080000000201EF020
:102C00006000000000000000000000000000000064
:102C10000000000000000000000000000000006054
:102C2000000000000000F003C030000000000000C1
:102C300000900003C030080C02B5905500000D0054
:102C40000000000000A4280B96040000080DBF44FB
:102C500004000000000F040000000000000000005D
:102C60000000000000000000000000000000000064
:102C7000000000200003000000002008011A3000BE
:102C80000000000000080008003320080240006B2C
:102C9000C850E00C0001E000000000026386996A61
:102CA0001480180A7E1680020000001AF04000000E
:102CB0000000000000000000000000000000000014
:102CC00000000000000000000008000000000000FC
:102CD0000100F0AD64FC4000000000000000B007FF
:102CE000AE14008A000024005402681000000000A6
:102CF00000003C00089608A002718102A800800034
:102D000000010F04040000000000000000000000AB
:102D100000000000000000000000000000000000B3
:102D2000C0000627FB540400010112E2000C400021
:102D30000000080000000683C004002067C850C0DF
:102D400030005005380000000207868968800000C6
:102D5000197F08008C00807808F040000000000017
:102D60000000000000000000000000000000000063
:102D700000000000000000000001EB3041000008EE
:102D8000A5FC4400C00000000000000090403C0092
:102D9000800042B600541000008A38280000000C61
:102DA000002B9608000070E08080004035C0010FC5
:102DB000040000000000000000000000000000000F
:102DC00000000000000000000000000000000006FD
:102DD000B69D160000000000000000000000000882
:102DE0000000011B7C400000066F4850C00000003E
:102DF000100000002001C60E8552000007805ABC5A
:102E000010800140200AF060000000000000000077
:102E100000000000000000000000000000000000B2
:102E2000000000000000427D5240400000F0000021
:102E3000000000000000000870872BDC800000020A
:102E400026005400000008000000000000000055AB
:102E5000290008F8FD438924000804010F0400003C
:102E60000000000000000000000000000000000062
:102E70000000000000000000000008000004E880DE
:102E800010000000F68280400000000000000800F2
:102E900007954000008003E850C00004381F6030F0
:102EA000230800000FC05000000000000000000CCC
:102EB00000000AF0400000000000000000000000D8
:102EC0000000000000000000000000000000000002
:102ED00000000001FB220000000007C0000100000C
:102EE000000000400010F742A80400040034005421
:102EF0000001818F7F410040403C03D0A52000307D
:102F00000000000000000002400F0400000000006C
:102F10000000000000000000000001400000000070
:102F2000000000000000000001E740000000282031
:102F300008F6620000000000000000079C0000008E
:102F4000000E00036850C0013038102B0008000349
:102F5000C296CA00030007187E03C00000000000EC
:102F60000000000000000000000000000000000061
:102F70000008000000000000000000000000000247
:102F8000600000000104010B784400000000000014
:102F90004000010000000000000024005400280050
:102FA0000800300000001C0000A000203030950018
:102FB00014000002C000000000000000000000003B
:102FC0000000000000000000000000000000000001
:102FD000000000000000E06F9E24100007000000C9
:102FE0000000000078000000091C3F294000400656
:102FF000076850C000008005F881080000078FE7CF
:10300000A000028000FE080C8000000200A5400025
:1030100000000000000000000000000000000000B0
:1030200000000000000000000000000042235DA13D
:10303000404200009000000000000000004004F941
:103040000142A80002000236005400080F0A1C3892
:1030500010000140407974000000000B40000400A3
:1030600000000C05A40400000000000000000000A7
:10307000000000000000000000000000040000004C
:10308000004000E000000000000108000000000017
:103090000000004000000EFB8D0084402063E850DB
:1030A000E01000101177300000000016C55001003C
:1030B0000F8ABE50D2040020000000000000000073
:1030C0000000000000000000000000000000000000
:1030D00000000000000000000026000000000000CA
:1030E00099000000000000000000400001FBC080CB
:1030F000000A00402600541001008A37000000003A
:1031000000380055200030F8B3778F000002C0006F
:1031100000000000000000000000000000000000AF
:103120000000000000000000000000000000000897
:1031300000018F04000000017059A0000000000091
:103140000000010097480000000063C850C0000064
:103150000015AC85000061C7C000000000018B13A2
:1031600000000000146000000000000000000000EB
:10317000000000000000000000000000000000004F
:10318000000000000000000000F000000000E0254A
:103190009800000000000000185809329400000058
:1031A000003C00554000010F7A28100000422C001E
:1031B00000000038D99D6404000000028000000077
:1031C000000000000000000000000783C020000095
:1031D00000000000000000000000002000C001CF3F
:1031E0000400002701323C2020414000000003077A
:1031F00000FA820082000003C850C008000009B82D
:10320000152000000000000000100F0A9B04008041
:103210000020024A0700000000000000000000003B
:1032200000003C0000000000000000000000000062
:10323000000800020010F000400400E0803C000A9A
:1032400008000000010000C1C020408000002C00E8
:103250005502000500D0141000000000000000021C
:103260008011B9C2000000024297800000000000F7
:10327000000000000000000000000000000000004E
:103280000000000000000000C0000000AF040010BB
:1032900000005265A0000000000000102F98DB0F16
:1032A000C0042000074850C030008000000000101B
:1032B000080055FC000000181852094000000028C2
:1032C000C8E2020000000000000000000000000052
:1032D00000000000000000000000000000000400EA
:1032E000003C10F0080000F0003658040000000018
:1032F00000008010B768E8008400023E005610000D
:1033000001000000000101343CFFC20000029101F5
:103310007F6800000140030E200000000000000054
:10332000000000000000000000000000000000009D
:10333000000000000000000000CF040000000012A8
:1033400065A00000000000000000001600008000E2
:103350000001E850400000001000000000000040A4
:10336000000000008D00D7BF00000040006EA000EC
:10337000000000000000000000000000000000004D
:10338000000000000000000000000000000000003D
:10339000F0000000F000A2582000000000000038FB
:1033A000F0014040400000002600A4100000090089
:1033B00000000000003C00000000009805F79000AD
:1033C00000014017000000000000000000000000A5
:1033D00000000000000000000000000000000000ED
:1033E000000000020000EF040000001F5A25A800A2
:1033F000000000000001015EB282088000000000B1
:103400000000002800000000000006001C8F500093
:1034100010019D378040800014605A520000000067
:10342000000000000000000000000000000000009C
:10343000000000000000000000001C3800F0000048
:103440000000D03A580000000000000000080F0003
:10345000100000000000000000000000000000005C
:1034600000BC0270A0200200008740100000002471
:103470003492500000000000000000000000000036
:10348000000000000000000000000000000000003C
:10349000000001EF04000010017A3C280140800088
:1034A00000002B018890294000000060000000000F
:1034B0000000000000000000001DD55000000001C9
:1034C000928100000E800018E2020000000000005F
:1034D00000000000000000000000000000000000EC
:1034E00000000000000000002010F000000000D0EC
:1034F000803C000A100000000100100B00000000DA
:1035000000040000000000000000000000003C007B
:103510004B5508000000A5E018000003402C0D10DA
:10352000000000000000000000000000000000009B
:10353000000000000000000000000000000000008B
:1035400000000000270C323C2000000000000002B8
:10355000A00052C208000026000000000000180071
:103560000000000002405CA0500000039C83298002
:103570008000002ECE770200000000000000000056
:10358000000000000000000000000000000000003B
:10359000000000003C000000000005D900803C2035
:1035A00000000000000105000DBC100000004000FC
:1035B00000000001D00000000000001E2C000510DB
:1035C000000008054164000000060D0EE000000048
:1035D00000000000000001000000000000000000EA
:1035E000000000000000000000000007A00A5400D6
:1035F00000000E723C2040000000000000238C0000
:10360000000004000060000000140000012014000D
:10361000000016C000000000001D1F4042400000D6
:10362000024A050000000000000000000008000041
:10363000000000000000000000000000000000008A
:1036400000003FC05A0040000100803C0000C00064
:10365000000000040800000000000004000000005A
:103660004000000401404000003C00000000000158
:10367000896010000000001780C0000000000000FA
:10368000000000000000000000000000000000003A
:1036900000000000000000000655E8560400080085
:1036A0007A3C20004000000000028108BEB8902152
:1036B00000000018F0400039000000000000020087
:1036C00040AF05000380007214300080000000A5A8
:1036D000600000000000000000000000000000008A
:1036E0000000000000000000000000000000003E9C
:1036F0005D474000005000803C1100600000000267
:10370000000901BE8564100000000F000001A10047
:1037100000000000000C3000F0480030000F0015E1
:10372000080008000C05A480000000000000000054
:103730000000000000000000000000000000000089
:10374000000000200000000000000005805A3C221C
:10375000000000000000800800B3620002001E00AC
:103760001AF040010078E00000002041E2040A5411
:103770000080000AF214300200203818F0400000E7
:103780000000000000000000000000000000000039
:10379000000000000000000000080014000000000D
:1037A00000000000803C0000000000002010700BB2
:1037B000B04420800000010F0000000090000000D5
:1037C00008000C4000A568200001090015009002C7
:1037D000C0000F0500000000000000000000000015
:1037E00000000000000000000000000000000000D9
:1037F000C002000000000008001A3A3C200000004F
:10380000000003C00000DF69100C00000000000091
:10381000000081A0000000400203018F04030000AB
:10382000195214300D00002018F040000000000074
:103830000000000000000000000000000000000088
:10384000000000000000000024000000000100D083
:10385000B0003C2000000000000400000722E1242A
:10386000400000000000000187100000000C002C48
:103870000010F0481000008F801520D00000010FCC
:10388000040C100000000000000000000000000018
:1038900000000000000000000000000000000140E7
:1038A00024EE260010071C523C20000000000000FF
:1038B000000000332202000000780CF040000000FD
:1038C0000000000000A04041AF0480010199D21423
:1038D000300000002200A5410100000000000000AF
:1038E00000000000000000000000000000000000D8
:1038F00000000000000003EDA14002000100803C38
:103900000000000000000008F007B04400000004C0
:10391000000F000000000B0000000000003800F065
:1039200040000000898015000000003C05A4000054
:103930000000000000000000000000000000000087
:1039400000000000000000000000000006CE98808B
:10395000000380001A3C20000100000000000D81DF
:103960000000000000000400000000000009AA940C
:1039700000000000200A54000000017A143000000A
:1039800080000EF040000000000000000000000079
:103990000000000000000000000000000000000027
:1039A00000000039DF110080020000003C00000030
:1039B000000000003810800000000007C300000075
:1039C0000000000878154000000000405A60000028
:1039D00000DF0015000012C0000F0404000000000A
:1039E00000000000000000000000000000000000D7
:1039F0000000000000000000006025FE24002807F1
:103A0000000225A0008E0000000001D70E9BB458D4
:103A10004000000000000000000003728C4800001D
:103A200000200A5400000000DA1430000100001ADF
:103A3000F041000000000000000000000000000055
:103A40000000000000000000000000000000000076
:103A500003FEA1410100000029A40004C0000000F1
:103A600000000005214900000000000000000020C7
:103A70000D0C28C000A00000405A40400000090082
:103A80001500000000010F0500000000000000000C
:103A90000000000000000000000000000000000026
:103AA000000000000001E02E988000002800521560
:103AB0004000000000000008BF1E000000000100E0
:103AC0000000000000000095E0000204000001AFCB
:103AD000041040199C5A14300040003800A54000E2
:103AE00000000000000000000000000000000000D6
:103AF00000000000000000000000000000005A115B
:103B000020000490008154000000000000010050DB
:103B1000000000000008000000000000001DFA1076
:103B20000000A0000010F0480402100F80150008EB
:103B300001C43405A40400000000000000000000DF
:103B40000000000000000000000000000000000075
:103B500000400203C000000000000116E200004E19
:103B60004000000100038E1FF450400000000000E0
:103B700000000058002BE800400000008F06010004
:103B80000800DA141004000E001EF04000000000CF
:103B90000000000000000000000000000000000025
:103BA0000000000000000000001478000000000089
:103BB00030D73844200AE8000000000809096949A4
:103BC0008000000000000000000000F43D480000FC
:103BD000400010F0408000100980150000000240F5
:103BE0000F040400001101010100000000000000AA
:103BF0000000000010000000000000400000000075
:103C0000000100000000000004000000000000109F
:103C10000000000000004000000000100000000054
:103C2000000040000000000001000000000000044F
:103C30000000000000001000004000000000000034
:103C40000000000000000000000002000000000072
:103C500000080000000000002000000000000080BC
:103C6000000000000002000000000000080000004A
:103C7000000200000000000008000000000000201A
:103C800000000000000080000000000002000000B2
:103C9000000000080000000000000000000000001C
:103CA0000000000000000000000000000000000014
:103CB0000000000000000000000000000000000004
:103CC00000000000000000000000000000000000F4
:103CD00000000000000000000000000000000000E4
:103CE0000000000000004000000000000000000094
:103CF00000000000000000000000000000000000C4
:103D000000000000000000000000000000000000B3
:103D100000000000000000000000000000000000A3
:103D20000000000000000000000000000000000093
:103D30000000000000000000000000000000000083
:103D40000000000000000000000000000000000073
:103D50000000000000000000000000000000000063
:103D6000000000000000000000000000000800004B
:103D70000000000000000000000000000000000043
:103D80000000000000000000000000000000000033
:103D9000000000800000080000000000000000009B
:103DA0000000000000000000000000000000000013
:103DB0000000000000000000000000000000000003
:103DC00000000000B0000000000000000000000043
:103DD00000000000000000000000000000000000E3
:103DE0000000000000000000000000000050000083
:103DF00000000000000000000000000000000000C3
:103E000000000000000000000000000000000000B2
:103E100000000000000000000000000000000000A2
:103E20000000000000000000000000000000000092
:103E30000000000000000000000000000000000082
:103E40000000000000000000000000000000000072
:103E50000000000000000000000000000000000062
:103E60000000000000000000000000000000000052
:103E70000000000000000000000000000000000042
:103E80000000000000000000000000000000000032
:103E90000000000000000000000000000000000022
:103EA0000000000000000000000000000000000012
:103EB0000000000000000000000000000000000002
:103EC00000000000000000000000000000000000F2
:103ED00000000000000000000000000000000000E2
:103EE00000000000000000000000000000000002D0
:103EF00000000000000000000000000000000000C2
:103F000000000000000000000000000000000000B1
:103F100000000000000000000000000000000000A1
:103F20000000000000000000000000000000000091
:103F30000000000000000000000100000000000080
:103F40000000000000000000000000000000000071
:103F50000000000000000000000000000000000061
:103F60000000000000000000000000000000000051
:103F700000000000000000800000000000000000C1
:103F80000000000000000000000000000000000031
:103F9000000000000000000000000003000000001E
:103FA0000000000000000000000000000000000011
:103FB0000000000000000000000000000000000001
:103FC000000000000000000000000000000C0000E5
:103FD00000000000000000000000000000000000E1
:103FE00000000000000000000000000000000000D1
:103FF0000000800000000000000000000000000041
:1040000000000000000000000000000000000000B0
:1040100000000000000000000000000000000000A0
:104020000000000000000000000000000000000090
:104030000000000000000000000000000000000080
:104040000000000000000000000000000000000070
:104050000000000000000000000000000000000060
:104060000000000000000000000000000000000050
:104070000000000000000000000000000000000040
:104080000000000000000000000000000000000030
:104090000000000000000000000000000000000020
:1040A0000000000000000000000000000000000010
:1040B0000000000000000000000000000000000000
:1040C00000000000000000000000000000000000F0
:1040D00000000000000000000000000000000000E0
:1040E00000000000000000000000000000000000D0
:1040F00000000000000000000000000000000000C0
:1041000000000000000000000000000000000000AF
:10411000000000000000000000000000000000009F
:10412000000000000000000000000000000000008F
:10413000000000000000000000000000000000007F
:1041400000000000000000000000000070000000FF
:1041500000000000000C3000000000000000000023
:10416000000000000000000000000000000000004F
:10417000000000000000000000000000000000003F
:10418000000000000000000000000000000000002F
:10419000000000000000000000000000000000001F
:1041A000000000000000000000000000C30200004A
:1041B00000000000000000000000000000000000FF
:1041C00000000000000000000000000000000000EF
:1041D00000000000000000000000000000000000DF
:1041E00000000000000000000000000000000000CF
:1041F00000000000000000000000000000000000BF
:1042000000000C3000000000000000000000000072
:10421000000000000000000000000000000000009E
:10422000000000000000000000000000000000008E
:10423000000000000000000000000000000000007E
:10424000000000000000000000000000000000006E
:10425000000000000000000000C302000000000099
:10426000000000000000000000000000000000004E
:10427000000000000000000000000000000000003E
:10428000000000000000000000000000000000002E
:10429000000000000000000000000000000000001E
:1042A0000000000000000000000000000342000CBD
:1042B00030000000000000000000000000000000CE
:1042C00000000000000000000000000000000000EE
:1042D00000000000000000000000000000000000DE
:1042E00000000000000000000000000000000000CE
:1042F00000000000000000000000000000000000BE
:10430000000000200000C3020000000000000000C8
:10431000000000000000000000000000000000009D
:10432000000000000000000000000000000000008D
:10433000000000000000000000000000000000007D
:10434000000000000000000000000000000000006D
:104350000000000000000000000000020C3000001F
:10436000000000000000000000000000000000004D
:10437000000000000000000000000000000000003D
:10438000000000000000000000000000000000002D
:10439000405A000000000000000000000000000083
:1043A000000000000000000000000000000000000D
:1043B0000E70C0C3020000000000000000000000FA
:1043C00000000000000000000000000000000000ED
:1043D00000000000000000000000000000000000DD
:1043E000000000000000200A520000000000000051
:1043F00000000000000000000000000000000000BD
:104400000000000000000000020C3000000000006E
:10441000000000000000000000000000000000009C
:10442000000000000000000000000000000000008C
:104430000000000000000000000400000000000078
:10444000000000000000000000000000000000006C
:10445000000000000000000000000000000000E07C
:10446000C302000000000000000000000000000087
:10447000000000000000000000000000000000003C
:10448000000000000000000000000000000000002C
:1044900040000000000000000000000000000000DC
:1044A000000000000000000000000000000000000C
:1044B0000000000000000C300000000000000000C0
:1044C00000000000000000000000000000000000EC
:1044D00000000000000000000000000000000000DC
:1044E00000000000000000000000000000000000CC
:1044F00000000000000000000000000000000000BC
:10450000000000000000000000000000C0C3020026
:10451000000000000000000000000000000000009B
:10452000000000000000000000000000000000008B
:10453000000000000000000000000000000000007B
:10454000000000000000000000000000000000006B
:10455000000000000000000000000000000000015A
:104560000000000C3000000000000000000000000F
:10457000000000000000000000000000000000003B
:10458000000000000000000000000000000000002B
:104590000000000000040000000000000000000017
:1045A0000004000000000000000000000000000007
:1045B000000000000000000000E0C3020000000056
:1045C00000000000000000000000000000000000EB
:1045D00000000000000000000000000000000000DB
:1045E00000000000000000000000000000000000CB
:1045F00000000000000000000000000000000000BB
:1046000000000000000000000000000000000000AA
:104610000C3000000000000000000000000000005E
:10462000000000000000000000000000000000008A
:10463000000000000000000000000000000000007A
:10464000000000000000000000000000000000006A
:10465000000000000000000000000000000000005A
:1046600000000000000000C3020000000000000085
:10467000000000000000000000000000000000003A
:10468000000000000000000000000000000000002A
:10469000000000000000000000000000000000001A
:1046A000000000000000000000000000000000000A
:1046B000000000000000000000000000000C3000BE
:1046C00000000000000000000000000000000000EA
:1046D00000000000000000000000000000000000DA
:1046E00000000000000000000000000000000000CA
:1046F00000000000000000000000000000000000BA
:1047000000000000000000000000000000000000A9
:104710000000000CC30200000000000000000000C8
:104720000000000000000000000000000000000089
:104730000000000000000000000000000000000079
:104740000000000000000000000000000000000069
:104750000000000000000000000000000000000059
:104760000000000000000000C0000C30000000004D
:104770000000000000000000000000000000000039
:104780000000000000000000000000000000000029
:104790000000000000000000000000000000000019
:1047A0000000000000000000000000000000000009
:1047B00000000000000000000000000000000000F9
:1047C00000C3020000000000000000000000000024
:1047D00000000000000000000000000000000000D9
:1047E00000000000000000000000000000000000C9
:1047F00000000000000000000000000000000000B9
:1048000000000000000000000000000000000000A8
:10481000000000000000000C30000000000000005C
:104820000000000000000000000000000000000088
:104830000000000000000000000000000000000078
:104840000000000000000000000000000000000068
:104850000000000000000000000000000000000058
:104860000000000000000000000000000000C30283
:104870000000000000000000000000000000000038
:104880000000000000000000000000000000000028
:104890000000000000000000000000000000000018
:1048A0000000000000000000000000000000000008
:1048B00000000000000000000000000000000000F8
:1048C0000000C0000C3000000000000000000000EC
:1048D00000000000000000000000000000000000D8
:1048E00000000000000000000000000000000000C8
:1048F00000000000000000000000000000000000B8
:1049000000000000000000000000000000000000A7
:104910000000000000000000000000C302000000D2
:104920000000000000000000000000000000000087
:104930000000000000000000000000000000000077
:104940000000000000000000000000000000000067
:104950000000000000000000000000000000000057
:104960000000000000000000000000000000000047
:10497000000C3000000000000000000000000000FB
:104980000000000000000000000000000000000027
:104990000000000000000000000000000000000017
:1049A0000000000000000000000000000000000007
:1049B00000000000000000000000000000000000F7
:1049C0000000000000000000C30200000000000022
:1049D00000000000000000000000000000000000D7
:1049E00000000000000000000000000000000000C7
:1049F00000000000000000000000000000000000B7
:104A000000000000000000000000000000000000A6
:104A100000000000000000000000010000000C3059
:104A20000000000000000000000000000000000086
:104A30000000000000000000000000000000000076
:104A40000000000000000000000000000000000066
:104A50000000000000000000000000000000000056
:104A60000000000000000000000000000000000046
:104A70000000000000C30200000000000000000071
:104A80000000000000000000000000000000000026
:104A90000000000000000000000000000000000016
:104AA0000000000000000000000000000000000006
:104AB00000000000000000000000000000000000F6
:104AC00000000000000000000000000C30000000AA
:104AD00000000000000000000000000000000000D6
:104AE00000000000000000000000000000000000C6
:104AF00000000000000000000000000000000000B6
:104B000000000000000000000000000000000000A5
:104B10000000000000000000000000000000000095
:104B20000000C302000000000000000000000000C0
:104B30000000000000000000000000000000000075
:104B40000000000000000000000000000000000065
:104B50000000000000000000000000000000000055
:104B60000000000000000000000000000000000045
:104B700000000000000000000C30000000000000F9
:104B80000000000000000000000000000000000025
:104B90000000000000000000000000000000000015
:104BA0000000000000000000000000000000000005
:104BB00000000000000000000000000000000000F5
:104BC0000000000000000000000000000001C0C361
:104BD00002000000000000000000000000000000D3
:104BE00000000000000000000000000000000000C5
:104BF00000000000000000000000000000000000B5
:104C000000000000000000000000000000000000A4
:104C10000000000000000000000000000000000094
:104C200000000000000C30000000800000000000C8
:104C30000000000000000000000000000000000074
:104C40000000000000000000000000000000000064
:104C50000000000000000000000000000000000054
:104C60000000000000000000000000000000000044
:104C7000000000000000000000000000C30200006F
:104C800038000000000000000000000000000000EC
:104C90000000000000000000000000000000000014
:104CA0000000000000000000000000004001600063
:104CB0000000010001800000000000000000000072
:104CC00000000000000000000000000000000000E4
:104CD00000000C3000000000000000000000000098
:104CE00000000000000000000000000000000000C4
:104CF00000000000000000000000000000000000B4
:104D00000000000000000000000000100000000093
:104D10000000000000000000000000000000000093
:104D2000000000000000000000C3020000000000BE
:104D30000000000000000000000000000000000073
:104D40000000000000000000000000000000000063
:104D500000000000000000000000006000000000F3
:104D6000000800000000000000000000000000003B
:104D70000000000000000000000000000000000C27
:104D800030000000000000000000000000000000F3
:104D90000000000000000000000000000000000013
:104DA0000000000000000000000000000000000003
:104DB00000000000000000000000002900000000CA
:104DC00000000000000000000000000000000000E3
:104DD000000000000000C30200000000000000000E
:104DE00000000000000000000000000000000000C3
:104DF00000000000000000000000000000000000B3
:104E000000000000000000000000000000000000A2
:104E10007B02900000000000000000000000000085
:104E20000000000000000000000000000C30000046
:104E30000000000000000000000000000000000072
:104E40000000000000000000000000000000000062
:104E50000000000000000000000000000000000052
:104E600000000000009000000000000000000000B2
:104E70000000000000000000000000000000000032
:104E8000000000C30200001000000000000000004D
:104E90000000000000000000000000000000000012
:104EA0000000000000000000000000000000000002
:104EB00000000000000000000000000800000000EA
:104EC00000000000000000000000000000000000E2
:104ED0000000000000050000000C30000000000091
:104EE00000000000000000000000000000000000C2
:104EF00000000000000000000000000000000000B2
:104F000000000000000000000000000000000000A1
:104F10000000000000000000000000000000000091
:104F2000000000000004000000000000A0000000DD
:104F3000C3020000000000000000000000000000AC
:104F40000000000000000000000000000000000061
:104F50000000000000000000000000000000000051
:104F60000000000000000000000000000000000041
:104F70000000000000000000000000000000000031
:104F80000000000000000C30000000000003C00022
:104F90000000000000000000000000000000000011
:104FA0000000000000000000000000000000000001
:104FB00000000000000000000000000000000000F1
:104FC00000000000000000000000000000000000E1
:104FD00000000000000000000010000000C30200FC
:104FE000000000303C8000000000000000000000D5
:104FF00000000000000000000000000000000000B1
:1050000000000000000000000000000000000000A0
:105010000000000000000000000000000000000090
:105020000000000000000000000000000000000080
:10503000E000000C30000000000003C00000000091
:105040000000000000000000000000000000000060
:105050000000000000000000000000000000000050
:1050600000000008000000009640600000010029D8
:105070000000000000000000000000000000000030
:1050800000000000000000000000C302000000005B
:10509000783C8000000000000000000000000000DC
:1050A0000000000000000000000000000000000000
:1050B000000000000000000000002000001EE96465
:1050C000008000003214100000000000000000000A
:1050D00000000000000000000000000000000000D0
:1050E0000C30000000000000000000000000000084
:1050F00000000000000000000000000000000000B0
:10510000000000000000000000000000000000009F
:105110000000000000000000000003001510000067
:10512000000000000000000000000000000000007F
:1051300000000000000000C30200000000000000AA
:10514000000000000000000000000000000000005F
:10515000000000000000000000000000000000004F
:10516000000000000000000000000000000000013E
:1051700080721430000000000000000000000000F9
:10518000000000000000000000000000000C3000E3
:10519000000000000000000000000000000000000F
:1051A00000000000000000000000000000000000FF
:1051B00000000C00000000000000000000000000E3
:1051C0000000000000001005801500000000000035
:1051D00000000000000000000000000000000000CF
:1051E00000000000C30200000000000000000000FA
:1051F00000000000000000000000000000000000AF
:10520000000000000000000000000000000000009E
:1052100000000000000166800000010108187A14F7
:10522000300000000000000000000000000000004E
:10523000000000000000000000000C300000000032
:10524000000000000000000000000000000000005E
:10525000000000000000000000000000000000004E
:105260000000000000000000000000100028000006
:105270000000000000803D00000000000000000071
:10528000000000000000000000000000000000001E
:1052900000C3020000000000000000000000000049
:1052A00000000000000000000000000000000000FE
:1052B00000000000000000000000000000000000EE
:1052C00000000140400000000001805A3C30000016
:1052D00000000000000000000000000000000000CE
:1052E000000000000000000C300000000000000082
:1052F00000000000000000000000000000000000AE
:105300000000000000280000000000000000000075
:105310000000000000000000001428000000000051
:1053200000E0003D00000000000000000000000060
:105330000000000000000000000000000000C302A8
:10534000000000000000000000000000000000005D
:10535000000000000000000000000000000000004D
:10536000000000000000000000000000000000023B
:1053700000400000000000005A3C30000000000027
:10538000000000000000000000000000000000001D
:10539000000000000C3000000000000000000001D0
:1053A00000000000000000000000000000000000FD
:1053B00000000000000000000000000000000000ED
:1053C0000000000000101400DE000000400000009B
:1053D0003D00000000000000000000000000000090
:1053E0000000000000000000000000C302000000F8
:1053F00000000000000000000000000000000000AD
:10540000000000000000000000000000000000009C
:105410000000000000000000000000010166A4E0A0
:1054200020000400007A3C30000000000000000072
:10543000000000000000000000000000000000006C
:10544000000C300000000000000000000000000020
:10545000000000000000000000000000000000004C
:10546000000000000000000000000000000000003C
:1054700000000004400000000000008580150000CE
:10548000000000000000000000000000000C000010
:105490000000000000000000C30202000000000045
:1054A00000000000000000000000000000000000FC
:1054B00000000000000000000000000000000000EC
:1054C00000000000000000000002060000000000D4
:1054D00001815214300000000000000000000000B4
:1054E00000000000000000000000000000000C3080
:1054F00000000000000000000000000000000000AC
:10550000000000000000000000000000000000009B
:10551000000000000000000000000000000000008B
:105520000023EC000000005080803D0000000000DF
:10553000000000000000000000000000000000006B
:105540000000000000C30200000000000000000096
:10555000000000000000000000000000000000004B
:10556000000000000000000000000000000000003B
:1055700000000000000000006CC800000008195284
:105580003C300000000000000000000000000000AF
:1055900000000000000000000000000C30001000BF
:1055A00000000000000000000000000000000000FB
:1055B00000000000000000000000000000000000EB
:1055C00000000000000000000000000000000010CB
:1055D0000310200008050015000000000000000076
:1055E00000000000000000000000000000000000BB
:1055F0000000C30202800000000000000000000064
:10560000000000000000000000000000000000009A
:10561000000000000000000000000000000000008A
:10562000000000000001A03020800500721430004E
:10563000000000000000000000000000000000006A
:1056400000000000000000000C300000000000001E
:10565000000000000000000000000000000000004A
:10566000000000000000000000000000000000003A
:10567000000000000000000000000201ED2000001A
:1056800000000034000000000000000000000000E6
:10569000000000000000000000000000000000C347
:1056A00002000000000000000000000000000000F8
:1056B00000000000000000000000000000000000EA
:1056C00000000000000000000000000000000000DA
:1056D000014035B0008000000018402000000000AC
:1056E00000000000000000000000000000000000BA
:1056F00000000000000000000000000000000000AA
:105700000000000000000000000000000000000099
:105710000000000000000000000000000000040085
:105720000000000000000000000000000000000772
:10573000366580000000000000000000000000004E
:105740000000000000000000000000000000000059
:105750000000000000000000000000000000000049
:105760000000000000000000000000000000000039
:105770000000000000000000000000000000000029
:10578000000001000000005990000000000000002F
:105790000000000000000000000000000000000009
:1057A00000000000000000000000000000000000F9
:1057B00000000000000000000000000000000000E9
:1057C00000000000000000000000000400000000D5
:1057D0000000000000000000000000D000000000F9
:1057E00000000000000000000000000000000000B9
:1057F00000000000000000000000000000000000A9
:105800000000000000000000000000000000000098
:105810000000000000000040000000000000000048
:105820000000000000000000000000000000000078
:105830000000000000000000000000000000000068
:105840000000000000000000000000000000000058
:105850000000000000000000000000000000000048
:105860000000000000000000000000000000000038
:105870000000000000000000000000000000000028
:105880000000000000000000000000000000000018
:105890000000000000000000000000000000000008
:1058A00000000000000000000000000000000000F8
:1058B00000000000000000000000000000000000E8
:1058C00000000000000000000000000000000100D7
:1058D000400000000000010000000000000400186B
:1058E0000000000010000000000000400000000068
:1058F00000000000000000000000000000000000A8
:105900000000000000000000000000000000000097
:105910000000000000000000000004000000000083
:105920000000002000100400000000000010000033
:105930000000000040000082800001000000000024
:10594000000400000000000010000020AF00400034
:105950000000000000000000000000000000000047
:105960000000000000000000000010000000000027
:1059700000400000000000010000000000400000A6
:10598000000000010000000000000400003BA8002F
:105990002010000000000000400000000000010096
:1059A0000017AAF100000000000000000000000045
:1059B00000000000000000000000000000000000E7
:1059C00000000000000000000000000000000000D7
:1059D00000002000000000000000000000000000A7
:1059E00000000000000000000000000000000000B7
:1059F000000000000000142400000000000000006F
:105A00000000000000000000000000000000000096
:105A10000000000000000000000000000000000086
:105A20000000000000000000000000000000000076
:105A30000000000000000000000000000000000066
:105A40000000000000000000000000000000000056
:105A50000000000000000000000000000000000046
:105A60000000000000000000000000000000000036
:105A70000000000000000000000004000000002002
:105A800000000000000000400000000000000000D6
:105A90000000000000000000000000000000000006
:105AA00000000000000000000000000000000000F6
:105AB00000000000000000000000000000000000E6
:105AC00000000000000000000000000000000000D6
:105AD00000C0000000000000000000000000000006
