:100000005555AAAA4620000000000000000000008C
:10001000BB8100000000000000000000A1DDEA003C
:100020000002100059230000A5020000BB020000DE
:10003000D1020000E7020000FD0200000000000005
:100040000000000000000000000000006D460100FC
:100050007146010000000000130300007346010018
:10006000754601009D220000A7460100D522000030
:100070008D4601008F46010093460100974601001E
:100080009B4601009D4601009F460100A1460100DC
:10009000A3460100A9460100000000000000000086
:1000A000AB460100AD46010000000000000000006A
:1000B00000000000AF460100B1460100EB22000045
:1000C000B3460100C146010025030000DB460100E4
:1000D000DD460100000000000000000000000000FC
:1000E0004620000000F002F800F068F80AA090E84E
:1000F000000C82448344AAF10107DA4501D100F0E3
:100100005DF8AFF2090EBAE80F0013F0010F18BF47
:10011000FB1A43F001031847207C0100607C0100BA
:100120000A444FF0000C10F8013B13F0070408BF1D
:1001300010F8014B1D1108BF10F8015B641E05D0BB
:1001400010F8016B641E01F8016BF9D113F0080F70
:100150001EBF10F8014BAD1C0C1B09D16D1E58BF02
:1001600001F801CBFAD505E014F8016B01F8016B39
:100170006D1EF9D59142D6D370470000103A24BFC6
:1001800078C878C1FAD8520724BF30C830C144BFFC
:1001900004680C607047000000230024002500263E
:1001A000103A28BF78C1FBD8520728BF30C148BFDA
:1001B0000B6070471FB51FBD10B510BDDFF80CD028
:1001C000FFF7F8FF14F0C7FB17F0E6FA0002100083
:1001D00003B4FFF7F1FF03BC17F0E6FA0A484FF04B
:1001E000FF0101704FF0000080F311884FF0000014
:1001F00080F3098805484FF00201017062B6044897
:100200004FF080510160704722ED00E000021000C5
:1002100004ED00E002484FF080510160704700009B
:1002200004ED00E04FF0200080F31188EFF3098027
:1002300098B11248006812490968884217D0EFF354
:1002400009800E49096820E9F00F886000B50B4865
:10025000006800F0FDF85DF804EB084808490A68FA
:10026000026000688168B1E8F00F81F309884EF000
:10027000040E4FF0000080F3118870470402100054
:1002800008021000EFF311804FF0200181F3118874
:10029000704700004FF0000080F3118870470000A5
:1002A00062B6704772B6704740BA7047C0BA7047BE
:1002B000401E0028FCDC704700BE704740BA704703
:1002C000C0BA70471EF0040F0CBFEFF30880EFF3C5
:1002D00009804FF0010114F0F8B81EF0040F0CBFB4
:1002E000EFF30880EFF309804FF0020114F0EDB84E
:1002F0001EF0040F0CBFEFF30880EFF309804FF0FE
:10030000030114F0E2B81EF0040F0CBFEFF30880F5
:10031000EFF309804FF0040114F0D7B81EF0040F7A
:100320000CBFEFF30880EFF309804FF0050114F0E4
:10033000CCB84FF0000000B515F02BFC5DF804EBD5
:10034000FFF770BF1EF0040F0CBFEFF30880EFF350
:1003500009804FF0000114F0B8B80000194910B539
:1003600001200870184900200860184908601849E1
:1003700008601849086000F0C1F900F053F900F076
:100380006FF8002010BD10B5114800F033F90F4987
:1003900008600D490968884207D00A480078022899
:1003A00003D1BDE81040FFF735BF10BD10B5FFF712
:1003B000EAFF044902200870FFF710FF4FF0FF30FA
:1003C00010BD00000002100004021000080210001E
:1003D0000C0210001002100070B50D460446C169F1
:1003E0008068CC2217F00DF9E169A068002208446A
:1003F0004FF0807140F8041C216A40E9032140F865
:10040000102C40F8142C40F8182C40F81C2C4FF0FD
:100410000B3140E909154FF00A3140F8281C4FF024
:10042000093140F82C1C4FF0083140F8301C4FF0D7
:10043000073140F8341C4FF0063140F8381C4FF0BB
:10044000053140F83C1C4FF0043140F8401D70BDB0
:1004500082698168914201D814F026BB7047000080
:1004600010B54FF4B4714E4817F0F5F8002010BDE8
:1004700070B5064600EBC601494800EB8104FFF762
:1004800001FF0546207828B12846FFF703FF6FF0EB
:10049000010070BD0320207000206660206204F11E
:1004A0001C0000F081F82846FFF7F4FE002070BD24
:1004B0002DE9F0410F463A49002500EBC00001EB61
:1004C00080042E46FFF7DEFE8046206A3843206215
:1004D00004F11C00074600F08DF80CE0216A026C64
:1004E000114203D000F062F9012600E06D1C29469C
:1004F000384600F075F80028F0D10EB1FFF743FF41
:100500004046FFF7C7FE0020BDE8F08170B50D46FC
:10051000234900EBC00001EB8004FFF7B3FE216A22
:10052000A9432162FFF7B6FE002070BD70B50C46EE
:100530001B4900EBC00001EB800500202060FFF7A5
:10054000A1FE296A2160FFF7A5FE002070BD2DE9FC
:10055000F0410D46124900EBC0001E46904601EBEB
:100560008004FFF78FFE07460E4800680564216A85
:10057000294203D104F11C0100F02AF93846FFF7A3
:1005800089FEFFF77FFE216A29403160B8F1010F33
:1005900002D1216AA9432162FFF77CFE0020B3E764
:1005A000E0041000040210000021016008467047BA
:1005B00030B50A6812B10B46C46B08E0002208602F
:1005C000C0E903210AE002F10C03D26812B1D56B35
:1005D000A542F8DC1A68C0E903211860002030BD8C
:1005E0000068002201E0C068521C8A4201D0002845
:1005F000F9D170470068704702690AB1116831B9D2
:100600006FF00400704701F10C02C96839B18142F2
:10061000F9D1C968116000210161084670476FF087
:100620000300704710B54FF4C871324817F013F843
:10063000002010BD2DE9F041884606462D4900EB0B
:100640008600174601EBC004FFF71CFE0546207824
:1006500030B12846FFF71EFE6FF00100BDE8F081C3
:1006600002202070E7611422414604F10800666010
:1006700016F050FF0020206204F12400FFF794FFE1
:100680002846FFF707FE0020E8E770B5194900EBA0
:10069000800001EBC004FFF7F5FD0546D4E9070132
:1006A000814205DB144804F12401006800F090F851
:1006B000206A401C20622846FFF7ECFD002070BD38
:1006C00070B50C4900EB800001EBC004FFF7DAFDC8
:1006D0000546206A08B1401E206204F12400FFF79D
:1006E00089FF10B1606A00F011F82846FFF7D2FDCB
:1006F000002070BD480610000402100010B54FF431
:100700002A71404816F0A7FF002010BD10B504461E
:1007100090F8380002280BD02046FFF76DFF02202A
:1007200084F8380038492046FFF742FFFFF72BFED8
:10073000002010BD2DE9F05F8B460746314900EBE4
:1007400007109046DDE90AA911F820201D461AB1CC
:100750006FF00100BDE8F09F01EB8004FFF792FD10
:10076000064601202070C4E90175C4E90585C4E985
:1007700007A91422594604F1240016F0CBFE0020EC
:1007800084F8370084F838006169E0602061C4E9CA
:100790000F1020460C99FFF71FFEA0602046FFF7C0
:1007A000B5FF3046FFF776FD0020D3E710B50446CD
:1007B00090F83800022809D02046FFF71DFF0220DC
:1007C00084F8380010492046FFF7F2FE002010BDE3
:1007D00070B5044690F838000D4602280BD120462B
:1007E000FFF70AFF032084F8380029462046FFF768
:1007F000DFFEFFF7C8FD002070BD044800684068B8
:1008000070470000D80710000C021000040210000E
:1008100010B5042000F017F9052000F014F90620A7
:1008200000F011F9072000F00EF9082000F00BF994
:10083000182000F008F9192000F005F91A2000F03E
:1008400002F9944A00201060924B4033186091499D
:10085000183908608F4908310860C90681F83A00E4
:100860008C4C143C20608B4C0C34206081F83B0095
:10087000884C103C2060874C1034206081F83C008C
:10088000844C0C3C2060834C1434206081F83D0083
:10089000804C083C20607F4C1834206081F83E007A
:1008A0007C4C2834206081F84100241D206081F8B0
:1008B0004200241D206081F8430001201060186070
:1008C00081F833000621042000F0D3F8062105202A
:1008D00000F0CFF80621084600F0CBF806210720EB
:1008E00000F0C7F80621082000F0C3F80621182000
:1008F00000F0BFF80621192000F0BBF804211A20EF
:1009000000F0B7F8042000F0A9F8052000F0A6F8E0
:10091000062000F0A3F8072000F0A0F8082000F05F
:100920009DF8182000F09AF8192000F097F81A2086
:1009300000F094F8042000F07BF8052000F078F82F
:10094000062000F075F8072000F072F8082000F08B
:100950006FF8182000F06CF8BDE810401A2000F085
:1009600067B84C4B10B528331A680124D9065AB120
:1009700000221A6081F8350091F83F0091F83F207D
:100980008242FBD01C6010BD81F83500FAE700EB15
:10099000C00101EB00106FF0030101EB800010B506
:1009A0003D493E4C0978B0FBF1F0401E80B2FF2873
:1009B0000CD9010A2170494200EB01206070FF2030
:1009C000FFF7CFFF2078401E207010BD002121705E
:1009D0006170BDE81040C0B2C3E72E4828300168FE
:1009E00000290CD000210160C00690F83F1090F85B
:1009F0003F20FF2A03D090F83F208A42FBD0704767
:100A000010B5264C2178607851EA000207D051B128
:100A1000FF20FFF7A6FF2078401E207010BDBDE824
:100A2000104005F0EABBFFF79CFF0020607010BD8E
:100A300000F01F02012191404009800000F1E020F8
:100A4000C0F80011704700F01F02012191404009D9
:100A5000800000F1E020C0F88011704700F01F0214
:100A6000012191404009800000F1E020C0F880128F
:100A700070474907090E002806DA00F00F0000F160
:100A8000E02080F8141D704700F1E02080F8001489
:100A9000704700001C050022B90410001402100069
:100AA0004E48012101600021016070474FF008505D
:100AB000012140F8A01F00210160704710B50020FF
:100AC00000F075F8FFF7F2FFFFF7EAFF4449002056
:100AD00008604FF0E021A02081F80004002000F021
:100AE00071F8BDE81040002000F056B83C480121E4
:100AF0001C38016000210160704710B5002000F033
:100B000056F8364901200860002000F05BF8BDE887
:100B10001040002000F040B8304901201C39086026
:100B20007047304800782F49491C0978401A00F076
:100B30003F0070474FF00051027881F80022427860
:100B400081F80122827881F80222C27881F803229A
:100B5000027981F80422427981F80522827981F8AC
:100B60000622C07981F8070270471F480068417863
:100B700082784FF00050437A03741C4B1B78437407
:100B800043891B0A83744389C37401754275C17913
:100B90008175017AC175704700F01F0201219140F3
:100BA0004009800000F1E020C0F80011704700F01B
:100BB0001F02012191404009800000F1E020C0F8AF
:100BC0008011704700F01F02012191404009800010
:100BD00000F1E020C0F88012704700005C84002221
:100BE0007C0400222004002028021000AD04100024
:100BF00010B5092000F02FF80A2000F02CF8092089
:100C000000F034F80A2000F031F80521092000F046
:100C100038F805210A2000F034F84FF000517F2009
:100C200081F849007C2281F84A2081F84C0000209C
:100C300081F848001B48006890F8C800C20709D036
:100C4000820707D511F84A2FC0F38203012098408C
:100C500082430A7010BD00F01F020121914040093B
:100C6000800000F1E020C0F88011704700F01F0202
:100C7000012191404009800000F1E020C0F880127D
:100C800070474907090E002806DA00F00F0000F14E
:100C9000E02080F8141D704700F1E02080F8001477
:100CA0007047000028021000704710B50446024645
:100CB0002A21002000F06EF9221D2B21002000F0D7
:100CC00069F904F108022C21002000F063F904F115
:100CD0000C020F21032000F05DF92068000E0328AC
:100CE00025D304F114022D21002000F053F904F162
:100CF00010022E21002000F04DF904F11C022F21DA
:100D0000002000F047F904F118023021002000F023
:100D100041F904F124023121002000F03BF904F1F3
:100D200020023221BDE81040002000F033B910BD90
:100D300010B54FF00054072084F88900002004F813
:100D4000880F44F2C000608000BF00BF00BF00BF3A
:100D50004CF2C000608000BF00BF00BF00BF4CF27B
:100D6000E00060800A20FFF7A3FA44F2E000608010
:100D700000BF00BF00BF00BF4FF48040608010BDC7
:100D8000F0B5002427464FF000554FF0E00C18E076
:100D900001F03F0185F8890005F8881FA5F802C019
:100DA00000BF00BF00BF00BFAE6843F824606F8083
:100DB000883D00BF491C521E641C3F2901D9401CBC
:100DC000C0B2002AE4DCF0BD2DE9F0474FF0005539
:100DD0000026044625F88A6FDFF870920121C9F8D1
:100DE00080104FF4C058A5F8008000BF00BF00BFBE
:100DF00000BF00BF00BF4FF480572F803C20FFF79B
:100E000057FA2E80FFF794FF00F0DBF85C2000F02B
:100E1000EAF82346012208210020FFF7B1FF231D35
:100E2000012209210020FFF7ABFF04F10803012292
:100E30000A210020FFF7A4FF04F10C0301220B217B
:100E40000020FFF79DFF04F1100301220C21002078
:100E5000FFF796FF04F1140301220D210020FFF794
:100E60008FFF00F0AEF8FFF763FF2F8000BF00BFD9
:100E700000BF00BF00BF00BF00BF00BF00BF00BF7A
:100E800000BF00BFA5F8008000BF00BF00BF00BFCB
:100E900000BF00BF4FF440602880C9F88060BDE803
:100EA000F087F0B50026059C04B18026C5B2002469
:100EB0004FF00057DFF894E125E087F889505FEAAA
:100EC000C05C01F03F0C4CEA060C01D54CF0400C24
:100ED00087F888C053F824C0C7F88CC04FF0010CC5
:100EE000CEF8B0C04FF0000CCEF8B0C0491CC9B26B
:100EF000402902D36D1CEDB20021DEF8C0C0BCF168
:100F0000000FFAD1641C9442D7DBF0BD4FF00052C1
:100F100082F88900002309B1802002E0C00503D5D2
:100F2000402082F8880001E082F88830474801219B
:100F3000C0F8AC10C0F8AC30D0F8C0100029FBD11C
:100F40007047F8B50D4606464FF4F474002120466C
:100F5000FFF7DCFF00200146009033462A4620467A
:100F6000FFF79FFFF8BDF8B50D4606464FF4F8743D
:100F700000212046FFF7CAFF00214FF4FC70FFF765
:100F8000C5FF00200146009033462A462046FFF761
:100F900088FFF8BD4FF0005383F8890041F08000CE
:100FA00083F8880029480021C0F8B4100121C0F856
:100FB000B410D0F8C0100029FBD1D3F89000106015
:100FC000704710B54FF48040C40324F88A0F042002
:100FD000FFF76EF90020208000BF00BF00BF00BFF8
:100FE00000BF00BF10BD70B52126740724F88A6FBA
:100FF00000BF00BF00BF00BF00BF00BF40F0210521
:10100000258000BF00BF00BF00BF00BF00BF44F28B
:101010002101084320800420FFF74AF9258000BF02
:1010200000BF00BF00BF00BF00BF268000BF00BFE1
:1010300000BF00BF00BF00BF0020208000BF00BF76
:1010400000BF00BF00BF00BF70BD00000010002245
:10105000F8B5FA4E00252C463570F5700120B560C4
:1010600000F07EFC0C2000F07BFC032000F078FCFC
:10107000172000F075FC012000F07DFC0C2000F032
:101080007AFC032000F077FC172000F074FC00F0DD
:10109000C8FC6A460221EA4801F0F9F8E9489DF8DF
:1010A0000010E94A01709DF801001070542900D029
:1010B000042500F0B6FE0521012000F067FC0521A3
:1010C0000C2000F063FC0621032000F05FFC0621E9
:1010D000172000F05BFC012000F037FC032000F03B
:1010E00034FC172000F031FCB47074702846F8BD51
:1010F00038B50D46009014460421684613F00FFEE3
:10110000D2498978C90604D5062D01D0032D00D116
:10111000401C0099216584F84E0038BD2DE9F0414E
:10112000CA4D0446CA4E002085F8460030682A465B
:10113000214690F845076875E86AFFF7D9FF286BE4
:10114000A865E5204FF0E90C042C08D0052C06D04A
:10115000012C40D0022C3ED00A2C7DD091E0316889
:10116000AB7891F8A8219B0622F0060201D542F047
:10117000040285F84D20B1F8AA21AA86B1F8AC2165
:10118000EA8691F8AE2185F8382091F8AF2185F8EC
:101190003920B1F8B0216A87B1F8B221AA8791F855
:1011A000B42185F83E2091F8B52185F83F2091F8CB
:1011B000B71185F8451095F84610042C41F004014C
:1011C00085F84610A349C1F30E01A5F8481053D085
:1011D000052C54D055E0326892F81B1421F0060318
:1011E00069888F0601D543F0040385F84D30B2F8C5
:1011F0001C34AB86B2F81E34EB8692F8203485F8A6
:10120000383092F8213485F8393092F8223492F847
:10121000B171C90543EA07236B8792F8243492F829
:10122000B37143EA0723AB8792F8263485F83E3042
:1012300092F8273485F83F3092F8283485F8423008
:1012400003D492F82B1485F8441092F8291485F8E9
:10125000451095F8461000E028E041F0040185F8BB
:1012600046107C49F831C1F30E01A5F84810012C55
:1012700002D0022C03D004E085F84A0001E085F892
:101280004AC0A8788007306890F8660701D520F03A
:10129000030085F84B00687D20F0040068756748FE
:1012A0004470BDE8F041694800F0B2BE3168AA78E8
:1012B00091F85817920621F0060101D541F004017A
:1012C00085F84D1095F8461041F0040185F8461058
:1012D0006049F839C1F30E01A5F84810CCE75C4825
:1012E000564A0068127900F2073131F81220574946
:1012F0004A8390F8FB22CA7590F8FC220A7690F88F
:10130000FD02887700200875887570472DE9F04741
:101310004E4D0446002085F846004D4EE12085F8EC
:101320004A003068DFF830914C4B90F84517434F36
:101330006975072C06D0082C17D0062C3DD0032C3D
:101340003BD033E090F8158090F814C095F85C20FD
:1013500008F1010808FB0CF1012A03D90CFB02FC7F
:101360000CFB08F109EB410108E0FFF7B8FF30681A
:101370003A79017D51433A4A02EB4101C1F30E0132
:10138000A5F8481090F853171A7801F0F00102F010
:101390000F021143E97790F8550785F821002B4A91
:1013A00021460120FFF7A4FE2869A8656888410747
:1013B000697D21D521F0040124E0427DB7F808C001
:1013C000017D521C02FB0CF2514309EB4101C1F3B8
:1013D0000E01A5F8481090F853171A7801F0F001A3
:1013E00002F00F021143E97790F8550785F82100C4
:1013F000164A2146E868D5E7326892F8452702F098
:1014000004021143697595F84A10072C12D021F097
:10141000020185F84A108007306890F8660701D508
:1014200020F0030085F84B007C70BDE8F0470748CA
:1014300000F057BD41F00201EBE700001802100078
:1014400004100020AC041000AD041000800A10004D
:1014500028021000F89F012000800120F6FF010003
:10146000009E0120062818D0092816D0072814D07D
:10147000082812D0032810D00C280DD00D280BD02E
:101480000B2809D00A2807D0042805D0052803D046
:10149000012801D0022801D140E637E7704730B576
:1014A000FF4D8BB004460122FE48042C008808D072
:1014B000052C06D0012C0ED0022C0CD00A2C07D003
:1014C00022E0E97804291FD005291DD080071BD010
:1014D0008DF800200CE0E978012915D0022913D0FD
:1014E000410702D410F0050F0ED002208DF8000045
:1014F000684613F0A4FD684600F074FB684600F0EF
:1015000029FB684600F029FEEC700BB030BDF8B541
:10151000E34D0746012901D1002068716C79E24E44
:1015200006E056F82420694638469047012804D042
:10153000641C0E2CF5D90020F8BD6C719DF80000DC
:10154000F8BD70B5018800292BD001466022D5482E
:1015500016F025F8FFF751F9D14D0026C5E90260D4
:101560002E71687800281CD10121CE48FFF7CFFFEB
:10157000040016D0CD4901200870CD48006890F8CD
:10158000101149070ED590F8430780070AD400F0E0
:1015900038FE0220A87000F038FE192000F06CFE22
:1015A0006C7070BD2E702046FFF779FF2046BDE8B5
:1015B000704057E700207047C268120006D00088CC
:1015C000C00503D507200870012070470020704730
:1015D000C268120006D00088800503D50820087074
:1015E0000120704700207047C268120006D00088B2
:1015F000400403D503200870012070470020704785
:10160000C268120006D00078C00703D00620087018
:101610000120704700207047426A120006D000780F
:10162000000703D50920087001207047002070478B
:10163000C26A120008D0026B32B10078800603D56E
:101640000A2008700120704700207047C26A12000B
:1016500006D00078C00603D50B2008700120704723
:1016600000207047C26A120006D00078800703D5B8
:101670000C2008700120704700207047026B32B1C7
:101680000078400703D50D20087001207047002026
:101690007047C26A120007D0026B2AB10088C004EA
:1016A00002D501200870704700207047C26A1200FE
:1016B00008D0026B32B10088800403D50220087084
:1016C0000120704700207047C26A120008D0026BE8
:1016D00032B10088400503D504200870012070470E
:1016E00000207047C26A120008D0026B32B1008835
:1016F000000503D5052008700120704700207047C1
:10170000002008700120704700B589B001208DF8D5
:10171000000000F053F96748019000F5F85003907D
:1017200000F53A7004905F4881686846884709B0C0
:1017300000BD5B4B10B559780120082910D11A79EA
:101740005B4C521CD2B21A71246894F8064304F020
:101750000F04641CA24204D20846FFF783FE002057
:1017600010BD0021197110BD70B54D4C012061787C
:10177000062922D1A1684B4D491CA16095F85C2037
:1017800091421BDAE8682A4620F001000621FFF7A3
:10179000AFFC474822890068417D007D491C5143C8
:1017A000491C4143434800EB4100C0F30E00A5F83B
:1017B0004800284600F005FC002070BD0021A16013
:1017C00070BD70B53A4909684C7D097D641C4C4375
:1017D00034490A78D3070A4692F85C201FD0012AC0
:1017E0001DD9498849051AD50020324B14E0012142
:1017F00009E001FB040633F8105033F81660491C69
:10180000354423F810508A42F3DC33F9101091FB71
:10181000F2F123F81010401CA042E8D370BD02770B
:1018200070BD70B588B0FFF784FF00280ED0FFF7B9
:101830009BFF00280AD000211A48FFF768FE040029
:1018400006D0FFF72CFE2046FFF70CFE08B070BD57
:10185000134D164800246C7017490470A4200873B7
:10186000134E306890F81001400702D5AC7000F0BC
:10187000B6FC2878012837D08DF8004001208DF87B
:101880001C006846FFF79DFF064C0C4D2088400564
:1018900018D53068407D420005EB400128460FE036
:1018A00018021000800A100094770100B70410009D
:1018B000280210000080012000100020F89F012065
:1018C00015F028FE3948019000F5F050029000F51F
:1018D0008070039000F53A70CDE90405F838069061
:1018E000A16868468847B1E703208DF80000C5E786
:1018F00070B52F482F4E304C00684FF0000590F81F
:10190000101149070AD590F84307800706D4A0783C
:10191000012808D002280FD0032803D1A570FFF7B3
:10192000F3FE357070BD0220A07000F06EFCBDE8C3
:101930007040322000F0A0BC0320A0706078FFF758
:10194000AEFD6078BDE870408CE500F01F0201211B
:1019500091404009800000F1E020C0F8001170477C
:1019600000F01F02012191404009800000F1E020B9
:10197000C0F88011704700F01F020121914040091A
:10198000800000F1E020C0F8801270474907090E7E
:10199000002806DA00F00F0000F1E02080F8141DA6
:1019A000704700F1E02080F80014704700800120AB
:1019B00028021000B704100018021000FE4800238F
:1019C0000360FD481C3803604FF00851C1F8E03354
:1019D0000120C1F8E003C1F8D833C1F8D803C1F839
:1019E000D033C1F8D003C1F8D033F4480268002ADC
:1019F000FCD1F348027B42F020020273027B22F00A
:101A000040020273027B22F080020273027B22F00A
:101A100020020273C1F8D833C1F8E033E9480370FB
:101A2000704730B5E84800240460E7480C30046093
:101A30004FF00850C0F8DC430121C0F8DC13C0F8B7
:101A4000DC43C0F8D043C0F8D013C0F8D043202006
:101A5000050685F8590085F85A00D9490873A4206D
:101A60000873D648183001680029FCD1FFF7A6FF9B
:101A7000D548FC30046085F8344030BDF0B5002115
:101A8000CE4CCF4A4FF0180C4FF4F8355C272E4659
:101A9000002000EB020E2B5C401C8EF860300C28FE
:101AA000F7DB20680028FCD19176D77606F10C058B
:101AB00000EB020E2B5C401C8EF860300C28F7DB2C
:101AC00020680028FCD1481C9076D776891C06F146
:101AD0003005B1EB4C0FDADBF0BD2DE9F047924653
:101AE000089D0022C5F10801B54E01F0FF0C144617
:101AF0005B1E002189469A420BDA00EB0208875CE4
:101B000098F8018027FA05F708FA0CF847EA080761
:101B100003E007D1875C27FA05F701EB060888F890
:101B2000607003E001EB060888F8609001F10101A4
:101B300002F101020C29DEDBA0490F68002FFCD165
:101B40000AEB0401B1765C21F176641C022CD0DB37
:101B5000BDE8F08738B5002504460095006A1123DA
:101B600030222946FFF7B9FF0095182335220021BE
:101B7000606AFFF7B2FF38BD00B58BB000208DF86A
:101B80000000684613F05BFA6846FFF7E3FF0BB00E
:101B900000BD2DE9F0470024DFF82092DFF820C2D5
:101BA0002546A0464FF05C0A00219C4205DA01EB75
:101BB0000C07065D87F8606003E001EB0C0686F811
:101BC0006080491C641C0C29EFDB49460E68002E1E
:101BD000FCD151198CF81A108CF81BA06D1C032D28
:101BE000E2DBB5E710B50446406918233222002134
:101BF000FFF7CFFFA06920233722BDE81040002166
:101C0000C7E700B58BB000208DF80000684613F0E0
:101C100016FA6846FFF7E6FFB9E7F0B50024684D0D
:101C200005E0165D6719641C87F8606064B29C4229
:101C3000F7DB624A1468002CFCD1A976184340F007
:101C40001000E876F0BD70B500235D4C05E0CD5C7A
:101C50001E195B1C86F860505BB29342F7DB574954
:101C60000B68002BFCD1A07642F01000E07670BD2E
:101C700030B5564C07220220216801F24271FFF76D
:101C8000E2FF21680222092001F24A71FFF7DBFF1F
:101C9000216806220B2001F24D71FFF7D4FF206866
:101CA0004B494C4D90F85307097800F0F00001F0D3
:101CB0000F0108432870012229461120FFF7C3FFB6
:101CC00021680322162001F25771FFF7BCFF40483C
:101CD0000122401E007800F00F01206890F85A079A
:101CE00061F31F10287029461920FFF7ACFF216807
:101CF00001221A2001F25B71FFF7A5FF216804227F
:101D00001B2001F25C71FFF79EFF31480222C01CCC
:101D10002946007828702E48401C007868701F20E3
:101D2000FFF791FF21680222212001F5EC61FFF706
:101D30008AFF27480222001D29460078287024487F
:101D4000801C007868702720FFF77DFF2168012242
:101D50002A2001F26371FFF776FF216807223D20F8
:101D600001F26671FFF76FFF2068022290F86E178C
:101D7000297090F86F07687029464420FFF763FFC9
:101D800021680222462001F5EE61FFF75CFF216821
:101D90000822482001F27271FFF755FF21680822DE
:101DA000502001F27A71FFF74EFF2168052258207A
:101DB00001F2847110E000001C0C0022040B0022D0
:101DC0000010002019021000440400222802100014
:101DD000F6FF0100E00A1000FFF735FF22684FF020
:101DE000005592F88F0705F8530F0123FA210020C0
:101DF00002F28A72FFF711FF226801230E21C02030
:101E000002F28C72FFF709FF226801231421C0201F
:101E100002F28D72FFF701FF332068740B20A87463
:101E200030BD10B5FFF724FFFFF7EBFEFFF7A4FE70
:101E3000BDE8104022E638B5FF4C026D0092054621
:101E40006273100AA073100CE073100E2074042249
:101E500069462B20FFF7F7FE012205F14E012F20E6
:101E6000FFF7F1FE95F84E00A074A86D0090E074A5
:101E7000010A2175010C6175000EA07504226946E6
:101E80003520FFF7E0FE0098800F84F84000EB4912
:101E9000012208703920FFF7D6FE38BD00EBC001E3
:101EA00001EB00106FF0030101EB800010B5E44975
:101EB000E44B09781A6890FBF1F0401EC1B201248E
:101EC00060075AB100221A6080F8341090F83F1071
:101ED00090F83F208A42FBD01C6010BD80F834107F
:101EE000FAE77CB5044600208DF804002046FFF791
:101EF000A2FF4FF00050B4F8481020F8541F217D85
:101F000000F8011C94F84A104173CB4DA07D85F870
:101F10003600CD4E306890F842078DF80000618899
:101F2000890503D520F012008DF8000001226946D2
:101F30000220FFF788FE042204F115010520FFF7B7
:101F400082FE31680222092001F24A71FFF77BFE0E
:101F5000022204F11A010C20FFF775FE022204F19F
:101F60001C010E20FFF76FFE052204F11E01102058
:101F7000FFF769FE306890F80907C0070AD0012210
:101F800001A94420FFF75FFE022204F140013F2037
:101F9000FFF759FE012204F14B013D20FFF753FEEC
:101FA000012204F14C014420FFF74DFEA7480168CF
:101FB0000129FCD194F84A0028732320FFF76EFF13
:101FC0007CBD38B504469C4D006D00906873010AD5
:101FD000A973010CE973000E2874042269462B20B2
:101FE000FFF731FE012204F14E012F20FFF72BFEF7
:101FF00094F84E00A874680434F8481F20F8541F61
:10200000A1784173A07828732320FFF747FF38BDDC
:102010007EB50446FFF70FFF4FF00050B4F84810AC
:1020200020F8541F94F8431000F8011C94F84A104B
:102030004173854E306890F842078DF80000618842
:10204000890503D520F012008DF8000001226946B1
:102050000220FFF7F8FD012204F115010520FFF72A
:10206000F2FD94F84600744DC00709D0316891F82C
:10207000950785F836000122062001F2957107E0E8
:1020800094F8440085F83600012204F1440106204A
:10209000FFF7D9FD012204F142010720FFF7D3FD2C
:1020A000012204F145010820FFF7CDFD316802222D
:1020B000092001F24A71FFF7C6FD306890F8090760
:1020C000C00707D000208DF80800012202A9442093
:1020D000FFF7B9FD012204F14D011720FFF7B3FD11
:1020E00094F84A00400701D5042000E002208DF852
:1020F0000400012201A91820FFF7A5FD022204F126
:1021000034011B20FFF79FFD022204F136011D2040
:10211000FFF799FD012204F138012120FFF793FD1B
:10212000012204F139012220FFF78DFD012204F183
:102130003F012A20FFF787FD012204F14B013D20DA
:10214000FFF781FD414801680129FCD194F84A005C
:1021500028732320FFF7A2FE7EBD30B50446C06978
:10216000364D0122007800F00F013748006890F8E2
:102170005A0761F31F10287029461920FFF763FDE5
:10218000E06802222946007828706068007868704C
:102190001F20FFF758FD2069294602220078287089
:1021A000A06800786870BDE8304027204BE52649DC
:1021B0000A6892F84D270270096891F85517017363
:1021C000704710B50446014601220B20FFF73BFD86
:1021D00004F10C010122BDE81040132033E516493B
:1021E00008B504200873184801226946006890F871
:1021F000430720F008008DF800000320FFF723FDBF
:1022000008BD0D4920200873704718B5104C0122F5
:102210006946207840F0F0008DF800001046FFF786
:1022200012FD0549C020087320788DF800000122B6
:10223000694610460EE0000000100020E00A100081
:10224000B90410004005002228021000000B0022F3
:102250006C041000FFF7F7FC18BD30480168002936
:1022600009D0002101604FF0005090F83F1090F825
:102270003F208A42FBD070472849002240390A603B
:102280004FF0005282F82D0001200860704770B5B1
:10229000234C2368002BFCD11D4603E0C6185B1CB1
:1022A00086F880508B42F9D32368002BFCD102E0E2
:1022B000C45CD4545B1C8B42FAD370BD10B513F0D0
:1022C00083FCFFF7CAFF1748007878B11448183824
:1022D00001680029FCD11448C078400602D5134992
:1022E00001200870BDE81040FFF79BBA104900209C
:1022F000087010BD10B513F067FC08490020403984
:102300000860BDE81040FFF7F3BA10B513F05CFCAD
:10231000FFF7A3FFBDE81040FFF7EABA400500222F
:102320001C0B0022190210000010002018021000DF
:10233000B7041000F0B50746002004460D4E15E026
:1023400057F8245003234FEAC30C45FA0CF280EAF5
:1023500002600822002802DA86EA400000E040001D
:10236000521E002AF6DC5B1EEDD5641C8C42E7DBB6
:10237000F0BD00001B000080124880471248004753
:10238000FEE7FEE7FEE7FEE7FEE7FEE7FEE7FEE725
:10239000FEE7FEE7FEE7FEE7FEE7FEE7FEE7FEE715
:1023A000FEE7FEE7FEE7FEE7FEE7FEE7FEE7FEE705
:1023B000FEE7FEE7FEE7FEE7FEE7FEE7FEE7FEE7F5
:1023C000FEE7000001240000C50000002648006868
:1023D0004FF00051002891F8210000F01C000DD0B2
:1023E000042805D0082805D00C2805D096200CE03C
:1023F00011200AE0252008E04B2006E0042809D03F
:10240000082809D00C2809D07020401E01F82C0F94
:10241000087070470C20F8E71B20F6E73720F4E738
:1024200070474FF00051D32081F821000E49012060
:102430000860CBE74FF000510B2081F821000A49DA
:1024400001200860C2E7084801684FF0005090F88A
:10245000210011B1F32804D001E0932801D000201D
:1024600070470120704700003404002210B5014677
:102470002022F84815F093F8BDE810404FF40061B1
:102480000120FEF715B870B59AB0064614460D4601
:10249000684613F0FAFAF0480078012808D0EF48AF
:1024A0000278072A01D0062A02D1684603F087F98C
:1024B000E00702D00120ADF80000600608D5E84929
:1024C00000200870BDF8000040F48060ADF8000006
:1024D000200605D5BDF8000040F48050ADF800009E
:1024E000600705D5BDF8000040F00600ADF800001B
:1024F000ADF81A60ADF83A50ADF83450AFF2930031
:10250000D44E03244FF4006502906846FFF719F893
:1025100018AB002229460120FEF719F829460120B0
:10252000FDF7F4FF3078002804D012F066F8641E3E
:10253000002CEADC1AB070BD2DE9F041C94A002632
:10254000314612683446430503D592F86D12402493
:10255000090910F4D17F04D092F86D1244F00404FC
:10256000090910F0050F04D092F86C3244F0010410
:102570001E09C00604D592F86C0244F00204060954
:102580008E4200DA0E46761C002C0AD00025B64F8B
:1025900005E0F98878882246FFF775FF6D1CB54283
:1025A000F7DBBDE8F0812DE9F35FDFF8B8920E4666
:1025B000D9F80000447D017D90F86C02641C00F0A5
:1025C0000F074C434FF48851A8487F1C15F043F87F
:1025D0000025DFF89882DFF890A2DFF878B219E0E2
:1025E000BAF8061001220098FFF74DFFA049DBF86A
:1025F000040002F0D1FF9E490020424607E052F855
:10260000203031F910C0634442F82030401CA04211
:10261000F5DB6D1CBD42E3DBD9F800004D4690F8B8
:102620006C0200F00F018D48491C0078072804D087
:10263000062802D00020434628E00020434606E05A
:1026400053F8202092FBF1F226F81020401C2A6853
:10265000127D02EB42028242F2D8D9F80020507D6E
:10266000127D401E504306E053F8202092FBF1F209
:1026700026F81020401CA042F6DBBDE8FC9F53F872
:10268000202092FBF1F226F81020401CA042F6DB3D
:10269000F3E72DE9FC4712F034FC009012F070FCD7
:1026A00001900421684612F03AFB0446042101A877
:1026B00012F035FB6B4E204444003068A10090F8C6
:1026C0006D0200F00F0769487F1C14F0C4FF00255D
:1026D000DFF880A1DFF89491B04621E06248402203
:1026E000C1884088FFF7CFFED8F80010DAF81460F0
:1026F00091F89417C90705D032463046DAF8101021
:1027000002F099FC0020494607E051F8202036F9F4
:1027100010301A4441F82020401CA042F5DB6D1C0B
:10272000BD42DBDBD8F800000021504E90F86D026E
:10273000454600F00F024B46521C06E053F82100BC
:1027400090FBF2F026F81100491CA142F6DB494942
:10275000304612F0DCFB4849304612F012FC286883
:102760004FF0000690F8C10240061ED543480024F1
:10277000068013E0407D42494200604301EB400087
:102780003C4914F0C7FE28683E49007D4200604382
:1027900001EB4000384914F0BDFE641C286890F835
:1027A000BE12C1F30111A142E4DC286890F869125D
:1027B000890710D5344C2660417D2E4813F08DF8E2
:1027C0002168084420602868017D2B4813F085F8B3
:1027D000216808442060BDE8FC872DE9FC4712F021
:1027E00090FB009012F0CCFB01900421684612F09F
:1027F00096FA0446042101A812F091FA194E2044D9
:1028000044003068A10090F86D0200F00F071748EF
:102810007F1C14F020FF0025DFF838A0DFF84C9073
:10282000B0463EE010488022C1884088FFF72BFE6A
:10283000D8F80010DAF8186091F89417C90705D095
:1028400032463046DAF8101002F0F5FB0020494617
:1028500024E00000F00A1000D7021000A4041000C9
:102860005104100028021000345310001C411000C5
:102870001E39100078050120B40501204204100023
:10288000140A0120C80A0120B803100051F82020C2
:1028900036F910301A4441F82020401CA042F5DBE4
:1028A0006D1CBD42BEDBD8F800000021764D90F8CB
:1028B0006D024A4600F00F035B1C06E052F821004F
:1028C00090FBF3F025F81100491CA142F6DB6F499B
:1028D000284612F01CFB6E49284612F052FB6D4947
:1028E0000120087077E770B504460020FDF7CDFEA3
:1028F0000320FDF7CAFE684D286890F86912C907E1
:1029000001D124F4006490F8B811C90701D124F072
:10291000620490F80513490701D424F0040490F8E8
:10292000CE1009B924F0100490F81A04C00701D1A0
:1029300024F4805459490020401C8842FCD32005CF
:1029400002D52046FFF7F8FDE00743D0544855492B
:102950004088FFF728FE286890F8690280070AD5AA
:10296000504812F0BDFE50490123504A086001460C
:102970004C4812F0EAFE28684D4A90F84C1051B1CC
:102980004C490978962906D14A49491C0978A52954
:1029900001D10021117090F84814CB071AD0127899
:1029A000C2B18A0713D490F8CC2052070FD490F804
:1029B000692412060BD490F87024120607D40A0674
:1029C00005D4490603D490F85704C00702D0204626
:1029D00002F041F8600501D5FFF75BFEE00401D588
:1029E000FFF7FBFE34490120087003F0FDFB0020D7
:1029F000FDF766FEBDE870400320FDF761BE2DE9DE
:102A0000F0412E4801242E4E0470002535604FF011
:102A1000E0206106C0F88012C0F8001105200F0107
:102A200087F836004FF448702E37FDF741FC2448F4
:102A300044380560FF21397034600460B1E52048F6
:102A4000002230B444380260C10691F83A004FF0D9
:102A5000E0240B11C4F88031C0F1FB0091F836106E
:102A6000C0B2491CB0FBF1F012491431087013498F
:102A70000A70104A55211232117012490870191348
:102A800030BC0120FDF742BD1C411000C8EA012006
:102A900004EB01207C0410002802100020A1070094
:102AA00034531000E0D80120880410009452100024
:102AB0006F041000E0FF010050041000B604100085
:102AC00048050022B9041000F0B5F54900204F6810
:102AD000F4490B685A7D197D521C01FB02F61CE07B
:102AE00037F91120002A02DC40F0200014E040F603
:102AF000FF74A24202DB40F010000DE0B3F8B556BF
:102B0000B3F8444005EB040C944505DA2D1B9542BF
:102B100002DD0CB140F04000491C8E42E0DCF0BD0B
:102B200010B501462022DE4814F039FD8021BDE8B1
:102B300010400120FDF7BCBC30B599B00446684692
:102B400012F0A3FF012C07D10120ADF800000020F6
:102B50008DF816008DF81400BDF80200AFF23F01A9
:102B600040F48670CE4D0291ADF802000324684611
:102B7000FEF7E7FC18AB002280210120FDF7E7FCFF
:102B800080210120FDF7C2FC2878002804D011F034
:102B900034FD641E002CEADC19B030BD2DE9FF5F66
:102BA0004FF0000812F031FA044612F03FFA834663
:102BB000600802904FF4F061BB4814F02AFD182021
:102BC0000190B7488021203014F045FD002000908E
:102BD0000120FFF7B1FFB248D0F80490B148006877
:102BE000047D01200025039084E00122029902FA6D
:102BF00005F008427DD00027012000FA07FA1AEA02
:102C00000B0F6BD0A648203050F8250010EA0A0FB1
:102C100063D13946284611F0A7FF0646A14839F985
:102C200014200368B3F8B5168A424BDCDFF878C28B
:102C30003CF914C0BCEB0100A2EB010100D54042FD
:102C4000002900DA494288421ADC761EF6B2324682
:102C50003946284612F026FA934830F9141039F90B
:102C60001400081A00D5404280448E48006890F84D
:102C70004627007D02F00F0201FB021109B211E0AC
:102C80008949BCEB020000D5404221F81420804461
:102C900093F8461739F9140001F00F0100FB010009
:102CA00001B2187D201A80B212F036FB7F4820F85E
:102CB00014607B48203050F8251041EA0A0140F8A2
:102CC00025100AE0761CF2B23946284612F0EAF9DD
:102CD000754839F8141020F81410641C7F1C202F3C
:102CE0008ADB6F48203050F82510594501D000206C
:102CF00003906D1C01988542FFF677AF039838B9B1
:102D0000FEF7BCFE0098401C00904028FFF660AF24
:102D100064484FF0010900260068CA46057D1DE0A1
:102D200002990AFA06F05246084216D0002492464A
:102D30000AFA04F010EA0B0F0CD05C48214610F898
:102D4000157030463A4612F0ADF93F2F01D34FF0DF
:102D500000096D1C641C202CEADB761C019886425D
:102D6000DEDBB9F1000F02D1032011F06CFCFEF79D
:102D700085FE0120FFF7E0FEFFF7A6FE0446494866
:102D80000268107D517D4843B8FBF0F192F8460788
:102D900000F00F0000FB011000B212F0D5F904B0F2
:102DA0002046BDE8F09F2DE9F05F3E4B186890F893
:102DB0001017CC073E490A7802F0F00713D00F70C5
:102DC0000024427D067D521C25469B4606FB02F9E7
:102DD0008A460120FFF7B0FE31480023DBF80020CF
:102DE000416830460DE090F8BF0600F00F00384310
:102DF0000870D6E731F910C0B2F8B386C445D0DB0D
:102E0000401C8145F6DC002BCBD10F2C08D2641C72
:102E1000E4B247EA04006D1C8AF80000102DD8DBEC
:102E2000BDE8F05F022011F00EBC70B501244FF434
:102E300004614FF4F83014F00EFCFEF71FFEFFF7AC
:102E4000B2FFFFF7ABFE174D44EA006418482A684A
:102E5000401D017892F8FB2701F0F00102F00F020B
:102E600011430170134812F0FBFB204603F0A2FB54
:102E7000286890F8A001C00702D0012000F0F5FCFE
:102E8000286890F81A04C00704D0BDE870400220FA
:102E900000F0EBBCBDE87040422003F08BBB0000AB
:102EA000100B100028021000A0C0012020C8012033
:102EB000F6FF01001C5210002DE9F04F0020DFF852
:102EC00004A404460246012740F6FF7BFE49DAF8D7
:102ED00014C0DAF80490096807FA02F313EA090F3C
:102EE00019D03CF91430002B02DC40F0200011E036
:102EF0005B4502DB40F010000CE0B1F8B756B1F8CA
:102F0000C26605EB0608984502DBAD1B9D4201DD5C
:102F100040F04000641C521C202ADDD3B946002436
:102F2000DAF808C0DAF81870224609FA02F313EA50
:102F30000C0F19D037F91430002B02DC40F02000C0
:102F400011E05B4502DB40F010000CE0B1F8BB562D
:102F5000B1F8C46605EB0608984502DBAD1B9D423F
:102F600001DD40F04000641C521C202ADDD3BDE886
:102F7000F08F10B501462022D44814F010FB8021B8
:102F8000BDE810400120FDF793BA30B599B0044672
:102F9000684612F07AFD2078012802D0022807D175
:102FA00002E04FF4806001E04FF48050ADF8000083
:102FB00000208DF844008DF84300C2484168490064
:102FC0000B9180680C90BDF80200AFF2590140F4FB
:102FD0008670BE4D0291ADF8020003246846FEF7EC
:102FE000B0FA18AB002280210120FDF7B0FA802151
:102FF0000120FDF78BFA2878002804D011F0FDFAA3
:10300000641E002CEADC19B030BD2DE9F84F0446EF
:10301000DFF8BCA2DFF8BC92006A212114F0F9FAB3
:103020003021606A14F0F5FA2046FFF796F8204642
:10303000FEF790FD0420009003263C21504614F03A
:10304000E8FA3C21484614F0E4FA4FF00008204624
:10305000FFF79BFFF0073CD04FF0000B5D465F464B
:1030600098490120B840496808422AD03846216A68
:1030700012F0CAFA9349496931F915209249096851
:10308000B1F8C6168A421BDA00994FF0010B0844CA
:10309000C1B23F2900D93F213846226A12F0C7FA4F
:1030A000894988480968406991F8931730F91500F3
:1030B00001F00F0100FB010001B2A8B212F035F9D6
:1030C0006D1C7F1C202FCBD3BBF1000F01D126F04C
:1030D0000106B0073CD54FF0000B5D465F467949CD
:1030E0000120B840896808422AD03846616A12F047
:1030F0008BFA7449896931F9152073490968B1F867
:10310000C8168A421BDA00994FF0010B0844C1B27D
:103110003F2900D93F213846626A12F088FA6A498D
:1031200068480968806991F8931730F9150001F033
:103130000F0100FB010001B2A8B212F0F2F86D1C01
:103140007F1C202FCBD3BBF1000F01D126F002064C
:103150005EB12046FFF701F82046FEF7FBFC08F1C0
:103160000108B8F1640FFFF672AF03264FF0000BB1
:103170002046FFF70AFFF0075AD000200546074611
:103180000090DFF840810120B840D8F804100842D0
:1031900047D03846216A12F037FAD8F8141031F9BE
:1031A00015304949D1F800C0BCF8C62693420FDD5E
:1031B00070B101210091401EC1B23846226A12F05E
:1031C00036FAD8F8140030F815102AF8151027E050
:1031D0003AF91580B8EB0201A3EB020200D549428F
:1031E000002A00DA5242914210DC401CC1B238463B
:1031F000226A12F01CFA34493AF91500096891F86C
:10320000931701F00F0100FB010005E09CF8930704
:1032100000F00F0003FB003001B2A8B212F085F8F5
:103220006D1C7F1C202FACD3009808B926F0010636
:10323000B00766D50020054607460090DFF8848079
:103240000120B840D8F80810084253D03846616AC7
:1032500012F0DAF9D8F8181031F915301A49D1F806
:1032600000C0BCF8C82693420FDD70B10121009167
:10327000401EC1B23846626A12F0D9F9D8F8180077
:1032800030F8151029F8151033E039F91580B8EB2E
:103290000201A3EB020200D54942002A00DA5242A1
:1032A00091421CDC401CC1B23846626A12F0BFF980
:1032B000054939F91500096891F8931701F00F01D4
:1032C0000AE000002C02100028021000B00B1000D1
:1032D00098090120D409012000FB010005E09CF8B9
:1032E000930700F00F0003FB003001B2A8B212F008
:1032F00018F86D1C7F1C202FA0D3009808B926F069
:103300000206002E0BD02046FEF727FF2046FEF7D0
:1033100021FC0BF1010BBBF1640FFFF629AFBDE8F7
:10332000F88F2DE9F04106460020F169087021214F
:10333000306A14F06EF93021706A14F06AF9304680
:10334000FEF708FC3046FEF708FFFA4F002530462E
:10335000FFF71BFED7E904320024204605E032F9CE
:103360001010A14200DD0C46401C9842F7DB002003
:10337000FB68BA6905E032F91010A14200DD0C4685
:10338000401C9842F7DB002C0BDCF16908780F2811
:1033900004D8401C08703046FEF7DFFE6D1C202D5F
:1033A000D5DB40F6FE70844208DDF0690178491EE5
:1033B00001703046BDE8F041FEF7CFBEBDE8F081B8
:1033C0002DE9F0434168DFF86CC3002391F80080D9
:1033D00081684769DCF8046091F800901A46194644
:1033E000012505FA01F4344203D07C5C9C4200D9EB
:1033F0002346491C2029F4D38669DCF80870002193
:1034000005FA01F43C4203D0745C944200D9224690
:10341000491C2029F4D3C16803EB0804FF250B7075
:1034200001690A7002EB09018C4212D2091B19448E
:10343000FF2902D8C368197007E0C1680D70DCF875
:10344000001041F08001CCF8001000690270BDE866
:10345000F083A14211D2611A1144FF2902D80269F6
:10346000117007E001690D70DCF8001041F0800177
:10347000CCF80010C0680370E9E7C1680B70E4E79E
:103480002DE9F0410021AB4EAB4F426904460125C6
:103490008C46736805FA01F018420AD03868535C0C
:1034A00090F8CB06834202D9181A505401E002F872
:1034B00001C0491C2029ECD3A1690020B36805FA9A
:1034C00000F21A420AD03B680A5C93F8CB369A4263
:1034D00002D9D21A0A5401E001F800C0401C202889
:1034E000ECD32046FFF76CFF2046BDE8F041FEF725
:1034F00079BB2DE9F14F2C210098D0E905653046C4
:1035000014F087F84021284614F083F80098FFF75C
:1035100057FF0098FEF721FE0098FEF763FB032497
:10352000DFF814B24FF0040900274FF0010A0098A9
:10353000FFF72BFDA00746D00023DFF8F8811A46DD
:103540001846D8F804C00AFA00F111EA0C0F11D09D
:10355000D8F8141031F912C0DBF80010B1F8B91620
:103560008C4506DA315C01234944FF2900DDFF2147
:103570003154521C401C2028E3D30BB924F0010421
:1035800000231A461846C6460AFA00F1DEF80880FB
:1035900011EA080F11D0DEF8181031F912C0DBF86B
:1035A0000010B1F8BD168C4506DA295C01234944A8
:1035B000FF2900DDFF212954521C401C2028E3D3A1
:1035C0000BB924F002045CB10098FFF7F9FE0098F3
:1035D000FEF7C3FD0098FEF705FB7F1C642FA6DBFA
:1035E000032400270098FFF7D0FCE00721D0002338
:1035F000DFF840C119461846DCF804800AFA00F2E8
:1036000012EA080F0FD0DCF8142032F91180DBF831
:103610000020B2F8B926904504DD325C12B10123D6
:10362000521E3254491C401C2028E5D30BB924F00B
:103630000104A00721D50023DFF8F8C01946184679
:10364000DCF808800AFA00F212EA080F0FD0DCF862
:10365000182032F91180DBF80020B2F8BD26904521
:1036600004DD2A5C12B10123521E2A54491C401C5D
:103670002028E5D30BB924F00204002C0BD00098CD
:10368000FFF79EFE0098FEF768FD0098FEF7AAFA85
:103690007F1C642FA6DB42E670B4274E00210D4646
:1036A000346894F8102792070AD5426894F8CA46FD
:1036B00001211378A34202D91B1B137000E015707F
:1036C000346894F8102752070BD5826894F8CA46DC
:1036D00041F002011378A34202D91B1B137000E0D2
:1036E0001570002901D070BC6AE670BC70472DE9E6
:1036F000F047114A0446002510682E4690F810172E
:10370000890703D560680125067008E02178012942
:1037100001D0022903D1616890F8C00608701068D2
:10372000914690F81017490708D5A06845F00205A2
:1037300006700CE02C0210002802100021780129EC
:1037400001D0022903D1A16890F8C1060870002DAC
:103750006FD02C21606913F05CFF4021A06913F049
:1037600058FFE06921210670206A13F052FF3021D2
:10377000606A13F04EFFE168FF200870216908704D
:103780002046FEF72FFA2046FEF7E4F92046FEF722
:10379000E4FC4FF01008DFF8D8A147460026204689
:1037A000FFF7F3FBE80727D0DAE9043C00210846DD
:1037B00005E03CF910208A4200DD1146401C984289
:1037C000F7DBD9F80000B0F8B7268A4206DA60685D
:1037D0004FF001080178491E01700DE0B0F8CC06E9
:1037E000884207DB616808784044FF2800DDFF203D
:1037F000087001E025F00105A80729D50021084639
:10380000DAF818C0DAF80C3005E03CF910208A42EA
:1038100000DD1146401C9842F7DBD9F80000B0F8F3
:10382000BB268A4206DAA0680178491E017001278A
:103830000EE018E0B0F8CC06884207DBA1680878F3
:103840003844FF2800DDFF20087001E025F0020564
:10385000002D08D02046FFF7B3FD2046FEF77DFC83
:10386000761C202E9BDBBDE8F087F0B5414D8BB078
:10387000012129708DF80000684611F0E0FB3C4CF6
:103880000026266011F03DFB606011F079FBA0601E
:103890006068042140086060201D11F040FA20613A
:1038A000042104F1080011F03AFAE0606846FFF7DD
:1038B0006CFB9DF800003049012802D0022805D198
:1038C00001E0486900E088696061A061D4E9040111
:1038D00001EB40016161E16801EB4000A16901EB8E
:1038E0004000A0616846FFF702FF6846FFF7D4FE7C
:1038F000224F386890F81007800605D56846FFF714
:10390000F8FD6846FFF7BCFD386890F8100700071F
:1039100002D56846FFF705FD386890F81007C00625
:1039200002D56846FFF771FB6846FEF716FC68464D
:10393000FFF72BFBFFF7C0FA216801432160104815
:103940003A68037892F8FB2763F3030202709DF84C
:103950000000012802D0022807D102E041F00E0049
:1039600001E041F0020002F025FE2E700BB0F0BD28
:103970002C0210006E041000B00B10002802100082
:10398000FBFF010010B501462022A34813F007FEFB
:103990008021BDE810400120FCF78ABDF0B59F4FA3
:1039A00006460D46386899B090F8C30200F00F0142
:1039B0004FF0FF30491C8840C443684612F065F858
:1039C0000120ADF80000ADF802503A6892F8FB0211
:1039D0008DF8170045F00500ADF802000394ADF82E
:1039E0001A60AFF25F00029092F8FC028DF81800A6
:1039F00092F8FD02884D8DF81E0003246846FDF7FD
:103A0000A0FD18AB002280210120FCF7A0FD802141
:103A10000120FCF77BFD2878002804D010F0EDFD94
:103A2000641E002CEADC19B0F0BD2DE9FC5FDFF864
:103A3000ECA100242746DAF80000A04690F8FF62C7
:103A400090F80013009190F801B34FF00850D0F8AF
:103A50008C0108B94FF001080020019036E0DAF837
:103A60000000002590F8020300EB80004FEA4009B7
:103A700022E030460199FFF791FF674840680EF059
:103A800083FD0146DAF8000090F8FA0210F00F0208
:103A900000D1012200094843B0FBF2F087B2B8F12F
:103AA000000F07D0B4F5707F04D25D4820F8147081
:103AB000641CA4B26D1CADB24D45DAD93A4631460C
:103AC000302002F0BEFD06EB0B0086B20098864265
:103AD000C5DDBDE8FC9F2DE9FF5F4FF6FF764FF097
:103AE000000A93468846074635465446DFF82C912F
:103AF0001CE037F814005146FFF750FF4648406875
:103B00000EF042FD0246D9F8000090F8FA1211F0CA
:103B10000F0000D1012009095143B1FBF0F080B240
:103B2000A84202D237F814600546641C4445E0DB25
:103B3000ABF8006003980580BDE8FF9F2DE9F041D8
:103B4000364E05468846306888B090F8062302F065
:103B50000F01C2F30214491C641C0A2900DD0A216A
:103B6000022C00DD022406AB05AA00F20730FFF7A5
:103B7000B2FF336893F8050300061CD5BDF8146046
:103B80000121ADF8006000224FF4803C6F4603F540
:103B9000477307E098563044604502D227F8110079
:103BA000491C521CA242F5DB002904DD06AB05AA24
:103BB0003846FFF790FFBDF814002880BDF81810B4
:103BC000A8F8001008B0BDE8F0817CB50020FCF733
:103BD0005CFD144C01A968466588FFF7AFFF0F48EC
:103BE000BDF804200068B0F81903904201D9208084
:103BF00000E02280BDF8000060800020FCF760FD3E
:103C000009490120087009490870BDF800202946BB
:103C1000092002F0F7FC7CBDD00B10002802100038
:103C200020C801203453100050041000AF041000CD
:103C300010B511F04BF94008400010BD7CB54FF4B1
:103C4000F83040F6FB7113F0E4FCFEF711F8FDF7D5
:103C5000D8FFFDF713FFFF4C002020702063606346
:103C6000A063E06320646064A064E0642065606534
:103C7000A065E0656060E06120626062A062E06271
:103C8000FFF7D6FF009011F02FF90190042168464C
:103C900011F045F80546042101A811F040F800EBA9
:103CA0004501C4E90315C4E905507CBD2DE9F04187
:103CB000174604460D46002609E0E00703D03146CA
:103CC000384602F0CDFB761C6D084FEA340454EA06
:103CD0000500F2D1BDE8F08130B5044600204FF078
:103CE000FF32012505FA00F30B4202D0521CA2421A
:103CF00003D0401C2028F5D3002030BD30B50B4642
:103D0000012505FA03F2D34C12286DD2DFE800F04A
:103D10006C485109126C6C1B242D363F5A5E626C44
:103D20006C6B1846216EFFF7D7FF8540606B05432B
:103D3000656359E01846616EFFF7CEFF8540E06C81
:103D40000543E56450E01846216EFFF7C5FF854046
:103D5000A06B0543A56347E01846216EFFF7BCFF43
:103D60008540E06B0543E5633EE01846616EFFF772
:103D7000B3FF8540606D0543656535E01846216EEB
:103D8000FFF7AAFF8540206C054325642CE0184608
:103D9000616EFFF7A1FF8540A06D0543A56523E097
:103DA0001846216EFFF798FF8540206B0543256379
:103DB0001AE01846616EFFF78FFF8540A06C05433F
:103DC000A56411E0606C024362640DE0E06D0243A3
:103DD000E26509E01846616EFFF77EFF8540206DC1
:103DE0000543256500E025706068401C606030BDBB
:103DF00010B501462022984813F0D1FB8021BDE880
:103E000010400120FCF754BB2DE9F0410D46064659
:103E10004FF0FF3411F068F803460020DFF834C299
:103E20000246012707FA02F1194200D0641CB4428D
:103E300006D1012D08D023EA0100CCF80820202269
:103E4000521C202AEED345E70846F6E72DE9F0415B
:103E50000D4606464FF0FF34FFF7EAFE034600200A
:103E6000DFF8F0C10246012707FA02F1194200D03B
:103E7000641CB44206D1012D08D023EA0100CCF81D
:103E800008201E22521C1E2AEED923E70846F6E718
:103E90002DE9F0419EB004468846684611F0F5FDD4
:103EA00018A8FEF784F9FFF7C3FE6A4F400838668A
:103EB00011F01AF80025694E7866012C34D0FFF70E
:103EC000B7FE0B9011F010F80C902020ADF8000018
:103ED0003168022C91F86A038DF8420091F86B0367
:103EE0008DF8450091F868038DF8380091F8690362
:103EF0008DF83E00B1F86C03ADF83400B1F87003F2
:103F0000ADF83A00B1F86E03ADF83600B1F87203BF
:103F1000ADF83C0055D0032C2CD0042C2FD0052C10
:103F200036D0062C3DD04CE00120ADF800000C202E
:103F3000ADF81A001F208DF8180040208DF81700EA
:103F400095208DF81E008DF81F503C20ADF81C0008
:103F500003984008386604987866306890F84D07F2
:103F60008DF86C5040F003008DF8600018A8FEF743
:103F700028F926E010F0B8FF01210C9003E010F0C2
:103F8000B3FF00210C904046FFF760FF0B9018E054
:103F9000FFF74EFE0B9001214046FFF735FF0C90D6
:103FA0000FE091F863038DF8420091F864038DF8F7
:103FB000450091F861038DF8380091F862038DF89F
:103FC0003E00BDF802008DF8145020F030008DF84E
:103FD000165040F008008DF844508DF84350ADF86D
:103FE0000200AFF2F3101C4D032402906846FDF767
:103FF000A8FA1CAB002280210120FCF7A8FA80213E
:104000000120FCF783FA287828B10020641E002CD8
:10401000ECDC1EB05EE60120FBE72DE9FC5F002131
:104020000120FFF735FF08B30B48D0F8049010F0DB
:10403000ECFF019010F0FAFF0090042101A810F0AD
:104040006EFE07460421684610F069FE8446002093
:10405000064605E048021000F00B10002802100090
:10406000DFF810B44FF0010A009052E00021112057
:10407000FFF744FEBDE8FC9FFF4C0025A8463046F4
:10408000616EFFF729FE616D0AFA00F008423FD128
:1040900001242EE004FB0C61DBF8000039F911204B
:1040A00090F86703B2EB001F22DA6D1CB8F1000F25
:1040B00000D1A0467A1E94421AD1012D18D1ACF13C
:1040C0000102964204D1611E0120FFF717FE0EE0A7
:1040D00009EB4101B1F90220B2EB001F05DB36B15B
:1040E00031F9021CB1EB001F01DA002500E00225C6
:1040F000641CBC42CEDBA7EB0800A84208D83146BE
:104100000220FFF7FBFD00990AFA06F00843009031
:10411000761C6645B0DB012533E00026344628E0F6
:10412000D5490020CB6C4A6D1A430FD08846496EA2
:104130002046FFF7D1FDD8F854100AFA00F00842E3
:1041400003D1D8F84C10084000D0012005FB0C42E8
:10415000DBF8001039F9122091F86713B2EB011F58
:1041600006DA28B900990AFA04F0084200D1761C50
:10417000641C6445D4DB1EB1691E0120FFF7BEFD3F
:104180006D1CBD42C9DB75E72DE9F041BA4E002038
:104190000546BA4FDFF8DC82F0611FE029460520B2
:1041A000FFF776FEF0B171690120FC6800EB410C6D
:1041B00034F91C10D8F8000090F87703B1EB001F19
:1041C00003D929460E20FFF799FD34F91C00F16947
:1041D000884202DD34F91C00F0616D1CB069854233
:1041E000DCD377E5BDE8F0410021112086E52DE91B
:1041F000F04100210620FFF74BFE28B19F48002424
:104200009C4F9D4EC56813E0BDE8F0410021112090
:1042100074E530693968204435F9100091F8651368
:10422000B0EB011F03DD21460A20FFF767FD641C88
:1042300070698442EDDB00240EE0F06839682044A8
:1042400035F9100091F86613B0EB011F03DD21462C
:104250000B20FFF753FD641CB0698442EDDB39E5A8
:104260002DE9F041844F0020064678623DE031465A
:104270000420FFF70DFE18B180480024C56830E027
:10428000BDE8F0410021112038E510F02DFE014677
:104290002046FFF721FD014601208840F96C0842C5
:1042A0001ED17449F8682044096805EB400030F9D4
:1042B000040C91F87813B0EB011F07D931460820A0
:1042C000FFF71CFD21460920FFF718FDF868796A01
:1042D000204405EB400030F9040C884200DD786290
:1042E000641CB8698442D0D3761C78698642BED3F8
:1042F000F0E42DE9F041604E002005465F4FDFF805
:10430000748130621BE029460320FFF7C1FDD0B164
:10431000FC68B4F90210D8F8000090F87603B1EB0D
:10432000001F03D929460720FFF7E8FCB4F9020073
:10433000316A884202DDB4F9020030626D1C706996
:104340008542E0D3C6E4BDE8F04100211120D5E468
:104350002DE9F04100210220FFF79AFD50B14748B6
:10436000444E454FC568306890F86003000720D57B
:1043700000241BE0BDE8F04100211120BEE43869B3
:104380003168204435F9100091F87413B0EB011F27
:1043900003D921460320FFF7B1FC3869B96A2044EC
:1043A00035F91000884200DDB862641C78698442E7
:1043B000E5DB306890F86003C0061BD5002416E0EA
:1043C000F8683168204435F9100091F87513B0EBA6
:1043D000011F03D921460420FFF790FCF868F96A11
:1043E000204435F91000884200DDF862641CB86989
:1043F0008442E5DB6EE42DE9F0410020FCF745F94D
:10440000FFF71CFC1B4C206890F86003010701D4E7
:10441000C00601D5FFF79CFF206890F86003800676
:1044200001D5FFF766FF206890F86003000601D50C
:10443000FFF716FF206890F86003C00701D0FFF770
:10444000D6FE206890F86003400601D5FFF79CFE79
:10445000206890F86003800701D5FFF7DEFD064C69
:104460006068002861D0D4E90D128A43A263206BF2
:10447000884305E02802100048021000F00B1000ED
:10448000D4E9123690432063276DB343BB43A36442
:10449000636CE56D8B439343E26BB5439343636475
:1044A000636DBD439D439143E56561630122002136
:1044B000FFF7FCFB02220021A06CFFF7F7FB0322B1
:1044C0000021606BFFF7F2FB04220021E06CFFF794
:1044D000EDFB07220021A06BFFF7E8FB082200217B
:1044E000E06BFFF7E3FB09220021606DFFF7DEFBC5
:1044F0000A220021206CFFF7D9FB0B220021A06DBE
:10450000FFF7D4FB0C220021606CFFF7CFFB0D22DC
:104510000021E06DFFF7CAFB0E220021206DFFF79E
:10452000C5FB2078012803D006E00021084601E001
:104530000021112001F094FFBDE8F0410020FCF7BC
:10454000BFB800002DE9F84FDFF81CA402004FF0BF
:104550000004DAF80000477D017DB0F84B3490F894
:104560005D6490F85C54B0F8498407FB01F79B4602
:10457000FE4800EB4100814601D1002635463A460F
:10458000194611F092FD00903A464146484611F016
:10459000A9FD80463946484611F0B2FDDAF8001010
:1045A0000023F34A91F857C45746B0EB5C0F0AD981
:1045B0005078401CC0B25070B04205D9537013708F
:1045C0000120BDE8F88F5370009840452DDD10782C
:1045D000A84202D2401C10702FE01370537091F863
:1045E0004804400714D5E34811F0BAF9040010D18B
:1045F000386890F84814C9060BD5DE49B0F867044E
:104600000968884205D9584610F0C4FA044600E00B
:104610000124386890F84804800608D510F061FF3E
:1046200008B1012405E0002407E0137005E0012C27
:1046300003D111F066F90128F5D02046C1E72DE934
:10464000F84FC94FC94B4FF0000839684546C2467C
:104650000A7D03EB420B91F8703403F07F0400B93C
:1046600000244E7D5846564331460AF085FC81466B
:10467000314658460AF06EFC00903868017DBE480D
:104680000AF07AFC06463868417DBC480AF074FCA2
:104690000146304610F05EFB06B23868017DB64830
:1046A0000AF058FC83463868417DB4480AF052FC51
:1046B0000146584610F046FB396802B2B1F8713431
:1046C0004B4509DDB1F873340098834204DAB1F840
:1046D0007504B04200DA0125B1F87704B04209DD73
:1046E000B1F87904904205DAB1F87B14494501DA52
:1046F0004FF001089E49002215B9B8F1000F09D00A
:104700000879A04202D2401C087104E00A714FF0FF
:10471000010A00E00A71504653E72DE9F04F0020EE
:1047200087B00546039001900446824600900290AF
:104730008D48934FD0F800807B0CB94698F8B901AA
:104740001E46000705D5B8F9D2118E480BF0E5F8E2
:104750002DE098F81500022205901FE00120511E5F
:1047600098F814B00FFA81FEABF10101049111E049
:1047700002FB0B01DFF80CC23CF91110994204DC7A
:104780000FFA80FCCDE900CE0B46B94200DB0F46A4
:104790000499401C8142EBDC0598521C9042DDDC00
:1047A000F81AB8F8D21100B2814201DA0120029061
:1047B0000121754810F092FC6B480068017D01EB07
:1047C0004102714901EB82018A7B0B7C1A44520839
:1047D000CA73427D01239646017D521E049223E056
:1047E0000122A1F1010B1BE003FB0127DFF898C1B7
:1047F0001CF8078067447F78B8EB0707BC4601D5F3
:10480000CCF1000790F8548408F00308474506DD12
:10481000641C5FEA0C0701D5CCF100073D44521C33
:104820009345E1DC049A5B1C9A42D9DC029A012A86
:104830003ED10EF1010C0CFB01FC0A46DFF82C8185
:1048400009E038F912309A444B4500DD9946B342ED
:1048500000DA1E46521C6245F3DB0EFB01F29AFBA6
:10486000F2F190F8B92109B2120790F85424C2F37A
:1048700083020DD5A2421BDA90F85504A84217DA3C
:10488000A9EB0100891B884212DA10F02AFE0EE023
:10489000A24203DA90F85504A84204DBA9EB010018
:1048A000891B884204DADDE9001010F0E5FC039072
:1048B000039807B0BDE8F08F70B52B490025096853
:1048C00091F8564400B90024FFF727FF0100284A59
:1048D0004FF0000008D0D178A14202D2491CD1701B
:1048E00003E0D070012500E0D070284670BD2DE9AE
:1048F000F04103001C481D4D4FF0000601684A7D41
:10490000087D91F8534402FB00F2B1F84B1405EB1B
:10491000400000D1002411F0C8FB0027144D0028EE
:104920000BDD11F005F840B1A878A04202D2401C7E
:10493000A87003E0AF70012600E0AF703046BDE81C
:10494000F0812DE9F041084D0746002628680F4CFC
:1049500090F84804400604D50120FFF7C8FF01285D
:1049600053D097BB286813E0280210001E391000AE
:10497000B00210008C041000580901201C0901200D
:104980000080FFFFE0D8012060E001206F041000EC
:1049900090F84804000604D50120FFF78DFF012898
:1049A00032D0286890F87004000604D50120FFF783
:1049B00046FE01282BD0286890F84804800704D5CB
:1049C0000120FFF7BFFD012823D02078D0B1664831
:1049D00040F605020168114301606448016841F432
:1049E000006101604FF480610120FBF761FD2868E0
:1049F00090F81001C00604D54FF400710520FBF7B4
:104A000057FD012630469AE703202070DFE7042097
:104A1000FBE70220F9E710B5554C564A2068417D66
:104A2000007D414302EB400011F06AFB2168002247
:104A300091F857345049B0EB530F09D94878401CCE
:104A400010F0FF00487004D04A700A70012010BDB9
:104A50004A70002010BD2DE9F047484F0026B246AD
:104A600038783546B046002877D0022801D0032890
:104A70000DD10121424810F031FB424810F0B4FC46
:104A800010F066FB82463E4810F054FC06B2DFF898
:104A9000F890002439780020072919D2DFE801F0C6
:104AA000180D071115180400FFF7B5FF10E00020DE
:104AB000FFF748FD01280CD01DE00020FFF717FF8D
:104AC00006E00020FFF7F8FE02E00020FFF7B7FD48
:104AD00088B1012511F033FBFEF7A7F9B9F8020000
:104AE0002A49FDF760FDFDF7D4FD641C032CD1DBE2
:104AF000B8F1000F2CD0C12040EA052001F05AFD8A
:104B0000012D28D13878022801D0032819D101219C
:104B10001F4810F0E3FA1E4810F00CFC144900B2D4
:104B2000096891F88014314481420ADD002114485B
:104B300010F0D4FA134810F07DFC504610F004FB3E
:104B400009E0002011F000FB0FF09BFA03E004E005
:104B500000200FF078FD00203870BDE8F0474FF4DA
:104B6000F061084812F055BD4404100048041000DC
:104B7000280210001E391000B00210006F0410004F
:104B800060E00120DE30100034531000E0D8012036
:104B9000B801012008B5DFF868915A4E5A4F4FF01E
:104BA0000108002599F800004C4668B10128F9D1A8
:104BB0006B4600224EF27D71FBF7C9FC0098C107DD
:104BC00018D0257001218CE00121002010F02FFA6F
:104BD0006B46002202210120FBF7B9FC01210846A7
:104BE00010F025FA00988007DCD584F800804EF29A
:104BF0007F7176E0010716D50020FBF746FD062001
:104C0000FBF743FD11F09BFAFEF70FF93F484049CF
:104C10004088FDF7C8FC0620FBF752FD0020FBF79B
:104C20004FFD08215DE0010404D50FF02AFA4FF48E
:104C3000004156E0C10606D53648007808B9FEF7AF
:104C4000C4FF10214DE0810601D5202149E0C105B6
:104C500004D5FEF7EAFE4FF4807142E0810502D5EB
:104C60004FF400713DE0410603D5FFF7C4FB40213E
:104C700037E0410539D528480560284804680560B3
:104C80002046FDF730FE3068C10502D5244A82F87F
:104C90000080A4F5B851B73907D0E1070AD040F039
:104CA000150001F087FC356019E0052001F082FC59
:104CB000356013E014F0420F03D0386840F006006E
:104CC0000AE0600503D5386840F4806004E0E00441
:104CD00005D5386840F4805001F06CFC3D604FF41D
:104CE00080610120FBF712FC5CE78004FCD5FDF736
:104CF00086FE00224FF4005101200FF0D8FE51E74C
:104D0000B5021000480410004C0410003453100089
:104D1000E0D801205E041000E002100044041000FE
:104D2000600410000E490020486008600D490870BA
:104D300070470D4810B5006890F8B600C0070DD058
:104D40000A480B4900780978084307D10320FBF78C
:104D50009CFCBDE810400320FBF7B2BC10BD000076
:104D6000B8021000AE041000280210005704100012
:104D70005E041000F0B4054604980C46C3F110061A
:104D8000012801D0002013E029462046F0BC520043
:104D900012F0C0BB34F9101035F91070594307FBFD
:104DA0000611CF1701EB1771091124F81010401CE0
:104DB0009042EFDBF0BC7047F0B40546DDE90470CB
:104DC000FE1A0C46012801D0002011E02946204699
:104DD000F0BC520012F09EBB34F9101035F910C02F
:104DE00059430CFB061191FBF7F124F81010401CFD
:104DF0009042F1DBDEE770B5404C246894F8F04750
:104E000024074FF000040DD417E032F8145030F8A6
:104E10001460AD1B31F914602DB2AE4201DA21F8F5
:104E20001450641C9C42F0DB70BD32F8145030F812
:104E30001460AD1B21F81450641C9C42F5DB70BD5E
:104E400010B504462E48002205E034F912308342A2
:104E500000DD1846521C8A42F7DB10BD2DE9F043F5
:104E6000264CDDE90796246894F8908100242546B5
:104E7000012E01D0002634E00023A8F1010815E03E
:104E800031F9136030F9137006EB020C674504DD4D
:104E9000BE1B00D57642354407E0A6EB020C674501
:104EA00003DABE1B00D5764234445B1C4345E7D38E
:104EB00019E031F9167030F916C007EB0208C44545
:104EC00005DDBCEB070700D57F423D4408E0A7EBBA
:104ED0000208C44504DABCEB070700D57F423C4416
:104EE000761C9E42E5DB5FEA090000D10024AC425B
:104EF00002D20120BDE8F0830020FBE72802100069
:104F00000080FFFF3C483D4A0068516891EA000F6D
:104F10000AD050603A48006890F81001C00603D5E6
:104F200040210520FBF7C4BA704710B53348002173
:104F3000344C017034492068084210D00620FBF739
:104F4000A4FB0620FBF7BCFB30480078022802D106
:104F50002068002803DABDE81040FFF7EABE10BD64
:104F6000264900204860FFF7DDBE244C08B5002527
:104F70006570FFF7F5FF4FF6FF76607820B30128E4
:104F8000FBD16B46002255210420FBF7E0FA009884
:104F9000C00706D0FFF7E4FF657031460420FBF739
:104FA000B5FA0098400705D5FFF7BFFF0421084672
:104FB000FBF7ACFA0098C006DFD5FFF7A3FF10217E
:104FC0000420FBF7A3FAD8E70421002010F02FF803
:104FD0006B46002202210420FBF7B9FA04210120CC
:104FE00010F025F800988007C7D5FFF7B9FF01201A
:104FF00060703146E4E7000030041000C002100089
:10500000280210009004100010000080A40410007A
:10501000F948002141718171C171C17001717047FE
:10502000F54901208870F3E7F34800218160417061
:105030000121817070472DE9FC47164689460746D5
:105040000FF05FFF00900FF09BFF01900421684676
:105050000FF065FE0446042101A80FF060FE034630
:105060003D4607EB440106EB440000220BE035F817
:1050700002CB31F8028B521CC4444FEA0C4C4FEA6D
:105080002C4C20F802CBA242F1DB03EB440107EBEE
:10509000410207EB840006EB4101002509E030F8EE
:1050A000027B32F802CB67443F043F1421F8027BB5
:1050B0006D1C9D42F3DB48463146002204E030F887
:1050C000023B21F8023B521CA242F8DB09EB4400F0
:1050D00006EB8401002204E030F8023B21F8023B99
:1050E000521CA242F8DBBDE8FC87C44910B5096830
:1050F00000200A0712D5C248C24A006890F89407F7
:10510000C307906906D0490004D41169BE4AFFF76D
:1051100092FF02E0BC4910F069FC012010BD2DE9AE
:10512000FC5FB74EB44C0127306821784FF000087F
:10513000B0F8A15159B9A2788021CDE90012427D81
:105140007F23B249B248FFF737FE84F80280B148A6
:105150000078062805D0072802D0A7480078B8B301
:10516000BAE03068AA4AB0F81611407D0DB2CDE918
:1051700000502B46A549104610F018FE30682A460C
:1051800090F8FE1001F003010091437D9F49A04873
:1051900010F04CFD0027012804D0C4F8088084F8E2
:1051A000008099E02078002811D1A068401CA06000
:1051B000316891F81511814209D201206070207088
:1051C000074600F0EEFA01210220FBF771F983E0B7
:1051D000FFE73468B04694F8A0010090400794F8C7
:1051E000B8014FEA00700BD5002801DA8A4E00E0C2
:1051F000874E607DB61C801EDFF82092C0B209E0A9
:10520000002801DA844E00E0814EDFF81092607DC4
:10521000A9F102098246824890F800B0BBF1010F63
:1052200001D1B4F882563C217B4812F0F2F994F88F
:10523000B80100073DD57B49B4F9D631B4F9D8019E
:105240000978012905D194F85A12CA18084413B2F2
:1052500000B294F8BA11704A4907617DCDE90001A6
:105260006E496B48A1F1020102D510F007FE01E082
:1052700010F09CFDD8F8000090F8A011090702D5A5
:105280006749097851B190F8FE006449C0F3810084
:10529000009053462AB2891E5F4819E090F8FE003C
:1052A0005E49C0F38100009053462AB2891E5A48D5
:1052B0001EE00098000702D5BBF1000F0FD094F854
:1052C000FE005346C0F3810000902AB249463046A2
:1052D00010F0ACFC484908703846BDE8FC9F94F8D3
:1052E000FE005346C0F3810000902AB24946304682
:1052F00010F0B3FCEEE7414910B5096800204A07F9
:105300001CD53F483F4A006890F89407C30750698E
:1053100006D0490004D41169434AFFF78CFE02E02D
:10532000414910F063FB3A493F480FF0F0FD3F4917
:105330003D480FF0ECFDBDE81040F0E610BD2DE952
:10534000FC4184463348012502782D48062A01682D
:1053500008D0072A06D0B1F82001314B1B78012B69
:1053600003D004E0B1F82301F7E7B1F8AE06062A4E
:1053700017D02F4F2F4E204C022A14D091F8FD2029
:10538000C2F3011200920A7D497D02FB01F307EB93
:1053900042010CEB420702B2384610F047FC207085
:1053A00020E0002524E091F88126D20719D0012BB6
:1053B00017D12278AAB991F8FD3091F88726C3F366
:1053C0008103CDE900320A7D497D02FB01F307EB41
:1053D0004201194F07EB420702B2384610F07AFC3F
:1053E00020702078012803D1306840F0010030603F
:1053F0002846BDE8FC810000C8021000EC02100045
:1054000028021000080D1000D8E80120A40801208F
:1054100068080120A4041000E00801207A0501209A
:1054200072041000DB031000700701201C0901202A
:10543000E0D80120D0041000A0C001202DE9F041E7
:10544000BD4D0E46034629681446DFF8F4C24F7D71
:10545000087D7F1C024667437843B84F274417F8FE
:10546000017C8CF8037091F824100F0702D5C9064F
:1054700000D5104442001946304612F04BF8286817
:10548000017D407D401C641E6043414306EB4100AA
:10549000BDE8F0812DE9F0471646A74A81460F4640
:1054A0001068457D017D6D1C90F824004D43030775
:1054B00002D5C00600D50D44012490460BE0D8F873
:1054C00000004946007D420005FB04F007EB400068
:1054D00012F020F8641CB442F1D3BDE8F0872DE946
:1054E000F35FDFF85482964F009ED8F8000089469B
:1054F000DFF850B2447D007D641C4443B879F871F4
:10550000002545E0B879009900FB04F20BEB420658
:1055100005FB04F201EB420A01218140F8780143C6
:10552000F9703146504610F07DFAD8F8000090F836
:1055300024100A071CD5C9061AD5A9F101018D420C
:1055400007D1007D0AEB4401420006EB440011F054
:10555000E1FFB87960B9D8F80000017D90F8490002
:105560004A00010961430BEB4100314611F0D2FFC3
:10557000B879401CC0B2B871D8F8001091F8491041
:10558000B0EB111F03D30020B871012078716D1C9E
:105590004D45B7D33046A0E670B505466A480C467F
:1055A0000078072801D0062805D16848007801282E
:1055B00001D0084670BD6648664E0068317FC2045F
:1055C00004D52846FFF78BFF044612E080040BD574
:1055D0000A465C492846FFF731FF0446327F5949A5
:1055E0002846FFF757FF04E0012221462846FFF72F
:1055F00025FF204670BD70B553480024007804286C
:1056000001D0FFF705FD524E524D3078C00706D04D
:1056100051496868FFF7C0FFFFF791FE04463088E4
:1056200040040DD544480168087D91F8061301F047
:105630000F01491C484342004848A96811F06AFF1D
:10564000204670BD2DE9F0413B4C454920680A7861
:1056500090F8C800C3072FD083072DD54FF0005313
:1056600093F84B60C0F38200012707FA00F33D482E
:105670001E424FF0000502D007700F7001E0057068
:105680000D70394B1B78012B00D1057008788242D0
:1056900012D001280ED0CD2000F08CFF206890F8A9
:1056A0001001C00608D5BDE8F0414FF48071052017
:1056B000FAF7FEBECC20EFE7EAE670B5FFF7C2FFCF
:1056C0002448234C007820B10EF097FF0020206082
:1056D00070BD1D4D28780128F8D00620FAF7D5FFB7
:1056E000FFF789FFFFF707FEFFF7FFFC0620FAF739
:1056F000E7FF1E48216801602878022806D00728A5
:1057000011D006280FD0022804D00FE00C480078F2
:10571000012803D0002909DB082108E000F041F846
:105720000121022004E04FF4007100E00421032075
:10573000FAF7BEFECAE7000028021000D077010089
:10574000C802100060A20120A4041000D7021000BB
:10575000EC021000080D10001E3910007006012028
:105760006704100066041000680410009004100024
:1057700010B54FF0005212F8200FFD4B00F08001E1
:10578000A3F1240420791B5C0B431370401CC0B2AE
:105790002071042801D10020207110BD80B2FBF7D8
:1057A000F6B8FBF71AB910B501462022F14811F0FE
:1057B000F6FE0221BDE810400846FAF779BE012145
:1057C000C1607047F0B599B00446684610F05DF9C5
:1057D000E748E9492438E94B84610A881A80E84A95
:1057E000E94D52880A80E74AE10770D0417A0429DE
:1057F00002D01178042955D0E4490978012951D003
:10580000117803294ED0BDF8001041F00101ADF828
:105810000010296891F8C032DB070FD091F80633E9
:1058200003F00F035B1C042B08D8BDF8003043F4D1
:105830000073ADF8003044F48043836191F8483040
:10584000DB070ED01378072B0BD0062B09D0BDF841
:10585000023023F48063ADF80230836943F40053CF
:10586000836191F824301E0707D5DB0605D5BDF806
:10587000003043F48073ADF8003091F87230C44EBC
:105880005FEAC37C4FF0010704D096F800C0BCF17A
:10589000000F0CD091F81BC15FEACC7C27D0DB074E
:1058A0002ED024E0BDF8001041F48041AFE713781A
:1058B000042B4ED0002C4CDB91F874308DF817304F
:1058C00091F873308DF81E3091F875302EE016E0A7
:1058D0008DF85C70836923F4005383612CE0816947
:1058E00041F4806102E0816941F480518161C078B6
:1058F000012838D01078072832D0062830D032E07E
:105900003378002BF3D11378072B03D0062B01D06B
:10591000022B1ED1002C1CDB91F81D318DF81730A5
:1059200091F81C318DF81E3091F81E318DF822301F
:1059300091F84830DB07CBD191F824100B07CED576
:10594000C906CCD5BDF8001021F48071ADF8001067
:10595000C5E791F848104907C9D5002CC3DAC6E756
:105960006846FFF72CFF600711D51078022806D093
:10597000032806D0042804D0062808D113E0002C00
:105980001EDABDF8000040F48060ADF8000020078A
:1059900028D51078022818D0032818D0042816D04B
:1059A00006281FD111E0286890F81A1109B18DF866
:1059B000421090F8220100F00F008DF84400DEE75D
:1059C000BDF8000040F40060DFE7002C04DABDF809
:1059D000000040F4805003E0BDF8000040F40050A7
:1059E000ADF80000AFF2412002906846FBF7A9FD38
:1059F00019B0F0BD38B5002469460620FAF796FDC7
:105A0000009818B9FBF78DF8002800DD0124204626
:105A100038BD5C4810B50178554B5B48243B0229E2
:105A20009A79006813D006291BD007291CD0012AB7
:105A30001DD0022A1ED090F83D4090F82520120774
:105A400027D55A7A042A1BD0042916D018E090F8DA
:105A50004140022AF1D190F83F20A242EDDD1446E8
:105A6000EBE790F81341E8E790F81441E5E790F888
:105A70003E40E2E790F83F40DFE790F843201A729B
:105A800093F90820002A02DD521E1A7201E090F8F4
:105A90004240597204B91424FFF7ACFF012800D129
:105AA0006400204610BD30B537490546002009681E
:105AB00091F8B620D20729D0324A2D4C1278243CD6
:105AC000022A24D0072A22D0062A20D091F8BD200D
:105AD000304B1B781BB191F848349B0734D5E368F1
