:100000005555AAAA41200000000000000000000091
:10001000A48600000000000000000000509D8887BA
:100020000002100005080000890200009F02000085
:10003000B5020000CB020000E10200000000000059
:10004000000000000000000000000000052E00007D
:10005000092E000000000000F70200000B2E000037
:100060000D2E0000272B0000812E00005F2B0000CA
:10007000252E0000272E00002B2E0000392E000018
:100080004B2E00004D2E00004F2E00006D2E000064
:100090006F2E0000832E0000000000000000000012
:1000A000852E0000872E00000000000000000000E8
:1000B00000000000892E00008B2E0000752B000030
:1000C0008D2E00009B2E000009030000B52E0000BD
:1000D000B72E00000000000000000000000000003B
:1000E0004120000000F002F800F05AF80AA090E861
:1000F000000C82448344AAF10107DA4501D100F0E3
:100100004FF8AFF2090EBAE80F0013F0010F18BF55
:10011000FB1A43F00103184760B7010080B70100E4
:100120000A444FF0000C10F8013B13F0070408BF1D
:1001300010F8014B1D1108BF10F8015B641E05D0BB
:1001400010F8016B641E01F8016BF9D113F0080F70
:100150001EBF10F8014BAD1C0C1B09D16D1E58BF02
:1001600001F801CBFAD505E014F8016B01F8016B39
:100170006D1EF9D59142D6D37047000000230024AC
:1001800000250026103A28BF78C1FBD8520728BFA7
:1001900030C148BF0B6070471FB51FBD10B510BD03
:1001A000DFF80CD0FFF7F8FF03F01BF81BF086F820
:1001B0000002100003B4FFF7F1FF03BC1BF086F848
:1001C0000A484FF0FF0101704FF0000080F31188E2
:1001D0004FF0000080F3098805484FF002010170DC
:1001E00062B604484FF080510160704722ED00E094
:1001F0000002100004ED00E002484FF08051016061
:100200007047000004ED00E04FF0200080F31188FB
:10021000EFF3098098B112480068124909688842D2
:1002200017D0EFF309800E49096820E9F00F8860C4
:1002300000B50B48006800F0F2F85DF804EB0848E0
:1002400008490A68026000688168B1E8F00F81F32C
:1002500009884EF0040E4FF0000080F311887047BB
:100260000402100008021000EFF311804FF020018B
:1002700081F31188704700004FF0000080F311886F
:100280007047000062B6704772B6704740BA704758
:10029000C0BA7047401E0028FCDC704700BE7047A3
:1002A00040BA7047C0BA70471EF0040F0CBFEFF39E
:1002B0000880EFF309804FF0010102F0D4BC1EF07A
:1002C000040F0CBFEFF30880EFF309804FF0020139
:1002D00002F0C9BC1EF0040F0CBFEFF30880EFF36F
:1002E00009804FF0030102F0BEBC1EF0040F0CBFEA
:1002F000EFF30880EFF309804FF0040102F0B3BC84
:100300001EF0040F0CBFEFF30880EFF309804FF0ED
:10031000050102F0A8BC4FF0000000B504F0ABF8F6
:100320005DF804EBFFF770BF1EF0040F0CBFEFF396
:100330000880EFF309804FF0000102F094BC000048
:10034000194910B5012008701849002008601849A3
:100350000860184908601849086000F0B9F900F011
:100360004BF900F063F8002010BD10B5114800F003
:100370002AF90F4908600D490968884207D00A48E0
:100380000078022803D1BDE81040FFF735BF10BD4B
:1003900010B5FFF7EAFF044902200870FFF710FFCD
:1003A0004FF0FF3010BD00000002100004021000EA
:1003B000080210000C0210001002100070B50D466B
:1003C0000446C1698068CC221AF07BFEE169A0680E
:1003D000084440384FF08071C163216A8163002175
:1003E00041630163C1628162C0E908514FF00B3182
:1003F000C1614FF00A3181614FF0093141614FF025
:10040000083101614FF00731C1604FF00631816062
:100410004FF0053141604FF00431016070BD8269D9
:100420008168914201D802F09EBF704710B54FF429
:10043000B4714F481AF06FFE002010BD70B505462C
:1004400000EBC5014A4800EB8104FFF70DFF0646AB
:10045000207828B13046FFF70FFF6FF0010070BD24
:100460000320207000206560206204F11C0000F071
:1004700083F83046FFF700FF002070BD2DE9F04102
:100480000F463B49002500EBC00001EB80042E46DF
:10049000FFF7EAFE8046206A3843206204F11C0020
:1004A000074600F090F80CE0216A026C114203D07C
:1004B00000F066F9012600E06D1C2946384600F080
:1004C00078F80028F0D1012E01D1FFF74EFF404609
:1004D000FFF7D2FE0020BDE8F08170B50D4624493B
:1004E00000EBC00001EB8004FFF7BEFE216AA943C8
:1004F0002162FFF7C1FE002070BD70B50C461C499B
:1005000000EBC00001EB800500202060FFF7ACFE8F
:10051000296A2160FFF7B0FE002070BD2DE9F0418F
:100520000D46134900EBC0001E46904601EB8004C7
:10053000FFF79AFE07460F4800680564216A2942C2
:1005400003D104F11C0100F02DF93846FFF794FEA9
:10055000FFF78AFE216A29403160B8F1010F02D10C
:10056000216AA9432162FFF787FE0020B3E700005C
:10057000EC061000040210000021016008467047DC
:1005800030B50A6812B10B46C46B09E0002208605E
:10059000C0E903210BE000BF02F10C03D26812B1E5
:1005A000D56BA542F8DC1A68C0E903211860002069
:1005B00030BD0068002201E0C068521C8A4201D0B0
:1005C0000028F9D170470068704702690AB11168C4
:1005D00031B96FF00400704701F10C02C96839B1FC
:1005E0008142F9D1C9681160002101610846704754
:1005F0006FF003007047000010B54FF4C871324827
:100600001AF089FD002010BD2DE9F041884605460D
:100610002D4900EB8500174601EBC004FFF724FECF
:100620000646207830B13046FFF726FE6FF0010015
:10063000BDE8F08102202070E7611422414604F1F8
:10064000080065601AF0F8FC0020206204F1240024
:10065000FFF792FF3046FFF70FFE0020E8E770B586
:10066000194900EB800001EBC004FFF7FDFD0546D2
:10067000D4E90701814205DB144804F12401006834
:1006800000F090F8206A401C20622846FFF7F4FD35
:10069000002070BD70B50C4900EB800001EBC00478
:1006A000FFF7E2FD0546206A08B1401E206204F112
:1006B0002400FFF788FF10B1606A00F011F82846A7
:1006C000FFF7DAFD002070BD54081000040210008E
:1006D00010B54FF42A7140481AF01DFD002010BDDE
:1006E00010B5044690F8380002280BD02046FFF7DA
:1006F0006CFF022084F8380038492046FFF740FF9D
:10070000FFF733FE002010BD2DE9F05F8B46064653
:10071000314900EB06109046DDE90AA911F82020C6
:100720001D461AB16FF00100BDE8F09F01EB800497
:10073000FFF79AFD074601202070C4E90165C4E96E
:100740000585C4E907A91422594604F124001AF0CA
:1007500073FC002084F8370084F838006169E06099
:100760002061C4E90F1020460C99FFF727FEA06016
:100770002046FFF7B5FF3846FFF77EFD0020D3E7A0
:1007800010B5044690F83800022809D02046FFF73B
:100790001CFF022084F8380010492046FFF7F0FEC5
:1007A000002010BD70B5044690F838000D460228B0
:1007B0000BD12046FFF709FF032084F838002946B3
:1007C0002046FFF7DDFEFFF7D0FD002070BD044896
:1007D0000068406870470000E40910000C02100037
:1007E00004021000F0B58446002004460C4F14E0CB
:1007F0005CF824600323DD0046FA05F280EA02601B
:100800000825002802DA87EA400000E040006D1E5B
:10081000002DF6DC5B1EEED5641C8C42E8DBF0BDDF
:100820001B0000801248804712480047FEE7FEE7A1
:10083000FEE7FEE7FEE7FEE7FEE7FEE7FEE7FEE790
:10084000FEE7FEE7FEE7FEE7FEE7FEE7FEE7FEE780
:10085000FEE7FEE7FEE7FEE7FEE7FEE7FEE7FEE770
:10086000FEE7FEE7FEE7FEE7FEE7FEE7FEE7000045
:10087000AD080000C50000001E4800684FF00051A0
:10088000002891F8210000F01C000DD0042805D0AC
:10089000082805D00C2805D096200CE011200AE08D
:1008A000252008E04B2006E0042809D0082809D0BC
:1008B0000C2809D07020401E01F82C0F08707047DA
:1008C0000C20F8E71B20F6E73720F4E770470A49C9
:1008D00093200870D0E708490B200870CCE7054842
:1008E000006818B904480078932801D000207047A8
:1008F00001207047340400222100002010B504209C
:1009000000F035F9052000F032F9062000F02FF94B
:10091000072000F02CF9082000F029F9182000F039
:1009200026F9192000F023F91A2000F020F9A14A35
:10093000002010609F4B403318609E4918390860B2
:100940009C49083108609C49C8719A4C143C20604D
:10095000984C0C3420600872964C103C2060954CEA
:10096000103420604872934C0C3C2060914C14343D
:10097000206088728F4C083C20608E4C18342060B8
:10098000C8728C4C283420608873241D2060C87382
:10099000241D206008740120106018600870062172
:1009A000042000F0FCF80621052000F0F8F80621EC
:1009B000084600F0F4F80621072000F0F0F80621C0
:1009C000082000F0ECF80621182000F0E8F80621D5
:1009D000192000F0E4F804211A2000F0E0F80420C7
:1009E00000F0D1F8052000F0CEF8062000F0CBF89A
:1009F000072000F0C8F8082000F0C5F8182000F023
:100A0000C2F8192000F0BFF81A2000F0BCF804204A
:100A100000F0A1F8052000F09EF8062000F09BF8F9
:100A2000072000F098F8082000F095F8182000F052
:100A300092F8BDE810401A2000F08DB800EB80005D
:100A40005C494000002210390A605B4AD21E1070D7
:100A5000012008607047574900201039086070472E
:100A600000EB80005349400000220C390A60524AD2
:100A7000921E10700120086070474E4900200C390A
:100A8000086070474B4A10B5283214680123D1061C
:100A900064B10024146081F8350091F83F0000BF74
:100AA00091F83F408442FBD0136010BD81F83500BF
:100AB000FAE700EBC00101EB00106FF0030101EB5E
:100AC000800010B53D493E4C0978B0FBF1F0401E66
:100AD00080B2FF280CD9010A2170494200EB0120A5
:100AE0006070FF20FFF7CEFF2078401E207010BD01
:100AF000002121706170BDE81040C0B2C2E72D48EE
:100B00002830016800290DD000210160C00690F84E
:100B10003F1090F83F20FF2A04D000BF90F83F20FC
:100B20008A42FBD0704710B5254C2178607851EA95
:100B3000000207D051B1FF20FFF7A4FF2078401E2C
:100B4000207010BDBDE810400BF0A9B9FFF79AFF67
:100B50000020607010BD00F01F020121914040098B
:100B60004FF0E02202EB8000C0F80011704700F067
:100B70001F020121914040094FF0E02202EB80006A
:100B8000C0F88011704700F01F0201219140400918
:100B90004FF0E02202EB8000C0F880127047490756
:100BA000090E002803DA00F00F00064A00E0064AAA
:100BB000815470471C05002233000020D102100030
:100BC0001402100014ED00E000E400E049480121A7
:100BD0000160002101607047474801210160002148
:100BE0000160704710B5002000F06BF8FFF7F4FFCC
:100BF000FFF7ECFF4149002008604149A020087040
:100C0000002000F06AF8BDE81040002000F04DB868
:100C10003A4801211C38016000210160704710B57D
:100C2000002000F04EF8334901200860002000F059
:100C300054F8BDE81040002000F037B82D490120DD
:100C40001C39086070472F4800782E49491C0978E4
:100C5000401A00F03F0070472B4902780A70427832
:100C60004A7082788A70C278CA7002790A714279B1
:100C70004A7182798A71C079C871704723480068C7
:100C8000417882784FF00050437A0374204B1B78F0
:100C9000437443891B0A83744389C3740175427585
:100CA000C1798175017AC175704700F01F02012179
:100CB000914040094FF0E02202EB8000C0F80011A3
:100CC000704700F01F020121914040094FF0E022DF
:100CD00002EB8000C0F88011704700F01F02012174
:100CE000914040094FF0E02202EB8000C0F88012F2
:100CF000704700005C840022A00000227C040022D7
:100D000000E400E020040020000200203C0210006B
:100D1000C502100010B5092000F054F80A2000F0B8
:100D200051F8092000F05AF80A2000F057F8052180
:100D3000092000F05FF805210A2000F05BF8334835
:100D40007F2141707C2282700171002100F84819D6
:100D50002F490A684FF0010192F8C830DC070AD029
:100D60009C0708D590F84A40C3F3820301FA03F3C5
:100D70009C4380F84A4092F81131DC0721D0C3F33C
:100D80004203012B03D0234B4FF480641C60483096
:100D9000837802F211121478C4F3420401FA04F4C5
:100DA000A343837003791478C4F3420401FA04F472
:100DB0002343037103781278C2F3420291400B433C
:100DC000037010BD00F01F020121914040094FF057
:100DD000E02202EB8000C0F88011704700F01F0293
:100DE0000121914040094FF0E02202EB8000C0F861
:100DF000801270474907090E002803DA00F00F003F
:100E0000054A00E0054A8154704700004800002070
:100E10003C02100000E100E014ED00E000E400E01E
:100E2000704710B5044602462A21002000F06EF9F2
:100E3000221D2B21002000F069F904F108022C2169
:100E4000002000F063F904F10C020F21032000F0F0
:100E50005DF92068000E032825D304F114022D212A
:100E6000002000F053F904F110022E21002000F0C0
:100E70004DF904F11C022F21002000F047F904F184
:100E800018023021002000F041F904F12402312140
:100E9000002000F03BF904F120023221BDE81040AF
:100EA000002000F033B910BD08B507216A46084696
:100EB00000F02CF9009808BD10B5BE4C07206070FA
:100EC0000020207044F2C000608000BF00BF00BF5F
:100ED0004CF2C000608000BF00BF00BF4CF2E000D9
:100EE00060800920FFF7D6F944F2E000608000BF7F
:100EF00000BF00BF4FF48040608010BDF0B50025FA
:100F00002E464FF00054E02717E000BF883401F070
:100F10003F0160702170678000BF00BF00BFD4F840
:100F200008C043F825C06680883C00BF6D1C521E77
:100F3000491C3F2901D9401CC0B2002AE6DCF0BDA3
:100F40002DE9F0479B4D0026AD1C04462E80DFF8AE
:100F500068920121C9F880104FF4C058A5F80080AC
:100F600000BF00BF00BF00BF00BF4FF480572F80FD
:100F70003520FFF78FF92E80FFF79EFF00F0DCF899
:100F80005C2000F0EAF82346012208210020FFF748
:100F9000B5FF231D012209210020FFF7AFFF04F157
:100FA000080301220A210020FFF7A8FF04F10C0327
:100FB00001220B210020FFF7A1FF04F11003012201
:100FC0000C210020FFF79AFF04F1140301220D21E8
:100FD0000020FFF793FF00F0AFF8FFF76DFF2F80C1
:100FE00000BF00BF00BF00BF00BF00BF00BF00BF09
:100FF00000BF00BFA5F8008000BF00BF00BF00BF5A
:1010000000BF4FF440602880C9F88060BDE8F087D9
:10101000F0B54FF0000C059C0CB14FF0800CC5B240
:1010200000264FF00057644C28E000BF87F8895035
:101030004FEAC05EBEF1000F01F03F0E4EEA0C0E0B
:1010400001DA4EF0400E87F888E053F826E0C7F842
:101050008CE04FF0010EC4F8B0E04FF0000EC4F881
:10106000B0E0491CC9B2402902D36D1CEDB2002189
:10107000D4F8C0E0BEF1000FFAD1761C9642D5DB61
:10108000F0BD4FF0005282F88900002309B18020A2
:1010900002E0C00503D5402082F8880001E082F814
:1010A000883045480121C0F8AC10C0F8AC3000BF12
:1010B000D0F8C0100029FBD17047F8B50C460546A2
:1010C0004FF4F47600213046FFF7DBFF00200146A5
:1010D00000902B4622463046FFF79AFFF8BDF8B540
:1010E0000C4605464FF4F87600213046FFF7C9FF5D
:1010F00000214FF4FC70FFF7C4FF00200146009070
:101100002B4622463046FFF783FFF8BD294B587027
:1011100041F0800003F8880927480021B4300160BD
:10112000012140F8B41900BFD0F8C0100029FBD14C
:10113000D3F890001060704710B51E4C4FF48040FB
:10114000A41C20800420FFF7A5F80020208000BF09
:1011500000BF00BF00BF00BF10BD70B5154C2126F9
:10116000A41C268000BF00BF00BF00BF00BF40F02E
:101170002105258000BF00BF00BF00BF00BF44F2B3
:101180002101084320800420FFF784F8258000BF58
:1011900000BF00BF00BF00BF268000BF00BF00BF70
:1011A00000BF00BF0020208000BF00BF00BF00BF05
:1011B00000BF70BD8800002000100022F8B5F84C78
:1011C000002635466670E660266166610120A661EC
:1011D00000F0AAFF0C2000F0A7FF032000F0A4FFFE
:1011E000172000F0A1FF012000F0AAFF0C2000F062
:1011F000A7FF032000F0A4FF172000F0A1FF00F0DC
:10120000F6FF6A460221E74801F086FCE6499DF8B0
:101210000000E64A08709DF801101170442802D0C1
:10122000542800D0042601F0F5F901F0E9F9052170
:10123000012000F091FF05210C2000F08DFF062118
:10124000032000F089FF0621172000F085FF012010
:1012500000F05EFF032000F05BFF172000F058FF56
:10126000E570A5703046F8BD70B5CD4B1889C0F358
:101270008001C0F34016C0F300247140C0F3C022C7
:101280006140C0F3803551406940400840EAC130B8
:10129000188170BD38B50D4600901446042168468B
:1012A00002F073F9C2498978C90602D5072D00D129
:1012B000401C0099616584F8530038BD2DE9F04F5A
:1012C000BC4D0646BA4C28688BB090F83304C00772
:1012D00018D0608840F080006080FFF7C5FF296863
:1012E00000F00700084490F8340484F84100FFF748
:1012F000BBFF2968C0F30210084490F83404800052
:1013000084F840004FF0000B84F84BB02868A44FDD
:10131000062E90F845076075387802D0062827D049
:1013200010E006280ED001208DF80000684602F07B
:101330002AFB684601F03EF8684600F0F2FF684676
:1013400001F01AFB96484FF002084FF0E90A0670C8
:101350009948042EC0F30E070DD0032E26D04FF06F
:101360000409022E46D0052E60D0062E7ED0EEE077
:101370008DF800B0DAE78E4A3146E06AFFF78AFF5F
:10138000206BE065A4F84C70A078800600282868DF
:1013900090F8580703DA20F0060040F0040084F8C3
:1013A000510084F8528084F84EA0D0E0804A314643
:1013B000E06AFFF76FFF206BE0657D4804212C3069
:1013C00002F0E3F87C4901EB8000C0F30E00A4F8C2
:1013D0004C00A07880060028286890F8580703DAA7
:1013E00020F0060040F0040084F8510084F8528098
:1013F000ED2018E06E4A3146E06AFFF74BFF206BA4
:10140000E065A4F84C70A07880060028286890F861
:10141000580703DA20F0060040F0040084F8510079
:1014200084F85290E52084F84E0090E0A078800681
:1014300028D528682C3400F2C9305D4A017821761D
:10144000C178A1764178A17780782073E07F31461A
:1014500040F00100E0772068FFF71CFF5748C0F319
:101460000E002084286890F8580700E00BE020F078
:10147000060040F0020084F8250084F8268084F8F5
:1014800022A02C3C63E04A4A3146E06AFFF702FFA3
:10149000206BE0654848F830C0F30E00A4F84C001B
:1014A000628890060028286890F8510203DA20F03C
:1014B000060040F0040084F85100414800780128FB
:1014C00011D1296891F85002C3070CD091F810117E
:1014D000090608D53B49097829B9800703D50121B8
:1014E00084F8528002E0002184F852902868D205E6
:1014F00000F25220038824F8343F43886380037944
:10150000237143796371C388E38003892381837ADC
:10151000A372C37AE372037B2374A0F25220A4F176
:10152000340403D490F8932784F8462090F85F029F
:1015300084F84A0011B184F84EA002E0E52084F856
:101540004E0094F84B0040F0040084F84B002868EB
:1015500090F8FD16C907A1784FEA817134D00029AF
:1015600034DB94F84B10490735D490F8FC06C007DB
:101570000DD00021012003F048F994F84F0020F02D
:101580000300801C84F84F00A4F842B027E001213A
:10159000084603F03AF994F84F0040F003001CE0CD
:1015A0001802100004100020C4021000C502100030
:1015B0008C0C10003C021000009F0120F0A00120C4
:1015C0005702100077021000002904DA90F866072D
:1015D00020F0030001E090F8660784F84F00607D7A
:1015E00020F004006075FC4886700BB0FB48BDE835
:1015F000F04F01F0EDB8FA48F74A0168927901F12D
:10160000D20030F81220F548428311F8F93FC37533
:101610004B78037689788177002101758175F149CE
:1016200009785A2904D1EF49491C097811444183AA
:1016300070472DE9F047E94C0546002084F84B003F
:10164000E74FE12084F84E003868DFF89C93E24EC3
:1016500090F84517617590F8FD165FEAC17821464C
:10166000B1F802C0CB7D0CF0FF024CF0010104D0B8
:101670005FEA8C7C01D4012D08D0DFF87083082D3F
:101680000BD0092D3DD0072D45D033E03371727159
:101690000A22E2756180D54912E03371727161806E
:1016A000417D027D4B1C94F860C003FB02F1BCF14C
:1016B000010F03D902FB0CF202FB03F108EB41011D
:1016C000C1F30E01A4F84C1090F8531799F80020BC
:1016D00001F0F00102F00F021143E17790F8550795
:1016E00084F82100BD4A29465FF00100FFF7D2FDD2
:1016F0002069E06560884107617D2AD521F00401F9
:101700002DE0FFF778FF3868B279017D5143B84A80
:1017100002EB4101D4E7427D338B017D521C5A43D9
:10172000514308EB4101C1F30E01A4F84C1090F8AD
:10173000531799F8002001F0F00102F00F02114355
:10174000E17790F8550784F82100A44A2946E0681B
:10175000CCE73A6892F8452702F00402114361751C
:10176000C10705D094F84E1041F0020184F84E10E4
:1017700039684FEA807091F8FD26D20718D000280A
:1017800018DB072D04D00A2D02D0012D05D01AE058
:1017900014F84F0F20F0030008E00021012003F0AF
:1017A00034F814F84F0F20F00300801C20700AE07A
:1017B000002804DA91F8660720F0030001E091F8B0
:1017C000660784F84F00B570BDE8F047834800F025
:1017D00090BF072812D00A2810D001280ED0082860
:1017E0000CD009280AD0042807D0032805D00528E2
:1017F00003D0022801D0062801D15FE519E7704720
:101800002DE9F843744D8146012901D10020E8718A
:10181000EC79784E641C724FDFF8C0810FE03868B5
:1018200090F8FD06C00702D098F80200800756F82D
:101830002420694648469047012805D0641C0B2C9B
:10184000EDD90020BDE8F883EC719DF80000F9E7C0
:101850002DE9F0410646008800283BD0642231463D
:101860005E4802F0E7F9FEF7B2FF5B4C00255C4FE3
:10187000C4E90650A571386890F8FD06C0070AD083
:10188000B078800707D45549088810F0760F02D049
:1018900040F080000880A07800281BD101214F482B
:1018A000FFF7AEFF060015D05349012008703868D5
:1018B00090F8101149070FD590F8430780070BD413
:1018C00001F0F6F80220E07001F0F6F8192001F0BE
:1018D0001AF9A670BDE8F08165703046BDE8F041A8
:1018E00077E700207047C268120006D00088C00564
:1018F00003D5082008700120704700207047C26897
:10190000120006D00088000503D5092008700120C8
:10191000704700207047C268120006D00078C007E8
:1019200003D0072008700120704700207047426AEA
:10193000120006D00078000703D50A2008700120A5
:10194000704700207047C268120005D0007800067A
:1019500002D501200870704700207047C26A12004B
:1019600008D0026B32B10078800603D502200870DF
:101970000120704700207047C26A120006D000782C
:10198000C00603D50520087001207047002070476D
:10199000C26A120006D00078800703D504200870C0
:1019A0000120704700207047026B32B10078400779
:1019B00003D5032008700120704700207047C26AD9
:1019C00012001BD0026BCAB10088400516D5062054
:1019D0000870012070470000180210008C0C1000E5
:1019E0003C021000EEFF0100F6FF01000080012024
:1019F000009E0120B8B20100CF0210000020E9E7EC
:101A0000002008700120E5E72DE9F0410421FC48A1
:101A100001F0BBFD0446FA480421001D01F0B5FDAC
:101A2000F84F0546DFF8D883B878F74EA8F12C08B0
:101A3000042801D002280CD198F80200800602D5B3
:101A4000A200F14902E0620006EB4401EF4802F017
:101A5000F1F8B878032801D0022811D198F80200D3
:101A6000800603D5AA0006EB840104E005EB4400E0
:101A70006A0006EB4001BDE8F041E54802F0DAB843
:101A800028E710B588B001208DF80000E148DC4C53
:101A90000068A4F12C0490F8FD06C0070BD0A078D4
:101AA000800708D4D7488078012804D102208DF817
:101AB00000000AF0FDF900F06DFBD7480190D24814
:101AC000039000F5F8700490A1686846884708B054
:101AD00010BDF0B5CF4B47F6FF7201291B6803D04C
:101AE0001B7DCE4C00211EE0CC4C5B7D3C3CF9E7DD
:101AF0000D18EDB2CA4FEE18F6B237F815E007F13F
:101B0000800C37F816703CF815503CF81660AEEBB8
:101B10000505BE1B35442DB224F81150954200DA5C
:101B20002A46491CC9B29942E2D3002007E000BF0F
:101B300034F81010891A24F81010401CC0B29842D2
:101B4000F6D3F0BD2DE9F84FB24D01200090286882
:101B5000AD4C002690F8F816C90730D0A8492C39AA
:101B600091F8487007B90127A549DFF898822C3908
:101B700091F8471091FBF7F10FFA81FA98F80210EB
:101B8000042902D0032903D00BE0407D460023E066
:101B9000007D042146009A4801F0F7FC9A4901EBC8
:101BA000800498F8020002280AD005280FD00428E3
:101BB00012D0032810D002280ED005280CD03DE109
:101BC0002868914C417D007D0844460004E0286867
:101BD000944C3A2690F8F9A6D8F80C209146524534
:101BE000EDDCB9F1000F05D18E484FF4F871783073
:101BF00019F091FAC64698F80200DFF82482002115
:101C000008F18008A8F5AA6B2BE000BF5BF8213033
:101C100034F911C0042863444BF8213001D0032863
:101C20001ED1B9F1000F07D17D4B002223F81120FE
:101C300047F6FF7228F81120DFF8E4C134F91120CB
:101C40003CF911309A4200DC1A462CF8112034F984
:101C5000112038F911309A4200DB1A4628F8112079
:101C6000491CB142D2DB09F10101CEF80C105145FB
:101C70007DDB0023DFF8B091F046CEF80C3004286D
:101C800006D003282ED0022856D0052870D0D5E0E3
:101C900001210020FFF71DFF59482C3890F849001A
:101CA00060B12868407D41005E48783002F04CFD0C
:101CB000C8F8100078215D4819F00BFA00204B4657
:101CC0005946D8F810200AE031F820507D43AD1A6B
:101CD00024F8105051F8205043F82050401CB042D6
:101CE000F2DBABE000210846FFF7F3FE44482C3856
:101CF00090F8490060B12868007D4100494878307B
:101D000002F022FDC8F814008021494819F0E1F9D9
:101D100000204B465946D8F814200AE031F82050EC
:101D20007D43AD1A24F8105051F8205043F820504C
:101D3000401CB042F2DB81E031482C3890F8490079
:101D4000E8B12868407D41003648783002F0FCFC5C
:101D5000C8F810002868017D427D49000BEBC200E5
:101D600002F0F2FCC8F814007821304801E061E08C
:101D700034E019F0AEF980212D4819F0AAF90020BD
:101D800043464A4659460EE031F820C0B3F8108069
:101D90000CFB07FCACEB080C24F810C051F820C079
:101DA00042F820C0401CD5F800C09CF815C0B0EB2C
:101DB0004C0FE9DB28685B69407D40000BE000BF09
:101DC00031F820507D43ED1A24F8105051F820507E
:101DD00042F82050401CB042F2DB2FE0104A0020B5
:101DE0005946F03A09E000BF31F8203024F81030AD
:101DF00051F8203042F82030401CB042F4DB1DE0A6
:101E0000B80C100018021000009F01202CB0012017
:101E1000A4B001203C0210000080012074A7012022
:101E200038A60120F0A0012058A3012024B10120F0
:101E30009CB10120FFF7CDFC002000900098BDE888
:101E4000F88FCB4910B58A780120092A10D18B79F7
:101E50005B1CDCB2C74B8C711B6893F8D13003F06C
:101E60000F035B1C9C4204D21046FFF7B2FC00201B
:101E700010BD00228A7110BDBD4910B58A780120BD
:101E8000072A0BD18B69BC4C5B1C8B6194F86040BA
:101E9000A34204DA1046FFF79CFC002010BD00228C
:101EA0008A6110BD70B5B34909684B7D097D5B1C23
:101EB0004B43B1490C460A7894F86040D2071FD0D2
:101EC000012C1DD9498849051AD50020AB4A14E0D8
:101ED000012109E001FB030632F8105032F81660C8
:101EE000491C354422F810508C42F3DC32F91010B2
:101EF00091FBF4F122F81010401C9842E8D370BD19
:101F0000047670BDF0B587B0FFF77EFDFFF799FF4F
:101F100000282AD0FFF7B0FF002826D0964DA878D9
:101F2000400603D4FFF70EFE00281ED0914E904CC1
:101F3000306890F8FD06C0070BD0A878800708D459
:101F4000A078012805D12079E8756079688009F0CA
:101F5000AFFFA078082801D1607968800021864809
:101F6000FFF74EFC18B1FFF734FC07B0F0BD844812
:101F70000027A7700770306890F8FD06C00706D0EC
:101F8000A878800703D40021084602F03EFC7D4972
:101F9000A4200873306890F81001400702D5E7705C
:101FA00000F074FD6078012823D08DF800700120C6
:101FB0008DF818006846FFF775FF2888724C4005B9
:101FC00007D53068407D420004EB4001204601F017
:101FD00031FE6A48019000F5F050029000F58070E3
:101FE000039000F5F870CDE90404A96868468847B5
:101FF000BBE703208DF80000D9E770B55D48604D60
:102000004FF00004016891F81001420758480AD5C2
:1020100091F84317890706D4C178012908D002290D
:102020000FD0032903D1C470FFF72BFD2C7070BDB6
:102030000221C17000F040FDBDE87040322000F088
:1020400062BD0321C1708078BDE87040FFF7C1BB5D
:10205000F0B500224D1E12E0531C1F460BE000BFDE
:1020600030F8126030F81340A64203D920F813600C
:1020700020F812405B1C9BB28B42F1D3BAB2AA4249
:10208000EADBF0BD2DE9FF4100252E46294601205F
:1020900002F0BBFB00246F4600F0A0FD27F81400FF
:1020A000641CA4B2082CF7D308216846FFF7D0FFC0
:1020B0005FF0020037F8101019B131446D1C8EB278
:1020C000ADB2401C80B20628F4D3B6FBF5F004B0E4
:1020D000D6E438B50C46054601226946104600F0A4
:1020E00062FD9DF80000000928709DF8000000F0D6
:1020F0000300207038BD08B501F0030141EA00116A
:102100008DF8001001226946104600F085F908BDDF
:1021100000F01F020121914040094FF0E02202EB44
:102120008000C0F8001155E400F01F020121914029
:1021300040094FF0E02202EB8000C0F8801149E432
:1021400000F01F020121914040094FF0E02202EB14
:102150008000C0F880123DE44907090E002803DA28
:1021600000F00F00094A00E0094A815432E40000FF
:10217000180210003C0210008C0C1000008001209E
:10218000CF02100000100020F89F012014ED00E0A5
:1021900000E400E0FE4800220260FD481C380260B6
:1021A000FC4802610121016182608160026001607E
:1021B0000260F949A0F574700B68002BFCD1F74957
:1021C0000B7B43F020030B730B7B23F040030B735B
:1021D0000B7B23F080030B730B7B23F020030B732B
:1021E000C0F8D823C0F8E023ED480270704730B53E
:1021F000E848002474300460E64880300460E54814
:10220000C4600121C160C460046001600460E54DE8
:10221000202028706870E149593D0873A420087394
:10222000DD48183001680029FCD1FFF7B3FFDE4814
:10223000046085F8344030BDF0B5DC4827250078CF
:10224000442802D0542800D1182500224FF4F83138
:10225000D14ED2485C2723E00C46002303EB000E4E
:1022600011F803C05B1C8EF860C00C2BF6DB3368E2
:10227000002BFCD18276C77604F10C0103EB000E33
:1022800011F803C05B1C8EF860C00C2BF6DB3168C4
:102290000029FCD1511C8176C77604F13001921CD3
:1022A000B2EB450FD8DBF0BD2DE9F0479246089E12
:1022B0005B1EC6F108010022B84C01F0FF0C154668
:1022C000002189469A420BDA00EB0208875C98F8F5
:1022D000018027FA06F708FA0CF847EA080703E036
:1022E00007D1875C27FA06F701EB040888F86070CD
:1022F00003E001EB040888F8609001F1010102F1AC
:1023000001020C29DEDBA4490F68002FFCD10AEB87
:102310000501A1765C21E1766D1C022DD0DBBDE8C4
:10232000F08778B50025A24E00950446006A112377
:1023300032782946FFF7B8FF0095182372780021FC
:10234000606AFFF7B1FF78BD00B58BB000208DF853
:102350000000684601F017FB6846FFF7E2FF0BB08C
:1023600000BD2DE9F0470024DFF82C828B4982461E
:10237000254626464FF05C0900209C4206DA00EB19
:10238000010C1AF804708CF8607002E0471887F8A6
:102390006060641C401C0C28EFDB00BFD8F8000014
:1023A0000028FBD15019887681F81B906D1C032DF5
:1023B000E2DBB4E730B57E4D044640691623AA78C7
:1023C0000021FFF7CEFFEA78A069BDE83040202366
:1023D0000021C6E700B58BB000208DF800006846EC
:1023E00001F0D1FA6846FFF7E5FFB8E7F0B5002441
:1023F0006A4D05E0165D6719641C87F8606064B279
:102400009C42F7DB644A1468002CFCD1A97618437F
:1024100040F01000E876F0BD70B500235F4C05E099
:10242000CD5C1E195B1C86F860505BB29342F7DBF3
:1024300059490B68002BFCD1A07642F01000E076E1
:1024400070BD30B55B4C07220220216801F2427159
:10245000FFF7E2FF2168022201F24A710920FFF72B
:10246000DBFF2168062201F24D710B20FFF7D4FF3C
:1024700020685149514D90F85307097800F0F00059
:1024800001F00F0108432870012229461120FFF7AF
:10249000C3FF2168032201F257711620FFF7BCFF2A
:1024A00045480122401E007800F00F01206890F896
:1024B0005A0761F31F10287029461920FFF7ACFF57
:1024C0002168012201F25B711A20FFF7A5FF216844
:1024D000042201F25C711B20FFF79EFF36480222A6
:1024E000C01C2946007828703348401C007868706A
:1024F0001F20FFF791FF2168022201F5EC612120E6
:10250000FFF78AFF2C480222001D29460078287018
:102510002948801C007868702720FFF77DFF21681C
:10252000012201F263712A20FFF776FF216807225A
:1025300001F266713D20FFF76FFF2068022290F8DC
:102540006E17297090F86F07687029464420FFF7CE
:1025500063FF2168022201F5EE614620FFF75CFF70
:102560002168082201F272714820FFF755FF2168A7
:10257000082201F27A715020FFF74EFF21680522F0
:1025800001F284715820FFF747FF226818E000002D
:102590001C0C0022D0030022040B0022001000209B
:1025A0001A0210005900002040050022C402100049
:1025B000380210003C021000F6FF0100F00C100081
:1025C000FF4D92F88F072870012302F28A72FA21D8
:1025D0000020FFF70BFF2268012302F28C720E210C
:1025E000C020FFF703FF2268012302F28D7214213D
:1025F000C020FFF7FBFE332068740B20A87430BDA9
:1026000010B5FFF71EFFFFF7E5FEFFF79DFEBDE8E3
:10261000104011E630B55C2562225E236424E9494E
:10262000442801D0542804D00D704A708B70CC70AF
:1026300030BD302008703520487032208870372037
:10264000C87030BD38B50546DF4C406D00906073F2
:10265000010AA173010CE173000E20740422694683
:102660002B20FFF7D9FE012205F153012F20FFF7A0
:10267000D3FE95F85300A074E86D0090E074010A51
:102680002175010C6175000EA07504226946352084
:10269000FFF7C2FE0098800F84F84000CB4901226A
:1026A00008703920FFF7B8FE38BD00EBC00101EB20
:1026B00000106FF0030101EB800010B5C449C54A5A
:1026C0000978146890FBF1F0401EC1B2012358074D
:1026D00064B10024146080F8341090F83F1000BFFB
:1026E00090F83F408C42FBD0136010BD80F834104E
:1026F000FAE77CB5044600208DF804002046FFF779
:10270000A1FFAF48B4F84C10401C0180217D00F8B7
:10271000011C94F84E104173AB4EA07D86F8360034
:10272000AD4D286890F842078DF800006188890552
:1027300003D520F012008DF8000001226946022026
:10274000FFF76AFE042204F115010520FFF764FE7D
:102750002968022201F24A710920FFF75DFE022278
:1027600004F11A010C20FFF757FE022204F11C01AC
:102770000E20FFF751FE052204F11E011020FFF785
:102780004BFE286890F8FC06C0070AD0012201A978
:102790004420FFF741FE022204F142013F20FFF7EF
:1027A0003BFE012204F14F013D20FFF735FE0122DF
:1027B00004F150014420FFF72FFE884801680129E9
:1027C000FCD194F84E0030732320FFF76EFF7CBDE0
:1027D0007EB50446FFF736FF7948B4F84C10401C2C
:1027E000018094F8451000F8011C94F84E104173D4
:1027F000794D286890F842078DF8000061888905B6
:1028000003D520F012008DF8000001226946022055
:10281000FFF702FE012204F115010520FFF7FCFD80
:1028200094F84B00684EC00708D0286800F29571F4
:1028300090F8950786F83600012206E094F84600E5
:1028400086F83600012204F146010620FFF7E4FD78
:10285000012204F144010720FFF7DEFD012204F10B
:102860004A010820FFF7D8FD286890F8FD16C9072F
:1028700034D061888A0731D494F84B2052072DD484
:10288000B0F80027ADF80420B0F86A07ADF80800EA
:10289000090609D594F841100844ADF8080094F8E9
:1028A00040001044ADF80400022202A94120FFF7C5
:1028B000B3FD022201A90920FFF7AEFD296891F8B6
:1028C000FC06C0071DD0012201F26E714420FFF703
:1028D000A3FD022204F142013F2010E090F8FC0623
:1028E000C00707D000208DF80400012201A9442070
:1028F000FFF792FD2968022201F24A710920FFF7D1
:102900008BFD012204F151011720FFF785FD012203
:1029100004F152011820FFF77FFD022204F1340177
:102920001B20FFF779FD022204F136011D20FFF77D
:1029300073FD012204F138012120FFF76DFD012212
:1029400004F139012220FFF767FD012204F13F0164
:102950002A20FFF761FD012204F14F013D20FFF71E
:102960005BFD1E4801680129FCD194F84E003073CC
:102970002320FFF79AFE7EBD30B50446C069134D93
:102980000122007800F00F011348006890F85A0700
:1029900061F31F10287029461920FFF73DFDE068FC
:1029A00002222946007828706068007868701F202D
:1029B000FFF732FD206900782870A06800780FE0EA
:1029C000530000203802100000100020F00C10000E
:1029D000D1021000400500223C021000000B002232
:1029E00068702946BDE830400222272014E58D4951
:1029F0008D4B0A6892F84D2702700A68B2F850278A
:102A0000428009681B7801F2537103F00F030A78C2
:102A100002F0F0021A430271B1F80B20C280028169
:102A20008A7B82720A7CC27289780173704710B502
:102A30000446014601220B20FFF7EEFC0222A11CF6
:102A40000E20FFF7E9FC0122211D1120FFF7E4FC15
:102A50000222A11D1D20FFF7DFFC022204F1080164
:102A60002520FFF7D9FC012204F10A012220FFF7FB
:102A7000D3FC012204F10B012A20FFF7CDFC04F165
:102A80000C010122BDE810401320C5E4674908B5D8
:102A900004200873634801226946006890F84307E0
:102AA00020F008008DF800000320FFF7B5FC08BDFA
:102AB0005E4920200873704718B55D4C01226946B5
:102AC000207840F0F0008DF800001046FFF7A4FCDD
:102AD0005649C020087320788DF80000012269460D
:102AE0001046FFF799FC18BD52480168002909D02B
:102AF000002101604FF0005191F83F0091F83F2014
:102B00008242FBD070474B49002240390A604A4A52
:102B1000107001200860704770B5484C2368002B86
:102B2000FCD11D4603E0C6185B1C86F880508B4222
:102B3000F9D32368002BFCD102E0C45CD4545B1CA5
:102B40008B42FAD370BD10B501F0BFFCFFF7CCFF8C
:102B50003B48007878B13948183801680029FCD121
:102B60003248C078400602D5364901200870BDE8D9
:102B70001040FFF7C7B934490020087010BD10B5E8
:102B800001F0A3FC2B49002040390860BDE810404B
:102B9000FFF733BA10B501F098FCFFF7A5FFBDE8C9
:102BA0001040FFF72ABA214B10B59876DA76234801
:102BB00018380468002CFCD1012083F8E0001F487D
:102BC0000468002CFCD1002005E0C41894F8604093
:102BD0000C54401C40B29042F7DB10BD08B543F6E0
:102BE000FF70ADF80000022269463F20FFF714FC99
:102BF0000220ADF80000012269463D20FFF70CFCE1
:102C00000A49E02008734FF41670FDF743FB0222D7
:102C100069468720FFF7C7FFFFF738FFBDF80000C0
:102C200008BD00003C021000F6FF0100001000206B
:102C300075021000400500222D0000201C0B002210
:102C40001A02100019021000CF021000704800682C
:102C500090F8F007C00605D5ED214EF6ED52084676
:102C600009F080FAFEE705460E46012009F03CFA1D
:102C7000694C6848C4E900062868A0606868E0609C
:102C8000A8682061E86860612869A0616869E061FE
:102C9000A8692062614EE869606230685F4FA06297
:102CA000103F386807F10408E062D8F8000008F126
:102CB00004092063D9F8000006F1040A6063DAF819
:102CC0000000DFF858B1A063ABF1340BDBF8000073
:102CD000E063381F00682064FDF779FD60645048A8
:102CE00000210068A0640F202A6809F015FA01216C
:102CF0000F206A6809F010FA02210F20AA6809F073
:102D00000BFA03210F20EA6809F006FA0C210F20C4
:102D10002A6909F001FA0E210F206A6909F0FCF90D
:102D20000F210846AA6909F0F7F920210F20EA6966
:102D300009F0F2F9326821210F2009F0EDF93A6823
:102D400022210F2009F0E8F9D8F8002023210F20D4
:102D500009F0E2F9D9F8002024210F2009F0DCF96C
:102D6000DAF8002025210F2009F0D6F9DBF8002041
:102D700026210F2009F0D0F9381F026827210F20E3
:102D800009F0CAF9FDF723FD024630210F2009F0B2
:102D9000C3F9FFF75BFF012807D002280FD00328F3
:102DA00005D0042805D004210AE0012108E0032110
:102DB00006E00021032009F097F9FFF747FF022101
:102DC000032009F091B910B504460146042009F02A
:102DD0008BF9012C01D1FFF739FF10BD0146082006
:102DE00009F082B90146062009F07EB910B5044603
:102DF0000146072009F078F9012C03D0022C01D0FC
:102E0000032C01D1FFF722FF10BD0320EEE70000E5
:102E10003C021000AF0550FA5C00012038ED00E0E4
:102E20007C02100001F051BB704770472A4810B572
:102E3000016821F00401016001F047FBBDE810408A
:102E400016F024BD704701F040BB10B501F03DFB0A
:102E5000BDE8104009F0CABB10B501F036FBBDE873
:102E600010404FF0005001F07FBD7047704710B523
:102E700001F02BFB19480078012803D0BDE8104071
:102E800009F029B8BDE8104002F0B1BA704710B59A
:102E900001F01BFBBDE810404FF0805001F064BD15
:102EA00070477047704770477047704710B501F022
:102EB0000CFBBDE81040FDF736BE10B501F005FB78
:102EC00006480078012801D102F06DFA044900207B
:102ED000086010BD7047704710ED00E0CE02100092
:102EE0004805002210B55C21CF4818F0F2F8CE4812
:102EF000CE49CF4A01808280CE494180CE4BC380EB
:102F0000CE4C0481CE4C4481CE4C8481CE4CC481C5
:102F1000CE4C0482CE4C4482CE4C8482CE4CC482B1
:102F2000CE4C0483CE4C4483CE4C8483CE4CC4839D
:102F3000CE4C0484CE4C4484CE4C8484CE4CC48489
:102F4000CE4C0485C38741878287CD49A0F84010C5
:102F5000CC490968B1F86220A0F84220B1F8C62136
:102F6000A0F84420B1F8A120A0F84620B1F8F02143
:102F7000A0F84820B1F85421A0F84A20B1F8522115
:102F8000A0F84C200022A0F84E20BF4A1288A0F8DA
:102F900050204A7DA0F852200A7DA0F85420BB4A58
:102FA000A0F85620BA4A1278B94B5B1E1B7842EA49
:102FB0000322A0F85820CA7CA0F85A20B04891F803
:102FC0004E274280B1F85C17C180018110BD10B559
:102FD000FDF76AFF00EB104081B2AE480122037892
:102FE000AD48442B04D1382902D00021017010BD16
:102FF000027010BDA64813221130A9490378A748D2
:10300000552B02D0027019200CE09E4B1B6893F8E0
:103010001131DB0702D09E4A1232127802709C48AE
:1030200013300078087070472DE9F047FF222821FF
:103030009C4818F046F89B48FDF7F3FEDFF86492D1
:103040000E240126D9F80410072545F2AA58414557
:1030500003D0D9F8081041453BD1D9F80000D9F880
:103060000820070E424506D1032F01D1C0F30136D7
:10307000C0F3032502E00120FFF7B4FED9F80410E5
:10308000414504D199F8000000F01F0402E002203D
:10309000FFF7A8FE032F22D1D9F814304146824A07
:1030A00048468B4201D1036900E0804B1360C3693D
:1030B0007F4A8B4201D1836900E07E4B1360436AF3
:1030C0007D4A434502D1D9F8200000E07B481060DA
:1030D00005E00120FFF786FE0220FFF783FE694826
:1030E000016891F8F007400702D591F8F20704E073
:1030F00006F003002A0740EA126091F8DA26D207A8
:1031000011D0B9F80C2093B243450CD0604A0B3271
:103110001278C52A07D120F0F0025D480C30007803
:10312000000742EA106091F8411720F00C00C1F34B
:10313000C00240EAC200C1F3800140EA8101604858
:103140000170604880F86010012181761121C176FC
:103150005D48017864F304010170BDE8F08770B543
:10316000FDF7B5FBFDF73EFD464D28680078A52824
:1031700002D00120FFF727FE4FF008500124C0F8CD
:1031800098432868514A90F8271101F00101116015
:1031900090F82701111DC0F340000860FDF740FEC4
:1031A000FDF7ACFBFEF70AF8042801D1FFF7F3FDA9
:1031B000FDF764FDFDF7AEFD4248802180F8601008
:1031C000042181761121C176FFF72EFFFFF712FF50
:1031D0003E486C380460FFF7FAFE3C480C38046047
:1031E00070BD42F2410010B541074881FFF7B7FFBB
:1031F000FFF778FE36495F200860364900200860F6
:1032000036483549016001F50860354908603548A0
:1032100000F0BBFEFDF738F800F066F8FDF732F875
:10322000FDF7B6F8012010BD00000120008001204C
:10323000E0D7012060D00120AC000120009F0120D8
:103240006C2E0120A82E0120E42F01202030012027
:1032500054350120903501202417012060170120EA
:10326000E82E0120242F0120D03501200C3601202A
:10327000801B0120BC1B0120041B0120401B0120DE
:10328000A42610003C021000EC0210006C1E01206D
:10329000E1FF0100C4021000C6021000D2021000BB
:1032A000D102100050281000DC02100040A5AE0230
:1032B000E002100000879303E402100000366E0164
:1032C0007502100000100020200000208804002259
:1032D000E02F0120C00210008C1410008C0210009E
:1032E000900210008C2510007FB5FDF729F81F4DC6
:1032F000002400BF05EB441000F11002017F4CCA0E
:10330000CDE90261CDE900230FC8FDF7FDF910B149
:103310000220FFF76BFD641C082CEBDB144D00242E
:1033200004EB440005EB8001091D55F8200006C997
:10333000FDF76AF910B10220FFF758FD641C082C54
:10334000EEDB0B4D0024603505EBC400416855F8F9
:103350003400FDF773F810B10220FFF747FD641C3D
:10336000072CF1DB7FBD4068FFF74FBDE8B20100DD
:10337000E8B30100F0B500245F1E26E02546661C78
:1033800008E000BF30F915C030F916E0F44500DB65
:103390003546761C9E42F5DB30F8146030F815C0D7
:1033A00020F814C020F8156031F8146031F815C009
:1033B00021F814C021F8156032F8146032F815C0F5
:1033C00022F814C022F81560641CBC42D6DBF0BDA4
:1033D00001EB8010801001EB41014900182291FBA4
:1033E000F2F300EB400000F5F83002FB1311006827
:1033F00020F07F40C84000F03F0070472DE9F04FBB
:1034000087B007460020009001900290039004903E
:1034100005900690FA480125F84E804628E00224DF
:103420001EE0087D04FB005036F91000B84216DD9E
:10343000032304AA02A96846FFF79CFFD8F80000FE
:10344000BDF90010007D04FB005036F910008142E8
:1034500005DAADF80000ADF80850ADF81040641C76
:10346000D8F8001040464A7D521EA242D9DC6D1C9D
:103470000168097D491EA942D1DC00240DF1080B29
:10348000B246C1465FF0000504A83BF914C030F90C
:103490001430D9F80000017D504603FB01C63AF90B
:1034A0001660BE4235DDD74E76571E4406FB01C27C
:1034B000731C03FB01C130F812203AF81100614679
:1034C000101A0FFA80F8701EFFF782FF069061460F
:1034D0003046FFF77DFF01460698401A002807D0C6
:1034E000D9F800000EDAB0F89C1341450FDB1CE060
:1034F000D9F80000B0F898134A42424515DAB0F8FE
:103500009C1302E0B0F89803414241450DDD0120D3
:1035100006906D1CEDB2022DB6D3641CE4B2032CF0
:10352000B0D3069807B0BDE8F08F0020FAE7F0B5F9
:10353000054600204FEA254C4FEA2146BCEB060425
:1035400000D564429C421FDA4FEA2247BCEB0704D5
:1035500000D564429C4217DAF41B00D564429C42B9
:1035600012DA2DB20CB2291B00D5494299420BDA6E
:1035700012B2A91A00D54942994205DAA11A00D51A
:103580004942994200DA0120F0BD70B5034600209F
:1035900002469D4C09E09D5C521C05F00F0604EBB1
:1035A0001515A65D2D78304428448A42F3DB70BDA2
:1035B000884200D308467047884200D808467047C2
:1035C000884200D30846904200D3104670472DE948
:1035D000F047D0F810C00568046A85FB0C12A1FB07
:1035E000041242694368914683FB02628269E246A3
:1035F000A6FB02677618D0E9021781FB07C8C069ED
:10360000ACFB00C81CEB060682FB0A2CA2FB0112D5
:1036100080FB0902A0FB0502401884FB0712A1FBF6
:1036200003120818301A4FEAE071BDE8F087F0B5D0
:103630000025059F14E000240EE000BF05FB03F603
:1036400000EB860C01EB86065CF824C09CFBF7FCC3
:1036500046F824C0641C64B29C42EFDB6D1C6DB262
:103660009542E8DBF0BDF0B50025059F14E000248D
:103670000EE000BF05FB03F600EB860C01EB8606AF
:103680005CF824C00CFB07FC46F824C0641C64B240
:103690009C42EFDB6D1C6DB29542E8DBF0BDF0B5EE
:1036A0000025059F17E0002411E000BF05FB07F689
:1036B00000EB860C01EB860E5CF824C05EF824E07B
:1036C00002EB8606F44446F824C0641C64B2BC4293
:1036D000ECDB6D1C6DB29D42E5DBF0BDF0B5002565
:1036E000059F17E0002411E005FB07F600EB860CB0
:1036F00001EB860E5CF824C05EF824E002EB86063F
:10370000ACEB0E0C46F824C0641C64B2BC42EBDB8C
:103710006D1C6DB29D42E5DBF0BD2DE9F04F814699
:1037200009A88A46B0E822400020DDF834B08A4279
:1037300021D0F8E600241BE0002116E000FB02FC8B
:1037400001FB05F800FB0BF609EB8C0C0EEB860673
:1037500003EB88085CF821C056F8247058F82480E0
:10376000491C0CFB087746F824709142E6DB641C88
:10377000AC42E1DB401C5045DCDBD4E62DE9F043F4
:1037800089B004460068009060680190206902904A
:103790006068039020690490A069059020690690F4
:1037A000A0690790E06908900D466846FFF70FFF93
:1037B0008046A0680190E06804906069079089469F
:1037C0006846FFF704FF064660680190A068029013
:1037D00020690490E0680590A069079060690890EE
:1037E0000F466846FFF7F3FEC5E90401C5E9026725
:1037F000C5E9008909B0BDE8F08300000C0D100098
:103800003C021000FF02100080B401002DE9FF4FC0
:103810004FF0000A89B09B465746D146D0465646DF
:10382000554654462021684617F075FC0B9810E069
:103830000999824431F9102000FB00F102FB016676
:103840008844414302FB009901FB004417440D44A6
:10385000401C5845ECDD0B99ABEB0100401CCDE959
:10386000000ACDE90654CDE90486CDE9027968461F
:103870000A99FFF783FF0DB055E6FD480068017B0C
:10388000427B41EA0221827BC07B41EA024141EA5C
:10389000006040007047F64800680179427941EACB
:1038A00002218279C07941EA024141EA0060704711
:1038B00000B5FFF7E2FF4008400000BDF8B50E4636
:1038C0000446FFF7F5FF0090FFF7D7FF05460421F8
:1038D0006846FFF75AFE04EB40070024DDF80010AD
:1038E000204623464FF0010C0CFA03F20A4207D09F
:1038F0002A4204D037F8102026F81420641C401CFB
:103900005B1C1E2BF0DBF8BDC5E7FCB50E46074679
:10391000FFF7CEFF0190FFF7BEFF0090FFF7BBFF60
:103920000546042101A8FFF730FE0446042168463D
:10393000FFF72BFE00EB440007EB40070020009947
:10394000044603464FF0010C0CFA03F20A4207D07A
:103950002A4204D037F8142026F81020401C641C9A
:103960005B1C202BF0DBFCBD00B5FFF786FF40F0B1
:10397000010000BD8FE7BF4A520102EB810101F156
:103980000851086070470178012916D0BA49416092
:10399000491C8160B9494161B8492C318161B649FE
:1039A000891CC160491C0161491FC161B3496C3167
:1039B0000162B2498D3141627047AF4910394160AF
:1039C000491C8160AD49BD314161AC49E93181613A
:1039D000A9490E39C160491C0161491FC161A8494B
:1039E0000162A7492131E6E7F0B50746059888420C
:1039F00001DD1846F0BDB84201DA1046F0BD9E1A4E
:103A0000C01B4643CD1B00D10125994C96FBF5F018
:103A10002468104400B294F8F1470E2CEED1A4466D
:103A2000984CA4F800C04FEA264CA4F802C0A68027
:103A30002E14E68025816781A181E2812382608244
:103A4000F0BD30B5002304465242184615B208E0D6
:103A500034F91320AA4203DA002A00DA5242104451
:103A60005B1C8B42F4DB30BD01EB8010801010B585
:103A700001EB41014900182391FBF3F403FB1413FC
:103A800000EB400000F5F8303F2401689C40A14362
:103A90009A400A430270110A4170110C817010BDE6
:103AA0002DE9F04F8B4682460026FFF75DFF8146E9
:103AB000FFF7F1FE07464FF0270C00254FF00108F5
:103AC00008FA05F111EA090F13D0002408FA04F0EE
:103AD00038420AD0BBF1010F10D01AF80620214657
:103AE0002846FFF7C1FF761CB6B2641CA4B2202C96
:103AF000ECD36D1CADB26545E2DB14E521462846EA
:103B0000FFF766FC0AF80600EDE75B491539088007
:103B1000704759481538B0F90000704730B5544A1D
:103B20000346554814681538B4F8342194F84647CC
:103B3000B0F9000004F00F04641C02FB04056243AA
:103B40009D4207DAA2EB60029A1A92B292FBF0F061
:103B5000084409E0141A9C4208DD02EB6002D21A04
:103B600092B292FBF0F0081AC0B230BD084630BDE8
:103B7000434A533222F810107047F0B53C490746CB
:103B800000200E68022396F815E015E0347D01222E
:103B9000A11E0EE003FB0425ADB205F1010C1FFAD6
:103BA0008CFC7D5D17F80CC0654501D1401C80B2CE
:103BB000521C9142EEDC5B1C9E45E7DCF0BD2DE91A
:103BC000F14F4FF00008FFF7CFFE4FEA500CFFF720
:103BD00062FE074600264FF0010A00BF0AFA06F10E
:103BE000394221D000980025DFF884B02C4600EB44
:103BF000060900BF0AFA04F010EA0C0F11D0314692
:103C00002046FFF7E5FBDBF80010621C097D5143FD
:103C1000A84201F8090003D108F101011FFA81F857
:103C20000546641C272CE5DB761C202ED6DB40469F
:103C3000BDE8F88F04E000BF11F8013B00F8013B3C
:103C4000521EF9D270470E4A30B553320021084B4C
:103C500006E000BF32F8114020F81140491C89B23B
:103C60001C68257D647D65438D42F3D830BD00001E
:103C70003C021000E02F0120F7FF010040F8010096
:103C800069F90100E0D7012030B5FE4A0021FE4B62
:103C900006E000BF30F8114022F81140491C89B2FB
:103CA0001C68257D647D65438D42F3D8DEE72DE9F0
:103CB000F04381460026FF27481C38D0501C36D0E0
:103CC000881E012800DC0120C4B2901E022800DCFE
:103CD000022000F0FF0CEC4801F102080068057DAD
:103CE000AB1E434501DD891C00E0A91E01F0FF0861
:103CF000417D931C481E984201DD911C00E0491E45
:103D0000C9B212E063460CE003FB054080B219F82B
:103D10000000B04200D90646874200D907465B1C26
:103D2000DBB28B42F0D9641CE4B24445EAD9F01B03
:103D3000C0B260E52DE9FE4F0024601E00900190A6
:103D4000D248FFF73CFFD04FD04D3868007D00EBE4
:103D5000400005EB8000817B027C11444908C1735F
:103D60002846FFF70AFF8246772147F27772084616
:103D700008F0D2F90026DFF80CB3DFF81493B84648
:103D800033E000BF4FF0010C28E0087DC14A0CFB76
:103D900000618FB2381AE95D32F9172080B20292C1
:103DA0003BF9100060B182B20298FFF7B7FEBA4942
:103DB000C855D8F8000090F8F1171B2905D009E084
:103DC000FF214FF6FF727C20A8E0007D02993A1A8D
:103DD00029F812100CF1010C0CF0FF0CD8F80010AF
:103DE0004A7D6245D1D2761CF6B2D8F80030197DF2
:103DF000B142C7D8197DDFF8A08201EB410208EB80
:103E000082018A7B0E7C32444FEA5202CA734FF021
:103E100000011A7D1AE001205F7D13E000FB02160D
:103E2000B6B218F806C0AE5DBCEB060600D5764209
:103E300076B2A64204DD34464EB2009646B20196F2
:103E4000401CC0B28742E9D2491CC9B28A42E2D8BA
:103E5000DDE90012812008F05FF98B4C216891F8B0
:103E6000F10719280FD100205A464D4606E000BF41
:103E700032F8103025F81030401C80B20B7D4E7D9A
:103E800073438342F4D891F8F1071A280ED1002029
:103E900043464D4605E01E18925D25F81020401C53
:103EA00080B20A7D4E7D56438642F4D87A48FFF7A9
:103EB00064FE054602465146782008F02DF9206838
:103EC00090F8581301EB0A00A84204D2FF214FF6E4
:103ED000FF72782022E0554525D34FF6FF773A460A
:103EE000FF21792008F018F9DDE900126A48FFF790
:103EF000DEFEDDE9001205466448FFF7D8FE0646FF
:103F000002462946792008F007F92168701B91F8CC
:103F10005913884207DD3A46FF21802008F0FCF85B
:103F20000120BDE8FE8F0020FBE7564931F9100063
:103F30007047821002EB42020A4400EB400040004E
:103F4000182190FBF1F301FB1301106820F07F4072
:103F5000C84000F03F007047831003EB430310B5E7
:103F60001A4400EB40004000182390FBF3F403FBDD
:103F700014033F2410689C40A043994001431170F2
:103F8000080A5070080C907010BD2DE9F14F82B0F6
:103F90004FF0000B7821029817F0BDF8FFF7E4FC12
:103FA0004FEA5008FFF777FCDC46814666464FF043
:103FB000010A00BF0AFA06F111EA090F25D0002410
:103FC0000AFA0CF001272546CDF800000AFA05F0A0
:103FD00010EA080F14D031462846FFF7F9F9A0423D
:103FE00008D00299009A51F827101143029A42F81A
:103FF000271003E00BF101011FFA81FB04467F1C2F
:104000006D1C272DE2DB0CF1010C761C202ED1DB80
:10401000584686E72DE9F04F83461B480024224688
:10402000D0F800A001219AF81450A5F1010622E071
:1040300003200123DFF864E003FA01F99AF8157010
:1040400016E000BF5EF820C01CEA090F0FD0A0F1F7
:10405000010300FB051C03FB05183BF91CC03BF9E1
:104060001830BCEB030300D55B421C44521C401CBF
:104070008742E7DC491C8E42DADC02B9012294FB5C
:10408000F2F03AE5BCF901003C021000B4A70120AF
:10409000A40F01200C0D100074AB01208C25100022
:1040A0002DE9FF4F85B0002103910291019100910C
:1040B000FA49012B0C6894F8775005F00F0700D1EE
:1040C0000027667D94F87A30C7F1100BB34200D216
:1040D0001E4600230493012381E000BF4FF0000936
:1040E000C84603241FE0EE4951F824C0012199403D
:1040F0001CEA010F04FB053130F911C0A4F10101E4
:1041000001FB053130F91110ACEB010106D000299B
:1041100000DA4942DDF818C0A1EB0C01002900DAF1
:1041200049428944641CB442DDDB31469EF815A047
:104130001FE0DB4C54F821C001249C401CEA040F12
:1041400001FB053430F914C0A1F1010404FB05346E
:1041500030F91440ACEB040406D0002C00DA6442C1
:10416000DDF818C0A4EB0C04002C00DA6442A04473
:10417000491C8A45DDDC0499012910D10199B1EB74
:10418000090101D5C1F10001039C2144039100996B
:10419000B1EB080100D54942029C21440291CDE9CE
:1041A00000899EF87B10994216D11168039D7943CE
:1041B0000BFB0511CC1701EB14710911116091680B
:1041C000029D79430BFB0511CC1701EB147109110A
:1041D000916000210391029101215B1C0491AF4980
:1041E000D1F800E09EF81450691E99423FF776AF6F
:1041F0005068039978430BFB0100C11700EB117065
:1042000000115060D068029B78430BFB0300C1177C
:1042100000EB11700011D06009B06EE430B50446B7
:1042200000200222A1F101010BE000BF04EB4205D6
:1042300034F9123035F9025C5B1B00D55B4218443F
:10424000521C8A42F2DB11E5F0B5944C0020034683
:10425000246801460246934E677D05E036F9135007
:10426000954200DD2A465B1C9F42F7DC00238E4E00
:10427000277D05E036F913508D4200DD29465B1C91
:104280009F42F7DCB4F84E348B4201DB934200DAF4
:104290000120F0BD2DE9F14F8049002318460C683C
:1042A00094F84914267DC1F3C001B4F865B4B4F89C
:1042B00067A4A6EB010926E0657D0322DFF8E0E1B3
:1042C000DFF8E881A5F1010519E000BF5EF822C022
:1042D000012707FA01F71CEA070F0ED102FB0617A8
:1042E00038F917C0A2F1010707FB061738F9177054
:1042F000BCEB070700D57F423B44521CD2B295422B
:10430000E4DC491CC9B28945D6DC00999B450B60A9
:1043100002D2534500D201208AE47CB50D46044602
:10432000FFF7C6FA0090FFF7B6FA01900098042153
:10433000400800906846FFF728F90646042101A8C6
:10434000FFF723F93044820021462846FFF772FC2C
:104350007CBD0B46514909684A7D097D521C4A4380
:1043600001465200184665E470B50446642116F013
:10437000D2FE0023494D23806380286890F894077B
:1043800000F0010043EA40106080A360FFF7ECFA00
:10439000E060FFF780FA464E2061464970886083EE
:1043A00009785A2904D14349491C09780844608393
:1043B000286800F24670C27A817A02F03F0241EA30
:1043C0000221A1834178E17590F8491021750178A7
:1043D000A17581782176017BA1773649407B083130
:1043E00000F0F000097801F00F010843E077FFF7D3
:1043F0005FFAE062FFF74FFA20632C34F0882081E7
:10440000E081286800F5E96090F84810217690F87E
:104410004A10617690F84B10A17610F84E1CE176A8
:1044200001212177637790F84920A277C28A6281BF
:104430002282027E2273427E6273827EA274C27ED8
:10444000E274827F84F823206375237510F8562C5C
:104450002C3CA0F5E960D2070AD090F8F30600F0F2
:104460000F0084F86000608840F48060608070BD58
:1044700084F8601070BD10B50446FBF705FF012CF1
:104480001AD10648006890F81001800714D5FCF78F
:1044900026FAB0B1FCF71FFA13E000003C0210004E
:1044A0008C251000E82E0120242F012060D001204F
:1044B000A4261000EEFF0100FCF711FA08B9FCF782
:1044C00006FABDE81040FBF7DDBE0020D3E7FF4B46
:1044D00010B51A68947E640704D5D28A0468A2EBEA
:1044E000040202601A68947EA40703D5128B0C683C
:1044F000121B0A600268002A00DA002202601C68AF
:10450000E48AA24200DD224602600A68002A00DA3C
:1045100000220A601C68248BA24200DD22460A6049
:104520001B689B7EDB0702D003680B60026010BD36
:104530002DE9F05F00249246814622462046E34D55
:10454000E34EDFF890E3DDF828B01BE031F910808E
:1045500039F910C0A8EB0C07574501DD04F101043F
:10456000D5F8008098F810815FEAC86809D596F8F8
:104570000080B8F1060F04D1774502DA521C21F809
:1045800010C0401C9842E1D3286890F81001C00682
:1045900008D53078062805D122B1CF48CF494088C8
:1045A00000F030FB5C4502D30120BDE8F09F002005
:1045B000FBE72DE9F04FC54C9B46DDE909E7246890
:1045C000002394F8E056EE08C54D2D78012D01D05A
:1045D00000242FE00121DFF80C93DFF800A394F80A
:1045E00015C015E0002010E0257D01FB050539F917
:1045F00015703AF9155005EB0208474503DAA5EBAB
:104600000B05AF4200DC5B1C401CB042ECD9491CDE
:104610008C45E7DA10E000BF31F9146030F914502E
:1046200006EB020C654503DAA6EB0B06B54200DC8F
:104630005B1C641CBC42EFDB734501D9012020E503
:1046400000201EE52DE9F04F8A46DDE90997012596
:1046500047F6F8714E429346AC46002417E000BF7F
:1046600030F814803AF81420A2EB080212B29142FA
:1046700000DD1146964200DA1646002A02DA4FF0B3
:10468000000502E001DD4FF0000C04F10104BC4222
:10469000E6DB55EA0C0206D0012D01D02DB108E071
:1046A000BCF1010F05D1002112E0BCF1010F00D1D6
:1046B0003146002905DD03EB0902B1EB420FF2DCC4
:1046C00006E005DA03EB09025242B1EB420FEADBE6
:1046D00000252C462A4610E030F812603AF812C045
:1046E0000E44ACEB060636B29E4205DAC9F1000C68
:1046F000664501DD3544641C521CBA42ECDB95FB77
:10470000F4F20A44002105E030F8113013442BF88C
:104710001130491CB942F7DBB3E4F0B5064600207E
:1047200004460546521C059F0AE000BF36F911C039
:104730009C4504DDA44502DD64460D460120491C6C
:104740009142F3DB3D60F0BD30B5026800251346B1
:104750000AE000BF50F82540944201DD224602E005
:104760009C4200DA23466D1C8D42F3DBD01800EB2F
:10477000D070401067E570B5544B1B685C7D1B7DA5
:10478000641C5C43002307E032F8135030F81360D8
:10479000AD1B21F813505B1CA342F5DB70BD5249E1
:1047A000012008604FF47071504816F092BC2DE95A
:1047B000F041064615460F46302801D1FFF7EFFFBE
:1047C000494C20682844401CB0F5707F01D2206815
:1047D00001E001202060454908700E542DB10844C5
:1047E000401C2A463946FFF725FA20682844401C19
:1047F0002060BDE8F0813E48002101220170427036
:10480000817070473A480078704730B52F4A126877
:1048100092F8FD26D3070BD0D506364A4FF0000399
:104820004FF0010407D5151F2860012901D113603D
:1048300009E5146007E52F4D083D28600129F8D0EF
:10484000F5E72DE9F84F214C00264FF0005720687E
:1048500090F8FD06450997F8510000D10125072081
:10486000FBF7FDFEFBF7B3FFDFF88480C8F8080014
:1048700020684FF0010490F8FD06C00603D506201D
:1048800087F8510001E087F8514000210120FFF72F
:10489000BCFF4FF41670FBF7FDFC4FF0E02A4FF41D
:1048A00080594FF0000BCAF880924FF040514446B7
:1048B000D8F80800FBF711FEDFF83C80012088F8EB
:1048C0000000E8B2FCF7CCF818E000003C02100051
:1048D000BC0210000CFEFFFFA4261000AC0001205B
:1048E000730210000C0D100040021000E40B0120B8
:1048F000FC021000280A0022CF021000CAF8009122
:104900006B4600224FF04051A068FBF707FE4FF0C6
:104910004051A068FBF7E1FD0098C00000D50126DA
:104920002078B04202D1607801280CD197F851006C
:10493000A6B140EA0522DD20A16807F0EDFB00BF2B
:1049400084F801B0267000210846FFF75EFF88F862
:1049500000B00720FBF79EFE2078DDE440EA052149
:10496000092007F0C1FBEBE710B5044640484FF4BF
:1049700080510160FCF781F83E4821468068BDE81F
:104980001040FBF77BBD70B53B48006890F8D01035
:10499000CA073A491CD090F8D12002F00F02531CEC
:1049A0000A2B01D90A2200E0521C00F1D204002394
:1049B0004D8804E034F81360B5420CD05B1C934280
:1049C000F8DBB0F84E274A80B0F8E8200A8002E011
:1049D000B0F84E274A8090F88023D2071DD090F877
:1049E000812302F00F02531C0A2B01D90A2200E096
:1049F000521C00F282350023CC8804E035F81360A5
:104A0000B44209D05B1C9342F8DBB0F85C27CA8043
:104A10000A81B0F8AC03888070BDB0F85C07C8802C
:104A2000088170BD03004FF0000006D00B785B1EBC
:104A300013F0FF030B7001D101200A70704710487A
:104A400010490078087070470B490968C97C31B17A
:104A50000B4A9621521C1170A521521C117001287D
:104A600004D1084806490078401C087070470000CF
:104A700080E100E0FC0210003C021000A4261000BF
:104A8000DFFF01007802100010B501461C22FA4831
:104A9000FFF7D0F8BDE810404FF400610120FBF7AC
:104AA000EDBC2DE9F0419AB080460D4614466846AB
:104AB000FFF75AFCE0074FF0010701D0ADF8007096
:104AC000600608D5ED4900200870BDF8000040F4EC
:104AD0008060ADF80000600733D5E94E306890F88B
:104AE000FD06C0070DD0FFF7ACFE0621012805D05A
:104AF000BDF8020040F00200ADF80200ADF8001071
:104B000005E0BDF8000040F00600ADF80000A00789
:104B100011D1BDF8000040F00100ADF80000306890
:104B200000F2211041788DF8171001788DF81E10D1
:104B300080788DF82200D3480088800501D58DF853
:104B40004970D149ADF81A80ADF83A50ADF83450FB
:104B5000097840465A2905D1CB49491C09780844AF
:104B6000ADF81A00AFF2DF00C34D03244FF4006626
:104B700002906846FCF76CFE19AB0022314601201A
:104B8000FBF7CCFC31460120FBF7A7FC2878002876
:104B900004D0FEF700F9641E002CEADC1AB0BDE870
:104BA000F0812DE9F041B64A0024214612682546DD
:104BB00010F4D17F04D092F8221004254FEA11118D
:104BC00010F0050F05D092F8213045F001054FEAAD
:104BD0001314C00604D592F8210045F0020504091B
:104BE0008C4200DA0C46641C002DD8D00026A74F5A
:104BF00005E0F98878882A46FFF753FF761CA6421D
:104C0000F7DBCCE72DE9F35FDFF874828B46D8F849
:104C10000000457D017D90F821006D1C00F00F071C
:104C20004D437F1C4FF48851994816F074FA0026C2
:104C3000974CDFF85892DFF840A218E0B9F8061058
:104C400001220098FFF72DFF9249DAF8040006F0E0
:104C500062F89049002007E054F8202031F9103024
:104C60001A4444F82020401CA842F5DB761CBE42C2
:104C7000E4DBD8F8000090F8210000F00F01491C97
:104C8000002006E054F8202092FBF1F22BF81020CF
:104C9000401CA842F6DBBDE8FC9F2DE9F74F784D9C
:104CA00084B09146286830F83B1F039140880290F9
:104CB000FEF7FEFD0090FEF727FE019004216846F6
:104CC000FEF763FC8046042101A8FEF75EFC404429
:104CD00046002868B10090F8220000F00F04641C20
:104CE0006B4816F018FA296891F8F102C20706D04D
:104CF000800704D491F8F202044405F0F5FC002783
:104D0000DFF88CB1AA462EE060480422059940885D
:104D1000FFF7C7FEDAF80010574891F89417C568F6
:104D2000C90704D001692A46284605F089FDDAF84A
:104D3000000090F8F102C10707D0800705D456495A
:104D4000284605F0EDFC68B1534D0020594607E0B8
:104D500051F8202035F910301A4441F82020401C29
:104D6000B042F5DB7F1CA742CEDBDAF80010484CDE
:104D7000504691F8221001F00F0303F101034FF0A8
:104D800000011CE05BF82120056892FBF3F295F826
:104D9000F1725FEAC77C08D0BF0706D595F8F272BA
:104DA0007F1C5743B5F8F322BA1AB1EB480F01DA6A
:104DB000039D00E0029D2A4424F81120491CB142C1
:104DC000E0DB049810F0220F09D02046D9F800103B
:104DD000FEF774FD2046D9F80410FEF796FD07B0E3
:104DE000BDE8F08F2DE9F0479A46254B8946002112
:104DF00001252A4E1C681AE032F8113030F8117083
:104E0000DB1B1FB200230AE0C3EB031C06EB8C0C78
:104E10005B1C3CF811801BB2B8442CF8118094F84C
:104E200080C305EB9C1C9C45EEDC491C09B2637DEC
:104E30008B42E1DC00201A4A19E000BF3AF810303A
:104E400039F81010591A0BB2002108E002EB811654
:104E5000491C36F8107009B21F4426F8107094F8F7
:104E6000806305EB96168E42F0DC401C00B2217D7B
:104E70008142E3DCBDE8F087544610005702100081
:104E80003C02100050021000EEFF0100A4261000AA
:104E90008C1410000C0D100034AF01209818012064
:104EA000C41901202DE9FE4F00258246FD4C2F46F6
:104EB000DFF8F483DFF8F493012611E000EB4500FE
:104EC000C5EB0512B0F8B11308EB8200009009EBB6
:104ED0008510CDE901076A465046FFF7DEFE6D1CDE
:104EE000206890F8801306EB9111A942E6DC90F857
:104EF0005011C90710D090F8911109060CD5407DCA
:104F0000E9494200EA48FEF795FE2068E749007D3E
:104F10004200E848FEF78EFEBDE8FE8FFEB5E14A8E
:104F2000E54900241268012300F4907592F880632B
:104F3000C98803EB961306E002EB4406B6F8B163AA
:104F4000B14202D0641CA342F6DCA34219DDC5B114
:104F500092F85001C00703D192F82002C0070FD089
:104F6000D149C4EB041001EB80013C22D348FEF789
:104F700061FECE48402200EB8411D148FEF75AFE74
:104F8000FEBD00220292CD4A0092CD4A01926A46AD
:104F9000FFF783FEFEBD2DE9FC47FEF789FC00907C
:104FA000FEF7B2FC019004216846FEF7EEFA0446D3
:104FB000042101A8FEF7E9FABA4E20444400306803
:104FC000A10090F8220000F00F077F1CBD4816F0EA
:104FD000A2F80025DFF8F0A2DFF8E892B04622E060
:104FE000B5484022C1884088FFF75BFDD8F8001023
:104FF000DAF8146091F89417C90705D032463046A4
:10500000DAF8101005F01CFC0020494608E000BF4B
:1050100051F8202036F910301A4441F82020401C65
:10502000A042F5DB6D1CBD42DADBD8F80000A54ECE
:10503000454690F822004B4600F00F00401C00212E
:1050400007E000BF53F8212092FBF0F226F8112070
:10505000491CA142F6DB9D493046FEF72FFC9C49D6
:105060003046FEF752FC286890F82010090711D549
:10507000984C00212160417D9448FFF7CFF82168CA
:10508000084420602868017D9148FFF7C7F821682F
:1050900008442060BDE8FC8770B504460020FBF79B
:1050A000DEFA0320FBF7DBFA7E4D286890F820102B
:1050B000490701D424F4006490F85011C90705D1C0
:1050C00090F82012C90701D124F0620490F88013EF
:1050D000490701D424F4B07490F8D010490701D4E2
:1050E00024F0040490F8E81109B924F0100490F8B1
:1050F000041309B924F4C07490F85002C00701D118
:1051000024F4806460060BD56F483C226B497C38E0
:10511000FEF790FD6C48402269494038FEF78AFD51
:105120006D490020401C8842FCD3200502D5204652
:10513000FFF737FD14F4907F02D02046FFF7B2FE50
:10514000E0071CD05C4865494088FFF75BFD286894
:1051500090F8200000070AD56048FEF75BFF604921
:105160000123604A086001465C48FEF799FF286801
:1051700090F84904C00702D0204602F05CFC6005AC
:1051800001D5FFF708FF14F0820F02D02046FFF789
:10519000C5FE600607D54C49494B4039474AA1F145
:1051A0003C00FFF71FFE5049012008704F4908706E
:1051B00006F06BFE0020FBF76DFABDE8704003209F
:1051C000FBF768BA2DE9F04136490025364A0968EF
:1051D000364EB1F8B133834219D291F880339C092D
:1051E00001EB4407B7F8B173874209D9012404EBF6
:1051F000931312E001EB4407B7F8B173B84201D141
:10520000254602E008D2A4F10105A5421CD191F87F
:105210005001C00708D103E0641CA342EADCF6E7B2
:1052200091F82002C00772D0C5EB051002EB800197
:105230003C222248FEF7FEFC06EB8511BDE8F0415A
:1052400040221F48FEF7F6BC01EB4405B5F8AF332A
:10525000B5F8B153C01A0002EB1A90FBF3F391F8C2
:105260005001C00703D191F82002C0074FD0134D61
:10527000C4EB0411002002EB810100BF01EB4002EE
:1052800031F9107032F93C2CBF1A5F4302EB272230
:1052900025F81020401C1E28F0DB0020084D06EBEE
:1052A000841125E03C02100098180120C419012047
:1052B00088190120C41A0120A426100024170120F7
:1052C000601701208C14100054461000041B0120AC
:1052D000401B0120A404100020A10700AC00012005
:1052E000940210000426100056021000B8021000AC
:1052F00001EB400231F9104032F9402CA41A5C4312
:1053000002EB242225F81020401C2028C9DB46E4AB
:105310002DE9F0415E4801245E4E047000253560A1
:10532000192000F0A8F8192000F08DF85A4F052038
:1053300038724FF41670FAF7ADFF564844380560DE
:10534000FF2139703460046029E470B55048534C33
:1053500001250570207F40F0040020775048006848
:1053600090F81101C00705D00A2000F084F80A2047
:1053700000F069F8002184F860105C22A276112008
:10538000E07684F860505823A376E076414B443BA6
:105390001960414EFF213170042184F86010A2761B
:1053A000E0761D6070BD70B53A4800244438046052
:1053B000394D08352E79192000F051F8C6F1FB005F
:1053C0002978C0B2491CB0FBF1F03649087030486A
:1053D00004703348006890F81101C00702D0BDE89E
:1053E0007040B2E72F495520891E087070BD10B576
:1053F0002A4C207F40F0040020772948006890F86C
:105400001101C00702D00A2000F029F822490A7BC6
:10541000204B0020443B186084F860005C23A37696
:105420001123E3760978891A89B24FF4FA42B2FB64
:10543000F1F11C4A0909521E11705521521E1170BA
:105440001349087010BD00F01F020121914040096E
:105450004FF0E02202EB8000C0F80011704700F02E
:105460001F020121914040094FF0E02202EB800031
:10547000C0F88011704700F01F02012191404009DF
:105480004FF0E02202EB8000C0F88012704700006D
:10549000CE021000480500222E000020001000203F
:1054A0003C021000F4FF01002DE9F041DFF8EC832D
:1054B000F9480025D8F800104668487D0C7D401C4E
:1054C00004FB00F72FE000BF36F91400002802DCCF
:1054D00045F0200515E040F6FF71884202DB45F0FB
:1054E00010050EE0D8F80010B1F83421B1F8BE1163
:1054F0005318834205DA521A824202DD09B145F09F
:105500004005E74830F91410D8F8000090F8462715
:10551000007D02F00F0201FB0211201A09B280B2D5
:10552000FEF726FB641CA742CEDC2846BDE8F081CE
:1055300010B501461C22D848FEF77CFB8021BDE84F
:1055400010400120FAF79ABF30B59BB00446684678
:10555000FEF70AFF012C07D10120ADF80000002062
:105560008DF816008DF81400BDF80200AFF23F016F
:1055700040F4A670C84D0291ADF8020003246846BD
:10558000FCF766F919AB002280210120FAF7C6FF6B
:1055900080210120FAF7A1FF2878002804D0FDF728
:1055A000FAFB641E002CEADC1BB030BD2DE9FF5F66
:1055B00000200090FEF7D8F90446FEF7DBF9074615
:1055C0004FEA540B4FF4F061B64815F082FDB24833
:1055D0004FF0270980211C3015F09DFD002002901E
:1055E0000120FFF7B1FFAC48D0F804A0AB48006839
:1055F000047D01200025039077E0012000FA05F1E9
:1056000011EA0B0F70D00026012000FA06F818EA04
:10561000070F5ED0A0481C3050F8250010EA080F94
:1056200056D131462846FDF7D3FE01909B483AF902
:1056300014200068B0F834118A423DDC994830F9F2
:105640001430581AA2EB010100D54042002900DABB
:105650004942884215DC01983146401EC0B20246DC
:1056600001902846FEF700FA8E4830F914103AF9F6
:105670001400081A01D5C0F10000009A10440090EF
:105680000AE08849981A00D54042009B18440090CF
:1056900021F814203AF81410814820F81410824997
:1056A000019821F814007C481C3050F8251041EA7C
:1056B000080140F825100BE001983146401CC2B2A9
:1056C0002846FEF7D1F977483AF8141020F814105C
:1056D000641C761C202E97DB6F481C3050F8250088
:1056E000B84201D0002003906D1C4D4585DB039826
:1056F00038B9FCF7A1FD0298401C02904028FFF643
:105700006FAF66484FF0010A00250068067D1DE076
:10571000012000FA05F111EA0B0F16D00024012038
:10572000A04038420ED06048214610F8160080464E
:1057300002462846FEF798F9B8F13F0F01D34FF023
:10574000000A761C641C202CE9DB6D1C4D45DFDB58
:10575000BAF1000F02D10320FDF740FBFCF76CFD0E
:105760000120FFF7F1FEFFF79FFE4C4D064628682B
:10577000017D427D90F846075143009A00F00F00EA
:10578000B2FBF1F400FB04420021192006F0C4FC36
:10579000286890F8460700F00F0000FB044000B2B4
:1057A000FEF7B3F9FEF7B5F902460021202006F016
:1057B000B3FC04B03046BDE8F09F2DE9F05F374AF6
:1057C000116891F83001C4073848037803F0F005F8
:1057D00014D0057000264B7D0C7DDFF8BCA05B1C4F
:1057E000B046914604FB03F783460120FFF7ACFE69
:1057F0002046DAF80420D9F800100EE091F83E11A6
:1058000001F00F0129430170D5E700BF32F91030D4
:10581000B1F832C16345CEDB401C8742F6DC0F2E67
:105820000AD2761CF6B245EA060108F101088BF8A7
:105830000010B8F1100FD8DBBDE8F05F0220FDF7D3
:10584000CDBA10B501244FF404614FF4F83015F0CF
:1058500062FCFCF7F1FCFFF7B0FFFFF7A7FE0F4A71
:1058600044EA006411481268401D017892F8FB2751
:1058700001F0F00102F00F02114301700C48FEF735
:1058800084FB204606F030FD012000F00FFDBDE84E
:105890001040002000F00ABD704610003C021000CD
:1058A000A40F012060D00120E0D70120F6FF010005
:1058B0008C25100010B54FF480542146054815F092
:1058C00008FC2246BDE810404FF4F8310148FEF7CD
:1058D000B1B900006C1E01202DE9F04F0020FF4DF2
:1058E00004460246012140F6FF7BFD4BD5F814909B
:1058F0006E681B6801FA02F737421CD039F914A010
:10590000BAF1000F02DC40F0200013E0DA4502DBC0
:1059100040F010000EE0B3F836C1B3F84171E6462E
:105920000CEB0708D04503DBAEEB070CD44501DDDB
:1059300040F04000641C521C202ADBD30024AF69D5
:10594000AE68224601FA02F535421AD037F91450F2
:10595000002D02DC40F0200012E05D4502DB40F04B
:1059600010000DE0B3F83A81B3F8439108EB090C4D
:10597000AC4503DBA8EB090CAC4501DD40F0400071
:10598000641C521C202ADDD3BDE8F08F10B50146FF
:105990001C22D448FEF74EF98021BDE810400120BA
:1059A000FAF76CBD30B59BB004466846FEF7DCFCE8
:1059B000207801284AD0CA48016891F8FC0680077F
:1059C00005D5B1F85C07ADF83400ADF83A0091F8B0
:1059D000FD064FF00604C00709D0FEF732FF01288C
:1059E00005D0BDF8020040F00200ADF80200ADF8AD
:1059F000004000208DF846008DF84500B74841680A
:105A000049000B9180680C90BDF80200AFF2830151
:105A100040F4A670B34D0291ADF80200032468462D
:105A2000FBF716FF19AB002280210120FAF776FD63
:105A300080210120FAF751FD2878002804D0FDF7D5
:105A4000AAF9641E002CEADC1BB030BD4FF4806064
:105A5000ADF80000CDE72DE9F84F0446006A21219A
:105A600015F037FB3021606A15F033FB2046FCF758
:105A700083FF2046FCF755FC0420DFF86082DFF846
:105A800060A203254FF0000900902046FFF78AFF2F
:105A9000E8072CD04FF0000B5F465E460120D8F897
:105AA0000410B04008421AD03046216AFEF741FA8D
:105AB000D8F8141031F91720DAF80010B1F84511B0
:105AC0008A420BDA00994FF0010B0844C1B23F291A
:105AD00000D93F213046226AFEF73EFA7F1C761C31
