:100000005555AAAA59200000000000000000000079
:10001000DC8300000000000000000000901EB59F7F
:100020000002100059230000A5020000BB020000DE
:10003000D1020000E7020000FD0200000000000005
:10004000000000000000000000000000356001001A
:100050003960010000000000130300003B60010054
:100060003D6001009D2200006F600100D52200006C
:1000700055600100576001005B6001005F60010096
:100080006360010065600100676001006960010054
:100090006B600100716001000000000000000000C2
:1000A00073600100756001000000000000000000A6
:1000B000000000007760010079600100EB22000081
:1000C0007B6001008960010025030000A36001003E
:1000D000A56001000000000000000000000000001A
:1000E0005920000000F002F800F068F80AA090E83B
:1000F000000C82448344AAF10107DA4501D100F0E3
:100100005DF8AFF2090EBAE80F0013F0010F18BF47
:10011000FB1A43F0010318477C970100BC970100CC
:100120000A444FF0000C10F8013B13F0070408BF1D
:1001300010F8014B1D1108BF10F8015B641E05D0BB
:1001400010F8016B641E01F8016BF9D113F0080F70
:100150001EBF10F8014BAD1C0C1B09D16D1E58BF02
:1001600001F801CBFAD505E014F8016B01F8016B39
:100170006D1EF9D59142D6D370470000103A24BFC6
:1001800078C878C1FAD8520724BF30C830C144BFFC
:1001900004680C607047000000230024002500263E
:1001A000103A28BF78C1FBD8520728BF30C148BFDA
:1001B0000B6070471FB51FBD10B510BDDFF80CD028
:1001C000FFF7F8FF16F0ABF819F06CF8000210001A
:1001D00003B4FFF7F1FF03BC19F06CF80A484FF0C5
:1001E000FF0101704FF0000080F311884FF0000014
:1001F00080F3098805484FF00201017062B6044897
:100200004FF080510160704722ED00E000021000C5
:1002100004ED00E002484FF080510160704700009B
:1002200004ED00E04FF0200080F31188EFF3098027
:1002300098B11248006812490968884217D0EFF354
:1002400009800E49096820E9F00F886000B50B4865
:10025000006800F0FDF85DF804EB084808490A68FA
:10026000026000688168B1E8F00F81F309884EF000
:10027000040E4FF0000080F3118870470402100054
:1002800008021000EFF311804FF0200181F3118874
:10029000704700004FF0000080F3118870470000A5
:1002A00062B6704772B6704740BA7047C0BA7047BE
:1002B000401E0028FCDC704700BE704740BA704703
:1002C000C0BA70471EF0040F0CBFEFF30880EFF3C5
:1002D00009804FF0010115F0DCBD1EF0040F0CBFCA
:1002E000EFF30880EFF309804FF0020115F0D1BD64
:1002F0001EF0040F0CBFEFF30880EFF309804FF0FE
:10030000030115F0C6BD1EF0040F0CBFEFF308800B
:10031000EFF309804FF0040115F0BBBD1EF0040F90
:100320000CBFEFF30880EFF309804FF0050115F0E3
:10033000B0BD4FF0000000B516F058FF5DF804EBBB
:10034000FFF770BF1EF0040F0CBFEFF30880EFF350
:1003500009804FF0000115F09CBD0000194910B54F
:1003600001200870184900200860184908601849E1
:1003700008601849086000F0C1F900F053F900F076
:100380006FF8002010BD10B5114800F033F90F4987
:1003900008600D490968884207D00A480078022899
:1003A00003D1BDE81040FFF735BF10BD10B5FFF712
:1003B000EAFF044902200870FFF710FF4FF0FF30FA
:1003C00010BD00000002100004021000080210001E
:1003D0000C0210001002100070B50D460446C169F1
:1003E0008068CC2218F093FEE169A06800220844DE
:1003F0004FF0807140F8041C216A40E9032140F865
:10040000102C40F8142C40F8182C40F81C2C4FF0FD
:100410000B3140E909154FF00A3140F8281C4FF024
:10042000093140F82C1C4FF0083140F8301C4FF0D7
:10043000073140F8341C4FF0063140F8381C4FF0BB
:10044000053140F83C1C4FF0043140F8401D70BDB0
:1004500082698168914201D816F008B8704700009F
:1004600010B54FF4B4714E4818F07BFE002010BD5B
:1004700070B5064600EBC601494800EB8104FFF762
:1004800001FF0546207828B12846FFF703FF6FF0EB
:10049000010070BD0320207000206660206204F11E
:1004A0001C0000F081F82846FFF7F4FE002070BD24
:1004B0002DE9F0410F463A49002500EBC00001EB61
:1004C00080042E46FFF7DEFE8046206A3843206215
:1004D00004F11C00074600F08DF80CE0216A026C64
:1004E000114203D000F062F9012600E06D1C29469C
:1004F000384600F075F80028F0D10EB1FFF743FF41
:100500004046FFF7C7FE0020BDE8F08170B50D46FC
:10051000234900EBC00001EB8004FFF7B3FE216A22
:10052000A9432162FFF7B6FE002070BD70B50C46EE
:100530001B4900EBC00001EB800500202060FFF7A5
:10054000A1FE296A2160FFF7A5FE002070BD2DE9FC
:10055000F0410D46124900EBC0001E46904601EBEB
:100560008004FFF78FFE07460E4800680564216A85
:10057000294203D104F11C0100F02AF93846FFF7A3
:1005800089FEFFF77FFE216A29403160B8F1010F33
:1005900002D1216AA9432162FFF77CFE0020B3E764
:1005A0000805100004021000002101600846704791
:1005B00030B50A6812B10B46C46B08E0002208602F
:1005C000C0E903210AE002F10C03D26812B1D56B35
:1005D000A542F8DC1A68C0E903211860002030BD8C
:1005E0000068002201E0C068521C8A4201D0002845
:1005F000F9D170470068704702690AB1116831B9D2
:100600006FF00400704701F10C02C96839B18142F2
:10061000F9D1C968116000210161084670476FF087
:100620000300704710B54FF4C871324818F099FDB7
:10063000002010BD2DE9F041884606462D4900EB0B
:100640008600174601EBC004FFF71CFE0546207824
:1006500030B12846FFF71EFE6FF00100BDE8F081C3
:1006600002202070E7611422414604F10800666010
:1006700018F0D6FC0020206204F12400FFF794FF5C
:100680002846FFF707FE0020E8E770B5194900EBA0
:10069000800001EBC004FFF7F5FD0546D4E9070132
:1006A000814205DB144804F12401006800F090F851
:1006B000206A401C20622846FFF7ECFD002070BD38
:1006C00070B50C4900EB800001EBC004FFF7DAFDC8
:1006D0000546206A08B1401E206204F12400FFF79D
:1006E00089FF10B1606A00F011F82846FFF7D2FDCB
:1006F000002070BD700610000402100010B54FF409
:100700002A71404818F02DFD002010BD10B5044698
:1007100090F8380002280BD02046FFF76DFF02202A
:1007200084F8380038492046FFF742FFFFF72BFED8
:10073000002010BD2DE9F05F8B460746314900EBE4
:1007400007109046DDE90AA911F820201D461AB1CC
:100750006FF00100BDE8F09F01EB8004FFF792FD10
:10076000064601202070C4E90175C4E90585C4E985
:1007700007A91422594604F1240018F051FC002066
:1007800084F8370084F838006169E0602061C4E9CA
:100790000F1020460C99FFF71FFEA0602046FFF7C0
:1007A000B5FF3046FFF776FD0020D3E710B50446CD
:1007B00090F83800022809D02046FFF71DFF0220DC
:1007C00084F8380010492046FFF7F2FE002010BDE3
:1007D00070B5044690F838000D4602280BD120462B
:1007E000FFF70AFF032084F8380029462046FFF768
:1007F000DFFEFFF7C8FD002070BD044800684068B8
:1008000070470000000810000C02100004021000E5
:1008100010B5042000F017F9052000F014F90620A7
:1008200000F011F9072000F00EF9082000F00BF994
:10083000182000F008F9192000F005F91A2000F03E
:1008400002F9944A00201060924B4033186091499D
:10085000183908608F4908310860C90681F83A00E4
:100860008C4C143C20608B4C0C34206081F83B0095
:10087000884C103C2060874C1034206081F83C008C
:10088000844C0C3C2060834C1434206081F83D0083
:10089000804C083C20607F4C1834206081F83E007A
:1008A0007C4C2834206081F84100241D206081F8B0
:1008B0004200241D206081F8430001201060186070
:1008C00081F833000621042000F0D3F8062105202A
:1008D00000F0CFF80621084600F0CBF806210720EB
:1008E00000F0C7F80621082000F0C3F80621182000
:1008F00000F0BFF80621192000F0BBF804211A20EF
:1009000000F0B7F8042000F0A9F8052000F0A6F8E0
:10091000062000F0A3F8072000F0A0F8082000F05F
:100920009DF8182000F09AF8192000F097F81A2086
:1009300000F094F8042000F07BF8052000F078F82F
:10094000062000F075F8072000F072F8082000F08B
:100950006FF8182000F06CF8BDE810401A2000F085
:1009600067B84C4B10B528331A680124D9065AB120
:1009700000221A6081F8350091F83F0091F83F207D
:100980008242FBD01C6010BD81F83500FAE700EB15
:10099000C00101EB00106FF0030101EB800010B506
:1009A0003D493E4C0978B0FBF1F0401E80B2FF2873
:1009B0000CD9010A2170494200EB01206070FF2030
:1009C000FFF7CFFF2078401E207010BD002121705E
:1009D0006170BDE81040C0B2C3E72E4828300168FE
:1009E00000290CD000210160C00690F83F1090F85B
:1009F0003F20FF2A03D090F83F208A42FBD0704767
:100A000010B5264C2178607851EA000207D051B128
:100A1000FF20FFF7A6FF2078401E207010BDBDE824
:100A2000104005F0B0BCFFF79CFF0020607010BDC7
:100A300000F01F02012191404009800000F1E020F8
:100A4000C0F80011704700F01F02012191404009D9
:100A5000800000F1E020C0F88011704700F01F0214
:100A6000012191404009800000F1E020C0F880128F
:100A700070474907090E002806DA00F00F0000F160
:100A8000E02080F8141D704700F1E02080F8001489
:100A9000704700001C050022E5041000140210003D
:100AA0004E48012101600021016070474FF008505D
:100AB000012140F8A01F00210160704710B50020FF
:100AC00000F075F8FFF7F2FFFFF7EAFF4449002056
:100AD00008604FF0E021A02081F80004002000F021
:100AE00071F8BDE81040002000F056B83C480121E4
:100AF0001C38016000210160704710B5002000F033
:100B000056F8364901200860002000F05BF8BDE887
:100B10001040002000F040B8304901201C39086026
:100B20007047304800782F49491C0978401A00F076
:100B30003F0070474FF00051027881F80022427860
:100B400081F80122827881F80222C27881F803229A
:100B5000027981F80422427981F80522827981F8AC
:100B60000622C07981F8070270471F480068417863
:100B700082784FF00050437A03741C4B1B78437407
:100B800043891B0A83744389C37401754275C17913
:100B90008175017AC175704700F01F0201219140F3
:100BA0004009800000F1E020C0F80011704700F01B
:100BB0001F02012191404009800000F1E020C0F8AF
:100BC0008011704700F01F02012191404009800010
:100BD00000F1E020C0F88012704700005C84002221
:100BE0007C0400222004002028021000D9041000F8
:100BF00010B5092000F02FF80A2000F02CF8092089
:100C000000F034F80A2000F031F80521092000F046
:100C100038F805210A2000F034F84FF000517F2009
:100C200081F849007C2281F84A2081F84C0000209C
:100C300081F848001B48006890F8C800C20709D036
:100C4000820707D511F84A2FC0F38203012098408C
:100C500082430A7010BD00F01F020121914040093B
:100C6000800000F1E020C0F88011704700F01F0202
:100C7000012191404009800000F1E020C0F880127D
:100C800070474907090E002806DA00F00F0000F14E
:100C9000E02080F8141D704700F1E02080F8001477
:100CA0007047000028021000704710B50446024645
:100CB0002A21002000F06EF9221D2B21002000F0D7
:100CC00069F904F108022C21002000F063F904F115
:100CD0000C020F21032000F05DF92068000E0328AC
:100CE00025D304F114022D21002000F053F904F162
:100CF00010022E21002000F04DF904F11C022F21DA
:100D0000002000F047F904F118023021002000F023
:100D100041F904F124023121002000F03BF904F1F3
:100D200020023221BDE81040002000F033B910BD90
:100D300010B54FF00054072084F88900002004F813
:100D4000880F44F2C000608000BF00BF00BF00BF3A
:100D50004CF2C000608000BF00BF00BF00BF4CF27B
:100D6000E00060800A20FFF7A3FA44F2E000608010
:100D700000BF00BF00BF00BF4FF48040608010BDC7
:100D8000F0B5002427464FF000554FF0E00C18E076
:100D900001F03F0185F8890005F8881FA5F802C019
:100DA00000BF00BF00BF00BFAE6843F824606F8083
:100DB000883D00BF491C521E641C3F2901D9401CBC
:100DC000C0B2002AE4DCF0BD2DE9F0474FF0005539
:100DD0000026044625F88A6FDFF870920121C9F8D1
:100DE00080104FF4C058A5F8008000BF00BF00BFBE
:100DF00000BF00BF00BF4FF480572F803C20FFF79B
:100E000057FA2E80FFF794FF00F0DBF85C2000F02B
:100E1000EAF82346012208210020FFF7B1FF231D35
:100E2000012209210020FFF7ABFF04F10803012292
:100E30000A210020FFF7A4FF04F10C0301220B217B
:100E40000020FFF79DFF04F1100301220C21002078
:100E5000FFF796FF04F1140301220D210020FFF794
:100E60008FFF00F0AEF8FFF763FF2F8000BF00BFD9
:100E700000BF00BF00BF00BF00BF00BF00BF00BF7A
:100E800000BF00BFA5F8008000BF00BF00BF00BFCB
:100E900000BF00BF4FF440602880C9F88060BDE803
:100EA000F087F0B50026059C04B18026C5B2002469
:100EB0004FF00057DFF894E125E087F889505FEAAA
:100EC000C05C01F03F0C4CEA060C01D54CF0400C24
:100ED00087F888C053F824C0C7F88CC04FF0010CC5
:100EE000CEF8B0C04FF0000CCEF8B0C0491CC9B26B
:100EF000402902D36D1CEDB20021DEF8C0C0BCF168
:100F0000000FFAD1641C9442D7DBF0BD4FF00052C1
:100F100082F88900002309B1802002E0C00503D5D2
:100F2000402082F8880001E082F88830474801219B
:100F3000C0F8AC10C0F8AC30D0F8C0100029FBD11C
:100F40007047F8B50D4606464FF4F474002120466C
:100F5000FFF7DCFF00200146009033462A4620467A
:100F6000FFF79FFFF8BDF8B50D4606464FF4F8743D
:100F700000212046FFF7CAFF00214FF4FC70FFF765
:100F8000C5FF00200146009033462A462046FFF761
:100F900088FFF8BD4FF0005383F8890041F08000CE
:100FA00083F8880029480021C0F8B4100121C0F856
:100FB000B410D0F8C0100029FBD1D3F89000106015
:100FC000704710B54FF48040C40324F88A0F042002
:100FD000FFF76EF90020208000BF00BF00BF00BFF8
:100FE00000BF00BF10BD70B52126740724F88A6FBA
:100FF00000BF00BF00BF00BF00BF00BF40F0210521
:10100000258000BF00BF00BF00BF00BF00BF44F28B
:101010002101084320800420FFF74AF9258000BF02
:1010200000BF00BF00BF00BF00BF268000BF00BFE1
:1010300000BF00BF00BF00BF0020208000BF00BF76
:1010400000BF00BF00BF00BF70BD00000010002245
:10105000F8B5FA4E00252C463570F5700120B560C4
:1010600000F07EFC0C2000F07BFC032000F078FCFC
:10107000172000F075FC012000F07DFC0C2000F032
:101080007AFC032000F077FC172000F074FC00F0DD
:10109000C8FC6A460221EA4801F0F9F8E9489DF8DF
:1010A0000010E94A01709DF801001070542900D029
:1010B000042500F0B6FE0521012000F067FC0521A3
:1010C0000C2000F063FC0621032000F05FFC0621E9
:1010D000172000F05BFC012000F037FC032000F03B
:1010E00034FC172000F031FCB47074702846F8BD51
:1010F00038B50D46009014460421684615F0F1FA03
:10110000D2498978C90604D5062D01D0032D00D116
:10111000401C0099216584F84E0038BD2DE9F0414E
:10112000CA4D0446CA4E002085F8460030682A465B
:10113000214690F845076875E86AFFF7D9FF286BE4
:10114000A865E5204FF0E90C042C08D0052C06D04A
:10115000012C40D0022C3ED00A2C7DD091E0316889
:10116000AB7891F8A8219B0622F0060201D542F047
:10117000040285F84D20B1F8AA21AA86B1F8AC2165
:10118000EA8691F8AE2185F8382091F8AF2185F8EC
:101190003920B1F8B0216A87B1F8B221AA8791F855
:1011A000B42185F83E2091F8B52185F83F2091F8CB
:1011B000B71185F8451095F84610042C41F004014C
:1011C00085F84610A349C1F30E01A5F8481053D085
:1011D000052C54D055E0326892F81B1421F0060318
:1011E00069888F0601D543F0040385F84D30B2F8C5
:1011F0001C34AB86B2F81E34EB8692F8203485F8A6
:10120000383092F8213485F8393092F8223492F847
:10121000B171C90543EA07236B8792F8243492F829
:10122000B37143EA0723AB8792F8263485F83E3042
:1012300092F8273485F83F3092F8283485F8423008
:1012400003D492F82B1485F8441092F8291485F8E9
:10125000451095F8461000E028E041F0040185F8BB
:1012600046107C49F831C1F30E01A5F84810012C55
:1012700002D0022C03D004E085F84A0001E085F892
:101280004AC0A8788007306890F8660701D520F03A
:10129000030085F84B00687D20F0040068756748FE
:1012A0004470BDE8F041694800F0B2BE3168AA78E8
:1012B00091F85817920621F0060101D541F004017A
:1012C00085F84D1095F8461041F0040185F8461058
:1012D0006049F839C1F30E01A5F84810CCE75C4825
:1012E000564A0068127900F2073131F81220574946
:1012F0004A8390F8FB22CA7590F8FC220A7690F88F
:10130000FD02887700200875887570472DE9F04741
:101310004E4D0446002085F846004D4EE12085F8EC
:101320004A003068DFF830914C4B90F84517434F36
:101330006975072C06D0082C17D0062C3DD0032C3D
:101340003BD033E090F8158090F814C095F85C20FD
:1013500008F1010808FB0CF1012A03D90CFB02FC7F
:101360000CFB08F109EB410108E0FFF7B8FF30681A
:101370003A79017D51433A4A02EB4101C1F30E0132
:10138000A5F8481090F853171A7801F0F00102F010
:101390000F021143E97790F8550785F821002B4A91
:1013A00021460120FFF7A4FE2869A8656888410747
:1013B000697D21D521F0040124E0427DB7F808C001
:1013C000017D521C02FB0CF2514309EB4101C1F3B8
:1013D0000E01A5F8481090F853171A7801F0F001A3
:1013E00002F00F021143E97790F8550785F82100C4
:1013F000164A2146E868D5E7326892F8452702F098
:1014000004021143697595F84A10072C12D021F097
:10141000020185F84A108007306890F8660701D508
:1014200020F0030085F84B007C70BDE8F0470748CA
:1014300000F057BD41F00201EBE700001802100078
:1014400004100020D8041000D9041000A80A1000CD
:1014500028021000F89F012000800120F6FF010003
:10146000009E0120062818D0092816D0072814D07D
:10147000082812D0032810D00C280DD00D280BD02E
:101480000B2809D00A2807D0042805D0052803D046
:10149000012801D0022801D140E637E7704730B576
:1014A000FF4D8BB004460122FE48042C008808D072
:1014B000052C06D0012C0ED0022C0CD00A2C07D003
:1014C00022E0E97804291FD005291DD080071BD010
:1014D0008DF800200CE0E978012915D0022913D0FD
:1014E000410702D410F0050F0ED002208DF8000045
:1014F000684615F052FA684600F074FB684600F042
:1015000029FB684600F029FEEC700BB030BDF8B541
:10151000E34D0746012901D1002068716C79E24E44
:1015200006E056F82420694638469047012804D042
:10153000641C0E2CF5D90020F8BD6C719DF80000DC
:10154000F8BD70B5018800292BD001466022D5482E
:1015500017F0ABFDFFF751F9D14D0026C5E9026048
:101560002E71687800281CD10121CE48FFF7CFFFEB
:10157000040016D0CD4901200870CD48006890F8CD
:10158000101149070ED590F8430780070AD400F0E0
:1015900038FE0220A87000F038FE192000F06CFE22
:1015A0006C7070BD2E702046FFF779FF2046BDE8B5
:1015B000704057E700207047C268120006D00088CC
:1015C000C00503D507200870012070470020704730
:1015D000C268120006D00088800503D50820087074
:1015E0000120704700207047C268120006D00088B2
:1015F000400403D503200870012070470020704785
:10160000C268120006D00078C00703D00620087018
:101610000120704700207047426A120006D000780F
:10162000000703D50920087001207047002070478B
:10163000C26A120008D0026B32B10078800603D56E
:101640000A2008700120704700207047C26A12000B
:1016500006D00078C00603D50B2008700120704723
:1016600000207047C26A120006D00078800703D5B8
:101670000C2008700120704700207047026B32B1C7
:101680000078400703D50D20087001207047002026
:101690007047C26A120007D0026B2AB10088C004EA
:1016A00002D501200870704700207047C26A1200FE
:1016B00008D0026B32B10088800403D50220087084
:1016C0000120704700207047C26A120008D0026BE8
:1016D00032B10088400503D504200870012070470E
:1016E00000207047C26A120008D0026B32B1008835
:1016F000000503D5052008700120704700207047C1
:10170000002008700120704700B589B001208DF8D5
:10171000000000F053F96748019000F5F85003907D
:1017200000F53A7004905F4881686846884709B0C0
:1017300000BD5B4B10B559780120082910D11A79EA
:101740005B4C521CD2B21A71246894F8064304F020
:101750000F04641CA24204D20846FFF783FE002057
:1017600010BD0021197110BD70B54D4C012061787C
:10177000062922D1A1684B4D491CA16095F85C2037
:1017800091421BDAE8682A4620F001000621FFF7A3
:10179000AFFC474822890068417D007D491C5143C8
:1017A000491C4143434800EB4100C0F30E00A5F83B
:1017B0004800284600F005FC002070BD0021A16013
:1017C00070BD70B53A4909684C7D097D641C4C4375
:1017D00034490A78D3070A4692F85C201FD0012AC0
:1017E0001DD9498849051AD50020324B14E0012142
:1017F00009E001FB040633F8105033F81660491C69
:10180000354423F810508A42F3DC33F9101091FB71
:10181000F2F123F81010401CA042E8D370BD02770B
:1018200070BD70B588B0FFF784FF00280ED0FFF7B9
:101830009BFF00280AD000211A48FFF768FE040029
:1018400006D0FFF72CFE2046FFF70CFE08B070BD57
:10185000134D164800246C7017490470A4200873B7
:10186000134E306890F81001400702D5AC7000F0BC
:10187000B6FC2878012837D08DF8004001208DF87B
:101880001C006846FFF79DFF064C0C4D2088400564
:1018900018D53068407D420005EB400128460FE036
:1018A00018021000A80A1000A0920100E304100022
:1018B000280210000080012000100020F89F012065
:1018C00017F0AEFB3948019000F5F050029000F59A
:1018D0008070039000F53A70CDE90405F838069061
:1018E000A16868468847B1E703208DF80000C5E786
:1018F00070B52F482F4E304C00684FF0000590F81F
:10190000101149070AD590F84307800706D4A0783C
:10191000012808D002280FD0032803D1A570FFF7B3
:10192000F3FE357070BD0220A07000F06EFCBDE8C3
:101930007040322000F0A0BC0320A0706078FFF758
:10194000AEFD6078BDE870408CE500F01F0201211B
:1019500091404009800000F1E020C0F8001170477C
:1019600000F01F02012191404009800000F1E020B9
:10197000C0F88011704700F01F020121914040091A
:10198000800000F1E020C0F8801270474907090E7E
:10199000002806DA00F00F0000F1E02080F8141DA6
:1019A000704700F1E02080F80014704700800120AB
:1019B00028021000E304100018021000FE48002363
:1019C0000360FD481C3803604FF00851C1F8E03354
:1019D0000120C1F8E003C1F8D833C1F8D803C1F839
:1019E000D033C1F8D003C1F8D033F4480268002ADC
:1019F000FCD1F348027B42F020020273027B22F00A
:101A000040020273027B22F080020273027B22F00A
:101A100020020273C1F8D833C1F8E033E9480370FB
:101A2000704730B5E84800240460E7480C30046093
:101A30004FF00850C0F8DC430121C0F8DC13C0F8B7
:101A4000DC43C0F8D043C0F8D013C0F8D043202006
:101A5000050685F8590085F85A00D9490873A4206D
:101A60000873D648183001680029FCD1FFF7A6FF9B
:101A7000D548FC30046085F8344030BDF0B5002115
:101A8000CE4CCF4A4FF0180C4FF4F8355C272E4659
:101A9000002000EB020E2B5C401C8EF860300C28FE
:101AA000F7DB20680028FCD19176D77606F10C058B
:101AB00000EB020E2B5C401C8EF860300C28F7DB2C
:101AC00020680028FCD1481C9076D776891C06F146
:101AD0003005B1EB4C0FDADBF0BD2DE9F047924653
:101AE000089D0022C5F10801B54E01F0FF0C144617
:101AF0005B1E002189469A420BDA00EB0208875CE4
:101B000098F8018027FA05F708FA0CF847EA080761
:101B100003E007D1875C27FA05F701EB060888F890
:101B2000607003E001EB060888F8609001F10101A4
:101B300002F101020C29DEDBA0490F68002FFCD165
:101B40000AEB0401B1765C21F176641C022CD0DB37
:101B5000BDE8F08738B5002504460095006A1123DA
:101B600030222946FFF7B9FF0095182335220021BE
:101B7000606AFFF7B2FF38BD00B58BB000208DF86A
:101B80000000684614F009FF6846FFF7E3FF0BB05A
:101B900000BD2DE9F0470024DFF82092DFF820C2D5
:101BA0002546A0464FF05C0A00219C4205DA01EB75
:101BB0000C07065D87F8606003E001EB0C0686F811
:101BC0006080491C641C0C29EFDB49460E68002E1E
:101BD000FCD151198CF81A108CF81BA06D1C032D28
:101BE000E2DBB5E710B50446406918233222002134
:101BF000FFF7CFFFA06920233722BDE81040002166
:101C0000C7E700B58BB000208DF80000684614F0DF
:101C1000C4FE6846FFF7E6FFB9E7F0B50024684D5B
:101C200005E0165D6719641C87F8606064B29C4229
:101C3000F7DB624A1468002CFCD1A976184340F007
:101C40001000E876F0BD70B500235D4C05E0CD5C7A
:101C50001E195B1C86F860505BB29342F7DB574954
:101C60000B68002BFCD1A07642F01000E07670BD2E
:101C700030B5564C07220220216801F24271FFF76D
:101C8000E2FF21680222092001F24A71FFF7DBFF1F
:101C9000216806220B2001F24D71FFF7D4FF206866
:101CA0004B494C4D90F85307097800F0F00001F0D3
:101CB0000F0108432870012229461120FFF7C3FFB6
:101CC00021680322162001F25771FFF7BCFF40483C
:101CD0000122401E007800F00F01206890F85A079A
:101CE00061F31F10287029461920FFF7ACFF216807
:101CF00001221A2001F25B71FFF7A5FF216804227F
:101D00001B2001F25C71FFF79EFF31480222C01CCC
:101D10002946007828702E48401C007868701F20E3
:101D2000FFF791FF21680222212001F5EC61FFF706
:101D30008AFF27480222001D29460078287024487F
:101D4000801C007868702720FFF77DFF2168012242
:101D50002A2001F26371FFF776FF216807223D20F8
:101D600001F26671FFF76FFF2068022290F86E178C
:101D7000297090F86F07687029464420FFF763FFC9
:101D800021680222462001F5EE61FFF75CFF216821
:101D90000822482001F27271FFF755FF21680822DE
:101DA000502001F27A71FFF74EFF2168052258207A
:101DB00001F2847110E000001C0C0022040B0022D0
:101DC0000010002019021000440400222802100014
:101DD000F6FF0100080B1000FFF735FF22684FF0F7
:101DE000005592F88F0705F8530F0123FA210020C0
:101DF00002F28A72FFF711FF226801230E21C02030
:101E000002F28C72FFF709FF226801231421C0201F
:101E100002F28D72FFF701FF332068740B20A87463
:101E200030BD10B5FFF724FFFFF7EBFEFFF7A4FE70
:101E3000BDE8104022E638B5FF4C026D0092054621
:101E40006273100AA073100CE073100E2074042249
:101E500069462B20FFF7F7FE012205F14E012F20E6
:101E6000FFF7F1FE95F84E00A074A86D0090E074A5
:101E7000010A2175010C6175000EA07504226946E6
:101E80003520FFF7E0FE0098800F84F84000EB4912
:101E9000012208703920FFF7D6FE38BD00EBC001E3
:101EA00001EB00106FF0030101EB800010B5E44975
:101EB000E44B09781A6890FBF1F0401EC1B201248E
:101EC00060075AB100221A6080F8341090F83F1071
:101ED00090F83F208A42FBD01C6010BD80F834107F
:101EE000FAE77CB5044600208DF804002046FFF791
:101EF000A2FF4FF00050B4F8481020F8541F217D85
:101F000000F8011C94F84A104173CB4DA07D85F870
:101F10003600CD4E306890F842078DF80000618899
:101F2000890503D520F012008DF8000001226946D2
:101F30000220FFF788FE042204F115010520FFF7B7
:101F400082FE31680222092001F24A71FFF77BFE0E
:101F5000022204F11A010C20FFF775FE022204F19F
:101F60001C010E20FFF76FFE052204F11E01102058
:101F7000FFF769FE306890F80907C0070AD0012210
:101F800001A94420FFF75FFE022204F140013F2037
:101F9000FFF759FE012204F14B013D20FFF753FEEC
:101FA000012204F14C014420FFF74DFEA7480168CF
:101FB0000129FCD194F84A0028732320FFF76EFF13
:101FC0007CBD38B504469C4D006D00906873010AD5
:101FD000A973010CE973000E2874042269462B20B2
:101FE000FFF731FE012204F14E012F20FFF72BFEF7
:101FF00094F84E00A874680434F8481F20F8541F61
:10200000A1784173A07828732320FFF747FF38BDDC
:102010007EB50446FFF70FFF4FF00050B4F84810AC
:1020200020F8541F94F8431000F8011C94F84A104B
:102030004173854E306890F842078DF80000618842
:10204000890503D520F012008DF8000001226946B1
:102050000220FFF7F8FD012204F115010520FFF72A
:10206000F2FD94F84600744DC00709D0316891F82C
:10207000950785F836000122062001F2957107E0E8
:1020800094F8440085F83600012204F1440106204A
:10209000FFF7D9FD012204F142010720FFF7D3FD2C
:1020A000012204F145010820FFF7CDFD316802222D
:1020B000092001F24A71FFF7C6FD306890F8090760
:1020C000C00707D000208DF80800012202A9442093
:1020D000FFF7B9FD012204F14D011720FFF7B3FD11
:1020E00094F84A00400701D5042000E002208DF852
:1020F0000400012201A91820FFF7A5FD022204F126
:1021000034011B20FFF79FFD022204F136011D2040
:10211000FFF799FD012204F138012120FFF793FD1B
:10212000012204F139012220FFF78DFD012204F183
:102130003F012A20FFF787FD012204F14B013D20DA
:10214000FFF781FD414801680129FCD194F84A005C
:1021500028732320FFF7A2FE7EBD30B50446C06978
:10216000364D0122007800F00F013748006890F8E2
:102170005A0761F31F10287029461920FFF763FDE5
:10218000E06802222946007828706068007868704C
:102190001F20FFF758FD2069294602220078287089
:1021A000A06800786870BDE8304027204BE52649DC
:1021B0000A6892F84D270270096891F85517017363
:1021C000704710B50446014601220B20FFF73BFD86
:1021D00004F10C010122BDE81040132033E516493B
:1021E00008B504200873184801226946006890F871
:1021F000430720F008008DF800000320FFF723FDBF
:1022000008BD0D4920200873704718B5104C0122F5
:102210006946207840F0F0008DF800001046FFF786
:1022200012FD0549C020087320788DF800000122B6
:10223000694610460EE0000000100020080B100058
:10224000E50410004005002228021000000B0022C7
:1022500077041000FFF7F7FC18BD3048016800292B
:1022600009D0002101604FF0005090F83F1090F825
:102270003F208A42FBD070472849002240390A603B
:102280004FF0005282F82D0001200860704770B5B1
:10229000234C2368002BFCD11D4603E0C6185B1CB1
:1022A00086F880508B42F9D32368002BFCD102E0E2
:1022B000C45CD4545B1C8B42FAD370BD10B514F0CF
:1022C000BEFFFFF7CAFF1748007878B114481838E6
:1022D00001680029FCD11448C078400602D5134992
:1022E00001200870BDE81040FFF79BBA104900209C
:1022F000087010BD10B514F0A2FF08490020403945
:102300000860BDE81040FFF7F3BA10B514F097FF6E
:10231000FFF7A3FFBDE81040FFF7EABA400500222F
:102320001C0B0022190210000010002018021000DF
:10233000E3041000F0B50746002004460D4E15E0FA
:1023400057F8245003234FEAC30C45FA0CF280EAF5
:1023500002600822002802DA86EA400000E040001D
:10236000521E002AF6DC5B1EEDD5641C8C42E7DBB6
:10237000F0BD00001B000080124880471248004753
:10238000FEE7FEE7FEE7FEE7FEE7FEE7FEE7FEE725
:10239000FEE7FEE7FEE7FEE7FEE7FEE7FEE7FEE715
:1023A000FEE7FEE7FEE7FEE7FEE7FEE7FEE7FEE705
:1023B000FEE7FEE7FEE7FEE7FEE7FEE7FEE7FEE7F5
:1023C000FEE7000001240000C50000002648006868
:1023D0004FF00051002891F8210000F01C000DD0B2
:1023E000042805D0082805D00C2805D096200CE03C
:1023F00011200AE0252008E04B2006E0042809D03F
:10240000082809D00C2809D07020401E01F82C0F94
:10241000087070470C20F8E71B20F6E73720F4E738
:1024200070474FF00051D32081F821000E49012060
:102430000860CBE74FF000510B2081F821000A49DA
:1024400001200860C2E7084801684FF0005090F88A
:10245000210011B1F32804D001E0932801D000201D
:1024600070470120704700003404002210B5014677
:102470002022F84816F019FEBDE810404FF4006124
:102480000120FEF715B870B59AB0064614460D4601
:10249000684614F028FEF0480078012808D0EF487C
:1024A0000278072A01D0062A02D1684603F007FA0B
:1024B000E00702D00120ADF80000600608D5E84929
:1024C00000200870BDF8000040F48060ADF8000006
:1024D000200605D5BDF8000040F48050ADF800009E
:1024E000600705D5BDF8000040F00600ADF800001B
:1024F000ADF81A60ADF83A50ADF83450AFF2930031
:10250000D44E03244FF4006502906846FFF719F893
:1025100018AB002229460120FEF719F829460120B0
:10252000FDF7F4FF3078002804D013F04AFD641E54
:10253000002CEADC1AB070BD2DE9F041C94A002632
:10254000314612683446430503D592F86D12402493
:10255000090910F4D17F04D092F86D1244F00404FC
:10256000090910F0050F04D092F86C3244F0010410
:102570001E09C00604D592F86C0244F00204060954
:102580008E4200DA0E46761C002C0AD00025B64F8B
:1025900005E0F98878882246FFF775FF6D1CB54283
:1025A000F7DBBDE8F0812DE9F35FDFF8B8920E4666
:1025B000D9F80000447D017D90F86C02641C00F0A5
:1025C0000F074C434FF48851A8487F1C16F0C9FDF3
:1025D0000025DFF89882DFF890A2DFF878B219E0E2
:1025E000BAF8061001220098FFF74DFFA049DBF86A
:1025F000040003F03BF89E490020424607E052F8F1
:10260000203031F910C0634442F82030401CA04211
:10261000F5DB6D1CBD42E3DBD9F800004D4690F8B8
:102620006C0200F00F018D48491C0078072804D087
:10263000062802D00020434628E00020434606E05A
:1026400053F8202092FBF1F226F81020401C2A6853
:10265000127D02EB42028242F2D8D9F80020507D6E
:10266000127D401E504306E053F8202092FBF1F209
:1026700026F81020401CA042F6DBBDE8FC9F53F872
:10268000202092FBF1F226F81020401CA042F6DB3D
:10269000F3E72DE9FC4714F016F9009014F03EF929
:1026A00001900421684614F01CF80446042101A896
:1026B00014F017F86B4E204444003068A10090F8E5
:1026C0006D0200F00F0769487F1C16F04AFD0025D7
:1026D000DFF880A1DFF89491B04621E06248402203
:1026E000C1884088FFF7CFFED8F80010DAF81460F0
:1026F00091F89417C90705D032463046DAF8101021
:1027000002F031FC0020494607E051F8202036F95C
:1027100010301A4441F82020401CA042F5DB6D1C0B
:10272000BD42DBDBD8F800000021504E90F86D026E
:10273000454600F00F024B46521C06E053F82100BC
:1027400090FBF2F026F81100491CA142F6DB494942
:10275000304614F0BEF84849304614F0E0F82868D6
:102760004FF0000690F8C10240061ED543480024F1
:10277000068013E0407D42494200604301EB400087
:102780003C4916F04DFC28683E49007D42006043FC
:1027900001EB4000384916F043FC641C286890F8AF
:1027A000BE12C1F30111A142E4DC286890F869125D
:1027B000890710D5344C2660417D2E4814F0CCFB9F
:1027C0002168084420602868017D2B4814F0C4FB70
:1027D000216808442060BDE8FC872DE9FC4714F01F
:1027E00072F8009014F09AF801900421684613F0F2
:1027F00078FF0446042101A813F073FF194E20440A
:1028000044003068A10090F86D0200F00F071748EF
:102810007F1C16F0A6FC0025DFF838A0DFF84C90EE
:10282000B0463EE010488022C1884088FFF72BFE6A
:10283000D8F80010DAF8186091F89417C90705D095
:1028400032463046DAF8101002F08DFB002049467F
:1028500024E00000180B1000DB021000D004100070
:102860005D04100028021000D0531000B841100081
:10287000BA39100078050120B40501204E0410007B
:10288000140A0120C80A0120C803100051F82020B2
:1028900036F910301A4441F82020401CA042F5DBE4
:1028A0006D1CBD42BEDBD8F800000021764D90F8CB
:1028B0006D024A4600F00F035B1C06E052F821004F
:1028C00090FBF3F025F81100491CA142F6DB6F499B
:1028D000284613F0FEFF6E49284614F020F86D4993
:1028E0000120087077E770B504460020FDF7CDFEA3
:1028F0000320FDF7CAFE684D286890F86912C907E1
:1029000001D124F4006490F8B811C90701D124F072
:10291000620490F80513490701D424F0040490F8E8
:10292000CE1009B924F0100490F81A04C00701D1A0
:1029300024F4805459490020401C8842FCD32005CF
:1029400002D52046FFF7F8FDE00743D0544855492B
:102950004088FFF728FE286890F8690280070AD5AA
:10296000504814F0FBF950490123504A08600146D1
:102970004C4814F028FA28684D4A90F84C1051B190
:102980004C490978962906D14A49491C0978A52954
:1029900001D10021117090F84814CB071AD0127899
:1029A000C2B18A0713D490F8CC2052070FD490F804
:1029B000692412060BD490F87024120607D40A0674
:1029C00005D4490603D490F85704C00702D0204626
:1029D00002F00AF8600501D5FFF75BFEE00401D5BF
:1029E000FFF7FBFE34490120087003F0C3FC002010
:1029F000FDF766FEBDE870400320FDF761BE2DE9DE
:102A0000F0412E4801242E4E0470002535604FF011
:102A1000E0206106C0F88012C0F8001105200F0107
:102A200087F836004FF448702E37FDF741FC2448F4
:102A300044380560FF21397034600460B1E52048F6
:102A4000002230B444380260C10691F83A004FF0D9
:102A5000E0240B11C4F88031C0F1FB0091F836106E
:102A6000C0B2491CB0FBF1F012491431087013498F
:102A70000A70104A55211232117012490870191348
:102A800030BC0120FDF742BDB841100050EB0120E1
:102A90008CEB01209C0410002802100020A10700EC
:102AA000D053100068D90120B40410003053100036
:102AB00086041000E0FF01005C041000E204100036
:102AC00048050022E5041000F0B5E74900204F68F2
:102AD000E6490B685A7D197D521C01FB02F61CE089
:102AE00037F91120002A02DC40F0200014E040F603
:102AF000FF74A24202DB40F010000DE0B3F8B556BF
:102B0000B3F8444005EB040C944505DA2D1B9542BF
:102B100002DD0CB140F04000491C8E42E0DCF0BD0B
:102B200010B501462022D04816F0BFFA8021BDE83A
:102B300010400120FDF7BCBC30B599B00446684692
:102B400014F0D1FA012C07D10120ADF800000020CB
:102B50008DF816008DF81400BDF80200AFF23F01A9
:102B600040F48670C04D0291ADF80200032468461F
:102B7000FEF7E7FC18AB002280210120FDF7E7FCFF
:102B800080210120FDF7C2FC2878002804D013F032
:102B900018FA641E002CEADC19B030BD2DE9FF5F85
:102BA0004FF0000813F0EAFE044613F0EDFE8346F2
:102BB000600802904FF4F061AD4816F0B0FA1820AA
:102BC0000190A9488021203016F0CBFA0020009017
:102BD0000120FFF7B1FFA448D0F80490A348006893
:102BE000047D01200025039069E00122029902FA88
:102BF00005F0084262D00027012000FA07FA1AEA1D
:102C00000B0F50D09848203050F8250010EA0A0FDA
:102C100048D13946284613F089FC0646934839F9CD
:102C200014200068B0F8B5168A4230DC904830F9BC
:102C30001430581AA2EB010100D54042002900DAF5
:102C40004942884210DC761EF6B2324639462846A2
:102C500013F0E5FE864839F9141030F91400401AD3
:102C600000D54042804406E08149981A00D5404290
:102C7000804421F814207F4820F814607A482030DE
:102C800050F8252042EA0A0240F825200AE0761C86
:102C9000F2B23946284613F0C2FE754839F81410CE
:102CA00020F81410641C7F1C202FA5DB6E482030F8
:102CB00050F82510594501D0002003906D1C019853
:102CC000854292DB039838B9FEF7D8FE0098401C85
:102CD00000904028FFF67CAF64484FF001090026C1
:102CE0000068CA46057D1DE002990AFA06F05246C0
:102CF000084216D0002492460AFA04F010EA0B0F9C
:102D00000CD05C48214610F8157030463A4613F056
:102D100086FE3F2F01D34FF000096D1C641C202C50
:102D2000EADB761C01988642DEDBB9F1000F02D1A6
:102D3000032013F06CF9FEF7A1FE0120FFF7FCFE63
:102D4000FFF7C2FE044649480168087D4A7D5043AA
:102D5000B8FBF0F291F8460700F00F0000FB0220EC
:102D600000B213F0AEFE04B02046BDE8F09F2DE99E
:102D7000F05F3E4B186890F81017CC073E490A7870
:102D800002F0F00713D00F700024427D067D521C24
:102D900025469B4606FB02F98A460120FFF7CCFE3A
:102DA00031480023DBF80020416830460DE090F800
:102DB000BF0600F00F0038430870D6E731F910C0A5
:102DC000B2F8B386C445D0DB401C8145F6DC002B4D
:102DD000CBD10F2C08D2641CE4B247EA04006D1C6E
:102DE0008AF80000102DD8DBBDE8F05F022013F058
:102DF0000EB970B501244FF404614FF4F83016F0A9
:102E0000B0F9FEF73BFEFFF7B2FFFFF7C7FE174D25
:102E100044EA006418482A68401D017892F8FB27AC
:102E200001F0F00102F00F0211430170134813F09A
:102E300055FF204603F08AFC286890F8A001C007DF
:102E400002D0012000F0A2FC286890F81A04C00704
:102E500004D0BDE87040022000F098BCBDE870408E
:102E6000422003F073BC0000380B10002802100051
:102E700028C10120A8C80120F6FF0100B8521000A7
:102E80002DE9F04FDFF8FCA3FF490020DAF814C069
:102E9000DAF80490096804460246012740F6FF7BF1
:102EA00007FA02F313EA090F19D03CF91430002B8A
:102EB00002DC40F0200011E05B4502DB40F0100036
:102EC0000CE0B1F8B756B1F8C26605EB06089845B4
:102ED00002DBAD1B9D4201DD40F04000641C521C32
:102EE000202ADDD3B9460024DAF808C0DAF81870D1
:102EF000224609FA02F313EA0C0F19D037F91430FD
:102F0000002B02DC40F0200011E05B4502DB40F0CA
:102F100010000CE0B1F8BB56B1F8C46605EB06082A
:102F2000984502DBAD1B9D4201DD40F04000641C72
:102F3000521C202ADDD3BDE8F08F10B501462022B7
:102F4000D24816F0B2F88021BDE810400120FDF70C
:102F5000AFBA30B599B00446684614F0C4F820788A
:102F6000012802D0022807D102E04FF4806001E07E
:102F70004FF48050ADF8000000208DF844008DF82B
:102F80004300C048416849000B9180680C90BDF82F
:102F90000200AFF2590140F48670BC4D0291ADF8C9
:102FA000020003246846FEF7CCFA18AB0022802109
:102FB0000120FDF7CCFA80210120FDF7A7FA28783F
:102FC000002804D012F0FDFF641E002CEADC19B0CA
:102FD00030BD2DE9F84F0446DFF8B4A2DFF8B49213
:102FE000006A212116F09BF83021606A16F097F8EC
:102FF0002046FFF7B2F82046FEF7ACFD0420009013
:1030000003253C21504616F08AF83C21484616F02C
:1030100086F84FF000082046FFF79BFFE8072CD00A
:103020004FF0000B5F465E4696490120B04049686C
:1030300008421AD03046216A13F024FE91494969AA
:1030400031F9172090490968B1F8C6168A420BDA9F
:1030500000994FF0010B0844C1B23F2900D93F212C
:103060003046226A13F021FE7F1C761C202EDBD313
:10307000BBF1000F01D125F00105A8072CD54FF0B9
:10308000000B5F465E467F490120B04089680842D8
:103090001AD03046616A13F0F5FD7A49896931F931
:1030A000172079490968B1F8C8168A420BDA0099E5
:1030B0004FF0010B0844C1B23F2900D93F213046EF
:1030C000626A13F0F2FD7F1C761C202EDBD3BBF16D
:1030D000000F01D125F0020555B12046FFF73DF85C
:1030E0002046FEF737FD08F10108B8F1640F92DBC6
:1030F00003264FF000082046FFF72BFFF00742D0D1
:103100004FF0000B5D465F465E490120B8404968BC
:10311000084230D03846216A13F0B4FD5949496954
:1031200031F9153058490968B1F8C62693420FDDC8
:1031300070B1401EC1B24FF0010B3846226A13F045
:10314000B4FD5048406930F815102AF8151011E008
:103150003AF91510891AA3EB020200D54942002A58
:1031600000DA5242914205DC401CC1B23846226A64
:1031700013F09BFD6D1C7F1C202FC5D3BBF1000FEE
:1031800001D126F00106B00742D54FF0000B5D4695
:103190005F463C490120B8408968084230D0384633
:1031A000616A13F06FFD3749896931F91530364985
:1031B0000968B1F8C82693420FDD70B1401EC1B254
:1031C0004FF0010B3846626A13F06FFD2D4880699D
:1031D00030F8151029F8151011E039F91510891A71
:1031E000A3EB020200D54942002A00DA5242914282
:1031F00005DC401CC1B23846626A13F056FD6D1CF6
:103200007F1C202FC5D3BBF1000F01D126F0020691
:10321000002E0BD02046FEF7A0FF2046FEF79AFCBA
:1032200008F10108B8F1640FFFF665AFBDE8F88F4B
:103230002DE9F04106460020F16908702121306A2D
:1032400015F06DFF3021706A15F069FF3046FEF70A
:1032500081FC3046FEF781FF0A4F00253046FFF71C
:1032600078FED7E904320024204605E032F9101038
:10327000A14200DD0C46401C9842F7DB0020FB68B1
:10328000BA690FE02C02100028021000D80B1000C1
:1032900098090120D409012032F91010A14200DD63
:1032A0000C46401C9842F7DB002C0BDCF1690878D7
:1032B0000F2804D8401C08703046FEF74EFF6D1CE6
:1032C000202DCBDB40F6FE70844208DDF0690178EA
:1032D000491E01703046BDE8F041FEF73EBFBDE833
:1032E000F0812DE9F0434168DFF898C4002391F89C
:1032F000008081684769DCF8046091F800901A4604
:103300001946012505FA01F4344203D07C5C9C4245
:1033100000D92346491C2029F4D38669DCF80870BB
:10332000002105FA01F43C4203D0745C944200D9B8
:103330002246491C2029F4D3C16803EB0804FF2569
:103340000B7001690A7002EB09018C4212D2091B51
:103350001944FF2902D8C368197007E0C1680D70CD
:10336000DCF8001041F08001CCF800100069027018
:10337000BDE8F083A14211D2611A1144FF2902D89D
:103380000269117007E001690D70DCF8001041F06E
:103390008001CCF80010C0680370E9E7C1680B70C9
:1033A000E4E72DE9F0410021F64EF74F426904466B
:1033B00001258C46736805FA01F018420AD0386876
:1033C000535C90F8CB06834202D9181A505401E09E
:1033D00002F801C0491C2029ECD3A1690020B36880
:1033E00005FA00F21A420AD03B680A5C93F8CB3621
:1033F0009A4202D9D21A0A5401E001F800C0401CD6
:103400002028ECD32046FFF76CFF2046BDE8F041B2
:10341000FEF7E8BB2DE9F14F2C210098D0E90565B6
:10342000304615F07CFE4021284615F078FE0098C5
:10343000FFF757FF0098FEF790FE0098FEF7D2FBCB
:103440000324DFF844B34FF0040900274FF0010ACA
:103450000098FFF77EFDA00746D00023DFF8248305
:103460001A461846D8F804C00AFA00F111EA0C0FFF
:1034700011D0D8F8141031F912C0DBF80010B1F8EF
:10348000B9168C4506DA315C01234944FF2900DD79
:10349000FF213154521C401C2028E3D30BB924F0E7
:1034A000010400231A461846C6460AFA00F1DEF85F
:1034B000088011EA080F11D0DEF8181031F912C097
:1034C000DBF80010B1F8BD168C4506DA295C012343
:1034D0004944FF2900DDFF212954521C401C2028AB
:1034E000E3D30BB924F002045CB10098FFF7F9FEB6
:1034F0000098FEF732FE0098FEF774FB7F1C642FE5
:10350000A6DB032400270098FFF723FDE00721D066
:103510000023DFF870C219461846DCF804800AFA66
:1035200000F212EA080F0FD0DCF8142032F91180F3
:10353000DBF80020B2F8B926904504DD325C12B108
:103540000123521E3254491C401C2028E5D30BB9DC
:1035500024F00104A00721D50023DFF828C2194672
:103560001846DCF808800AFA00F212EA080F0FD0B9
:10357000DCF8182032F91180DBF80020B2F8BD2603
:10358000904504DD2A5C12B10123521E2A54491CC5
:10359000401C2028E5D30BB924F00204002C0BD0EA
:1035A0000098FFF79EFE0098FEF7D7FD0098FEF703
:1035B00019FB7F1C642FA6DB38E670B4724E002125
:1035C0000D46346894F8102792070AD5426894F89B
:1035D000CA4601211378A34202D91B1B137000E0D5
:1035E0001570346894F8102752070BD5826894F848
:1035F000CA4641F002011378A34202D91B1B137083
:1036000000E01570002901D070BC6AE670BC7047FC
:103610002DE9F0475C4A0446002510682E4690F8D4
:103620001017890703D560680125067008E0217826
:10363000012901D0022903D1616890F8C006087001
:103640001068914690F81017490704D5A06845F016
:103650000205067008E02178012901D0022903D172
:10366000A16890F8C1060870002D6FD02C21606908
:1036700015F055FD4021A06915F051FDE0692121AB
:103680000670206A15F04BFD3021606A15F047FD89
:10369000E168FF200870216908702046FEF7A2FA51
:1036A0002046FEF757FA2046FEF757FD4FF0100868
:1036B000DFF8D0A0474600262046FFF74AFCE8077F
:1036C00027D0DAE9043C0021084605E03CF9102047
:1036D0008A4200DD1146401C9842F7DBD9F8000011
:1036E000B0F8B7268A4206DA60684FF00108017820
:1036F000491E01700DE0B0F8CC06884207DB616816
:1037000008784044FF2800DDFF20087001E025F024
:103710000105A80729D500210846DAF818C0DAF80B
:103720000C3005E03CF910208A4200DD1146401CB7
:103730009842F7DBD9F80000B0F8BB268A4206DAD7
:10374000A0680178491E017001270EE018E0B0F86A
:10375000CC06884207DBA16808783844FF2800DDE2
:10376000FF20087001E025F00205002D08D020465A
:10377000FFF7B7FD2046FEF7F0FC761C202E9BDB02
:10378000BDE8F0872C02100028021000F0B5414D72
:103790008BB0012129708DF80000684613F0FDF808
:1037A0003D4C0026266013F08EF8606013F0B6F8EA
:1037B000A0606068042140086060201D12F091FF45
:1037C0002061042104F1080012F08BFFE0606846DC
:1037D000FFF7BFFB9DF800003049012802D0022806
:1037E00005D101E0486900E088696061A061D4E921
:1037F000040101EB40016161E16801EB4000A16956
:1038000001EB4000A0616846FFF702FF6846FFF742
:10381000D4FE234F386890F81007800605D5684617
:10382000FFF7F8FD6846FFF7BCFD386890F8100711
:10383000000702D56846FFF7FBFC386890F81007D0
:10384000C00602D56846FFF7C4FB6846FEF785FC54
:103850006846FFF77EFBFFF713FB216801432160F9
:1038600010483A68037892F8FB2763F3030202706A
:103870009DF80000012802D0022807D102E041F0A3
:103880000E0001E041F0020002F060FF2E700BB06C
:10389000F0BD0000850410002C021000D80B1000B1
:1038A00028021000FBFF010010B501462022A348AA
:1038B00015F0FBFB8021BDE810400120FCF7F8BDAE
:1038C000F0B59F4F06460D46386899B090F8C30290
:1038D00000F00F014FF0FF30491C8840C443684698
:1038E00013F001FC0120ADF80000ADF802503A6879
:1038F00092F8FB028DF8170045F00500ADF80200C4
:103900000394ADF81A60AFF25F00029092F8FC02E7
:103910008DF8180092F8FD02884D8DF81E000324E2
:103920006846FDF70EFE18AB002280210120FCF74F
:103930000EFE80210120FCF7E9FD2878002804D044
:1039400012F03FFB641E002CEADC19B0F0BD2DE93B
:10395000FC5FDFF8ECA100242746DAF80000A0465F
:1039600090F8FF6290F80013009190F801B34FF0C7
:103970000850D0F88C0108B94FF0010800200190E0
:1039800036E0DAF80000002590F8020300EB800032
:103990004FEA400922E030460199FFF791FF67485E
:1039A000406810F0D7F90146DAF8000090F8FA0202
:1039B00010F00F0200D1012200094843B0FBF2F0E1
:1039C00087B2B8F1000F07D0B4F5707F04D25D481C
:1039D00020F81470641CA4B26D1CADB24D45DAD948
:1039E0003A463146302002F0F8FE06EB0B0086B274
:1039F00000988642C5DDBDE8FC9F2DE9FF5F4FF6CC
:103A0000FF764FF0000A93468846074635465446EF
:103A1000DFF82C911CE037F814005146FFF750FFF7
:103A20004648406810F096F90246D9F8000090F830
:103A3000FA1211F00F0000D1012009095143B1FB26
:103A4000F0F080B2A84202D237F814600546641C38
:103A50004445E0DBABF8006003980580BDE8FF9FBC
:103A60002DE9F041364E05468846306888B090F81A
:103A7000062302F00F01C2F30214491C641C0A2938
:103A800000DD0A21022C00DD022406AB05AA00F2AB
:103A90000730FFF7B2FF336893F8050300061CD523
:103AA000BDF814600121ADF8006000224FF4803CA5
:103AB0006F4603F5477307E098563044604502D2DD
:103AC00027F81100491C521CA242F5DB002904DD35
:103AD00006AB05AA3846FFF790FFBDF81400288012
:103AE000BDF81810A8F8001008B0BDE8F0817CB54A
:103AF0000020FCF7CAFD144C01A968466588FFF751
:103B0000AFFF0F48BDF804200068B0F819039042D9
:103B100001D9208000E02280BDF8000060800020F4
:103B2000FCF7CEFD09490120087009490870BDF86D
:103B300000202946092002F031FE7CBDF80B100060
:103B400028021000A8C80120D05310005C04100007
:103B5000DB04100010B512F09BFE4008400010BDC1
:103B60007CB54FF4F83040F6FB7115F0D8FAFEF74B
:103B70007FF8FEF746F8FDF781FFFF4C002020702C
:103B800020636063A063E06320646064A064E06419
:103B900020656065A065E0656060E061206260624C
:103BA000A062E062FFF7D6FF009012F07FFE019066
:103BB0000421684612F095FD0546042101A812F083
:103BC00090FD00EB4501C4E90315C4E905507CBD37
:103BD0002DE9F041174604460D46002609E0E007AE
:103BE00003D03146384602F007FD761C6D084FEAD7
:103BF000340454EA0500F2D1BDE8F08130B5044642
:103C000000204FF0FF32012505FA00F30B4202D0ED
:103C1000521CA24203D0401C2028F5D3002030BD06
:103C200030B50B46012505FA03F2D34C12286DD2AC
:103C3000DFE800F06C485109126C6C1B242D363FF4
:103C40005A5E626C6C6B1846216EFFF7D7FF854099
:103C5000606B0543656359E01846616EFFF7CEFF60
:103C60008540E06C0543E56450E01846216EFFF79F
:103C7000C5FF8540A06B0543A56347E01846216E4C
:103C8000FFF7BCFF8540E06B0543E5633EE0184667
:103C9000616EFFF7B3FF8540606D0543656535E0F4
:103CA0001846216EFFF7AAFF8540206C0543256466
:103CB0002CE01846616EFFF7A1FF8540A06D05431B
:103CC000A56523E01846216EFFF798FF8540206B1D
:103CD000054325631AE01846616EFFF78FFF8540A4
:103CE000A06C0543A56411E0606C024362640DE0C2
:103CF000E06D0243E26509E01846616EFFF77EFF62
:103D00008540206D0543256500E025706068401CF6
:103D1000606030BD10B501462022984815F0C5F905
:103D20008021BDE810400120FCF7C2BB2DE9F04125
:103D30000D4606464FF0FF3412F0B8FD0346002052
:103D4000DFF834C20246012707FA02F1194200D017
:103D5000641CB44206D1012D08D023EA0100CCF83E
:103D600008202022521C202AEED345E70846F6E719
:103D70002DE9F0410D4606464FF0FF34FFF7EAFE0D
:103D800003460020DFF8F0C10246012707FA02F1DE
:103D9000194200D0641CB44206D1012D08D023EA98
:103DA0000100CCF808201E22521C1E2AEED923E75F
:103DB0000846F6E72DE9F0419EB00446884668467D
:103DC00013F091F918A8FEF7F2F9FFF7C3FE6A4F56
:103DD0004008386612F06AFD0025694E7866012CAD
:103DE00034D0FFF7B7FE0B9012F060FD0C9020204E
:103DF000ADF800003168022C91F86A038DF842009A
:103E000091F86B038DF8450091F868038DF8380040
:103E100091F869038DF83E00B1F86C03ADF83400F9
:103E2000B1F87003ADF83A00B1F86E03ADF83600A2
:103E3000B1F87203ADF83C0055D0032C2CD0042C03
:103E40002FD0052C36D0062C3DD04CE00120ADF80B
:103E500000000C20ADF81A001F208DF8180040203B
:103E60008DF8170095208DF81E008DF81F503C200E
:103E7000ADF81C00039840083866049878663068EE
:103E800090F84D078DF86C5040F003008DF86000FD
:103E900018A8FEF796F926E012F008FD01210C9013
:103EA00003E012F003FD00210C904046FFF760FF95
:103EB0000B9018E0FFF74EFE0B9001214046FFF7F4
:103EC00035FF0C900FE091F863038DF8420091F8F4
:103ED00064038DF8450091F861038DF8380091F87E
:103EE00062038DF83E00BDF802008DF8145020F0FA
:103EF00030008DF8165040F008008DF844508DF8D1
:103F00004350ADF80200AFF2F3101C4D03240290B1
:103F10006846FDF716FB1CAB002280210120FCF750
:103F200016FB80210120FCF7F1FA287828B1002047
:103F3000641E002CECDC1EB05EE60120FBE72DE9E0
:103F4000FC5F00210120FFF735FF08B30B48D0F8D4
:103F5000049012F013FD019012F016FD0090042160
:103F600001A812F0BEFB07460421684612F0B9FB17
:103F700084460020064605E048021000180C100098
:103F800028021000DFF810B44FF0010A009052E050
:103F900000211120FFF744FEBDE8FC9FFF4C0025E7
:103FA000A8463046616EFFF729FE616D0AFA00F0FF
:103FB00008423FD101242EE004FB0C61DBF8000035
:103FC00039F9112090F86703B2EB001F22DA6D1C5B
:103FD000B8F1000F00D1A0467A1E94421AD1012DEB
:103FE00018D1ACF10102964204D1611E0120FFF705
:103FF00017FE0EE009EB4101B1F90220B2EB001F00
:1040000005DB36B131F9021CB1EB001F01DA0025E6
:1040100000E00225641CBC42CEDBA7EB0800A842EE
:1040200008D831460220FFF7FBFD00990AFA06F096
:1040300008430090761C6645B0DB012533E000267E
:10404000344628E0D5490020CB6C4A6D1A430FD086
:104050008846496E2046FFF7D1FDD8F854100AFA79
:1040600000F0084203D1D8F84C10084000D00120DD
:1040700005FB0C42DBF8001039F9122091F86713A8
:10408000B2EB011F06DA28B900990AFA04F00842D7
:1040900000D1761C641C6445D4DB1EB1691E01206E
:1040A000FFF7BEFD6D1CBD42C9DB75E72DE9F04190
:1040B000BA4E00200546BA4FDFF8DC82F0611FE0FF
:1040C00029460520FFF776FEF0B171690120FC68F2
:1040D00000EB410C34F91C10D8F8000090F877037D
:1040E000B1EB001F03D929460E20FFF799FD34F9E3
:1040F0001C00F169884202DD34F91C00F0616D1C7E
:10410000B0698542DCD377E5BDE8F041002111209C
:1041100086E52DE9F04100210620FFF74BFE28B18E
:104120009F4800249C4F9D4EC56813E0BDE8F041B8
:104130000021112074E530693968204435F91000F8
:1041400091F86513B0EB011F03DD21460A20FFF74C
:1041500067FD641C70698442EDDB00240EE0F068AA
:104160003968204435F9100091F86613B0EB011F4F
:1041700003DD21460B20FFF753FD641CB069844228
:10418000EDDB39E52DE9F041844F002006467862E9
:104190003DE031460420FFF70DFE18B180480024B1
:1041A000C56830E0BDE8F0410021112038E512F08B
:1041B0007DFB01462046FFF721FD01460120884096
:1041C000F96C08421ED17449F8682044096805EB6F
:1041D000400030F9040C91F87813B0EB011F07D9B7
:1041E00031460820FFF71CFD21460920FFF718FD86
:1041F000F868796A204405EB400030F9040C8842E5
:1042000000DD7862641CB8698442D0D3761C78697A
:104210008642BED3F0E42DE9F041604E0020054611
:104220005F4FDFF8748130621BE029460320FFF7FF
:10423000C1FDD0B1FC68B4F90210D8F8000090F8C4
:104240007603B1EB001F03D929460720FFF7E8FCEE
:10425000B4F90200316A884202DDB4F9020030622A
:104260006D1C70698542E0D3C6E4BDE8F0410021D1
:104270001120D5E42DE9F04100210220FFF79AFD3D
:1042800050B14748444E454FC568306890F86003C8
:10429000000720D500241BE0BDE8F04100211120DB
:1042A000BEE438693168204435F9100091F8741380
:1042B000B0EB011F03D921460320FFF7B1FC386999
:1042C000B96A204435F91000884200DDB862641CE8
:1042D00078698442E5DB306890F86003C0061BD53E
:1042E000002416E0F8683168204435F9100091F890
:1042F0007513B0EB011F03D921460420FFF790FC92
:10430000F868F96A204435F91000884200DDF86247
:10431000641CB8698442E5DB6EE42DE9F0410020BD
:10432000FCF7B3F9FFF71CFC1B4C206890F8600306
:10433000010701D4C00601D5FFF79CFF206890F863
:104340006003800601D5FFF766FF206890F86003E0
:10435000000601D5FFF716FF206890F86003C0073C
:1043600001D0FFF7D6FE206890F86003400601D523
:10437000FFF79CFE206890F86003800701D5FFF7E7
:10438000DEFD064C6068002861D0D4E90D128A4336
:10439000A263206B884305E0280210004802100049
:1043A000180C1000D4E9123690432063276DB343F4
:1043B000BB43A364636CE56D8B439343E26BB543EE
:1043C00093436364636DBD439D439143E5656163BE
:1043D00001220021FFF7FCFB02220021A06CFFF765
:1043E000F7FB03220021606BFFF7F2FB04220021A0
:1043F000E06CFFF7EDFB07220021A06BFFF7E8FB65
:1044000008220021E06BFFF7E3FB09220021606D29
:10441000FFF7DEFB0A220021206CFFF7D9FB0B22FD
:104420000021A06DFFF7D4FB0C220021606CFFF788
:10443000CFFB0D220021E06DFFF7CAFB0E22002109
:10444000206DFFF7C5FB2078012803D006E000218E
:10445000084601E00021112002F0CEF8BDE8F0414D
:104460000020FCF72DB900002DE9F84FDFF8FCA380
:1044700002004FF00004DAF8000090F85D6490F854
:104480005C54477D017DB0F84B34B0F84984F8485E
:1044900007FB01F700EB41009B46814601D1002656
:1044A00035463A46194613F030F900903A464146EF
:1044B000484613F038F980463946484613F041F92A
:1044C000DAF800100023EB4A91F857C45746B0EBD6
:1044D0005C0F0AD95078401CC0B25070B04205D968
:1044E000537013700120BDE8F88F53700098404559
:1044F00028DD1078A84202D2401C107025E013700D
:10450000537091F84804400716D5DB4812F067FD58
:1045100004000ED1386890F84814C90615D5D6495C
:10452000B0F86704096888420FD9584612F014F8A9
:104530000446012C01D008E0012412F021FD0128DD
:1045400002D002E0137000E000242046CBE72DE902
:10455000F043C649C94F00240E68B7F900208146D0
:10456000B6F86A1447F6FF75234620468A4200DDF6
:10457000012396F815C007EB4C0232F9022C8A424F
:1045800001DD43F00203DFF8EC8298F805108B425E
:1045900018D1BBB10221ACF1020C08E037F91120AF
:1045A000AA4200DA1546A24200DD1446491C8C4599
:1045B000F4DCB6F86C14A14204DDB6F86E14A9421E
:1045C00000DA012088F80530B9F1010F08D148B1AF
:1045D00098F80610002903D0491E88F8061000201C
:1045E000BDE8F08396F8691401F07F0188F80610A1
:1045F000F6E72DE9F84F9D4F9D4B4FF000083968C5
:104600004546C2460A7D03EB420B91F8703403F035
:104610007F0400B900244E7D5846564331460CF0C5
:10462000EFF88146314658460CF0D8F800903868CB
:10463000017D93480CF0E4F806463868417D9148C6
:104640000CF0DEF80146304612F066F806B2386823
:10465000017D8B480CF0C2F883463868417D89485B
:104660000CF0BCF80146584612F04EF8396802B218
:10467000B1F871344B4509DDB1F8733400988342C9
:1046800004DAB1F87504B04200DA0125B1F8770414
:10469000B04209DDB1F87904904205DAB1F87B1433
:1046A000494501DA4FF001087249002215B9B8F105
:1046B000000F09D00879A04202D2401C087104E022
:1046C0000A714FF0010A00E00A7150460BE72DE92C
:1046D000F04F002087B005460390019004468246C3
:1046E000009002906148684FD0F800807B0CB9467A
:1046F00098F815101E460222059120E00120511E57
:1047000009B2049198F814E0AEF1010B14E002FB39
:104710000E01DFF878C13CF91110994208DCDDF890
:1047200010C0CDF804C00FFA80FC0B46CDF800C0D5
:10473000B94200DB0F46401C8345E8DC521C05985B
:104740009042DBDCF81AB8F8D21100B2474F814230
:1047500001DA0120029001214D4812F07CF93B68FA
:10476000187D00EB40014A4800EB8100817B027C10
:1047700011444908C173597D01228E46187D491E96
:10478000049123E00121A0F1010B1BE002FB0017C3
:10479000DFF8FCC01CF8078067447F78B8EB070798
:1047A000BC4601D5CCF1000793F8548408F0030807
:1047B000474506DD641C5FEA0C0701D5CCF1000714
:1047C0003D44491C8B45E1DC0499521C9142D9DCE3
:1047D000029961B30EF1010C0CFB00FC0146DFF8FD
:1047E000908009E038F9112092444A4500DD914655
:1047F000B24200DA1646491C6145F3DB0EFB00F1BC
:104800009AFBF1F093F8541400B2C1F38301A14272
:1048100003DA93F85514A94204DBA9EB0001801BCD
:10482000814204DADDE9001012F0DCF9039003980C
:1048300007B0BDE8F08F70B50C490025096891F804
:10484000564400B90024FFF742FF0100094A4FF027
:10485000000008D0D178A14202D2491CD17003E0F7
:10486000D070012500E0D070284670BD28021000ED
:10487000BA391000B0021000B80410007805012009
:10488000580901201C0901200080FFFF68D9012080
:10489000E8E001202DE9F04103007A487A4D4FF01D
:1048A000000601684A7D087D91F8534402FB00F23E
:1048B000B1F84B1405EB400000D1002412F025FFA5
:1048C0000027724D00280BDD12F071FB40B1A87873
:1048D000A04202D2401CA87003E0AF70012600E0A5
:1048E000AF703046BDE8F0812DE9F041654D0746D7
:1048F00000262868664C90F84804400604D501203C
:10490000FFF7C8FF012849D047BB286890F8480442
:10491000000604D50120FFF78EFF01283DD028684E
:1049200090F87004000604D50120FFF762FE01280C
:1049300036D0296891F8480480070FD591F86904AA
:104940004FF00207000604D50120FFF700FE012802
:1049500028D00120FFF788FD012823D02078D0B18E
:104960004C4840F605020168114301604A4801685D
:1049700041F4006101604FF480610120FBF798FD74
:10498000286890F81001C00604D54FF40071052086
:10499000FBF78EFD01263046A4E703202070DFE7F9
:1049A0000420FBE72770DBE710B5364C364A206859
:1049B000417D007D414302EB400012F0C2FE2168C0
:1049C000002291F857343149B0EB530F09D9487898
:1049D000401C10F0FF00487004D04A700A7001209B
:1049E00010BD4A70002010BD2DE9F041284E002571
:1049F0002F463078002843D0002431780020072942
:104A00001ED2DFE801F01D1207161A1D0400FFF781
:104A1000CBFF15E00020FFF727FD012811D0002073
:104A2000FFF795FD01280CD01BE00020FFF732FFB7
:104A300006E00020FFF7FFFE02E00020FFF7D9FDAF
:104A400078B1012512F09CFEFEF7D3F91348144902
:104A50004088FDF7A8FDFDF71CFE641C032CCCDB91
:104A60004FB1C12040EA052001F070FE012D05D1B3
:104A700010F0A8FF02E0002011F0C9FA0020307009
:104A800030E7000028021000BA391000B002100010
:104A9000860410005004100054041000D05310007D
:104AA00068D9012008B5DFF868915A4E5A4F4FF087
:104AB0000108002599F800004C4668B10128F9D199
:104AC0006B4600224EF27D71FBF741FD0098C10755
:104AD00018D0257001218CE00121002011F055FF34
:104AE0006B46002202210120FBF731FD012108461F
:104AF00011F04BFF00988007DCD584F800804EF25F
:104B00007F7176E0010716D50020FBF7BEFD062079
:104B1000FBF7BBFD12F034FEFEF76BF93F4840494E
:104B20004088FDF740FD0620FBF7CAFD0020FBF79B
:104B3000C7FD08215DE0010404D510F043FF4FF4E8
:104B4000004156E0C10606D53648007808B9FEF7A0
:104B5000CEFF10214DE0810601D5202149E0C1059D
:104B600004D5FEF7F4FE4FF4807142E0810502D5D2
:104B70004FF400713DE0410603D5FFF7CEFB402125
:104B800037E0410539D528480560284804680560A4
:104B90002046FDF7A8FE3068C10502D5244A82F8F8
:104BA0000080A4F5B851B73907D0E1070AD040F02A
:104BB000150001F0CBFD356019E0052001F0C6FDC0
:104BC000356013E014F0420F03D0386840F006005F
:104BD0000AE0600503D5386840F4806004E0E00432
:104BE00005D5386840F4805001F0B0FD3D604FF4C9
:104BF00080610120FBF78AFC5CE78004FCD5FDF7AF
:104C0000FEFE00224FF40051012011F032FC51E76A
:104C1000B70210005404100058041000D0531000C4
:104C200068D901206A041000E4021000500410004A
:104C30006C0410000E490020486008600D4908709F
:104C400070470D4810B5006890F8B600C0070DD049
:104C50000A480B4900780978084307D10320FBF77D
:104C600014FDBDE810400320FBF72ABD10BD000075
:104C7000B8021000DA0410002802100063041000CB
:104C80006A041000F0B4054604980C46C3F11006FF
:104C9000012801D0002013E029462046F0BC520034
:104CA00014F0BEB934F9101035F91070594307FBF0
:104CB0000611CF1701EB1771091124F81010401CD1
:104CC0009042EFDBF0BC7047F0B40546DDE90470BC
:104CD000FE1A0C46012801D0002011E0294620468A
:104CE000F0BC520014F09CB934F9101035F910C022
:104CF00059430CFB061191FBF7F124F81010401CEE
:104D00009042F1DBDEE770B5484C246894F8F04738
:104D100024074FF000040DD417E032F8145030F897
:104D20001460AD1B31F914602DB2AE4201DA21F8E6
:104D30001450641C9C42F0DB70BD32F8145030F803
:104D40001460AD1B21F81450641C9C42F5DB70BD4F
:104D500010B504463648002205E034F9123083428B
:104D600000DD1846521C8A42F7DB10BD30B50546FF
:104D700030F91140002005E035F91130A34201DD82
:104D80001C460846491C9142F6DB30BD2DE9F04334
:104D9000264CDDE90796246894F890810024254686
:104DA000012E01D0002634E00023A8F1010815E00F
:104DB00031F9136030F9137006EB020C674504DD1E
:104DC000BE1B00D57642354407E0A6EB020C6745D2
:104DD00003DABE1B00D5764234445B1C4345E7D35F
:104DE00019E031F9167030F916C007EB0208C44516
:104DF00005DDBCEB070700D57F423D4408E0A7EB8B
:104E00000208C44504DABCEB070700D57F423C44E6
:104E1000761C9E42E5DB5FEA090000D10024AC422B
:104E200002D20120BDE8F0830020FBE72802100039
:104E30000080FFFF3C483D4A0068516891EA000F3E
:104E40000AD050603A48006890F81001C00603D5B7
:104E500040210520FBF72CBB704710B533480021DB
:104E6000344C017034492068084210D00620FBF70A
:104E70000CFC0620FBF724FC30480078022802D105
:104E80002068002803DABDE81040FFF7DABE10BD45
:104E9000264900204860FFF7CDBE244C08B5002508
:104EA0006570FFF7F5FF4FF6FF76607820B30128B5
:104EB000FBD16B46002255210420FBF748FB0098EC
:104EC000C00706D0FFF7E4FF657031460420FBF70A
:104ED0001DFB0098400705D5FFF7BFFF04210846DA
:104EE000FBF714FB0098C006DFD5FFF7A3FF1021E6
:104EF0000420FBF70BFBD8E70421002011F045FD4F
:104F00006B46002202210420FBF721FB0421012033
:104F100011F03BFD00988007C7D5FFF7B9FF0120CE
:104F200060703146E4E700003C041000C00210004D
:104F300028021000BC04100010000080D0041000F3
:104F4000FE4800210172417281728171C171704706
:104F5000FA490120C870F3E7F8480021C160817068
:104F60000121C17070472DE9FC4716468946074666
:104F700011F0A9FC009011F0D1FC019004216846C9
:104F800011F0AFFB0446042101A811F0AAFB03466F
:104F90003D4607EB440106EB440000220BE035F8E8
:104FA00002CB31F8028B521CC4444FEA0C4C4FEA3E
:104FB0002C4C20F802CBA242F1DB03EB440107EBBF
:104FC000410207EB840006EB4101002509E030F8BF
:104FD000027B32F802CB67443F043F1421F8027B86
:104FE0006D1C9D42F3DB48463146002204E030F858
:104FF000023B21F8023B521CA242F8DB09EB4400C1
:1050000006EB8401002204E030F8023B21F8023B69
:10501000521CA242F8DBBDE8FC87C94910B50968FB
:1050200000200A0712D5C748C74A006890F89407BD
:10503000C307906906D0490004D41169C34AFFF739
:1050400092FF02E0C14912F010F8012010BD2DE9D5
:10505000F047BC4E0C460546D6F800C00021084675
:105060009CF815700DE034F9103035F91080A3EB81
:105070000803BCF8A282C8F10008434500DA491CC5
:10508000401C8742EFDCDFF8B4924FF00008B1B16A
:10509000AF48B0494088FDF786FA002004E035F8B3
:1050A000101024F81010401C3168497D8142F6DC54
:1050B00089F8058089F804800020BDE8F087A648BB
:1050C00089F8058000210378C246012B01D0032B0B
:1050D0000CD1002034F9106035F91080A6EB0806D9
:1050E000964200DD491C401C0228F3DB022B01D054
:1050F000032B0CD1BB1E08E034F9130035F9136003
:10510000801B904200DD491C5B1C9F42F4DC0123A4
:1051100009B189F805309CF81001C00603D58F4805
:105120000078012802D099F80500C6E7002108465A
:1051300009E034F9106035F910C0A6EB0C06964270
:1051400000DD491C401C8742F3DC11B189F80430B2
:1051500001E089F804A099F80400AEE72DE9FC5FAE
:10516000DFF8E081754D0126D8F800106878DFF887
:10517000F091B1F8A141DFF8ECA1002718B128782F
:1051800001280CD027E0EA788020CDE900024A7D92
:105190007F2375497248FFF797FDEF701BE09AF87F
:1051A0000000062801D0072814D1487D6E4ACC465D
:1051B000801E04E03CF8103022F81030401C4B7D7B
:1051C0008342F7DC00203CF8101022F81010401C3D
:1051D0000228F8DB2F709AF80000062805D007286F
:1051E00002D05648407880B3CAE0D8F80000444660
:1051F0005D49437DB0F916215948FFF728FF002685
:10520000012802D0EF606F70BAE06879012809D0F8
:105210002879012818D16878002815D14F480078DE
:10522000012811D1E868401CE860216891F8151147
:10523000814209D20120A8706870064600F031FB57
:1052400001210220FBF734F99AE0FFE73D480568A9
:1052500095F8A0018346400795F8B8014FEA007021
:105260000BD5002801DA414F01E009F10207687D02
:10527000DFF8FC80801EC0B20AE0002802DA3B4F53
:10528000BF1E00E0364FDFF8E880687DA8F1020815
:105290008146384890F800A0BAF1010F01D1B5F865
:1052A000824632483C21801E13F039FF95F8B80140
:1052B000244A000730D53049B5F9D631B5F9D801BF
:1052C0000978012905D195F85A120B4408441BB2FC
:1052D00000B295F8BA1192464907697D234ACDE993
:1052E000000123491E48A2F10202A1F1020102D5E8
:1052F00012F0ECF801E012F081F8DAF8000090F812
:10530000A011090702D51B49097811B190F8FE00D8
:105310000AE090F8FE0038E05FEA0B7002D5BAF1BF
:10532000000F30D095F8FE004B46C0F3810000908E
:1053300022B24146384611F0B4FF1FE0C802100007
:10534000F002100028021000300D100060E901206A
:10535000D053100068D901208C041000DB0210002B
:1053600068080120D0041000A4080120E2080120F0
:105370007A05012089041000EB031000FE494870F3
:105380003046BDE8FC9F95F8FE004B46C0F3810017
:10539000009022B24146384611F09AFFCDE7F74916
:1053A00010B5096800204A071CD5F548F54A006881
:1053B00090F89407C307506906D0490004D41169D6
:1053C000F14AFFF7D0FD02E0EF4911F04EFEEF4940
:1053D000ED4811F07EFAEE49EB4811F07AFABDE89B
:1053E0001040BBE610BD2DE9FC410246E94801250D
:1053F0000378E348062B016808D0072B06D0B1F8E4
:105400002001E54C2778012F03D004E0B1F82301F7
:10541000F7E7B1F8AE06062B18D0DFF880C3E04EF0
:10542000D54C022B14D091F8FD30C3F30113009337
:105430000F7D497D07FB01F30CEB470102EB4707AA
:1054400002B2384611F02DFF60701FE0002523E006
:1054500091F88136DB0718D0012F16D16378A3B9F4
:1054600091F8FD7091F88736C7F38107CDE9007395
:105470000F7D497D07FB01F30CEB470102EB47076A
:1054800002B2384611F04EFF60706078012803D1F7
:10549000306840F0010030602846BDE8FC812DE90D
:1054A000F041B74D0E46034629681446DFF8C8C2DE
:1054B0004F7D087D7F1C024667437843B94F2744E0
:1054C00017F8017C8CF8067091F824100F0702D5AC
:1054D000C90600D5104442001946304613F0A0FD1D
:1054E0002868017D407D401C641E6043414306EBFB
:1054F0004100BDE8F0812DE9F0471646A04A8146FB
:105500000F461068457D017D6D1C90F824004D43C9
:10551000030702D5C00600D50D44012490460BE0D8
:10552000D8F800004946007D420005FB04F007EB77
:10553000400013F075FD641CB442F1D3BDE52DE9C4
:10554000F35FDFF83C828C4F009ED8F8000089465C
:10555000DFF854B2447D007D641C4443787AB8720D
:10556000002545E0787A009900FB04F20BEB420637
:1055700005FB04F201EB420A01218140B8790143A5
:10558000B9713146504611F08CFDD8F8000090F802
:1055900024100A071CD5C9061AD5A9F101018D42AC
:1055A00007D1007D0AEB4401420006EB440013F0F2
:1055B00037FD787A60B9D8F80000017D90F849008D
:1055C0004A00010961430BEB4100314613F028FD0D
:1055D000787A401CC0B27872D8F8001091F849105F
:1055E000B0EB111F03D300207872012038726D1CBC
:1055F0004D45B7D33046C4E670B5614E05460C46FE
:1056000030682946007D4200204613F009FD3068CD
:10561000007D420005EB400104EB400013F000FD6B
:105620003068007D420005EB800104EB800013F040
:10563000F7FC3068417D007D491E4143420004EB88
:10564000410300EB400005EB4001184613F0E8FC75
:105650003068417D007D414304EB410305EBC0010F
:10566000BDE870404200184613F0DABC70B504463D
:1056700048480E460078072801D0062807D14B4835
:105680000078012803D02046FFF7B6FF1CE03B4816
:105690003C4D00682A7FC30405D511462046FFF71C
:1056A0004EFF064610E080040AD53F492046FFF72A
:1056B000F6FE06462A7F3C492046FFF71CFF03E022
:1056C00001222046FFF7EBFE304670BD70B5314831
:1056D00000240078042801D0FFF732FC274E294D22
:1056E0003078C00706D032496868FFF7BFFFFFF780
:1056F0007AFE0446308840040DD521480168087DB3
:1057000091F8061301F00F01491C48434200294853
:10571000A96813F085FC204670BD2DE9F041184CB6
:10572000254920680A7890F8C800C30757D0830736
:1057300055D54FF0005393F84B60C0F3820001271A
:1057400007FA00F31D481E424FF0000502D0077013
:105750000F7001E005700D70194B1B78012B00D103
:105760000570087882423AD0012836D0CD2000F06A
:10577000EDFF206826E00000C8021000F0021000D3
:1057800028021000300D1000700701206808012069
:105790001C090120D00410008904100068D90120E0
:1057A000F4041000DC92010060A20120DB02100072
:1057B000BA39100070060120720410007104100044
:1057C0007304100090F81001C00608D5BDE8F04140
:1057D0004FF480710520FAF76BBECC20C7E788E64E
:1057E00070B5FFF79AFF1D481D4C007820B110F0EE
:1057F000E8FB0020206070BD1A4D28780128F8D001
:105800000620FAF742FFFFF761FFFFF7C8FDFFF739
:1058100004FC0620FAF754FF134821680160287839
:10582000022806D0072811D006280FD0022804D05D
:105830000FE00E484078012803D0002909DB082139
:1058400008E000F02EF80121022004E04FF400717E
:1058500000E004210320FAF72BFECAE7300D100008
:10586000F0021000D0041000BC041000C8021000A8
:1058700010B54FF0005212F8200FFF4B00F08001DE
:10588000A3F1240420791B5C0B431370401CC0B2AD
:105890002071042801D10020207110BD80B2FBF7D7
:1058A00076B8FBF79AB810B501462022F34813F0FA
:1058B000FCFB0221BDE810400846FAF7F9BD30B5FF
:1058C000EF490B68197B5A7B41EA02219A7B41EA36
:1058D0000241DA7B5B7D41EA02620021012409E09A
:1058E000022905D39D1E8D4202DD04FA01F5AA436B
:1058F000491CC9B28B42F3D8510041F00101C1608B
:1059000030BDF0B599B00446684611F0ECFBDA48BA
:10591000DC492438DC4B84610A881A80DB4ADC4D80
:10592000D74E52880A80E10770D0417A042902D00C
:105930002978042955D0D7490978012951D02978E7
:1059400003294ED0BDF8001041F00101ADF8001060
:10595000316891F8C022D2070FD091F8062302F0E7
:105960000F02521C042A08D8BDF8002042F400722D
:10597000ADF8002044F48042826191F84820D207BB
:105980000ED02A78072A0BD0062A09D0BDF80220AB
:1059900022F48062ADF80220826942F400528261F2
:1059A00091F82420130707D5D20605D5BDF80020AD
:1059B00042F48072ADF8002091F87220B64B5FEA95
:1059C000C27C4FF0010704D093F800C0BCF1000F77
:1059D0000CD091F81BC15FEACC7C27D0D2072ED027
:1059E00024E0BDF8001041F48041AFE72A78042A92
:1059F0004ED0002C4CDB91F874208DF8172091F8D4
:105A000073208DF81E2091F875202EE016E08DF899
:105A10005C70826922F4005282612CE0816941F459
:105A2000806102E0816941F480518161C078012880
:105A300038D02878072832D0062830D032E01A78BB
:105A4000002AF3D12A78072A03D0062A01D0022A95
:105A50001ED1002C1CDB91F81D218DF8172091F828
:105A60001C218DF81E2091F81E218DF8222091F81E
:105A70004820D207CBD191F824100A07CED5C90609
:105A8000CCD5BDF8001021F48071ADF80010C5E749
:105A900091F848104907C9D5002CC3DAC6E7684613
:105AA000FFF70DFF600711D52878022806D00328DC
:105AB00006D0042804D0062808D113E0002C1EDAF2
:105AC000BDF8000040F48060ADF80000200728D544
:105AD0002878022818D0032818D0042816D00628C1
