:10000000004000004D000000FB1400006D010000E6
:10001000850100009D010000B50100000000000006
:10002000000000000000000000000000CF01000000
:10003000CD01000000000000D10100003B090000DC
:10004000B90200006D0A0000DF0B000000F002F8AA
:1000500000F05CF80AA090E8000C82448344AAF106
:100060000107DA4501D100F051F8AFF2090EBAE804
:100070000F0013F0010F18BFFB1A43F001031847DC
:1000800054230000742300000A444FF0000C10F8C1
:10009000013B13F0070408BF10F8014B1D1108BF06
:1000A00010F8015B641E05D010F8016B641E01F8A6
:1000B000016BF9D113F0080F1EBF10F8014BAD1CF6
:1000C0000C1B09D16D1E58BF01F801CBFAD505E014
:1000D00014F8016B01F8016B6D1EF9D59142D6D36E
:1000E000704700000023002400250026103A28BF96
:1000F00078C1FBD8520728BF30C148BF0B6070479A
:100100001FB502F021F91FBD10B510BDDFF80CD0EE
:10011000FFF7F6FF00F01CF802F004F900400000C1
:1001200003B4FFF7F1FF03BC02F008F930BF7047DA
:10013000BFF36F8F7047BFF34F8F7047BFF35F8F71
:100140007047EFF31480704780F314887047000005
:1001500010B54FF080410020C864034908618860F1
:1001600001F01DFF002010BD000004404FF0804052
:10017000016C41F0010101641649012008618860A9
:10018000FFF7D4BF4FF08040016C41F002010164E1
:100190001049012008618860FFF7C8BF4FF0804018
:1001A000016C41F0040101640A4901200861886082
:1001B000FFF7BCBF4FF08040016C41F008010164C3
:1001C0000449012008618860FFF7B0BFFEE7FEE741
:1001D000FEE7FEE7000004402D4910B5112201F6AC
:1001E0009C50C1F89C2D0A462A4B02F55A61C2F870
:1001F000A03D42F212020260274A0A6043F61372DF
:100200000260264A0A6043F6140303600A60244A27
:100210000260244808601E4901F69450D1F8941DEC
:1002200041F0010101601A4901F61450D1F8141D82
:1002300041F400710160FFF77EFFBDE81040FFF759
:1002400077BF00F01F01012202FA01F1104A4009B4
:1002500002EB8000C0F80011704700F01F0101227E
:1002600002FA01F10A4A400902EB8000C0F880114D
:1002700070470748D0F800110B4A11600021C0F800
:1002800000117047084802490068C1F80001704732
:1002900000E000E019000307190003031300031333
:1002A0001500004027000013003200000020FFF777
:1002B000C8BF0020FFF7D1BF2DE9F04FF94C87B040
:1002C00004F5807004F59071092203680B6043689F
:1002D0004B6083688B60C368CB6020382039521E26
:1002E000F3D1521E00214FF0804001F0E3F9ED4CB4
:1002F000DFF8B4834FF0FF3220600021404601F068
:10030000D9F908F1040760604FF0FF320021384648
:1003100001F0D0F93E1DA0604FF0FF3200213046C1
:1003200001F0C8F9E060FC062068A064002565645F
:10033000DE480168006801F00F09C0F3031A4FF0AE
:1003400001024FF01D01204601F0B4F90290032292
:100350001B21204601F0AEF91A2101900122480725
:1003600001F0A8F9012203901721900701F0A2F9EA
:10037000012204901621900701F09CF910210590AC
:100380000F22880601F096F9142100900122080737
:1003900001F090F906904FF6FF720021404601F0FF
:1003A00089F983464FF6FF720021384601F082F941
:1003B00007464FF6FF720021304601F07BF9216CB1
:1003C00021F4FF51216441F20102B9494FF00A08BA
:1003D000904208D102200860C4F84480206C40F0AC
:1003E000200020643BE042F20102012690420DD140
:1003F000B0480E600560C4F84480206C40F04000B6
:100400002064E560E66407B0BDE8F08F0698012837
:1004100015D0049850B1206C40F080002064C4F8DE
:100420004480A564E560E564FFF780FE019802283A
:1004300019D019EA0A0F00F0798100F07EB99E48C0
:1004400005609E4805609E4805609E4805609E4880
:100450000660206C40F000702064C4F84480E560C1
:1004600007B0BDE8F08FDFF864B207220E215846CE
:1004700001F020F90746002307220E21584601F01B
:100480001DF90298DFF848B2002879D0DBF80000A7
:10049000FF2804D08C49096849B100F000B9206CEC
:1004A00040F080702064C4F8448000F0F8B8012F58
:1004B0000AD0022F20D0042F34D0052F1CBF206C6F
:1004C00020F4706045D042E082490A6882490A609F
:1004D0008249085C8249086082490A78904224BFB8
:1004E00049788142744834BF05600660206C40F44E
:1004F0008070206400F0D3B87B490A687B490A60A9
:100500007B49085C7B49086076490A78904224BFA1
:1005100049788142694834BF05600660206C40F428
:10052000007014E074490A6874490A607449085CF0
:10053000744908606B490A78904224BF4978814227
:100540005F4834BF05600660206C40F400602064A2
:10055000A5E06D490A686D490A606D49085C6D49FE
:10056000086060490A78904224BF49788142554822
:1005700034BF05600660206C40F48060E7E7FFE769
:10058000FF220021484801F095F8CBF80000FF2831
:100590005BD1012F06D0022F19D0042F2CD0052FAC
:1005A0003FD052E0444F386828B319EA0A0F06D109
:1005B0004FF0FF306064E560E664FFF7B7FD464842
:1005C0001C210268CC2001F016FB3D603DE03B4F52
:1005D000386880B119EA0A0F06D14FF0FF30606425
:1005E000E560E664FFF7A2FD40481E210268CC20CA
:1005F00001F001FB3D6028E0314F386828B319EA6B
:100600000A0F06D14FF0FF306064E560E664FFF743
:100610008DFD3A481A210268CC2001F0ECFA3D60C9
:1006200013E0284F386880B119EA0A0F06D14FF05D
:10063000FF306064E560E664FFF778FD334824210D
:100640000268CC2001F0D7FA3D60059838B3164F08
:100650000F221021384601F02DF801002E481ABF54
:100660000521016006600F220021384601F022F8C2
:100670002A490F2208600421384601F01BF8284956
:100680000F2208600821384601F014F825490F228E
:1006900008600C21384601F00DF823490860C4F8C1
:1006A0004480D0E07C34000004000040C001477367
:1006B0006C340000683400001C3400003434000046
:1006C0004C34000064340000703400000C00004022
:1006D0007834000014340000183400001A3200008E
:1006E0000C340000043200002C34000030340000D0
:1006F000323200002434000044340000483400004A
:100700000C3200003C3400005C3400006034000017
:100710004632000054340000F8330000FC3300007F
:100720000034000004340000083400004FF0FF30B3
:100730006064E560E664FFF7F9FC039801280CBFEC
:100740004FF00C094FF0CC090198002800981ED0FA
:10075000C0B1FF2200214FF0804000F0ABFF074600
:100760004FF0FF320021514800F0A4FF4FF0FF325C
:1007700000214F4800F09EFF39464846009A01F09C
:10078000BBFA52E05946484601F095FA4DE0D0B127
:10079000FF2200214FF0804000F08CFF07464FF011
:1007A000FF320021414800F085FF82464FF0FF32C2
:1007B00000213F4800F07EFF034652463946484636
:1007C00001F062FA2FE019210122880700F072FF80
:1007D00078B15946484601F06EFAFF2200214FF0E9
:1007E000804000F067FF616C81436164616C384058
:1007F0000F183A465946484601F0FDF9BBF11C0F67
:1008000008BF2C480ED0BBF11E0F08BF2A4809D0E4
:10081000BBF11A0F08BF294804D0BBF1240F08BF51
:10082000274800D10760C4F844802648406850B18A
:10083000206C40F4805020644FF0EE306064E5603E
:10084000E664FFF773FC204F092207F5887007F56F
:10085000987103680B6043684B6083688B60C36862
:10086000CB6020382039521EF3D1521E0021174888
:1008700000F020FF38614FF0FF320021144800F0F3
:1008800019FF78614FF0FF320021124800F012FF8B
:10089000B8614FF0FF3200210F4800F00BFFF86104
:1008A000E560E66407B0BDE8F08F0000040000409A
:1008B00008000040143400002C34000044340000D0
:1008C0005C340000043200007C3400004000004032
:1008D00044000040480000404C00004010B5044671
:1008E0006AA000F073FE4FF0E021012C1CBF42F221
:1008F0000F70486105D06A4A00201060032008612B
:1009000010BD6848C06940F2E73230F07F4007D040
:1009100000EB4002C2EBC01040F2E73202EBC00233
:100920004A61E8E710B560A000F050FE4FF0E0200B
:10093000016921F00301016110BD10B560A000F054
:1009400045FE57480168491C016010BD00EB40029C
:100950000021C2EBC01000BFB1EB801F98BF491C43
:10096000FAD970474E4900224A6000EB4002C2EBC0
:10097000C0104A68B2EB801FC8BF70474A68521C5B
:100980004A60F6E7464900224A604A68B2EB400FE7
:10099000DCBF4A68521CF7DD704710B5044650A012
:1009A00000F014FE3E49002048604A68B2EBC40FD4
:1009B000DCBF4868401CF7DD10BD10B5044648A0F8
:1009C00000F004FE3649002048604A484FF4FA71AE
:1009D000604301EB0020490090FBF1F0401EC1177D
:1009E00000EB5170C110444841601321016040F296
:1009F0001111C2688A42FCD1BDE810400120FFF706
:100A000020BC10B504463DA000F0E0FD24490020C4
:100A1000486038483E49604301EB0020490090FBA4
:100A2000F1F0401EC11700EB5170C1103248416017
:100A30001321016040F21111C2688A42FCD1BDE865
:100A400010400120FFF7FDBB10B532A000F0BEFD45
:100A50000120FFF702FC2848016821F00101016034
:100A600040F21111C2688A42FCD110BD10B52DA010
:100A700000F0ACFD2048006810F4803F08BF10BDB6
:100A800007484168491C416010BD000053797374E8
:100A9000656D205469636B20456E61626C650A0068
:100AA0005432000000E000E053797374656D205407
:100AB00069636B2044697361626C650A0000000021
:100AC0002D2D2D2D2D205379735469636B20496E84
:100AD00074657272757074202D2D2D2D2D0A0000F5
:100AE00054696D657220456E61626C65286D736531
:100AF00063290A00E1F505000000014054696D65B5
:100B00007220456E61626C652875736563290A0001
:100B100020A1070054696D65722044697361626C9D
:100B2000650A00002D2D2D2D2D2054696D65722034
:100B3000496E74657272757074202D2D2D2D2D0ADD
:100B40000000000070B504460D462BA000F03EFDED
:100B50002C49002008602C484FF47A71684390FBC0
:100B6000F1F02A4A81B251609160012C02BF21202C
:100B7000106070BD24201060BDE870400220FFF7B7
:100B800060BB204B10B500221A60214A1F4C514314
:100B9000204A91FBF2F189B26160A16001280AD07C
:100BA0001DA000F013FD40F624602060BDE8104059
:100BB0000220FFF746BB1EA000F008FD40F62160B2
:100BC000206010BD10B51FA000F000FD0220FFF74F
:100BD00044FB0E48016821F02001016010BD10B5F2
:100BE0001CA000F0F3FC09490020C860054801681A
:100BF000491C016010BD000057445420456E6162DD
:100C00006C650A005C320000105E5F00000002406C
:100C10009A5B060040420F0057445420496E7465A9
:100C2000727275707420456E61626C650A00000016
:100C300057445420526573657420456E61626C653B
:100C40000A0000005744542044697361626C650ACD
:100C5000000000002D2D2D2D2D2057445420496ECD
:100C600074657272757074202D2D2D2D2D0A000063
:100C7000FB4A00EB400052F83000402202EB8101B9
:100C8000405800F03F007047F54A00EB4000491E15
:100C900052F83030996052F830104B6843F001033D
:100CA0004B6052F83010486810F4403F0FD148684C
:100CB00010F4403F08BF012009D104E0401C052882
:100CC00001D9002070474A6812F4403FF6D0012055
:100CD000704700EB4001E24850F83100016841F0F4
:100CE00001010160704700EB4001DD4850F8310020
:100CF000016821F001010160704700EB4003D84812
:100D000050F83300036823F0C00343EA811121F057
:100D1000380141EAC2010160704700EB4001D04850
:100D200010B450F83120136823F00103136000EB76
:100D3000C10250F8313092F810C0527C1C6824F087
:100D4000C00444EA8C1C2CF0380C4CEAC2021A6035
:100D500050F83100016841F00101016010BC70479A
:100D600010B5C0A000F032FCC64800684FF0010189
:100D700010F4803F4FF0000202D0C34BD9615A609B
:100D800010F4003F03D0C14B1960C14B1A6010F43E
:100D9000802F03D0BF480160BF480260BF48016890
:100DA000491C016010BD10B5BDA000F00FFCC44887
:100DB000006810F4803F04D0C2480121C1610021C5
:100DC0004160B6484168491C416010BD10B5BEA0E5
:100DD00000F0FCFBC44800684FF0010110F4803FB4
:100DE0004FF0000202D0C14BD9615A6010F4003FAD
:100DF00003D0BF4B1960BF4B1A6010F4802F03D093
:100E0000BD480160BD480260A4488168491C8160FA
:100E100010BD10B5BAA000F0D9FBC14800684FF072
:100E2000000110F4803F4FF0010002D0BD4AD061B4
:100E30005160BD4A126812F4803F02D0BB4AD061B3
:100E40005160BB4A126812F4803F02D0B94AD061A7
:100E50005160B94A126812F4803F02D0B74AD0619B
:100E600051608E48C168491CC16010BD10B5B4A066
:100E700000F0ACFBBA4800684FF0000110F4803F6E
:100E80004FF0010002D0B74AD0615160B64A1268F3
:100E900012F4803F02D0B54AD0615160B44A126862
:100EA00012F4803F02D0B34AD06151607B4801699F
:100EB000491C016110BD10B5AFA000F087FB71485F
:100EC000016801680168016803680021012213B10B
:100ED0006D4B5960DA61036803680368036803684F
:100EE00013F0020F03D06A4B1960684B1A60036855
:100EF000036803680368006810F0040F03D06648B5
:100F000001606448026065484169491C416110BD47
:100F100010B5A1A000F05AFB69480168016801689A
:100F20000168006820B16748002141600121C1616A
:100F30005A488169491C816110BD10B59EA000F01E
:100F400045FB694801680168016801680368002180
:100F5000012213B1654B5960DA61036803680368C5
:100F60000368036813F0020F03D0624B1960604BF3
:100F70001A600368036803680368006810F0040FD0
:100F800003D05E4801605C4802604448C169491C66
:100F9000C16110BD10B590A000F018FB6048016859
:100FA00001680168016800680021012210B15D48F4
:100FB0004160C2615C4803680368036803680068B5
:100FC00010B15A484160C261594803680368036818
:100FD0000368006810B157484160C2615648036811
:100FE000036803680368006810B154484160C26137
:100FF0002A48016A491C016210BD10B57EA000F0AC
:10100000E5FA574801680168016801680068002135
:10101000012210B153484160C2615348036803681C
:1010200003680368006810B150484160C2615048CD
:101030000368036803680368006810B14D484160A5
:10104000C2611648416A491C416210BD10B572A0C8
:1010500000F0BCFA1148816A491C816210BD000091
:10106000983200002D2D2D2D2D2048504D30302050
:10107000496E74657272757074202D2D2D2D2D0A98
:1010800000000000004081B1000081B11C0481B16A
:10109000040481B11C0881B1040881B160320000F0
:1010A0002D2D2D2D2D2048504D303120496E746549
:1010B0007272757074202D2D2D2D2D0A00000000E8
:1010C000004091B1000091B12D2D2D2D2D204850C3
:1010D0004D303220496E74657272757074202D2DFA
:1010E0002D2D2D0A000000000040A8B40000A8B477
:1010F0001C04A8B40404A8B41C08A8B40408A8B428
:101100002D2D2D2D2D2048504D303320496E7465E6
:101110007272757074202D2D2D2D2D0A0000000087
:10112000004088B0000088B0004098B0000098B03F
:101130000040A8B00000A8B00040B8B00000B8B0AF
:101140002D2D2D2D2D2048504D303420496E7465A5
:101150007272757074202D2D2D2D2D0A0000000047
:1011600000406FB400006FB400402FB500002FB5F1
:1011700000406BB300006BB32D2D2D2D2D2048505A
:101180004D303520496E74657272757074202D2D46
:101190002D2D2D0A000000002D2D2D2D2D20485025
:1011A0004D303620496E74657272757074202D2D25
:1011B0002D2D2D0A000000002D2D2D2D2D20485005
:1011C0004D303720496E74657272757074202D2D04
:1011D0002D2D2D0A000000002D2D2D2D2D204850E5
:1011E0004D303820496E74657272757074202D2DE3
:1011F0002D2D2D0A000000002D2D2D2D2D204850C5
:101200004D303920496E74657272757074202D2DC1
:101210002D2D2D0A000000002D2D2D2D2D204850A4
:101220004D313020496E74657272757074202D2DA9
:101230002D2D2D0A0000000010B50DA000F0C6F9FC
:101240001348C16A491CC16210BD10B511A000F05D
:10125000BDF90F48016B491C016310BD10B515A005
:1012600000F0B4F90A48416B491C416310BD00000D
:101270002D2D2D2D2D2048504D313120496E746576
:101280007272757074202D2D2D2D2D0A0000000016
:10129000603200002D2D2D2D2D2048504D31322053
:1012A000496E74657272757074202D2D2D2D2D0A66
:1012B000000000002D2D2D2D2D2048504D313320C4
:1012C000496E74657272757074202D2D2D2D2D0A46
:1012D0000000000010B58BA000F078F98E4B186864
:1012E00020F001001860586820F00100586018696B
:1012F00020F001001861186A20F001001862022233
:101300001146012051435143401EFBD1481E196B29
:1013100021EA00001863186C20F001001864186DB1
:1013200020F001001865186E20F001001866186F93
:1013300020F001001867D3F8800020F00100C3F806
:10134000800010BD10B575A000F040F9724B186810
:1013500040F001001860586820F0010058601869DA
:1013600020F001001861186A40F0010018620222A2
:101370001146012051435143401EFBD1481E196BB9
:1013800021EA00001863186C40F001001864186D21
:1013900040F001001865186E20F001001866186F03
:1013A00040F001001867D3F8800040F00100C3F856
:1013B000800010BD10B55EA000F008F9564B18680B
:1013C00020F001001860586840F00100586018696A
:1013D00040F001001861186A40F001001862022212
:1013E0001146012051435143401EFBD1481E196B49
:1013F00021EA000040F007001863186C40F001007B
:101400001864186D40F001001865186E40F0010076
:101410001866186F40F001001867D3F8800040F09C
:101420000100C3F8800010BD10B5044645A000F0CF
:10143000CDF864B1012C0DD0022C0ED048A000F0E4
:10144000FFF84E48016841F00101016010BDFFF74F
:10145000B1FFF6E7FFF776FFF3E7FFF73BFFF0E7B3
:10146000FEF764BE464810B5016821F48031016082
:10147000FEF7FFFEFEF75AFEBDE81040FEF702BF82
:1014800010B540A000F0A2F84548016841F0010104
:10149000016001680029FCD110BD10B5044641A0CF
:1014A00000F094F844480068012C18BF10BD10F0FB
:1014B00001001CBF012010BD40490A6822F0010252
:1014C0000A6010BD10B5044636A000F07FF83C4815
:1014D0000068B4F5801F18BF10BD10F480101CBF49
:1014E000012010BD37490A6822F480120A6010BD3D
:1014F00035484168491C4160704733480168491CC0
:101500000160704753656E736F7220536C65657030
:10151000204D6F64650A000000D0054053656E736E
:101520006F722053746F70204D6F64650A00000065
:1015300053656E736F722049646C65204D6F6465EE
:101540000A00000053656E736F72204C6F77205055
:101550006F77657220456E61626C650A000000005D
:101560004572726F723A20556E6B6E6F776E2050B7
:101570006F776572204D6F64650000000CC60540F2
:1015800000C2054057616B657570205265717565C5
:1015900073742066726F6D2053656E736F720A00EC
:1015A00080C6054052657365742053746174757309
:1015B00020436865636B0A0004C405400CC4054001
:1015C00004045C700C045C70E833000070B50446E1
:1015D00000F086FE36490978012918BF70BD002148
:1015E000C31E4FF47062002B10D900BF04EB010C36
:1015F000DCF800509CF803C02DBA25F0FF0545EA41
:101600000C0CC2F800C0091D8B42EFD8884298BF6D
:10161000002308D9431A03F00103012B04BF14F877
:1016200001C082F800C01944814228BF70BD635CCC
:10163000137063185B781370891C8142F7D370BDF7
:1016400070B5044600F04CFE0021C31E4FF47062DA
:10165000002B0FD904EB010CDCF800509CF803C000
:101660002DBA25F0FF0545EA0C0CC2F800C0091D93
:101670008B42EFD8884298BF002308D9431A03F061
:101680000103012B04BF14F801C082F800C0194403
:10169000814228BF70BD635C137063185B78137060
:1016A000891C8142F7D370BD4FF49E41086070479A
:1016B000F03300000068C8401040704710B4D0F804
:1016C00000C002FA01F41A402CEA040C02FA01F1FB
:1016D0004CEA0101016010BC7047F5480168F54A09
:1016E0004FF00103128803FA02F221EA02010160BD
:1016F0007047EF480168EF4A4FF00103128803FA80
:1017000002F241EA020101607047E9480168E94AD2
:101710004FF00103528803FA02F221EA020101604C
:101720007047E3480168E34A4FF00103528803FA27
:1017300002F241EA020101607047DF48D0F8C4C1FB
:10174000DC49012200F5E2704B8802FA03F32CEA2F
:10175000030CC0F800C0D0F800C0098802FA01F1FB
:101760002CEA0102026002681A4302600268114317
:1017700001607047CE480368CE494FF00102B1F8CE
:1017800002C002FA0CFC43EA0C03036003680988F8
:1017900002FA01F143EA01020260026822EA010151
:1017A00001607047C54810B4D0F804C0C1494FF07B
:1017B00001024B8802FA03F32CEA030CC0F804C0C0
:1017C000D0F800C009884FEA810402FA04F22CEA3A
:1017D000020CC0F800C0D0F804C04CEA0303436018
:1017E000436843FA01F1B64B01F001011960016849
:1017F00041EA0201016010BC70472DE9F001AE48DA
:1018000007210023D0F8C0C1AA4A0125B2F8008000
:101810004FEA880405FA04F72CEA070CC0F8C0C1A7
:101820005688424605FA06FCD0F8C44144EA0C0446
:10183000C0F8C441D0F8C441D44004F001048C4045
:101840002343D0F8C44124EA0C04C0F8C441002961
:101850001CBF491E89B2E7D1D0F8C0113943C0F886
:10186000C011D0F8C41105FA02F21143C0F8C41136
:10187000D0F8C41105FA06F21143C0F8C4114FF0B4
:1018800080404364BDE8F00170472DE9F00307276D
:1018900007EBC00081B288480022D0F8C051854EC5
:1018A0000123B6F800C04FEA8C0403FA04F4A54300
:1018B000C0F8C051768803FA0CF54FF08048B34069
:1018C000D0F8C4611E43C0F8C461D0F8C4611F29B8
:1018D00026FA0CF606F0010686BFA1F1200906FAE9
:1018E00009F68E403243D0F8C4619E43C0F8C4610B
:1018F00019B3491E89B237EA010618D1D0F8C06180
:101900002643C0F8C061D0F8C461AE43C0F8C461DA
:10191000D0F8C4611E43C0F8C461D0F8C4619E43CE
:10192000C0F8C461D0F8C061A643C0F8C0611F29E7
:1019300004BFC8F844200022C2E7D0F8C0112143F8
:10194000C0F8C011D0F8C4112943C0F8C411D0F8B0
:10195000C4111943C0F8C411C8F84820BDE8F00309
:1019600070472DE9F041534D072101262A88524C3A
:1019700006FA02F36A8806FA02F200BF40FA01FC96
:10198000D4F8C4710CF0010C9743C4F8C471BCF1D5
:10199000010FD4F8C4C10CBF4CEA030C2CEA030CB1
:1019A000C4F8C4C1D4F8C4C14CEA020CC4F8C4C120
:1019B00000291CBF491E89B2E0D1FFF7F3FE404861
:1019C0000068012809D0D4F8C401698806FA01F139
:1019D0008843C4F8C401BDE8F081FFF7AEFEBDE85E
:1019E000F041FEF7A3BB2DE9F05F81464FF0070BF6
:1019F0000BEBC200DFF8C8802F4C2E4D8A4686B212
:101A00000127202E32BF2AFA06F0A6F1200029FA7B
:101A100000F000F00101D4F8C421688807FA00F052
:101A20008243C4F8C4210129D4F8C4112A8807FAD2
:101A300002F20CBF11439143C4F8C411D4F8C4118D
:101A40000143C4F8C41196B3711E8EB23BEA06017D
:101A5000D7D1D4F8C4118143C4F8C411D4F8C0213B
:101A600029888B0007FA03F39A43C4F8C021D4F8FD
:101A7000C4210243C4F8C421D4F8C42142FA01F1BC
:101A800001F00101C8F80010D4F8C0211A43C4F8CD
:101A9000C021012906D0D4F8C41121EA0000C4F8FD
:101AA000C401AEE7FFF749FEFEF740FBA9E709E0F6
:101AB000C4014773F433000000004773C00147734B
:101AC00008320000FFF76EFED8F80000012809D0A8
:101AD000D4F8C401698807FA01F18843C4F8C40145
:101AE000BDE8F09FFFF729FEBDE8F05FFEF71EBBE3
:101AF0002DE9F041FE4D072101262A88FD4C06FA0A
:101B000002F36A8806FA02F240FA01FCD4F8C471C2
:101B10000CF0010C9743C4F8C471BCF1010FD4F868
:101B2000C4C10CBF4CEA030C2CEA030CC4F8C4C1BA
:101B3000D4F8C4C14CEA020CC4F8C4C100291CBFCB
:101B4000491E89B2E0D1FFF72DFEEB48006801285D
:101B500009D0D4F8C401698806FA01F18843C4F8B1
:101B6000C401BDE8F081FFF7E8FDBDE8F041FEF7F4
:101B7000DDBA2DE9F041DE4D072101262A88DD4C32
:101B800006FA02F36A8806FA02F200BF40FA01FC84
:101B9000D4F8C4710CF0010C9743C4F8C471BCF1C3
:101BA000010FD4F8C4C10CBF4CEA030C2CEA030C9F
:101BB000C4F8C4C1D4F8C4C14CEA020CC4F8C4C10E
:101BC00000291CBF491E89B2E0D1FFF7EBFDCA48CE
:101BD0000068012809D0D4F8C401698806FA01F127
:101BE0008843C4F8C401BDE8F081FFF7A6FDBDE855
:101BF000F041FEF79BBA2DE9F04106460C4615462A
:101C0000FFF7B8FD3046FFF7B4FF2046FFF770FF3F
:101C1000B74E072001273188B64C07FA01F27188C8
:101C200007FA01F145FA00F3D4F8C4C103F0010347
:101C30002CEA010CC4F8C4C1012BD4F8C4310CBF88
:101C400013439343C4F8C431D4F8C4310B43C4F8EC
:101C5000C43100281CBF401E80B2E3D1FFF7A2FDB3
:101C6000A548006801280AD0D4F8C401718807FA91
:101C700001F18843C4F8C401BDE8F0415DE5FFF718
:101C80005CFDFEF753FAF7E72DE9F04180460C467C
:101C900015461E46069FFFF76DFD4046FFF769FF9C
:101CA0002046FFF725FF3A4631462846FFF79BFEC0
:101CB000BDE8F04141E570B504460D46FFF75AFD19
:101CC0002046FFF756FF2846FFF712FF8B480168B2
:101CD000874A4FF00103128803FA02F241EA020137
:101CE0000160FFF747FD44F00100FFF742FFFFF7F7
:101CF00084FDBDE8704020E570B504460E461546EB
:101D0000FFF738FD2046FFF734FF3046FFF7F0FEBF
:101D10007A480168764A4FF00103128803FA02F20A
:101D200041EA02010160FFF725FD44F00100FFF7E1
:101D300020FF2846FFF7A9FDBDE87040FDE470B51F
:101D40006B4C6068FEF70EFEA06D002808BF70BDEA
:101D50004FF08045286C40F400502864E06D20B9B5
:101D60000820FEF7DAFF0120E06501210820FEF7D8
:101D70008BFF40B300210820FEF77AFFE064A16CDE
:101D800088426169606D0FD9411A206D81421AD273
:101D9000401E2065FEF78DFA1A21CC20226DFFF738
:101DA0002AFFFEF783FA0EE00144206D88420AD232
:101DB000401C2065FEF77DFA1A21CC20226DFFF72A
:101DC0001AFFFEF773FA286C20F40050286470BDE7
:101DD00010B5474C6068FEF7C5FD206F00281ABF9C
:101DE000A06F002810BD606F20B90420FEF795FF9A
:101DF0000120606701210420FEF746FF002808BF8C
:101E000010BD00210420FEF733FF6066216E88427A
:101E10002169E06E11D9411AA06E814228BF10BD20
:101E2000401EA066FEF745FA2421CC20A26EFFF7E3
:101E3000E2FEBDE81040FEF739BA0144A06E8142CF
:101E400098BF10BD401CA066FEF733FA2421CC20B9
:101E5000A26EFFF7D0FEBDE81040FEF727BA70B5BE
:101E6000234C6068FEF77EFD206C002808BF70BD23
:101E70004FF08045286C40F400502864606C20B915
:101E80000320FEF74AFF0120606401210320FEF7D2
:101E9000FBFE002808BF70BD00210320FEF7E8FE0E
:101EA0006063216B8842E168E06B0FD9411AA06B37
:101EB00081421AD2401EA063FEF7FBF91E21CC20FE
:101EC000A26BFFF798FEFEF7F1F90EE00144A06B5C
:101ED00088420AD2401CA063FEF7EBF91E21CC20F9
:101EE000A26BFFF788FEFEF7E1F9286C08E000001E
:101EF000F43300000000477308320000C401477348
:101F000020F40050286470BD70B5F04C6068FEF796
:101F100029FDA06A002808BF70BD4FF08045286CDD
:101F200040F400502864E06A20B90020FEF7F5FE76
:101F30000120E06201210020FEF7A6FE002808BF74
:101F400070BD00210846FEF793FEE061A16988425A
:101F5000A168606A0FD9411A206A81421AD2401ED4
:101F60002062FEF7A6F91C21CC20226AFFF743FE6F
:101F7000FEF79CF90EE00144206A88420AD2401C18
:101F80002062FEF796F91C21CC20226AFFF733FE6F
:101F9000FEF78CF9286C20F40050286470BDCB4CFF
:101FA00000250126A5622564A5652567A567C4E906
:101FB0000165E56065612561E5626564E5650227A7
:101FC0006567C4E91F57C249002043F2307343F2EA
:101FD000347C00BF53F82020921C0A545CF8202067
:101FE00001EB0008921C801C88F801201828F1D30E
:101FF000B849002043F2987343F29C7C53F82020A8
:10200000921C0A545CF8202001EB0008921C801CF2
:1020100088F801201428F1D343F2EC731868AE4914
:10202000801C43F2F07C0870012000BF53F8202090
:10203000921C0A545CF8202001EB0008921C801CC2
:1020400088F801200B28F1D3A449002043F61C0C8A
:1020500043F620035CF82020921C0A5453F82020F9
:1020600001EB0008921C801C88F801200E28F1D397
:102070004FF08048C8F84050FEF718F9D8F84000F3
:1020800040F01000C8F840006068FEF76BFCA06AE2
:1020900000283FD0D8F8400040F40050C8F8400075
:1020A000E06A18B90020FEF738FEE6620121002040
:1020B000FEF7EAFD70B300210846FEF7D9FDE061A6
:1020C000A1698842A168606A0FD9411A206A8142D9
:1020D0001AD2401E2062FEF7ECF81C21CC20226AA6
:1020E000FFF789FDFEF7E2F80EE00144206A88421E
:1020F0000AD2401C2062FEF7DCF81C21CC20226AA8
:10210000FFF779FDFEF7D2F8D8F8400020F4005030
:10211000C8F840006068FEF725FC206C00283FD01E
:10212000D8F8400040F40050C8F84000606C18B97E
:102130000320FEF7F2FD666401210320FEF7A4FDF3
:1021400070B300210320FEF793FD6063216B88428A
:10215000E168E06B0FD9411AA06B81421AD2401E90
:10216000A063FEF7A6F81E21CC20A26BFFF743FD6B
:10217000FEF79CF80EE00144A06B88420AD2401C96
:10218000A063FEF796F81E21CC20A26BFFF733FD6B
:10219000FEF78CF8D8F8400020F40050C8F8400052
:1021A0006068FEF7DFFB206F00281CBFA06F0028CF
:1021B00033D0606F18B90420FEF7AFFD66670121C8
:1021C0000420FEF761FD40B300210420FEF750FD1E
:1021D0006066216E88422169E06E0FD9411AA06EB7
:1021E00081421AD2401EA066FEF763F82421CC205B
:1021F000A26EFFF700FDFEF759F80EE00144A06E55
:1022000088420AD2401CA066FEF753F82421CC2055
:10221000A26EFFF7F0FCFEF749F86068FEF7A2FB3C
:10222000A06DE0B3D8F8400040F40050C8F840007A
:10223000E06D18B90820FEF770FDE6650121082061
:10224000FEF722FD40B300210820FEF711FDE064F7
:10225000A16C88426169606D0FD9411A206D81427D
:102260001AD2401E2065FEF724F81A21CC20226DD8
:10227000FFF7C1FCFEF71AF80EE00144206D88421A
:102280000AD2401C2065FEF714F81A21CC20226DDA
:10229000FFF7B1FCFEF70AF8D8F8400000E003E0D1
:1022A00020F40050C8F84000D8F80000E16FC0F3F7
:1022B000005008421CBFE767C8F84C60A06F0228B6
:1022C00004BFA567C8F84C60DEE60000F4330000E8
:1022D0001A32000032320000463200000C32000098
:1022E00010B5431C02E010F8011B71B18107FAD14F
:1022F0004FF0013202C88C1A8C4314EAC211F9D093
:10230000C01A0A0603D0C01E10BDC01A10BD0A04B0
:1023100001D0801E10BD0902FCD0401E10BD7047C8
:10232000704770470446AFF300802046FDF7F8FE83
:102330007047000000487047C03500000149182070
:10234000ABBEFEE72600020010B5FFF7F3FF4FF02B
:102350000001016010BD48504D5F473344300048D4
:10236000504D5F4D4946300048504D5F41544C3010
:102370000048504D5F495350300048504D5F47333F
:1023800044310048504D5F4D4946310048504D5F43
:1023900041544C310048504D5F473344320048505F
:1023A0004D5F4D4946320048504D5F41544C32001C
:1023B00048504D5F4D4946330048504D5F4D4643B0
:1023C0000048504D5F50455249430048504D5F41D1
:1023D000504F0000F4230000003200007C02000097
:1023E00088000000AC2400007C340000A001000044
:1023F000E400000041A3043C400B24252628262E9F
:1024000021323F3F40152C2B1F1F1F202021221659
:1024100017191C1E2226191F2C2210101E202022E4
:10242000232525131416181A1E2920380B121213EF
:102430001113131414223D37014513817123350CF8
:1024400045A3E1110322072B6823AD0910182A8C3C
:10245000180A1008182AA71811FA91183ACB186B05
:10246000A874185A02183A56600910183A7A600986
:1024700010183A95487A6F185A01183A7118EB8873
:1024800070183A5F18FA98184A8390F9183A9E180B
:10249000FAB8183AB018EB2F75183AB918EB6B73F5
:0C24A000183AC118C1391A01810000006F
:00000001FF
