:10000000004000004D000000871B00006D01000053
:100010008D010000AD010000CD01000000000000D6
:10002000000000000000000000000000F1010000DE
:10003000ED01000000000000F5010000F10B0000E0
:10004000010300005F0D0000DD0E000000F002F86B
:1000500000F05CF80AA090E8000C82448344AAF106
:100060000107DA4501D100F051F8AFF2090EBAE804
:100070000F0013F0010F18BFFB1A43F001031847DC
:1000800050280000702800000A444FF0000C10F8BF
:10009000013B13F0070408BF10F8014B1D1108BF06
:1000A00010F8015B641E05D010F8016B641E01F8A6
:1000B000016BF9D113F0080F1EBF10F8014BAD1CF6
:1000C0000C1B09D16D1E58BF01F801CBFAD505E014
:1000D00014F8016B01F8016B6D1EF9D59142D6D36E
:1000E000704700000023002400250026103A28BF96
:1000F00078C1FBD8520728BF30C148BF0B6070479A
:100100001FB502F09FFB1FBD10B510BDDFF80CD06E
:10011000FFF7F6FF00F01CF802F078FB004000004B
:1001200003B4FFF7F1FF03BC02F07CFB30BF704764
:10013000BFF36F8F7047BFF34F8F7047BFF35F8F71
:100140007047EFF31480704780F314887047000005
:1001500010B500204FF08041C864034908618860F1
:1001600002F067FA002010BD0000044010B54FF007
:100170008040006C40F001004FF080410864012095
:100180001E4908618860FFF7D1FF10BD10B54FF020
:100190008040006C40F002004FF080410864012074
:1001A000164908618860FFF7C1FF10BD10B54FF018
:1001B0008040006C40F004004FF080410864012052
:1001C0000E4908618860FFF7B1FF10BD10B54FF010
:1001D0008040006C40F008004FF08041086401202E
:1001E000064908618860FFF7A1FF10BD00BFFEE768
:1001F00000BFFEE700BFFEE700BFFEE700000440CF
:1002000010B511213148C0F89C1D3149C0F8A01D1E
:1002100042F21201C0F89C1D2E49C0F8A01D43F601
:100220001371C0F89C1D2C49C0F8A01D43F61401A1
:10023000C0F89C1D2849C0F8A01D2849C0F89C1D85
:100240002749C0F8A01DD0F8940D40F001011F48C7
:10025000C0F8941DD0F8140D40F400711B48C0F88C
:10026000141DFFF768FFFFF763FF10BD00F01F02CA
:100270000121914043091B4A42F82310704700F0C6
:100280001F0101228A4043091649803141F8232089
:10029000704700200AE0134951F82010124A42F832
:1002A000201000220F4941F82020401C0028F2DDD8
:1002B0007047002006E00C4951F82020094941F818
:1002C0002020401C0028F6DD7047000000E000E020
:1002D000190003071900030313000313150000405E
:1002E0002700001300E100E00032000010B50020FC
:1002F000FFF7BCFF10BD10B50020FFF7C0FF10BD19
:100300002DE9F04F8DB0092420E0601EF84901EB83
:100310004010006801EB44110860601EF44901EBD5
:100320004010406801EB44114860601EF04901EB49
:100330004010806801EB44118860601EEC4901EBBD
:100340004010C06801EB4411C860641E002CDCD171
:10035000621E00214FF0804001F0AAFCE4490860D1
:10036000621E0021E34801F0A3FCE1494860621EDF
:100370000021E048001D01F09BFCDD498860621E01
:100380000021DC48083001F093FCD949C8604FF0E7
:10039000804000684FF08041886400204864012359
:1003A0001A461F21D3483C3001F08AFC0023012269
:1003B0001E21D0483C3001F083FCCF48006800F09B
:1003C0000F08CE48D0F8C001C0F303194FF0010266
:1003D0004FF01D014FF0804001F06AFC0B900322AA
:1003E0001B214FF0804001F063FC0C9001221A2188
:1003F000480701F05DFC0A9001221721900701F0E7
:1004000057FC089001221621900701F051FC07903B
:100410000F221021880601F04BFC82460122142194
:10042000080701F045FC01904FF6FF720021B1482A
:1004300001F03EFC07464FF6FF720021AD48001D5B
:1004400001F036FC06464FF6FF720021A94808303D
:1004500001F02EFC02904FF08040006C20F4FF5021
:100460004FF08041086441F201010298884216D1A0
:100470000220A34908600A20410748644007006C35
:1004800040F020000864002301221F2199483C30DD
:1004900001F016FC00204FF08041C86047E342F2B3
:1004A0000101029888421BD1012095490860002073
:1004B000944908600A20410748644007006C40F0F6
:1004C00040000864002301221F218A483C3001F0CB
:1004D000F7FB00204FF08041C8600120C86426E38C
:1004E0000198012820D100208749086087490860C9
:1004F00087490860874908600120874908608007AC
:10050000006C40F000704FF0804108640A2048649D
:10051000002301221F2177483C3001F0D1FB00204D
:100520004FF08041C86002E30898B0B10023012277
:100530001F2170483C3001F0C3FB4FF08040006C3D
:1005400040F080004FF0804108640A204864002099
:100550008864C860C864FFF7E9FD0C98022873D16D
:1005600007220E216348083001F0A2FB0546002354
:1005700007220E215F48083001F0A2FB0B980028EB
:100580007ED066480068FF280AD14FF08040006C9A
:1005900040F080704FF0804108640A204864B1E167
:1005A0005D4800680028FAD1012D25D15C4800681B
:1005B0005C4908605C4859490968405C5B490860CF
:1005C000084600685A490978884205D357480068A8
:1005D00058490978884203D900204B49086002E055
:1005E0000120494908604FF08040006C40F4807061
:1005F0004FF08041086485E1022D26D14E48006805
:100600004E4908604E4845490968405C4D490860BC
:100610000846006846490978884205D34948006879
:1006200044490978884203D900203849086002E02B
:100630000120364908604FF08040006C40F40070A3
:100640004FF0804108645DE160E1042D27D13E4810
:1006500000683E4908603E4830490968405C3D49B1
:1006600008600846006832490978884205D339484D
:10067000006830490978884205D90020244900E003
:100680007BE0086002E00120214908604FF08040D3
:10069000006C40F400604FF08041086432E1052DA9
:1006A00062D12D4800682D4908602D481B49096812
:1006B000405C2C490860084600681D49097888425A
:1006C00005D3284800681B490978884203D90020CF
:1006D0001049086002E001200E4908604FF0804098
:1006E000006C40F480604FF0804108640AE13BE018
:1006F0008834000004000040C001477300004773C5
:1007000070340000683400001C34000034340000F1
:100710004C3400006434000074340000F4330000F2
:100720001434000018340000143200000C340000AF
:1007300004320000053200002C3400003034000088
:100740002C320000243400004434000048340000FF
:10075000063200003C3400005C34000060340000CD
:1007600040320000543400004FF08040006C20F410
:1007700070604FF080410864C4E0FF220021ED4822
:1007800001F096FAEC49086008460068FF2822D17B
:10079000012D21D1E948006800281CD018EA090F72
:1007A00010D1A81EA9074864002301221F21E14897
:1007B0003C3001F085FA0020A907C8600120C86418
:1007C000FFF7B4FCDE481C210268CC2001F0C7FC16
:1007D0000020DA4908606AE0022D21D1D94800687A
:1007E000002864D018EA090F10D1E81E6907486490
:1007F000002301221F21CF483C3001F061FA002084
:100800006907C8600120C864FFF790FCCE481E212C
:100810000268CC2001F0A3FC0020CA49086046E031
:10082000042D20D1C9480068F0B318EA090F10D18F
:10083000681F29074864002301221F21BD483C305E
:1008400001F03EFA00202907C8600120C864FFF7C4
:100850006DFCBF481A210268CC2001F080FC00200A
:10086000BA49086023E0052D21D1BA480068D8B103
:1008700018EA090F10D1A81FA90748640023012214
:100880001F21AC483C3001F01BFA0020A907C860CA
:100890000120C864FFF74AFCAF4824210268CC203D
:1008A00001F05DFC002000E001E0AA490860079823
:1008B00040B30F2210219F4801F0FAF918B105202A
:1008C000A649086002E00120A44908600F22002127
:1008D000984801F0EDF9A24908600F2204219548DB
:1008E00001F0E6F99F4908600F220821914801F0C4
:1008F000DFF99D4908600F220C218E4801F0D8F9DC
:100900009A4908600A2041074864BEE018EA090FC6
:1009100013D14FF0FF304FF0804148640023012293
:100920001F2184483C3001F0CBF900204FF080417A
:10093000C8600120C864FFF7F9FB0A98012802D1BA
:100940000C20099001E0CC2009900C9818B3BAF162
:10095000000F1BD0FF2200214FF0804001F0A8F9CA
:1009600005904FF0FF320021724801F0A1F9049088
:100970004FF0FF3200216F48001D01F099F90390FC
:1009800052460599099801F02EFC61E03946099814
:1009900001F010FC5CE0BAF1000F1ED0FF22002134
:1009A0004FF0804001F084F905904FF0FF320021B4
:1009B000604801F07DF904904FF0FF3200215D485E
:1009C000001D01F075F90390CDF800A0DDE90332B8
:1009D0000599099801F0D5FB37E001221921880714
:1009E00001F066F906900698B8B13946099801F009
:1009F000E1FBFF2200214FF0804001F059F98346CE
:100A00004FF08040406C20EA0B004FF0804148647A
:100A100006EA0B060846406C0644324639460998F9
:100A200001F09DFB1C2F02D1514806600DE01E2FE6
:100A300002D15048066008E01A2F02D14E480660E5
:100A400003E0242F01D14D4806600A204107486485
:100A50004B480068C8B14FF08040006C40F48050B3
:100A60004FF0804108644FF0EE30486400230122CB
:100A70001F2130483C3001F023F900204FF0804125
:100A8000C8600120C864FFF751FB092420E0601E04
:100A90003C4901EB4010006901EB44110861601E04
:100AA000384901EB4010406901EB44114861601E78
:100AB000344901EB4010806901EB44118861601EEC
:100AC000304901EB4010C06901EB4411C861641E5C
:100AD000002CDCD1621E002116483C3001F0E8F801
:100AE00028490861621E00211248403001F0E0F8F8
:100AF00024494861621E00210E48443001F0D8F8B4
:100B000020498861621E00210A48483001F0D0F86F
:100B10001C49C861002301221F2106483C3001F016
:100B2000CFF800204FF08041C8600120C8640DB0AC
:100B3000BDE8F08F04000040F43300001C340000D6
:100B40001834000034340000303400004C3400000D
:100B5000483400006434000060340000F8330000C2
:100B6000FC330000003400000434000008340000AE
:100B7000143400002C340000443400005C340000C5
:100B80004C3200008834000010B504467BA001F010
:100B90003BF8012C12D17E4AD26922F07F4140F20B
:100BA000E73039B14A1C02EB4203C3EBC212012306
:100BB000C3EBC2004FF0E022506104E042F20F703C
:100BC0004FF0E021486100207249086003204FF097
:100BD000E021086110BD10B56FA001F015F84FF0CD
:100BE000E020006920F003004FF0E021086110BD13
:100BF00010B56FA001F008F866480068401C654910
:100C0000086010BD002108E000EB4002C2EBC012FA
:100C1000B1EB821F00D901E0491CF5E700BF704726
:100C200000216B4A11600EE000EB4001C1EBC011E6
:100C3000674A1268B2EB811F00DD05E0644909686C
:100C4000491C634A1160EFE700BF70470021604A0A
:100C500011600AE05E490968B1EB400F00DD05E074
:100C60005B490968491C5A4A1160F3E700BF7047A5
:100C700010B5044657A000F0C7FF00205449086093
:100C80000AE053480068B0EBC40F00DD05E05048AF
:100C90000068401C4E490860F3E700BF10BD10B566
:100CA00004464CA000F0B0FF0020494908604E49BE
:100CB00061434FF4FA7202EB0121520091FBF2F111
:100CC000481EC11700EB5171C910484A51601320EA
:100CD0001146086000BF4548C068A0F58071113911
:100CE000F9D10120FFF7C2FA10BD10B5044640A0AB
:100CF00000F08AFF0020364908603B496143414AC1
:100D000002EB0121520091FBF2F1481EC11700EBEA
:100D10005171C910354A516013201146086000BF57
:100D20003248C068A0F580711139F9D10120FFF770
:100D30009DFA10BD10B534A000F066FF0120FFF74A
:100D40009EFA2A48006820F001002849086000BF88
:100D50002648C068A0F580711139F9D110BD10B5D1
:100D60002DA000F051FF2148006810F4803F04D00E
:100D700017480068401C1649086010BD5379737409
:100D8000656D205469636B20456E61626C650A0075
:100D900000E000E05032000053797374656D205418
:100DA00069636B2044697361626C650A000000002E
:100DB0002D2D2D2D2D205379735469636B20496E91
:100DC00074657272757074202D2D2D2D2D0A000002
:100DD0005432000054696D657220456E61626C6525
:100DE000286D736563290A00E1F5050000000140E4
:100DF00054696D657220456E61626C652875736516
:100E000063290A0020A1070054696D6572204469B6
:100E10007361626C650A00002D2D2D2D2D20546903
:100E20006D657220496E74657272757074202D2D17
:100E30002D2D2D0A0000000070B504460E462EA090
:100E400000F0E2FE00202F4908602F4870434FF465
:100E50007A7190FBF1F085B22C4845608560012CD9
:100E600003D121202949086005E024202749086092
:100E70000220FFF7FBF970BD70B504460E46002056
:100E80002049086022487043224990FBF1F085B266
:100E90001E4845608560012C07D11FA000F0B4FEFC
:100EA00040F621601949086009E020A000F0ACFE7E
:100EB00040F62460154908600220FFF7D7F970BD9D
:100EC00010B520A000F0A0FE0220FFF7D8F90F48CF
:100ED000006820F020000D49086010BD10B51DA06D
:100EE00000F092FE00200949C86006480068401CD6
:100EF0000449086010BD000057445420456E6162EB
:100F00006C650A0058320000105E5F00000002406D
:100F10009A5B060040420F005744542052657365A7
:100F20007420456E61626C650A00000057445420CD
:100F3000496E7465727275707420456E61626C657D
:100F40000A0000005744542044697361626C650ACA
:100F5000000000002D2D2D2D2D2057445420496ECA
:100F600074657272757074202D2D2D2D2D0A000060
:100F7000024602EB4200FE4B53F83000402303EBE5
:100F80008103C05800F03F00704770B5024600244E
:100F900000234C1E02EB4200F54D55F830008460F2
:100FA00002EB420055F83000406840F0010002EBCF
:100FB0004205EF4E56F83550686002EB4200354668
:100FC00055F83000406810F4403F01D0012070BD5A
:100FD00004E05B1C052B01D90020F8E702EB42007E
:100FE000E34D55F83000406810F4403FF1D0012047
:100FF000EDE700EB4001DE4A52F83110096841F09C
:10100000010100EB4002DA4B53F8322011607047C7
:1010100000EB4001D64A52F83110096821F0010175
:1010200000EB4002D24B53F832201160704730B5CC
:10103000034603EB4304CE4D55F83440206820F0BE
:10104000C00040EA811020F0380040EAC20003EB03
:10105000430455F83440206030BD10B504462046A6
:10106000FFF7D6FF04EB4400C14B03EBC000427C0A
:1010700004EB440003EBC000017C2046FFF7D7FFE0
:101080002046FFF7B6FF10BD10B5BAA000F0BCFDBA
:10109000C048046814F4803F04D00120BE49C861F0
:1010A0000020486014F4003F06D00120BB490860CE
:1010B0000020BA491839086014F4802F06D00120A6
:1010C000B74908600020B64918390860B54800687B
:1010D000401CB449086010BD10B5B3A000F094FDE9
:1010E000B948046814F4803F04D00120B749C861AE
:1010F00000204860B6480068401CB549086010BD33
:1011000010B5B4A000F080FDBA48046814F4803F24
:1011100004D00120B849C8610020486014F4003FA1
:1011200006D00120B54908600020B449183908608C
:1011300014F4802F06D00120B14908600020B04986
:1011400018390860AF480068401CAE49086010BDFF
:1011500010B5ADA000F058FDB348046814F4803F0A
:1011600004D00120B149C86100204860B04804683B
:1011700014F4803F04D00120AE49C86100204860CB
:10118000AD48046814F4803F04D00120AB49C86125
:1011900000204860AA48046814F4803F04D001206D
:1011A000A849C86100204860A7480068401CA649BB
:1011B000086010BD10B5A5A000F026FDAB4804687E
:1011C00014F4803F04D00120A949C8610020486080
:1011D000A848046814F4803F04D00120A649C861DF
:1011E00000204860A548046814F4803F04D0012022
:1011F000A349C86100204860A2480068401CA1497A
:10120000086010BD10B5A0A000F0FEFC61480468A5
:10121000046804680468046824B100205E494860DA
:101220000120C8615B4804680468046804680468B5
:1012300014F0020F06D00020584918390860012028
:1012400056490860534804680468046804680468E0
:1012500014F0040F06D0002051491839086001200D
:101260004F49086090480068401C8F49086010BDD5
:1012700010B58EA000F0C8FC5348046804680468E8
:101280000468046824B10020504948600120C86106
:101290008E480068401C8D49086010BD10B58CA0B8
:1012A00000F0B2FC534804680468046804680468E9
:1012B00024B10020504948600120C8614D480468AD
:1012C000046804680468046814F0020F06D0002063
:1012D0004A491839086001204849086045480468AF
:1012E000046804680468046814F0040F06D0002041
:1012F0004349183908600120414908607C4800686A
:10130000401C7B49086010BD10B57AA000F07CFC41
:1013100045480468046804680468046824B100202F
:10132000424948600120C861414804680468046873
:101330000468046824B100203E4948600120C86167
:101340003D480468046804680468046824B1002007
:101350003A4948600120C861394804680468046853
:101360000468046814B100203649D3E0D5E00000D9
:101370005C3200002D2D2D2D2D2048504D30302079
:10138000496E74657272757074202D2D2D2D2D0A85
:1013900000000000004081B1000081B11C0481B157
:1013A0001C0881B1AC3300002D2D2D2D2D2048506F
:1013B0004D303120496E74657272757074202D2D18
:1013C0002D2D2D0A00000000004091B1000091B1C8
:1013D000B03300002D2D2D2D2D2048504D303220C2
:1013E000496E74657272757074202D2D2D2D2D0A25
:1013F000000000000040A8B40000A8B41C04A8B479
:101400001C08A8B4B43300002D2D2D2D2D204850DC
:101410004D303320496E74657272757074202D2DB5
:101420002D2D2D0A00000000004088B0000088B07B
:10143000004098B0000098B00040A8B00000A8B0EC
:101440000040B8B00000B8B0B83300002D2D2D2DED
:101450002D2048504D303420496E7465727275707D
:1014600074202D2D2D2D2D0A0000000000406FB49A
:1014700000006FB400402FB500002FB500406BB3E3
:1014800000006BB3BC3300002D2D2D2D2D204850B6
:101490004D303520496E74657272757074202D2D33
:1014A0002D2D2D0A00000000C03300002D2D2D2D04
:1014B0002D2048504D303620496E7465727275701B
:1014C00074202D2D2D2D2D0A00000000C4330000A6
:1014D0002D2D2D2D2D2048504D303720496E74650F
:1014E0007272757074202D2D2D2D2D0A00000000B4
:1014F000C83300002D2D2D2D2D2048504D30382083
:10150000496E74657272757074202D2D2D2D2D0A03
:101510000000000048600120C8612E480068401C9F
:101520002C49086010BD10B52BA000F06DFB3248AF
:101530000468046804680468046824B100202F4922
:1015400048600120C8612E48046804680468046883
:10155000046824B100202B4948600120C8612A4852
:101560000468046804680468046824B100202749FA
:1015700048600120C86126480068401C2449086072
:1015800010BD10B523A000F03FFB2A480068401CA6
:101590002849086010BD10B527A000F035FB2E4883
:1015A0000068401C2C49086010BD10B52BA000F04D
:1015B0002BFB32480068401C3049086010BD10B554
:1015C0002FA000F021FB36480068401C3449086019
:1015D00010BD0000CC3300002D2D2D2D2D204850A6
:1015E0004D303920496E74657272757074202D2DDE
:1015F0002D2D2D0A0000000000406FB400006FB4D4
:1016000000402FB500002FB500406BB300006BB356
:10161000D03300002D2D2D2D2D2048504D31302060
:10162000496E74657272757074202D2D2D2D2D0AE2
:1016300000000000D43300002D2D2D2D2D2048500A
:101640004D313120496E74657272757074202D2D84
:101650002D2D2D0A00000000D83300002D2D2D2D3A
:101660002D2048504D313220496E7465727275706C
:1016700074202D2D2D2D2D0A00000000DC330000DC
:101680002D2D2D2D2D2048504D313320496E746560
:101690007272757074202D2D2D2D2D0A0000000002
:1016A000E033000010B5FAA000F0AEFA01210220EC
:1016B00001F0BEF8401EFB49096821EA0000F94923
:1016C00008600121022001F0B3F8401EF549496885
:1016D00021EA0000F34948600121022001F0A8F846
:1016E000401EF049096921EA0000EE490861012124
:1016F000022001F09DF8401EEA49096A21EA000033
:10170000E84908620321022001F092F8401EE549F1
:10171000096B21EA0000E34908630121022001F07E
:1017200087F8401EDF49096C21EA0000DD490864A2
:101730000121022001F07CF8401EDA49096D21EAFE
:101740000000D84908650121022001F071F8401E0F
:10175000D449096E21EA0000D2490866012102201D
:1017600001F066F8401ECF49096F21EA0000CD491B
:1017700008670121022001F05BF8401ECA49096890
:1017800021EA0000C749C1F8800010BD10B5C7A00C
:1017900000F03AFA0121022001F04AF8401EC14946
:1017A0000968814341F00100BE490860012102201F
:1017B00001F03EF8401EBB49496821EA0000B949E2
:1017C00048600121022001F033F8401EB549096943
:1017D00021EA0000B34908610121022001F028F844
:1017E000401EB049096A814341F00100AD490862D9
:1017F0000321022001F01CF8401EAA49096B21EACE
:101800000000A84908630121022001F011F8401EE0
:10181000A449096C814341F00100A24908640121F7
:10182000022001F005F8401E9E49096D814341F0F8
:1018300001009C4908650121022000F0F9FF401ECB
:101840009849096E21EA00009649086601210220A4
:1018500000F0EEFF401E9349096F814341F0010003
:10186000904908670121022000F0E2FF401E8E49E6
:10187000096821EA000141F001008A49C1F88000AD
:1018800010BD10B58EA000F0BFF90121022000F0BC
:10189000CFFF401E8349096821EA000081490860A2
:1018A0000121022000F0C4FF401E7E4949688143A7
:1018B00041F001007B4948600121022000F0B8FF9F
:1018C000401E78490969814341F00100754908616A
:1018D0000121022000F0ACFF401E7249096A8143D9
:1018E00041F001006F4908620321022000F0A0FFCF
:1018F000401E6C49096B814341F007006949086348
:101900000121022000F094FF401E6649096C8143CA
:1019100041F00100634908640121022000F088FFC2
:10192000401E6049096D814341F001005D49086531
:101930000121022000F07CFF401E5A49096E8143BC
:1019400041F00100574908660121022000F070FFB4
:10195000401E5449096F814341F001005149086715
:101960000121022000F064FF401E4F49096821EA6E
:10197000000141F001004B49C1F8800010BD10B5D5
:10198000044654A000F040F924B1012C05D0022CEB
:1019900009D105E0FFF775FF09E0FFF7F7FE06E064
:1019A000FFF780FE03E052A000F057F900BF00BF30
:1019B0000121022000F03CFF401E54490968814388
:1019C00041F001005149086010BD10B5FEF7AEFBB3
:1019D00010BD10B50121022000F02AFF401E4C4925
:1019E000096821EA00404B49C1F80002FEF751FCAA
:1019F000FEF79CFBFEF75DFC10BD10B546A000F0A5
:101A000003F90121022000F013FF401E3F49743109
:101A10000968814341F001003C497431086000BF0E
:101A20003A48743000680028FAD110BD70B50446F9
:101A300040A000F0E9F844480568012C0CD125408D
:101A40000DB1012508E040480830006820F0010091
:101A50003D49083108600025284670BD70B5044630
:101A600034A000F0D1F839480568B4F5801F0CD1D6
:101A700025400DB1012508E034480830006820F405
:101A800080103249083108600025284670BD0000EA
:101A900053656E736F7220536C656570204D6F6473
:101AA000650A000000D0054080D0054053656E7384
:101AB0006F722053746F70204D6F64650A000000D0
:101AC00053656E736F722049646C65204D6F646559
:101AD0000A00000053656E736F72204C6F772050C0
:101AE0006F77657220456E61626C650A00000000C8
:101AF0004572726F723A20556E6B6E6F776E205022
:101B00006F776572204D6F64650000000CC605405C
:101B100000C2054000C0054057616B6575702052DA
:101B20006571756573742066726F6D2053656E7391
:101B30006F720A0052657365742053746174757313
:101B400020436865636B0A0004C4054004045C70AC
:101B500010B51AA000F058F80121022000F068FE2C
:101B6000401E1E49096821EA80001C49086000BF28
:101B70001A48006810F0040FFAD119480068401C98
:101B80001749086010BD10B516A000F03DF80121FE
:101B9000022000F04DFE401E1949096821EA0000AC
:101BA0001749086000BF1648006810F0010FFAD10D
:101BB00014480068401C1349086010BD2D2D2D2DC0
:101BC0002D2057616B65757020496E746572727552
:101BD0007074202D2D2D2D2D0A0000002C065C7018
:101BE000E83300002D2D2D2D2D204E4D4920496E1E
:101BF00074657272757074202D2D2D2D2D0A0000C4
:101C000008255C70E433000070B50546284600F0F6
:101C1000DBFD06462548007801281DD1002410E090
:101C2000285D0106601C285C41EA0041A01C285C7C
:101C300041EA0020E11C695C08434FF470610860D0
:101C4000241DF01EA042EBD804E0285D4FF4706123
:101C50000870641CB442F8D370BD70B505462846C0
:101C600000F0B2FD0646002410E0285D0106601C6D
:101C7000285C41EA0041A01C285C41EA0020E11CEC
:101C8000695C08434FF470610860241DF01EA04297
:101C9000EBD804E0285D4FF470610870641CB44216
:101CA000F8D370BD4FF49E4108607047EC330000DC
:101CB00030B503461C6824FA01F505EA020030BD80
:101CC00070B5046802FA01F524EA050502EA030684
:101CD0008E4045EA0604046070BD10B5F9480068FE
:101CE000F9490A884FF0010101FA02F120EA0100E6
:101CF000F649C1F8C4014FF00100FEF7A7FF10BD7F
:101D000010B5F0480068F0490A884FF0010101FA67
:101D100002F140EA0100ED49C1F8C4014FF00100B1
:101D2000FEF794FF10BD10B5E6480068E8490A8840
:101D30004FF0010101FA02F120EA0100E349C1F884
:101D4000C4014FF00100FEF781FF10BD10B5DD4862
:101D50000068DF490A884FF0010101FA02F140EA08
:101D60000100DA49C1F8C4014FF00100FEF76EFF2F
:101D700010BD10B5FFF7D7FFFFF7AFFFFFF7E6FF86
:101D8000FFF7BEFF10BD10B5FFF7E0FFFFF7B8FF8C
:101D9000FFF7A3FF10BD10B5FFF7C5FFCD480068E2
:101DA000C94909884FEA81024FF0010101FA02F1A5
:101DB00020EA0100C549C1F8C001FFF7C7FFC148CB
:101DC0000068C149098840FA01F000F00100C249E9
:101DD0000860C0480068BC4909884FEA81024FF09A
:101DE000010101FA02F140EA0100BA49086010BDA0
:101DF00070B5002607240025B6480068B249098856
:101E00004FEA81024FF0010101FA02F120EA0100DC
:101E1000AE49C1F8C00100BFFFF798FFA9480668A6
:101E2000A948008826FA00F000F0010000FA04F04A
:101E300040EA0505FFF777FF04B902E0601E84B2AF
:101E4000EAE700BFA34800689F4909884FEA81027A
:101E50004FF0010101FA02F140EA01009B49C1F88B
:101E6000C0019848006898490A884FF0010101FABA
:101E700002F140EA01009549C1F8C401FFF766FF8D
:101E80004FF08040456470BD2DE9F04106460027C3
:101E9000701CC000401E84B200258E4800688A492C
:101EA00009884FEA81024FF0010101FA02F120EAAC
:101EB00001008649C1F8C00100BFFFF747FF814814
:101EC00007681F2C0ADD8048008827FA00F000F020
:101ED0000100A4F120018840054307E07A4800880A
:101EE00027FA00F000F00100A0400543FFF71BFFB8
:101EF00004B93FE0601E84B2E11704EB5171C910D0
:101F0000A4EBC10107292ED1724800686E490988E7
:101F10004FEA81024FF0010101FA02F140EA0100AB
:101F20006A49C1F8C0016748006867490A884FF0EC
:101F3000010101FA02F120EA01006449C1F8C4017B
:101F4000FFF704FFFFF7EFFE624800685E4909886B
:101F50004FEA81024FF0010101FA02F120EA01008B
:101F60005A49C1F8C0011F2CA7D14FF080404564E9
:101F70000025A2E700BF57480068534909884FEA87
:101F800081024FF0010101FA02F140EA01004F49DC
:101F9000C1F8C0014B4800684B490A884FF0010165
:101FA00001FA02F140EA01004849C1F8C401FFF713
:101FB000CDFE4FF080408564BDE8F08170B50646E7
:101FC000072400BF46FA04F000F00105FFF7ABFE5E
:101FD000012D02D1FFF794FE01E0FFF77EFEFFF72F
:101FE000B5FE04B902E0601E84B2EBE700BFFFF764
:101FF000D2FE39480068012804D1FFF7BAFEFEF787
:1020000095F801E0FFF78FFE70BD2DE9F041054620
:102010000E461746781CC000401E84B200BF202C1C
:1020200004DA26FA04F000F0010805E0A4F120002B
:1020300025FA00F000F00108FFF775FEB8F1010F76
:1020400002D1FFF75DFE01E0FFF747FEFFF77EFEDE
:1020500004B917E0601E84B2E11704EB5171C91096
:10206000A4EBC1010729DAD1FFF795FE1A480068F1
:10207000012804D1FFF77DFEFEF758F8CFE7FFF700
:1020800052FECCE700BFFFF786FE13480068012828
:1020900004D1FFF76EFEFEF749F801E0FFF743FEBB
:1020A000BDE8F08170B50646072400BF46FA04F08B
:1020B00000F00105FFF737FE012D0FD1FFF720FEDD
:1020C0000EE00000C4014773F033000000004773C6
:1020D000F2330000C00147734C320000FFF7FDFDF2
:1020E000FFF734FE04B902E0601E84B2DEE700BFF1
:1020F000FFF751FEF9480068012804D1FFF739FEC7
:10210000FEF714F801E0FFF70EFE70BD70B504464F
:10211000072500BF44FA05F000F00106FFF703FEB3
:10212000012E02D1FFF7ECFD01E0FFF7D6FDFFF72E
:102130000DFE05B902E0681E85B2EBE700BFFFF7B0
:102140002AFEE6480068012806D104F0FE04FFF7E5
:1021500010FEFDF7EBFF01E0FFF7E5FD70BD70B588
:1021600006460C461546FFF70EFE3046FFF7CEFF3B
:102170002046FFF797FF2846FFF720FFFFF7F9FDFE
:1021800070BD2DE9F04107460C4615461E46DDF8A8
:102190001880FFF7F8FD3846FFF7B8FF2046FFF735
:1021A00081FF424631462846FFF72FFFFFF7E1FD4A
:1021B000BDE8F08170B505460C46FFF7E4FD284602
:1021C000FFF7A4FF2046FFF76DFFFFF799FDFFF72C
:1021D000DAFD45F001052846FFF798FFFFF708FEF6
:1021E000FFF7C7FD70BD70B506460C461546FFF7F4
:1021F000CAFD3046FFF78AFF2046FFF753FFFFF77F
:102200007FFDFFF7C0FD46F001063046FFF77EFF79
:102210002846FFF739FEFFF7ACFD70BD10B5B0489A
:102220000068FEF7FDFCFEF766F8AE48006800287F
:102230006AD001231A461F21AB48FFF741FD012355
:102240001A461E21A848FFF73BFD4FF08040006C66
:1022500040F400504FF080410864A448006828B959
:102260000820FEF7FAFE0120A0490860012108209D
:10227000FEF78BFEF8B100210820FEF779FE9C499D
:102280000860084600689B490968884214D99A4842
:1022900000689A490968401A9949096888421FD21A
:1022A00097480068401E9649086008461A2102684F
:1022B000CC20FFF754FF13E08F4800688F4909686E
:1022C00008448F49096888420AD98D480068401C33
:1022D0008B49086008461A210268CC20FFF73FFFAF
:1022E0004FF08040006C20F400504FF080410864B3
:1022F000002301221F217C48FFF7E2FC002301227A
:102300001E217948FFF7DCFCFDF7F0FF10BD10B58A
:1023100073480068FEF784FCFDF7EDFF794800681C
:1023200000285ED001231A461F216F48FFF7C8FC22
:1023300001231A461E216C48FFF7C2FC7248006850
:10234000002842D07148006828B90420FEF785FEB5
:1023500001206E49086001210420FEF716FEF8B145
:1023600000210420FEF704FE694908600846006861
:1023700068490968884214D967480068674909684C
:10238000401A6749096888421FD265480068401EA4
:1023900063490860084624210268CC20FFF7DFFE6D
:1023A00013E05D4800685D49096808445C490968B4
:1023B00088420AD95A480068401C594908600846B2
:1023C00024210268CC20FFF7CAFE002301221F212E
:1023D0004548FFF775FC002301221E214248FFF704
:1023E0006FFCFDF783FF10BD10B53D480068FEF798
:1023F00017FCFDF780FF4B48006800286AD00123D6
:102400001A461F213848FFF75BFC01231A461E219C
:102410003548FFF755FC4FF08040006C40F4005009
:102420004FF0804108644048006828B90320FEF757
:1024300014FE01203C49086001210320FEF7A5FDA0
:10244000E0B300210320FEF793FD384908600846F9
:10245000006837490968884214D936480068364907
:102460000968401A3549096888421FD23348006814
:10247000401E3249086008461E210268CC20FFF742
:102480006EFE13E02B4800682B49096808442B496D
:10249000096888420AD929480068401C2749086011
:1024A00008461E210268CC20FFF759FE4FF08040FD
:1024B000006C20F400504FF080410864002301229A
:1024C0001F210948FFF7FCFB002301221E210648BB
:1024D000FFF7F6FBFDF70AFF10BD00004C320000CD
:1024E000F83300004C34000040000040503400003D
:1024F000403400003C340000483400000834000040
:10250000443400006434000070340000683400007B
:1025100058340000543400006034000004340000DB
:102520005C340000343400003834000028340000EB
:102530002434000030340000003400002C3400004B
:1025400010B588480068FEF76BFBFDF7D4FE86489F
:10255000006800286AD001231A461F218348FFF72C
:10256000AFFB01231A461E218048FFF7A9FB4FF05D
:102570008040006C40F400504FF0804108647C487B
:10258000006828B90020FEF768FD0120784908603E
:1025900001210020FEF7F9FCE0B300210846FEF718
:1025A000E7FC744908600846006873490968884276
:1025B00014D97248006872490968401A714909685B
:1025C00088421FD26F480068401E6E490860084666
:1025D0001C210268CC20FFF7C2FD13E067480068A9
:1025E0006749096808446749096888420AD9654803
:1025F0000068401C6349086008461C210268CC2022
:10260000FFF7ADFD4FF08040006C20F400504FF01C
:1026100080410864002301221F215448FFF750FB2A
:10262000002301221E215148FFF74AFBFDF75EFE01
:1026300010BD00204C4908605349086053490860A8
:10264000534908605349086001204649086000204A
:102650004B4908605049086050490860504908607B
:10266000434908604F4908604F4908604F49086076
:102670004F49086002204F490860002409E043F2F6
:10268000307050F824004B49096808444A490855FD
:10269000641C182CF3D3002409E043F2987050F81E
:1026A000240044490968084444490855641C142C12
:1026B000F3D3002409E043F2EC7050F824003D49C4
:1026C000096808443E490855641C0B2CF3D30024C8
:1026D00009E043F61C0050F8240036490968084414
:1026E00038490855641C0E2CF3D3002301221F2106
:1026F0001E48FFF7E5FA002301221E211B48FFF7C1
:10270000DFFA00204FF080410864FDF7EFFD4FF045
:102710008040006C40F010004FF08041086420E0E1
:10272000FFF70EFFFFF760FEFFF7F1FDFFF776FD05
:10273000012214210807FFF7BBFA1D490968084266
:1027400005D002201A49086001208107C864114899
:102750000068022805D100200E4908600120810789
:10276000C864DDE7F83300001C340000400000407E
:1027700020340000103400000C3400001834000035
:10278000FC33000014340000343400004C340000EA
:10279000643400007034000000340000083400008D
:1027A0000434000038340000503400006834000065
:1027B000743400007C340000143200002C3200001D
:1027C000403200000632000010B5431C02E010F851
:1027D000011B71B18107FAD14FF0013202C88C1A86
:1027E0008C4314EAC211F9D0C01A0A0603D0C01EE5
:1027F00010BDC01A10BD0A0401D0801E10BD090210
:10280000FCD0401E10BD7047704770470446AFF3C0
:1028100000802046FDF784FC7047000000487047A8
:10282000CC35000001491820ABBEFEE726000200AF
:1028300010B502460120002301E050435B1C8B428F
:10284000FBDB10BD10B5FFF7E9FF4FF000010160A1
:1028500010BD48504D5F473344300048504D5F4DE8
:102860004946300048504D5F41544C300048504D6F
:102870005F495350300048504D5F47334431004862
:10288000504D5F4D4946310048504D5F41544C31E9
:102890000048504D5F473344320048504D5F4D492A
:1028A00046320048504D5F41544C320048504D5F15
:1028B0004D4946330048504D5F4D46430048504D0A
:1028C0005F50455249430048504D5F41504F000012
:1028D000F02800000032000088020000880000009C
:1028E000A829000088340000A0010000E4000000D6
:1028F0004143043C400B24252628262E21323F3F0D
:1029000040152C2B1F1F1F202021221617191C1EBB
:102910002226191F2C2210101E20202223252513C9
:102920001416181A1E2920380B121213111313141F
:1029300014223D37F113817123350C45A3E11103B6
:1029400022072B6428710910182A88180A10081801
:102950002AA31811FA91183AC7186BA874185A02CA
:10296000183A52600910183A76600910183A9148DE
:102970007A6F185A01183A6D18EB8870183A5B187C
:10298000FA98184A7F90F9183A9A18FAB8183AAC97
:1029900018EB2F75183AB518EB6B73183ABD180180
:0829A0004439520191000000CE
:00000001FF
