:10000000000C00202D6B030865940008799400080B
:100010008D940008A1940008B59400080000000029
:10002000000000000000000000000000C99400086B
:10003000DD94000800000000715A00086F77010885
:100040008D6C0308916C0308956C0308E1A400080B
:10005000996C0308F5A600086D9C0008499E0008ED
:10006000639F000851A000089D6C0308A16C030861
:10007000A56C0308A96C0308AD6C0308B16C0308F8
:1000800039A1000855A20008B56C0308B96C030833
:10009000BD6C0308C16C0308C56C0308B1A300085C
:1000A000C96C0308CD6C0308D16C0308D56C030838
:1000B000D96C0308DD6C0308E16C0308E56C0308E8
:1000C000E96C0308ED6C0308F16C0308F594000873
:1000D000F56C0308F96C0308FD6C0308016D030857
:1000E00025A3000809A60008056D0308096D03088B
:1000F0000D6D0308116D0308156D0308196D0308D4
:100100001D6D0308216D0308256D0308296D030883
:100110002D6D0308316D0308356D0308396D030833
:100120003D6D0308416D0308456D0308496D0308E3
:100130004D6D0308516D0308556D0308596D030893
:100140005D6D0308616D0308656D0308696D030843
:100150006D6D0308716D0308756D0308796D0308F3
:100160007D6D0308816D0308856D0308896D0308A3
:100170008D6D0308916D0308956D0308996D030853
:100180009D6D0308A16D0308DFF8140D007870471A
:100190002DE9F04397B002F027FE0446DFF8040D86
:1001A000856BDFF8046D376813E098F81910D8F8FC
:1001B0001000D8F804208018D7F8A420526990477E
:1001C000002802D0384602F041FF384600F057F8C8
:1001D0003F68B7423CD097F908000728F8D00B28B1
:1001E00007DB182805D00E2803D00F2801D01028CF
:1001F000EED10628ECD007F10808D8F860000028F6
:1002000004D5D4F880100818C8F860004FF0FF310A
:100210003846D7F8A820926990478146B9F1010F76
:1002200005D198F86400D7F8A41009698847B9F196
:10023000020FCAD197F908000128B6D1687A0028C0
:10024000B3D0A87F0128B0D1384602F0FFFEBCE74A
:10025000D4E91C01002901D100280CD00A208DF816
:10026000020002208DF80000D4F88000ADF858009C
:1002700000A803F06BFD012017B0BDE8F0832DE965
:10028000F0418EB0044601A8342103F0B5FE0021F0
:100290002046D4F8A82092699047022846D104F15C
:1002A0000C050120A87494F89F0000283ED0DFF8C8
:1002B000FC6B4CF250303168471A00200090204609
:1002C00000F092F80090012204F1080101A803F067
:1002D00096FE6A7DE868E16841180DF1050003F0BB
:1002E0008EFE042200A9687D01ABC018401C03F0FB
:1002F00086FEDFF8BC8B30684044697D491D8F4223
:100300000CD23A4601A903F07AFE687D401DC21B5B
:1003100001A83918404603F072FE04E0A97D4A1C8A
:1003200001A903F06CFE204600F0EEF80121204602
:10033000D4F8A82092699047022802D1204602F002
:1003400097FF0EB0BDE8F08130B585B004460D468C
:10035000CA208DF800002888ADF801000220ADF811
:100360000300BDF80100001D03F050FECDF80900A8
:1003700002220DF1030103F042FE02222946DDF8BC
:100380000900801C03F03BFE2A882146DDF80900A5
:10039000001D03F034FE0020288000A9DFF8140BB4
:1003A00003F05CFE05B030BD42F23411081A322869
:1003B00001DA012070470020704780B503F089FE04
:1003C000407B002804D002F01BFDDFF8EC1A086027
:1003D00001BD80B502F014FDDFF8E01A086001BD30
:1003E000DFF8D80A0068704710B582B000F10C033E
:1003F000D96A89680091042200A95C7DDB68C06825
:100400001818201803F0FBFD009816BD30B41488AE
:10041000651C1580052565541488651C158063547A
:1004200013885C1C1480007A585430BC704732B575
:1004300015461C4621884A1C228037224A552188AD
:100440004A1C2280007A4855022200A920884019BF
:1004500003F0D5FD2088801C208031BD2DE9F041BE
:10046000054616461F4605F10808069CA4B298F8F2
:100470001A0004FB00F2D8F8040009183888801923
:1004800003F0BDFD388898F81A10614311FA80F026
:1004900038803888FFF788FF002803D03946304677
:1004A000FFF752FF95F9080016280AD1D8F8100076
:1004B000D8F80410415C0FF21000BDE8F04103F0E1
:1004C0008CBEBDE8F08100002323205368616B657A
:1004D0002025640030B400F110039B7C914203D1CD
:1004E000006990FBF3F00DE00C46154603D2281B83
:1004F00090FBF3F006E00069001B90FBF3F095FB26
:10050000F3F1081830BC7047F8B5044603F0E1FD7C
:1005100004F110018A7C134694F89F50002D1BD0E3
:100520005B1CDFF8884925684CF25036771B9F42E8
:1005300005D2DFF88C399A185219226001E05A1955
:1005400022602268B24201D100222260807B002812
:100550000CD100208873F1BD886818188860226962
:10056000904201D10020886000208873F1BD70B5F1
:1005700082B004460D461E4692B289B2FFF7AAFF2A
:1005800080B20090069B324629462046FFF766FF60
:1005900073BDF8B5044615461E462269002D00D1EC
:1005A0001546069F0097FFF7E2FF2069854206DAAD
:1005B000009733462A4600212046FFF7D8FFF1BDB9
:1005C0002DE9F04184B004460F469046A169606968
:1005D000002817D500250A4692B289B22046FFF7B7
:1005E00079FF064643463A46314689B22046FFF730
:1005F0001EFFA269CDF800803B4611462046FFF75A
:10060000C8FF36E0814218DA01250A4692B2014657
:1006100089B22046FFF75EFF064643463A4631461A
:1006200089B22046FFF703FFCDF800803B46A26960
:1006300061692046FFF7ADFF1BE00225884201D12A
:10064000012607E00A4692B2014689B22046FFF72A
:1006500041FF064643463A46314689B22046FFF7F7
:10066000E6FECDF800803B46A26961692046FFF7AF
:100670007EFFA06B80680290A06901906069009085
:100680002B46B6B2324694F908100FF20C0003F074
:10069000A4FDBDE8FF8100005061636B203D25642F
:1006A00020256420256420256420256420256400FD
:1006B000DFF8F8070168DFF80C0802688A4201D207
:1006C000881A03E04CF25030801A0818914205D184
:1006D000DFF8F4170978002900D100207047F8B539
:1006E00004460E46174604F10805A86D012811DAE4
:1006F000A87D012832D13B46324601212046FFF732
:1007000096FE012000903B46324629692046FFF7BD
:10071000A5FE23E094F89F00002804D0217A012050
:1007200000F0B0F820E0A868A97E884216D02A69B7
:10073000E968914206D092B289B22046FFF7CAFE1C
:10074000022806D2E8682969884207D1E86D0128A5
:1007500004DA3A4631462046FFF732FF01233A4693
:1007600031462046FFF752FE0020E8602861AB6D5D
:10077000EA6D94F908100FF20C0003F02EFDA86D3D
:10078000E865F1BD666C75736820256420256420DA
:1007900025640000DFF81007016806E091F89F204B
:1007A000002A01D00A6E4A6609688142F6D1704774
:1007B00010B5DFF8F806026842F21070B2FBF0F1F3
:1007C000DFF8080750F82100831A1F2B08D2DFF842
:1007D000000740F821200FF2580003F0FEFC12E061
:1007E000101A00F51C5010301F280CD201290ADB0A
:1007F000DFF8DC0600EB810040F8042C491E0FF204
:10080000440003F0EAFCDFF8C046207800280DD150
:10081000FFF74EFF4AF6C871884207D301202070C7
:100820000FF23400BDE8104003F0D7BC10BD00004B
:1008300042696720496E646578203D2025642C2537
:100840006400000042696720496E64657832203D8B
:100850002025642C25640000426967206275666665
:1008600065722069732066756C6C0000DFF83C06C9
:10087000006842F21071B0FBF1F0401C052800D175
:10088000002070472DE9F04182B0DFF82456DFF8F0
:100890001C46002829D00020ADF8000020684CF24A
:1008A0005036371AC8228DF800208DF801104019F3
:1008B000022F0ED23A4600A903F0A1FBC7F10208AD
:1008C000424600A83918284603F099FBC4F8008076
:1008D00006E0022200A903F092FB2068801C206041
:1008E0002068B04201D100202060FFF7E1FE0246FF
:1008F000DFF8D06530684119022001F054F9FFF7A4
:10090000D7FE2368326801460FF2140003F065FC3D
:10091000DFF8C0053168016020683060BDE8F38110
:1009200048494649206261746368204C656E203DE9
:100930002025642C2025642C20256400DFF86C051C
:100940000168DFF8800501600FF2040003F045BC88
:10095000486966692052657365742025640000004B
:100960000020DFF844150A6805E092F89F30002B5C
:1009700000D0401C12688A42F7D1C0B2704710B54F
:10098000DFF84445207800280FD0FFF76FFFDFF82D
:10099000401551F82020DFF82C150A600021217045
:1009A00001460FF26C0003F018FCFFF781FE0028EF
:1009B00003D000210846FFF765FFDFF8EC0401686B
:1009C00008E091F89F20002A03D001F160020B6E2D
:1009D00053600968814211D001F29F025378002BC5
:1009E000F7D09378002BECD0002393701A4681F84F
:1009F0009F200A6601F160025360EAE7FFF7CAFE32
:100A000014220021DFF8C804BDE8104004F0B4B897
:100A1000484946492057616B65203D2025642C20BC
:100A2000256400002DE9F04182B004460D461646CB
:100A300003F04FFB04F10807D7F85C8002F0D4F90B
:100A4000D0F88000A8EB0000F865B87D00284AD0F7
:100A500094F89F00012809D1FFF7AAFE0020B8757D
:100A6000F86D01283FDAB86DF8653CE0B87E396969
:100A7000FA68531A834205D0002A30D1BA68511A55
:100A800081422CD194F90820397E0FF2600003F0E6
:100A9000A4FB397E00291FD094F908200FF26400CE
:100AA00003F09BFB3869B97E421892B2F96889B2AB
:100AB0002046FFF70FFD33462A46014689B22046FD
:100AC000FFF7B5FC00962B463869B97E4218F968E5
:100AD0002046FFF75EFD02E04FF0FF30F860204651
:100AE000BDE8F64110E5BDE8F38100007375737051
:100AF000656E64206669666F2066756C6C2025647F
:100B00002025640073757370656E64206669666F76
:100B10002066756C6C20322025642025640000005E
:100B20002DE9F04104460D46164603F0D2FA04F1D1
:100B30000807D7F85C8002F057F9D0F88000A8EBDE
:100B40000000F86594F89F00002809D0F86D01288E
:100B500057DAFFF71FFE00210846BDE8F04191E695
:100B6000F86810F1010F0DD1B87D002802D02046A1
:100B7000FFF7CAFC324629462046FFF721FD3869B7
:100B8000F8603EE0F86D012834DAB86DF865386B2E
:100B9000D0F80C8094F908308268B96D0FF26800C3
:100BA00003F01BFBB868B97E90FBF1F0B96D91FBC7
:100BB000F8F1814202DB4FF0FF30F860B87D002889
:100BC0000AD02046FFF7A0FC324629462046FFF710
:100BD000F7FC3869F86014E0386E002811D420461C
:100BE000FFF702FC324629462046FFF7E9FC386948
:100BF000F86006E0B87D002803D02046BDE8F0414B
:100C000082E4BDE8F08100006669666F2066756C5D
:100C10006C3320256420256420256400F8B5044643
:100C20000D46164603F055FA074602F0DDF8B87B8C
:100C3000002805D0324629462046BDE8F840F1E6B6
:100C4000B87B002805D1324629462046BDE8F84049
:100C500066E7F1BDF8B505460E46174603F039FACA
:100C600005F10804A17D00295BD095F90810807A70
:100C7000002837D0072905D00D2903D01A2901D023
:100C80001B291AD13B46324601212846FFF7CFFBEC
:100C9000012000903B46324621692846FFF7DEFBE3
:100CA000627895F908100FF27C0003F096FA284656
:100CB000FFF72AFC2069E060F1BD05F28A00817D22
:100CC000002909D0018B226BD2685143A165E165EF
:100CD0000121C1754175F1BD2846FFF715FC20695A
:100CE000E060F1BD092909D195F88A10012905D1E3
:100CF0000FF24000BDE8F44003F06FBA3B463246C5
:100D000001212846FFF793FB012000903B46324625
:100D100021692846FFF7A2FB2846FFF7F5FB20696B
:100D2000E060F1BD41502053757320256420256497
:100D300000000000233E6C75785F736174202564A9
:100D40000000000070B504460D461646A07F00283E
:100D500006D094F89F00002802D12046FFF744FBFC
:100D6000206E012832462946204602DBBDE870404D
:100D700054E7BDE870406DE7F8B504460D464948B4
:100D8000466896F88B0001281DD1002086F88B005C
:100D90002888411C2980082101550020ADF8000059
:100DA00007460EE006EB8700806FADF800000222D8
:100DB00000A92888001903F022F92888801C2880BF
:100DC0007F1C032FEEDBF1BD38B504460D4603F062
:100DD00080F9C17B01290CD10021C1732888411CF5
:100DE0002980452101550FF20C00BDE8324003F087
:100DF000F4B931BD4779722046697273742043613A
:100E00006C000000F8B504460D46FFF7B5FF294613
:100E10002046FFF7D9FF244E376805E02A462146D1
:100E20003846FFF78FFF3F68B742F7D1F1BD2DE994
:100E3000F04104460D461B4EF76907F10C0898F87F
:100E40001510D8F80C00FA688018D7F8A420526959
:100E5000904700280AD0012088F81200787A0028EC
:100E600004D02A4621463846FFF76CFFB66906F1E2
:100E70000C07797DF868F2688018D6F8A4205269CA
:100E80009047002809D00120B874707A002804D057
:100E90002A4621463046FFF755FF0120BDE8F08184
:100EA000AFF0012098DB0120B85B0020344800201F
:100EB00098670020043E012038F001203CF001201A
:100EC000B13CFFFF30480020084800203C3B012097
:100ED000E82A0120384800200288D21C02800A80BB
:100EE000704780B50B889B1AADF80030BDF8003014
:100EF000002B09D01018012100F8031C022200A9C0
:100F0000801E03F07CF801BD0888C01E088001BD6A
:100F10002DE9F04FADF68C2D04460D4601F064FF2F
:100F2000064603F0D6F8804610A840F6482103F0A4
:100F300063F800208DF8020006A8282103F05CF871
:100F400001A8142103F058F80020ADF8000007466E
:100F5000D6E91C01002902D1002800F0838598F908
:100F6000090004F0D6FA002800F07C8500A9284684
:100F7000FFF7B2FFB8461CE0D6E91C01424604F078
:100F80003FFD00F0010011F0000101D100280ED05A
:100F9000C8EB0810DFF8BC1B01EB800292F90300DC
:100FA000012804D10DF1020110A8526B904708F1FD
:100FB0000108B8F1410FDFDBBA461BE029884A1C63
:100FC0002A80807808552888FFF7EEF900280DD090
:100FD000BDF8002029462046FFF783FF294620461A
:100FE000FFF7B2F900A92846FFF776FF0AF1010AD8
:100FF0004FFA8AFA9DF80200824580F22B852988F3
:10100000481C288040F2491010FB0AF010AA825CAC
:101010000A5529884A1C2A8010AA86187078085513
:101020002988481C2880701C42780A554178032979
:101030002AD0092900F09D810C2900F078811A2915
:1010400000F094821B2900F0A7811C2900F0BE82C9
:101050001D2900F0B1811E2900F0A982262900F087
:10106000E1822C2900F00D832F2900F0EA8230293B
:1010700000F06183312900F03584342900F0898340
:101080003B2900F0908499E77178032904D12988DD
:101090004A1C2A8082780A5529884A1C2A80C278EC
:1010A0000A55C178C0290FD106F22708B8F82E20BA
:1010B000D8F830102888001902F0A1FF2888B8F865
:1010C0002E10081828807EE70846E0284AD106F24C
:1010D0000506002035E056F820100A0222F0FF1223
:1010E000090A01F0FF11114346F820104FEA31417F
:1010F00046F8201006EB80014A68130223F0FF1324
:10110000120A02F0FF121A434A604FEA32424A6062
:101110008A68130223F0FF13120A02F0FF121A4327
:101120008A604FEA32428A60CA68130223F0FF13D2
:10113000120A02F0FF121A43CA604FEA3242CA6032
:10114000001D1428C7DB50210FF6201003F045F8CE
:10115000502231462888001902F051FF288850306B
:10116000288030E7791C000647D401A8321D527848
:101170003A54C9B2B2790A54491CC9B200220A547D
:101180004A1C06F20601D2B24B781354521CF38962
:10119000D2B21F0A1754521CD2B21354521C06F278
:1011A0000E03D2B29F781754521CD2B2DB7813547C
:1011B000521CD2B2B37C1354521CD2B2F37C1354DF
:1011C000521CD2B28B781354521CD2B2C97811542B
:1011D000511CC9B2B27A0A54491CC9B2F27A0A54F3
:1011E0004F1CFFB23A4601A92888001902F007FFF8
:1011F000288850FA87F02880E5E6D6F8052006A86A
:10120000130C3B54C9B2130A0B54491CC9B20A54FB
:10121000491CD6F80920C9B2130C0B54491CC9B299
:10122000130A0B54491CC9B20A54491CD6F80D20A4
:10123000C9B2130C0B54491CC9B2130A0B54491CF4
:10124000C9B20A54491CD6F81120C9B2130C0B5468
:10125000491CC9B2130A0B54491CC9B20A54491C8F
:10126000D6F82720C9B2130C0B54491CC9B2130A73
:101270000B54491CC9B20A54491C06F22708C9B2CA
:1012800098F804200A54491CC9B298F805200A5459
:10129000491CB8F80620C9B2130A0B54491CC9B23C
:1012A0000A54491CC9B298F808200A54491CD6F8B7
:1012B0001520C9B2130C0B54491CC9B2130A0B54A4
:1012C000491CC9B20A54491CD6F81920C9B2130CDA
:1012D0000B54491CC9B2130A0B54491CC9B20A5415
:1012E000491CD6F81D20C9B2130C0B54491CC9B2B5
:1012F000130A0B54491CC9B20A54491CD6F82120C0
:10130000C9B2130C0B54491CC9B2130A0B54491C23
:10131000C9B20A544F1CFFB23A4606A928880019E0
:1013200002F06DFE288850FA87F028804BE6F11C09
:10133000B1F90300C0F3072242EA0020A1F803003C
:10134000B1F90700C0F3072242EA0020A1F8070024
:10135000B1F90500C0F3072242EA0020A1F8050018
:1013600009222888001902F04AFE288809302880BE
:1013700029E629880B467278032A08D10222F11C3B
:10138000181902F03CFE2888801C28801BE6491CA6
:1013900029808078185516E629884A1C2A8080788A
:1013A0000855707805287FF40EAE2888411C2980E6
:1013B000311D4978015506E606F1030870780128C9
:1013C00040F0C4802888411C298098F804100155F9
:1013D0004FF00009A1E0C9EB491000EB080BDBF866
:1013E0001800010221F0FF11000A00F0FF1008436D
:1013F000CBF818004FEA3040CBF8180004220BF16C
:1014000018012888001902F0FAFD2888001D28809C
:10141000DBF80800010221F0FF11001200F0FF10BC
:101420000843CBF80800C0F30F4141EA0040CBF875
:10143000080004220BF108012888001902F0DFFDE2
:101440002888001D2880DBF80C00010221F0FF1124
:10145000001200F0FF100843CBF80C00C0F30F415E
:1014600041EA0040CBF80C0004220BF10C01288863
:10147000001902F0C4FD2888001D2880DBF8100048
:10148000010221F0FF11001200F0FF100843CBF819
:101490001000C0F30F4141EA0040CBF810000422D5
:1014A0000BF110012888001902F0A9FD2888001D01
:1014B0002880DBF81C00010221F0FF11000A00F077
:1014C000FF100843CBF81C004FEA3040CBF81C005B
:1014D00004220BF11C012888001902F090FD2888D5
:1014E000001D2880BBF81600010A41EA0020ABF875
:1014F000160002220BF116012888001902F07FFD68
:101500002888801C2880411C298080B2DBF82010AC
:10151000015509F101095FFA89F998F8040081453C
:10152000FFF659AFB6F84321D6F8451128880019BF
:1015300002F065FD2888B6F8431108182880B6F82F
:1015400043110FF2385002F048FE3CE505287FF4C5
:101550003AAD2888411C298098F802100155288846
:10156000411C298098F8031001552CE5F11C707876
:10157000032804D12888421C2A80B27A0255D1F867
:101580000100020222F0FF12000A00F0FF101043D7
:10159000C1F801004FEA3040C1F801000722288855
:1015A000001902F02CFD2888C01D28800BE5F11CD5
:1015B0000888020A42EA00200880022228880019CE
:1015C00002F01DFD2888801C2880FCE4F11C727844
:1015D000012A7FF4F8AC8078012815D12888421CB4
:1015E0002A8009780155B288D6F806102888001993
:1015F00002F005FD2888B18808182880B1880FF20C
:10160000904002F0EAFDDEE402287FF4DCAC28889A
:10161000421C2A800A7802552888421C2A80C979EF
:101620000155D0E4F11C0888020A42EA0020088033
:1016300002222888001902F0E2FC2888801C2880F9
:10164000C1E4F01C29884A1C2A8001220A552988F5
:101650004A1C2A8005220A5529884A1C2A80C12250
:101660000A5529884A1C2A8042790A5529884A1C29
:101670002A8042780A5529884A1C2A808078085591
:10168000A1E4F61C29880B463078020727D5481CB0
:101690002880307818552888411C2980317A0155D6
:1016A0002888411C2980717A0155D6F80A00010268
:1016B00021F0FF11000A00F0FF100843C6F80A00ED
:1016C0004FEA3040C6F80A00042206F10A012888D1
:1016D000001902F094FC2888001D288073E440075C
:1016E0001ED5481C2880307818552888411C298030
:1016F000717801557068010221F0FF11000A00F0B5
:10170000FF10084370604FEA304070600422311DC2
:101710002888001902F073FC2888001D288052E4F4
:101720007288D6F80E10181902F069FC28887188A2
:101730000818288047E4F61C3068010221F0FF11E8
:10174000001200F0FF1008433060011441EA00402D
:101750003060042231462888001902F050FC2888A5
:10176000001D28807068010221F0FF11001200F0B6
:10177000FF1008437060011441EA004070600422C9
:10178000311D2888001902F03AFC2888001D2880A5
:1017900019E4F61C3068010221F0FF11001200F07C
:1017A000FF1008433060011441EA00403060042219
:1017B00031462888001902F022FC2888001D288064
:1017C0007068010221F0FF11001200F0FF100843C1
:1017D0007060011441EA004070600422311D2888C5
:1017E000001902F00CFC2888001D2880B068010256
:1017F00021F0FF11001200F0FF100843B060011447
:1018000041EA0040B060042206F10801288800196E
:1018100002F0F5FB2888001D2880F2683369F06823
:1018200031691B0243EA1263120222F0FF1223F015
:10183000FF13000A40EA0160090A00F0FF1001F0FE
:10184000FF0110431943F0603161D6F80C80D6F8DF
:101850001090F06831694FEA094949EA1849DFF800
:101860003027134602EA084209EA03039046000CB7
:1018700040EA01404FF6FF7210404246104353EADF
:101880001141F0603161F2683369F06831691346E3
:10189000084600211943F0603161F068316908227F
:1018A00006F10C012888001902F0A9FB28880830ED
:1018B00028807069010221F0FF11001200F0FF1072
:1018C00008437061011441EA00407061042206F18E
:1018D00014012888001902F092FB2888001D288036
:1018E000FFF771BBF61C3068010221F0FF110012F6
:1018F00000F0FF1008433060C0F30F4141EA0040A0
:101900003060042231462888001902F078FB2888CC
:10191000001D28807068010221F0FF11001200F004
:10192000FF1008437060C0F30F4141EA004070604F
:101930000422311D2888001902F061FB2888001D4F
:101940002880B068010221F0FF11001200F0FF10A2
:101950000843B060C0F30F4141EA0040B060042288
:1019600006F108012888001902F049FB2888001DAB
:101970002880F068010221F0FF11001200F0FF1032
:101980000843F060C0F30F4141EA0040F0600422D8
:1019900006F10C012888001902F031FB2888001D8F
:1019A0002880FFF710BBF61C2888411C298031785D
:1019B0000155D6F80100010221F0FF11001200F0DC
:1019C000FF100843C6F80100C0F30F4141EA004090
:1019D000C6F801000422711C2888001902F00FFBD0
:1019E0002888001D2880D6F80500010221F0FF118B
:1019F000001200F0FF100843C6F80500C0F30F41C5
:101A000041EA0040C6F805000422711D288800192B
:101A100002F0F5FA2888001D2880D6F80900010296
:101A200021F0FF11001200F0FF100843C6F8090072
:101A3000C0F30F4141EA0040C6F80900042206F154
:101A400009012888001902F0DAFA2888001D288088
:101A5000FFF7B9BABDF8002029462046FFF741FA42
:101A600003F085FD0DF68C2DBDE8F08F504420531A
:101A7000462053656E742564000000004F4A483AC2
:101A800020415442442073697A653A20256400005D
:101A90004F4A483A20415044522073697A653A20AF
:101AA000256400002DE9F04105460E4602F011FBC9
:101AB0000746DFF8E0442078401C20706078F02171
:101AC000084202D0992003F0C1FF04F02CF860789E
:101AD000401C607097F81880B8F1000F27D030884C
:101AE000404480B2FEF760FC002803D0314628460F
:101AF000FEF72AFC3088411C318003214155308893
:101B0000411C318000F80580424607F119013088F8
:101B1000401902F074FA3088404430804FF4FA7271
:101B2000002107F1190003F027F8002038766078CB
:101B3000F021084202D0992003F088FF6078401E0F
:101B40006070C0B2002801D103F0E7FFBDE8F041AA
:101B500004F013BAAC80012038B504460D4602F0FB
:101B6000B8FA817A002909D1417B002906D1298858
:101B70004A1C2A8006220A550121417331BD38B51D
:101B800004460D46288800280CD02046FFF78AFF1F
:101B900029462046FFF7E0FF29462046BDE83440AD
:101BA000FEF7D2BB31BD14B585B0049101A9002266
:101BB000134614461CC10A21ADF8001004218DF80B
:101BC00004108DF805000A4605A90DF1060002F083
:101BD00016FA042204A90DF10A0002F010FA059881
:101BE000002803D000A901A8FEF7AEFB06B010BD87
:101BF00080B502F06EFA4FF4967102F0BDFC07203A
:101C00008DF802000120ADF8000000A90DF10200DE
:101C1000FEF79AFB01BD00B597B000A85C2102F069
:101C2000EBF90020ADF858000DF101000B214170D7
:101C300000218170C17008468DF800003F208DF8AA
:101C4000010000A802F082F80FF2080002F0C5FAC5
:101C500017B000BD537461727420466972737420AA
:101C600063616C0000B597B000A85C2102F0C4F974
:101C70000020ADF858000DF101000B21417000214A
:101C80008170C17001208DF800003F208DF80100A7
:101C900000A802F05BF80FF20C0002F09EFA17B0F9
:101CA00000BD0000456E6420466972737420636154
:101CB0006C0000002DE9F04383B005460F469046C6
:101CC00002F007FA81460026D5F80900041D28789D
:101CD0000146012900F08B800F293AD0352946D0E2
:101CE00036293BD039294BD0402952D0802900F0E9
:101CF000CB80812900F0D280822900F0CF80852915
:101D000000F0CC80862900F0C980882900F0C680C8
:101D10008A2900F0CB808B2900F0E6808C2900F026
:101D2000F2808D2900F0FE80DD2900F00881DF2996
:101D300000F01C81F02931D0F42942D0F6294BD093
:101D4000F82900F08A80F92956D0FF2900F0EF80A9
:101D5000A1E099F81600207001209DE004F08DFEAE
:101D600015220146204602F04AF9012094E00120A4
:101D700006F02BFE304606F02DFE012020708BE091
:101D80000FF22C2002F029FA07F015F9207001203B
:101D900082E0204606F0BEF801207DE004227E4964
:101DA000204602F02CF908F04BF8002804D109F085
:101DB00043F9012008F040F801200AF0C7F801209B
:101DC0006AE0484602F09DFB042209F1100120461A
:101DD00002F015F901205FE00322214630466F4BE7
:101DE0009B68D3F8A4301B6A9847012054E0204632
:101DF0000AF064FA01204FE0B5F80300C008D5F8F6
:101E000005204FF4FA6111FB0021654E654800681A
:101E1000801982421BD106F543405030814201D3E4
:101E2000614A5118471AB5F8012097420BDA3A4631
:101E3000204602F0E4F8B5F80100C21B314638191B
:101E400002F0DDF890E0204602F0D9F88CE0B5F819
:101E50000120204602F0D3F886E03046ADF80400B9
:101E600001206979012900D1032009F01CFB09F048
:101E700055FBADF8040009F068FB022201A92046D9
:101E800002F0BDF8012007E0D5F8050020702146DA
:101E9000304601F0B0FA3046BDE8FE83314621708D
:101EA000214600F07F0001F0A6FAF4E7012020703F
:101EB0003A4845683746287F002801D13046EBE78D
:101EC000687A002804D1D5F8A40040688047074606
:101ED0002046D5F8A410C9698847002FDBD0D5F873
:101EE000A40080688047D6E70120B5F80310C1F34D
:101EF000C101091D884040F00200207021460120E8
:101F000001F079FAC7E799F80000207099F803000A
:101F1000607099F80500A07099F80600E070012043
:101F20002071B9E720460AF0DDF90646B3E704F16F
:101F30000802211D20460AF0A9F80120ACE76879C3
:101F4000164951F82050687A00280BD0424639468D
:101F50002846FEF7C4FB154908200AF085FA01203F
:101F6000207001E030462070012095E768790B4928
:101F700051F82050286995F8221090FBF1F0401E8E
:101F80000090042200A9204602F039F8012083E7DE
:101F90000000FFFF683A0120C43B012098DB0120CC
:101FA0009867002038480020B03CFFFF6C75012086
:101FB000233E49525F524553554C54002DE9F041A0
:101FC000B4B0064602F085F8054600F00DFFD6F8DD
:101FD00009100C1D3178002201924FF0FF32189247
:101FE00017460A46312A00F06481322A00F06B81DC
:101FF000332A00F07781342A00F07E81372A73D0AB
:10200000382A00F03581432A00F09A86442A00F0ED
:102010009C86A12A00F08C81A22A00F0D881A42AF3
:1020200000F0E381A52A7BD0A62A00F07F80B12AA8
:1020300000F04884B22A00F01F86B82A00F0F08130
:10204000C12A00F01182CD2A00F09780CE2A00F03C
:10205000AC80D02A2FD0D12A27D0D22A30D0D32A70
:1020600034D0D42A39D0D62A4AD0D72A48D0D82A30
:102070004ED0D92A4CD0EC2A71D0F12A5CD0F22A69
:1020800000F0AC80F52A00F0C780F72A00F0DC8071
:10209000FA2A00F03F86FB2A00F03F86FD2A00F076
:1020A000C780FE2A00F04386DEE00021284602F0C9
:1020B00070FA0120D9E0002009F048FF0120D4E0A7
:1020C0000121284602F065FA0120CEE00020A87226
:1020D000A873FEF754FC0120C7E00120A87200207D
:1020E00068730120A873C0E0002221461046DFF883
:1020F000643C1B68D3F8A4301B6A98470120B4E005
:10210000D62901D1012000E00020E8720120ACE0D6
:10211000D92901D1012000E0002028730120A4E08A
:10212000D6F809000AF025FA01209EE0D6F8090049
:102130000AF054FB012098E000210CE00A180B5D26
:1021400082F88430022905D10A5D80F887200A5D73
:1021500080F88820491C0329F0DB012085E02378E2
:1021600040F63C02DFF8F01BDFF8F00B02F035F828
:10217000207806F007FA012077E0002511E0DFF86B
:10218000D40B466806EB8506022204EB450106F1F6
:10219000780001F034FFB16FDFF8C40B02F01DF8D6
:1021A0006D1C032DEBDB01205FE0002512E0DFF862
:1021B000A40B066806EB4506022204EB450106F176
:1021C000700001F01CFFB6F97010DFF8980B02F0F8
:1021D00004F86D1C032DEADB012046E0297C09068A
:1021E00001D4012041E02178627812EB0121A0F8AE
:1021F0008A10A178E27812EB0121A0F88C1004215A
:102200002046DFF8502BD269D2F8A420926990477B
:10221000002829D0012028E0032221460120DFF8F0
:10222000343B9B68D3F8A4301B6A984701201CE01C
:102230001B2221460720DFF81C3B9B68D3F8A43003
:102240001B6A9847012010E0DFF8080B8669D6F872
:10225000A40080688047002806D00122214605207E
:10226000D6F8A4301B6A9847002034B0BDE8F0814E
:1022700006F053FD002808D1DFF8EC0A01F0ADFFAD
:10228000002007F00CF80020EFE7B6F90110204617
:1022900006F077FD002808D1DFF8D00A01F09DFF95
:1022A000002006F0FCFF0020DFE7012006F0F7FF2A
:1022B000DAE706F094FB012801D10120D5E720469A
:1022C00006F00AFBD0E706F08AFB012801D10120C5
:1022D000CBE7204606F02DFB20780028C4D006F07E
:1022E0005BFBC1E706F07BFB012801D10120BCE7C5
:1022F000207806F059FBB7E706F071FB012801D101
:102300000120B2E7DFF8680A01F067FF002006F05D
:102310005CFB012006F03AFA04F055FD012006F0BE
:1023200059FB207806F05FFB06F09AFA01209CE743
:1023300094F900500422611C01A801F060FEB6F877
:102340000100062806DB0422611D18A801F057FED3
:1023500094F909702846DFF8FC19042802D10A69AB
:102360000023937251F8206000F03EFDD0E91C2359
:10237000C2F3401800F038FDD0E91C23C2F38020DE
:10238000804400F031FDD0E91C23C2F3800000EB53
:10239000080296F90800072804D1717A002901D0B3
:1023A000002A04D0182809D1707A002806D0717A42
:1023B000DFF8C00901F011FF012056E70097189BD4
:1023C00000220199284601F0B3F820704CE794F9F7
:1023D00000500422611C01A801F011FE00231A46DE
:1023E0000199284601F006F93FE794F900500422CC
:1023F000611C01A801F003FEB6F80100062806DB07
:102400000422611D18A801F0FAFD94F909700097E3
:10241000189B00220199284601F04EF9207023E70D
:1024200020780146032906D01A2912D02C2910D071
:102430003A290ED011E060780DF1090250700128A0
:1024400005D1A0788DF80B00204601F01FFC01207B
:102450000BE7204601F01AFCF9E794F9011040B2AD
:102460000020C046C0B200E720780146491E51D086
:102470000D390DD0C91E55D0491E032921D9091F78
:1024800000F0A680491E00F0EB8019393AD001E235
:102490000E208DF8080060780DF109025070A178C7
:1024A0008DF80B10E2780DF10B035A700023ADF894
:1024B0000D3052B249B240B202F0BCF801F0E4FB78
:1024C000E8E18DF808000146122903D10DF1090059
:1024D00062784270132902D160788DF80B001429BC
:1024E00003D10DF10B0062784270152903D10DF173
:1024F00009006178417062782178DFF87C0801F08A
:102500006CFEC7E130208DF808000DF109006178FC
:102510004170BFE101208DF808000DF10B006178DA
:102520004170B7E10DF1090061784170A0788DF834
:102530000B000DF10B00E178417020798DF80D0052
:10254000002802D001281FD030E06079A179090469
:1025500001EB0060E17900EB0120217A4018CDF811
:102560000E000DF10E06607AA17A11EB0020B0800A
:10257000E07A217B11EB0020F080607BA17B11EBE6
:102580000020ADF8160011E06079A17911EB002070
:10259000ADF80E000DF10E06E079217A11EB002066
:1025A0007080607AA17A11EB0020B08019A80DF13B
:1025B0000A010E220AF0E8FA19A80FC802F05DF924
:1025C00002F0C2F9012840F0658101F0A7FB61E14A
:1025D0006078A178090401EB0060E17800EB01204C
:1025E00021794018CDF80A006079A179090401EB3E
:1025F0000060E17900EB0120217A4018CDF80E004F
:10260000607AA17A090401EB0060E17A00EB012015
:10261000217B40180DF10E014860607BADF816007B
:102620000DF11700A17B4170E17B8170217CC170AD
:10263000617C0171A07CE17C11EB002000B20146BD
:10264000ADF81C1007A9227D00EB0220627D8018E6
:102650004880A07D08710DF10A0002F097F919E198
:1026600060788DF809001D283ED10DF10E06A17885
:102670007171A17801290DD1E178227912EB012144
:10268000ADF80A1089B20A460146DFF8F00601F0FB
:10269000A4FDFFE002290BD1E078217911EB0021A4
:1026A000ADF80C1089B2DFF8D80601F096FDF1E024
:1026B00003290AD1E078217911EB0021F18089B258
:1026C000DFF8C00601F089FDE4E0042940F0E28073
:1026D000E078217911EB0021ADF8161089B2DFF80E
:1026E000A80601F07AFDD5E0032828D1A1780DF1E4
:1026F0005A056970DFF8940601F06FFD68780128CB
:1027000016D10020142880F2C58004EB8001CA781D
:102710000B791B0403EB02624B7902EB03228979EC
:10272000511802AA02EB8002C2F80210401CE9E72D
:10273000022840F0AF80E0788DF85A00AAE01C280B
:1027400027D1A0788DF80D00A078012808D1E17874
:102750000DF109025170DFF8380601F03EFD99E0F5
:10276000022807D1E1788DF80B10DFF8280601F078
:1027700034FD8FE0032800F08D80052840F08A802A
:10278000E1780DF10B035970DFF80C0601F025FD1F
:1027900080E02C2830D10DF10E00A1788171A07855
:1027A000012803D1E0788DF80E0073E0022806D1ED
:1027B000E078217911EB0020ADF815006AE00328DC
:1027C00006D1E078217911EB0020ADF8170061E027
:1027D000042807D1E078217911EB00200DF11701D1
:1027E000488057E0052855D1E078217911EB002089
:1027F0000DF1170188804DE030281BD1A0788DF8AD
:102800000B00A078012804D10DF10900E178417096
:1028100040E002283ED140F6DA22DFF83C15DFF82E
:102820007C0501F0DAFCB6F80110E01C0AF0C3FFE9
:1028300001201AE534282DD1A07801282AD10DF1E4
:102840000A00E1782279120402EB0161627901EB5E
:102850000221A279891800EE101AB8EEC00ADFED45
:10286000A60A80EE200A10EE101A0160016800EE40
:10287000101A10EE100A0BF0EBF802460B46DFF8C8
:10288000200501F0AAFC0DF10A00016800EE101A03
:102890000BF012F906208DF8740020788DF8750081
:1028A0000DF1770002A955220AF06EF90DF17500BD
:1028B0000B2141700020ADF8CC001DA801F046FAB4
:1028C000C0B2D2E420780146412905DBDFF8D40408
:1028D00001F083FC0020C8E4C1EB0112DFF8C8144A
:1028E00001EB8201897E012940F092810146032992
:1028F0002ED006296BD0092931D00C294BD00D29B7
:1029000057D0192900F097801A296ED01B2900F0A2
:10291000A7801C2900F0E3801D2900F0B9801E2942
:1029200000F0EC80262900F0F780272900F00281D2
:102930002C2900F027812D2900F03D812F2900F05E
:102940005681302900F04581342900F049815AE14F
:102950000322611C0DF10A0001F051FB58E107222E
:10296000611C0DF10A0001F04AFBBDF80A00010AE2
:1029700041EA0020ADF80A00BDF80C00010A41EA66
:102980000020ADF80C00BDF80E00010A41EA00205D
:10299000ADF80E003CE10322611C0DF10A0001F0CC
:1029A0002EFBBDF80B00010A41EA0020ADF80B0038
:1029B0002EE10322611C0DF10A0001F020FBBDF89D
:1029C0000B00010A41EA0020ADF80B0020E10122D2
:1029D000611C0DF10A0001F012FB0DF109004178B4
:1029E000DFF8C80301F0F9FB12E10B22611C0DF1C5
:1029F0000A0001F004FBDDF80B00010221F0FF11D9
:102A0000000A00F0FF100843CDF80B004FEA3040F9
:102A1000CDF80B000DF10E067088010A41EA002086
:102A20007080002396F9062096F9051096F90400A7
:102A300001F000FEECE00622611C0DF10A0001F03D
:102A4000DEFABDF80A00010A41EA0020ADF80A00EA
:102A5000BDF80E00010A41EA0020ADF80E00D7E0F3
:102A60000422611C0DF10A0001F0C9FABDF80A0048
:102A7000010A41EA0020ADF80A00BDF80C00010A85
:102A800041EA0020ADF80C00C94801F0A6FBBFE008
:102A90000922611C0DF10A0001F0B1FABDF80A002B
:102AA000010A41EA0020ADF80A00BDF80C00010A55
:102AB00041EA0020ADF80C00BDF80E00010A41EA21
:102AC0000020ADF80E000DF10E06002396F904204B
:102AD00096F9031096F9020001F0ACFD98E00DF1B3
:102AE000090061784170A0788DF80B00A2786178B8
:102AF000B04801F072FB8BE000401C460322611CD1
:102B00000DF10A0001F07BFABDF80B00010A41EA61
:102B10000020ADF80B007BE00522611C0DF10A00DE
:102B200001F06DFABDF80B00010A41EA0020ADF892
:102B30000B006DE00A22611C0DF10A0001F05FFA42
:102B4000BDF90A00C0F3072141EA0020ADF80A00F0
:102B5000BDF90C00C0F3072141EA0020ADF80C00DC
:102B6000BDF90E00C0F3072141EA0020ADF80E00C8
:102B70000DF10E06B6F90200C0F3072141EA00206C
:102B8000708045E00822611C0DF10A0001F037FA5F
:102B9000BDF80C00010A41EA0020ADF80C000DF16F
:102BA0000E06002396F9032096F9021096F901000B
:102BB00001F040FD2CE00222611C0DF10A0001F041
:102BC0001EFABDF80A00010A41EA0020ADF80A0029
:102BD0001EE00222611C0DF10A0001F010FA17E05C
:102BE0000422611C0DF10A0001F009FA10E00DF158
:102BF0000900E178417020798DF80B000DF10B0090
:102C00006179417004E08DF8080060788DF8090062
:102C100020780146052908D1674801210170687AAA
:102C2000002810D10846FFF720BB18290BD18DF8DA
:102C3000080060788DF809000DF10900A178417055
:102C4000E0788DF80B0000208DF8740020788DF866
:102C500075000DF1770002A9552209F095FF0DF1DD
:102C600075000B2141700020ADF8CC001DA801F0CB
:102C70006DF8C0B2FFF7F9BA20780146412906DBAA
:102C80000FF2381001F0A9FA0020FFF7EEBA05297B
:102C900005D14948002101700120FFF7E6BA1A2941
:102CA0001CD10822611C0DF10A0001F0A8F9DDF821
:102CB0000B00010221F0FF11000A00F0FF10084391
:102CC000CDF80B004FEA3040CDF80B000DF10E06A9
:102CD0007088010A41EA0020708005E02C2903D1A8
:102CE0000DF109006178417001208DF874002078A1
:102CF0008DF875000DF1770002A9552209F044FF07
:102D00000DF175000B2141701DA801F01FF8C0B234
:102D1000FFF7ABBA0120FFF7A8BA2078002803D14B
:102D20000FF2B800C046C0460120FFF79EBA04F17A
:102D30000802211D204609F069F90120FFF795BA24
:102D4000FEF769FF0120FFF790BAFEF78BFF012025
:102D5000FFF78BBA98DB0120745103088C510308EC
:102D6000B8510308C4510308D0510308E0510308C7
:102D7000F051030800520308245203083452030898
:102D800044520308505203085C5203086852030877
:102D90007C52030890520308A4520308B852030857
:102DA000F452030804530308AC80012020530308A5
:102DB0002C53030838530308AFF001204C696272AA
:102DC0006172792072616E6765206973206F766524
:102DD000722C2052656D6F766500000051505F5275
:102DE00045515545535400000048704710E10120FB
:102DF00080B5FFF7F9FFDFF8941C4860012002BDA1
:102E000080B509F0C3F9DFF8881CD1E90023801AE6
:102E100002BD2DE9F8430446002005460646DFF8CA
:102E2000741C496804F108073A697B6802EB0308DF
:102E300094F90820002A15D1B8F90000B8F9025019
:102E4000B8F90460B7F86810411AA8F80010B7F88C
:102E50006A10691AA8F80210B7F86C10711AA8F86D
:102E6000041035E004F18409012A1ED1B8F80010DD
:102E7000A4F88410B8F80210A9F80210B8F80410E9
:102E8000A9F80410B4F884103A6F891AA8F8001051
:102E9000B9F802107A6F891AA8F80210B9F804106C
:102EA000BA6F891AA8F8041012E0B4F88420A8F8C0
:102EB0000020B9F80220A8F80220B9F80420A8F8E8
:102EC00004208A6F3A67CA6F7A67D1F88010B967B1
:102ED00094F90810002951D1B8F90010C913B1EBC9
:102EE000E03F14D0B7F96810C913B1EBE03F0ED042
:102EF0000FF6B83001F071F9B8F90000012802DBD3
:102F0000DFF8940B01E047F6FF70A8F80000B8F96D
:102F10000210C913B1EBE53F14D0B7F96A10C91319
:102F2000B1EBE53F0ED00FF6903001F056F9B8F94D
:102F30000200012802DBDFF8600B01E047F6FF70BA
:102F4000A8F80200B8F90410C913B1EBE63F70D03D
:102F5000B7F96C10C913B1EBE63F6AD00FF66430D5
:102F600001F03BF9B8F90400012802DBDFF8280B77
:102F700001E047F6FF70A8F804005AE0012958D193
:102F8000B4F98400B8F90010C913B1EBE03F14D0D4
:102F9000B7F97010C913B1EBE03F0ED00FF60C304B
:102FA00001F01BF9B8F90000012802DBDFF8E80A9C
:102FB00001E047F6FF70A8F8000004F18409B9F9B0
:102FC0000200B8F90210C913B1EBE03F14D0B7F911
:102FD0007410C913B1EBE03F0ED00FF6DC2001F006
:102FE000FCF8B8F90200012802DBDFF8AC0A01E0C6
:102FF00047F6FF70A8F80200B9F90400B8F9041008
:10300000C913B1EBE03F14D0B7F97810C913B1EB95
:10301000E03F0ED00FF6AC2001F0DFF8B8F9040065
:10302000012802DBDFF8700A01E047F6FF70A8F81C
:10303000040094F90800002804D1002000E0401C9E
:103040000328FCDBBDE8F183000000002DE9F04718
:103050000746B869F96800EB010800252E462C46A2
:10306000A24697F90890B9F1050F03D3B9F10E0FF5
:1030700040F0C880B9F1010F02D0B9F10E0F02D1B2
:103080003846FFF7C6FE97F90800002806D1B7F9C1
:103090007050B7F97260B7F9744007E0012801D0A9
:1030A0000E2803D1BD6FFE6FD7F880404846012837
:1030B00004D9C01E02D00B3840F09E80B9F1000F39
:1030C00001D14FF6FF7ADFF8C4094068B9F10E0F5D
:1030D00003D0484490F8840001E090F88500401E39
:1030E00006286AD8DFE800F004101F2A3A46560086
:1030F000B8F90200B8F80010AAEB0101B8F90420F1
:103100003346AAEB050560E0B8F80000AAEB000022
:10311000B8F80210AAEB0101B8F90420AAEB0503E4
:10312000AAEB060551E0B8F80200AAEB0000B8F9D6
:103130000010B8F90420AAEB060346E0B8F8000036
:10314000AAEB0000B8F90210B8F80420AAEB0202BA
:10315000AAEB05033546AAEB040436E0B8F90200F1
:10316000B8F90010B8F80420AAEB02023346AAEB23
:1031700004042AE0B8F90000B8F80210AAEB010133
:10318000B8F80420AAEB02022B46AAEB0605AAEB2C
:1031900004041AE0B8F80200AAEB0000B8F8001026
:1031A000AAEB0101B8F80420AAEB0202AAEB06037D
:1031B000AAEB0505AAEB040407E0B8F90000B8F98A
:1031C0000210B8F904202B463546B9F1010F04D19D
:1031D000002600E0761C032EFCDBA8F80000A8F80F
:1031E0000210A8F80420B9F10E0F05D1A8F8063096
:1031F000A8F80850A8F80A40B9F1000F02D13846E3
:10320000FFF707FE0120BDE8F087000070B40468F6
:103210000D6816685B1E062B27D8DFE803F004084C
:103220000D11161B20000560604208601DE062421F
:1032300002606842086018E06A4202600C6014E0B4
:1032400061420160704210600FE005600C607042E6
:1032500010600AE0684208607042106005E06B424E
:103260000360604208607042106070BC70470000EC
:1032700070B52DED028B82B08169C2688A1890F911
:10328000081008460A2800F2AD80DFE800F0062B9F
:1032900089ABAB65ABABAB96A400B2F90240B2F917
:1032A0000450DFF8E80741689FEDCF0AB2F900004B
:1032B00000EE900AF8EEE00A60EE800AC1ED000A26
:1032C00000EE904AF8EEE00A60EE800AC1ED010AD5
:1032D00000EE905AF8EEE00A20EE800A081D80ED1C
:1032E000010A83E0B2F90240B2F90450DFF89C070A
:1032F00041680E1D9FEDBD8BB2F9000000EE100A73
:10330000B8EEC00A10EE100A0AF0A2FB53EC182B1C
:103310000AF0C6FD0AF09AFEB06000EE104AB8EE60
:10332000C00A10EE100A0AF093FB53EC182B0AF0B7
:10333000B7FD0AF08BFEF06000EE105AB8EEC00A3E
:1033400010EE100A0AF084FB53EC182B0AF0A8FDCB
:103350000AF07CFE306149E0002000901068009087
:10336000DFF8280741689DED000AB8EEC00ADFEDDE
:10337000D10A20EE200A81ED0C0A91ED0C0AB5EE7F
:10338000400AF1EE10FA31D090ED020AD1ED0C0AAC
:1033900030EE200A80ED020A0188491C018025E0F8
:1033A000DFF8E80641681088A1F85A0001F25A00D7
:1033B000518841809188818018E0DFF8D00641680B
:1033C00001F25A001188C1805188018191884181A0
:1033D000D18881810AE0DFF8B4064068118880F85E
:1033E000681003E00FF2E86000F0F7FE012002B081
:1033F000BDEC028B70BD70B50D46DFF8981651F824
:1034000020400026207F002801D1304670BD607A20
:10341000002804D0D4F8A4008068804706462846D7
:10342000D4F8A410C96988470546002E03D0D4F803
:10343000A40040688047284670BD01207047F8B559
:103440001C4692FBF1F300F29F0600F10805777825
:10345000012F17D190F908700C2F10D0502B02DAE1
:10346000B2F57A7F08DB012780F89F70B0F8A27070
:103470009F4204DA3B4602E0002780F89F70002755
:10348000B77006E0AE68AF7E96FBF7F69E4200DAB4
:103490003346002A18D490F908000C2804D003FB06
:1034A00001F0A865E86501E0AA65EA65286E0028D4
:1034B00002D5EB6D181AE865E86DDFF8D0355B686A
:1034C000D3F880301818E865009413460A46E96D71
:1034D0000FF2086000F081FE002C02D4A00700D596
:1034E0002C76F1BD002101664161816190F90810DF
:1034F000112901D0002181777047042817D101F1EB
:103500000C008A7A012A09D0072242750B228275A3
:10351000DFF88825CA600B2141607047152242758B
:1035200019228275DFF87825CA6019214160704739
:103530002DE9F243044615461E461D2C28D2274687
:10354000DFF8500550F8278098F81C0000281FD09D
:1035500000A800F018F99DF92090B9F1000F09D4E6
:103560005FEAC97006D54B46324600994046FFF7E0
:1035700064FF36E0214600A800F01CF941462046D1
:10358000FFF7BBFF2146284600F032F9002801D1A1
:10359000002026E0002D12D198F80900012808D15A
:1035A00039460FF2545000F018FE49464046FFF7E6
:1035B00099FF4B46324600994046FFF740FF0123F2
:1035C0002A460099204600F06BF900F0C8F9002C5B
:1035D00006D198F80900012802D100980AF094FE5B
:1035E0000120BDE8F283000060F69C3A89AD84FAC0
:1035F0000A74513F2DE9F243044615461E461D2C20
:103600000BD22746DFF88C0450F82780FDF7A8F985
:10361000814698F81C00002801D1002047E000A84E
:1036200000F0B1F82146284600F00FF9002D29D10D
:10363000FDF73EF8002816D098F89F00002812D019
:10364000FDF736F84B46024639460FF2B44000F01B
:10365000C4FDB9F1010F02D1FDF770F903E00021BB
:103660000846FDF70FF998F80900002803D1314604
:103670004046FFF737FF0020C8F8600088F89F0039
:1036800088F8A10000232A460099204600F008F996
:1036900000F065F9002C09D198F80900012805D13E
:1036A0000BF04AFC012801D10AF04FFE0120BDE8D1
:1036B000F28300000AD7233C2DE9F24F0446154659
:1036C0001E461D2C27D22746DFF8C80350F8278056
:1036D000FDF746F9814608F1140A9AF80800002817
:1036E00019D000A800F04FF89DF928B0BBF1000FE9
:1036F00009D45FEACB7006D55B4632460099404656
:10370000FFF79BFE3DE005EB450008EB8000806B7A
:103710008068002801D5002033E0DAF84C0000284A
:1037200006D1012E04DB0020C8F81400CAF80400FA
:10373000002D1AD1FCF7BCFF002816D098F89F0086
:10374000012812D1FCF7B4FF024639460FF2C0300F
:1037500000F043FDB9F1010F02D1FDF7EFF804E0ED
:103760002146C9B20020FDF78DF85B46324600992C
:103770004046FFF764FE2A460099204600F0BAF85A
:103780000120BDE8F28F0168C82902D1B42101608F
:103790007047422902D13C21016070478A1F042AE8
:1037A00002D20A21016070470B39092901D2142184
:1037B0000160704710B50C46B64A52F824200F2C11
:1037C00005D0102C03D01A2C01D01B2C0FD1C9B25C
:1037D000D2F8A420926990470F2C01D0102C06D16A
:1037E00021460FF24030BDE8104000F0F6BC10BD9D
:1037F000F8B504460225A74850F82160707A0028E1
:103800001ED106F1A407214649B230467A681268F3
:10381000904700280ED0D6F8A400406880470028C2
:1038200004D129464D1EC9B20029F4D1002801D186
:103830000020F2BD214649B230467A68526890476E
:10384000707A401C70720120F2BDF8B504469148B0
:1038500050F821500226687A01281AD105F1A407F0
:10386000214649B228467A689268904700280AD0D3
:10387000D5F8A40080688047002804D13046461E51
:10388000C0B20028F4D1214649B228467A68D268ED
:103890009047687A002801D0401E68720120F2BD6E
:1038A00018B404467B4850F824000C2C17D0112C77
:1038B00015D00D2C13D0192C11D01A2C0FD01B2C75
:1038C0000DD000F13804246F012B52B203D12369CB
:1038D00001B010BC1847636901B010BC1847806B79
:1038E000012B02D11421C16002E04FF0FF31C16011
:1038F00011BC7047F8B50C461546664951F8206072
:103900000C282BD0112829D00D2827D01A2825D0F3
:103910001B2823D0192821D005EB450006EB800792
:10392000B86B8068844219D0012C17DB0FF200209D
:1039300000F053FC2A4652B2B86B81683046D6F884
:10394000A8305B6998472A4652B221463046D6F8DD
:10395000A8301B699847BDE8F14000E0F1BD70B5A3
:103960006FF0004634464F48016804E08A68A2427E
:1039700000DA144609688142F8D14B4D2878401C82
:1039800028706878F021084202D0992002F05EF891
:1039900002F0C9F86878401C6870B44200D1002475
:1039A0003A4E7068C467D0F8802021468A4212D00F
:1039B000002901D0002A0BD1C0F880100FF280102E
:1039C00000F00BFC7068D0F8800000F0E2FB02E031
:1039D00001200BF0F9FA6878F021084202D0992012
:1039E00002F034F86878401E6870C0B2002801D137
:1039F00002F093F802F0C1FA012070BD38B5054617
:103A0000294C2078401C20706078F021084202D0B8
:103A1000992002F01BF802F086F86078401C607074
:103A200029460FF2301000F0D8FB18484068C0F863
:103A300080501C48016805E08A68B2FBF5F26A43D1
:103A4000CA6009688142F7D16078F021084202D04B
:103A5000992001F0FBFF6078401E6070C0B2002822
:103A600001D102F05AF8BDE8314002F086BA0D49A2
:103A70000A6808E01369012B01DAD368136113693E
:103A80001B1A136112688A42F4D1704770EE01204C
:103A900080EF012098DB01200080FFFF005F002005
:103AA00020ED012024480020683A01205820697345
:103AB000206F76657200000059206973206F76656B
:103AC000720000005A206973206F76657200000052
:103AD00055435354282564294E5300006261746392
:103AE000682072617465203D2025642025642025AE
:103AF0006420256400000000416464202564000007
:103B0000534D2025642C25642C20256400000000E2
:103B10006368616E676520726174652025642C2579
:103B2000640000004F44522025642C2025640000CE
:103B30006368616E67652072617465320000000021
:103B4000675F707453682D3E6354696D6572203DE4
:103B5000202564006374696D6572203D2025640032
:103B600077487047F8B50C461646012500282BD13A
:103B7000C6EB0610724901EB8007386AE040C007C7
:103B800008D523463A6A31460FF2743000F025FB1F
:103B90000220F2BD4FF0FF30009003462A467968BC
:103BA0002046FFF7C5FC00280CD023463A6A314670
:103BB0000FF25C3000F011FB386A2946A14008433F
:103BC00038622CE00220F2BD012828D1C6EB061095
:103BD0005B4901EB8007386AE040C00708D4234600
:103BE0003A6A31460FF2383000F0F7FA032516E052
:103BF0004FF0FF332A4679682046FFF7FBFC002888
:103C000007D023463A6A31460FF2243000F0E5FA35
:103C100000E00325386A0121A14088433862284624
:103C2000F2BD01F06EBD02B598B00021ADF858109C
:103C30008DF801100DF101010A224A7000228A70EC
:103C4000CA7005218DF800108DF80100042218A912
:103C50000DF1030000F0D3F90020ADF8580000A8E2
:103C600000F074F819B000BD10B40022884201D3EE
:103C7000421A06E00B1A334CA34202D3324A101800
:103C8000421A104610BC70470BF007BF38B5447895
:103C900085780078032824D01A2804D02C282CD02A
:103CA0003A2833D031BD012C0CD101200DF0CFFCCE
:103CB000012322461A210FF2882001B0BDE83040CE
:103CC00000F08BBA022C28D102200DF0C0FC022398
:103CD00022461A210FF27C2001B0BDE8304000F0EE
:103CE0007CBA012C19D128460BF0F4FE29460FF2BC
:103CF0007820BDE8344000F070BA012C0DD129467F
:103D00000FF27020BDE8344000F067BA012C04D1F6
:103D10000120BDE832400EF069B931BD0EF096B910
:103D20000022412809D2C0EB0013054800EB8300B4
:103D3000006AC840C00700D5012210467047000045
:103D4000AC800120A1780F05005C260530B595B048
:103D50000446012594F90000062800F2BC80DFE843
:103D600000F0042648647AB2B600E11C82B06846CE
:103D7000552208F009FF0CBC94F9021094F90100D7
:103D800001F0C9F8022809D1607801F0BEFA0025D7
:103D900061780FF2E81000F020FAA2E0032840F06A
:103DA000A08061780FF2DC1000F017FA99E06078DB
:103DB0001A280BD1E01C01F06FFDA37AD4F806207D
:103DC00061790FF2C81000F008FA04E02C2802D143
:103DD000E01C01F061FD94F9021094F9010001F07A
:103DE000A9F903287DD161780FF2B81000F0F5F938
:103DF00077E0B4F8581000A801F0A1FA9DF904008A
:103E000002280AD1009800B201F07FFA002500993B
:103E10000FF2981000F0E1F963E0032861D10099F6
:103E20000FF2901000F0D9F95BE00EF0A6FB02282B
:103E300009D1607801F069FA002561780FF27C10F1
:103E400000F0CBF94DE003284BD161780FF27410EC
:103E500000F0C3F945E0607805280CD128460EF043
:103E60006EFC02280DD003283BD161780FF264105C
:103E700000F0B3F935E002280DD10EF066FD0228FE
:103E8000F1D1607801F041FA002561780FF23C1021
:103E900000F0A3F925E02F2823D10EF0C5FE02285B
:103EA00009D1607801F031FA002561780FF22C1009
:103EB00000F093F915E0032813D161780FF2241074
:103EC00000F08BF90DE0204601F09EFA09E0204653
:103ED00001F047FC05E061780FF2101000F07DF969
:103EE0000025284615B030BD012070470FB40220D0
:103EF00004B07047012070470020704770470000F1
:103F0000534D414320256420256420256400000092
:103F1000534D4120256420256420256400000000C5
:103F2000534D524320256420256420256400000061
:103F3000534D522025642025642025640000000094
:103F40004154205249204E6F72202D256420256453
:103F500020256400415420524920426174202D25BF
:103F6000642025642025640050442055542D256488
:103F700000000000534C4D2025640000414C4F468A
:103F800020256400414C4346202564004F4A4820C8
:103F9000454C2030782578203078257820307825D9
:103FA00078000000524C434620256400504C4F4698
:103FB00020256400504C43462025640050414F4664
:103FC00020256400504143462025640050504F4650
:103FD00020256400505043462025640050534F462E
:103FE0002025640050534346202564004558204C4A
:103FF0004D454C202564000000220EF0B1BE10B5E6
:104000000400200008F0C0FD200010BD10B5040021
:1040100010480078002805D10F480EF0E0FE0D484A
:10402000012101700C480EF010FF20000FF0E0FDA0
:10403000040009480EF03DFF200010BD10B504003B
:1040400005480EF002FF20000FF02CFF02480EF092
:1040500030FF10BDBAF0012030EE012038B5040069
:104060000D0014480078401C12490870124800786E
:10407000002802D0A12001F0E9FC01F03DFF607EA4
:10408000662802D0822001F0E1FC01F04CFD05E041
:104090003821200010F094F901F045FDE068216915
:1040A0008842F5D02900200010F0ACF901F065FF3E
:1040B00031BD00BF683A0120B8F0012010B5DFF82B
:1040C000C4494FF405720021204600F055FD2046FA
:1040D00010BDDFF8B009704710B5FFF7EFFF0446D9
:1040E00000231A461146084600F0A4FAC046C0460E
:1040F00006F0B9FC0A21204600F058F807F0EAF86B
:1041000006F018FC204600F030FA204600F018F8BF
:10411000DFF87409006806F05EFE204600F0AAF998
:1041200000F02FFB00F0EBF900206072A072E0724B
:104130002073012060730020E075A073012010BD82
:1041400010B50446DFF8440906F0A7FD01206071B0
:1041500010BD10B5044606F0BCFE0120A07110BDD4
:1041600038B50446012507F028F8012804D128466F
:10417000E0700020A0700AE0022804D10020E07066
:104180002846A07003E00020E070A0700546284695
:1041900032BD80B507F0ECF9012002BD10B5044630
:1041A000E07907F033FB0121217010BD70B50446A2
:1041B0000025E679E171FFF7F1FF002807D02046DE
:1041C000FFF7BEFF2046FFF7C4FF012503E0E671BD
:1041D0002046FFF7E3FF284670BD0EB470B5C1B0AE
:1041E000054600A84FF48071FFF706FFFFF771FF47
:1041F000044645AB2A464FF4807100A810F06AF9D6
:1042000000A810F085F9451C00A82818002100F826
:10421000011CDFF87C683078401C30707078F02129
:10422000084202D0992001F011FC01F07CFC70786A
:10423000401C7070207E2818B0F5FA7F10DA207EBE
:10424000002803D0207E00190A2101762A4600A901
:10425000207E00191930FFF7D2FE207E2818207624
:104260007078F021084202D0992001F0EFFB7078BD
:10427000401E7070C0B2002801D101F04EFC01F068
:104280007CFE41B070BC5DF810FBDFF8C407DFF8BE
:10429000FC170160704710B50446FFF71AFF00696C
:1042A000E040C0070ED5DFF8EC472068401C2060D6
:1042B0001E2807DB0FF2EC70FFF78FFF07F020FBE3
:1042C0000020206010BDDFF8CC070021016070479E
:1042D0002DE9F84305460E4617464FF00208DFF871
:1042E000B0476078F021084202D0992001F0AEFB7F
:1042F00001F019FC6078401C60709DF80000401EC1
:104300008DF8000017F8019B2846FFF7BEFF00ABB1
:104310004A463946304607F02DFB002812D0607817
:10432000F021084202D0992001F090FB6078401EF5
:104330006070C0B2002801D101F0EFFBFFF7C3FFAE
:1043400001201FE05FFA88F8424629460FF26870A4
:10435000FFF743FF4046A0F101080028D7D160785D
:10436000F021084202D0992001F070FB6078401ED5
:104370006070C0B2002801D101F0CFFB2846FFF7E2
:104380008AFF0020BDE8F2832DE9F04704460D4680
:1043900016461F46DFF8C086089888F80000DFF848
:1043A000F09699F80100F021084202D0992001F01E
:1043B0004DFB01F0B8FB99F80100401C89F80100A1
:1043C0002046FFF762FF4FF0020A43463246394665
:1043D000284607F083FB002815D099F80100F0214A
:1043E000084202D0992001F031FB99F80100401EEB
:1043F00089F80100C0B2002801D101F08EFBFFF75F
:1044000062FF012022E05FFA8AFA524621460FF24B
:10441000B460FFF7E2FE5046A0F1010A0028D4D1B3
:1044200099F80100F021084202D0992001F00EFB1A
:1044300099F80100401E89F80100C0B2002801D19E
:1044400001F06BFB2046FFF726FF0020BDE8F08758
:1044500080B51146029A184606F09CFC012002BD68
:1044600080B510465A1E92B20178401C06F072FCCC
:10447000012002BD1CB504460120009001AB75224D
:10448000D0210020FFF7E4FF9DF80400702808D138
:10449000002084F80E020FF25060FFF79EFE01200C
:1044A00016BD0120009001AB8F221B210020FFF7D9
:1044B000CFFF9DF804304FF406720FF214610FF233
:1044C0003060FFF78AFE9DF80410692907D10220A9
:1044D00084F80E02CBA0FFF780FE012016BD0FF27C
:1044E0002860FFF77AFE002084F80E02022084F88C
:1044F0000E020FF23060FFF770FE012016BD10F0C3
:104500002BBEF8B5044602270025DFF848650DE00C
:1045100039464F1EC9B200290AD1002804D12069AA
:104520000121A9408843206102276D1C1D2D11DA4D
:1045300056F82500D0F8A400006880470128E7D18C
:1045400021690122AA401143216156F82510012258
:104550000A77E2E72069032803D0022801D0012866
:1045600002D140F480502061F1BD07F0FDBB07F09F
:1045700062BC07F00DBC0000DFF81405026A036A94
:1045800000BF00BF00BF00BF00BF9B1A8B42F6DB1D
:104590007047417230B597B0FBF7F6FD0446FFF760
:1045A00098FD054600A85C21FFF726FD0020ADF828
:1045B00058008DF801000DF101000A214170002121
:1045C0008170C170697A00290DD0002C18D00021AB
:1045D0008DF8001005218DF801100B21417000A805
:1045E000FFF7B4FB0CE0002C0AD001218DF800107D
:1045F00005218DF801100B21417000A8FFF7A6FBE3
:1046000017B030BD07F036BC07F03EBC02210120D8
:10461000F8E702210120F7E701210846F2E701212E
:104620000846F1E707F03ABC10B50446FFF751FD24
:10463000447510BD2DE9F04782B00C4615462F4653
:10464000264680464FF47A714FF03C0C4FF4616976
:1046500018FB09F216FB0C22BA1801FB0232DFF834
:10466000FCE39EF900A01AFB09F99EF901A01AFBD0
:104670000C9C9EF902904CFA89FCBEF9039001FB58
:104680000C919EF808C0BCF1000F22D144EA000151
:104690002943194302D001218EF808108EF800003A
:1046A000B8F1000F04D59EF8000018308EF8000015
:1046B0008EF801408EF80250AEF8033000933B466E
:1046C00032469EF900100FF29C40FFF786FDBDE8D0
:1046D000F38791420DD3A1EB020CACF2D17CDFF851
:1046E000B893CC45DAD30FF2584002B0BDE8F0479A
:1046F00073E5D3D2A2EB010CACF2D179DFF898A329
:10470000D145CBD363460FF2484002B0BDE8F04735
:1047100063E510B504002FD0FBF762FECF49CA68ED
:10472000002A00D0841AB1F80320A218A1F80320AF
:1047300012B2B2F57A7F06DBA2F57A72A1F80320F5
:104740008A78521C8A7091F902203C2A04DB3C3A98
:104750008A704A78521C4A7091F901203C2A04DB85
:104760003C3A4A700A78521C0A7091F90020182AC3
:1047700001DB00220A70C86010BDB849052208F0AC
:1047800003BAB7480021017041701E22B54800F0FD
:10479000F3B93FB400210120B14A1278002A0CD1AC
:1047A0002CE05C68019DAC4224D11B89BDF8084017
:1047B000A3421FD10020491CC9B291421EDAC1EBAD
:1047C000C103A84C04EB43039DF80340DD78A542E8
:1047D00013D1002CE5D09C88BDF80450AC4209D11F
:1047E000DC88BDF80650AC4204D11B89BDF80840F6
:1047F000A342DFD000F00100DDE7012004B030BCAF
:104800007047000053544D007FB40020014626E05D
:10481000C0EBC0025400934D66193C224FF4616313
:10482000645D757812FB05F513FB0454B5786419C3
:104830009DF800509DF8016012FB06F213FB052263
:104840009DF8023052FA83F2A24201D2864B9A18A6
:10485000121BB2F5966F00D9491C401CC0B2804AA9
:1048600013789842D4DBC9B28B4202D20020107078
:1048700001E0581A10707FBC70472DE9FF419DF888
:104880000340022C5EDA00A80FC8FFF782FF012860
:1048900058D100A80FC8FFF7B7FF9DF802509DF848
:1048A0000160704FDFF8B88198F80000032825D127
:1048B0003C214FF461603A787B7811FB03F310FBE5
:1048C0000232BB78D2189DF8003011FB06F110FBC4
:1048D000031050FA85F0904201D263490818811AFA
:1048E000B1F5966F02D94FF4966000E0801AA8F8EF
:1048F0000200FFF746FF012088F8010098F8000049
:10490000C0EBC00149009DF80020CA55C9194E707E
:104910008D70CC70BDF80820002C09D1019B4B6034
:104920000A81BDF80A204A81BDF80C208A8106E080
:10493000BDF804308B80BDF80630CB800A81401C66
:1049400088F80000BDE8FF814549487800224A7098
:10495000704725220021514800F00EB91CB500A86F
:10496000FFF70BFF4D4C25220021204600F004F9F3
:104970009DF80000A07604F21A009DF80110417025
:104980009DF802108170FF21817213BD70B52DED6D
:10499000028B04462068002805D16068002802D1F7
:1049A000A068002849D0A089B0F57A7F45DA2F4D5C
:1049B000A06810F0FDFC2E4A2E4B09F071FA286118
:1049C00069619FED2D8B206810F0F2FC53EC182BE1
:1049D00009F066FA28606960606810F0E9FC53EC41
:1049E000182B09F05DFAA860E960A089288305F119
:1049F0001806A07BB070E07BF070207C3071607C8A
:104A00007071608A00EE100AB8EE400A10EE100ACB
:104A100009F01EF81A4A224B09F042FA09F016FB77
:104A2000C5F81E00A08A7081A07D307310F081FF50
:104A3000BDEC028BBDE870408BE710F078FFBDEC59
:104A4000028BBDE8704089E70849252208F09CB830
:104A5000A03B012098DB01208EF0012080EE012098
:104A6000F4EF012090EB012080510100E8EB0120E0
:104A7000FCA9F1D24D62503F8DEDB5A0F7C6B03E16
:104A80003BDF4F8D78C80120BC3B01200054004023
:104A9000683A0120F8EF01205F4C260510EC012058
:104AA000976EA23F233E496E6974696C61697A65AD
:104AB0002049324300000000495745202564202545
:104AC0006400000049524520256420256400000050
:104AD00053485F48415F436865636B36417869734B
:104AE00053656E736F720000496E76656E0000004C
:104AF000257328256429203A20726567203D205BB4
:104B00003078253032785D0057484F414D49206656
:104B100061696C203A207265675B307825303278A5
:104B20005D000000556E6B6E6F776E2036617869A0
:104B3000732073656E736F722121212100000000C4
:104B400041542D536574545331202564202564004D
:104B500041542D536574545332202564202564201C
:104B60002564000041542D536574542025643A2572
:104B7000643A25642E25640010B5040010000A0074
:104B80000100200011F038FA200010BD38B5DFF820
:104B90007C4BFEF729F9E06211F062FAFEF7E0FFC4
:104BA0002063002515E04FF0FF31C176DFF8601B70
:104BB0004162DFF8601B8162DFF85C2BC262DFF8C4
:104BC0005C2B0263DFF8582B42638163806B804764
:104BD0006D1C412D80F29D81216BC5EB051080007D
:104BE00000224254401842700122C276002282768E
:104BF0004FF0FF324260002282700262C2702A4689
:104C0000921E3E2ACFD8DFE812F04B00400045014B
:104C100053005A00650093003F003F003F003F00F3
:104C20003F003F009C00A5003F003F003F003F00C9
:104C3000AD003F00B6003F004A01C7003F00F90049
:104C400004013F00D300DB00EC00F400E4003F006F
:104C50003F003F003F003F003F003F003F0010018A
:104C600025013F00310175008B003C0155017F009B
:104C70003F00BF003F003F003F007B016D00660129
:104C800073016B015D011D018DE7DFF8202CC1F878
:104C9000EC20012281F8CE207C313C22CA6395E7CA
:104CA00001F17C02DFF8083C53631422CA678DE7E8
:104CB000EC31DFF8002C8A6714224A6486E701F59C
:104CC000B672DFF8F43B5363012393753C22C1F8BD
:104CD0006C217BE701F5B672DFF8E01B11673C2120
:104CE000D16373E701F69C51DFF8D42B0A673C22AD
:104CF000CA636BE701F63C31DFF8C82BCA630122B7
:104D00008A773C228A6061E7DFF8BC2BC1F8682C07
:104D1000012281F84A2C01F6BC31B4228A6755E79A
:104D200001F63C31DFF8A42B8A67B4224A644DE7D0
:104D3000DFF89C2BC1F8182201F5B67114228A679E
:104D400044E701F56272DFF88C3B5363B422C1F88B
:104D500088233BE701F56271DFF87C2B0A673C2270
:104D6000CA6333E701F59E62DFF8703B53633C2270
:104D7000C1F8F0242AE7DFF8682BC1F89C2501F57B
:104D80009E613C228A6721E701F66841DFF8542BD7
:104D90008A673C224A6419E701F21461DFF8482B64
:104DA000CA630722CA7701228A773C228A600DE70C
:104DB00001F20471DFF8342B8A6714224A6405E794
:104DC00001F28472DFF8283B53631422C1F8842770
:104DD000FCE601F63001DFF81C2BCA6314228A605E
:104DE000F4E601F28471DFF8102B0A671422CA631B
:104DF000ECE6DFF8082BC1F83028E7E601F2946210
:104E0000DFF8FC3A5363012393751422C1F894260A
:104E1000DCE6DFF8F02AC1F80427012281F8E62653
:104E200001F294613C22CA63D0E601F65422DFF815
:104E3000D83A53630323D375012393753C22C1F8F9
:104E4000542AC3E601F6C861DFF8C02A0A671422B3
:104E5000CA63BBE6DFF8B82AC1F8C42A012281F888
:104E6000A62A01F654213C22CA63AFE6DFF8A42A41
:104E7000C1F83C2B012281F81E2B1422C1F8082B0B
:104E8000A4E601F6BC32DFF8903A53631422C1F86D
:104E9000BC2B9BE6EC31DFF8842ACA6396E6DFF888
:104EA000802AC1F81426012281F8F6253C22C1F897
:104EB000E0258BE601F6BC31DFF8682A0A67142288
:104EC000CA6383E601F6C862DFF85C3A53631422D2
:104ED000C1F8C82E7AE6DFF8542AC1F8482E75E6E4
:104EE00001F64861DFF8482A8A673C224A646DE689
:104EF00001F64861DFF83C2ACA633C228A6065E615
:104F000001F69C52DFF8303A53631422C1F89C2D0D
:104F10005CE6012032BD0CB42DE9F04393B00646A7
:104F20000F46012435461A2D42D02C2D40D0C5EB1A
:104F300005104FEA8008DFF8D4970B2F18D1D9F865
:104F4000300040444178002912D090F91B20012AFA
:104F50000EDB91420CDB304600F098F90446D9F89C
:104F600030004044002141700FF6DC10FFF735F9A6
:104F7000D9F8300018F8001000294FD108EB0001D3
:104F80004A78002A4AD1002208F8002010464870CA
:104F90001AA983B06846582207F006FE0EBC3046B8
:104FA00000F084F8022834D0032837D1032435E0F8
:104FB0000B2F15D1C5EB05104FEA8008DFF84C9791
:104FC000D9F83000404490F91B20012A08DB4078D2
:104FD000904205DB0FF67810FFF7FFF8022060E043
:104FE0001A2D04D13846C0B20BF00CFB05E02C2D75
:104FF00003D13846C0B211F0D5F81AA983B068467B
:10500000582207F0D1FD0EBC304600F04FF80228C0
:1050100001D1022045E0032800D103240A2F0DD13D
:10502000DFF8E896D9F83000C5EB05114FEA8108A2
:1050300018F80010491C08F8001017E00B2F15D1C4
:10504000DFF8C896032D07D1D9F8300090F8B500E5
:10505000002801D10AF069FCC5EB05104FEA800871
:10506000D9F8300040444178491C4170DFF89C96E3
:10507000D9F83000D9F82C10C5EB05124FEA820898
:10508000D1E91C23CDE90223C96E009108EB000190
:105090004B7818F8002029460FF6C000FFF79DF85E
:1050A000204613B0BDE8F0035DF80CFB0EB42DE90B
:1050B000F04193B005460124C0EB00118F00DFF8EA
:1050C0004C66D6F830801A2801D02C2808D117F861
:1050D0000800002809D107EB08004078002804D117
:1050E00007EB080000218170016219A984B06846AD
:1050F000582207F059FD0FBC47447F6AB847022881
:1051000001D1022011E0032801D103240CE0D6F8DC
:105110002C80D8E91C67204600212A4612F0F8F8B6
:1051200030433943C8E91C01204613B0BDE8F00103
:105130005DF810FB2DE9F04385B004460D460126CD
:105140002746C7EB07104FEA8008DFF8C095D9F86B
:1051500030001A2F4ED02C2F4CD0404441780229D9
:105160000BDB90F91B20012A07DB1346994204DB75
:1051700042700FF2FC70FFF730F8D9F8300018F8E1
:105180000010002904D108EB00025278002A65D0F3
:105190002A460A2A09D1002903D0491E08F800101E
:1051A00017E0002108F8001013E00B2A11D108EBDA
:1051B00000014A78002A02D0521E4A7001E0002203
:1051C0004A70032F05D190F8B500002801D10AF0EC
:1051D000BBFBD9F8300018F8001000293ED140443C
:1051E000407800283AD1204600F050F8032835D105
:1051F000032633E018F80010002904D108EB000260
:105200005278002A2AD02A460A2A09D1002903D036
:10521000491E08F800100EE0002108F800100AE00E
:105220000B2A08D140444178002902D0491E417020
:1052300001E0002141701A2F04D12846C0B20BF0C2
:10524000E1F905E02C2F03D12846C0B210F0AAFFE7
:10525000204600F01BF8032800D10326D9F83000BF
:10526000D9F82C10D1E91C23CDE90223C96E009195
:1052700008EB00014B7818F8002039460FF2F8606F
:10528000FEF7ABFF304605B0BDE8F0832DE9F041F5
:1052900007460126B846C8EB08108500DFF86C44C5
:1052A000206B2818806A8047032800D10326B8F1B4
:1052B0002C0F07D1206B295C00290AD128184078CF
:1052C000002806D1384640B200F07BF9032800D10F
:1052D0000326206B295C002914D128184178002965
:1052E00010D1002181700162D4F82C80D8E91C45CE
:1052F00001203A4612F00CF824EA000025EA0101E8
:10530000C8E91C013046BDE8F08138B50446C4EB5D
:1053100004108000DFF8F453296B00224254401837
:10532000114641702046FFF7B1FFE86AD0E91C231F
:1053300021460FF25860FEF750FF012032BD2DE9E3
:10534000F041B6B004460E46B6B201208DF86400B6
:10535000DFF8B8531AA8E96A6C2207F025FC179504
:105360001AA984B068466C2207F01EFC0FBC00F03E
:10537000D9F900270BE0032803D1189703208DF8F3
:105380006400286B4044002181707F1C7FB2412F54
:105390002ADAEA6AD2E91C013A4600F031FB00F051
:1053A000010011F0000101D10028EED0C7EB071079
:1053B0004FEA8008286B404441680029E5D4827890
:1053C000521C8270D2B2724389B28A42DDDBC06A5B
:1053D00080470228CFD1189702208DF86400DDE9BC
:1053E0001801C4E9000103E0DDE91801C4E9000186
:1053F00036B0BDE8F0810021401F42F20C729042AD
:1054000000D20121084670472DE9F04383B00446DD
:10541000002001900422E11C01A8FEF7F0FD617854
:10542000BA4E376B3C2515FB01704068019A9042DB
:1054300004D10FF26850FEF7D0FE68E01046FFF787
:10544000DAFF002809D16178019B15FB01704268E1
:105450000FF25450FEF7C1FE59E0DFF8E0743868EF
:10546000D0F8008025E090F908906078316B15FB4A
:105470000010006A20FA09F0C00717D54FF0FF307E
:1054800000900346012201994846FEF751F840B2C8
:1054900000280BD1617801980090306B15FB01005A
:1054A00043684A460FF21450FEF797FE4046D0F884
:1054B0000080B842D7D13868D0F800801FE090F95A
:1054C0000890086A20FA09F0C00715D54FF0FF339D
:1054D000012249684846FEF78DF840B200280BD1FA
:1054E000617801980090306B15FB010043684A46D3
:1054F0000FF2E040FEF771FE4046D0F80080617880
:10550000326B15FB0121B842D9D101984860BDE842
:10551000F7832DE9F8438146002425467B4F21E09F
:10552000C5EB05108600386B06EB0008002088F8F4
:105530000300FA6AD2E91C012A4600F061FA00F081
:10554000010011F0000101D100280AD04846D8F826
:1055500030108847002804D0386B30180121C17002
:105560000C466D1C412DDBDB2046BDE8F28367480D
:10557000C16AD1E91C23002B01D1002A0DD00021E2
:1055800007E0C2EB0213026B02EB83020023D3702D
:10559000491C49B20A46412AF3DB704700B502466E
:1055A0005A48C36AD3E91C0100F02AFA00F001004E
:1055B00011F0000101D1002801D0012000BD0846F2
:1055C00000BD2DE9F04781460124C9EB0910850093
:1055D0004E4E306B2818006A002828D0D74F386804
:1055E000D0F8008003E003244046D0F80080B842A1
:1055F0001DD090F908A0306B2818016A012202FA28
:105600000AF2114021FA0AF149B20129ECD14FF016
:10561000FF33012241685046FDF7ECFF0028E2D03D
:10562000524649460FF2C430FEF7D7FDDCE720466C
:10563000BDE8F08710B598B004465A22002100A8B2
:10564000FFF79AFA0020ADF858008DF801000DF12F
:1056500001000A21417000218170C1700846ADF837
:105660005800600737D50520FFF798FF002808D0BD
:1056700004208DF8000005208DF8010000A8FEF739
:1056800065FB0220FFF78AFF002808D004208DF870
:10569000000002208DF8010000A8FEF757FB2F2024
:1056A000FFF77CFF002808D004208DF800002F2091
:1056B0008DF8010000A8FEF749FB0320FFF76EFFFD
:1056C000002808D004208DF8000003208DF8010088
:1056D00000A8FEF73BFBE00611D50820FFF75EFFB0
:1056E00000280CD003208DF8000008208DF8010060
:1056F00000A8FEF72BFB0FF20030FEF76EFD18B08E
:1057000010BD02492C2207F04FBA00002CEB0120FB
:10571000ED3E0008E93E0008F53E0008F93E0008AD
:10572000FD3E00080FB41B9800990160019941608B
:10573000029981600399C1600499016105994161F1
:10574000BDF85A100183BDF85C104183BDF85E10AE
:1057500081830C990162139941621499816204B0AA
:1057600070474178122904D1401C017900200AF0C9
:105770009DB9132904D1401C417901200AF096B942
:10578000142904D1401C817902200AF08FB915290F
:1057900003D1401C00790AF0ADB9302904D1401C76
:1057A00090F904000DF0A4BA012904D1401C90F92D
:1057B00006000DF089BA17296DD1411CCA78032A59
:1057C0000AD01B2A14D01C2A33D01D2A1BD02C2A05
:1057D0003FD0302A59D0704790F85610012902D195
:1057E000401D0AF091BD022955D1401D0AF08CBD23
:1057F000087A012802D188880CF026BC02284AD1F8
:10580000C8880CF01FBC4A7B012A02D1888810F09E
:1058100074B8022A02D1C88810F063B8042A03D1F0
:10582000B0F8110010F06BB8032A34D1C88910F019
:1058300072B8C879012802D1087911F017BE022880
:1058400002D1487911F019BE052824D1887911F0C8
:105850000CBE8A7B012A02D1087A11F06DBA022AA5
:1058600002D1008A11F054BA032A02D1408A11F001
:1058700059BA042A03D11230408811F074BA052AAB
:1058800009D11230808811F060BA4879012802D11C
:10589000087911F017BE70472949086070472848F9
:1058A000006870472749087070470000F7F2000849
:1058B00019290108D9260108F94F03083D160308E4
:1058C0003F1F0308AF7501081FDD00083F480308AC
:1058D000C9240108C9610308336803088164030807
:1058E000A1600308796A0308E113010859E7010878
:1058F000B157030815B30108914E03084727030861
:105900002974010881580108496C010839590308B4
:105910002B630308F52B01080B30030881C2000834
:10592000BD650308ADF80208C15F0308E1EE000899
:10593000BD5D0308355C03088F1F0108B85B0020BC
:10594000FCEF01208FF00120414C20455800000061
:10595000414C2045582D415400000000414C256425
:1059600020256420256420256420256C6C750000AA
:10597000524C204558000000524C256420256420DC
:10598000256420256420256C6C7500005445524D1B
:1059900020256420256C6C75000000004558204CC3
:1059A0004D435231202564004558204C4D4352321E
:1059B0002025642025642025640000004558204CE3
:1059C0004D4352332025642025642025642025641E
:1059D000000000004558204C4D43523420256420DF
:1059E000256420256420256400000000534D5241A9
:1059F0002025642025640000485720534D410000B5
:105A0000D2B2203A22BF21FA02F0002170472032A0
:105A1000D141D04048409140D1404840704710B4F7
:105A200050F8041B81B102681218001D50F8043BA5
:105A3000DC0744BFA9F10104E31852F8044B43F812
:105A4000044B091FF9D1EBE710BC704700B585B0D6
:105A500002460FF2140100A811F04AFE00A8C04649
:105A6000C04605B000BD00004F45256400000000A1
:105A700030488168002904BF08B008E0EFF30982CC
:105A8000A2F12802036882E8F84F83685A6000F0A8
:105A90001BF9816859B14A6892E8F84F036002F136
:105AA000280282F3098813F47F4F36D070472248CA
:105AB00022490968401A80F308884FF08071C1615B
:105AC0001F4981617FF0060E704701BC2046DFF858
:105AD00074E000BDFEE71C48006818490968401AD8
