:10000000000C0020816B03086194000875940008BF
:10001000899400089D940008B19400080000000035
:10002000000000000000000000000000C59400086F
:10003000D9940008000000006D5A0008A377010859
:10004000DD6C0308E16C0308E56C0308DDA400081F
:10005000E96C0308F1A60008699C0008459E0008A9
:100060005F9F00084DA00008ED6C0308F16C0308C9
:10007000F56C0308F96C0308FD6C0308016D0308B7
:1000800035A1000851A20008056D0308096D030899
:100090000D6D0308116D0308156D0308ADA300086D
:1000A000196D03081D6D0308216D0308256D0308F4
:1000B000296D03082D6D0308316D0308356D0308A4
:1000C000396D03083D6D0308416D0308F194000884
:1000D000456D0308496D03084D6D0308516D030814
:1000E00021A3000805A60008556D0308596D0308F3
:1000F0005D6D0308616D0308656D0308696D030894
:100100006D6D0308716D0308756D0308796D030843
:100110007D6D0308816D0308856D0308896D0308F3
:100120008D6D0308916D0308956D0308996D0308A3
:100130009D6D0308A16D0308A56D0308A96D030853
:10014000AD6D0308B16D0308B56D0308B96D030803
:10015000BD6D0308C16D0308C56D0308C96D0308B3
:10016000CD6D0308D16D0308D56D0308D96D030863
:10017000DD6D0308E16D0308E56D0308E96D030813
:10018000ED6D0308F16D0308DFF8140D007870477A
:100190002DE9F04397B002F02DFE0446DFF8040D80
:1001A000856BDFF8046D376813E098F81910D8F8FC
:1001B0001000D8F804208018D7F8A420526990477E
:1001C000002802D0384602F047FF384600F057F8C2
:1001D0003F68B7423CD097F908000728F8D00B28B1
:1001E00007DB182805D00E2803D00F2801D01028CF
:1001F000EED10628ECD007F10808D8F860000028F6
:1002000004D5D4F880100818C8F860004FF0FF310A
:100210003846D7F8A820926990478146B9F1010F76
:1002200005D198F86400D7F8A41009698847B9F196
:10023000020FCAD197F908000128B6D1687A0028C0
:10024000B3D0A87F0128B0D1384602F005FFBCE743
:10025000D4E91C01002901D100280CD00A208DF816
:10026000020002208DF80000D4F88000ADF858009C
:1002700000A803F053FD012017B0BDE8F0832DE97D
:10028000F0418EB0044601A8342103F09DFE002108
:100290002046D4F8A82092699047022846D104F15C
:1002A0000C050120A87494F89F0000283ED0DFF8C8
:1002B000FC6B4CF250303168471A00200090204609
:1002C00000F092F80090012204F1080101A803F067
:1002D0007EFE6A7DE868E16841180DF1050003F0D3
:1002E00076FE042200A9687D01ABC018401C03F013
:1002F0006EFEDFF8BC8B30684044697D491D8F423B
:100300000CD23A4601A903F062FE687D401DC21B73
:1003100001A83918404603F05AFE04E0A97D4A1CA2
:1003200001A903F054FE204600F0EEF8012120461A
:10033000D4F8A82092699047022802D1204602F002
:100340009DFF0EB0BDE8F08130B585B004460D4686
:10035000CA208DF800002888ADF801000220ADF811
:100360000300BDF80100001D03F038FECDF80900C0
:1003700002220DF1030103F02AFE02222946DDF8D4
:100380000900801C03F023FE2A882146DDF80900BD
:10039000001D03F01CFE0020288000A9DFF8140BCC
:1003A00003F044FE05B030BD42F23411081A322881
:1003B00001DA012070470020704780B503F071FE1C
:1003C000407B002804D002F021FDDFF8EC1A086021
:1003D00001BD80B502F01AFDDFF8E01A086001BD2A
:1003E000DFF8D80A0068704710B582B000F10C033E
:1003F000D96A89680091042200A95C7DDB68C06825
:100400001818201803F0E3FD009816BD30B41488C6
:10041000651C1580052565541488651C158063547A
:1004200013885C1C1480007A585430BC704732B575
:1004300015461C4621884A1C228037224A552188AD
:100440004A1C2280007A4855022200A920884019BF
:1004500003F0BDFD2088801C208031BD2DE9F041D6
:10046000054616461F4605F10808069CA4B298F8F2
:100470001A0004FB00F2D8F8040009183888801923
:1004800003F0A5FD388898F81A10614311FA80F03E
:1004900038803888FFF788FF002803D03946304677
:1004A000FFF752FF95F9080016280AD1D8F8100076
:1004B000D8F80410415C0FF21000BDE8F04103F0E1
:1004C00074BEBDE8F08100002323205368616B6592
:1004D0002025640030B400F110039B7C914203D1CD
:1004E000006990FBF3F00DE00C46154603D2281B83
:1004F00090FBF3F006E00069001B90FBF3F095FB26
:10050000F3F1081830BC7047F8B5044603F0C9FD94
:1005100004F110018A7C134694F89F50002D1BD0E3
:100520005B1CDFF8884925684CF25036771B9F42E8
:1005300005D2DFF88C399A185219226001E05A1955
:1005400022602268B24201D100222260807B002812
:100550000CD100208873F1BD886818188860226962
:10056000904201D10020886000208873F1BD70B5F1
:1005700082B004460D461E4692B289B2FFF7AAFF2A
:1005800080B20090069B324629462046FFF766FF60
:1005900073BDF8B5044615461E462269002D00D1EC
:1005A0001546069F0097FFF7E2FF2069854206DAAD
:1005B000009733462A4600212046FFF7D8FFF1BDB9
:1005C0002DE9F04184B004460F469046A169606968
:1005D000002817D500250A4692B289B22046FFF7B7
:1005E00079FF064643463A46314689B22046FFF730
:1005F0001EFFA269CDF800803B4611462046FFF75A
:10060000C8FF36E0814218DA01250A4692B2014657
:1006100089B22046FFF75EFF064643463A4631461A
:1006200089B22046FFF703FFCDF800803B46A26960
:1006300061692046FFF7ADFF1BE00225884201D12A
:10064000012607E00A4692B2014689B22046FFF72A
:1006500041FF064643463A46314689B22046FFF7F7
:10066000E6FECDF800803B46A26961692046FFF7AF
:100670007EFFA06B80680290A06901906069009085
:100680002B46B6B2324694F908100FF20C0003F074
:100690008CFDBDE8FF8100005061636B203D256447
:1006A00020256420256420256420256420256400FD
:1006B000DFF8F8070168DFF80C0802688A4201D207
:1006C000881A03E04CF25030801A0818914205D184
:1006D000DFF8F4170978002900D100207047F8B539
:1006E00004460E46174604F10805A86D012811DAE4
:1006F000A87D012832D13B46324601212046FFF732
:1007000096FE012000903B46324629692046FFF7BD
:10071000A5FE23E094F89F00002804D0217A012050
:1007200000F0B0F820E0A868A97E884216D02A69B7
:10073000E968914206D092B289B22046FFF7CAFE1C
:10074000022806D2E8682969884207D1E86D0128A5
:1007500004DA3A4631462046FFF732FF01233A4693
:1007600031462046FFF752FE0020E8602861AB6D5D
:10077000EA6D94F908100FF20C0003F016FDA86D55
:10078000E865F1BD666C75736820256420256420DA
:1007900025640000DFF81007016806E091F89F204B
:1007A000002A01D00A6E4A6609688142F6D1704774
:1007B00010B5DFF8F806026842F21070B2FBF0F1F3
:1007C000DFF8080750F82100831A1F2B08D2DFF842
:1007D000000740F821200FF2580003F0E6FC12E079
:1007E000101A00F51C5010301F280CD201290ADB0A
:1007F000DFF8DC0600EB810040F8042C491E0FF204
:10080000440003F0D2FCDFF8C046207800280DD168
:10081000FFF74EFF4AF6C871884207D301202070C7
:100820000FF23400BDE8104003F0BFBC10BD000063
:1008300042696720496E646578203D2025642C2537
:100840006400000042696720496E64657832203D8B
:100850002025642C25640000426967206275666665
:1008600065722069732066756C6C0000DFF83C06C9
:10087000006842F21071B0FBF1F0401C052800D175
:10088000002070472DE9F04182B0DFF82456DFF8F0
:100890001C46002829D00020ADF8000020684CF24A
:1008A0005036371AC8228DF800208DF801104019F3
:1008B000022F0ED23A4600A903F089FBC7F10208C5
:1008C000424600A83918284603F081FBC4F800808E
:1008D00006E0022200A903F07AFB2068801C206059
:1008E0002068B04201D100202060FFF7E1FE0246FF
:1008F000DFF8D06530684119022001F054F9FFF7A4
:10090000D7FE2368326801460FF2140003F04DFC55
:10091000DFF8C0053168016020683060BDE8F38110
:1009200048494649206261746368204C656E203DE9
:100930002025642C2025642C20256400DFF86C051C
:100940000168DFF8800501600FF2040003F02DBCA0
:10095000486966692052657365742025640000004B
:100960000020DFF844150A6805E092F89F30002B5C
:1009700000D0401C12688A42F7D1C0B2704710B54F
:10098000DFF84445207800280FD0FFF76FFFDFF82D
:10099000401551F82020DFF82C150A600021217045
:1009A00001460FF26C0003F000FCFFF781FE002807
:1009B00003D000210846FFF765FFDFF8EC0401686B
:1009C00008E091F89F20002A03D001F160020B6E2D
:1009D00053600968814211D001F29F025378002BC5
:1009E000F7D09378002BECD0002393701A4681F84F
:1009F0009F200A6601F160025360EAE7FFF7CAFE32
:100A000014220021DFF8C804BDE8104004F0B2B899
:100A1000484946492057616B65203D2025642C20BC
:100A2000256400002DE9F04182B004460D461646CB
:100A300003F037FB04F10807D7F85C8002F0DAF91D
:100A4000D0F88000A8EB0000F865B87D00284AD0F7
:100A500094F89F00012809D1FFF7AAFE0020B8757D
:100A6000F86D01283FDAB86DF8653CE0B87E396969
:100A7000FA68531A834205D0002A30D1BA68511A55
:100A800081422CD194F90820397E0FF2600003F0E6
:100A90008CFB397E00291FD094F908200FF26400E6
:100AA00003F083FB3869B97E421892B2F96889B2C3
:100AB0002046FFF70FFD33462A46014689B22046FD
:100AC000FFF7B5FC00962B463869B97E4218F968E5
:100AD0002046FFF75EFD02E04FF0FF30F860204651
:100AE000BDE8F64110E5BDE8F38100007375737051
:100AF000656E64206669666F2066756C6C2025647F
:100B00002025640073757370656E64206669666F76
:100B10002066756C6C20322025642025640000005E
:100B20002DE9F04104460D46164603F0BAFA04F1E9
:100B30000807D7F85C8002F05DF9D0F88000A8EBD8
:100B40000000F86594F89F00002809D0F86D01288E
:100B500057DAFFF71FFE00210846BDE8F04191E695
:100B6000F86810F1010F0DD1B87D002802D02046A1
:100B7000FFF7CAFC324629462046FFF721FD3869B7
:100B8000F8603EE0F86D012834DAB86DF865386B2E
:100B9000D0F80C8094F908308268B96D0FF26800C3
:100BA00003F003FBB868B97E90FBF1F0B96D91FBDF
:100BB000F8F1814202DB4FF0FF30F860B87D002889
:100BC0000AD02046FFF7A0FC324629462046FFF710
:100BD000F7FC3869F86014E0386E002811D420461C
:100BE000FFF702FC324629462046FFF7E9FC386948
:100BF000F86006E0B87D002803D02046BDE8F0414B
:100C000082E4BDE8F08100006669666F2066756C5D
:100C10006C3320256420256420256400F8B5044643
:100C20000D46164603F03DFA074602F0E3F8B87B9E
:100C3000002805D0324629462046BDE8F840F1E6B6
:100C4000B87B002805D1324629462046BDE8F84049
:100C500066E7F1BDF8B505460E46174603F021FAE2
:100C600005F10804A17D00295BD095F90810807A70
:100C7000002837D0072905D00D2903D01A2901D023
:100C80001B291AD13B46324601212846FFF7CFFBEC
:100C9000012000903B46324621692846FFF7DEFBE3
:100CA000627895F908100FF27C0003F07EFA28466E
:100CB000FFF72AFC2069E060F1BD05F28A00817D22
:100CC000002909D0018B226BD2685143A165E165EF
:100CD0000121C1754175F1BD2846FFF715FC20695A
:100CE000E060F1BD092909D195F88A10012905D1E3
:100CF0000FF24000BDE8F44003F057BA3B463246DD
:100D000001212846FFF793FB012000903B46324625
:100D100021692846FFF7A2FB2846FFF7F5FB20696B
:100D2000E060F1BD41502053757320256420256497
:100D300000000000233E6C75785F736174202564A9
:100D40000000000070B504460D461646A07F00283E
:100D500006D094F89F00002802D12046FFF744FBFC
:100D6000206E012832462946204602DBBDE870404D
:100D700054E7BDE870406DE7F8B504460D464948B4
:100D8000466896F88B0001281DD1002086F88B005C
:100D90002888411C2980082101550020ADF8000059
:100DA00007460EE006EB8700806FADF800000222D8
:100DB00000A92888001903F00AF92888801C2880D7
:100DC0007F1C032FEEDBF1BD38B504460D4603F062
:100DD00068F9C17B01290CD10021C1732888411C0D
:100DE0002980452101550FF20C00BDE8324003F087
:100DF000DCB931BD47797220466972737420436152
:100E00006C000000F8B504460D46FFF7B5FF294613
:100E10002046FFF7D9FF244E376805E02A462146D1
:100E20003846FFF78FFF3F68B742F7D1F1BD2DE994
:100E3000F04104460D461B4EF76907F10C0898F87F
:100E40001510D8F80C00FA688018D7F8A420526959
:100E5000904700280AD0012088F81200787A0028EC
:100E600004D02A4621463846FFF76CFFB66906F1E2
:100E70000C07797DF868F2688018D6F8A4205269CA
:100E80009047002809D00120B874707A002804D057
:100E90002A4621463046FFF755FF0120BDE8F08184
:100EA000EFF00120D0DB0120B85B002034480020A7
:100EB00098670020143E012078F001207CF001208A
:100EC000B13CFFFF3048002008480020583B01207B
:100ED000E82A0120384800200288D21C02800A80BB
:100EE000704780B50B889B1AADF80030BDF8003014
:100EF000002B09D01018012100F8031C022200A9C0
:100F0000801E03F064F801BD0888C01E088001BD82
:100F10002DE9F04FADF68C2D04460D4601F06AFF29
:100F2000064603F0BEF8804610A840F6482103F0BC
:100F30004BF800208DF8020006A8282103F044F8A1
:100F400001A8142103F040F80020ADF80000074686
:100F5000D6E91C01002902D1002800F0838598F908
:100F6000090004F0D4FA002800F07C8500A9284686
:100F7000FFF7B2FFB8461CE0D6E91C01424604F078
:100F80003DFD00F0010011F0000101D100280ED05C
:100F9000C8EB0810DFF8BC1B01EB800292F90300DC
:100FA000012804D10DF1020110A8526B904708F1FD
:100FB0000108B8F1410FDFDBBA461BE029884A1C63
:100FC0002A80807808552888FFF7EEF900280DD090
:100FD000BDF8002029462046FFF783FF294620461A
:100FE000FFF7B2F900A92846FFF776FF0AF1010AD8
:100FF0004FFA8AFA9DF80200824580F22B852988F3
:10100000481C288040F2491010FB0AF010AA825CAC
:101010000A5529884A1C2A8010AA86187078085513
:101020002988481C2880701C42780A554178032979
:101030002AD0092900F09D810C2900F078811A2915
:1010400000F094821B2900F0A7811C2900F0BE82C9
:101050001D2900F0B1811E2900F0A982262900F087
:10106000E1822C2900F00D832F2900F0EA8230293B
:1010700000F06183312900F03584342900F0898340
:101080003B2900F0908499E77178032904D12988DD
:101090004A1C2A8082780A5529884A1C2A80C278EC
:1010A0000A55C178C0290FD106F22708B8F82E20BA
:1010B000D8F830102888001902F089FF2888B8F87D
:1010C0002E10081828807EE70846E0284AD106F24C
:1010D0000506002035E056F820100A0222F0FF1223
:1010E000090A01F0FF11114346F820104FEA31417F
:1010F00046F8201006EB80014A68130223F0FF1324
:10110000120A02F0FF121A434A604FEA32424A6062
:101110008A68130223F0FF13120A02F0FF121A4327
:101120008A604FEA32428A60CA68130223F0FF13D2
:10113000120A02F0FF121A43CA604FEA3242CA6032
:10114000001D1428C7DB50210FF6201003F02DF8E6
:10115000502231462888001902F039FF2888503083
:10116000288030E7791C000647D401A8321D527848
:101170003A54C9B2B2790A54491CC9B200220A547D
:101180004A1C06F20601D2B24B781354521CF38962
:10119000D2B21F0A1754521CD2B21354521C06F278
:1011A0000E03D2B29F781754521CD2B2DB7813547C
:1011B000521CD2B2B37C1354521CD2B2F37C1354DF
:1011C000521CD2B28B781354521CD2B2C97811542B
:1011D000511CC9B2B27A0A54491CC9B2F27A0A54F3
:1011E0004F1CFFB23A4601A92888001902F0EFFE11
:1011F000288850FA87F02880E5E6D6F8052006A86A
:10120000130C3B54C9B2130A0B54491CC9B20A54FB
:10121000491CD6F80920C9B2130C0B54491CC9B299
:10122000130A0B54491CC9B20A54491CD6F80D20A4
:10123000C9B2130C0B54491CC9B2130A0B54491CF4
:10124000C9B20A54491CD6F81120C9B2130C0B5468
:10125000491CC9B2130A0B54491CC9B20A54491C8F
:10126000D6F82720C9B2130C0B54491CC9B2130A73
:101270000B54491CC9B20A54491C06F22708C9B2CA
:1012800098F804200A54491CC9B298F805200A5459
:10129000491CB8F80620C9B2130A0B54491CC9B23C
:1012A0000A54491CC9B298F808200A54491CD6F8B7
:1012B0001520C9B2130C0B54491CC9B2130A0B54A4
:1012C000491CC9B20A54491CD6F81920C9B2130CDA
:1012D0000B54491CC9B2130A0B54491CC9B20A5415
:1012E000491CD6F81D20C9B2130C0B54491CC9B2B5
:1012F000130A0B54491CC9B20A54491CD6F82120C0
:10130000C9B2130C0B54491CC9B2130A0B54491C23
:10131000C9B20A544F1CFFB23A4606A928880019E0
:1013200002F055FE288850FA87F028804BE6F11C21
:10133000B1F90300C0F3072242EA0020A1F803003C
:10134000B1F90700C0F3072242EA0020A1F8070024
:10135000B1F90500C0F3072242EA0020A1F8050018
:1013600009222888001902F032FE288809302880D6
:1013700029E629880B467278032A08D10222F11C3B
:10138000181902F024FE2888801C28801BE6491CBE
:1013900029808078185516E629884A1C2A8080788A
:1013A0000855707805287FF40EAE2888411C2980E6
:1013B000311D4978015506E606F1030870780128C9
:1013C00040F0C4802888411C298098F804100155F9
:1013D0004FF00009A1E0C9EB491000EB080BDBF866
:1013E0001800010221F0FF11000A00F0FF1008436D
:1013F000CBF818004FEA3040CBF8180004220BF16C
:1014000018012888001902F0E2FD2888001D2880B4
:10141000DBF80800010221F0FF11001200F0FF10BC
:101420000843CBF80800C0F30F4141EA0040CBF875
:10143000080004220BF108012888001902F0C7FDFA
:101440002888001D2880DBF80C00010221F0FF1124
:10145000001200F0FF100843CBF80C00C0F30F415E
:1014600041EA0040CBF80C0004220BF10C01288863
:10147000001902F0ACFD2888001D2880DBF8100060
:10148000010221F0FF11001200F0FF100843CBF819
:101490001000C0F30F4141EA0040CBF810000422D5
:1014A0000BF110012888001902F091FD2888001D19
:1014B0002880DBF81C00010221F0FF11000A00F077
:1014C000FF100843CBF81C004FEA3040CBF81C005B
:1014D00004220BF11C012888001902F078FD2888ED
:1014E000001D2880BBF81600010A41EA0020ABF875
:1014F000160002220BF116012888001902F067FD80
:101500002888801C2880411C298080B2DBF82010AC
:10151000015509F101095FFA89F998F8040081453C
:10152000FFF659AFB6F84321D6F8451128880019BF
:1015300002F04DFD2888B6F8431108182880B6F847
:1015400043110FF2385002F030FE3CE505287FF4DD
:101550003AAD2888411C298098F802100155288846
:10156000411C298098F8031001552CE5F11C707876
:10157000032804D12888421C2A80B27A0255D1F867
:101580000100020222F0FF12000A00F0FF101043D7
:10159000C1F801004FEA3040C1F801000722288855
:1015A000001902F014FD2888C01D28800BE5F11CED
:1015B0000888020A42EA00200880022228880019CE
:1015C00002F005FD2888801C2880FCE4F11C72785C
:1015D000012A7FF4F8AC8078012815D12888421CB4
:1015E0002A8009780155B288D6F806102888001993
:1015F00002F0EDFC2888B18808182880B1880FF225
:10160000904002F0D2FDDEE402287FF4DCAC2888B2
:10161000421C2A800A7802552888421C2A80C979EF
:101620000155D0E4F11C0888020A42EA0020088033
:1016300002222888001902F0CAFC2888801C288011
:10164000C1E4F01C29884A1C2A8001220A552988F5
:101650004A1C2A8005220A5529884A1C2A80C12250
:101660000A5529884A1C2A8042790A5529884A1C29
:101670002A8042780A5529884A1C2A808078085591
:10168000A1E4F61C29880B463078020727D5481CB0
:101690002880307818552888411C2980317A0155D6
:1016A0002888411C2980717A0155D6F80A00010268
:1016B00021F0FF11000A00F0FF100843C6F80A00ED
:1016C0004FEA3040C6F80A00042206F10A012888D1
:1016D000001902F07CFC2888001D288073E4400774
:1016E0001ED5481C2880307818552888411C298030
:1016F000717801557068010221F0FF11000A00F0B5
:10170000FF10084370604FEA304070600422311DC2
:101710002888001902F05BFC2888001D288052E40C
:101720007288D6F80E10181902F051FC28887188BA
:101730000818288047E4F61C3068010221F0FF11E8
:10174000001200F0FF1008433060011441EA00402D
:101750003060042231462888001902F038FC2888BD
:10176000001D28807068010221F0FF11001200F0B6
:10177000FF1008437060011441EA004070600422C9
:10178000311D2888001902F022FC2888001D2880BD
:1017900019E4F61C3068010221F0FF11001200F07C
:1017A000FF1008433060011441EA00403060042219
:1017B00031462888001902F00AFC2888001D28807C
:1017C0007068010221F0FF11001200F0FF100843C1
:1017D0007060011441EA004070600422311D2888C5
:1017E000001902F0F4FB2888001D2880B06801026F
:1017F00021F0FF11001200F0FF100843B060011447
:1018000041EA0040B060042206F10801288800196E
:1018100002F0DDFB2888001D2880F2683369F0683B
:1018200031691B0243EA1263120222F0FF1223F015
:10183000FF13000A40EA0160090A00F0FF1001F0FE
:10184000FF0110431943F0603161D6F80C80D6F8DF
:101850001090F06831694FEA094949EA1849DFF800
:101860003027134602EA084209EA03039046000CB7
:1018700040EA01404FF6FF7210404246104353EADF
:101880001141F0603161F2683369F06831691346E3
:10189000084600211943F0603161F068316908227F
:1018A00006F10C012888001902F091FB2888083005
:1018B00028807069010221F0FF11001200F0FF1072
:1018C00008437061011441EA00407061042206F18E
:1018D00014012888001902F07AFB2888001D28804E
:1018E000FFF771BBF61C3068010221F0FF110012F6
:1018F00000F0FF1008433060C0F30F4141EA0040A0
:101900003060042231462888001902F060FB2888E4
:10191000001D28807068010221F0FF11001200F004
:10192000FF1008437060C0F30F4141EA004070604F
:101930000422311D2888001902F049FB2888001D67
:101940002880B068010221F0FF11001200F0FF10A2
:101950000843B060C0F30F4141EA0040B060042288
:1019600006F108012888001902F031FB2888001DC3
:101970002880F068010221F0FF11001200F0FF1032
:101980000843F060C0F30F4141EA0040F0600422D8
:1019900006F10C012888001902F019FB2888001DA7
:1019A0002880FFF710BBF61C2888411C298031785D
:1019B0000155D6F80100010221F0FF11001200F0DC
:1019C000FF100843C6F80100C0F30F4141EA004090
:1019D000C6F801000422711C2888001902F0F7FAE9
:1019E0002888001D2880D6F80500010221F0FF118B
:1019F000001200F0FF100843C6F80500C0F30F41C5
:101A000041EA0040C6F805000422711D288800192B
:101A100002F0DDFA2888001D2880D6F809000102AE
:101A200021F0FF11001200F0FF100843C6F8090072
:101A3000C0F30F4141EA0040C6F80900042206F154
:101A400009012888001902F0C2FA2888001D2880A0
:101A5000FFF7B9BABDF8002029462046FFF741FA42
:101A600003F083FD0DF68C2DBDE8F08F504420531C
:101A7000462053656E742564000000004F4A483AC2
:101A800020415442442073697A653A20256400005D
:101A90004F4A483A20415044522073697A653A20AF
:101AA000256400002DE9F04105460E4602F0F9FAE2
:101AB0000746DFF8E0442078401C20706078F02171
:101AC000084202D0992003F0BFFF04F02AF86078A2
:101AD000401C607097F81880B8F1000F27D030884C
:101AE000404480B2FEF760FC002803D0314628460F
:101AF000FEF72AFC3088411C318003214155308893
:101B0000411C318000F80580424607F119013088F8
:101B1000401902F05CFA3088404430804FF4FA7289
:101B2000002107F1190003F025F8002038766078CD
:101B3000F021084202D0992003F086FF6078401E11
:101B40006070C0B2002801D103F0E5FFBDE8F041AC
:101B500004F011BABC80012038B504460D4602F0ED
:101B6000A0FA817A002909D1417B002906D1298870
:101B70004A1C2A8006220A550121417331BD38B51D
:101B800004460D46288800280CD02046FFF78AFF1F
:101B900029462046FFF7E0FF29462046BDE83440AD
:101BA000FEF7D2BB31BD14B585B0049101A9002266
:101BB000134614461CC10A21ADF8001004218DF80B
:101BC00004108DF805000A4605A90DF1060002F083
:101BD000FEF9042204A90DF10A0002F0F8F90598B3
:101BE000002803D000A901A8FEF7AEFB06B010BD87
:101BF00080B502F056FA4FF4967102F0B7FC072058
:101C00008DF802000120ADF8000000A90DF10200DE
:101C1000FEF79AFB01BD00B597B000A85C2102F069
:101C2000D3F90020ADF858000DF101000B214170EF
:101C300000218170C17008468DF800003F208DF8AA
:101C4000010000A802F06AF80FF2080002F0ADFAF5
:101C500017B000BD537461727420466972737420AA
:101C600063616C0000B597B000A85C2102F0ACF98C
:101C70000020ADF858000DF101000B21417000214A
:101C80008170C17001208DF800003F208DF80100A7
:101C900000A802F043F80FF20C0002F086FA17B029
:101CA00000BD0000456E6420466972737420636154
:101CB0006C0000002DE9F04383B005460F469046C6
:101CC00002F0EFF981460026D5F80900041D2878B6
:101CD0000146012900F08B800F293AD0352946D0E2
:101CE00036293BD039294BD0402952D0802900F0E9
:101CF000CB80812900F0D280822900F0CF80852915
:101D000000F0CC80862900F0C980882900F0C680C8
:101D10008A2900F0CB808B2900F0E6808C2900F026
:101D2000F2808D2900F0FE80DD2900F00881DF2996
:101D300000F01C81F02931D0F42942D0F6294BD093
:101D4000F82900F08A80F92956D0FF2900F0EF80A9
:101D5000A1E099F81600207001209DE004F08BFEB0
:101D600015220146204602F032F9012094E00120BC
:101D700006F029FE304606F02BFE012020708BE095
:101D80000FF22C2002F011FA07F013F92070012055
:101D900082E0204606F0BCF801207DE004227E4966
:101DA000204602F014F908F049F8002804D109F09F
:101DB00041F9012008F03EF801200AF0C5F80120A1
:101DC0006AE0484602F097FB042209F11001204620
:101DD00002F0FDF801205FE00322214630466F4B00
:101DE0009B68D3F8A4301B6A9847012054E0204632
:101DF0000AF062FA01204FE0B5F80300C008D5F8F8
:101E000005204FF4FA6111FB0021654E654800681A
:101E1000801982421BD106F543405030814201D3E4
:101E2000614A5118471AB5F8012097420BDA3A4631
:101E3000204602F0CCF8B5F80100C21B3146381933
:101E400002F0C5F890E0204602F0C1F88CE0B5F849
:101E50000120204602F0BBF886E03046ADF80400D1
:101E600001206979012900D1032009F01AFB09F04A
:101E700053FBADF8040009F066FB022201A92046DD
:101E800002F0A5F8012007E0D5F8050020702146F2
:101E9000304601F09CFA3046BDE8FE8331462170A1
:101EA000214600F07F0001F092FAF4E70120207053
:101EB0003A4845683746287F002801D13046EBE78D
:101EC000687A002804D1D5F8A40040688047074606
:101ED0002046D5F8A410C9698847002FDBD0D5F873
:101EE000A40080688047D6E70120B5F80310C1F34D
:101EF000C101091D884040F00200207021460120E8
:101F000001F065FAC7E799F80000207099F803001E
:101F1000607099F80500A07099F80600E070012043
:101F20002071B9E720460AF0DBF90646B3E704F171
:101F30000802211D20460AF0A7F80120ACE76879C5
:101F4000164951F82050687A00280BD0424639468D
:101F50002846FEF7C4FB154908200AF083FA012041
:101F6000207001E030462070012095E768790B4928
:101F700051F82050286995F8221090FBF1F0401E8E
:101F80000090042200A9204602F021F8012083E7F6
:101F90000000FFFF683A0120D43B0120D0DB012084
:101FA0009867002038480020B03CFFFF7C75012076
:101FB000233E49525F524553554C54002DE9F041A0
:101FC000B4B0064602F06DF8054600F013FFD6F8EF
:101FD00009100C1D3178002201924FF0FF32189247
:101FE00017460A46312A00F06481322A00F06B81DC
:101FF000332A00F07781342A00F07E81372A73D0AB
:10200000382A00F03581432A00F0A086442A00F0E7
:10201000A286A12A00F08C81A22A00F0D881A42AED
:1020200000F0E381A52A7BD0A62A00F07F80B12AA8
:1020300000F04D84B22A00F02586B82A00F0F08125
:10204000C12A00F01182CD2A00F09780CE2A00F03C
:10205000AC80D02A2FD0D12A27D0D22A30D0D32A70
:1020600034D0D42A39D0D62A4AD0D72A48D0D82A30
:102070004ED0D92A4CD0EC2A71D0F12A5CD0F22A69
:1020800000F0AC80F52A00F0C780F72A00F0DC8071
:10209000FA2A00F04586FB2A00F04586FD2A00F06A
:1020A000C780FE2A00F04986DEE00021284602F0C3
:1020B0006AFA0120D9E0002009F046FF0120D4E0AF
:1020C0000121284602F05FFA0120CEE00020A8722C
:1020D000A873FEF754FC0120C7E00120A87200207D
:1020E00068730120A873C0E0002221461046DFF883
:1020F000703C1B68D3F8A4301B6A98470120B4E0F9
:10210000D62901D1012000E00020E8720120ACE0D6
:10211000D92901D1012000E0002028730120A4E08A
:10212000D6F809000AF023FA01209EE0D6F809004B
:102130000AF052FB012098E000210CE00A180B5D28
:1021400082F88430022905D10A5D80F887200A5D73
:1021500080F88820491C0329F0DB012085E02378E2
:1021600040F63C02DFF8FC1BDFF8FC0B02F01DF828
:10217000207806F005FA012077E0002511E0DFF86D
:10218000E00B466806EB8506022204EB450106F1EA
:10219000780001F01CFFB16FDFF8D00B02F005F8FA
:1021A0006D1C032DEBDB01205FE0002512E0DFF862
:1021B000B00B066806EB4506022204EB450106F16A
:1021C000700001F004FFB6F97010DFF8A40B01F005
:1021D000ECFF6D1C032DEADB012046E0297C09069B
:1021E00001D4012041E02178627812EB0121A0F8AE
:1021F0008A10A178E27812EB0121A0F88C1004215A
:102200002046DFF85C2BD269D2F8A420926990476F
:10221000002829D0012028E0032221460120DFF8F0
:10222000403B9B68D3F8A4301B6A984701201CE010
:102230001B2221460720DFF8283B9B68D3F8A430F7
:102240001B6A9847012010E0DFF8140B8669D6F866
:10225000A40080688047002806D00122214605207E
:10226000D6F8A4301B6A9847002034B0BDE8F0814E
:1022700006F051FD002808D1DFF8F80A01F095FFBB
:10228000002007F00AF80020EFE7B6F90110204619
:1022900006F075FD002808D1DFF8DC0A01F085FFA3
:1022A000002006F0FAFF0020DFE7012006F0F5FF2E
:1022B000DAE706F092FB012801D10120D5E720469C
:1022C00006F008FBD0E706F088FB012801D10120C9
:1022D000CBE7204606F02BFB20780028C4D006F080
:1022E00059FBC1E706F079FB012801D10120BCE7C9
:1022F000207806F057FBB7E706F06FFB012801D105
:102300000120B2E7DFF8740A01F04FFF002006F069
:102310005AFB012006F038FA04F053FD012006F0C4
:1023200057FB207806F05DFB06F098FA01209CE749
:1023300094F900500422611C01A801F048FEB6F88F
:102340000100062806DB0422611D18A801F03FFEEB
:1023500094F909702846DFF8081A042802D10A699E
:102360000023937251F8206000F044FDD0E91C2353
:10237000C2F3401800F03EFDD0E91C23C2F38020D8
:10238000804400F037FDD0E91C23C2F3800000EB4D
:10239000080296F90800072804D1717A002901D0B3
:1023A000002A04D0182809D1707A002806D0717A42
:1023B000DFF8CC0901F0F9FE012056E70097189BE1
:1023C00000220199284601F09FF820704CE794F90B
:1023D00000500422611C01A801F0F9FD00231A46F7
:1023E0000199284601F0EEF83FE794F900500422E5
:1023F000611C01A801F0EBFDB6F80100062806DB20
:102400000422611D18A801F0E2FD94F909700097FB
:10241000189B00220199284601F036F9207023E725
:1024200020780146032906D01A2912D02C2910D071
:102430003A290ED011E060780DF1090250700128A0
:1024400005D1A0788DF80B00204601F007FC012093
:102450000BE7204601F002FCF9E794F9011040B2C5
:102460000020C046C0B200E720780146491E51D086
:102470000D390DD0C91E55D0491E032921D9091F78
:1024800000F0A680491E00F0EB8019393AD006E230
:102490000E208DF8080060780DF109025070A178C7
:1024A0008DF80B10E2780DF10B035A700023ADF894
:1024B0000D3052B249B240B202F0B6F801F0CCFB96
:1024C000EDE18DF808000146122903D10DF1090054
:1024D00062784270132902D160788DF80B001429BC
:1024E00003D10DF10B0062784270152903D10DF173
:1024F00009006178417062782178DFF8880801F07E
:1025000054FECCE130208DF808000DF1090061780F
:102510004170C4E101208DF808000DF10B006178D5
:102520004170BCE10DF1090061784170A0788DF82F
:102530000B000DF10B00E178417020798DF80D0052
:10254000002802D001281FD030E06079A179090469
:1025500001EB0060E17900EB0120217A4018CDF811
:102560000E000DF10E06607AA17A11EB0020B0800A
:10257000E07A217B11EB0020F080607BA17B11EBE6
:102580000020ADF8160011E06079A17911EB002070
:10259000ADF80E000DF10E06E079217A11EB002066
:1025A0007080607AA17A11EB0020B08019A80DF13B
:1025B0000A010E220AF0E6FA19A80FC802F059F92A
:1025C00002F0BEF9012840F06A8101F08FFB66E15C
:1025D0006078A178090401EB0060E17800EB01204C
:1025E00021794018CDF80A006079A179090401EB3E
:1025F0000060E17900EB0120217A4018CDF80E004F
:10260000607AA17A090401EB0060E17A00EB012015
:10261000217B40180DF10E014860607BADF816007B
:102620000DF11700A17B4170E17B8170217CC170AD
:10263000617C0171A07CE17C11EB002000B20146BD
:10264000ADF81C1007A9227D00EB0220627D8018E6
:102650004880A07D08710DF10A0002F093F91EE197
:1026600060788DF809001D283ED10DF10E06A17885
:102670007171A17801290DD1E178227912EB012144
:10268000ADF80A1089B20A460146DFF8FC0601F0EF
:102690008CFD04E102290BD1E078217911EB0021B6
:1026A000ADF80C1089B2DFF8E40601F07EFDF6E02B
:1026B00003290AD1E078217911EB0021F18089B258
:1026C000DFF8CC0601F071FDE9E0042940F0E78075
:1026D000E078217911EB0021ADF8161089B2DFF80E
:1026E000B40601F062FDDAE0032828D1A1780DF1EB
:1026F0005A056970DFF8A00601F057FD68780128D7
:1027000016D10020142880F2CA8004EB8001CA7818
:102710000B791B0403EB02624B7902EB03228979EC
:10272000511802AA02EB8002C2F80210401CE9E72D
:10273000022840F0B480E0788DF85A00AFE01C2801
:1027400027D1A0788DF80D00A078012808D1E17874
:102750000DF109025170DFF8440601F026FD9EE0FC
:10276000022807D1E1788DF80B10DFF8340601F06C
:102770001CFD94E0032800F09280052840F08F8033
:10278000E1780DF10B035970DFF8180601F00DFD2B
:1027900085E02C2830D10DF10E00A1788171A07850
:1027A000012803D1E0788DF80E0078E0022806D1E8
:1027B000E078217911EB0020ADF815006FE00328D7
:1027C00006D1E078217911EB0020ADF8170066E022
:1027D000042807D1E078217911EB00200DF11701D1
:1027E00048805CE005285AD1E078217911EB00207F
:1027F0000DF11701888052E0302820D1A0788DF8A3
:102800000B00A078012809D1E078022802D10AF053
:10281000F2FF44E00DF10901487040E002283ED18A
:1028200040F6DE22DFF83C15DFF87C0501F0BDFC48
:10283000B6F80110E01C0AF0E2FF012015E534288B
:102840002DD1A07801282AD10DF10A00E178227952
:10285000120402EB0161627901EB0221A27989186D
:1028600000EE101AB8EEC00ADFEDA60A80EE200ACC
:1028700010EE101A0160016800EE101A10EE100A36
:102880000BF00AF902460B46DFF8200501F08DFC3B
:102890000DF10A00016800EE101A0BF031F9062064
:1028A0008DF8740020788DF875000DF1770002A97D
:1028B00055220AF067F90DF175000B2141700020D7
:1028C000ADF8CC001DA801F029FAC0B2CDE4207803
:1028D0000146412905DBDFF8D80401F066FC002041
:1028E000C3E4C1EB0112DFF8CC1401EB8201897E55
:1028F000012940F09381014603292ED006296BD08F
:10290000092931D00C294BD00D2957D0192900F0B5
:1029100097801A296ED01B2900F0A7801C2900F08F
:10292000E3801D2900F0B9801E2900F0ED802629E2
:1029300000F0F880272900F003812C2900F028817D
:102940002D2900F03E812F2900F05781302900F019
:102950004681342900F04A815BE10322611C0DF1BC
:102960000A0001F034FB59E10722611C0DF10A0055
:1029700001F02DFBBDF80A00010A41EA0020ADF884
:102980000A00BDF80C00010A41EA0020ADF80C0075
:10299000BDF80E00010A41EA0020ADF80E003DE14D
:1029A0000322611C0DF10A0001F011FBBDF80B00C0
:1029B000010A41EA0020ADF80B002FE10322611C5F
:1029C0000DF10A0001F003FBBDF80B00010A41EA1A
:1029D0000020ADF80B0021E10122611C0DF10A007D
:1029E00001F0F5FA0DF109004178DFF8CC0301F0B0
:1029F000DCFB13E10B22611C0DF10A0001F0E7FA88
:102A0000DDF80B00010221F0FF11000A00F0FF10B9
:102A10000843CDF80B004FEA3040CDF80B000DF124
:102A20000E067088010A41EA00207080002396F9A2
:102A3000062096F9051096F9040001F0F5FDEDE089
:102A40000622611C0DF10A0001F0C1FABDF80A006E
:102A5000010A41EA0020ADF80A00BDF80E00010AA3
:102A600041EA0020ADF80E00D8E00422611C0DF10F
:102A70000A0001F0ACFABDF80A00010A41EA0020A0
:102A8000ADF80A00BDF80C00010A41EA0020ADF8DB
:102A90000C00CA4801F089FBC0E00922611C0DF15D
:102AA0000A0001F094FABDF80A00010A41EA002088
:102AB000ADF80A00BDF80C00010A41EA0020ADF8AB
:102AC0000C00BDF80E00010A41EA0020ADF80E002E
:102AD0000DF10E06002396F9042096F9031096F9DD
:102AE000020001F0A1FD99E00DF10900617841704B
:102AF000A0788DF80B00A2786178B14801F055FB01
:102B00008CE000BF00401C460322611C0DF10A004E
:102B100001F05DFABDF80B00010A41EA0020ADF8B2
:102B20000B007BE00522611C0DF10A0001F04FFA59
:102B3000BDF80B00010A41EA0020ADF80B006DE082
:102B40000A22611C0DF10A0001F041FABDF90A00E8
:102B5000C0F3072141EA0020ADF80A00BDF90C00DE
:102B6000C0F3072141EA0020ADF80C00BDF90E00CA
:102B7000C0F3072141EA0020ADF80E000DF10E066A
:102B8000B6F90200C0F3072141EA0020708045E059
:102B90000822611C0DF10A0001F019FABDF80C00C1
:102BA000010A41EA0020ADF80C000DF10E060023E9
:102BB00096F9032096F9021096F9010001F034FD10
:102BC0002CE00222611C0DF10A0001F000FABDF8B0
:102BD0000A00010A41EA0020ADF80A001EE00222C4
:102BE000611C0DF10A0001F0F2F917E00422611CEA
:102BF0000DF10A0001F0EBF910E00DF10900E178A8
:102C0000417020798DF80B000DF10B006179417056
:102C100004E08DF8080060788DF8090020780146FE
:102C2000052908D1674801210170687A002810D170
:102C30000846FFF71ABB18290BD18DF808006078F9
:102C40008DF809000DF10900A1784170E0788DF848
:102C50000B0000208DF8740020788DF875000DF1C0
:102C6000770002A9552209F08DFF0DF175000B21A7
:102C700041700020ADF8CC001DA801F04FF8C0B2A3
:102C8000FFF7F3BA20780146412906DB0FF238102E
:102C900001F08BFA0020FFF7E8BA052905D1494871
:102CA000002101700120FFF7E0BA1A291CD1082287
:102CB000611C0DF10A0001F08AF9DDF80B00010238
:102CC00021F0FF11000A00F0FF100843CDF80B00BF
:102CD0004FEA3040CDF80B000DF10E067088010A66
:102CE00041EA0020708005E02C2903D10DF1090094
:102CF0006178417001208DF8740020788DF875009E
:102D00000DF1770002A9552209F03CFF0DF1750085
:102D10000B2141701DA801F001F8C0B2FFF7A5BA60
:102D20000120FFF7A2BA2078002803D10FF2B800E3
:102D3000C046C0460120FFF798BA04F10802211DE1
:102D4000204609F061F90120FFF78FBAFEF763FF13
:102D50000120FFF78ABAFEF785FF0120FFF785BA49
:102D6000D0DB0120C8510308E05103080C520308CE
:102D7000185203082452030834520308445203082B
:102D800054520308785203088852030898520308E3
:102D9000A4520308B0520308BC520308D0520308DF
:102DA000E4520308F85203080C530308485303087D
:102DB00058530308BC800120745303088053030850
:102DC0008C530308EFF001204C6962726172792024
:102DD00072616E6765206973206F7665722C205270
:102DE000656D6F766500000051505F524551554545
:102DF000535400000048704748E1012080B5FFF7B8
:102E0000F9FFDFF8581C4860012002BD80B509F0C9
:102E1000BBF9DFF84C1CD1E90023801A02BD2DE973
:102E2000F8430446002005460646DFF8381C49688A
:102E300004F108073A697B6802EB030894F908205B
:102E4000002A15D1B8F90000B8F90250B8F90460A9
:102E5000B7F86810411AA8F80010B7F86A10691A94
:102E6000A8F80210B7F86C10711AA8F8041035E031
:102E700004F18409012A1ED1B8F80010A4F88410C6
:102E8000B8F80210A9F80210B8F80410A9F8041054
:102E9000B4F884103A6F891AA8F80010B9F8021033
:102EA0007A6F891AA8F80210B9F80410BA6F891A53
:102EB000A8F8041012E0B4F88420A8F80020B9F8AB
:102EC0000220A8F80220B9F80420A8F804208A6F8C
:102ED0003A67CA6F7A67D1F88010B96794F9081019
:102EE000002951D1B8F90010C913B1EBE03F14D05B
:102EF000B7F96810C913B1EBE03F0ED00FF67C3084
:102F000001F053F9B8F90000012802DBDFF8580B93
:102F100001E047F6FF70A8F80000B8F90210C913E5
:102F2000B1EBE53F14D0B7F96A10C913B1EBE53F37
:102F30000ED00FF6543001F038F9B8F9020001282C
:102F400002DBDFF8240B01E047F6FF70A8F802006F
:102F5000B8F90410C913B1EBE63F70D0B7F96C10A3
:102F6000C913B1EBE63F6AD00FF6283001F01DF926
:102F7000B8F90400012802DBDFF8EC0A01E047F6AB
:102F8000FF70A8F804005AE0012958D1B4F9840070
:102F9000B8F90010C913B1EBE03F14D0B7F97010C5
:102FA000C913B1EBE03F0ED00FF6D02001F0FDF8D1
:102FB000B8F90000012802DBDFF8AC0A01E047F6AF
:102FC000FF70A8F8000004F18409B9F90200B8F90B
:102FD0000210C913B1EBE03F14D0B7F97410C91354
:102FE000B1EBE03F0ED00FF6A02001F0DEF8B8F90B
:102FF0000200012802DBDFF8700A01E047F6FF70EB
:10300000A8F80200B9F90400B8F90410C913B1EB2B
:10301000E03F14D0B7F97810C913B1EBE03F0ED000
:103020000FF6702001F0C1F8B8F90400012802DBA6
:10303000DFF8340A01E047F6FF70A8F8040094F9BD
:103040000800002804D1002000E0401C0328FCDB1D
:10305000BDE8F183000000002DE9F0470746B8699C
:10306000F96800EB010800252E462C46A24697F988
:103070000890B9F1050F03D3B9F10E0F40F0C880E5
:10308000B9F1010F02D0B9F10E0F02D13846FFF7A6
:10309000C6FE97F90800002806D1B7F97050B7F9B5
:1030A0007260B7F9744007E0012801D00E2803D1FF
:1030B000BD6FFE6FD7F880404846012804D9C01E76
:1030C00002D00B3840F09E80B9F1000F01D14FF6CD
:1030D000FF7ADFF888094068B9F10E0F03D0484441
:1030E00090F8840001E090F88500401E06286AD818
:1030F000DFE800F004101F2A3A465600B8F9020033
:10310000B8F80010AAEB0101B8F904203346AAEB85
:10311000050560E0B8F80000AAEB0000B8F802105E
:10312000AAEB0101B8F90420AAEB0503AAEB0605F6
:1031300051E0B8F80200AAEB0000B8F90010B8F9A5
:103140000420AAEB060346E0B8F80000AAEB000052
:10315000B8F90210B8F80420AAEB0202AAEB0503A2
:103160003546AAEB040436E0B8F90200B8F90010BD
:10317000B8F80420AAEB02023346AAEB04042AE0C2
:10318000B8F90000B8F80210AAEB0101B8F8042061
:10319000AAEB02022B46AAEB0605AAEB04041AE0EE
:1031A000B8F80200AAEB0000B8F80010AAEB010181
:1031B000B8F80420AAEB0202AAEB0603AAEB050565
:1031C000AAEB040407E0B8F90000B8F90210B8F956
:1031D00004202B463546B9F1010F04D1002600E04A
:1031E000761C032EFCDBA8F80000A8F80210A8F853
:1031F0000420B9F10E0F05D1A8F80630A8F8085040
:10320000A8F80A40B9F1000F02D13846FFF707FECF
:103210000120BDE8F087000070B404680D681668EE
:103220005B1E062B27D8DFE803F004080D11161BE0
:1032300020000560604208601DE062420260684252
:10324000086018E06A4202600C6014E061420160AC
:10325000704210600FE005600C60704210600AE080
:10326000684208607042106005E06B420360604293
:1032700008607042106070BC7047000070B582B08A
:103280008169C2688A1890F9081008460A2800F275
:103290009880DFE800F0062A7496965096969681FC
:1032A0008F00B2F90240B2F90450DFF8B00741686C
:1032B0009FEDC30AB2F9000000EE900AF8EEE00AB2
:1032C00060EE800AC1ED000A00EE904AF8EEE00AD6
:1032D00060EE800AC1ED010A00EE905AF8EEE00AB5
:1032E00020EE800A81ED020A6FE0B2F90060B2F9C7
:1032F0000240B2F9045000F0D4FE90ED840ADFF8E9
:103300005C07406800EE906AF8EEE00A60EE800A22
:10331000C0ED030A00EE904AF8EEE00A60EE800A83
:10332000C0ED040A00EE905AF8EEE00A20EE800AA2
:1033300080ED050A49E00020009010680090DFF859
:103340001C0741689DED000AB8EEC00ADFEDCD0A0A
:1033500020EE200A81ED0C0A91ED0C0AB5EE400A30
:10336000F1EE10FA31D090ED020AD1ED0C0A30EEF8
:10337000200A80ED020A0188491C018025E0DFF85F
:10338000DC0641681088A1F85A0001F25A00518801
:1033900041809188818018E0DFF8C006416801F221
:1033A0005A001188C1805188018191884181D1885A
:1033B00081810AE0DFF8A4064068118880F868106F
:1033C00003E00FF2DC6000F0F0FE012076BD70B586
:1033D0000D46DFF8901651F820400026207F002887
:1033E00001D1304670BD607A002804D0D4F8A40022
:1033F0008068804706462846D4F8A410C9698847E3
:103400000546002E03D0D4F8A40040688047284623
:1034100070BD01207047F8B51C4692FBF1F300F235
:103420009F0600F108057778012F17D190F90870F1
:103430000C2F10D0502B02DAB2F57A7F08DB01276F
:1034400080F89F70B0F8A2709F4204DA3B4602E019
:10345000002780F89F700027B77006E0AE68AF7E47
:1034600096FBF7F69E4200DA3346002A18D490F90C
:1034700008000C2804D003FB01F0A865E86501E012
:10348000AA65EA65286E002802D5EB6D181AE86572
:10349000E86DDFF8C8355B68D3F880301818E86548
:1034A000009413460A46E96D0FF2006000F07DFEBD
:1034B000002C02D4A00700D52C76F1BD00210166B6
:1034C0004161816190F90810112901D000218177B3
:1034D0007047042817D101F10C008A7A012A09D01B
:1034E000072242750B228275DFF88025CA600B2106
:1034F000416070471522427519228275DFF87025E8
:10350000CA601921416070472DE9F243044615460F
:103510001E461D2C28D22746DFF8480550F8278084
:1035200098F81C0000281FD000A800F014F99DF99D
:103530002090B9F1000F09D45FEAC97006D54B4657
:10354000324600994046FFF764FF36E0214600A866
:1035500000F018F941462046FFF7BBFF21462846F8
:1035600000F02EF9002801D1002026E0002D12D114
:1035700098F80900012808D139460FF24C5000F0A4
:1035800014FE49464046FFF799FF4B4632460099E4
:103590004046FFF740FF01232A460099204600F0ED
:1035A00067F900F0C4F9002C06D198F80900012849
:1035B00002D100980AF0AEFD0120BDE8F2830000C0
:1035C00060F69C3A2DE9F243044615461E461D2C32
:1035D0000BD22746DFF88C0450F82780FDF7C0F99E
:1035E000814698F81C00002801D1002047E000A87F
:1035F00000F0B1F82146284600F00FF9002D29D13E
:10360000FDF756F8002816D098F89F00002812D031
:10361000FDF74EF84B46024639460FF2B44000F033
:10362000C4FDB9F1010F02D1FDF788F903E00021D3
:103630000846FDF727F998F80900002803D131461C
:103640004046FFF73BFF0020C8F8600088F89F0065
:1036500088F8A10000232A460099204600F008F9C6
:1036600000F065F9002C09D198F80900012805D16E
:103670000BF068FB012801D10AF06DFD0120BDE8C7
:10368000F28300000AD7233C2DE9F24F0446154689
:103690001E461D2C27D22746DFF8C80350F8278086
:1036A000FDF75EF9814608F1140A9AF8080000282F
:1036B00019D000A800F04FF89DF928B0BBF1000F19
:1036C00009D45FEACB7006D55B4632460099404686
:1036D000FFF79FFE3DE005EB450008EB8000806BA7
:1036E0008068002801D5002033E0DAF84C0000287B
:1036F00006D1012E04DB0020C8F81400CAF804002B
:10370000002D1AD1FCF7D4FF002816D098F89F009E
:10371000012812D1FCF7CCFF024639460FF2C03027
:1037200000F043FDB9F1010F02D1FDF707F904E004
:103730002146C9B20020FDF7A5F85B463246009944
:103740004046FFF768FE2A460099204600F0BAF886
:103750000120BDE8F28F0168C82902D1B4210160BF
:103760007047422902D13C21016070478A1F042A18
:1037700002D20A21016070470B39092901D21421B4
:103780000160704710B50C46B64A52F824200F2C41
:1037900005D0102C03D01A2C01D01B2C0FD1C9B28C
:1037A000D2F8A420926990470F2C01D0102C06D19A
:1037B00021460FF24030BDE8104000F0F6BC10BDCD
:1037C000F8B504460225A74850F82160707A002811
:1037D0001ED106F1A407214649B230467A68126824
:1037E000904700280ED0D6F8A400406880470028F3
:1037F00004D129464D1EC9B20029F4D1002801D1B7
:103800000020F2BD214649B230467A68526890479E
:10381000707A401C70720120F2BDF8B504469148E0
:1038200050F821500226687A01281AD105F1A40720
:10383000214649B228467A689268904700280AD003
:10384000D5F8A40080688047002804D13046461E81
:10385000C0B20028F4D1214649B228467A68D2681D
:103860009047687A002801D0401E68720120F2BD9E
:1038700018B404467B4850F824000C2C17D0112CA7
:1038800015D00D2C13D0192C11D01A2C0FD01B2CA5
:103890000DD000F13804246F012B52B203D12369FB
:1038A00001B010BC1847636901B010BC1847806BA9
:1038B000012B02D11421C16002E04FF0FF31C16041
:1038C00011BC7047F8B50C461546664951F82060A2
:1038D0000C282BD0112829D00D2827D01A2825D024
:1038E0001B2823D0192821D005EB450006EB8007C3
:1038F000B86B8068844219D0012C17DB0FF20020CE
:1039000000F053FC2A4652B2B86B81683046D6F8B4
:10391000A8305B6998472A4652B221463046D6F80D
:10392000A8301B699847BDE8F14000E0F1BD70B5D3
:103930006FF0004634464F48016804E08A68A242AE
:1039400000DA144609688142F8D14B4D2878401CB2
:1039500028706878F021084202D0992002F074F8AB
:1039600002F0DFF86878401C6870B44200D100248F
:103970003A4E7068C467D0F8802021468A4212D03F
:10398000002901D0002A0BD1C0F880100FF280105E
:1039900000F00BFC7068D0F8800000F0E2FB02E061
:1039A00001200BF017FA6878F021084202D0992024
:1039B00002F04AF86878401E6870C0B2002801D151
:1039C00002F0A9F802F0D7FA012070BD38B505461B
:1039D000294C2078401C20706078F021084202D0E9
:1039E000992002F031F802F09CF86078401C607079
:1039F00029460FF2301000F0D8FB18484068C0F894
:103A000080501C48016805E08A68B2FBF5F26A4301
:103A1000CA6009688142F7D16078F021084202D07B
:103A2000992002F011F86078401E6070C0B2002842
:103A300001D102F070F8BDE8314002F09CBA0D49A6
:103A40000A6808E01369012B01DAD368136113696E
:103A50001B1A136112688A42F4D17047B0EE01203C
:103A6000C0EF0120D0DB01200080FFFF005F0020BD
:103A700060ED012024480020683A01205820697335
:103A8000206F76657200000059206973206F76659B
:103A9000720000005A206973206F76657200000082
:103AA00055435354282564294E53000062617463C2
:103AB000682072617465203D2025642025642025DE
:103AC0006420256400000000416464202564000037
:103AD000534D2025642C25642C2025640000000013
:103AE0006368616E676520726174652025642C25AA
:103AF000640000004F44522025642C2025640000FF
:103B00006368616E67652072617465320000000051
:103B1000675F707453682D3E6354696D6572203D14
:103B2000202564006374696D6572203D2025640062
:103B300077487047F8B50C461646012500282BD16A
:103B4000C6EB0610724901EB8007386AE040C007F7
:103B500008D523463A6A31460FF2743000F025FB4F
:103B60000220F2BD4FF0FF30009003462A467968EC
:103B70002046FFF7C9FC00280CD023463A6A31469C
:103B80000FF25C3000F011FB386A2946A14008436F
:103B900038622CE00220F2BD012828D1C6EB0610C5
:103BA0005B4901EB8007386AE040C00708D4234630
:103BB0003A6A31460FF2383000F0F7FA032516E082
:103BC0004FF0FF332A4679682046FFF7FBFC0028B8
:103BD00007D023463A6A31460FF2243000F0E5FA66
:103BE00000E00325386A0121A14088433862284655
:103BF000F2BD01F084BD02B598B00021ADF85810B7
:103C00008DF801100DF101010A224A7000228A701C
:103C1000CA7005218DF800108DF80100042218A942
:103C20000DF1030000F0D3F90020ADF8580000A812
:103C300000F074F819B000BD10B40022884201D31E
:103C4000421A06E00B1A334CA34202D3324A101830
:103C5000421A104610BC70470BF025BE38B54478A8
:103C600085780078032824D01A2804D02C282CD05A
:103C70003A2833D031BD012C0CD101200DF0EDFBE1
:103C8000012322461A210FF2882001B0BDE83040FE
:103C900000F08BBA022C28D102200DF0DEFB0223AB
:103CA00022461A210FF27C2001B0BDE8304000F01E
:103CB0007CBA012C19D128460BF012FE29460FF2CE
:103CC0007820BDE8344000F070BA012C0DD12946AF
:103CD0000FF27020BDE8344000F067BA012C04D127
:103CE0000120BDE832400EF087B831BD0EF0B4B807
:103CF0000022412809D2C0EB0013054800EB8300E5
:103D0000006AC840C00700D5012210467047000075
:103D1000BC800120A1780F05005C260530B595B068
:103D20000446012594F90000062800F2BC80DFE873
:103D300000F0042648647AB2B600E11C82B06846FE
:103D4000552208F01FFF0CBC94F9021094F90100F1
:103D500001F0DFF8022809D1607801F0D4FA0025DB
:103D600061780FF2E81000F020FAA2E0032840F09A
:103D7000A08061780FF2DC1000F017FA99E060780B
:103D80001A280BD1E01C01F085FDA37AD4F8062097
:103D900061790FF2C81000F008FA04E02C2802D173
:103DA000E01C01F077FD94F9021094F9010001F094
:103DB000BFF903287DD161780FF2B81000F0F5F952
:103DC00077E0B4F8581000A801F0B7FA9DF90400A4
:103DD00002280AD1009800B201F095FA0025009956
:103DE0000FF2981000F0E1F963E0032861D1009927
:103DF0000FF2901000F0D9F95BE00EF0C4FA02283F
:103E000009D1607801F07FFA002561780FF27C100B
:103E100000F0CBF94DE003284BD161780FF274101C
:103E200000F0C3F945E0607805280CD128460EF073
:103E30008CFB02280DD003283BD161780FF264106F
:103E400000F0B3F935E002280DD10EF088FC02280D
:103E5000F1D1607801F057FA002561780FF23C103B
:103E600000F0A3F925E02F2823D10EF0E7FD02286A
:103E700009D1607801F047FA002561780FF22C1023
:103E800000F093F915E0032813D161780FF22410A4
:103E900000F08BF90DE0204601F0B4FA09E020466D
:103EA00001F05DFC05E061780FF2101000F07DF983
:103EB0000025284615B030BD012070470FB4022000
:103EC00004B0704701207047002070477047000021
:103ED000534D4143202564202564202564000000C3
:103EE000534D4120256420256420256400000000F6
:103EF000534D524320256420256420256400000092
:103F0000534D5220256420256420256400000000C4
:103F10004154205249204E6F72202D256420256483
:103F200020256400415420524920426174202D25EF
:103F3000642025642025640050442055542D2564B8
:103F400000000000534C4D2025640000414C4F46BA
:103F500020256400414C4346202564004F4A4820F8
:103F6000454C203078257820307825782030782509
:103F700078000000524C434620256400504C4F46C8
:103F800020256400504C43462025640050414F4694
:103F900020256400504143462025640050504F4680
:103FA00020256400505043462025640050534F465E
:103FB0002025640050534346202564004558204C7A
:103FC0004D454C202564000000220EF0D3BD10B5F5
:103FD0000400200008F0D6FD200010BD10B504003C
:103FE00010480078002805D10F480EF002FE0D4859
:103FF000012101700C480EF032FE20000FF002FD8E
:10400000040009480EF05FFE200010BD10B504004A
:1040100005480EF024FE20000FF04EFE02480EF080
:1040200052FE10BDFAF0012070EE012038B50400F8
:104030000D0014480078401C12490870124800789E
:10404000002802D0A12001F0FFFC01F053FF607EA8
:10405000662802D0822001F0F7FC01F062FD05E045
:104060003821200010F0B6F801F05BFDE06821690E
:104070008842F5D02900200010F0CEF801F07BFF37
:1040800031BD00BF683A0120F8F0012010B5DFF81B
:10409000F0494FF406720021204600F06BFD2046E7
:1040A00010BDDFF8DC09704710B5FFF7EFFF0446DD
:1040B00000231A461146084600F0B6FAC046C0462C
:1040C00006F0CFFC0A21204600F058F807F000F96E
:1040D00006F02EFC204600F042FA204600F018F8C8
:1040E000DFF8A009006806F074FE204600F0ACF985
:1040F00000F041FB00F0FDF900206072A072E07258
:104100002073012060730020E075A073012010BDB2
:1041100010B50446DFF8700906F0BDFD012060719E
:1041200010BD10B5044606F0D2FE0120A07110BDEE
:1041300038B50446012507F03EF8012804D1284689
:10414000E0700020A0700AE0022804D10020E07096
:104150002846A07003E00020E070A07005462846C5
:1041600032BD80B507F002FA012002BD10B5044649
:10417000E07907F049FB0121217010BD70B50446BC
:104180000025E679E171FFF7F1FF002807D020460E
:10419000FFF7BEFF2046FFF7C4FF012503E0E671ED
:1041A0002046FFF7E3FF284670BD0EB470B5C1B0DE
:1041B000054600A84FF48071FFF706FFFFF771FF77
:1041C000044645AB2A464FF4807100A810F08CF8E5
:1041D00000A810F0A7F8451C00A82818002100F836
:1041E000011CDFF8A8683078401C30707078F0212E
:1041F000084202D0992001F027FC01F092FC70786F
:10420000401C7070207E2818B0F5FA7F10DA207EEE
:10421000002803D0207E00190A2101762A4600A931
:10422000207E00191930FFF7D2FE207E2818207654
:104230007078F021084202D0992001F005FC7078D6
:10424000401E7070C0B2002801D101F064FC01F082
:1042500092FE41B070BC5DF810FBDFF8EC07DFF8B0
:1042600028180160704710B50446FFF71AFF00696F
:10427000E040C0070ED5DFF818482068401C2060D9
:104280001E2807DB0FF61800FFF78FFF07F036FB3D
:104290000020206010BDDFF8F807002101607047A2
:1042A0002DE9F84305460E4617464FF00208DFF8A1
:1042B000DC476078F021084202D0992001F0C4FB6D
:1042C00001F02FFC6078401C60709DF80000401EDB
:1042D0008DF8000017F8019B2846FFF7BEFF00ABE2
:1042E0004A463946304607F043FB002812D0607832
:1042F000F021084202D0992001F0A6FB6078401E10
:104300006070C0B2002801D101F005FCFFF7C3FFC7
:1043100001201FE05FFA88F8424629460FF29470A8
:10432000FFF743FF4046A0F101080028D7D160788D
:10433000F021084202D0992001F086FB6078401EEF
:104340006070C0B2002801D101F0E5FB2846FFF7FC
:104350008AFF0020BDE8F2832DE9F04704460D46B0
:1043600016461F46DFF8E886089888F80000DFF850
:104370001C9799F80100F021084202D0992001F021
:1043800063FB01F0CEFB99F80100401C89F80100A5
:104390002046FFF762FF4FF0020A43463246394695
:1043A000284607F099FB002815D099F80100F02164
:1043B000084202D0992001F047FB99F80100401E05
:1043C00089F80100C0B2002801D101F0A4FBFFF779
:1043D00062FF012022E05FFA8AFA524621460FF27C
:1043E000E060FFF7E2FE5046A0F1010A0028D4D1B8
:1043F00099F80100F021084202D0992001F024FB35
:1044000099F80100401E89F80100C0B2002801D1CE
:1044100001F081FB2046FFF726FF0020BDE8F08772
:1044200080B51146029A184606F0B2FC012002BD82
:1044300080B510465A1E92B20178401C06F088FCE6
:10444000012002BD0000000010B52DED028B82B0EE
:104450000446DFF80006C4F810020120009001AB0A
:104460007522D0210020FFF7DBFF9DF804007028A3
:1044700008D1002084F80E020FF26860FFF795FE65
:10448000012032E00120009001AB8F221B2100208F
:10449000FFF7C6FF9DF8043040F219220FF22C619D
:1044A0000FF24860FFF781FE9DF804109FEDB68A79
:1044B000692909D1022084F80E0284ED848ACFA0F4
:1044C000FFF773FE012010E00FF23860FFF76DFE7A
:1044D000002084F80E02022084F80E0284ED848A03
:1044E0000FF23C60FFF761FE012002B0BDEC028BD1
:1044F00010BD10F03BBDF8B5044602270025DFF8DB
:104500004C650DE039464F1EC9B200290AD100287A
:1045100004D120690121A9408843206102276D1C34
:104520001D2D11DA56F82500D0F8A4000068804748
:104530000128E7D121690122AA401143216156F8DF
:10454000251001220A77E2E72069032803D0022818
:1045500001D0012802D140F480502061F1BD07F064
:1045600001BC07F066BC07F011BC0000DFF81C05B9
:10457000026A036A00BF00BF00BF00BF00BF9B1AF2
:104580008B42F6DB7047417230B597B0FBF7FCFD0C
:104590000446FFF786FD054600A85C21FFF714FDE1
:1045A0000020ADF858008DF801000DF101000A213E
:1045B000417000218170C170697A00290DD0002CF2
:1045C00018D000218DF8001005218DF801100B2165
:1045D000417000A8FFF7A2FB0CE0002C0AD00121DB
:1045E0008DF8001005218DF801100B21417000A8F5
:1045F000FFF794FB17B030BD07F03ABC07F042BCA0
:1046000002210120F8E702210120F7E701210846F5
:10461000F2E701210846F1E707F03EBC10B5044679
:10462000FFF73FFD447510BD2DE9F04782B00C4601
:1046300015462F46264680464FF47A714FF03C0CC3
:104640004FF4616918FB09F216FB0C22BA1801FB42
:104650000232DFF804E49EF900A01AFB09F99EF982
:1046600001A01AFB0C9C9EF902904CFA89FCBEF941
:10467000039001FB0C919EF808C0BCF1000F22D101
:1046800044EA00012943194302D001218EF80810A1
:104690008EF80000B8F1000F04D59EF80000183025
:1046A0008EF800008EF801408EF80250AEF803300C
:1046B00000933B4632469EF900100FF2A440FFF7EC
:1046C00074FDBDE8F38791420DD3A1EB020CACF26F
:1046D000D17CDFF8C093CC45DAD30FF2604002B052
:1046E000BDE8F04761E5D3D2A2EB010CACF2D17981
:1046F000DFF8A0A3D145CBD363460FF2504002B000
:10470000BDE8F04751E510B504002FD0FBF768FE77
:10471000D149CA68002A00D0841AB1F80320A2182F
:10472000A1F8032012B2B2F57A7F06DBA2F57A7205
:10473000A1F803208A78521C8A7091F902203C2A41
:1047400004DB3C3A8A704A78521C4A7091F9012085
:104750003C2A04DB3C3A4A700A78521C0A7091F9F0
:104760000020182A01DB00220A70C86010BDBA4977
:10477000052208F007BAB9480021017041701E22D5
:10478000B74800F0F7B900007922A03A3FB4002101
:104790000120B24A1278002A0CD12CE05C68019DFD
:1047A000AC4224D11B89BDF80840A3421FD1002090
:1047B000491CC9B291421EDAC1EBC103A84C04EBFB
:1047C00043039DF80340DD78A54213D1002CE5D0CA
:1047D0009C88BDF80450AC4209D1DC88BDF8065075
:1047E000AC4204D11B89BDF80840A342DFD000F0E1
:1047F0000100DDE7012004B030BC704753544D0088
:104800007FB40020014626E0C0EBC0025400944D66
:1048100066193C224FF46163645D757812FB05F5FF
:1048200013FB0454B57864199DF800509DF801609D
:1048300012FB06F213FB05229DF8023052FA83F2B6
:10484000A24201D2874B9A18121BB2F5966F00D97B
:10485000491C401CC0B2814A13789842D4DBC9B2CB
:104860008B4202D20020107001E0581A10707FBCF9
:1048700070472DE9FF419DF80340022C5EDA00A845
:104880000FC8FFF783FF012858D100A80FC8FFF712
:10489000B7FF9DF802509DF80160714FDFF8BC81B1
:1048A00098F80000032825D13C214FF461603A7844
:1048B0007B7811FB03F310FB0232BB78D2189DF812
:1048C000003011FB06F110FB031050FA85F0904206
:1048D00001D264490818811AB1F5966F02D94FF4D4
:1048E000966000E0801AA8F80200FFF744FF01205C
:1048F00088F8010098F80000C0EBC00149009DF85D
:104900000020CA55C9194E708D70CC70BDF80820B2
:10491000002C09D1019B4B600A81BDF80A204A8115
:10492000BDF80C208A8106E0BDF804308B80BDF80C
:104930000630CB800A81401C88F80000BDE8FF816A
:104940004649487800224A70704725220021524883
:1049500000F010B91CB500A8FFF709FF4E4C252246
:104960000021204600F006F99DF80000A07604F230
:104970001A009DF8011041709DF802108170FF210E
:10498000817213BD70B52DED028B0446206800289E
:1049900005D16068002802D1A068002849D0A0890C
:1049A000B0F57A7F45DA304DA06810F00BFC2F4A45
:1049B0002F4B10F01FFC286169619FED2E8B206842
:1049C00010F000FC53EC182B10F014FC2860696008
:1049D000606810F0F7FB53EC182B10F00BFCA8608C
:1049E000E960A089288305F11806A07BB070E07B00
:1049F000F070207C3071607C7071608A00EE100A6B
:104A0000B8EE400A10EE100A09F046F81B4A234B94
:104A100010F0F0FB10F0C0FCC5F81E00A08A7081F9
:104A2000A07D307310F0A9FFBDEC028BBDE8704093
:104A30008BE710F0A0FFBDEC028BBDE8704089E76A
:104A40000949252208F09EB8B03B0120D0DB0120A7
:104A5000CEF0012058A08B3AC0EE012034F00120A6
:104A6000D0EB01208051010028EC0120FCA9F1D2FB
:104A70004D62503F8DEDB5A0F7C6B03E3BDF4F8D88
:104A8000ACCA0120CC3B012000540040683A012010
:104A900038F001205F4C260550EC0120976EA23FB4
:104AA000233E496E6974696C61697A6520493243B5
:104AB00000000000495745202564202564000000BF
:104AC00049524520256420256400000053485F4872
:104AD000415F436865636B364178697353656E73F4
:104AE0006F720000496E76656E0000002573282500
:104AF0006429203A20726567203D205B307825309C
:104B000032785D0057484F414D49206661696C20FD
:104B10003A207265675B3078253032785D0000009E
:104B2000556E6B6E6F776E20366178697320736592
:104B30006E736F72212121210000000041542D531A
:104B400065745453312025642025640041542D534D
:104B500065745453322025642025642025640000A8
:104B600041542D536574542025643A25643A2564D4
:104B70002E25640010B5040010000A00010020007A
:104B800011F05EFA200010BD38B5DFF87C4BFEF75F
:104B900031F9E06211F088FAFEF7CAFF20630025C0
:104BA00015E04FF0FF31C176DFF8601B4162DFF89E
:104BB000601B8162DFF85C2BC262DFF85C2B026352
:104BC000DFF8582B42638163806B80476D1C412D59
:104BD00080F29D81216BC5EB0510800000224254BC
:104BE000401842700122C276002282764FF0FF32D6
:104BF0004260002282700262C2702A46921E3E2AE1
:104C0000CFD8DFE812F04B004000450153005A00B6
:104C1000650093003F003F003F003F003F003F0022
:104C20009C00A5003F003F003F003F00AD003F005B
:104C3000B6003F004A01C7003F00F90004013F00F1
:104C4000D300DB00EC00F400E4003F003F003F0035
:104C50003F003F003F003F003F00100125013F00A3
:104C6000310175008B003C0155017F003F00BF0002
:104C70003F003F003F007B016D00660173016B0147
:104C80005D011D018DE7DFF8202CC1F8EC20012229
:104C900081F8CE207C313C22CA6395E701F17C0289
:104CA000DFF8083C53631422CA678DE7EC31DFF864
:104CB000002C8A6714224A6486E701F5B672DFF891
:104CC000F43B5363012393753C22C1F86C217BE7CD
:104CD00001F5B672DFF8E01B11673C21D16373E781
:104CE00001F69C51DFF8D42B0A673C22CA636BE7BC
:104CF00001F63C31DFF8C82BCA6301228A773C22D7
:104D00008A6061E7DFF8BC2BC1F8682C012281F8CA
:104D10004A2C01F6BC31B4228A6755E701F63C31D2
:104D2000DFF8A42B8A67B4224A644DE7DFF89C2B96
:104D3000C1F8182201F5B67114228A6744E701F51B
:104D40006272DFF88C3B5363B422C1F888233BE7DF
:104D500001F56271DFF87C2B0A673C22CA6333E7F6
:104D600001F59E62DFF8703B53633C22C1F8F024EA
:104D70002AE7DFF8682BC1F89C2501F59E613C22EB
:104D80008A6721E701F66841DFF8542B8A673C22E5
:104D90004A6419E701F21461DFF8482BCA6307225D
:104DA000CA7701228A773C228A600DE701F20471FA
:104DB000DFF8342B8A6714224A6405E701F2847213
:104DC000DFF8283B53631422C1F88427FCE601F680
:104DD0003001DFF81C2BCA6314228A60F4E601F26A
:104DE0008471DFF8102B0A671422CA63ECE6DFF83F
:104DF000082BC1F83028E7E601F29462DFF8FC3AAC
:104E00005363012393751422C1F89426DCE6DFF87E
:104E1000F02AC1F80427012281F8E62601F2946104
:104E20003C22CA63D0E601F65422DFF8D83A536335
:104E30000323D375012393753C22C1F8542AC3E69A
:104E400001F6C861DFF8C02A0A671422CA63BBE60C
:104E5000DFF8B82AC1F8C42A012281F8A62A01F68F
:104E600054213C22CA63AFE6DFF8A42AC1F83C2BE8
:104E7000012281F81E2B1422C1F8082BA4E601F6AA
:104E8000BC32DFF8903A53631422C1F8BC2B9BE686
:104E9000EC31DFF8842ACA6396E6DFF8802AC1F88D
:104EA0001426012281F8F6253C22C1F8E0258BE684
:104EB00001F6BC31DFF8682A0A671422CA6383E668
:104EC00001F6C862DFF85C3A53631422C1F8C82EB9
:104ED0007AE6DFF8542AC1F8482E75E601F64861F3
:104EE000DFF8482A8A673C224A646DE601F6486189
:104EF000DFF83C2ACA633C228A6065E601F69C52D0
:104F0000DFF8303A53631422C1F89C2D5CE601208F
:104F100032BD0CB42DE9F04393B006460F46012490
:104F200035461A2D42D02C2D40D0C5EB05104FEA46
:104F30008008DFF8D4970B2F18D1D9F830004044FF
:104F40004178002912D090F91B20012A0EDB9142F2
:104F50000CDB304600F098F90446D9F830004044A4
:104F6000002141700FF6DC10FFF71FF9D9F830006F
:104F700018F8001000294FD108EB00014A78002AE8
:104F80004AD1002208F80020104648701AA983B0C0
:104F90006846582207F006FE0EBC304600F084F842
:104FA000022834D0032837D1032435E00B2F15D144
:104FB000C5EB05104FEA8008DFF84C97D9F83000B0
:104FC000404490F91B20012A08DB4078904205DB21
:104FD0000FF67810FFF7E9F8022060E01A2D04D1EF
:104FE0003846C0B20BF014FA05E02C2D03D1384638
:104FF000C0B211F0FBF81AA983B06846582207F036
:10500000D1FD0EBC304600F04FF8022801D102203D
:1050100045E0032800D103240A2F0DD1DFF8E896DC
:10502000D9F83000C5EB05114FEA810818F80010D7
:10503000491C08F8001017E00B2F15D1DFF8C896AF
:10504000032D07D1D9F8300090F8B500002801D120
:105050000AF071FBC5EB05104FEA8008D9F8300063
:1050600040444178491C4170DFF89C96D9F83000E3
:10507000D9F82C10C5EB05124FEA8208D1E91C23A0
:10508000CDE90223C96E009108EB00014B7818F8B6
:10509000002029460FF6C000FFF787F8204613B01E
:1050A000BDE8F0035DF80CFB0EB42DE9F04193B0C0
:1050B00005460124C0EB00118F00DFF84C66D6F8DE
:1050C00030801A2801D02C2808D117F808000028B1
:1050D00009D107EB08004078002804D107EB08004D
:1050E00000218170016219A984B06846582207F036
:1050F00059FD0FBC47447F6AB847022801D10220FE
:1051000011E0032801D103240CE0D6F82C80D8E963
:105110001C67204600212A4612F016F93043394315
:10512000C8E91C01204613B0BDE8F0015DF810FB92
:105130002DE9F04385B004460D4601262746C7EB0E
:1051400007104FEA8008DFF8C095D9F830001A2F11
:105150004ED02C2F4CD04044417802290BDB90F9E3
:105160001B20012A07DB1346994204DB42700FF231
:10517000FC70FFF71AF8D9F8300018F80010002971
:1051800004D108EB00025278002A65D02A460A2A88
:1051900009D1002903D0491E08F8001017E00021AA
:1051A00008F8001013E00B2A11D108EB00014A782F
:1051B000002A02D0521E4A7001E000224A70032FDA
:1051C00005D190F8B500002801D10AF0C3FAD9F84A
:1051D000300018F8001000293ED1404440780028E3
:1051E0003AD1204600F050F8032835D1032633E0A9
:1051F00018F80010002904D108EB00025278002AA8
:105200002AD02A460A2A09D1002903D0491E08F8C3
:1052100000100EE0002108F800100AE00B2A08D167
:1052200040444178002902D0491E417001E000212C
:1052300041701A2F04D12846C0B20BF0E9F805E0FE
:105240002C2F03D12846C0B210F0D0FF204600F02A
:105250001BF8032800D10326D9F83000D9F82C1008
:10526000D1E91C23CDE90223C96E009108EB0001AE
:105270004B7818F8002039460FF2F860FEF795FFDA
:10528000304605B0BDE8F0832DE9F0410746012620
:10529000B846C8EB08108500DFF86C44206B28186E
:1052A000806A8047032800D10326B8F12C0F07D16C
:1052B000206B295C00290AD128184078002806D1E3
:1052C000384640B200F07BF9032800D10326206B5A
:1052D000295C002914D128184178002910D1002117
:1052E00081700162D4F82C80D8E91C4501203A462F
:1052F00012F02AF824EA000025EA0101C8E91C019D
:105300003046BDE8F08138B50446C4EB0410800097
:10531000DFF8F453296B00224254401811464170C3
:105320002046FFF7B1FFE86AD0E91C2321460FF2BF
:105330005860FEF73AFF012032BD2DE9F041B6B0CA
:1053400004460E46B6B201208DF86400DFF8B8536B
:105350001AA8E96A6C2207F025FC17951AA984B0EF
:1053600068466C2207F01EFC0FBC00F0D9F900273C
:105370000BE0032803D1189703208DF86400286BF5
:105380004044002181707F1C7FB2412F2ADAEA6AF3
:10539000D2E91C013A4600F031FB00F0010011F0A7
:1053A000000101D10028EED0C7EB07104FEA8008BA
:1053B000286B404441680029E5D48278521C8270F1
:1053C000D2B2724389B28A42DDDBC06A80470228CA
:1053D000CFD1189702208DF86400DDE91801C4E9E7
:1053E000000103E0DDE91801C4E9000136B0BDE8C1
:1053F000F0810021401F42F20C72904200D2012144
:10540000084670472DE9F04383B004460020019020
:105410000422E11C01A8FEF7DAFD6178BA4E376B71
:105420003C2515FB01704068019A904204D10FF2AF
:105430006850FEF7BAFE68E01046FFF7DAFF002872
:1054400009D16178019B15FB017042680FF254503D
:10545000FEF7ABFE59E0DFF8E0743868D0F8008062
:1054600025E090F908906078316B15FB0010006A18
:1054700020FA09F0C00717D54FF0FF30009003461F
:10548000012201994846FEF73FF840B200280BD1AF
:10549000617801980090306B15FB010043684A4623
:1054A0000FF21450FEF781FE4046D0F80080B8425B
:1054B000D7D13868D0F800801FE090F90890086ACA
:1054C00020FA09F0C00715D54FF0FF3301224968D3
:1054D0004846FEF777F840B200280BD16178019872
:1054E0000090306B15FB010043684A460FF2E04024
:1054F000FEF75BFE4046D0F800806178326B15FB0A
:105500000121B842D9D101984860BDE8F7832DE95F
:10551000F8438146002425467B4F21E0C5EB05106A
:105520008600386B06EB0008002088F80300FA6A52
:10553000D2E91C012A4600F061FA00F0010011F0E6
:10554000000101D100280AD04846D8F83010884719
:10555000002804D0386B30180121C1700C466D1C36
:10556000412DDBDB2046BDE8F2836748C16AD1E903
:105570001C23002B01D1002A0DD0002107E0C2EB33
:105580000213026B02EB83020023D370491C49B261
:105590000A46412AF3DB704700B502465A48C36AFF
:1055A000D3E91C0100F02AFA00F0010011F000011B
:1055B00001D1002801D0012000BD084600BD2DE921
:1055C000F04781460124C9EB091085004E4E306B2F
:1055D0002818006A002828D0D74F3868D0F80080F3
:1055E00003E003244046D0F80080B8421DD090F973
:1055F00008A0306B2818016A012202FA0AF2114051
:1056000021FA0AF149B20129ECD14FF0FF3301220E
:1056100041685046FDF7D6FF0028E2D05246494681
:105620000FF2C430FEF7C1FDDCE72046BDE8F0878D
:1056300010B598B004465A22002100A8FFF79AFA44
:105640000020ADF858008DF801000DF101000A218D
:10565000417000218170C1700846ADF858006007A4
:1056600037D50520FFF798FF002808D004208DF8D3
:10567000000005208DF8010000A8FEF74FFB022076
:10568000FFF78AFF002808D004208DF800000220D0
:105690008DF8010000A8FEF741FB2F20FFF77CFFEB
:1056A000002808D004208DF800002F208DF801007C
:1056B00000A8FEF733FB0320FFF76EFF002808D099
:1056C00004208DF8000003208DF8010000A8FEF7EB
:1056D00025FBE00611D50820FFF75EFF00280CD05F
:1056E00003208DF8000008208DF8010000A8FEF7C7
:1056F00015FB0FF20030FEF758FD18B010BD02493F
:105700002C2207F04FBA00006CEB0120BD3E0008D0
:10571000B93E0008C53E0008C93E0008CD3E00085D
:105720000FB41B9800990160019941600299816052
:105730000399C1600499016105994161BDF85A104E
:105740000183BDF85C104183BDF85E1081830C9924
:105750000162139941621499816204B070474178E3
:10576000122904D1401C017900200AF0A5B81329A0
:1057700004D1401C417901200AF09EB8142904D1BB
:10578000401C817902200AF097B8152903D1401CEA
:1057900000790AF0B5B8302904D1401C90F9040012
:1057A0000DF0B0B9012904D1401C90F906000DF0AC
:1057B00095B917296DD1411CCA78032A0AD01B2A32
:1057C00014D01C2A33D01D2A1BD02C2A3FD0302ABB
:1057D00059D0704790F85610012902D1401D0AF0A7
:1057E00099BC022955D1401D0AF094BC087A0128C1
:1057F00002D188880CF02EBB02284AD1C8880CF050
:1058000027BB4A7B012A02D1888810F09AB8022A65
:1058100002D1C88810F089B8042A03D1B0F8110069
:1058200010F091B8032A34D1C88910F098B8C8791B
:10583000012802D1087911F035BE022802D1487939
:1058400011F037BE052824D1887911F02ABE8A7B51
:10585000012A02D1087A11F09DBA022A02D1008AE7
:1058600011F084BA032A02D1408A11F089BA042ABD
:1058700003D11230408811F0A4BA052A09D11230A0
:10588000808811F090BA4879012802D1087911F086
:1058900035BE70472949086070472848006870473E
:1058A000274908707047000003F100082D27010800
:1058B000E5240108694E0308251703084924030855
:1058C000E575010867DD0008D3480308D522010803
:1058D0001D62030887680308D5640308F5600308A0
:1058E000CD6A0308ED11010891E701080558030886
:1058F0004DB301080B510308EB270308617401083D
:10590000C9580108A76C01088D5903087F63030873
:10591000092A01081B2D03087DC20008116603082F
:1059200095F9020815600308EDEC0008115E030804
:10593000895C03089B1D0108B85B00203CF0012036
:10594000CFF00120414C204558000000414C20453B
:10595000582D415400000000414C2564202564204E
:10596000256420256420256C6C750000524C204570
:1059700058000000524C2564202564202564202511
:105980006420256C6C7500005445524D2025642020
:10599000256C6C75000000004558204C4D43523179
:1059A000202564004558204C4D4352322025642068
:1059B00025642025640000004558204C4D43523397
:1059C0002025642025642025642025640000000033
:1059D0004558204C4D435234202564202564202511
:1059E0006420256400000000534D524120256420AE
:1059F00025640000485720534D410000D2B2203AA0
:105A000022BF21FA02F0002170472032D141D0405C
:105A100048409140D1404840704710B450F8041BB2
:105A200081B102681218001D50F8043BDC0744BF26
:105A3000A9F10104E31852F8044B43F8044B091F81
:105A4000F9D1EBE710BC704700B585B002460FF204
:105A5000140100A811F066FE00A8C046C04605B0BB
:105A600000BD00004F4525640000000030488168FB
:105A7000002904BF08B008E0EFF30982A2F1280270
:105A8000036882E8F84F83685A6000F01BF9816868
:105A900059B14A6892E8F84F036002F1280282F394
:105AA000098813F47F4F36D070472248224909688D
:105AB000401A80F308884FF08071C1611F498161ED
:105AC0007FF0060E704701BC2046DFF874E000BD91
:105AD000FEE71C48006818490968401A203820F081
