:100000000020002071D90308D5610308E9610308C5
:10001000FD61030811620308256203080000000067
:10002000000000000000000000000000396203082A
:100030004D62030800000000095F000857F7000840
:10004000D5DA0308D9DA0308DDDA0308A3F70008D4
:10005000E1DA03087973030895690308796B0308EB
:10006000A16C0308956D0308E5DA0308E9DA0308D3
:10007000EDDA0308F1DA0308F5DA0308F9DA030820
:10008000916E0308B96F0308FDDA030801DB03086A
:1000900005DB030809DB03080DDB030831710308E6
:1000A00011DB030815DB030819DB03081DDB03085C
:1000B00021DB030825DB030829DB03082DDB03080C
:1000C00031DB030835DB030839DB0308656203080D
:1000D0003DDB030841DB030845DB030849DB03087C
:1000E00099700308717203084DDB030851DB0308A4
:1000F00055DB030859DB03085DDB030861DB0308FC
:1001000065DB030869DB03086DDB030871DB0308AB
:1001100075DB030879DB03087DDB030881DB03085B
:1001200085DB030889DB03088DDB030891DB03080B
:1001300095DB030899DB03089DDB0308A1DB0308BB
:10014000A5DB0308A9DB0308ADDB0308B1DB03086B
:10015000B5DB0308B9DB0308BDDB0308C1DB03081B
:10016000C5DB0308C9DB0308CDDB0308D1DB0308CB
:10017000D5DB0308D9DB0308DDDB0308E1DB03087B
:10018000E5DB0308E9DB0308BFF34F8FDFF8600A04
:10019000016801F4E061DFF85C2A11430160BFF3FC
:1001A0004F8FFEE77CB506460C4615460020ADF89D
:1001B00006008DF804000120009001AB3246722148
:1001C000072002F068FD002801D1002076BD8DF8DF
:1001D00006609DF80400A04328438DF804009DF8B4
:1001E00004008DF8070002230DF10602722107209A
:1001F00002F0F5FC002801D1002076BD012076BD7B
:1002000038B50020ADF8000002464021AB20FFF7D2
:10021000C9FFC0208DF8000000AC0F2060700223E1
:1002200000AA7221092002F0DAFC002801D1002086
:1002300032BDC1208DF8000000206070022300AAAA
:100240007221092002F0CBFC002801D1002032BD30
:10025000C2208DF800000F206070022300AA7221D6
:10026000092002F0BCFC002801D1002032BDC320CF
:100270008DF8000000206070022300AA722109207E
:1002800002F0ADFC002801D1002032BDC4208DF861
:1002900000000F206070022300AA7221092002F0E2
:1002A0009EFC002801D1002032BDC5208DF8000041
:1002B00000206070022300AA7221092002F08FFC46
:1002C000002801D1002032BDC6208DF800000F208B
:1002D0006070022300AA7221092002F080FC00282D
:1002E00001D1002032BDC7208DF8000000206070D1
:1002F000022300AA7221092002F071FC002801D11A
:10030000002032BD81208DF80000EE2060700223B5
:1003100000AA7221092002F062FC002801D100200D
:1003200032BDDFF8D4586078687382208DF8000001
:1003300006206070022300AA7221092002F04FFCFF
:10034000002801D1002032BD287C00281DD08E203D
:100350008DF8000045206070022300AA7221092058
:1003600002F03DFC002801D1002032BD8F208DF825
:10037000000058206070022300AA7221092002F0B8
:100380002EFC00281FD1002032BD8E208DF80000E9
:1003900082206070022300AA7221092002F01FFC53
:1003A000002801D1002032BD8F208DF800008C2064
:1003B0006070022300AA7221092002F010FC0028BC
:1003C00001D1002032BD80208DF800000720607030
:1003D000022300AA7221092002F001FC002801D1A9
:1003E000002032BDDD208DF8000020206070022347
:1003F00000AA7221092002F0F2FB002801D100209E
:1004000032BD012032BD10B582B00020ADF8000031
:10041000044602F0FEFA0A2102F012FD00E0641C1C
:10042000032C12D2DFF8D407215C8DF800102018BD
:1004300000798DF80100022300AA7221072002F042
:10044000CEFB0028EBD1002016BD012016BD10B553
:10045000DFF8A447A37D627D617C0FF2280002F0E3
:1004600043FB607C617D0843A17D08434FF400415C
:1004700003D0002002F02AFD02E0002002F028FD57
:10048000012010BD233E50777220502564204D2559
:10049000642049256400000070B582B004460E4611
:1004A00002F0AAFF0020ADF80000DFF84C57688C7E
:1004B0000146002E02D02043688401E0A0436884F6
:1004C000688C00281DD001283AD002286ED003285D
:1004D0006CD0042800F02E81052800F07B810628CE
:1004E00000F05681072800F0D981102867D0112824
:1004F00000F0AE80202800F08D80212800F0E880F8
:100500001CE0DD208DF8000000AC002060700223AC
:1005100000AA7221092002F062FB002800F0F2819B
:1005200080208DF8000000206070022300AA722154
:10053000092002F054FB002800F0E481012076BD80
:10054000880701D50120287600224021AB20FFF743
:1005500029FE81208DF8000000ACEE20607002239F
:1005600000AA7221092002F03AFB002800F0CA819B
:1005700060786873DD208DF8000000206070022331
:1005800000AA7221092002F02AFB002800F0BA819B
:1005900080208DF8000003206070022300AA7221E1
:1005A000092002F01CFB0028C8D1ABE1012901D1D0
:1005B00001202876FFF724FE0028BFD1A2E18F207A
:1005C0008DF8000000AC0A206070022300AA72219E
:1005D000072002F004FB002800F0948180208DF8B1
:1005E000000081206070022300AA7221072002F01F
:1005F000F6FA002800F08681DD208DF80000082042
:100600006070022300AA7221072002F0E8FA002895
:1006100094D177E180208DF8000000AC81206070DB
:10062000022300AA7221072002F0D9FA002800F064
:100630006981DD208DF8000008206070022300AA87
:100640007221072002F0CBFA00287FF477AF59E13E
:10065000880701D50120287681208DF8000000ACA4
:10066000EE206070022300AA7221092002F0B7FA7E
:10067000002800F04781607868738F208DF80000B3
:100680000A206070022300AA7221072002F0A7FA54
:10069000002800F0378180208DF8000083206070F2
:1006A000022300AA7221072002F099FA002800F024
:1006B0002981DD208DF8000008206070022300AA47
:1006C0007221072002F08BFA00287FF437AF19E17E
:1006D000880701D50120287681208DF8000000AC24
:1006E000EE206070022300AA7221092002F077FA3E
:1006F000002800F007816078687380208DF8000082
:1007000083206070022300AA7221072002F067FA9A
:10071000002800F0F780DD208DF8000008206070D0
:10072000022300AA7221072002F059FA00287FF460
:1007300005AFE7E081208DF8000000ACEE2060708E
:10074000022300AA7221092002F049FA002800F0D1
:10075000D98060786873DD208DF80000002060701B
:10076000022300AA7221092002F039FA002800F0C1
:10077000C98080208DF8000003206070022300AA49
:100780007221092002F02BFA00287FF4D7AEB9E0DD
:100790000846800715D581208DF8000000ACEE20BA
:1007A0006070022300AA7221092002F018FA0028C2
:1007B00000F0A880607868730FF24C1002F094F992
:1007C000BCE648077FF5BAAEFFF71AFD00287FF4B4
:1007D000B5AE97E00846C0072CD581208DF8000003
:1007E00000ACEE206070022300AA7221092002F002
:1007F000F6F9002800F0868060786873DD208DF8B7
:10080000000000206070022300AA7221092002F07B
:10081000E6F9002876D080208DF800000320607073
:10082000022300AA7221092002F0D9F900287FF4DE
:1008300085AE67E048077FF581AE00224021AB20FE
:10084000FFF7B0FC81208DF8000000ACEE20607056
:10085000022300AA7221092002F0C1F9002851D018
:1008600060786873DD208DF800000020607002233E
:1008700000AA7221092002F0B2F9002842D080209B
:100880008DF8000003206070022300AA7221092065
:1008900002F0A5F900287FF451AE33E011F0050F06
:1008A00005D0FFF7ADFC00287FF448AE2AE0812098
:1008B0008DF8000000ACEE206070022300AA7221C7
:1008C000092002F08CF900281CD060786873DD20C4
:1008D0008DF8000000206070022300AA7221092018
:1008E00002F07DF900280DD080208DF80000032053
:1008F0006070022300AA7221092002F070F900281A
:100900007FF41CAE002076BD233E212150522D3EA7
:100910004952000080B50FF2400002F0E5F80020D7
:10092000ADF8000080208DF8000003208DF8010054
:10093000022300AA7221062002F051F9002801D1F9
:10094000002002BD01210020FFF7A6FD002801D1F3
:10095000002002BD012002BD233E484C5300000090
:100960001CB5044600208DF80400ADF806000120F7
:10097000009001ABDE227221072002F08CF90028E2
:1009800001D1002016BDDE208DF806009DF8040080
:1009900020438DF8070002230DF106027221072083
:1009A00002F01DF9002801D1002016BD012016BD5E
:1009B00030B583B00FF29C0002F096F80020ADF83D
:1009C00004000446FFF71FFDDFF8C01D0870002873
:1009D000DFF8BC5D06D10FF2840002F085F82046F6
:1009E0003EBD641C0D2C11D2601900798DF80400F5
:1009F0006019007D8DF80500022301AA72210720ED
:100A000002F0EDF80028ECD100203EBD7A4C012028
:100A1000009004F11A0391227221072002F03BF9A1
:100A2000002801D100203EBD012000902B469222DB
:100A30007221072002F02FF9002801D100203EBDCD
:100A40002A78A17E0FF2200002F04EF803F0B1F9EF
:100A500001203EBD233E505250000000233E505026
:100A60005F4641494C000000233E505220524556FB
:100A700020307825782044455620307825780000AD
:100A800038B55D4DA97E0FF2D40002F02DF800209C
:100A9000ADF8000028848C208DF8000000AC2020E8
:100AA000607000202873022300AA7221072002F040
:100AB00096F8002801D1002032BD01206874FFF7AC
:100AC000C6FC01210220FFF7E7FC002801D100202D
:100AD00032BD88208DF80000F0206070022300AA4B
:100AE0007221072002F07BF8002801D1002032BDDE
:100AF00089208DF800003F206070022300AA722137
:100B0000072002F06CF8002801D1002032BD8A20B5
:100B10008DF8000000206070022300AA72210720D7
:100B200002F05DF8002801D1002032BD8B208DF845
:100B3000000000206070022300AA7221072002F04A
:100B40004EF8002801D1002032BD2020FFF708FF19
:100B5000002801D1002032BD012032BD233E505279
:100B60004F2030782578000000B583B00FF2900058
:100B700001F0BAFF00208DF80400DFF8540C816A00
:100B8000497A01291ED1C069407A01281AD1012170
:100B90000020FFF781FC002801D100200EBD0120BC
:100BA000009001AB80227221072002F074F8002827
:100BB00001D100200EBD9DF804100FF24C0001F091
:100BC00093FF0BE00C48002141740220FFF764FC06
:100BD000002801D100200EBDFFF739FC2020FFF7CF
:100BE000BFFE002801D100200EBD01200EBD000077
:100BF0000CED00E00400FA0548A50020FCA600204A
:100C0000233E505243000000233E2626656E61625B
:100C10006C65203078257800012070471CB50446AB
:100C200002F0EAFB0020ADF806008DF80400012078
:100C3000009001AB9E227221072002F02CF80028C0
:100C40000ED09DF80400000612D5022000900DF190
:100C500006039C227221072002F01DF8002801D112
:100C6000002016BD9DF8060020709DF807006070FA
:100C7000012016BD2DE9F04784B0044602F0BCFB0C
:100C8000054601F0C6FE064600200190ADF80800BA
:100C9000012000900DF107039E227221072001F030
:100CA000FAFF002801D10020F8E2012000900DF1A8
:100CB000060393227221072001F0EDFF002801D1E5
:100CC0000020EBE20220009002AB94227221072068
:100CD00001F0E1FF002801D10020DFE20DF1080959
:100CE00099F801009DF8081041EA0020DFF8C87D5E
:100CF000797BC1F58071BA7BDFF8C03DD25C12FB15
:100D000001F140F242325143FA7E012A03D140F20E
:100D1000BA22504302E040F2217250436422504311
:100D200090FBF1F0F97C002901D1B86308E0B86BC1
:100D3000B97F4A1CBA77062902DB0021F974B9771A
:100D4000397C00290BD141F65931884228DB012139
:100D50003974F8630020F877FFF7DCFD94E2F96B53
:100D6000411A44F62162914212DA40F6B8318842C3
:100D700014DA9DF80620920610D5FA7F531CFB77F3
:100D8000C92A01DA88420BDA884201DA0021397473
:100D9000F8630020F877FFF7BDFD75E20020F877D3
:100DA0009DF80600800640F1788201203877022005
:100DB000009002AB9C227221072001F06CFF0028FA
:100DC00001D100206AE299F801009DF8081041EA7B
:100DD00000280FFA88F841460FF2C84001F084FE5F
:100DE0009DF80800607099F80100A070A7F82080B5
:100DF000787C002872D0387B00286FD100203075B5
:100E00008C208DF804000DF10409202089F80100E0
:100E10003873022301AA7221072001F0E0FE0028A6
:100E200001D100203AE205F28A0AB5F88A000028CA
:100E300003D0BAF8020000280BD10FF2487001F07D
:100E400053FE4FF4FA60A5F88A0040F2DC50AAF88D
:100E5000020088208DF80400002089F80100022398
:100E600001AA7221072001F0BAFE002801D100205A
:100E700014E289208DF80400002089F80100022383
:100E800001AA7221072001F0AAFE002801D100204A
:100E900004E28A208DF80400B5F88A0089F8010080
:100EA000022301AA7221072001F099FE002801D136
:100EB0000020F3E18B208DF80400B5F88A00000AC9
:100EC00089F80100022301AA7221072001F087FEA0
:100ED000002801D10020E1E10120387505F28A0ADD
:100EE000BAF80220B5F88A100FF2C43001F0FCFD08
:100EF000787C002800F0C881B5F88A00804551DB75
:100F0000307D00284ED10120F87320702078307594
:100F100088208DF804000DF10409BAF8020089F860
:100F20000100022301AA7221072001F058FE0028C7
:100F300001D10020B2E189208DF80400BAF8020046
:100F4000000A89F80100022301AA7221072001F09A
:100F500046FE002801D10020A0E18A208DF804007F
:100F6000FF2489F80140022301AA7221072001F021
:100F700036FE002801D1002090E18B208DF804007E
:100F800089F80140022301AA7221072001F027FEFF
:100F9000002801D1002081E141460FF2243001F008
:100FA000A3FD71E1BAF80200404553DB307D012812
:100FB00050D10120F87300202070207830758820EF
:100FC0008DF804000DF10409002089F801000223C6
:100FD00001AA7221072001F002FE002801D10020A1
:100FE0005CE189208DF80400002089F801000223CB
:100FF00001AA7221072001F0F2FD002801D1002092
:101000004CE18A208DF80400B5F88A0089F80100C7
:10101000022301AA7221072001F0E1FD002801D17D
:1010200000203BE18B208DF80400B5F88A00000A0F
:1010300089F80100022301AA7221072001F0CFFDE7
:10104000002801D1002029E141460FF27C2001F067
:101050004BFD19E1B5F88A00404557DB307D00288B
:1010600054D1387D012851D10120F873002020701F
:10107000207830750020387588208DF804000DF137
:101080000409002089F80100022301AA7221072027
:1010900001F0A5FD002801D10020FFE089208DF896
:1010A0000400002089F80100022301AA7221072010
:1010B00001F095FD002801D10020EFE08A208DF895
:1010C0000400B5F88A0089F80100022301AA722100
:1010D000072001F084FD002801D10020DEE08B20F4
:1010E0008DF80400B5F88A00000A89F8010002238F
:1010F00001AA7221072001F072FD002801D1002011
:10110000CCE00FF2CC1001F0EFFCBDE0B5F88A00A6
:10111000804555DB307D012852D1387D01284FD1E3
:101120000120F873207020783075002038758820F1
:101130008DF804000DF10409BAF8020089F80100E5
:10114000022301AA7221072001F049FD002801D1E4
:101150000020A3E089208DF80400BAF80200000AFC
:1011600089F80100022301AA7221072001F037FD4E
:10117000002801D1002091E08A208DF80400FF248E
:1011800089F80140022301AA7221072001F027FDFE
:10119000002801D1002081E08B208DF8040089F81F
:1011A0000140022301AA7221072001F018FD002846
:1011B00001D1002072E00FF2201001F095FC63E0F5
:1011C000B5F88A0080455BDABAF80200404557DA84
:1011D000307D012854D1387D012851D10120F87388
:1011E00000202070207830750020387588208DF818
:1011F00004000DF10409002089F80100022301AA6E
:101200007221072001F0EBFC002801D1002045E00D
:1012100089208DF80400002089F80100022301AA2A
:101220007221072001F0DBFC002801D1002035E00D
:101230008A208DF80400B5F88A0089F8010002239D
:1012400001AA7221072001F0CAFC002801D1002068
:1012500024E08B208DF80400B5F88A00000A89F894
:101260000100022301AA7221072001F0B8FC002826
:1012700001D1002012E00FF2680001F035FC03E01C
:101280000FF2640001F030FC2020FFF769FB00281A
:1012900001D1002002E0012000E0002004B0BDE800
:1012A000F0870000233E5072617720256400000023
:1012B000233E55703D25642C4C6F3D256400000095
:1012C000233E503120256400233E50322025640007
:1012D000233E526554483100233E52655448320043
:1012E000233E526554483300233E456C736500002D
:1012F0002DE9FC4104460D46002001900746DFF829
:10130000B86730770120009001AB9322722107204B
:1013100001F0C1FC002801D138469FE00120009077
:101320000DF105039E227221072001F0B4FC002874
:1013300001D1384692E09DF80400000713D5707D76
:10134000002806D00120307700F066FD3846F075A1
:1013500084E0B07D002806D00120307701F0DCF871
:101360003846F0757AE002F047F880462078072882
:1013700025D16078FF2822D12946601CFFF74EFC5A
:10138000A078617841EA002212B2B8F88A0082425D
:1013900007DB0120207021780FF2C40001F0A4FBCC
:1013A0000AE0B8F88C00904206DB384620702178BD
:1013B0000FF2AC0001F098FB01204FE07F1C0020F1
:1013C000F07529462046FFF755FC00280DD0707CAB
:1013D00000280AD0F07B002807D00FF2980001F017
:1013E00083FB0020F0730120F075052F03DA03F072
:1013F0003DFA0028E2D09DF80400C021084201D047
:1014000001203077307F002809D1706B411C716357
:101410009DF804200FF2640001F066FB01E000205B
:101420007063706B1E2807DB0FF2680001F05CFB35
:10143000FEF7AAFE00207063DE208DF80600FA2079
:101440008DF8070002230DF106027221072001F03A
:10145000C6FB002801D1002000E0F07DBDE8F68148
:10146000233E536C6565702041444320256420254C
:1014700064000000233E505550000000233E696E7A
:101480007620696E742025642073746174757320EE
:1014900025780000233E52657365745251000000A8
:1014A00070B582B005460020ADF8000001F0A4FF41
:1014B0000446DFF80406012101752878697841EABD
:1014C0000020A4F88A0004F28A06A878E97841EAA4
:1014D00000207080B4F88A00002802D070880028AC
:1014E00009D10FF2A00001F0FFFA4FF4FA60A4F85E
:1014F0008A000020708088208DF8000000ADF02068
:101500006870022300AA7221072001F068FB0028FE
:1015100001D1002076BD89208DF800003F20687041
:10152000022300AA7221072001F059FB002801D1F3
:10153000002076BD8A208DF800000020687002230C
:1015400000AA7221072001F04AFB002801D10020E7
:1015500076BD8B208DF8000000206870022300AA61
:101560007221072001F03BFB002801D1002076BD4D
:101570007288B4F88A100FF2140001F0B5FA012055
:1015800076BD0000233E5054483D3000233E544871
:1015900053455420256420256400000010B584B014
:1015A000044601A800210A4606C00820009001ABAD
:1015B000C0227221092001F06EFB002801D1002019
:1015C00019E09DF80400207001A8417861708178CD
:1015D000A170C178E17001792171417961718179DE
:1015E000A171C179E17142789DF804100FF20C00ED
:1015F00001F07AFA012004B010BD0000233E5052E1
:1016000020474554205452494D20307825782030C9
:101610007825780080B50FF21801072003F0B8FD97
:101620000FF234010A20BDE8044003F0B1BD000010
:10163000B1090008810A0008690B0008190C0008AC
:1016400000000000F1120008A114000800000000D2
:101650000000000000000000B1090008810A000835
:10166000690B0008190C0008000000001D0C0008A0
:10167000A1140008000000000000000000000000AD
:1016800000207047002070470020704700207047FE
:101690000020704700207047002070470FF20801BB
:1016A000062003F075BD00008116000885160008AD
:1016B000891600088D160008000000009116000829
:1016C00000000000991600089516000800000000B0
:1016D00038B50FF2480001F007FA2C4C20780028AA
:1016E00017D00020ADF80000054600E06D1C052D68
:1016F00011D2281900798DF800002819007B8DF887
:101700000100022300AA7221092001F068FA0028D2
:10171000ECD1002032BD012032BD0000233E4C49F7
:101720004750000010B582B0E34CA17E0FF2640078
:1017300001F0DAF90020ADF8000090208DF80000EB
:1017400003208DF80100022300AA7221092001F074
:1017500046FA002801D1002016BD0320A073012005
:101760006076A0740320206301210846FEF794FEF2
:10177000002801D1002016BD1020FFF7F1F8002845
:1017800001D1002016BD012016BD00009CA600203E
:1017900014A60020233E4C49474F2030782578007E
:1017A00080B50FF2300001F09FF9C3480021817429
:1017B0000120FEF771FE002801D1002002BD10209B
:1017C000FFF7CEF8002801D1002002BD012002BDA4
:1017D00028880120233E4C494743000001207047E0
:1017E0002DE9F04F8DB004460AA800210A4606C034
:1017F00088460846CDE90801DFF8140DD0F824A08A
:1018000008468AF872000120009006ABAB227221D4
:10181000072001F040FA002861D09DF8180040062A
:101820005DD4A54D687F002848D02878207068785E
:101830006070A878A070E878E070287920716879E5
:101840006071A879A071E879E071287A2072687ACD
:1018500060726078217841EA0029E078A17841EA55
:1018600000266079217941EA0027E079A17941EAEF
:10187000002808A8009043463A463146484600F002
:10188000C6F9DDE90801C5E90A01286B0128C0F2A3
:101890000F81DDE90801CDE90401A87B0290687B96
:1018A0000190CDF800803B46324649460FF21020A9
:1018B00001F01AF9286B401E2863F9E0687E0128C0
:1018C00003D0287E002840F08C80082000900AABCE
:1018D00094227221092001F0DEF9002801D140464E
:1018E000E7E09DF82800A0710AA84178E1718178AD
:1018F0002170C17861700179A1704179E1708179BD
:101900002171C0796071687B2072A87B60726078F9
:10191000217841EA0029E078A17841EA002660793F
:10192000217941EA0027E079A17941EA002808A855
:10193000009043463A463146484600F068F9002890
:101940001BD1687E01284DD100206876DFF8C40BDA
:101950005B21017000214170852181700021C170DF
:10196000AE21017100214171702181710121C1718C
:10197000EE2101720021417234E000206876DFF828
:10198000940B2178017061784170A1788170E178C1
:10199000C1702179017161794171A1798171E17918
:1019A000C171217A0172617A4172DDE90801C5E9EC
:1019B0000A01286B012864DBDDE90801CDE9040197
:1019C000A87B0290687B0190CDF800803B463246B0
:1019D00049460FF2201001F087F8286B401E28635B
:1019E0004FE04ED0DFF82C0B017821704178617008
:1019F0008178A170C178E1700179217141796171BB
:101A00008179A171C179E171017A2172407A6072A4
:101A1000002028766078217841EA0029E078A178D2
:101A200041EA00266079217941EA0027E079A1792D
:101A300041EA0028687B8DF81900207A687395F8D0
:101A40000EB0607AA87308A8009043463A46314623
:101A5000484600F0DCF8DDE90801CDE90401A87B87
:101A60000290687B0190CDF800803B4632464946A3
:101A70000FF2B40001F038F89DF81900687385F88A
:101A80000EB01FFA89F9B9F15B0F11D1B6B2852EEC
:101A90000ED1BFB2AE2F0BD1B8F5B87F08D1207AE6
:101AA000EE2805D1607A002802D101208AF8720060
:101AB00001200DB0BDE8F08F48A50020641D00088E
:101AC000233E6920723D256420673D256420623DE8
:101AD000256420633D2564206174696D653D25643E
:101AE00020616761696E3D2564206C75783D256CC9
:101AF0006C642000233E723D256420673D256420F0
:101B0000623D256420633D2564206174696D653DF7
:101B1000256420616761696E3D2564206C75783DA0
:101B2000256C6C6420000000233E4040723D25641B
:101B300020673D256420623D256420633D256420A7
:101B40006174696D653D25642C20616761696E3D36
:101B50002564206C75783D256C6C642000000000C5
:101B60001CB504460020ADF806008DF804000120E5
:101B7000009001AB90227221092001F08CF800281E
:101B800001D1002016BD9DF8040000F0FC008DF886
:101B90000400012C0AD0042C04D0102C1FD0402C9F
:101BA00022D026E040F001008DF8040090208DF84E
:101BB00006009DF804008DF80700DFF8844B9DF8BF
:101BC000040000F00300A07302230DF1060272214D
:101BD000092001F004F800280DD1002016BD40F0C6
:101BE00002008DF80400E1E740F003008DF80400E6
:101BF000DCE7002016BD0120E07416BDDFF8401BB5
:101C0000C8767047DFF8382BD2E90A0170472DE912
:101C1000F84FDFF82CCB9CF81B40012C06D140F28A
:101C2000BA2A40F2C67740F60C0405E040F2217A69
:101C300040F202374FF4B4741E46934689468046FC
:101C400009EB08005844801B00EBD07045102DB202
:101C50009CF80E000FF20C11405C9CF80D10C1F5C1
:101C6000807110FB01F240F6DC2C0CFB02F20092BA
:101C70008902B1F5803F01D34FF6FF71C9000A22F6
:101C8000B1FBF2F1102852D18B4250D30120FFF763
:101C900067FF002863D1A9EB050CABEB050E0A9E8C
:101CA00045450BDAD6E9000102460B46A8EB0500D4
:101CB0007843C11710185941C6E900014D450CDAA7
:101CC000D6E9000102460B464FF47A7000FB0CF097
:101CD000C11710185941C6E900015D4508DAD6E977
:101CE00000010EFB04F2801851EBE271C6E900011D
:101CF000D6E90001002905DC00DB03D20020014603
:101D0000C6E90001D6E900234FEAEA7BAAFB0201FB
:101D10000AFB03110BFB0211C6E90001009A002324
:101D200003F0E2FCC6E900010120BDE8F28F1028B3
:101D300007D1642E05DA4020FFF712FF00280ED1EC
:101D4000A9E7402802D164398B4203D20128A2D1ED
:101D5000642EA0DA1020FFF703FF00289BD000209C
:101D6000E3E70000010410400FF20801092003F02E
:101D70000FBA0000D116000825170008A1170008A7
:101D8000DD17000800000000E11700080000000057
:101D9000000000000000000000000000DFF8A019B3
:101DA00048750120704710B5DFF8A04A2020207048
:101DB000002060700A20A0700020E0700A202071CE
:101DC000002060713220A0710020E07207222146BD
:101DD000DFF87C0A03F021FD00206072012010BDB5
:101DE00000B583B000A800210A4606C00722DFF82C
:101DF0005C1A0DF1010003F010FDA0208DF8000029
:101E0000082300AA7221072000F0E9FE002801D172
:101E100000200EBD01200EBD80B5DFF8300A417BE9
:101E2000012903D100F0F5F8012002BD018AFF2944
:101E30000CD000290DD0C27A521CC272491E0182F8
:101E4000417AD2B2914201D20021C17200F010F861
:101E500005E0418A01820021C17200F009F80820E2
:101E6000FEF77EFD002801D1002002BD012002BD49
:101E700038B50020ADF80000DFF8D049208A0028EE
:101E800001D1A07A60720722E07AC0EBC000DFF8CF
:101E9000C0194118204603F0C0FCFFF7A1FFA7209E
:101EA0008DF8000000ADE0896870022300AA72215D
:101EB000072000F094FE002801D1002032BD01214E
:101EC0001020FEF7E9FAA9208DF8000001206870C3
:101ED000022300AA7221072000F081FE002801D110
:101EE000002032BD012032BD3EB50446607902902B
:101EF00020790190E0780090A378627821780FF63D
:101F0000801000F0F1FDDFF84C598122FF212846B6
:101F100003F08AFC80222146681C03F07EFC00202E
:101F2000287081232A467221072000F058FE0028DD
:101F300005D10FF6641000F0D7FD00203EBD012052
:101F40003EBD80B501780F2905DADFF80029527A05
:101F5000521C8A4205DA0FF64C1000F0C5FD002035
:101F600002BD4278202A01DB202242700022C2708A
:101F70004271C1EBC101DFF8D82820238B548918A6
:101F800000224A704278002A01D1002201E052006A
:101F9000521E8A7182788A70C278CA7002790A7178
:101FA00040794871012002BDDFF8A008417A491C40
:101FB000417281720120704738B50446DFF88C58B1
:101FC0002C82FFF7F0FE002C00D06C8221460FF629
:101FD000E40000F089FD012032BDDFF8701848737D
:101FE00001207047DFF87018087001207047DFF893
:101FF00068080078704780B5DFF8501808730A7BCE
:102000005200CA8101460FF6BC0000F06DFD0120B0
:1020100002BD10B5DFF83448217A0FF6B80000F0A1
:1020200063FD0020FFF7BAFE002060736072014676
:102030001020FEF731FAFEF70AFA0820FEF790FCAE
:10204000002801D1002010BD012010BD2DE9FE4F58
:1020500004460D4616461F460020824681468046AD
:102060001AE05A4609EB040100A803F0D6FB00A8C9
:1020700000210BF8001008F101090A2203F0DEFB31
:102080000FFA8AFA51464A1C974211DB45F82100A3
:102090000AF1010A08F10108B0450BDA18F804103A
:1020A00030390A29F6D3A8EB090BBBF10A0FD8DBAC
:1020B0004FF0000A02460FFA8AFA51460FF6200046
:1020C00000F012FD5046BDE8FE8F38B504460020F2
:1020D000ADF8000005294CD1A1208DF8000000AD1D
:1020E00020786870022300AA7221072000F077FD93
:1020F000002801D1002032BDA2208DF800006078B8
:102100006870022300AA7221072000F068FD0028F1
:1021100001D1002032BDA4208DF80000A0786870A5
:10212000022300AA7221072000F059FD002801D1E6
:10213000002032BDA5208DF80000E07868700223F1
:1021400000AA7221072000F04AFD002801D10020DA
:1021500032BDA6208DF8000020796870022300AA05
:102160007221072000F03BFD002801D1002032BD84
:10217000012032BD70B58AB004460D462E46212E90
:1021800001DB00202CE02122002100A803F04CFB01
:102190002A4621460DF1010003F03FFB212E01DA12
:1021A000002E05D10FF24C7000F09EFC002017E0CD
:1021B000022203218D20FDF7F5FF00208DF800009D
:1021C000731CDBB200AA7221072000F008FD002872
:1021D00005D10FF2307000F087FC002000E00120F4
:1021E0000AB070BDF0B5C1B005460E46344640F2A7
:1021F0000117BC4201DB00204BE03A46002100A859
:1022000003F012FB324629460DF1010003F005FBF5
:10221000BC4201DA002C05D10FF2FC6000F064FC36
:10222000002036E0812C01DA254600E080250022DE
:1022300003218D20FDF7B6FF00208DF800006B1CF8
:10224000DBB200AA7221072000F0C9FC002805D1EA
:102250000FF2D86000F048FC00201AE0812C17DB58
:10226000012203218D20FDF79DFF00208DF88000C5
:10227000A4F17F03DBB220AA7221072000F0AFFC9B
:10228000002805D10FF2B86000F02EFC002000E01D
:10229000012041B0F0BD80B50021ADF8001000284C
:1022A00010D0012827D1A9208DF8000008468DF80C
:1022B0000100022300AA7221072000F090FC0028F0
:1022C0001BD10DE0A9208DF8000002208DF801003F
:1022D000034600AA7221072000F081FC002801D1EA
:1022E000002002BDDFF87405002101700FF2646068
:1022F00000F0FAFB01E000F002F8012002BD80B519
:1023000000220821DD20FDF74DFF002801D100202B
:1023100002BD00212020FEF7BFF8DFF824040021D1
:102320008175FEF794F8012002BD10B582B00FF25E
:102330002C6000F0D9FB00A800F0FEF8002805D1C1
:102340000FF2246000F0D0FB002016BD9DF80000C5
:1023500001280AD0DFF8E843A07D012805D0607D80
:10236000012802D0607C012801D1002016BD012186
:102370002020FEF791F8002805D10FF2FC5000F064
:10238000B3FB002016BD0120A075FEF760F8012008
:1023900016BD2DE9F04389B00E460024DFF8C05485
:1023A0004FF40073324605F14801FFF74FFE002855
:1023B00006D131460FF2CC5000F096FB01249BE091
:1023C000AE6C2146019106A900910DF11A0307AAEE
:1023D000411E89B205F14C0003F0A2FCBDF81A00C1
:1023E000BDF81C10401A401CADF81000BDF81020BC
:1023F00005F14C01304603F075FC05F1280204A9F3
:1024000005F14C0003F085FA070005D10FF280506A
:1024100000F06AFB01246FE0204606E005EB400176
:102420000A8D0A72120A4A72401C1028F6DB7F00DD
:10243000012001900DF1120000900DF1160305AA84
:10244000BDF8101005F14C0003F06AFC05F64C08CD
:1024500007EBD77040100390CDF8088005F12800F5
:102460000190BDF812000090BDF81430BDF81600C0
:102470001946401A421C92B2BDF8101005F14C00EA
:1024800003F0DEF98146B9F1000F05D10FF21050CB
:1024900000F02AFB01242FE018202870BDF812005C
:1024A000401E6870BDF81800401EA8702046E870F5
:1024B000DFF8B003B0FBF6F02871DFF8A81306FBD5
:1024C0001010B0EB560F02D32879401C28712879E0
:1024D000C01E287105212846FFF7F7FD394609B2CD
:1024E00005F10800FFF746FE494609B24046FFF7EE
:1024F00079FE2046FFF7CFFE002C05D0DFF8400222
:1025000000218175084600E0012009B0BDE8F08394
:1025100028880120A095012080B5FFF7F0FE002853
:1025200001D1002002BD0820FEF71AFA002801D1CF
:10253000002002BD012002BD1CB504460120009010
:1025400001ABA8227221072000F0A5FB002801D1D1
:10255000002016BD9DF8040000F00100411E8941D5
:10256000C943C90F2170012016BDBC49087800225B
:102570000A707047B9490870704738B50FF22C409F
:1025800000F0B2FA0020ADF80000B74C2078002827
:1025900014D0002500E06D1C052D11D228190079FA
:1025A0008DF800002819007B8DF80100022300AA95
:1025B0007221092000F013FB0028ECD1002032BD6D
:1025C000012032BD10B582B05D4CA17E0FF2E83023
:1025D00000F08AFA0020ADF8000090208DF800008D
:1025E00003208DF80100022300AA7221092000F0C7
:1025F000F6FA002801D1002016BD0020A084032097
:10260000A0730120607701460420FDF745FF0028F4
:1026100001D1002016BDFA20FEF7A2F9002801D151
:10262000002016BD012016BD80B50FF29C3000F0D1
:102630005BFA4348002141770420FDF72DFF002875
:1026400001D1002002BDFA20FEF78AF9002801D14D
:10265000002002BD012002BD01207047F0B587B007
:1026600002A800210A4606C00846CDE904018DF8FB
:102670000400012000900DF105039E227221092023
:1026800000F009FB002801D1002057E00120009054
:1026900001ABAB227221072000F0FDFA002801D126
:1026A00000204BE09DF80500400603D59DF804008E
:1026B000400601D5002041E00820009002AB9422A2
:1026C0007221092000F0E7FA002801D1002035E04E
:1026D000002202218020FDF765FD194A9DF80800BF
:1026E000907102AB5E78D67198781070DC78547077
:1026F000197991705D79D5709F79177193F807C03A
:1027000082F805C0537B1372937B537204AB009322
:10271000927942EA062347EA0C2241EA052140EA7F
:102720000420FFF774FA40221146AB20FDF73AFD72
:10273000022211468020FDF735FD012007B0F0BDD3
:1027400048A500207FB5044602A800210A4606C01D
:102750004648056E08468DF80400012000900DF1F2
:1027600005039E227221092000F095FA002801D16C
:10277000002069E00120009001ABAB22722107200C
:1027800000F089FA002801D100205DE09DF80500E5
:10279000400603D59DF80400400601D4002053E014
:1027A0000820009002AB94227221092000F073FAF5
:1027B000002801D1002047E0002202218020FDF7FF
:1027C000F1FC02A841789DF8082042EA0121C27874
:1027D000837843EA022212FA81F14279037943EACB
:1027E000022211FA82F1C279807940EA022011FABC
:1027F00080F01F4E411000EB91708010B0840022D9
:102800004021AB20FDF7CEFC022211468020FDF7CF
:10281000C9FCB6F924002070001260703078A070F6
:102820007078E070B0782071F07860713079A071C4
:102830007079E071B0792072F0796072307AA072AC
:10284000707AE0720120A87704B070BD84940120F2
:10285000BC7E01203C8601204D9701204C97012031
:10286000042C0120FCD93D009CA6002028880120D2
:1028700048A500200FF25C11182002F089BC00006E
:102880004D424420256420256420256420256420B1
:1028900025642025640000004D6F6265616D20573E
:1028A000460000004D6F6265616D20486F702046E4
:1028B00061696C004D4220486F70436F756E7420E3
:1028C000256400004D6F6265616D204C656E3D258D
:1028D000640000004D4220436C6F73652025640046
:1028E000233E6465635F64656C696D7420256420B4
:1028F00025640000233E53594D424F4C2054414221
:102900004C450000233E52454D434F4E2074696DA7
:102910006564617461000000233E53594D424F4C81
:10292000207061747465726E31000000233E524560
:102930004D434F4E207061747465726E320000001A
:10294000233E52454D434F4E207061747465726E44
:1029500033000000233E535441525400233E495259
:102960004F50454E00000000233E52454D434F4E10
:102970002042757379000000233E454E20464149B0
:102980004C000000233E53594D424F4C202564001B
:10299000233E616D7354696D6553697A650000006B
:1029A000233E5061747465726E000000233E4C49F2
:1029B0004749525000000000233E4C494749524FBE
:1029C0002030782578000000233E4C494749524387
:1029D000000000007B250008C52500082926000806
:1029E000592600085D260008452700080000000061
:1029F00000000000000000000000000010B5DFF83B
:102A000034494FF404720021204602F00DFF2046A5
:102A100010BDDFF82009704710B5FFF7EFFF04463F
:102A200000231A461146084600F068FAC046C04620
:102A300000F0A3FD0A21204600F03FF801F047F91D
:102A400000F002FD204600F0F5F9204600F018F8ED
:102A5000DFF8E408006800F048FF204600F091F934
:102A600000F0F3FA00F0B1F900206072A072E07299
:102A70002073012060730020E075A073012010BD59
:102A800010B50446DFF8B40800F091FE0120607133
:102A900010BD10B5044600F0A6FF0120A07110BDC6
:102AA00080B501F040FA012002BD10B50446E0797E
:102AB00001F040FB0121217010BD70B504460025D6
:102AC000E679E171FFF7F1FF002807D02046FFF714
:102AD000D7FF2046FFF7DDFF012503E0E671204622
:102AE000FFF7E3FF284670BD0EB470B5C1B00546D0
:102AF00000A84FF4807103F091F9FFF78AFF0446B4
:102B000045AB2A464FF4807100A803F0A1F900A854
:102B100003F0BCF9451C00A82818002100F8011C8E
:102B2000DFF81C683078401C30707078F021084263
:102B300002D0992003F0D6F903F04AFA7078401CCD
:102B40007070207E2818B0F5FA7F10DA207E0028F9
:102B500003D0207E00190A2101762A4600A9207E92
:102B60000019193002F059FE207E2818207670785E
:102B7000F021084202D0992003F0B4F97078401E89
:102B80007070C0B2002801D103F01CFA03F00AFDF6
:102B900041B070BC5DF810FBDFF86407DFF89C17EC
:102BA0000160704710B50446FFF733FF0069E0404D
:102BB000C0070ED5DFF88C472068401C20601E2817
:102BC00007DB0FF29070FFF78FFF01F02BFB002067
:102BD000206010BDDFF86C070021016070472DE90F
:102BE000F84305460E4617464FF00208DFF85047F7
:102BF0006078F021084202D0992003F073F903F0C5
:102C0000E7F96078401C60709DF80000401E8DF868
:102C1000000017F8019B2846FFF7BEFF00AB4A46AD
:102C20003946304601F038FB002812D06078F02198
:102C3000084202D0992003F055F96078401E607078
:102C4000C0B2002801D103F0BDF9FFF7C3FF012096
:102C50001FE05FFA88F8424629460FF20C70FFF732
:102C600043FF4046A0F101080028D7D16078F02149
:102C7000084202D0992003F035F96078401E607058
:102C8000C0B2002801D103F09DF92846FFF78AFF62
:102C90000020BDE8F2832DE9F04704460D461646B4
:102CA0001F46DFF86486089888F80000DFF89096E1
:102CB00099F80100F021084202D0992003F012F99E
:102CC00003F086F999F80100401C89F801002046BC
:102CD000FFF762FF4FF0020A434632463946284664
:102CE00001F08CFB002815D099F80100F021084272
:102CF00002D0992003F0F6F899F80100401E89F8F7
:102D00000100C0B2002801D103F05CF9FFF762FFB7
:102D1000012022E05FFA8AFA524621460FF25460FF
:102D2000FFF7E2FE5046A0F1010A0028D4D199F83D
:102D30000100F021084202D0992003F0D3F899F85D
:102D40000100401E89F80100C0B2002801D103F043
:102D500039F92046FFF726FF0020BDE8F08780B54F
:102D60001146029A184600F09FFD012002BD80B571
:102D700010465A1E92B20178401C00F075FD0120E9
:102D800002BD1CB504460120009001AB8022D02179
:102D90000020FFF7E4FF9DF80410D12908D101209D
:102DA00084F80E020FF2D850FFF79EFE012016BDE8
:102DB0000FF2D450FFF798FE012084F80E020FF2B4
:102DC000E450FFF791FE012016BD02F07ABBF8B582
:102DD000044602270025DFF82C650DE039464F1E1A
:102DE000C9B200290AD1002804D120690121A940D3
:102DF0008843206102276D1C1B2D10DA56F8250030
:102E0000806F006880470128E8D121690122AA402B
:102E10001143216156F8251001220A77E3E7206962
:102E2000032803D0022801D0012802D140F48050A9
:102E30002061F1BD01F029BC01F091BC01F03CBC66
:102E4000DFF8FC04026A036A00BF00BF00BF00BFD6
:102E500000BF9B1A8B42F6DB7047417230B597B0CA
:102E600003F0DCFC0446FFF7D4FD054600A85C2116
:102E700002F0D4FF0020ADF858008DF801000DF1EC
:102E800001000A21417000218170C170697A002916
:102E90000DD0002C18D000218DF8001005218DF8E0
:102EA00001100B21417000A805F0D2FF0CE0002CAE
:102EB0000AD001218DF8001005218DF801100B2199
:102EC000417000A805F0C4FF17B030BD01F066BC2A
:102ED00001F06EBC02210120F8E702210120F7E792
:102EE00001210846F2E701210846F1E701F06ABC3A
:102EF00010B50446FFF78DFD447510BD2DE9F04770
:102F000082B00C4615462F46264680464FF47A710D
:102F10004FF03C0C4FF4616918FB09F216FB0C22D0
:102F2000BA1801FB0232DFF8E4E39EF900A01AFBB5
:102F300009F99EF901A01AFB0C9C9EF902904CFA2B
:102F400089FCBEF9039001FB0C919EF808C0BCF10E
:102F5000000F22D144EA00012943194302D0012184
:102F60008EF808108EF80000B8F1000F04D59EF816
:102F7000000018308EF800008EF801408EF80250E4
:102F8000AEF8033000933B4632469EF900100FF234
:102F90005440FFF7A9FDBDE8F38791420DD3A1EBA3
:102FA000020CACF2D17CDFF8A093CC45DAD30FF25F
:102FB000104002B0BDE8F04796E5D3D2A2EB010C79
:102FC000ACF2D179DFF880A3D145CBD363460FF2C1
:102FD000004002B0BDE8F04786E510B504002FD0F0
:102FE00003F0F2FCC949CA68002A00D0841AB1F87B
:102FF0000320A218A1F8032012B2B2F57A7F06DBF3
:10300000A2F57A72A1F803208A78521C8A7091F98D
:1030100002203C2A04DB3C3A8A704A78521C4A70EF
:1030200091F901203C2A04DB3C3A4A700A78521C90
:103030000A7091F90020182A01DB00220A70C8608A
:1030400010BDB249052206F061B8B14800210170F7
:1030500041701E22AF4802F0E7BB3FB400210120BF
:10306000AB4A1278002A0CD12CE05C68019DAC427E
:1030700024D11B89BDF80840A3421FD10020491C60
:10308000C9B291421EDAC1EBC103A24C04EB430367
:103090009DF80340DD78A54213D1002CE5D09C8833
:1030A000BDF80450AC4209D1DC88BDF80650AC42F2
:1030B00004D11B89BDF80840A342DFD000F0010015
:1030C000DDE7012004B030BC70477FB4002001462A
:1030D00026E0C0EBC00254008E4D66193C224FF42E
:1030E0006163645D757812FB05F513FB0454B578D4
:1030F00064199DF800509DF8016012FB06F213FB65
:1031000005229DF8023052FA83F2A24201D2824B8C
:103110009A18121BB2F5966F00D9491C401CC0B218
:103120007B4A13789842D4DBC9B28B4202D200208A
:10313000107001E0581A10707FBC70472DE9FF41F4
:103140009DF80340022C5EDA00A80FC8FFF785FF48
:10315000012858D100A80FC8FFF7B7FF9DF802500B
:103160009DF801606B4FDFF8A88198F800000328F4
:1031700025D13C214FF461603A787B7811FB03F351
:1031800010FB0232BB78D2189DF8003011FB06F11B
:1031900010FB031050FA85F0904201D25E490818E6
:1031A000811AB1F5966F02D94FF4966000E0801A4B
:1031B000A8F80200FFF749FF012088F8010098F8FD
:1031C0000000C0EBC00149009DF80020CA55C91994
:1031D0004E708D70CC70BDF80820002C09D1019B79
:1031E0004B600A81BDF80A204A81BDF80C208A8113
:1031F00006E0BDF804308B80BDF80630CB800A8134
:10320000401C88F80000BDE8FF8141494878002251
:103210004A7070473E4840887047242200214B483E
:1032200002F002BB1CB500A8FFF70BFF474C24229D
:103230000021204602F0F8FA9DF80000607604F2C2
:1032400019009DF8011041709DF802108170FF2156
:10325000817213BD0FB410B52DED028B2F4C1046AB
:1032600005F09CFF2E4A2F4B05F0B0FF20616161F5
:103270009FED2D8B049805F091FF53EC182B05F072
:10328000A5FF20606160059805F088FF53EC182BBE
:1032900005F09CFFA060E1609DF81C00207604F121
:1032A00018009DF81D1041709DF81E1081709DF84A
:1032B0001F10C1709DF820100171BDF8210000EEB3
:1032C000100AB8EE400A10EE100A06F055F8184A37
:1032D0001F4B05F07BFF06F077F8C4F81D00BDF822
:1032E0002300A4F821009DF8250084F82300BDECFC
:1032F000028B10BC5DF814FB0849242205F006BFC0
:10330000F4A60020288801204F9701203095012045
:10331000B0960120B89101208051010058920120FF
:10332000FCA9F1D24D62503F8DEDB5A0F7C6B03E7D
:103330003BDF4F8D286B012010A700200054004078
:1033400000A50020B49601205F4C26057C92012048
:10335000976EA23F233E496E6974696C61697A6514
:1033600020493243000000004957452025642025AC
:1033700064000000495245202564202564000000B7
:10338000426F73636800000057484F414D49206603
:1033900061696C203A207265675B3078253032783D
:1033A0005D000000556E6B6E6F776E203661786938
:1033B000732073656E736F7221212121000000005C
:1033C00041542D53657454533120256420256400E5
:1033D00041542D53657454533220256420256420B4
:1033E0002564000041542D536574542025643A250A
:1033F000643A25642E2564000048704780840120CB
:103400000901002807D500F00F00DFF8402B8018D5
:1034100000F8041C7047DFF8382B8154704710B552
:10342000401EB0F1807F01D3012010BDDFF8244B96
:1034300060600F214FF0FF30FFF7E2FF0020A06037
:1034400007202060002010BDF0B595B0012108468E
:1034500006F067F80121202006F09AF800212020CC
:1034600006F096F80121202006F071F8DFF8E84A0E
:1034700008220C21204606F097F908220B2120464D
:1034800006F092F900208DF8060001208DF8070063
:1034900002208DF804004FF48050009002208DF837
:1034A000050000A9204606F031F902208DF804003D
:1034B0004FF40060009000A9204606F027F94FF471
:1034C000E130029000200390ADF81000ADF8140038
:1034D0000C20ADF81200DFF8844A02A9204606F05D
:1034E00077F90121204606F0CDF901214FF4800043
:1034F00006F017F8DFF8684A204606F0E5F9DFF82D
:10350000645A284606F0E0F964200A9000201190E1
:1035100003201290002013900E904FF480600C90C6
:10352000DFF8440A0790002014900D900B904FF4A0
:103530008030109000200F904FF0206706974020B9
:103540000990DFF89C6B06F16400089006A92046FC
:1035500006F03EFA00200F9006970990089606A9FB
:10356000284606F035FA0021204606F058FA0021D8
:10357000284606F054FA15B0F0BDF0B583B0DFF878
:10358000D849204606F066F8DFF8585B284606F072
:1035900061F8DFF8546B304606F05CF8012108460C
:1035A00005F0BFFF0121022005F0BBFF012104202F
:1035B00005F0B7FF0121082005F0B3FF012110201D
:1035C00005F0AFFF0121802005F0ABFF03208DF84F
:1035D000040001208DF8060000208DF807008DF80A
:1035E00005004FF6FF77009700A9204606F08EF8F9
:1035F000009700A9284606F089F8009700A9DFF88F
:10360000EC0A06F083F800A9DFF8E40A06F07EF879
:1036100000A9DFF8500C06F079F800A9304606F052
:1036200075F80021012005F07CFF0021022005F043
:1036300078FF0021042005F074FF0021082005F028
:1036400070FF0021102005F06CFF0021802005F0A4
:1036500068FF0121832005F064FF01208DF804003C
:1036600000208DF8050001208DF8060000208DF85F
:1036700007000320009000A9284606F047F8032120
:1036800028460183C04601208DF8040000208DF8F3
:103690000500ADF806004FF40040009000A9204658
:1036A00006F034F84FF4004120464183C046042020
:1036B000009001208DF806008DF8040000208DF8A0
:1036C000050002208DF8070000A9204606F01EF82C
:1036D0000820009000A9204606F018F804220621D0
:1036E000284606F061F804220721284606F05CF817
:1036F00002208DF8040001208DF805008DF80600E9
:1037000000208DF807004020009000A9284605F011
:10371000FDFF8020009000A9284605F0F7FF012159
:10372000802005F0FEFE012000908DF806008DF847
:10373000040000208DF805008DF8070001213046B7
:103740000183C04600A9304605F0E0FF00208DF857
:1037500004008DF807000220009000A9204605F023
:10376000D5FF0121802005F0DCFE02200090002022
:103770008DF8060001208DF8040000208DF805006A
:103780008DF8070000A9304605F0C0FF0221304641
:103790000183C046286820F0300040F01000286007
:1037A000206820F0300040F010002060F7BD1FB509
:1037B000DFF8E04AA0422FD101214FF4001005F0BC
:1037C000BBFE0121022005F0ACFE01214FF40010E8
:1037D00005F0D3FE00214FF4001005F0CEFE0020CE
:1037E000ADF804004BF6FF70ADF806004FF48060B2
:1037F000ADF80A004FF48040ADF80C000A20ADF897
:103800000800DFF8E80B009000A9204606F0EBF96D
:103810000121204606F04AFA1FBDF8B5044640F6DD
:10382000FF752E46DFF8C87B0221384606F008FBFC
:10383000002805D12846451E0028F5D10020F2BDFC
:10384000214638468181C0460121384606F0F8FA03
:10385000002804D13046461E0028F5D1EEE7384650
:103860008089C046C0B2F2BDF8B504460D46164682
:10387000DFF870784FF4805138464183C04605F038
:103880007F00FFF7CAFF03E014F8010BFFF7C5FF45
:103890003046461E80B20028F6D14FF4805138469B
:1038A000BDE8F44005F07CBFF8B504460D46164669
:1038B000DFF830784FF4805138464183C04645F0F8
:1038C0008000FFF7AAFF04E00020FFF7A6FF04F83E
:1038D000010B3046461E80B20028F5D14FF48051CE
:1038E0003846BDE8F44005F05BBF30B587B004460C
:1038F00001214FF4804005F01FFE0121022005F058
:1039000010FE01208DF8040000208DF80600012033
:103910008DF8070000208DF805004FF480500090CE
:10392000DFF8C05700A9284605F0F0FE4FF480519B
:1039300028464183C046002040F6FF7100E0401C4D
:103940008842FCD34FF4805128460183C0460522AB
:103950000D21284605F028FF05220E21284605F0F6
:1039600023FF05220F21284605F01EFF02208DF8B7
:1039700004000020ADF806008DF805004FF460400B
:10398000009000A9284605F0C1FE204606F0F0F997
:103990000020ADF80800ADF80C000220ADF80E00D4
:1039A0000120ADF810004FF40070ADF8120018209F
:1039B000ADF814000020ADF816000720ADF818008F
:1039C0004FF48270ADF80A0002A9204606F0FFF914
:1039D0000321DFF81C0AC94301810121204606F0BA
:1039E00019FA07B030BD2DE9F04192B001214FF432
:1039F000805005F0ACFD0121084605F092FD012143
:103A00004FF4800005F08DFDDFF84C45052211468E
:103A1000204605F0C9FE05220721204605F0C4FE18
:103A200005220621204605F0BFFE0522042120467E
:103A300005F0BAFE02208DF8040001208DF8050083
:103A40000020ADF806002020009000A9204605F0D7
:103A50005DFE8020009000A9204605F057FE402022
:103A6000009000A9204605F051FE1020009000A90A
:103A7000204605F04BFEDFF87C49204606F078F939
:103A8000DFF8745900202880686001202881002018
:103A90006881E8600720288200206880DFF83C6B9E
:103AA000304605F011FFDFF8387B384605F00CFF93
:103AB0004FF48060069000210D9103210E910021AA
:103AC0000F910A910890DFF81C0B039008461090A4
:103AD000099007904FF400300C9008460B904FF07F
:103AE000C068CDF80880402005900846049002A9DF
:103AF000304605F06DFF00200B90CDF80880059052
:103B000005F11400049002A9384605F061FF002079
:103B100068802946204606F05AF9012202212046F3
:103B200006F084F901221146204606F07FF90121B2
:103B3000204606F06FF90021304605F070FF0021A5
:103B4000384605F06CFF12B0BDE8F08170B596B054
:103B50000121084605F0E5FC01214FF4804005F005
:103B6000F6FC0121084605F0DCFC01214FF4003091
:103B700005F003FD00214FF4003005F0FEFC0121AB
:103B80004FF4003005F0D8FCDFF8CC4307220221C7
:103B9000204605F009FE07220321204605F004FE19
:103BA00000208DF80A0001208DF80B0002208DF80E
:103BB00008000420019002208DF8090001A9204688
:103BC00005F0A4FD02208DF808000820019001A94D
:103BD000204605F09BFD4FF4E13003900020049057
:103BE000ADF81400ADF818000C20ADF81600DFF8A1
:103BF000F84903A9204605F0EBFD0121204605F018
:103C000041FE01214FF4001005F08BFCDFF8DC4988
:103C1000204605F059FEDFF8D859284605F054FE35
:103C200064200B9000201290032013900020149029
:103C30000F904FF480600D90DFF8B80908900020D5
:103C400015900E900C904FF4803011900020109041
:103C50004FF00066079640200A900020099007A9BF
:103C6000204605F0B5FE0020109007960A90DFF878
:103C7000440A099007A9284605F0AAFE0F208DF8EE
:103C8000010000208DF8020001208DF803001020B3
:103C90008DF8000000A806F0E0F811208DF8000073
:103CA00000A806F0DAF801221021284605F0EDFE02
:103CB00001221021204605F0E8FE0021204605F0F3
:103CC000AEFE0021284605F0AAFE16B070BD10B564
:103CD00086B00121032005F024FC01214FF480402F
:103CE00005F035FC00208DF810008DF81300012040
:103CF000039003A9984805F009FD4FF480740394DC
:103D000001208DF8130003A9DFF8D80305F0FEFCAD
:103D10000021084606F0DAF80821012006F0D6F85E
:103D200000208DF8080001208DF80A0001900C2079
:103D30008DF8090001A806F0DDF8019410208DF837
:103D4000090001A806F0D6F8204606F015F917205C
:103D50008DF800000F208DF8010000208DF8020082
:103D600001208DF8030000A806F077F8012100205B
:103D700006F0ACF800208DF8080001208DF80A004C
:103D8000022001900C208DF8090001A806F0B2F87D
:103D900007208DF800000F208DF8010000208DF81D
:103DA000020001208DF8030000A806F056F806B0C6
:103DB00010BD00B585B00121032005F0B2FB012143
:103DC0004FF4804005F0C3FB00208DF810008DF803
:103DD00013000820039003A9C24805F097FC0321B3
:103DE000012006F073F800208DF8080001208DF8FE
:103DF0000A00082001900C208DF8090001A806F0A7
:103E000079F8082006F0B8F809208DF800000F2096
:103E10008DF8010000208DF8020001208DF80300CC
:103E200000A806F01AF805B000BD30B58DB0044604
:103E300001214FF4807005F08AFB00A805F0A0FC7A
:103E40000A20009003208DF8040000208DF8070060
:103E500000A9414805F05AFC06F096F802A806F0C1
:103E6000D8F84FF48030039002A806F0C4F806A8F2
:103E700006F0B7F8DFF8385B06A9284606F091F897
:103E8000072301222146284606F0D4F801212846BE
:103E900006F013F90121284606F0C1F80DB030BD37
:103EA00038B5DFF80C4B204606F002F94FF47A756E
:103EB0000221204606F018F9002803D12846451EA5
:103EC0000128F5DA2046BDE8324006F001B980B598
:103ED0000021DFF8DC0A06F0A2F800214FF4807020
:103EE000BDE8044005F033BB10B5DFF8444A06F0E6
:103EF00005F900280DD0002006F00AF9FFF77CFA3A
:103F0000C06FFEF7CDFD21460620BDE8104006F04B
:103F100005B9DFF8600B06F0D4F921460220BDE8B0
:103F2000104006F0FBB810B5DFF8484B002808D069
:103F30000146204606F050FA2046BDE8104006F043
:103F4000C0B92046BDE8104006F00DBA18ED00E0FB
:103F500000E400E010E000E0000002400014014036
:103F6000A0640240286402400414014070B501249A
:103F70000023DFF8401A1A468A608A6812F00C0F94
:103F8000FBD1DFF88C2A05460B2D45D8DFE805F07C
:103F90001C44444406171C2B30353A3F8D6845F0CD
:103FA00080058D60DFF86C5A4FF4C0662E600D6896
:103FB00025F080750D60DFF8605A15602DE023460E
:103FC000DFF8B45A156028E08D688D60DFF8445A38
:103FD0004FF4C0662E600D6825F080750D60DFF827
:103FE0009C5A156019E00223DFF8945A156014E01A
:103FF0000323DFF8905A15600FE00423DFF8885A96
:1040000015600AE00523DFF8845A156005E00623F1
:10401000DFF87C5A156000E01C46002B4AD003EB09
:10402000C3030FF2D0055B198D688D600D6825F014
:1040300080750D600D6825F080650D609D781E8887
:1040400045EA8615DE787608761E45EA06451E792D
:1040500045EA06654D60DD881E7A360746EA851515
:10406000DFF8C46A35600D6845F080750D600D6835
:10407000AD01FCD55B7943F4C063DFF898592B6040
:104080008B688B608B688B60052804D1886840F052
:104090009000886005E00A2803D1886840F48050C9
:1040A0008860886840F002008860886800F00C0032
:1040B0000828FAD11068DFF8741A884207D2DFF8AE
:1040C000880A016821F4404141F480410160106890
:1040D0004FF47A71B0FBF1F0FFF7A1F9204670BD03
:1040E000B883012000040240001C02400008024086
:1040F000000C0240200110040F03020103F0001025
:10410000060F01020103C00010080F01020103C0E5
:104110000010060F01020103F00010060F0102015A
:1041200003C80010040F02020103A80010020F03CD
:10413000020103001AE7002800E0401EFDD170478D
:1041400030B583B00725534988426AD101208DF8E4
:1041500004008DF805008DF8060000208DF807009A
:1041600040200090DFF8E44900A9204605F0CEFA8F
:104170008020009000A9204605F0C8FA4021204682
:104180004183C0460F20FFF7D6FF40212046018320
:10419000C0460F20FFF7CFFF2846451E80B20028FB
:1041A000ECD18020009000A9204605F0AFFA402114
:1041B00020464183C0460520FFF7BDFF80212046F1
:1041C0000183C0460520FFF7B6FF4021204601834A
:1041D000C0460A20FFF7AFFF402120464183C0467A
:1041E0000520FFF7A8FF802120464183C046052017
:1041F000FFF7A1FF02208DF8040001208DF80500D3
:104200008DF8060000208DF807004020009000A9DE
:10421000204605F07BFA8020009000A9204605F09A
:1042200075FA37BD38B50024DFF824590121286814
:1042300005F075FD286805F0A7FC2868FFF7B7FAB8
:1042400005E02868FFF77CFF2868FFF7B0FA4FF415
:104250000031286805F06EFD002802D0641C332C64
:10426000EFDB31BD0010024030B40022838A008BA6
:10427000DFF8DC48656843EA00400840000255EA80
:10428000102060600840884200D10122104630BCF6
:1042900070470000005400402DE9F84F04460D46D9
:1042A00016464FF420691F78DFF8A4884FF40031D8
:1042B000D8F8000005F03EFD002808D04846A0F1DF
:1042C00001090028F2D1FFF7ADFF00208CE0D8F8FB
:1042D000000001884FF6FF52114001800121D8F8FB
:1042E000000005F0EFFC4FF4007AD1460020C8F83A
:1042F0000400D8F800B0DFF85C185846FFF7B4FFA8
:10430000002805D14846A0F101090028F1D163E059
:10431000D14600222146584605F0ECFC0020C8F8A2
:104320000400D8F80040DFF830182046FFF79CFF63
:10433000002805D14846A0F101090028F1D14BE041
:104340003146C9B220460182C046D1460020C8F895
:104350000400D8F80040DFF804182046FFF784FF77
:10436000002805D14846A0F101090028F1D133E029
:10437000012F15D1297820460182C046D146002060
:10438000C8F80400DFF8D817D8F80000FFF76CFF72
:10439000002823D14846A0F101090028F2D11BE0F2
:1043A0003846471EC0B2002818D015F8011BD8F8AF
:1043B00000000182C046D1460020C8F80400DFF8A2
:1043C000A017D8F80000FFF74FFF0028E8D14846B3
:1043D000A0F101090028F2D1002005E00121D8F860
:1043E000000005F07BFC0120BDE8F28F801A06007A
:1043F0000038004000300140E49101202DE9F54FE4
:1044000081B00D461E464FF420683778DFF84047EC
:104410004FF40031206805F08DFC002808D040469C
:10442000A0F101080028F3D1FFF7FCFE0020D3E043
:10443000206801884FF6FF52114001800121206859
:1044400005F040FC4FF40079C84600206060DFF8BA
:1044500004A7D4F800B051465846FFF705FF0028DE
:1044600005D14046A0F101080028F2D191E00022D8
:104470009DF80410584605F03DFCC84600206060D9
:10448000D4F800B0DFF8D0165846FFF7EDFE00284C
:1044900005D14046A0F101080028F1D179E0BDF82E
:1044A0000810C9B258460182C046C846DFF8B416A3
:1044B000206805F03FFC002805D14046A0F1010826
:1044C0000028F3D165E00121206805F0FBFBC84618
:1044D00000206060D4F800B051465846FFF7C4FE93
:1044E000002805D14046A0F101080028F2D150E093
:1044F00001229DF80410584605F0FCFB022FC84627
:1045000039DADFF86416206805F014FC002805D1BC
:104510004046A0F101080028F3D13AE000212068CC
:1045200005F0F1FB2068018B012105F0D7FBC8469F
:10453000DFF83816206805F0FDFB002805D140465D
:10454000A0F101080028F3D123E02068008AC0B25E
:1045500028703078401E3070C84620680188890570
:1045600005D54046A0F101080028F6D111E001214F
:1045700005F0C9FB2BE000206060DFF8F41520682F
:10458000FFF772FE002806D14046A0F1010800287E
:10459000F3D1002020E0012616E0012F0CD1012EDE
:1045A0000AD100263146206805F0ADFB2068818ADB
:1045B000018B012105F092FB2068818A490603D511
:1045C000008A05F8010B7F1EFFB2002FE5D1012103
:1045D000206805F098FB0120BDE8FE8F886402404A
:1045E000106402400C30014000440040A0600240D2
:1045F0008860024004440040DFF87805016808291B
:1046000033D1DFF8B0130A6842F080720A60426862
:10461000B2F1806F03D10A6842F080620A600A68D2
:104620009201FCD58A6842F002028A608A6802F030
:104630000C02082AFAD14268B2F1806F02D10A68EE
:104640001201FCD5DFF8C8130968DFF8E0249142B5
:1046500007D2DFF8F4140A6822F4404242F48042A0
:104660000A6000210160416070474168B1F1806FCC
:104670000AD1DFF840130A6842F080620A600A68D3
:104680001201FCD5002141607047DFF8EC0401689D
:1046900041F080510160DFF8B004016889088900A9
:1046A00041F001010160DFF8D4040FF2250101603F
:1046B0007047000094880120DFF8C804016821F0E9
:1046C0000401016030BF016841F0040101607047DE
:1046D00038B5DFF8AC44208840F004002080FEF7B5
:1046E00098F9807A012803D1012005F09CFE02E0B0
:1046F000002005F098FEDFF88C548021DFF8880454
:1047000005F09EFB002818D172B6AA48DFF86414A1
:10471000826802F00C020A60006800F08060486065
:10472000286840F00400286030BF62B6286820F096
:1047300004002860FFF760FF0CE0608840F0040090
:104740006080286820F00400286030BF286840F0AE
:1047500004002860608840F00400608031BDDFF80C
:104760001C04006800470000DFF82014401E0528E4
:1047700012D8DFE800F00306090C110FDFF8CC13A4
:104780000AE0DFF80C1407E0DFF8081404E0DFF8B3
:10479000081401E0DFF804140846704710B50C4611
:1047A000FFF7E2FF214689B2BDE8104004F0F8BFF0
:1047B00010B50C46FFF7D8FF214689B2BDE810407E
:1047C00004F0F0BFE0B500238DF8083001238DF828
:1047D0000A30002A03D10C228DF8092002E00822B9
:1047E0008DF80920042840D8DFE800F00316222BBA
:1047F0002B000820019009208DF800000F208DF873
:10480000010000208DF80200012924D118468DF8FE
:1048100003008DF80A0022E01846019010208DF860
:10482000090006208DF800000E208DF80100E8E751
:104830000220019007208DF800000F208DF8010064
:10484000DFE74FF40070019017208DF800000F2073
:104850008DF80100D5E78DF803008DF80A0001A856
:1048600005F048FB00A805F0F8FA07BD0821B74895
:1048700004F08FBF10B5044601214FF4802004F0EE
:1048800050FE2146102005F06EFF00214FF48020DD
:10489000BDE8104004F045BE10B501214FF4802062
:1048A00004F03FFE102005F06BFF044600214FF49A
:1048B000802004F036FE7B2004F080FE002802D029
:1048C00098A0FEF711F97A2004F078FE002802D0B3
:1048D00097A0FEF709F9792004F070FE002802D0B5
:1048E00094A0FEF701F97C2004F068FE002802D0B5
:1048F00091A0FEF7F9F87D2004F060FE002802D0B8
:104900008EA0FEF7F1F87E2004F058FE002802D0B9
:104910008BA0FEF7E9F87F2004F050FE002802D0BB
:1049200088A0FEF7E1F804F05BFE2046C0B210BD9F
:10493000FCDE00203EB50C4615460422014602A8C6
:1049400000F06BFF0422214601A800F066FF04225C
:10495000294600A800F061FF02A9002005F0D4FD5F
:1049600001A9002005F049FE05F042FE04468C4AEC
:10497000002300981946101A63EB0101490341EA2C
:10498000D041400300F0D2FE0090844205D2011BCA
:104990004FF0004005F001FF37BDA04207D2C4F53B
:1049A0000050009909184FF0004005F0F6FE37BDA1
:1049B00000200140003802402DE9704384B00446D5
:1049C0000D46164602A9002005F0EDFD01A90020C4
:1049D00005F063FE05F00CFE0090714AA2FB008911
:1049E0004FEA583848EAC948A2EB08000090042270
:1049F00002A9204600F011FF042201A9284600F078
:104A00000CFF042200A9304600F007FFBDE87F83B9
:104A1000D4A60020003C024000127A0070B48C1E24
:104A2000012C01DA0C34401E3C216425B0FBF5F565
:104A3000C5EB90054FF4C876B0FBF6F6751940F259
:104A40006F1674430C26B4FBF6F46419121940F285
:104A50006D1404FB0020534A101800EB400203EBD6
:104A6000C200039A01FB0020049A01FB002070BCE5
:104A7000704700008CEA0020809698000024F40023
:104A800000366E010048E801005A620280F0FA0226
:104A900000BD01051CB50C460168019141680091FB
:104AA0008368C2680169491C406900F26C70FFF7B5
:104AB000B5FF2060002016BD10B58EB03A480068E2
:104AC000C404E40C01A9002005F06DFD00A900203C
:104AD00005F0E3FD9DF8040006909DF805000590A3
:104AE0009DF8060004909DF80100401E08909DF876
:104AF000020007909DF803006430099002A904A801
:104B0000FFF7C8FF4FF47A7010FB04F0400BC0F5BC
:104B10007A700390029A4FF47A73C117E3FB020193
:104B20000EB010BD504F52008438024001879303ED
:104B300050494E00424F52005346540049574400DA
:104B4000575744004C50570000700040000402408A
:104B5000F4A6002001000300820007008000070087
:104B60008400070004000010020000104000001044
:104B700002000300289601204038024020960120C0
:104B80001800024010ED00E000300140000002403B
:104B900000080240000C024000100240001C0240CD
:104BA00000CA9A3B7505F5FF282800405060026056
:104BB0004160086070470A68F8E748600160704724
:104BC00001684068F9E7F8B50600DFF8705901D5CB
:104BD0002846F2BD2C460020A96900E0096805F1CD
:104BE0001802914204D00C46A2689642F6D10120E8
:104BF000002840D1286AD0F88070182005F05EFEA9
:104C00000446A660002F05D0B74203D2B6FBF7F0EA
:104C1000784300E03046E060002F02D0B74200D277
:104C20003E46266100202075DFF814693078401C6C
:104C300030707078F021084202D0992001F052F9CA
:104C400001F0C6F97078401C707005F1180120461B
:104C5000FFF7B1FF7078F021084202D0992001F0EF
:104C600041F97078401E7070C0B2002801D101F087
:104C7000A9F901F097FC2046F2BD38B5044694F935
:104C80001400002829D1DFF8B8582878401C287073
:104C90006878F021084202D0992001F023F901F050
:104CA00097F96878401C68702046FFF789FF204616
:104CB00005F01CFE6878F021084202D0992001F02E
:104CC00011F96878401E6870C0B2002801D101F067
:104CD00079F9BDE8314001F065BC31BDF8B5044655
:104CE00008466FF00045FFF76EFF064694F9050091
:104CF00094F90410814214D1C01C800005F0DEFD3F
:104D0000074694F90500012807DB82002168384630
:104D100000F083FD206805F0E9FD27606079C01C84
:104D2000607194F90400411C2171216841F82060F0
:104D3000DFF80808864202D0307D401C3075002024
:104D400008E0216851F820108A68954201DB154679
:104D5000A160401C94F904108842F2DBF1BDF8B563
:104D600004466FF00046DFF8D427154610464FF092
:104D7000FF33002704E0664501DB664675467F1C6D
:104D800094F904C067450DDAD4F800C05CF827E058
:104D9000DEF808C0002BEED58C45ECD170463B46C2
:104DA0005BB2ECE7002B11D4BCF1010F0EDB06E087
:104DB000216801EB8306766841F823605B1C94F957
:104DC00004104E1EB342F3DB491E2171904204D001
:104DD000017D491E0175FFF750FFA560F1BD10B4BC
:104DE000C26A836B406C9C68002C02D56FF0004354
:104DF00000E01B698468002C02D56FF0004000E0E1
:104E00000069984200DD1846D2685143884201DBB0
:104E1000012000E0002010BC704738B5DFF81C17F7
:104E20000A6AD36E012490F90850AC402343D3663C
:104E300001F6A451FFF7BFFE012032BD10B5DFF827
:104E4000FC16096ACA6E012390F90840A3409A43F0
:104E5000CA66FFF7B5FE012010BD012070472DE99D
:104E6000FC4104460D4616461F4604F12400FFF798
:104E700035FF07EB470004EB8008314608F13000AE
:104E8000FFF72CFF019598F9340000903B46627AB9
:104E900094F908100FF2F460FDF726FEBDE8F381E7
:104EA0002DE9FC4104460D4616461F4604F1240038
:104EB000FFF755FF07EB470004EB8008314608F188
:104EC0003000FFF74CFF019598F9340000903B4605
:104ED000627A94F908100FF2C860FDF705FEBDE88C
:104EE000F381C16A8A68012A09DB0969012906DAA6
:104EF000006D002801D50020704702207047002077
:104F0000704701EB410200EB8201896B8A68012A3C
:104F100009DB0969012906DA006D002801D50020A6
:104F200070470220704700207047002900D5D8E75D
:104F3000E7E7012900DA012113460A468FE7012934
:104F400000DA012113460A46AAE7DFF8F805C06A2D
:104F5000417A481E8041C00F704713464FF0FF3220
:104F600011467CE713464FF0FF32114698E780B5B3
:104F7000DFF8D0050068417A002902D1806F4068CF
:104F80008047012002BD80B5FFF758FFDFF8B40568
:104F90000068417A002902D1806F80688047012033
:104FA00002BDB1F57A7F01DC4FF47A7113460A46EF
:104FB0004FF4FA7153E7B1F57A7F01DC4FF47A715F
:104FC00013460A464FF4FA716AE710B50446002901
:104FD00022D5E06A816801291CDB0069012819DA01
:104FE00002212046FFF7FBFE002813D194F954005C
:104FF00010F1010F04D1002084F85400012010BDED
:10500000002807D1012060774FF0FF3084F854006A
:10501000022010BD002010BDBDE8104071E74FF028
:10502000FF3280F85420F8E6DFF81025126AD2F833
:105030008020A03252420265EFE600290AD5C06AFC
:105040008168012904DB0069012801DA0220704728
:105050000020704755E7B52900DAB42113460A4607
:105060003C21FCE6B52900DAB42113460A463C216E
:1050700016E710B50446002927D5E06A81680129A2
:1050800021DB006901281EDA03212046FFF7A7FE75
:10509000002818D194F95400014611F1010F04D1F0
:1050A000002084F85400012010BD002803D1012005
:1050B00084F8540010BD012905D14FF0FF3084F869
:1050C0005400022010BD002010BDBDE8104018E7BC
:1050D0004FF0FF3280F85420DFF86024126AD2F8D3
:1050E0008020B4325242026597E6DFF85024126AFB
:1050F000D2F880204632524202658EE6DFF83C2428
:10510000126AD2F8802046325242026585E6134682
:105110003C221146A3E613463C221146C0E6002974
:1051200018D5C16A8A68012A14DB0969012911DAD4
:1051300090F85410491C80F8541049B2002901D14C
:1051400001207047012905D14FF0FF3180F854103C
:10515000022070470020704713464FF0FF3211467F
:105160007DE613464FF0FF32114699E680B5FFF712
:1051700054FEFDF74EFC00210175012002BD80B5F3
:10518000FFF75CFEFDF745FC00210175012002BD23
:10519000F8B50C46DFF8AC1351F82050287205F131
:1051A00054060FF21041B1621A2800F25781DFE86D
:1051B00010F01B00300042006B00570080008F0091
:1051C0009D00D500AB00C700E300F100FD00080121
:1051D00013011F012A01400140014001400140012B
:1051E0004001B9004B013501D448016A072281F81A
:1051F000842005F1080106224A760A228A7600F602
:10520000AC50486040F2DC5088600FF2C430B062AD
:1052100024E1CA48016A843103224A7005F1080179
:1052200006224A760A228A7600F59850883048602D
:105230006420886012E1C148016A843100228A70CA
:1052400005F108010C224A7610228A7600F5A0505A
:105250000C304860104688600FF2C830B062FDE044
:10526000B648016A843100220A7105F1080107225B
:105270004A760B228A7600F5A05048601046886076
:105280000FF2A030B062E9E0AC48016A843100223C
:10529000CA7005F1080106224A760A228A7600F5CC
:1052A000A0501C304860104688600FF27830B06221
:1052B000D4E005F10801062048760A208876A24845
:1052C00048604FF4FA7088600FF27430B062C5E045
:1052D00005F1080114204876182088769B4848601C
:1052E000182088600FF2E430B062B7E005F10801E1
:1052F0000320487607208876954848600720886014
:105300000FF29030B062A9E005F108010A2048765A
:105310000E2088768F4848600E2088600FF23C305F
:10532000B0629BE005F108010C20487610208876D9
:1053300089484860102088600FF23C30B0628DE0F0
:1053400005F10801022048760620887683484860E7
:10535000062088600FF25830B0627FE005F1080146
:1053600005204876092088767D48486009208860B5
:105370000FF29420B06271E005F108010620487632
:105380000A208876774848600A2088600FF25C20FF
:10539000B06263E005F108010120487605208876B7
:1053A0007148486040F28660886057E005F1080166
:1053B00001204876052088766C4848600520886082
:1053C0004CE005F108010C204876102088766848EA
:1053D00048601020886041E005F1080111204876FE
:1053E000152088766348486041F66630886035E06D
:1053F00005F1080111204876152088765E4848603E
:10540000152088602AE005F108010420487608206C
:1054100088765A484860082088601FE005F1080136
:105420002420487605208876554848600520886005
:1054300014E005F1080101204876052088765148DE
:1054400048600520886009E005F1080106204876DB
:105450000A2088764C4848600A20886005F10801D7
:1054600000200875487588750876C860086148701E
:1054700005F12807B8624FF0FF3085F854007080BE
:105480000622002105F1580000F0CEF900210B465C
:105490000DE001EB410205EB820282F83430343238
:1054A0005370506005EB81001A468264491C234802
:1054B0000229EEDB194685F828107970786074624D
:1054C000F1BD10B51D4CFDF797FF206200201D4A6D
:1054D00005E004EBC011243142F82010401C1B28C9
:1054E000F7DB4FF0FF30A060E06000202061FDF7A7
:1054F00090FA90F80E02012803D106F0FBF806F0AE
:10550000D8FC07F0FFF9FCF785F807F03BFFFCF744
:10551000C5F8FCF729FCFDF7ADF908F003FB08F02E
:1055200002FC08F011FC08F0F9FB08F012FC08F08E
:105530009DFDBDE8104008F011BC0000086000208F
:1055400000A5002028880120307400202476002047
:10555000687600204876002058760020707600207B
:105560003C7600207876002084760020147D002090
:105570001C7D00202C7D0020949800200C7D0020B4
:10558000AC980020F4730020FC73002041442025D7
:10559000642025642025642025642C2025640000D7
:1055A000524D202564202564202564202564202573
:1055B000640000005B4E00081B4E00085B4E0008B4
:1055C0003D4E0008334F00083F4F00082B4F0008A6
:1055D0004B4F00081B4E00084B4F00083D4E000883
:1055E000334F00083F4F00082B4F00086F4F000853
:1055F0001B4E00085B4E0008874F00085B4F0008F9
:10560000654F00082B4F00085B4E00081F50000834
:105610005B4E00083D4E0008A34F0008B74F00083E
:10562000CB4F00085B4E0008295000085B4E000875
:105630003D4E0008334F00083F4F00083B50000824
:105640005B4E0008D15000085B4E00083D4E00083C
:105650005750000865500008735000085B4E000862
:10566000EB5000085B4E00083D4E0008334F000829
:105670003F4F00082B4F00085B4E0008FD5000080C
:105680005B4E00083D4E00080F51000817510008FE
:105690001F5100085B4E00086D5100085B4E00086A
:1056A0007F51000859510008635100082B4F000832
:1056B0005B4E00081B4E00085B4E00083D4E000884
:1056C000334F00083F4F00082B4F00085B4E000887
:1056D0001B4E00085B4E00083D4E00085951000863
:1056E000635100082B4F000813F0004C03D55B42B8
:1056F000524263F100039CEA210C00F0178010B5C0
:10570000644603D34942404261F1000100F00EF8C3
:10571000640004D34942404261F10001244203D5B0
:105720005B42524263F1000310BD00001B4213D1E3
:10573000094236D12AB18446B0FBF2F002FB10C216
:10574000704708F0B9BCFCD30022002370470B005F
:105750000200002100207047904271EB030CF6D349
:1057600070B5B1FA81F4B3FA83F52C1BA340C4F1F0
:10577000200532FA05F63343A2405FF00046E640CA
:1057800002E05B085FEA3202841A71EB030524BF72
:10579000204629467641F4D302000B003000002158
:1057A00070BD012ACFD970B5140C20D0B1FA81F4A4
:1057B000B2FA82F5C4F120046419B4F12006D6D3FC
:1057C000B2405FF00044F440002502E052085FEA76
:1057D0003303C61A71EB020E24BF30467146644192
:1057E0006D41F3D302000B002000290070BD0C4670
:1057F000B1FBF2F102FB11452D0445EA1045B5FB62
:10580000F2F402FB145580B240EA0545B5FBF2F014
:1058100002FB105240EA044070BD10B504002000A5
:1058200003F074FC200010BD10B5040010000A0045
:105830000100200008F042FC200010BD08F001BD6E
:105840002DE9F84F82460E4617460A9DADB2A8468E
:10585000A8F1010007FB10647008B8F1020F0DDB1E
:10586000FE280DDADDF830904FF4807200214846B2
:10587000FFF7DAFF00220B980D992BE0FF28F1DDEE
:10588000002044E05AF822C030F813E0F44509D172
:1058900002EBD27C4FEA6C0C1CF809E04EEA031EC6
:1058A0000CF809E00AEB820CDCF804C030F813E0D5
:1058B000F4450BD102EBD27C4FEA6C0C1CF809E0EA
:1058C00003F00F0B4BEA0E0E0CF809E05B1C8B4249
:1058D000D8DB921CA24201DA0023F8E704EBD47073
:1058E0004010441CFF21B8F1020F0DDBFE2200F82E
:1058F0000920681E07FB1060C01B04F80900601C2B
:1059000000F80910441C01E000F809102046BDE829
:10591000F28F2DE9F24F86B0044615460026084660
:10592000B0F80090142707FB09F004F0C7FF804689
:10593000202231462846FFF777FF31461DE0401C04
:10594000B0420DDA07FB00F354F821C053F808E029
:10595000F445F4D1012203EB080043685B1C43606B
:10596000002A09D107FB06F054F8212040F808204E
:10597000404401224260761C491C494502DA00205D
:105980000246DDE700211FE0D9F8043007FB028C56
:10599000DCF804C0634500DA1046521C07FB00899E
:1059A000B242F1DB07FB018B3A46594601A8FFF7EB
:1059B00034FF3A4649465846FFF72FFF3A4601A9B9
:1059C0004846FFF72AFF5146B14204DA01F1010AC5
:1059D00052460846E2E7112E09DA0021B1420EDAFA
:1059E00007FB0180006825F81100491CF6E70095C7
:1059F000334642460699204600F00BF80646B8F1B9
:105A0000000F02D0404604F071FF304607B0BDE8F9
:105A1000F08F2DE9F34F89B014461D4608460088E3
:105A2000029000200090019006460746DFF8E482CD
:105A30000298820009994046FFF7EFFEB24621E046
:105A400001FB004109685BF80420914200D28146C5
:105A5000401C142101FB09FBA842F1DB01FB0A49B0
:105A60000A46494603A8FFF7D8FEA3441422594624
:105A70004846FFF7D2FE142203A95846FFF7CDFE91
:105A80000AF1010AAA4503DA0AF10100D146E0E76A
:105A9000304607E0142141430A1953690959591A3C
:105AA000D161401C691E8842F4DB0123A268B6461E
:105AB00014210EE001FB004CDCF808C0624500D167
:105AC0005B1C401CA842F5DB0198984201DA019367
:105AD0000092AE4507DA01FB0E40826801230EF109
