:10000000000C0020617C0308B9960008CD9600081A
:10001000E1960008F5960008099700080000000026
:100020000000000000000000000000001D97000814
:10003000319700080000000011610008DB7801081A
:10004000E57D0308E97D0308ED7D030827790108B4
:10005000F57D030895A80008999E00088FA0000868
:10006000B7A10008ADA200080D7E0308117E0308A9
:10007000157E0308197E03081D7E0308217E0308F0
:10008000A9A30008D1A400082D7E0308317E03082F
:10009000357E0308397E03083D7E03084DA600081F
:1000A000457E0308497E03084D7E0308517E030800
:1000B000557E0308597E03085D7E0308617E0308B0
:1000C000657E0308697E03086D7E03084997000872
:1000D000757E0308797E03087D7E0308817E030810
:1000E000B5A5000889A700088D7E0308917E030846
:1000F000957E0308997E03089D7E0308A17E030870
:10010000A57E0308A97E0308AD7E0308B17E03081F
:10011000B57E0308B97E0308BD7E0308C17E0308CF
:10012000C57E0308C97E0308CD7E0308D17E03087F
:10013000D57E0308D97E0308DD7E0308E17E03082F
:10014000E57E0308E97E0308ED7E0308F17E0308DF
:10015000F57E0308F97E0308FD7E0308017F03088E
:10016000057F0308097F03080D7F0308117F03083B
:10017000157F0308197F03081D7F0308217F0308EB
:10018000257F0308297F0308DFF8000C00787047FB
:100190002DE9FF4397B003F07DF80546DFF8F00B3B
:1001A000866BDFF8F07B3C681BE098F81910D8F8F4
:1001B0001000D8F804208018D4F8382152699047EC
:1001C000002802D0204603F099F917A883B06946A9
:1001D0000CC80CC10CC80CC10EBC204600F057F86E
:1001E0002468BC423CD094F908000728F8D00B28BA
:1001F00007DB0E2805D00F2803D0102801D01828BF
:10020000EED10628ECD004F10808D8F860000028E8
:1002100004D5D5F880100818C8F860004FF0FF31F9
:100220002046D4F83C21926990478146B9F1010FEC
:1002300005D198F86400D4F8381109698847B9F1F4
:10024000020FC2D194F908000128AED1707A0028BB
:10025000ABD0B07F0128A8D1204603F04FF9B4E716
:10026000D5E91C01002901D100280CD00A208DF805
:10027000020002208DF80000D5F88000ADF858008B
:1002800000A804F013F801201BB0BDE8F0830EB401
:100290002DE9F0418FB0044602A8342104F05CF946
:1002A00000212046D4F83C219269904702284ED183
:1002B00004F10C050120A87494F89F00002846D092
:1002C000DFF8D47A4CF250303968461A0020019099
:1002D00015A883B069460CC80CC10CC80CC10EBC73
:1002E000204600F0CBF90190012204F1080102A898
:1002F00004F035F96A7DE868E16841180DF10900FC
:1003000004F02DF9042201A9687D02ABC018401C3D
:1003100004F025F9DFF8848A38684044697D491D76
:100320008E420CD2324602A904F019F9687D401DB4
:10033000821B02A83118404604F011F904E0A97D9F
:100340004A1C02A904F00BF9204600F099FA012199
:100350002046D4F83C2192699047022802D12046D9
:1003600003F0DEF90FB0BDE8F0015DF810FB30B529
:1003700085B004460D46CA208DF800002888ADF8E7
:1003800001000220ADF80300BDF80100001D04F0DB
:10039000EDF8CDF8090002220DF1030104F0DFF8B9
:1003A00002222946DDF80900801C04F0D8F82A88CA
:1003B0002146DDF80900001D04F0D1F80020288056
:1003C00000A9DFF8DC0904F0F9F805B030BD42F20D
:1003D0003411081A322801DA0120704700207047D2
:1003E00080B504F02CF9407B002804D002F05EFFB9
:1003F000DFF8B019086001BD80B502F057FFDFF8E3
:10040000A819086001BD80B502F059FFDFF89C29EA
:10041000C2E9000101BDDFF8900900687047DFF80C
:100420008C29D2E90001704770B582B004460020E3
:100430000090FFF7F0FFD4F8A410401A009004F1E8
:100440000C000099C26AD268DFF864399A18511812
:100450000091437D857DC668E4684068801BA842A2
:1004600005D1042200A9181904F079F873BD0422FB
:1004700000A930192818181804F071F873BD0EB4CB
:1004800018B5044604F10800079A816D01290DDBB7
:100490008168837E994202D10020106008E0006BE1
:1004A000C0684FF47A714843106001E00120106089
:1004B00094F908000C2801D011280CD1059BD4E92F
:1004C0002A01181A1060DFF8E818091811600FF2F5
:1004D000240004F01FF90020C4F82C017822014602
:1004E00004F1B40004F060FE002084F8B00011BCF8
:1004F0005DF810FB46697273742054696D65206461
:10050000696666203D202564000000000EB478B5C1
:100510000446002594F90800099E0C2801D01128F2
:100520001ED11A46D4E92A01101A306007982946CC
:10053000D4E92A23994209D801D3904206D26420F3
:10054000306001460FF2F80004F0E4F83068DFF89C
:100550006018091831600FF2FC0004F0DBF832E09B
:1005600005AA10685168D4E92A2300F0DBF830604E
:10057000002817D000EE100AB8EE400A04F1080176
:10058000096BD1ED030AF8EEE00A9FEDD71A60EE91
:10059000810AB7EE081A60EE810AF4EE400AF1EE25
:1005A00010FA10D594F90820182A0CD001460FF241
:1005B000B40004F0AFF804F10800006BC0684FF419
:1005C0007A714843306094F908000C282CD0112827
:1005D0002AD0D4F82C01411CC4F82C1104EB800063
:1005E0003168C0F8B410284605E004EB8001D1F86A
:1005F000B4104D19401CD4F82C118842F5DBB5FB22
:10060000F1F03060D4F82C011E280DDB1D20C4F859
:100610002C01002006E004EB8001D1F8B820C1F8DD
:10062000B420401C1D28F6DB04F5967001790129E1
:1006300003D1002101715020306071BC5DF810FBC6
:1006400054696D655F646966665F6F766572203DAB
:100650002025640054696D655F64696666203D20ED
:10066000256400004354535F54696D655F5365749E
:1006700074696E6720256420256400000EB430B5CF
:1006800084B004460020029094F8B000012802A82B
:10069000019007A883B069460CC80CC10CC80CC1F6
:1006A0000EBC204602D1FFF7EAFE01E0FFF72EFF65
:1006B00094F89F0000280AD104F10800042202A93E
:1006C000437E056940682818181803F048FF94F91C
:1006D00008000C2801D0112804D109980021C4E990
:1006E0002A0104E007A802684368C4E92A230298A3
:1006F00004B030BC5DF810FB0020DFF894168A6867
:10070000D26A92680969C96A8968002903D4012AF2
:1007100002DB8A4200DA0120002801D00220704763
:100720000420704738B52DED028B04460D46104667
:100730001946A94205D801D3A04202D29FEDC68A2C
:1007400001E09FEDC68A04F039FD00EE100A30EE9C
:10075000088A2046294604F031FD00EE100A38EEE2
:10076000400ABCEEC00ADFF81C1CB8EEC00AD1ED8E
:10077000010A20EE200ABCEEC00A10EE100A086042
:10078000BDEC028B32BD30B41488651C1580052584
:1007900065541488651C1580635413885C1C148090
:1007A000007A585430BC704732B515461C46218833
:1007B0004A1C228037224A5521884A1C2280007A0E
:1007C0004855022200A92088401903F0C8FE20885D
:1007D000801C208031BD2DE9F041054616461F469C
:1007E00005F10808069CA4B298F81A0004FB00F270
:1007F000D8F8040009183888801903F0B0FE38884A
:1008000098F81A10614311FA80F038803888FFF7A1
:10081000DEFD002803D039463046FFF7A8FD95F9E4
:10082000080016280AD1D8F81000D8F80410415C46
:100830000FF20C00BDE8F04103F06CBFBDE8F081A1
:100840002323205368616B652025640030B400F1D8
:1008500010039B7C914203D1006990FBF3F00DE003
:100860000C46154603D2281B90FBF3F006E0006906
:10087000001B90FBF3F095FBF3F1081830BC7047B8
:10088000F8B5044603F0DBFE04F110018A7C134640
:1008900094F89F50002D1BD05B1CDFF8FC442568AA
:1008A0004CF25036771B9F4205D2DFF8DC3A9A189B
:1008B0005219226001E05A1922602268B24201D125
:1008C00000222260807B00280CD100208873F1BDBB
:1008D0008868181888602269904201D100208860D9
:1008E00000208873F1BD000000007A4470B582B02A
:1008F00004460D461E4692B289B2FFF7A7FF80B2AA
:100900000090069B324629462046FFF764FF73BDE0
:10091000F8B5044615461E462269002D00D115463D
:10092000069F0097FFF7E2FF2069854206DA0097ED
:1009300033462A4600212046FFF7D8FFF1BD2DE9B6
:10094000F04184B004460F469046A16960690028D2
:1009500017D500250A4692B289B22046FFF776FFE6
:10096000064643463A46314689B22046FFF71CFF09
:10097000A269CDF800803B4611462046FFF7C8FF2C
:1009800036E0814218DA01250A4692B2014689B260
:100990002046FFF75BFF064643463A46314689B29A
:1009A0002046FFF701FFCDF800803B46A269616950
:1009B0002046FFF7ADFF1BE00225884201D101264A
:1009C00007E00A4692B2014689B22046FFF73EFF91
:1009D000064643463A46314689B22046FFF7E4FED2
:1009E000CDF800803B46A26961692046FFF77EFF93
:1009F000A06B80680290A0690190606900902B460E
:100A0000324694F908100FF20C0003F083FEBDE8A3
:100A1000FF8100005061636B203D25642025642028
:100A2000256420256420256420256400DA480168B7
:100A3000DFF8580902688A4201D2881A03E04CF2B2
:100A40005030801A0818914205D1DFF8441909780E
:100A5000002900D1002070470000804600000000FF
:100A6000F8B504460E46174604F10805A86D01289E
:100A700011DAA87D012832D13B46324601212046B9
:100A8000FFF792FE012000903B463246296920463E
:100A9000FFF7A1FE23E094F89F00002804D0217AFC
:100AA000012000F0AEF820E0A868A97E884216D0A8
:100AB0002A69E968914206D092B289B22046FFF7CE
:100AC000C5FE022806D2E8682969884207D1E86D88
:100AD000012804DA3A4631462046FFF730FF012369
:100AE0003A4631462046FFF74EFE0020E860286176
:100AF000AB6DEA6D94F908100FF20C0003F00AFEDA
:100B0000A86DE865F1BD0000666C7573682025640A
:100B10002025642025640000DFF87808016806E0DD
:100B200091F89F20002A01D00A6E4A660968814226
:100B3000F6D1704710B59848026842F21070B2FBC7
:100B4000F0F1DFF8540850F82100831A1F2B08D267
:100B5000DFF8480840F821200FF2540003F0DAFDD6
:100B600012E0101A00F51C5010301F280CD2012979
:100B70000ADBDFF8280800EB810040F8042C491E4E
:100B80000FF2400003F0C6FDDFF80448207800288B
:100B90000DD1FFF74BFF4AF6C871884207D30120F9
:100BA00020700FF23400BDE8104003F0B3BD10BD5B
:100BB00042696720496E646578203D2025642C25B4
:100BC0006400000042696720496E64657832203D08
:100BD0002025642C256400004269672062756666E2
:100BE00065722069732066756C6C00006A48006845
:100BF00042F21071B0FBF1F0401C052800D100203A
:100C000070472DE9F04182B0644D634C002829D033
:100C10000020ADF8000020684CF25036371AC82288
:100C20008DF800208DF801104019022F0ED23A469F
:100C300000A903F094FCC7F10208424600A8391845
:100C4000284603F08CFCC4F8008006E0022200A9CC
:100C500003F085FC2068801C20602068B04201D130
:100C600000202060FFF7E2FE0246DFF820673068D0
:100C70004119022001F0FFF9FFF7D8FE236832681E
:100C800001460FF2180003F045FDDFF81407316844
:100C9000016020683060BDE8F381000048494649A2
:100CA000206261746368204C656E203D2025642CB1
:100CB0002025642C2025640037480168DFF8CC0625
:100CC00001600FF2080003F025BD00004869666965
:100CD0002052657365742025640000000020DFF851
:100CE000B4160A6805E092F89F30002B00D0401C33
:100CF00012688A42F7D1C0B2704710B5DFF890464B
:100D0000207800280FD0FFF771FFDFF8901651F818
:100D10002020DFF878160A600021217001460FF2CA
:100D2000940003F0F7FCFFF781FE002803D00021B8
:100D30000846FFF766FF1748016808E091F89F2012
:100D4000002A03D001F160020B6E536009688142F2
:100D500011D001F29F025378002BF7D09378002B2B
:100D6000ECD0002393701A4681F89F200A6601F1A7
:100D700060025360EAE7FFF7CFFE14220021DFF89C
:100D80001C06BDE8104004F00FBA0000C7FA0120AD
:100D9000FCE301203C480020344800201C54002083
:100DA0005C53012050FA012054FA0120D8F90120A7
:100DB00000CA9A3B484946492057616B65203D204F
:100DC00025642C202564000008B42DE9F841044670
:100DD0000D46164603F033FC04F10807D7F85C8093
:100DE00002F058FAD0F88000A8EB0000F865B87D52
:100DF00000284DD094F89F00012809D1FFF79AFEF2
:100E00000020B875F86D012842DAB86DF8653FE04A
:100E1000B87E3969FA68531A834205D0002A34D162
:100E2000BA68511A814230D194F90820397E0FF204
:100E3000680003F06FFC397E00291FD094F9082068
:100E40000FF26C0003F066FC3869B97E421892B26A
:100E5000F96889B22046FFF7F9FC33462A46014675
:100E600089B22046FFF7A0FC00962B463869B97E70
:100E70004218F9682046FFF74BFD06E04FF0FF30BF
:100E8000F860FFF7C8FAC4F8A4002046FFF7F8FCA2
:100E9000BDE8F1015DF808FB73757370656E642041
:100EA0006669666F2066756C6C2025642025640079
:100EB00073757370656E64206669666F2066756C05
:100EC0006C203220256420256400000008B42DE940
:100ED000F84104460F46164603F0B1FB04F108053D
:100EE000D5F85C8002F0D6F9D0F88000A8EB0000BD
:100EF000E86594F89F0000280AD0E86D012880F288
:100F00009880FFF709FE00210846FFF77AFE90E07F
:100F1000E86810F1010F10D1A87D002802D020460A
:100F2000FFF7AEFC2046FFF77FFA324639462046EF
:100F3000FFF705FD2869E8607BE0E86D012858DAD5
:100F4000A86DE865286BD0F80C8094F908308268A9
:100F5000A96D0FF2E80003F0DDFB94F908000C28FE
:100F60002BD0A868A97E90FBF1F0A96D91FBF8F158
:100F7000814202DB4FF0FF30E860A87D002808D0F6
:100F80002046FFF77DFC324639462046FFF7D7FC66
:100F90002CE0286E002829D407A883B069460CC825
:100FA0000CC10CC80CC10EBC2046FFF767FB3246D3
:100FB00039462046FFF7C3FC18E094F831010128B8
:100FC00014D1D4F83401A968AA7E91FBF2F18842C9
:100FD00002D14FF0FF30E860324639462046FFF735
:100FE000AEFC0020C4F8340184F831012869E860BF
:100FF0001FE094F908000C2815D1D4F83401A96831
:10100000AA7E91FBF2F188420DD14FF0FF30E860EB
:10101000324639462046FFF792FC0020C4F83401DE
:1010200084F8310105E0A87D002802D02046FFF7B2
:1010300027FCBDE8F1015DF808FB00006669666FFA
:101040002066756C6C33202564202564202564009F
:1010500008B4F0B584B004460D46164603F0EFFA26
:10106000074602F017F9B87B00280DD009A881B017
:1010700069460CC80CC10CC80CC108BC32462946D4
:101080002046FFF7A1FE0FE0B87B00280CD109A88D
:1010900081B069460CC80CC10CC80CC108BC3246F2
:1010A00029462046FFF712FFFFBC5DF808FBF8B5A4
:1010B00005460E46174603F0C2FA05F10804A17D65
:1010C00000295BD095F90810807A002837D00729CD
:1010D00005D00D2903D01A2901D01B291AD13B466E
:1010E000324601212846FFF75FFB012000903B4676
:1010F000324621692846FFF76EFB627895F90810A1
:101100000FF27C0003F006FB2846FFF7B9FB2069CD
:10111000E060F1BD05F28A00817D002909D0018BD4
:10112000226BD2685143A165E1650121C17541750A
:10113000F1BD2846FFF7A4FB2069E060F1BD092955
:1011400009D195F88A10012905D10FF24400BDE8B4
:10115000F44003F0DFBA3B46324601212846FFF750
:1011600023FB012000903B46324621692846FFF7C9
:1011700032FB2846FFF784FB2069E060F1BD0000E8
:101180004150205375732025642025640000000021
:10119000233E6C75785F7361742025640000000045
:1011A00008B4F0B584B004460E46154604F10807AD
:1011B000B87D00281AD094F89F0000280AD109A809
:1011C00083B069460CC80CC10CC80CC10EBC2046CB
:1011D000FFF754FA94F908000C2807D1012084F88D
:1011E0003101D4F83401401CC4F83401B86D012831
:1011F0000DDB09A881B069460CC80CC10CC80CC134
:1012000008BC2A4631462046FFF722FF04E02A4662
:1012100031462046FFF74BFFFFBC5DF808FBF8B5F1
:1012200004460D46DFF8F80D466896F88B00012855
:101230001DD1002086F88B002888411C29800821B8
:1012400001550020ADF8000007460EE006EB8700D0
:10125000806FADF80000022200A92888001903F071
:101260007EF92888801C28807F1C032FEEDBF1BDCF
:1012700038B504460D4603F0E2F9C17B01290CD1D3
:101280000021C1732888411C2980452101550FF296
:101290000C00BDE8324003F03DBA31BD4779722001
:1012A00046697273742043616C0000000CB4FEB593
:1012B00004460D46FFF7B3FF29462046FFF7D8FF47
:1012C000344E37680DE008A881B069460CC80CC1DF
:1012D0000CC80CC108BC2A4621463846FFF760FFFF
:1012E0003F68B742EFD1F7BC5DF80CFB2DE9F04148
:1012F00088B004460D46DFF8286DF76907F10C0841
:1013000098F81510D8F80C00FA688018D7F838212A
:1013100052699047002812D0012088F81200787A8C
:1013200000280CD003A881B069460CC80CC10CC8B9
:101330000CC108BC2A4621463846FFF731FFB66982
:1013400006F10C07797DF868F2688018D6F8382124
:1013500052699047002811D00120B874707A002893
:101360000CD003A881B069460CC80CC10CC80CC1D4
:1013700008BC2A4621463046FFF712FF012008B07C
:10138000BDE8F081CC4F0120B13CFFFF3048002088
:10139000084800203C480020504F01206C170120D5
:1013A000384800200288D21C02800A80704780B52D
:1013B0000B889B1AADF80030BDF80030002B09D027
:1013C0001018012100F8031C022200A9801E03F05E
:1013D000C6F801BD0888C01E088001BD2DE9F04F88
:1013E000ADF68C2D04460D4601F054FF064603F081
:1013F00026F9804610A840F6482103F0ADF80020F9
:101400008DF8020006A8282103F0A6F801A81421EF
:1014100003F0A2F80020ADF800000746D6E91C0151
:10142000002902D1002800F0838598F9090004F012
:10143000C6FB002800F07C8500A92846FFF7B2FF14
:10144000B8461CE0D6E91C01424604F02FFE00F02D
:10145000010011F0000101D100280ED0C8EB0810E6
:10146000DFF8C01B01EB800292F90300012804D1D0
:101470000DF1020110A8526B904708F10108B8F174
:10148000410FDFDBBA461BE029884A1C2A8080789E
:1014900008552888FEF79BFF00280DD0BDF80020D6
:1014A00029462046FFF783FF29462046FEF75FFFC7
:1014B00000A92846FFF776FF0AF1010A4FFA8AFAD7
:1014C0009DF80200824580F22B852988481C2880DF
:1014D00040F2491010FB0AF010AA825C0A552988D4
:1014E0004A1C2A8010AA8618707808552988481C3A
:1014F0002880701C42780A55417803292AD009298E
:1015000000F09D810C2900F078811A2900F0948266
:101510001B2900F0A7811C2900F0BE821D2900F0C4
:10152000B1811E2900F0A982262900F0E1822C2930
:1015300000F00D832F2900F0EA82302900F061834A
:10154000312900F08C83342900F0EA833B2900F034
:10155000908499E77178032904D129884A1C2A804C
:1015600082780A5529884A1C2A80C2780A55C1788F
:10157000C0290FD106F22708B8F82E20D8F830106D
:101580002888001902F0EBFF2888B8F82E100818F8
:1015900028807EE70846E0284AD106F205060020AA
:1015A00035E056F820100A0222F0FF12090A01F075
:1015B000FF11114346F820104FEA314146F8201040
:1015C00006EB80014A68130223F0FF13120A02F0AF
:1015D000FF121A434A604FEA32424A608A68130295
:1015E00023F0FF13120A02F0FF121A438A604FEA37
:1015F00032428A60CA68130223F0FF13120A02F013
:10160000FF121A43CA604FEA3242CA60001D142812
:10161000C7DB50210FF6201003F07CF85022314632
:101620002888001902F09BFF28885030288030E776
:10163000791C000647D401A8321D52783A54C9B229
:10164000B2790A54491CC9B200220A544A1C06F253
:101650000601D2B24B781354521CF389D2B21F0A3E
:101660001754521CD2B21354521C06F20E03D2B2BB
:101670009F781754521CD2B2DB781354521CD2B24A
:10168000B37C1354521CD2B2F37C1354521CD2B20A
:101690008B781354521CD2B2C9781154511CC9B260
:1016A000B27A0A54491CC9B2F27A0A544F1CFFB2EA
:1016B0003A4601A92888001902F051FF288850FAFB
:1016C00087F02880E5E6D6F8052006A8130C3B54E1
:1016D000C9B2130A0B54491CC9B20A54491CD6F8A2
:1016E0000920C9B2130C0B54491CC9B2130A0B547C
:1016F000491CC9B20A54491CD6F80D20C9B2130CB2
:101700000B54491CC9B2130A0B54491CC9B20A54E0
:10171000491CD6F81120C9B2130C0B54491CC9B28C
:10172000130A0B54491CC9B20A54491CD6F8272085
:10173000C9B2130C0B54491CC9B2130A0B54491CEF
:10174000C9B20A54491C06F22708C9B298F8042005
:101750000A54491CC9B298F805200A54491CB8F823
:101760000620C9B2130A0B54491CC9B20A54491CB9
:10177000C9B298F808200A54491CD6F81520C9B2F5
:10178000130C0B54491CC9B2130A0B54491CC9B29F
:101790000A54491CD6F81920C9B2130C0B54491C21
:1017A000C9B2130A0B54491CC9B20A54491CD6F8D1
:1017B0001D20C9B2130C0B54491CC9B2130A0B5497
:1017C000491CC9B20A54491CD6F82120C9B2130CCD
:1017D0000B54491CC9B2130A0B54491CC9B20A5410
:1017E0004F1CFFB23A4606A92888001902F0B7FE3E
:1017F000288850FA87F028804BE6F11CB1F90300E5
:10180000C0F3072242EA0020A1F80300B1F9070063
:10181000C0F3072242EA0020A1F80700B1F9050051
:10182000C0F3072242EA0020A1F805000922288817
:10183000001902F094FE28880930288029E62988BA
:101840000B467278032A08D10222F11C181902F003
:1018500086FE2888801C28801BE6491C2980807809
:10186000185516E629884A1C2A8080780855707811
:1018700005287FF40EAE2888411C2980311D497847
:10188000015506E606F103087078012840F0C4808F
:101890002888411C298098F8041001554FF0000950
:1018A000A1E0C9EB491000EB080BDBF818000102BE
:1018B00021F0FF11000A00F0FF100843CBF81800D8
:1018C0004FEA3040CBF8180004220BF118012888A9
:1018D000001902F044FE2888001D2880DBF808006B
:1018E000010221F0FF11001200F0FF100843CBF8B5
:1018F0000800C0F30F4141EA0040CBF80800042281
:101900000BF108012888001902F029FE2888001D23
:101910002880DBF80C00010221F0FF11001200F01A
:10192000FF100843CBF80C00C0F30F4141EA004020
:10193000CBF80C0004220BF10C012888001902F0EE
:101940000EFE2888001D2880DBF81000010221F01F
:10195000FF11001200F0FF100843CBF81000C0F395
:101960000F4141EA0040CBF8100004220BF11001B6
:101970002888001902F0F3FD2888001D2880DBF874
:101980001C00010221F0FF11000A00F0FF100843C3
:10199000CBF81C004FEA3040CBF81C0004220BF1BE
:1019A0001C012888001902F0DAFD2888001D288013
:1019B000BBF81600010A41EA0020ABF8160002222B
:1019C0000BF116012888001902F0C9FD2888801C37
:1019D0002880411C298080B2DBF82010015509F1D4
:1019E00001095FFA89F998F804008145FFF659AFBB
:1019F000B6F84321D6F845112888001902F0AFFD4A
:101A00002888B6F8431108182880B6F843110FF259
:101A1000385002F07FFE3CE505287FF43AAD288877
:101A2000411C298098F8021001552888411C298002
:101A300098F8031001552CE5F11C7078032804D1A7
:101A40002888421C2A80B27A0255D1F8010002028D
:101A500022F0FF12000A00F0FF101043C1F801004D
:101A60004FEA3040C1F8010007222888001902F02F
:101A700076FD2888C01D28800BE5F11C0888020A25
:101A800042EA0020088002222888001902F067FD3F
:101A90002888801C2880FCE4F11C7278012A7FF4DD
:101AA000F8AC8078012815D12888421C2A80097852
:101AB0000155B288D6F806102888001902F04FFDAB
:101AC0002888B18808182880B1880FF2904002F069
:101AD00021FEDEE402287FF4DCAC2888421C2A8048
:101AE0000A7802552888421C2A80C9790155D0E419
:101AF000F11C0888020A42EA002008800222288895
:101B0000001902F02CFD2888801C2880C1E4F01CFC
:101B100029884A1C2A8001220A5529884A1C2A80C1
:101B200005220A5529884A1C2A80C1220A5529887B
:101B30004A1C2A8042790A5529884A1C2A80427800
:101B40000A5529884A1C2A8080780855A1E4F61C89
:101B500029880B463078020727D5481C2880307822
:101B600018552888411C2980317A01552888411C44
:101B70002980717A0155D6F80A00010221F0FF117F
:101B8000000A00F0FF100843C6F80A004FEA304090
:101B9000C6F80A00042206F10A012888001902F09A
:101BA000DEFC2888001D288073E440071ED5481CF1
:101BB0002880307818552888411C29807178015573
:101BC0007068010221F0FF11000A00F0FF100843C5
:101BD00070604FEA304070600422311D288800197F
:101BE00002F0BDFC2888001D288052E47288D6F8D7
:101BF0000E10181902F0B3FC288871880818288084
:101C000047E4F61C3068010221F0FF11001200F0D9
:101C1000FF1008433060011441EA004030600422A4
:101C200031462888001902F09AFC2888001D288077
:101C30007068010221F0FF11001200F0FF1008434C
:101C40007060011441EA004070600422311D288850
:101C5000001902F084FC2888001D288019E4F61C75
:101C60003068010221F0FF11001200F0FF1008435C
:101C70003060C0F30F4141EA004030600422314639
:101C80002888001902F06BFC2888001D28807068E5
:101C9000010221F0FF11001200F0FF1008437060F4
:101CA000C0F30F4141EA004070600422311D2888D2
:101CB000001902F054FC2888001D2880B068010239
:101CC00021F0FF11001200F0FF100843B060C0F3D4
:101CD0000F4141EA0040B060042206F10801288863
:101CE000001902F03CFC2888001D2880F0680102E1
:101CF00021F0FF11001200F0FF100843F060C0F364
:101D00000F4141EA0040F060042206F10C012888EE
:101D1000001902F024FC2888001D2880FFF7B9BBB9
:101D2000F61C3068010221F0FF11001200F0FF10D4
:101D300008433060011441EA00403060042231461B
:101D40002888001902F00BFC2888001D2880706884
:101D5000010221F0FF11001200F0FF100843706033
:101D6000011441EA004070600422311D28880019E6
:101D700002F0F5FB2888001D2880B068010221F0E0
:101D8000FF11001200F0FF100843B060011441EA97
:101D90000040B060042206F108012888001902F012
:101DA000DEFB2888001D2880F2683369F0683169FD
:101DB0001B0243EA1263120222F0FF1223F0FF1308
:101DC000000A40EA0160090A00F0FF1001F0FF116B
:101DD00010431943F0603161D6F80C80D6F81090AA
:101DE000F06831694FEA094949EA1849DFF868267D
:101DF000134602EA084209EA03039046000C40EA4F
:101E000001404FF6FF7210404246104353EA114121
:101E1000F0603161F2683369F06831691346084651
:101E200000211943F0603161F0683169082206F140
:101E30000C012888001902F092FB288808302880BD
:101E40007069010221F0FF11001200F0FF10084339
:101E50007061011441EA00407061042206F114012E
:101E60002888001902F07BFB2888001D2880FFF7D6
:101E700010BBF61C2888411C298031780155D6F802
:101E80000100010221F0FF11001200F0FF100843D1
:101E9000C6F80100C0F30F4141EA0040C6F8010056
:101EA0000422711C2888001902F059FB2888001DA3
:101EB0002880D6F80500010221F0FF11001200F081
:101EC000FF100843C6F80500C0F30F4141EA004087
:101ED000C6F805000422711D2888001902F03FFB96
:101EE0002888001D2880D6F80900010221F0FF1182
:101EF000001200F0FF100843C6F80900C0F30F41BC
:101F000041EA0040C6F80900042206F109012888C8
:101F1000001902F024FB2888001D2880FFF7B9BAB9
:101F2000BDF8002029462046FFF741FA03F075FE70
:101F30000DF68C2DBDE8F08F50442053462053659C
:101F40006E742564000000004F4A483A2041544214
:101F5000442073697A653A20256400004F4A483A64
:101F600020415044522073697A653A20256400006C
:101F70002DE9F04105460E4602F061FB0746DFF809
:101F8000DC442078401C20706078F021084202D0A8
:101F9000992004F0ABF804F01FF96078401C6070E1
:101FA00097F81C80B8F1000F27D03088404480B2E9
:101FB000FEF70DFA002803D031462846FEF7D7F980
:101FC0003088411C3180032141553088411C3180CB
:101FD00000F80580424607F11D013088401902F0E3
:101FE000BEFA3088404430804FF4FA72002107F185
:101FF0001D0003F0D9F8002038776078F0210842FE
:1020000002D0992004F072F86078401E6070C0B26F
:10201000002801D104F0DAF8BDE8F04104F0C6BBB5
:10202000FCE30120F493012038B504460D4602F08C
:1020300006FB817A002909D1417B002906D1298834
:102040004A1C2A8006220A550121417331BD38B548
:1020500004460D46288800280CD02046FFF788FF4C
:1020600029462046FFF7E0FF29462046BDE83440D8
:10207000FEF77DB931BD14B585B0049101A90022E8
:10208000134614461CC10A21ADF8001004218DF836
:1020900004108DF805000A4605A90DF1060002F0AE
:1020A0005EFA042204A90DF10A0002F058FA05981C
:1020B000002803D000A901A8FEF759F906B010BD09
:1020C00080B502F0BCFA4FF4967102F049FD07208A
:1020D0008DF802000120ADF8000000A90DF102000A
:1020E000FEF745F901BD00B597B000A85C2102F0EC
:1020F00033FA0020ADF858000DF101000B214170BA
:1021000000218170C17008468DF800003F208DF8D5
:10211000010000A802F0CAF80FF2080002F0FAFA73
:1021200017B000BD537461727420466972737420D5
:1021300063616C0000B597B000A85C2102F00CFA56
:102140000020ADF858000DF101000B214170002175
:102150008170C17001208DF800003F208DF80100D2
:1021600000A802F0A3F80FF20C0002F0D3FA17B0A7
:1021700000BD0000456E642046697273742063617F
:102180006C0000002DE9F04383B005460F469046F1
:1021900002F055FA81460026D5F80900041D28787A
:1021A0000146012900F087800F293AD035294BD00C
:1021B000362940D0402950D07F2937D0802900F0DF
:1021C000C780812900F0CE80822900F0CB8085294C
:1021D00000F0C880862900F0C580882900F0C28000
:1021E0008A2900F0C7808B2900F0E2808C2900F05A
:1021F000EE808D2900F0F980DD2900F00381DF29D0
:1022000000F01781F0292DD0F4293ED0F62947D0CF
:10221000F82900F08680F92952D0FF2900F0EA80E1
:102220009DE099F81A002070012099E099F81202B7
:102230002070012094E005F059F81522014620464F
:1022400002F08DF901208BE0012006F094FF30466A
:1022500006F095FF0120207082E0204606F0AEFADD
:1022600001207DE004227E49204602F078F907F043
:102270000AFF002804D108F0C3FF012007F0FFFE89
:10228000012009F0C5FE01206AE0484602F011FC79
:10229000082209F11001204602F061F901205FE0F7
:1022A0000322214630466F4B9B68D3F838311B6AB6
:1022B0009847012054E020460AF068F801204FE0DA
:1022C000B5F80300C008D5F805204FF4FA6111FBFA
:1022D0000021654E65480068801982421BD106F5D1
:1022E00043405030814201D3614A5118471AB5F832
:1022F000012097420BDA3A46204602F030F9B5F851
:102300000100C21B3146381902F029F98FE020463E
:1023100002F025F98BE0B5F80120204602F01FF904
:1023200085E03046ADF8040001206979012900D12B
:10233000032009F00FF909F048F9ADF8040009F09D
:102340005BF9022201A9204602F009F9012007E009
:10235000D5F8050020702146304601F0A4FA304639
:10236000BDE8FE8331462170214600F07F0001F078
:102370009AFAF4E7012020703A4845683746287FEA
:10238000002801D13046EBE7687A002804D1D5F85F
:1023900038014068804707462046D5F83811C9699A
:1023A0008847002FDBD0D5F8380180688047D6E712
:1023B0000120B5F80310C1F3C101091D884040F0A8
:1023C000020020702146012001F06DFAC7E799F85C
:1023D000000020700120607099F80500A07099F845
:1023E0000600E07001202071BAE7204609F0E2FF04
:1023F0000646B4E704F10802211D204609F0AEFEAE
:102400000120ADE76879174951F82050687A002813
:102410000BD0424639462846FEF722FB15490820D4
:102420000AF08AF80120207001E030462070012077
:1024300096E768790B4951F82050286995F82210E1
:1024400090FBF1F0401E0090042200A9204602F00B
:1024500086F8012084E700000000FFFFF84D01200E
:10246000E04F0120FCE301201C54002038480020EC
:10247000B03CFFFFE08801202DE9F041B4B00646F2
:1024800002F0DDF8054600F005FF8046D6F80900A9
:10249000041D3078002101914FF0FF3118910F4653
:1024A0000146312900F06781322900F06E8133291D
:1024B00000F07A81342900F08181372900F086808C
:1024C000432900F09986442900F09B867D2900F07D
:1024D000B980A12900F08E81A22900F0DA81A42917
:1024E00000F0E581A52900F08D80A62900F09080FC
:1024F000B12900F04284B22900F01A86B82900F010
:10250000F181C12900F01282CD2900F0B380CE29DB
:1025100000F0C880D02930D0D12928D0D22931D09C
:10252000D32935D0D4293AD0D6295BD0D72959D050
:10253000D8295FD0D9295DD0EC2900F08D80F12910
:102540006CD0F22900F0C780F52900F0E880F72967
:1025500000F0FD80FA2900F03986FB2900F0398669
:10256000FD2900F0E880FE2900F03D86FFE0002113
:10257000284602F002FB0120FAE0002009F048FDA5
:102580000120F5E00121284602F0F7FA0120EFE0F2
:102590000020A872A873FEF7B0FB0120E8E001203C
:1025A000A872002068730120A873DFF8600C01682E
:1025B00008E08A6B92F91420012A02DB012281F8DB
:1025C000302109688142F4D10120D1E00022214666
:1025D0001046DFF83C3C1B68D3F838311B6A98473B
:1025E0000120C5E0D62801D1012000E00020E872DA
:1025F0000120BDE0D92801D1012000E0002028738E
:102600000120B5E0D6F809000AF01FF80120AFE07C
:10261000D6F809000AF04EF90120A9E000200DE0EB
:1026200000EB0801025D81F88420022805D108F141
:102630008401025DCA70025D0A71401C0328EFDB51
:10264000012095E0207802F014FA08F18401487026
:1026500088F8840001208BE0237840F66D12DFF8C3
:10266000B41BDFF8B40B02F055F8207806F070FBCD
:1026700001207DE0002511E0DFF8940B466806EBB1
:102680008506022204EB450106F1780001F067FFA0
:10269000B16FDFF8880B02F03DF86D1C032DEBDB0A
:1026A000012065E0002512E0DFF8640B066806EB08
:1026B0004506022204EB450106F1700001F04FFFD0
:1026C000B6F97010DFF8580B02F024F86D1C032DDA
:1026D000EADB01204CE0D5E9040100F0800011F0B4
:1026E000000103D1002801D1012041E008F184015B
:1026F0002078627812EB0020C880A078E27812EB94
:102700000020088104212046DFF8042BD269D2F88A
:10271000382192699047002829D0012028E003221F
:1027200021460120DFF8E83A9B68D3F838311B6A6C
:10273000984701201CE01B2221460720DFF8D03AF1
:102740009B68D3F838311B6A9847012010E0DFF806
:10275000C00A8669D6F8380180688047002806D00C
:10276000012221460520D6F838311B6A98470020FF
:1027700034B0BDE8F08106F006FD012801D101204A
:10278000F6E7204606F076FCF1E706F0FCFC0128AF
:1027900001D10120ECE7204606F099FC20780028C2
:1027A000E5D006F0D1FCE2E706F0EDFC012801D10E
:1027B0000120DDE7207806F0CEFCD8E706F0E3FC48
:1027C000012801D10120D3E7DFF8580A01F0A2FF68
:1027D000002006F0D0FC012006F0A6FB04F059FF13
:1027E000012006F0CCFC207806F0D0FC06F006FCB8
:1027F0000120BDE794F900500422611C01A801F0FA
:10280000AEFEB6F80100062806DB0422611D18A8FA
:1028100001F0A5FE94F909702846DFF8F4190428A0
:1028200002D10A690023937251F8206000F032FD52
:10283000D0E91C23C2F3401800F02CFDD0E91C2382
:10284000C2F38020804400F025FDD0E91C23C2F3B0
:10285000800000EB080296F90800072804D1717A7D
:10286000002901D0002A04D0182809D1707A002844
:1028700006D0717ADFF8B00901F04CFF012077E74C
:102880000097189B00220199284601F0A9F82070B2
:102890006DE794F900500422611C01A801F05FFE6D
:1028A00000231A460199284601F000F960E794F9DF
:1028B00000500422611C01A801F051FEB6F801008D
:1028C000062806DB0422611D18A801F048FE94F9D1
:1028D00009700097189B00220199284601F048F9D9
:1028E000207044E720780146032906D01A2912D027
:1028F0002C2910D03A290ED011E060780DF1090290
:102900005070012805D1A0788DF80B00204601F009
:102910006DFC01202CE7204601F068FCF9E794F9F2
:10292000011040B20020C046C0B221E72078014625
:10293000491E51D00D390DD0C91E55D0491E03294D
:1029400021D9091F00F0A680491E00F0EB8019393B
:102950003AD0FAE10E208DF8080060780DF10902F6
:102960005070A1788DF80B10E2780DF10B035A70BE
:102970000023ADF80D3052B249B240B202F04EF928
:1029800001F032FCE1E18DF808000146122903D183
:102990000DF1090062784270132902D160788DF838
:1029A0000B00142903D10DF10B0062784270152938
:1029B00003D10DF109006178417062782178DFF868
:1029C0006C0801F0A7FEC0E130208DF808000DF181
:1029D000090061784170B8E101208DF808000DF11F
:1029E0000B0061784170B0E10DF109006178417030
:1029F000A0788DF80B000DF10B00E1784170207983
:102A00008DF80D00002802D001281FD030E0607939
:102A1000A179090401EB0060E17900EB0120217A42
:102A20004018CDF80E000DF10E06607AA17A11EB78
:102A30000020B080E07A217B11EB0020F080607BE9
:102A4000A17B11EB0020ADF8160011E06079A179AF
:102A500011EB0020ADF80E000DF10E06E079217AA1
:102A600011EB00207080607AA17A11EB0020B08019
:102A700019A80DF10A010E220AF0F2F819A80FC8E0
:102A800002F0EFF902F054FA012840F05E8101F003
:102A9000F5FB5AE16078A178090401EB0060E17868
:102AA00000EB012021794018CDF80A006079A17966
:102AB000090401EB0060E17900EB0120217A401864
:102AC000CDF80E00607AA17A090401EB0060E17A8A
:102AD00000EB0120217B40180DF10E014860607B66
:102AE000ADF816000DF11700A17B4170E17B8170FC
:102AF000217CC170617C0171A07CE17C11EB002024
:102B000000B20146ADF81C1007A9227D00EB02209F
:102B1000627D80184880A07D08710DF10A0002F0E6
:102B200029FA12E160788DF809001D283ED10DF1D7
:102B30000E06A1787171A17801290DD1E178227971
:102B400012EB0121ADF80A1089B20A460146DFF8FE
:102B5000E00601F0DFFDF8E002290BD1E0782179F1
:102B600011EB0021ADF80C1089B2DFF8C80601F0B6
:102B7000D1FDEAE003290AD1E078217911EB0021A7
:102B8000F18089B2DFF8B00601F0C4FDDDE0042970
:102B900040F0DB80E078217911EB0021ADF81610D0
:102BA00089B2DFF8980601F0B5FDCEE0032828D100
:102BB000A1780DF15A056970DFF8840601F0AAFDCD
:102BC0006878012816D10020142880F2BE8004EB1A
:102BD0008001CA780B791B0403EB02624B7902EB8C
:102BE00003228979511802AA02EB8002C2F802106E
:102BF000401CE9E7022840F0A880E0788DF85A00F0
:102C0000A3E01C2827D1A0788DF80D00A07801281A
:102C100008D1E1780DF109025170DFF8280601F0C2
:102C200079FD92E0022807D1E1788DF80B10DFF8EA
:102C3000180601F06FFD88E0032800F08680052863
:102C400040F08380E1780DF10B035970DFF8FC054B
:102C500001F060FD79E02C2830D10DF10E00A17853
:102C60008171A078012803D1E0788DF80E006CE026
:102C7000022806D1E078217911EB0020ADF815008B
:102C800063E0032806D1E078217911EB0020ADF84C
:102C900017005AE0042807D1E078217911EB0020D1
:102CA0000DF11701488050E005284ED1E0782179D8
:102CB00011EB00200DF11701888046E0372803D181
:102CC00020460AF049F940E0302818D1A0788DF864
:102CD0000B00A078012809D1E078022802D10BF07E
:102CE0000CF932E00DF1090148702EE002282CD1D8
:102CF000B6F80110E01C0BF004F9012038E5342887
:102D000023D10DF10E00A1780171A078012817D10F
:102D10000DF10A00E1782279120402EB0161627977
:102D200001EB0221A279891800EE101AB8EEC00A50
:102D3000DFED9F0A80EE200A10EE101A016004E019
:102D4000022802D1E078CDF80E0006208DF874003C
:102D500020788DF875000DF1770002A9552209F051
:102D60007FFF0DF175000B2141700020ADF8CC0004
:102D70001DA801F09BFAC0B2FAE42078014641296F
:102D800005DBDFF8CC0401F0C5FC0020F0E4C1EB6A
:102D90000112DFF8C01401EB8201897E012940F0A5
:102DA0009381014603292ED006296BD0092931D001
:102DB0000C294BD00D2957D0192900F097801A29DA
:102DC0006ED01B2900F0A7801C2900F0E3801D298C
:102DD00000F0B9801E2900F0ED80262900F0F8806F
:102DE000272900F003812C2900F028812D2900F0EB
:102DF0003E812F2900F05081302900F0468134298E
:102E000000F056815BE10322611C0DF10A0001F024
:102E1000A6FB59E10722611C0DF10A0001F09FFB9E
:102E2000BDF80A00010A41EA0020ADF80A00BDF829
:102E30000C00010A41EA0020ADF80C00BDF80E00BC
:102E4000010A41EA0020ADF80E003DE10322611CB9
:102E50000DF10A0001F083FBBDF80B00010A41EA05
:102E60000020ADF80B002FE10322611C0DF10A00D8
:102E700001F075FBBDF80B00010A41EA0020ADF836
:102E80000B0021E10122611C0DF10A0001F067FB3A
:102E90000DF109004178DFF8C00301F03BFC13E1BC
:102EA0000B22611C0DF10A0001F059FBDDF80B004B
:102EB000010221F0FF11000A00F0FF100843CDF8D5
:102EC0000B004FEA3040CDF80B000DF10E06708874
:102ED000010A41EA00207080002396F9062096F945
:102EE000051096F9040001F099FEEDE00622611C40
:102EF0000DF10A0001F033FBBDF80A00010A41EAB6
:102F00000020ADF80A00BDF80E00010A41EA0020D9
:102F1000ADF80E00D8E00422611C0DF10A0001F0AA
:102F20001EFBBDF80A00010A41EA0020ADF80A00C4
:102F3000BDF80C00010A41EA0020ADF80C00C748BA
:102F400001F0E8FBC0E00922611C0DF10A0001F06C
:102F500006FBBDF80A00010A41EA0020ADF80A00AC
:102F6000BDF80C00010A41EA0020ADF80C00BDF8E4
:102F70000E00010A41EA0020ADF80E000DF10E0628
:102F8000002396F9042096F9031096F9020001F047
:102F900045FE99E00DF1090061784170A0788DF847
:102FA0000B00A2786178AE4801F0B4FB8CE000BF62
:102FB00000401C460322611C0DF10A0001F0CFFA0B
:102FC000BDF80B00010A41EA0020ADF80B007BE0E0
:102FD0000522611C0DF10A0001F0C1FABDF80B00D9
:102FE000010A41EA0020ADF80B006DE00A22611CE5
:102FF0000DF10A0001F0B3FABDF90A00C0F3072190
:1030000041EA0020ADF80A00BDF90C00C0F3072129
:1030100041EA0020ADF80C00BDF90E00C0F3072115
:1030200041EA0020ADF80E000DF10E06B6F90200DF
:10303000C0F3072141EA0020708045E00822611CAE
:103040000DF10A0001F08BFABDF80C00010A41EA0B
:103050000020ADF80C000DF10E06002396F90320B8
:1030600096F9021096F9010001F0D8FD2CE0022239
:10307000611C0DF10A0001F072FABDF80A00010AA4
:1030800041EA0020ADF80A001EE00222611C0DF1A9
:103090000A0001F064FA17E00DF10900E1784170CF
:1030A00020798DF80B000DF10B00617941700BE078
:1030B0000922611C0DF10A0001F051FA04E08DF8BB
:1030C000080060788DF8090020780146052908D1AC
:1030D000644801210170687A002810D10846FFF782
:1030E00047BB18290BD18DF8080060788DF80900CE
:1030F0000DF10900A1784170E0788DF80B000020F7
:103100008DF8740020788DF875000DF1770002A914
:10311000552209F0A5FD0DF175000B21417000202D
:10312000ADF8CC001DA801F0C1F8C0B2FFF720BB7C
:1031300020780146412906DB0FF22C1001F0EAFA53
:103140000020FFF715BB052905D146480021017075
:103150000120FFF70DBB1A291CD10822611C0DF1BB
:103160000A0001F0FCF9DDF80B00010221F0FF116B
:10317000000A00F0FF100843CDF80B004FEA304082
:10318000CDF80B000DF10E067088010A41EA00200F
:10319000708005E02C2903D10DF1090061784170A0
:1031A00001208DF8740020788DF875000DF17700FE
:1031B00002A9552209F054FD0DF175000B21417053
:1031C0001DA801F073F8C0B2FFF7D2BA0120FFF7D3
:1031D000CFBA2078002803D10FF2AC00C046C04619
:1031E0000120FFF7C5BA04F10802211D204608F0AE
:1031F00075FF0120FFF7BCBAFEF775FF0120FFF74E
:10320000B7BAFEF797FF0120FFF7B2BA3C4800209B
:10321000FCE30120C86E0308E06E03080C6F03088E
:10322000186F0308246F0308346F0308586F0308EE
:10323000686F0308786F0308846F0308906F0308B2
:103240009C6F0308B06F0308C46F0308D86F0308AE
:10325000EC6F0308F493012008700308147003084E
:1032600020700308C7FA01204C69627261727920EC
:1032700072616E6765206973206F7665722C2052CB
:10328000656D6F766500000051505F5245515545A0
:10329000535400000048704750EA012080B5FFF702
:1032A000F9FFDFF8041D4860012002BD80B508F079
:1032B000D5FFDFF8F81CD1E90023801A02BD01F028
:1032C000E5BE2DE9F8430446002005460646DFF832
:1032D000E01C496804F108073A697B6802EB0308BF
:1032E00094F90820002A15D1B8F90000B8F9025065
:1032F000B8F90460B7F86810411AA8F80010B7F8D8
:103300006A10691AA8F80210B7F86C10711AA8F8B8
:10331000041035E004F18409012A1ED1B8F8001028
:10332000A4F88410B8F80210A9F80210B8F8041034
:10333000A9F80410B4F884103A6F891AA8F800109C
:10334000B9F802107A6F891AA8F80210B9F80410B7
:10335000BA6F891AA8F8041012E0B4F88420A8F80B
:103360000020B9F80220A8F80220B9F80420A8F833
:1033700004208A6F3A67CA6F7A67D1F88010B967FC
:1033800094F90810002951D1B8F90010C913B1EB14
:10339000E03F14D0B7F96810C913B1EBE03F0ED08D
:1033A0000FF6484001F0B6F9B8F90000012802DB39
:1033B000DFF8200C01E047F6FF70A8F80000B8F92C
:1033C0000210C913B1EBE53F14D0B7F96A10C91365
:1033D000B1EBE53F0ED00FF6204001F09BF9B8F9B4
:1033E0000200012802DBDFF8EC0B01E047F6FF707A
:1033F000A8F80200B8F90410C913B1EBE63F70D089
:10340000B7F96C10C913B1EBE63F6AD00FF6F43090
:1034100001F080F9B8F90400012802DBDFF8B40BF1
:1034200001E047F6FF70A8F804005AE0012958D1DE
:10343000B4F98400B8F90010C913B1EBE03F14D01F
:10344000B7F97010C913B1EBE03F0ED00FF69C3006
:1034500001F060F9B8F90000012802DBDFF8740B15
:1034600001E047F6FF70A8F8000004F18409B9F9FB
:103470000200B8F90210C913B1EBE03F14D0B7F95C
:103480007410C913B1EBE03F0ED00FF66C3001F0B1
:1034900041F9B8F90200012802DBDFF8380B01E03E
:1034A00047F6FF70A8F80200B9F90400B8F9041053
:1034B000C913B1EBE03F14D0B7F97810C913B1EBE1
:1034C000E03F0ED00FF63C3001F024F9B8F90400CB
:1034D000012802DBDFF8FC0A01E047F6FF70A8F8DC
:1034E000040094F90800002804D1002000E0401CEA
:1034F0000328FCDBBDE8F183000000002DE9F04764
:103500000746B869F96800EB010800252E462C46ED
:10351000A24697F90890B9F1050F03D3B9F10E0F40
:1035200040F0C880B9F1010F02D0B9F10E0F02D1FD
:103530003846FFF7C6FE97F90800002806D1B7F90C
:103540007050B7F97260B7F9744007E0012801D0F4
:103550000E2803D1BD6FFE6FD7F880404846012882
:1035600004D9C01E02D00B3840F09E80B9F1000F84
:1035700001D14FF6FF7ADFF8600A4068B9F10E0F0B
:1035800003D0484490F8840001E090F88500401E84
:1035900006286AD8DFE800F004101F2A3A465600D1
:1035A000B8F90200B8F80010AAEB0101B8F904203C
:1035B0003346AAEB050560E0B8F80000AAEB00006E
:1035C000B8F80210AAEB0101B8F90420AAEB050330
:1035D000AAEB060551E0B8F80200AAEB0000B8F922
:1035E0000010B8F90420AAEB060346E0B8F8000082
:1035F000AAEB0000B8F90210B8F80420AAEB020206
:10360000AAEB05033546AAEB040436E0B8F902003C
:10361000B8F90010B8F80420AAEB02023346AAEB6E
:1036200004042AE0B8F90000B8F80210AAEB01017E
:10363000B8F80420AAEB02022B46AAEB0605AAEB77
:1036400004041AE0B8F80200AAEB0000B8F8001071
:10365000AAEB0101B8F80420AAEB0202AAEB0603C8
:10366000AAEB0505AAEB040407E0B8F90000B8F9D5
:103670000210B8F904202B463546B9F1010F04D1E8
:10368000002600E0761C032EFCDBA8F80000A8F85A
:103690000210A8F80420B9F10E0F05D1A8F80630E1
:1036A000A8F80850A8F80A40B9F1000F02D138462E
:1036B000FFF707FE0120BDE8F087000070B4046842
:1036C0000D6816685B1E062B27D8DFE803F0040898
:1036D0000D11161B20000560604208601DE062426B
:1036E00002606842086018E06A4202600C6014E000
:1036F00061420160704210600FE005600C60704232
:1037000010600AE0684208607042106005E06B4299
:103710000360604208607042106070BC7047000037
:1037200070B52DED028B82B08169C2688A1890F95C
:10373000081008460A2800F2AD80DFE800F0062BEA
:1037400089ABAB65ABABAB96A400B2F90240B2F962
:103750000450DFF8840841689FEDD10AB2F90000F7
:1037600000EE900AF8EEE00A60EE800AC1ED000A71
:1037700000EE904AF8EEE00A60EE800AC1ED010A20
:1037800000EE905AF8EEE00A20EE800A081D80ED67
:10379000010A83E0B2F90240B2F90450DFF83808B8
:1037A00041680E1D9FEDBF8BB2F9000000EE100ABC
:1037B000B8EEC00A10EE100A0AF048FD53EC182BC0
:1037C0000AF070FD0AF040FEB06000EE104AB8EE5C
:1037D000C00A10EE100A0AF039FD53EC182B0AF05B
:1037E00061FD0AF031FEF06000EE105AB8EEC00A3A
:1037F00010EE100A0AF02AFD53EC182B0AF052FDC5
:103800000AF022FE306149E000200090106800902C
:10381000DFF8C40741689DED000AB8EEC00ADFED8D
:10382000D30A20EE200A81ED0C0A91ED0C0AB5EEC8
:10383000400AF1EE10FA31D090ED020AD1ED0C0AF7
:1038400030EE200A80ED020A0188491C018025E043
:10385000DFF8840741681088A1F85A0001F25A0085
:10386000518841809188818018E0DFF86C074168B9
:1038700001F25A001188C1805188018191884181EB
:10388000D18881810AE0DFF850074068118880F80C
:10389000681003E00FF2787000F03CFF012002B0E6
:1038A000BDEC028B70BD70B50D46DFF8041751F802
:1038B00020400026207F002801D1304670BD607A6C
:1038C000002804D0D4F8380180688047064628468E
:1038D000D4F83811C96988470546002E03D0D4F8BA
:1038E000380140688047284670BD01207047F8B510
:1038F0001C4692FBF1F300F29F0600F10805777871
:10390000012F17D190F908700C2F10D0502B02DA2C
:10391000B2F57A7F08DB012780F89F70B0F8A270BB
:103920009F4204DA3B4602E0002780F89F700027A0
:10393000B77006E0AE68AF7E96FBF7F69E4200DAFF
:103940003346002A18D490F908000C2804D003FB51
:1039500001F0A865E86501E0AA65EA65286E00281F
:1039600002D5EB6D181AE865E86DDFF86C365B6818
:10397000D3F880301818E865009413460A46E96DBC
:103980000FF2986000F0C6FE002C02D4A00700D50C
:103990002C76F1BD002101664161816190F908102A
:1039A000112901D0002181777047042817D101F136
:1039B0000C008A7A012A09D0072242750B228275EF
:1039C000DFF81826CA600B21416070471522427546
:1039D00019228275DFF80826CA60192141607047F4
:1039E0002DE9F243044615461E461D2C2DD22746CE
:1039F000DFF8BC0550F8278098F81C00002824D078
:103A000000A800F01CF9002D02D1012088F8B000B8
:103A10009DF92090B9F1000F09D45FEAC97006D56D
:103A20004B46324600994046FFF75FFF36E021469D
:103A300000A800F01BF941462046FFF7B6FF2146DB
:103A4000284600F025F9002801D1002026E0002DAD
:103A500012D198F80900012808D139460FF2D85040
:103A600000F058FE49464046FFF794FF4B46324669
:103A700000994046FFF73BFF01232A460099204664
:103A800000F079F900F0E7F9002C06D198F8090068
:103A9000012802D100980AF0EBFD0120BDE8F28375
:103AA00060F69C3A89AD84FA0A74513F2DE9F243DD
:103AB000044615461E461D2C0BD22746DFF8F0049F
:103AC00050F82780FDF70AF9814698F81C00002875
:103AD00001D1002047E000A800F0B1F821462846B7
:103AE00000F01EF9002D29D1FCF7A0FF002816D008
:103AF00098F89F00002812D0FCF798FF4B4602462A
:103B000039460FF23C5000F005FEB9F1010F02D129
:103B1000FDF7D2F803E000210846FDF772F898F8A7
:103B20000900002803D131464046FFF733FF00204B
:103B3000C8F8600088F89F0088F8A10000232A4692
:103B40000099204600F017F900F085F9002C09D102
:103B500098F80900012805D10BF090FB012801D14C
:103B60000AF0A7FD0120BDE8F28300000AD7233C3C
:103B70002DE9F24F044615461E461D2C27D2274636
:103B8000DFF82C0450F82780FDF7A8F8814608F1EB
:103B9000140A9AF80800002819D000A800F04FF87D
:103BA0009DF928B0BBF1000F09D45FEACB7006D5B0
:103BB0005B46324600994046FFF797FE3DE005EB35
:103BC000450008EB8000806B8068002801D500204C
:103BD00033E0DAF84C00002806D1012E04DB002087
:103BE000C8F81400CAF80400002D1AD1FCF71EFF13
:103BF000002816D098F89F00012812D1FCF716FF74
:103C0000024639460FF2484000F084FDB9F1010F39
:103C100002D1FDF751F804E02146C9B20020FCF7BB
:103C2000F0FF5B46324600994046FFF760FE2A46A9
:103C30000099204600F0D6F80120BDE8F28F016817
:103C4000C82902D1B42101607047422902D13C2128
:103C5000016070478A1F042A02D20A21016070475E
:103C60000B39092901D21421016070470A46D04B53
:103C700053F822300F2A05D0102A03D01A2A01D077
:103C80001B2A04D1C9B2D3F8382192691047704772
:103C90002DE9F84304460325C54850F8216000F09B
:103CA000CEFC0746707A002834D106F59C78214670
:103CB00049B23046D8F8042012689047002822D034
:103CC000D6F83801406880478146EDB2012D0ED10B
:103CD000B9F1000F0BD1D6F83801006880470FF218
:103CE000843000F017FD0A21384600F039FFB9F1A1
:103CF000000F03D12846451E0028E1D1B9F1000F7D
:103D000001D100200AE0214649B23046D8F804200B
:103D100052689047707A401C70720120BDE8F283AF
:103D2000F8B50446A24850F821500226687A0128C6
:103D30001AD105F59C77214649B228467A689268DF
:103D4000904700280AD0D5F83801806880470028BD
:103D500004D13046461EC0B20028F4D1214649B2F3
:103D600028467A68D2689047687A002801D0401EB9
:103D700068720120F2BD38B58D4C54F820400C28F3
:103D80001AD0112818D00D2816D0192814D01A28A6
:103D900012D01B2810D004F59A708568012B52B2FE
:103DA000204604D12B6901B0BDE8304018476B694B
:103DB00001B0BDE830401847A06B012B0ED1142193
:103DC000C160002A0DD1002084F83101C4F834010B
:103DD000FFF76CFA0021C4E92A0131BD4FF0FF3131
:103DE000C16031BDF8B50C461546714951F82060E7
:103DF0000C282FD011282DD00D282BD01A2829D0EF
:103E00001B2827D0192825D005EB450006EB800795
:103E1000B86B806884421DD0012C1BDB0FF2582048
:103E200000F078FC2A4652B2B86B81683046D6F86A
:103E30003C315B6998472A4652B221463046D6F853
:103E40003C311B69984700F006F8002D02D1012093
:103E500086F8B000F1BD70B56FF000463546614898
:103E6000016804E08A68AA4200DA154609688142BE
:103E7000F8D15D4C2078401C20706078F021084219
:103E800002D0992002F032F902F0A6F96078401CC5
:103E90006070B54200D100254F4E7068C567D0F8FC
:103EA000802029468A422AD0002901D0002A0BD13D
:103EB000C0F880100FF2D01000F02CFC7068D0F821
:103EC000800000F003FC23E007F0A3FB002804D0EF
:103ED00007F09FFBB0F57A7F0DDD7068C16FC0F809
:103EE00080100FF2B81000F015FC7068D0F8800058
:103EF00000F0ECFB0CE001200BF008FA08E007F002
:103F000088FB7168C96F884202D0084600F0DEFB6A
:103F10006078F021084202D0992002F0E7F860783A
:103F2000401E6070C0B2002801D102F04FF902F0CB
:103F30003DFC012070BD38B505462B4C2078401C57
:103F400020706078F021084202D0992002F0CEF86B
:103F500002F042F96078401C607029460FF254105C
:103F600000F0D8FB10484068C0F880501D48016838
:103F700005E08A68B2FBF5F26A43CA6009688142CB
:103F8000F7D16078F021084202D0992002F0AEF813
:103F90006078401E6070C0B2002801D102F016F9AE
:103FA000BDE8314002F002BC4CF8012080F901204C
:103FB000FCE301200B490A6808E01369012B01DAD0
:103FC000D368136113691B1A136112688A42F4D112
:103FD000704700000080FFFF4CF80120844B002058
:103FE000E0F6012024480020F84D01205820697394
:103FF000206F76657200000059206973206F766526
:10400000720000005A206973206F7665720000000C
:1040100055435354282564294E530000626174634C
:10402000682072617465203D202564202564202568
:1040300064202564000000004164642025640000C1
:10404000534D2025642C25642C202564000000009D
:104050006368616E676520726174652025642C2534
:104060006400000053656E736F722052655F50727A
:104070006F626564000000006368616E67652072AE
:104080006174653200000000675F707453682D3EF4
:104090006354696D6572203D20256400675F70740C
:1040A00053682D3E6354696D65722032203D202592
:1040B000640000006374696D6572203D2025640012
:1040C00077487047F8B50C461646012500282BD1D5
:1040D000C6EB0610724901EB8007386AE040C00762
:1040E00008D523463A6A31460FF2743000F012FBCD
:1040F0000220F2BD4FF0FF30009003462A46796857
:104100002046FFF76DFC00280CD023463A6A314662
:104110000FF25C3000F0FEFA386A2946A1400843ED
:1041200038622CE00220F2BD012828D1C6EB06102F
:104130005B4901EB8007386AE040C00708D423469A
:104140003A6A31460FF2383000F0E4FA032516E0FF
:104150004FF0FF332A4679682046FFF7A7FC002876
:1041600007D023463A6A31460FF2243000F0D2FAE3
:1041700000E00325386A0121A140884338622846BF
:10418000F2BD01F014BE02B598B00021ADF8581090
:104190008DF801100DF101010A224A7000228A7087
:1041A000CA7005218DF800108DF80100042218A9AD
:1041B0000DF1030000F0D3F90020ADF8580000A87D
:1041C00000F074F819B000BD10B40022884201D389
:1041D000421A06E00B1A334CA34202D3324A10189B
:1041E000421A104610BC70470BF0F9BD38B5447840
:1041F00085780078032824D01A2804D02C282CD0C5
:104200003A2833D031BD012C0CD101200DF08AFAAF
:10421000012322461A210FF2882001B0BDE8304068
:1042200000F078BA022C28D102200DF07BFA02238C
:1042300022461A210FF27C2001B0BDE8304000F088
:1042400069BA012C19D128460BF0E6FD29460FF278
:104250007820BDE8344000F05DBA012C0DD129462C
:104260000FF27020BDE8344000F054BA012C04D1A4
:104270000120BDE832400DF03BBC31BD0DF068BC03
:104280000022412809D2C0EB0013054800EB83004F
:10429000006AC840C00700D50122104670470000E0
:1042A000F4930120A1780F05005C260530B595B088
:1042B0000446012594F90000062800F2BC80DFE8DE
:1042C00000F0042648647AB2B600E11C82B0684669
:1042D000552208F0C5FC0CBC94F9021094F90100B9
:1042E00001F085F9022809D1607801F064FB00250E
:1042F00061780FF2E81000F00DFAA2E0032840F018
:10430000A08061780FF2DC1000F004FA99E0607888
:104310001A280BD1E01C01F01DFEA37AD4F8062068
:1043200061790FF2C81000F0F5F904E02C2802D1F1
:10433000E01C01F00FFE94F9021094F9010001F065
:1043400065FA03287DD161780FF2B81000F0E2F928
:1043500077E0B4F8581000A801F047FB9DF904007D
:1043600002280AD1009800B201F025FB002500992F
:104370000FF2981000F0CEF963E0032861D10099A4
:104380000FF2901000F0C6F95BE00DF078FE022805
:1043900009D1607801F00FFB002561780FF27C10E5
:1043A00000F0B8F94DE003284BD161780FF274109A
:1043B00000F0B0F945E0607805280CD128460DF0F2
:1043C00040FF02280DD003283BD161780FF2641022
:1043D00000F0A0F935E002280DD10EF038F80228DF
:1043E000F1D1607801F0E7FA002561780FF23C1016
:1043F00000F090F925E02F2823D10EF097F902283C
:1044000009D1607801F0D7FA002561780FF22C10FD
:1044100000F080F915E0032813D161780FF2241021
:1044200000F078F90DE0204601F044FB09E0204659
:1044300001F0EDFC05E061780FF2101000F06AF970
:104440000025284615B030BD012070470FB402206A
:1044500004B070470120704700207047704700008B
:10446000534D41432025642025642025640000002D
:10447000534D412025642025642025640000000060
:10448000534D5243202564202564202564000000FC
:10449000534D52202564202564202564000000002F
:1044A0004154205249204E6F72202D2564202564EE
:1044B00020256400415420524920426174202D255A
:1044C000642025642025640050442055542D256423
:1044D00000000000534C4D2025640000414C4F4625
:1044E00020256400414C4346202564004F4A482063
:1044F000454C203078257820307825782030782574
:1045000078000000524C434620256400504C4F4632
:1045100020256400504C43462025640050414F46FE
:1045200020256400504143462025640050504F46EA
:1045300020256400505043462025640050534F46C8
:104540002025640050534346202564004558204CE4
:104550004D454C202564000000220EF083B910B5B3
:104560000400200008F07CFB200010BD10B5040002
:1045700010480078002805D10F480EF0B2F90D4818
:10458000012101700C480EF0E6F920000FF0B6F89A
:10459000040009480EF013FA200010BD10B5040005
:1045A00005480EF0D8F920000FF002FA02480EF08C
:1045B00006FA10BDD1FA012018F8012038B5040020
:1045C0000D0017480078401C154908701548007800
:1045D000002802D0A12001F089FD02F0A6F8A07EFB
:1045E000662802D0822001F081FD802080F31188AE
:1045F00000BF00BF08E0382120000FF067FC8020DA
:1046000080F3118800BF00BFE06821698842F2D0C2
:10461000290020000FF07EFC02F0C8F831BD00BF79
:10462000F84D0120CFFA012010B5DFF8404A4FF4D1
:1046300006720021204600F0B7FD204610BDDFF8CD
:104640002C0A704710B5FFF7EFFF044600231A4607
:104650001146084600F0E2FAC046C04606F0E7FA06
:104660000A21204600F03FF806F08BFE06F046FADD
:10467000204600F06EFA204600F018F8DFF8F00946
:10468000006806F08CFC204600F09BF900F06DFB02
:1046900000F00DFA00206072A072E0722073012019
:1046A00060730020E076A073012010BD10B50446B1
:1046B000DFF8C00906F0D5FB0120607110BD10B510
:1046C000044606F0EAFC0120A07110BD80B506F09A
:1046D000E7FF012002BD10B50446E07907F0F2F8CB
:1046E0000121217010BD70B504460025E679E17105
:1046F000FFF7F1FF002807D02046FFF7D7FF20463D
:10470000FFF7DDFF012503E0E6712046FFF7E3FF39
:10471000284670BD0EB470B5C1B0054600A84FF470
:104720008071FFF719FFFFF78AFF044645AB2A4661
:104730004FF4807100A80FF059FC00A80FF074FC32
:10474000451C00A82818002100F8011CDFF8286982
:104750003078401C30707078F021084202D09920E7
:1047600001F0C4FC01F038FD7078401C7070207FAF
:104770002818B0F5FA7F10DA207F002803D0207FB8
:1047800000190A2101772A4600A9207F00191D304F
:10479000FFF7E5FE207F281820777078F021084287
:1047A00002D0992001F0A2FC7078401E7070C0B257
:1047B000002801D101F00AFD01F0F8FF41B070BC02
:1047C0005DF810FBDFF87008DFF8A818016070478B
:1047D00010B50446FFF733FFD0E90423104619460D
:1047E000224601F063FC00F0010011F0000101D14C
:1047F00000280ED0DFF884482068401C20601E2866
:1048000007DB0FF69400FFF785FF07F0D5F80020CF
:10481000206010BDDFF864080021016070472DE9B9
:10482000F84305460E4617464FF00208DFF84848A1
:104830006078F021084202D0992001F057FC01F085
:10484000CBFC6078401C60709DF80000401E8DF825
:10485000000017F8019B2846FFF7B4FF00AB4A465B
:104860003946304607F0E4F8002812D06078F0218D
:10487000084202D0992001F039FC6078401E607037
:10488000C0B2002801D101F0A1FCFFF7C3FF012055
:104890001FE05FFA88F8424629460FF61000FFF73E
:1048A00039FF4046A0F101080028D7D16078F021F7
:1048B000084202D0992001F019FC6078401E607017
:1048C000C0B2002801D101F081FC2846FFF780FF2B
:1048D0000020BDE8F2832DE9F04704460D46164658
:1048E0001F46DFF85C87089888F80000DFF8889793
:1048F00099F80100F021084202D0992001F0F6FB5E
:1049000001F06AFC99F80100401C89F8010020467A
:10491000FFF758FF4FF0020A434632463946284611
:1049200007F038F9002815D099F80100F021084265
:1049300002D0992001F0DAFB99F80100401E89F8B5
:104940000100C0B2002801D101F040FCFFF762FF76
:10495000012022E05FFA8AFA524621460FF258708F
:10496000FFF7D8FE5046A0F1010A0028D4D199F8EB
:104970000100F021084202D0992001F0B7FB99F81C
:104980000100401E89F80100C0B2002801D101F0E9
:104990001DFC2046FFF71CFF0020BDE8F08780B516
:1049A0001146029A184606F0D9FA012002BD80B5D8
:1049B00010465A1E92B20178401C06F0AFFA012050
:1049C00002BD7CB50446FFF73AFE012100F0C8F8AD
:1049D0000120009001AB8022D0210020FFF7DFFFF3
:1049E0000FF2F8650FF2DC669DF8043040F21122F8
:1049F00031462846FFF78EFE9DF80400D02803D0EC
:104A0000D12801D0D22808D1022084F812020FF256
:104A1000E460FFF77FFE012076BD0120009001AB2E
:104A20008F221B210020FFF7BAFF9DF804304FF4BE
:104A3000077231462846FFF76DFE9DF8041069297C
:104A400007D1012084F81202CCA0FFF763FE0120F9
:104A500076BD0FF2A860FFF75DFE022084F8120217
:104A6000012084F812020FF2B060FFF753FE01201C
:104A700076BD30B587B0044600A80FF2B8611822A1
:104A800008F0FEF8FFF7DBFD90F8120200A901EB39
:104A9000C000255CFFF7D3FD2B46224690F812128A
:104AA0000FF2A860FFF736FE284607B030BD10F0C1
:104AB000E7B82DE9F843054602264FF00008DFF875
:104AC0007C9516E03046461EC0B2002814D1002C5A
:104AD0000CD1D5E9046701200021424610F0FEF90F
:104AE00026EA000027EA0101C5E90401022608F1CF
:104AF0000108B8F11D0F18DA59F82800D0F838016C
:104B0000006880470446012CDCD1D5E90467012008
:104B10000021424610F0E2F930433943C5E904016F
:104B200059F8280001210177D1E7D5E904010029CE
:104B300001D1032807D0002901D1022803D0002980
:104B400005D1012803D140F48050C5E90401BDE836
:104B5000F18307F064B907F0CAB907F074B900002F
:104B6000DFF81405026A036A00BF00BF00BF00BF80
:104B700000BF9B1A8B42F6DB7047417230B597B08D
:104B8000FBF702FB0446FFF75AFD054600A85C212F
:104B9000FFF7E2FC0020ADF858008DF801000DF1A0
:104BA00001000A21417000218170C170697A0029D9
:104BB0000DD0002C18D000218DF8001005218DF8A3
:104BC00001100B21417000A8FFF770FB0CE0002CD6
:104BD0000AD001218DF8001005218DF801100B215C
:104BE000417000A8FFF762FB17B030BD07F09EB917
:104BF00007F0A6B902210120F8E702210120F7E71A
:104C000001210846F2E701210846F1E707F0A2B9C1
:104C100010B50446FFF713FD447610BD2DE9F047AB
:104C200082B00C4615462F46264680464FF47A71D0
:104C30004FF03C0C4FF4616918FB09F216FB0C2293
:104C4000BA1801FB0232DFF8FCE39EF900A01AFB60
:104C500009F99EF901A01AFB0C9C9EF902904CFAEE
:104C600089FCBEF9039001FB0C919EF808C0BCF1D1
:104C7000000F22D144EA00012943194302D0012147
:104C80008EF808108EF80000B8F1000F04D59EF8D9
:104C9000000018308EF800008EF801408EF80250A7
:104CA000AEF8033000933B4632469EF900100FF2F7
:104CB000E440FFF72FFDBDE8F38791420DD3A1EB50
:104CC000020CACF2D17CDFF8B893CC45DAD30FF20A
:104CD000A04002B0BDE8F0471CE5D3D2A2EB010C26
:104CE000ACF2D179DFF898A3D145CBD363460FF26C
:104CF000904002B0BDE8F0470CE510B504002FD09D
:104D0000FBF789FBCF49CA68002A00D0841AB1F8A2
:104D10000320A218A1F8032012B2B2F57A7F06DBB5
:104D2000A2F57A72A1F803208A78521C8A7091F950
:104D300002203C2A04DB3C3A8A704A78521C4A70B2
:104D400091F901203C2A04DB3C3A4A700A78521C53
:104D50000A7091F90020182A01DB00220A70C8604D
:104D600010BDB849052207F07BBFB748002101708C
:104D700041701E22B54800F017BA000053544D0090
:104D80003FB400210120B04A1278002A0CD12CE057
:104D90005C68019DAC4224D11B89BDF80840A34248
:104DA0001FD10020491CC9B291421EDAC1EBC103D8
:104DB000A64C04EB43039DF80340DD78A54213D1D4
:104DC000002CE5D09C88BDF80450AC4209D1DC88A9
:104DD000BDF80650AC4204D11B89BDF80840A3427F
:104DE000DFD000F00100DDE7012004B030BC7047E7
:104DF0007FB40020014626E0C0EBC0025400934D72
:104E000066193C224FF46163645D757812FB05F509
:104E100013FB0454B57864199DF800509DF80160A7
:104E200012FB06F213FB05229DF8023052FA83F2C0
:104E3000A24201D2864B9A18121BB2F5966F00D986
:104E4000491C401CC0B2804A13789842D4DBC9B2D6
:104E50008B4202D20020107001E0581A10707FBC03
:104E600070472DE9FF419DF80340022C5EDA00A84F
:104E70000FC8FFF785FF012858D100A80FC8FFF71A
:104E8000B7FF9DF802509DF80160704FDFF8B881C0
:104E900098F80000032825D13C214FF461603A784E
:104EA0007B7811FB03F310FB0232BB78D2189DF81C
:104EB000003011FB06F110FB031050FA85F0904210
:104EC00001D263490818811AB1F5966F02D94FF4DF
:104ED000966000E0801AA8F80200FFF746FF012064
:104EE00088F8010098F80000C0EBC00149009DF867
:104EF0000020CA55C9194E708D70CC70BDF80820BD
:104F0000002C09D1019B4B600A81BDF80A204A811F
:104F1000BDF80C208A8106E0BDF804308B80BDF816
:104F20000630CB800A81401C88F80000BDE8FF8174
:104F30004549487800224A7070472522002151488F
:104F400000F032B91CB500A8FFF70BFF4D4C25222D
:104F50000021204600F028F99DF80000A07604F218
:104F60001A009DF8011041709DF802108170FF2118
:104F7000817213BD70B52DED028B044620680028A8
:104F800005D16068002802D1A068002849D0A08916
:104F9000B0F57A7F45DA2F4DA0680FF0B1FF2E4AA9
:104FA0002E4B09F07FF9286169619FED2D8B2068F8
:104FB0000FF0A6FF53EC182B09F074F92860696014
:104FC00060680FF09DFF53EC182B09F06BF9A86097
:104FD000E960A089288305F11806A07BB070E07B0A
:104FE000F070207C3071607C7071608A00EE100A75
:104FF000B8EE400A10EE100A09F028F91A4A224BBE
:1050000009F050F909F020FAC5F81E00A08A708155
:10501000A07D307310F029FABDEC028BBDE8704022
:105020008BE710F020FABDEC028BBDE8704089E7F9
:105030000849252207F014BEB44F0120FCE30120EB
:10504000A5FA01205CF8012004FA0120F0F4012007
:105050008051010070F50120FCA9F1D24D62503F52
:105060008DEDB5A0F7C6B03E3BDF4F8D50D101208E
:10507000D84F012000540040F84D012008FA0120CB
:105080005F4C260598F50120976EA23F80B510F081
:105090002DFE002104BD0000233E496E6974696C39
:1050A00061697A6520493243000000004957452074
:1050B00025642025640000004952452025642025F0
:1050C0006400000053485F48415F436865636B3686
:1050D0004178697353656E736F72000025732825DC
:1050E0006429203A20726567203D205B30782530A6
:1050F00032785D00426F73636800000057484F418B
:105100004D49206661696C203A207265675B307892
:10511000253032785D000000556E6B6E6F776E2023
:1051200036617869732073656E736F722121212156
:10513000000000000001020304070605000102034D
:1051400004070605030001020504070665364178D9
:10515000697353656E736F722825642920446F74D8
:1051600028256429204178697328256429000000D6
:1051700041542D5365745453312025642025640017
:1051800041542D53657454533220256420256420E6
:105190002564000041542D536574542025643A253C
:1051A000643A25642E25640010B5040010000A003E
:1051B0000100200010F000FF200010BD50EA0102A5
:1051C00000F00E80094200BF0BD1B0FA80F1884098
:1051D000C1F19D01C905020672F1004241EB1020A8
:1051E0007047B1FA81F241409040C2F1200261FA69
:1051F00002F181EA000018BF40F0010002F19D01B8
:10520000E8E710B450F8041B81B102681218001DC1
:1052100050F8043BDC0744BFA9F10104E31852F83D
:10522000044B43F8044B091FF9D1EBE710BC70475E
:1052300070B5DFF8844BFEF72DF8E06410F0F0FE57
:10524000FEF73EFF2065002517E04FF0FF30C876DF
:10525000DFF8680B4862DFF8680B8862DFF8642BC0
:10526000CA62DFF8642B0A63DFF8602B4A63886345
:10527000206D3018806B80476D1C412D80F2B58108
:10528000206DC5EB05118E0000213154311800222C
:105290004A700122CA7600228A764FF0FF324A60B5
:1052A00000228A700A62CA702A46921E3E2ACCD810
:1052B000DFE812F04B0040005C0153005A0065002B
:1052C00087003F003F003F003F003F003F0090004D
:1052D00099003F003F003F003F00A1003F00AA00AF
:1052E0003F006101BB003F00050110013F00D300FA
:1052F000DB00E400EC00FD003F003F003F003F000A
:105300003F003F003F003F001C0131013F004801CA
:1053100075007F0053016C01C7003F00B3003D01E1
:105320003F003F0092016D007D018A0182017401FE
:1053300029018AE7DFF8301CC0F8EC10012180F861
:10534000CE107C303C21C16392E700F17C01DFF894
:105350001C2C4A631421C1678AE7EC30DFF8101C6B
:1053600081671421416483E700F5B671DFF8042CEE
:105370004A6301228A753C21C0F86C1178E700F578
:10538000B671DFF8F40B08673C20C86370E700F6DD
:105390009C50DFF8E81B01673C21C16368E700F619
:1053A0003C30DFF8DC1BC163012181773C21816047
:1053B0005EE700F63C30DFF8CC1B8167B421416426
:1053C00056E7DFF8C41BC0F8181200F5B6701421B8
:1053D00081674DE700F56271DFF8B02B4A63B421B5
:1053E000C0F8881344E700F56270DFF8A41B01677A
:1053F0003C21C1633CE700F59E61DFF8982B4A63CE
:105400003C21C0F8F01433E7DFF88C1BC0F89C1582
:1054100000F59E603C2181672AE700F66840DFF8CE
:105420007C1B81673C21416422E700F21460DFF8B5
:10543000701BC1630721C177012181773C21816005
:1054400016E7DFF8601BC0F8681C012180F84A1CD1
:1054500000F6BC30B42181670AE700F20470DFF87F
:10546000481B81671421416402E700F28471DFF870
:105470003C2B4A631421C0F88417F9E600F28470CB
:10548000DFF82C1B01671421C163F1E6FFF7D7F8A1
:1054900090F81202401E012804D8206DDFF8141B7A
:1054A000C0F83018206D0A21C0F8FC17E0E6DFF8DC
:1054B000081BC0F86C181421C0F83818D8E600F2A0
:1054C0009461DFF8F82A4A6301228A751421C0F832
:1054D0009416CDE6DFF8E81AC0F80417012180F829
:1054E000E61600F294603C21C163C1E600F6542147
:1054F000DFF8D02A4A630322CA7501228A753C214B
:10550000C0F8541AB4E600F6C860DFF8BC1A0167A8
:105510001421C163ACE6DFF8B41AC0F8C41A012143
:1055200080F8A61A00F654203C21C163A0E600F6DC
:10553000E841DFF89C2A4A6301228A751421C0F8E9
:10554000E81C95E6DFF88C1AC0F83C1B012180F8B6
:105550001E1B1421C0F8081B8AE600F6BC31DFF8D8
:10556000782A4A631421C0F8BC1B81E6EC30DFF8CE
:105570006C1AC1637CE6DFF8681AC0F814160121C2
:1055800080F8F6153C21C0F8E01571E600F6BC3055
:10559000DFF8501A01671421C16369E600F6C8619B
:1055A000DFF8442A4A631421C0F8C81E60E6DFF819
:1055B0003C1AC0F8481E5BE600F64860DFF8301A77
:1055C00081673C21416453E600F64860DFF8241A05
:1055D000C1633C2181604BE600F69C51DFF8182A3C
:1055E0004A631421C0F89C1D42E6012070BD0CB432
:1055F0002DE9F04393B006460F46012435461A2D97
:1056000042D02C2D40D0C5EB05104FEA8008DFF8C2
:10561000A8970B2F18D1D9F85000404441780029A1
:1056200012D090F91B20012A0EDB91420CDB304690
:1056300000F082F90446D9F850004044002141703E
:105640000FF6C410FFF766F8D9F8500018F80010EC
:1056500000294FD108EB00014A78002A4AD10022E4
:1056600008F80020104648701AA983B068465822EE
:1056700007F006FB0EBC304600F084F8022834D058
:10568000032837D1032435E00B2F15D1C5EB0510C6
:105690004FEA8008DFF82097D9F85000404490F98D
:1056A0001B20012A08DB4078904205DB0FF66010D2
:1056B000FFF730F8022060E01A2D04D13846C0B25E
:1056C0000BF039F905E02C2D03D13846C0B210F0AB
:1056D00049FD1AA983B06846582207F0D1FA0EBCDA
:1056E000304600F04FF8022801D1022045E003289F
:1056F00000D103240A2F0DD1DFF8BC96D9F8500051
:10570000C5EB05114FEA810818F80010491C08F88C
:10571000001017E00B2F15D1DFF89C96032D07D151
:10572000D9F8500090F8B500002801D10AF09FFA8E
:10573000C5EB05104FEA8008D9F850004044417885
:10574000491C4170DFF87096D9F85000D9F84C1018
:10575000C5EB05124FEA8208D1E91C23CDE90223EB
:10576000C96E009108EB00014B7818F8002029461B
:105770000FF6A800FEF7CEFF204613B0BDE8F003F9
:105780005DF80CFB0EB42DE9F04193B00546012401
:10579000C0EB00118F00DFF82066D6F850801A2881
:1057A00001D02C2808D117F80800002809D107EBF0
:1057B00008004078002804D107EB08000021817020
:1057C000016219A984B06846582207F059FA0FBC43
:1057D00047447F6AB847022801D1022011E003281C
:1057E00001D103240CE0D6F84C80D8E91C67204690
:1057F00000212A460FF072FB30433943C8E91C01EF
:10580000204613B0BDE8F0015DF810FB2DE9F84328
:1058100004460D4601262746C7EB07104FEA8008CD
:10582000DFF89495D9F850001A2F4ED02C2F4CD079
:105830004044417802290BDB90F91B20012A07DB49
:105840001346994204DB42700FF2E470FEF762FFE8
:10585000D9F8500018F80010002904D108EB000214
:105860005278002A65D02A460A2A09D1002903D095
:10587000491E08F8001017E0002108F8001013E096
:105880000B2A11D108EB00014A78002A02D0521EDF
:105890004A7001E000224A70032F05D190F8B5004C
:1058A000002801D10AF0F2F9D9F8500018F80010D8
:1058B00000293ED14044407800283AD1204600F0EB
:1058C0003BF8032835D1032633E018F800100029EF
:1058D00004D108EB00025278002A2AD02A460A2A6C
:1058E00009D1002903D0491E08F800100EE000215C
:1058F00008F800100AE00B2A08D14044417800293A
:1059000002D0491E417001E0002141701A2F04D1DC
:105910002846C0B20BF00FF805E02C2F03D1284623
:10592000C0B210F01FFC204600F006F8032800D19A
:1059300003263046BDE8F2832DE9F04107460126F3
:10594000B846C8EB08108500DFF86C44206D2818B5
:10595000806A8047032800D10326B8F12C0F07D1B5
:10596000206D295C00290AD128184078002806D12A
:10597000384640B200F07BF9032800D10326206DA1
:10598000295C002914D128184178002910D1002160
:1059900081700162D4F84C80D8E91C4501203A4658
:1059A0000FF09CFA24EA000025EA0101C8E91C0175
:1059B0003046BDE8F08138B50446C4EB04108000E1
:1059C000DFF8F453296D002242544018114641700B
:1059D0002046FFF7B1FFE86CD0E91C2321460FF207
:1059E0005860FEF797FE012032BD2DE9F041B6B0B8
:1059F00004460E46B6B201208DF86400DFF8B853B5
:105A00001AA8E96C6C2207F03BF917951AA984B023
:105A100068466C2207F034F90FBC00F0D9F9002772
:105A20000BE0032803D1189703208DF86400286D3C
:105A30004044002181707F1C7FB2412F2ADAEA6C3A
:105A4000D2E91C013A4600F031FB00F0010011F0F0
:105A5000000101D10028EED0C7EB07104FEA800803
:105A6000286D404441680029E5D48278521C827038
:105A7000D2B2724389B28A42DDDBC06A8047022813
:105A8000CFD1189702208DF86400DDE91801C4E930
:105A9000000103E0DDE91801C4E9000136B0BDE80A
:105AA000F0810021401F42F20C72904200D201218D
:105AB000084670472DE9F04383B00446002001906A
:105AC0000422E11C01A8FEF74AFD6178BA4E376D49
:105AD0003C2515FB01704068019A904204D10FF2F9
